{
  "deployments": [
    {
      "transactions": [
        {
          "hash": "0xf9284255102f37b884bbdc8e6bf9e1c3ae229fda0a7c7604d73a8cb5dddf1c34",
          "transactionType": "CALL",
          "contractName": null,
          "contractAddress": "0x2a0dd3580658cc32e2d0984051da5f2312001a13",
          "function": "allowlistSender(address,bool)",
          "arguments": [
            "0x0d7135aAf464555e780E2a63f3B1ef0A97B3A499",
            "true"
          ],
          "transaction": {
            "from": "0x8454d149beb26e3e3fc5ed1c87fb0b2a1b7b6c2c",
            "to": "0x2a0dd3580658cc32e2d0984051da5f2312001a13",
            "gas": "0xb692",
            "value": "0x0",
            "input": "0xeab5b02c0000000000000000000000000d7135aaf464555e780e2a63f3b1ef0a97b3a4990000000000000000000000000000000000000000000000000000000000000001",
            "nonce": "0x449",
            "chainId": "0x14a34"
          },
          "additionalContracts": [],
          "isFixedGasLimit": false
        },
        {
          "hash": "0x7ebd8a73db570f60c4016cf70b35693a1142505661620472c1b4eaa722413860",
          "transactionType": "CALL",
          "contractName": null,
          "contractAddress": "0x2a0dd3580658cc32e2d0984051da5f2312001a13",
          "function": "allowlistSourceChain(uint64,bool)",
          "arguments": [
            "10344971235874465080",
            "true"
          ],
          "transaction": {
            "from": "0x8454d149beb26e3e3fc5ed1c87fb0b2a1b7b6c2c",
            "to": "0x2a0dd3580658cc32e2d0984051da5f2312001a13",
            "gas": "0xc047",
            "value": "0x0",
            "input": "0xdb04fa490000000000000000000000000000000000000000000000008f90b8876dee65380000000000000000000000000000000000000000000000000000000000000001",
            "nonce": "0x44a",
            "chainId": "0x14a34"
          },
          "additionalContracts": [],
          "isFixedGasLimit": false
        },
        {
          "hash": "0x56ff8a5056dd8214fde4e15b128c9bba386d399a624bfc709247a03c4d2f1db5",
          "transactionType": "CALL",
          "contractName": null,
          "contractAddress": "0x2a0dd3580658cc32e2d0984051da5f2312001a13",
          "function": "allowlistDestinationChain(uint64,bool)",
          "arguments": [
            "16015286601757825753",
            "true"
          ],
          "transaction": {
            "from": "0x8454d149beb26e3e3fc5ed1c87fb0b2a1b7b6c2c",
            "to": "0x2a0dd3580658cc32e2d0984051da5f2312001a13",
            "gas": "0xb5b8",
            "value": "0x0",
            "input": "0x96d3b83d000000000000000000000000000000000000000000000000de41ba4fc9d91ad90000000000000000000000000000000000000000000000000000000000000001",
            "nonce": "0x44b",
            "chainId": "0x14a34"
          },
          "additionalContracts": [],
          "isFixedGasLimit": false
        },
        {
          "hash": "0x0df83ae50c112e2d8393c4ecaee39871234fe9d24ba9710ec80d4cec2c603266",
          "transactionType": "CALL",
          "contractName": null,
          "contractAddress": "0xa8ed9fb5feb9eebb5239472c3cff0ee3f138079d",
          "function": "setGasLimitsForFunctionSelectors(bytes4[],uint256[])",
          "arguments": [
            "[0xe7a050aa, 0xcc15a557, 0x0dd8dd02, 0x60d7faed, 0xeea9064b, 0xda8be864, 0x3ccc861d]",
            "[2000000, 1500000, 560000, 820000, 580000, 800000, 980000]"
          ],
          "transaction": {
            "from": "0x8454d149beb26e3e3fc5ed1c87fb0b2a1b7b6c2c",
            "to": "0xa8ed9fb5feb9eebb5239472c3cff0ee3f138079d",
            "gas": "0x1bae3",
            "value": "0x0",
            "input": "0x3ef2d377000000000000000000000000000000000000000000000000000000000000004000000000000000000000000000000000000000000000000000000000000001400000000000000000000000000000000000000000000000000000000000000007e7a050aa00000000000000000000000000000000000000000000000000000000cc15a557000000000000000000000000000000000000000000000000000000000dd8dd020000000000000000000000000000000000000000000000000000000060d7faed00000000000000000000000000000000000000000000000000000000eea9064b00000000000000000000000000000000000000000000000000000000da8be864000000000000000000000000000000000000000000000000000000003ccc861d00000000000000000000000000000000000000000000000000000000000000000000000000000000000000000000000000000000000000000000000700000000000000000000000000000000000000000000000000000000001e8480000000000000000000000000000000000000000000000000000000000016e3600000000000000000000000000000000000000000000000000000000000088b8000000000000000000000000000000000000000000000000000000000000c8320000000000000000000000000000000000000000000000000000000000008d9a000000000000000000000000000000000000000000000000000000000000c350000000000000000000000000000000000000000000000000000000000000ef420",
            "nonce": "0x44c",
            "chainId": "0x14a34"
          },
          "additionalContracts": [],
          "isFixedGasLimit": false
        },
        {
          "hash": "0x73b0b23745d8acbb617d2f932a5b11fc7037daee4796cd6c2e058c5abc5a586b",
          "transactionType": "CALL",
          "contractName": null,
          "contractAddress": "0xa8ed9fb5feb9eebb5239472c3cff0ee3f138079d",
          "function": "setSenderCCIP(address)",
          "arguments": [
            "0x2a0dd3580658CC32e2D0984051DA5f2312001a13"
          ],
          "transaction": {
            "from": "0x8454d149beb26e3e3fc5ed1c87fb0b2a1b7b6c2c",
            "to": "0xa8ed9fb5feb9eebb5239472c3cff0ee3f138079d",
            "gas": "0xbf82",
            "value": "0x0",
            "input": "0xd8d6c31a0000000000000000000000002a0dd3580658cc32e2d0984051da5f2312001a13",
            "nonce": "0x44d",
            "chainId": "0x14a34"
          },
          "additionalContracts": [],
          "isFixedGasLimit": false
        },
        {
          "hash": "0x3f3db1a01d486a5eff1228cd0c9ba0e066c452ba478749d980b05c74ae9658e2",
          "transactionType": "CALL",
          "contractName": null,
          "contractAddress": "0x2a0dd3580658cc32e2d0984051da5f2312001a13",
          "function": "getSenderHooks()",
          "arguments": [],
          "transaction": {
            "from": "0x8454d149beb26e3e3fc5ed1c87fb0b2a1b7b6c2c",
            "to": "0x2a0dd3580658cc32e2d0984051da5f2312001a13",
            "gas": "0xa5f1",
            "value": "0x0",
            "input": "0xe09df825",
            "nonce": "0x44e",
            "chainId": "0x14a34"
          },
          "additionalContracts": [],
          "isFixedGasLimit": false
        },
        {
          "hash": "0xe1a149b1beaf16c76f263916f0ade749119747b7756738f5124598d37faa8066",
          "transactionType": "CALL",
          "contractName": null,
          "contractAddress": "0x2a0dd3580658cc32e2d0984051da5f2312001a13",
          "function": "allowlistedSenders(address)",
          "arguments": [
            "0x0d7135aAf464555e780E2a63f3B1ef0A97B3A499"
          ],
          "transaction": {
            "from": "0x8454d149beb26e3e3fc5ed1c87fb0b2a1b7b6c2c",
            "to": "0x2a0dd3580658cc32e2d0984051da5f2312001a13",
            "gas": "0xb2c0",
            "value": "0x0",
            "input": "0x6159ada10000000000000000000000000d7135aaf464555e780e2a63f3b1ef0a97b3a499",
            "nonce": "0x44f",
            "chainId": "0x14a34"
          },
          "additionalContracts": [],
          "isFixedGasLimit": false
        },
        {
          "hash": "0x20adc0d46d1e92bc03b277c4c195d09ecae2649bf975d9921e020c0ab1b33450",
          "transactionType": "CALL",
          "contractName": null,
          "contractAddress": "0x2a0dd3580658cc32e2d0984051da5f2312001a13",
          "function": "allowlistedSourceChains(uint64)",
          "arguments": [
            "16015286601757825753"
          ],
          "transaction": {
            "from": "0x8454d149beb26e3e3fc5ed1c87fb0b2a1b7b6c2c",
            "to": "0x2a0dd3580658cc32e2d0984051da5f2312001a13",
            "gas": "0xa850",
            "value": "0x0",
            "input": "0x4030d521000000000000000000000000000000000000000000000000de41ba4fc9d91ad9",
            "nonce": "0x450",
            "chainId": "0x14a34"
          },
          "additionalContracts": [],
          "isFixedGasLimit": false
        },
        {
          "hash": "0x793534bf83bb588a2787cf803ec4307c51318f37e621c743da8fd80f3b880d04",
          "transactionType": "CALL",
          "contractName": null,
          "contractAddress": "0x2a0dd3580658cc32e2d0984051da5f2312001a13",
          "function": "allowlistedDestinationChains(uint64)",
          "arguments": [
            "16015286601757825753"
          ],
          "transaction": {
            "from": "0x8454d149beb26e3e3fc5ed1c87fb0b2a1b7b6c2c",
            "to": "0x2a0dd3580658cc32e2d0984051da5f2312001a13",
            "gas": "0xb236",
            "value": "0x0",
            "input": "0x75c67c66000000000000000000000000000000000000000000000000de41ba4fc9d91ad9",
            "nonce": "0x451",
            "chainId": "0x14a34"
          },
          "additionalContracts": [],
          "isFixedGasLimit": false
        }
      ],
      "receipts": [
        {
          "status": "0x1",
          "cumulativeGasUsed": "0x399fb",
          "logs": [],
          "logsBloom": "0x00000000000000000000000000000000000000000000000000000000000000000000000000000000000000000000000000000000000000000000000000000000000000000000000000000000000000000000000000000000000000000000000000000000000000000000000000000000000000000000000000000000000000000000000000000000000000000000000000000000000000000000000000000000000000000000000000000000000000000000000000000000000000000000000000000000000000000000000000000000000000000000000000000000000000000000000000000000000000000000000000000000000000000000000000000000",
          "type": "0x2",
          "transactionHash": "0xf9284255102f37b884bbdc8e6bf9e1c3ae229fda0a7c7604d73a8cb5dddf1c34",
          "transactionIndex": "0x4",
          "blockHash": "0x91908fb268a5584e53bc503d44b58fc73840df62738180523a3f84ac6ee324c7",
          "blockNumber": "0xec3d38",
          "gasUsed": "0x842f",
          "effectiveGasPrice": "0x8788b",
          "from": "0x8454d149beb26e3e3fc5ed1c87fb0b2a1b7b6c2c",
          "to": "0x2a0dd3580658cc32e2d0984051da5f2312001a13",
          "contractAddress": null,
          "l1BaseFeeScalar": "0x44d",
          "l1BlobBaseFee": "0x3ebf4b2339b",
          "l1BlobBaseFeeScalar": "0xa118b",
          "l1Fee": "0x102dca955eef2",
          "l1GasPrice": "0xccacc02ea",
          "l1GasUsed": "0x640"
        },
        {
          "status": "0x1",
          "cumulativeGasUsed": "0x41d74",
          "logs": [],
          "logsBloom": "0x00000000000000000000000000000000000000000000000000000000000000000000000000000000000000000000000000000000000000000000000000000000000000000000000000000000000000000000000000000000000000000000000000000000000000000000000000000000000000000000000000000000000000000000000000000000000000000000000000000000000000000000000000000000000000000000000000000000000000000000000000000000000000000000000000000000000000000000000000000000000000000000000000000000000000000000000000000000000000000000000000000000000000000000000000000000",
          "type": "0x2",
          "transactionHash": "0x7ebd8a73db570f60c4016cf70b35693a1142505661620472c1b4eaa722413860",
          "transactionIndex": "0x5",
          "blockHash": "0x91908fb268a5584e53bc503d44b58fc73840df62738180523a3f84ac6ee324c7",
          "blockNumber": "0xec3d38",
          "gasUsed": "0x8379",
          "effectiveGasPrice": "0x8788b",
          "from": "0x8454d149beb26e3e3fc5ed1c87fb0b2a1b7b6c2c",
          "to": "0x2a0dd3580658cc32e2d0984051da5f2312001a13",
          "contractAddress": null,
          "l1BaseFeeScalar": "0x44d",
          "l1BlobBaseFee": "0x3ebf4b2339b",
          "l1BlobBaseFeeScalar": "0xa118b",
          "l1Fee": "0x102dca955eef2",
          "l1GasPrice": "0xccacc02ea",
          "l1GasUsed": "0x640"
        },
        {
          "status": "0x1",
          "cumulativeGasUsed": "0x4a104",
          "logs": [],
          "logsBloom": "0x00000000000000000000000000000000000000000000000000000000000000000000000000000000000000000000000000000000000000000000000000000000000000000000000000000000000000000000000000000000000000000000000000000000000000000000000000000000000000000000000000000000000000000000000000000000000000000000000000000000000000000000000000000000000000000000000000000000000000000000000000000000000000000000000000000000000000000000000000000000000000000000000000000000000000000000000000000000000000000000000000000000000000000000000000000000",
          "type": "0x2",
          "transactionHash": "0x56ff8a5056dd8214fde4e15b128c9bba386d399a624bfc709247a03c4d2f1db5",
          "transactionIndex": "0x6",
          "blockHash": "0x91908fb268a5584e53bc503d44b58fc73840df62738180523a3f84ac6ee324c7",
          "blockNumber": "0xec3d38",
          "gasUsed": "0x8390",
          "effectiveGasPrice": "0x8788b",
          "from": "0x8454d149beb26e3e3fc5ed1c87fb0b2a1b7b6c2c",
          "to": "0x2a0dd3580658cc32e2d0984051da5f2312001a13",
          "contractAddress": null,
          "l1BaseFeeScalar": "0x44d",
          "l1BlobBaseFee": "0x3ebf4b2339b",
          "l1BlobBaseFeeScalar": "0xa118b",
          "l1Fee": "0x102dca955eef2",
          "l1GasPrice": "0xccacc02ea",
          "l1GasUsed": "0x640"
        },
        {
          "status": "0x1",
          "cumulativeGasUsed": "0x5e1a9",
          "logs": [
            {
              "address": "0xa8ed9fb5feb9eebb5239472c3cff0ee3f138079d",
              "topics": [
                "0xed4c89b805f4efb58bc4a42b9a3c6f09783f619295a1fa41ab46d6190c8c7f3b",
                "0xe7a050aa00000000000000000000000000000000000000000000000000000000",
                "0x00000000000000000000000000000000000000000000000000000000001e8480"
              ],
              "data": "0x",
              "blockHash": "0x91908fb268a5584e53bc503d44b58fc73840df62738180523a3f84ac6ee324c7",
              "blockNumber": "0xec3d38",
              "transactionHash": "0x0df83ae50c112e2d8393c4ecaee39871234fe9d24ba9710ec80d4cec2c603266",
              "transactionIndex": "0x7",
              "logIndex": "0x6",
              "removed": false
            },
            {
              "address": "0xa8ed9fb5feb9eebb5239472c3cff0ee3f138079d",
              "topics": [
                "0xed4c89b805f4efb58bc4a42b9a3c6f09783f619295a1fa41ab46d6190c8c7f3b",
                "0xcc15a55700000000000000000000000000000000000000000000000000000000",
                "0x000000000000000000000000000000000000000000000000000000000016e360"
              ],
              "data": "0x",
              "blockHash": "0x91908fb268a5584e53bc503d44b58fc73840df62738180523a3f84ac6ee324c7",
              "blockNumber": "0xec3d38",
              "transactionHash": "0x0df83ae50c112e2d8393c4ecaee39871234fe9d24ba9710ec80d4cec2c603266",
              "transactionIndex": "0x7",
              "logIndex": "0x7",
              "removed": false
            },
            {
              "address": "0xa8ed9fb5feb9eebb5239472c3cff0ee3f138079d",
              "topics": [
                "0xed4c89b805f4efb58bc4a42b9a3c6f09783f619295a1fa41ab46d6190c8c7f3b",
                "0x0dd8dd0200000000000000000000000000000000000000000000000000000000",
                "0x0000000000000000000000000000000000000000000000000000000000088b80"
              ],
              "data": "0x",
              "blockHash": "0x91908fb268a5584e53bc503d44b58fc73840df62738180523a3f84ac6ee324c7",
              "blockNumber": "0xec3d38",
              "transactionHash": "0x0df83ae50c112e2d8393c4ecaee39871234fe9d24ba9710ec80d4cec2c603266",
              "transactionIndex": "0x7",
              "logIndex": "0x8",
              "removed": false
            },
            {
              "address": "0xa8ed9fb5feb9eebb5239472c3cff0ee3f138079d",
              "topics": [
                "0xed4c89b805f4efb58bc4a42b9a3c6f09783f619295a1fa41ab46d6190c8c7f3b",
                "0x60d7faed00000000000000000000000000000000000000000000000000000000",
                "0x00000000000000000000000000000000000000000000000000000000000c8320"
              ],
              "data": "0x",
              "blockHash": "0x91908fb268a5584e53bc503d44b58fc73840df62738180523a3f84ac6ee324c7",
              "blockNumber": "0xec3d38",
              "transactionHash": "0x0df83ae50c112e2d8393c4ecaee39871234fe9d24ba9710ec80d4cec2c603266",
              "transactionIndex": "0x7",
              "logIndex": "0x9",
              "removed": false
            },
            {
              "address": "0xa8ed9fb5feb9eebb5239472c3cff0ee3f138079d",
              "topics": [
                "0xed4c89b805f4efb58bc4a42b9a3c6f09783f619295a1fa41ab46d6190c8c7f3b",
                "0xeea9064b00000000000000000000000000000000000000000000000000000000",
                "0x000000000000000000000000000000000000000000000000000000000008d9a0"
              ],
              "data": "0x",
              "blockHash": "0x91908fb268a5584e53bc503d44b58fc73840df62738180523a3f84ac6ee324c7",
              "blockNumber": "0xec3d38",
              "transactionHash": "0x0df83ae50c112e2d8393c4ecaee39871234fe9d24ba9710ec80d4cec2c603266",
              "transactionIndex": "0x7",
              "logIndex": "0xa",
              "removed": false
            },
            {
              "address": "0xa8ed9fb5feb9eebb5239472c3cff0ee3f138079d",
              "topics": [
                "0xed4c89b805f4efb58bc4a42b9a3c6f09783f619295a1fa41ab46d6190c8c7f3b",
                "0xda8be86400000000000000000000000000000000000000000000000000000000",
                "0x00000000000000000000000000000000000000000000000000000000000c3500"
              ],
              "data": "0x",
              "blockHash": "0x91908fb268a5584e53bc503d44b58fc73840df62738180523a3f84ac6ee324c7",
              "blockNumber": "0xec3d38",
              "transactionHash": "0x0df83ae50c112e2d8393c4ecaee39871234fe9d24ba9710ec80d4cec2c603266",
              "transactionIndex": "0x7",
              "logIndex": "0xb",
              "removed": false
            },
            {
              "address": "0xa8ed9fb5feb9eebb5239472c3cff0ee3f138079d",
              "topics": [
                "0xed4c89b805f4efb58bc4a42b9a3c6f09783f619295a1fa41ab46d6190c8c7f3b",
                "0x3ccc861d00000000000000000000000000000000000000000000000000000000",
                "0x00000000000000000000000000000000000000000000000000000000000ef420"
              ],
              "data": "0x",
              "blockHash": "0x91908fb268a5584e53bc503d44b58fc73840df62738180523a3f84ac6ee324c7",
              "blockNumber": "0xec3d38",
              "transactionHash": "0x0df83ae50c112e2d8393c4ecaee39871234fe9d24ba9710ec80d4cec2c603266",
              "transactionIndex": "0x7",
              "logIndex": "0xc",
              "removed": false
            }
          ],
          "logsBloom": "0x0000000000000000004001000000000000000000080000000000010000400000000000800000000004080000004200000800000000100000000000000088000000000000240000000000000000000004000a000000010000080000000000000000000010000000000000100000000000830000080000000000000020000100040000100000800000008000000100010000000000000000000000000000000000000000400000000000000000002000000000000008000000000000000000400400040000000000000008001000000002000000000000100000000000000000000000000000001000000000000000000000000000000000000000010000000000",
          "type": "0x2",
          "transactionHash": "0x0df83ae50c112e2d8393c4ecaee39871234fe9d24ba9710ec80d4cec2c603266",
          "transactionIndex": "0x7",
          "blockHash": "0x91908fb268a5584e53bc503d44b58fc73840df62738180523a3f84ac6ee324c7",
          "blockNumber": "0xec3d38",
          "gasUsed": "0x140a5",
          "effectiveGasPrice": "0x8788b",
          "from": "0x8454d149beb26e3e3fc5ed1c87fb0b2a1b7b6c2c",
          "to": "0xa8ed9fb5feb9eebb5239472c3cff0ee3f138079d",
          "contractAddress": null,
          "l1BaseFeeScalar": "0x44d",
          "l1BlobBaseFee": "0x3ebf4b2339b",
          "l1BlobBaseFeeScalar": "0xa118b",
          "l1Fee": "0x1c29877a5dc14",
          "l1GasPrice": "0xccacc02ea",
          "l1GasUsed": "0xae1"
        },
        {
          "status": "0x1",
          "cumulativeGasUsed": "0x6649c",
          "logs": [],
          "logsBloom": "0x00000000000000000000000000000000000000000000000000000000000000000000000000000000000000000000000000000000000000000000000000000000000000000000000000000000000000000000000000000000000000000000000000000000000000000000000000000000000000000000000000000000000000000000000000000000000000000000000000000000000000000000000000000000000000000000000000000000000000000000000000000000000000000000000000000000000000000000000000000000000000000000000000000000000000000000000000000000000000000000000000000000000000000000000000000000",
          "type": "0x2",
          "transactionHash": "0x73b0b23745d8acbb617d2f932a5b11fc7037daee4796cd6c2e058c5abc5a586b",
          "transactionIndex": "0x8",
          "blockHash": "0x91908fb268a5584e53bc503d44b58fc73840df62738180523a3f84ac6ee324c7",
          "blockNumber": "0xec3d38",
          "gasUsed": "0x82f3",
          "effectiveGasPrice": "0x8788b",
          "from": "0x8454d149beb26e3e3fc5ed1c87fb0b2a1b7b6c2c",
          "to": "0xa8ed9fb5feb9eebb5239472c3cff0ee3f138079d",
          "contractAddress": null,
          "l1BaseFeeScalar": "0x44d",
          "l1BlobBaseFee": "0x3ebf4b2339b",
          "l1BlobBaseFeeScalar": "0xa118b",
          "l1Fee": "0x102dca955eef2",
          "l1GasPrice": "0xccacc02ea",
          "l1GasUsed": "0x640"
        },
        {
          "status": "0x1",
          "cumulativeGasUsed": "0x6dcc0",
          "logs": [],
          "logsBloom": "0x00000000000000000000000000000000000000000000000000000000000000000000000000000000000000000000000000000000000000000000000000000000000000000000000000000000000000000000000000000000000000000000000000000000000000000000000000000000000000000000000000000000000000000000000000000000000000000000000000000000000000000000000000000000000000000000000000000000000000000000000000000000000000000000000000000000000000000000000000000000000000000000000000000000000000000000000000000000000000000000000000000000000000000000000000000000",
          "type": "0x2",
          "transactionHash": "0x3f3db1a01d486a5eff1228cd0c9ba0e066c452ba478749d980b05c74ae9658e2",
          "transactionIndex": "0x9",
          "blockHash": "0x91908fb268a5584e53bc503d44b58fc73840df62738180523a3f84ac6ee324c7",
          "blockNumber": "0xec3d38",
          "gasUsed": "0x7824",
          "effectiveGasPrice": "0x8788b",
          "from": "0x8454d149beb26e3e3fc5ed1c87fb0b2a1b7b6c2c",
          "to": "0x2a0dd3580658cc32e2d0984051da5f2312001a13",
          "contractAddress": null,
          "l1BaseFeeScalar": "0x44d",
          "l1BlobBaseFee": "0x3ebf4b2339b",
          "l1BlobBaseFeeScalar": "0xa118b",
          "l1Fee": "0x102dca955eef2",
          "l1GasPrice": "0xccacc02ea",
          "l1GasUsed": "0x640"
        },
        {
          "status": "0x1",
          "cumulativeGasUsed": "0x756f9",
          "logs": [],
          "logsBloom": "0x00000000000000000000000000000000000000000000000000000000000000000000000000000000000000000000000000000000000000000000000000000000000000000000000000000000000000000000000000000000000000000000000000000000000000000000000000000000000000000000000000000000000000000000000000000000000000000000000000000000000000000000000000000000000000000000000000000000000000000000000000000000000000000000000000000000000000000000000000000000000000000000000000000000000000000000000000000000000000000000000000000000000000000000000000000000",
          "type": "0x2",
          "transactionHash": "0xe1a149b1beaf16c76f263916f0ade749119747b7756738f5124598d37faa8066",
          "transactionIndex": "0xa",
          "blockHash": "0x91908fb268a5584e53bc503d44b58fc73840df62738180523a3f84ac6ee324c7",
          "blockNumber": "0xec3d38",
          "gasUsed": "0x7a39",
          "effectiveGasPrice": "0x8788b",
          "from": "0x8454d149beb26e3e3fc5ed1c87fb0b2a1b7b6c2c",
          "to": "0x2a0dd3580658cc32e2d0984051da5f2312001a13",
          "contractAddress": null,
          "l1BaseFeeScalar": "0x44d",
          "l1BlobBaseFee": "0x3ebf4b2339b",
          "l1BlobBaseFeeScalar": "0xa118b",
          "l1Fee": "0x102dca955eef2",
          "l1GasPrice": "0xccacc02ea",
          "l1GasUsed": "0x640"
        },
        {
          "status": "0x1",
          "cumulativeGasUsed": "0x7d0d5",
          "logs": [],
          "logsBloom": "0x00000000000000000000000000000000000000000000000000000000000000000000000000000000000000000000000000000000000000000000000000000000000000000000000000000000000000000000000000000000000000000000000000000000000000000000000000000000000000000000000000000000000000000000000000000000000000000000000000000000000000000000000000000000000000000000000000000000000000000000000000000000000000000000000000000000000000000000000000000000000000000000000000000000000000000000000000000000000000000000000000000000000000000000000000000000",
          "type": "0x2",
          "transactionHash": "0x20adc0d46d1e92bc03b277c4c195d09ecae2649bf975d9921e020c0ab1b33450",
          "transactionIndex": "0xb",
          "blockHash": "0x91908fb268a5584e53bc503d44b58fc73840df62738180523a3f84ac6ee324c7",
          "blockNumber": "0xec3d38",
          "gasUsed": "0x79dc",
          "effectiveGasPrice": "0x8788b",
          "from": "0x8454d149beb26e3e3fc5ed1c87fb0b2a1b7b6c2c",
          "to": "0x2a0dd3580658cc32e2d0984051da5f2312001a13",
          "contractAddress": null,
          "l1BaseFeeScalar": "0x44d",
          "l1BlobBaseFee": "0x3ebf4b2339b",
          "l1BlobBaseFeeScalar": "0xa118b",
          "l1Fee": "0x102dca955eef2",
          "l1GasPrice": "0xccacc02ea",
          "l1GasUsed": "0x640"
        },
        {
          "status": "0x1",
          "cumulativeGasUsed": "0x84ab0",
          "logs": [],
          "logsBloom": "0x00000000000000000000000000000000000000000000000000000000000000000000000000000000000000000000000000000000000000000000000000000000000000000000000000000000000000000000000000000000000000000000000000000000000000000000000000000000000000000000000000000000000000000000000000000000000000000000000000000000000000000000000000000000000000000000000000000000000000000000000000000000000000000000000000000000000000000000000000000000000000000000000000000000000000000000000000000000000000000000000000000000000000000000000000000000",
          "type": "0x2",
          "transactionHash": "0x793534bf83bb588a2787cf803ec4307c51318f37e621c743da8fd80f3b880d04",
          "transactionIndex": "0xc",
          "blockHash": "0x91908fb268a5584e53bc503d44b58fc73840df62738180523a3f84ac6ee324c7",
          "blockNumber": "0xec3d38",
          "gasUsed": "0x79db",
          "effectiveGasPrice": "0x8788b",
          "from": "0x8454d149beb26e3e3fc5ed1c87fb0b2a1b7b6c2c",
          "to": "0x2a0dd3580658cc32e2d0984051da5f2312001a13",
          "contractAddress": null,
          "l1BaseFeeScalar": "0x44d",
          "l1BlobBaseFee": "0x3ebf4b2339b",
          "l1BlobBaseFeeScalar": "0xa118b",
          "l1Fee": "0x102dca955eef2",
          "l1GasPrice": "0xccacc02ea",
          "l1GasUsed": "0x640"
        }
      ],
      "libraries": [],
      "pending": [],
      "returns": {},
      "timestamp": 1726732619,
      "chain": 84532,
      "commit": "d070660"
    },
    {
      "transactions": [
        {
          "hash": "0x47d6809331a75e57ddaa5f1f3027699b79e92efd23ed5199355d41497dcae35c",
          "transactionType": "CALL",
          "contractName": null,
          "contractAddress": "0x0d7135aaf464555e780e2a63f3b1ef0a97b3a499",
          "function": "allowlistSender(address,bool)",
          "arguments": [
            "0x2a0dd3580658CC32e2D0984051DA5f2312001a13",
            "true"
          ],
          "transaction": {
            "from": "0x8454d149beb26e3e3fc5ed1c87fb0b2a1b7b6c2c",
            "to": "0x0d7135aaf464555e780e2a63f3b1ef0a97b3a499",
            "gas": "0xb664",
            "value": "0x0",
            "input": "0xeab5b02c0000000000000000000000002a0dd3580658cc32e2d0984051da5f2312001a130000000000000000000000000000000000000000000000000000000000000001",
            "nonce": "0x658",
            "chainId": "0xaa36a7"
          },
          "additionalContracts": [],
          "isFixedGasLimit": false
        },
        {
          "hash": "0x47c43fb0dc7b3b64206a70f76dea74de8e75875ef12b088063c57bc2a9d3e705",
          "transactionType": "CALL",
          "contractName": null,
          "contractAddress": "0x0d7135aaf464555e780e2a63f3b1ef0a97b3a499",
          "function": "allowlistSourceChain(uint64,bool)",
          "arguments": [
            "10344971235874465080",
            "true"
          ],
          "transaction": {
            "from": "0x8454d149beb26e3e3fc5ed1c87fb0b2a1b7b6c2c",
            "to": "0x0d7135aaf464555e780e2a63f3b1ef0a97b3a499",
            "gas": "0xc047",
            "value": "0x0",
            "input": "0xdb04fa490000000000000000000000000000000000000000000000008f90b8876dee65380000000000000000000000000000000000000000000000000000000000000001",
            "nonce": "0x659",
            "chainId": "0xaa36a7"
          },
          "additionalContracts": [],
          "isFixedGasLimit": false
        },
        {
          "hash": "0x5558f16b4f62e62e8dbf34925501fb26b3033936c1bacc7477f2d485727c4fe8",
          "transactionType": "CALL",
          "contractName": null,
          "contractAddress": "0x0d7135aaf464555e780e2a63f3b1ef0a97b3a499",
          "function": "allowlistSourceChain(uint64,bool)",
          "arguments": [
            "16015286601757825753",
            "true"
          ],
          "transaction": {
            "from": "0x8454d149beb26e3e3fc5ed1c87fb0b2a1b7b6c2c",
            "to": "0x0d7135aaf464555e780e2a63f3b1ef0a97b3a499",
            "gas": "0xc047",
            "value": "0x0",
            "input": "0xdb04fa49000000000000000000000000000000000000000000000000de41ba4fc9d91ad90000000000000000000000000000000000000000000000000000000000000001",
            "nonce": "0x65a",
            "chainId": "0xaa36a7"
          },
          "additionalContracts": [],
          "isFixedGasLimit": false
        },
        {
          "hash": "0x95a93913daf64a6baa8dbc0916e6900fe5e0d29d29ed3c63f0b58e773cd298dd",
          "transactionType": "CALL",
          "contractName": null,
          "contractAddress": "0x0d7135aaf464555e780e2a63f3b1ef0a97b3a499",
          "function": "allowlistDestinationChain(uint64,bool)",
          "arguments": [
            "10344971235874465080",
            "true"
          ],
          "transaction": {
            "from": "0x8454d149beb26e3e3fc5ed1c87fb0b2a1b7b6c2c",
            "to": "0x0d7135aaf464555e780e2a63f3b1ef0a97b3a499",
            "gas": "0xc0c9",
            "value": "0x0",
            "input": "0x96d3b83d0000000000000000000000000000000000000000000000008f90b8876dee65380000000000000000000000000000000000000000000000000000000000000001",
            "nonce": "0x65b",
            "chainId": "0xaa36a7"
          },
          "additionalContracts": [],
          "isFixedGasLimit": false
        },
        {
          "hash": "0xacbb43ec7cc9db72f8d5430537aed84421c69844b89b6b3acb918ddc1a53cc8a",
          "transactionType": "CALL",
          "contractName": null,
          "contractAddress": "0xe661b554500a04988aaa5c390b88b4589465a20a",
          "function": "setGasLimitsForFunctionSelectors(bytes4[],uint256[])",
          "arguments": [
            "[0xd8a85b48]",
            "[295000]"
          ],
          "transaction": {
            "from": "0x8454d149beb26e3e3fc5ed1c87fb0b2a1b7b6c2c",
            "to": "0xe661b554500a04988aaa5c390b88b4589465a20a",
            "gas": "0xc817",
            "value": "0x0",
            "input": "0x3ef2d377000000000000000000000000000000000000000000000000000000000000004000000000000000000000000000000000000000000000000000000000000000800000000000000000000000000000000000000000000000000000000000000001d8a85b480000000000000000000000000000000000000000000000000000000000000000000000000000000000000000000000000000000000000000000000010000000000000000000000000000000000000000000000000000000000048058",
            "nonce": "0x65c",
            "chainId": "0xaa36a7"
          },
          "additionalContracts": [],
          "isFixedGasLimit": false
        },
        {
          "hash": "0x7d4a61a4dfe2e0756541bcc38d0c2067f3ee1e9f455df7445a540a3a4a372203",
          "transactionType": "CALL",
          "contractName": null,
          "contractAddress": "0xe4af9c53a02c28543852c9ec28b617eba5250455",
          "function": "getAgentFactory()",
          "arguments": [],
          "transaction": {
            "from": "0x8454d149beb26e3e3fc5ed1c87fb0b2a1b7b6c2c",
            "to": "0xe4af9c53a02c28543852c9ec28b617eba5250455",
            "gas": "0xafd4",
            "value": "0x0",
            "input": "0xf3b372de",
            "nonce": "0x65d",
            "chainId": "0xaa36a7"
          },
          "additionalContracts": [],
          "isFixedGasLimit": false
        }
      ],
      "receipts": [
        {
          "status": "0x1",
          "cumulativeGasUsed": "0xb008f1",
          "logs": [],
          "logsBloom": "0x00000000000000000000000000000000000000000000000000000000000000000000000000000000000000000000000000000000000000000000000000000000000000000000000000000000000000000000000000000000000000000000000000000000000000000000000000000000000000000000000000000000000000000000000000000000000000000000000000000000000000000000000000000000000000000000000000000000000000000000000000000000000000000000000000000000000000000000000000000000000000000000000000000000000000000000000000000000000000000000000000000000000000000000000000000000",
          "type": "0x2",
          "transactionHash": "0x47d6809331a75e57ddaa5f1f3027699b79e92efd23ed5199355d41497dcae35c",
          "transactionIndex": "0x4e",
          "blockHash": "0x0df2cfa2429ff1fd888d7eb236e5d78fd38b4b2b59b3b083533f391594ec923a",
          "blockNumber": "0x668a37",
          "gasUsed": "0x840d",
          "effectiveGasPrice": "0x866560517",
          "from": "0x8454d149beb26e3e3fc5ed1c87fb0b2a1b7b6c2c",
          "to": "0x0d7135aaf464555e780e2a63f3b1ef0a97b3a499",
          "contractAddress": null
        },
        {
          "status": "0x1",
          "cumulativeGasUsed": "0xb08c6a",
          "logs": [],
          "logsBloom": "0x00000000000000000000000000000000000000000000000000000000000000000000000000000000000000000000000000000000000000000000000000000000000000000000000000000000000000000000000000000000000000000000000000000000000000000000000000000000000000000000000000000000000000000000000000000000000000000000000000000000000000000000000000000000000000000000000000000000000000000000000000000000000000000000000000000000000000000000000000000000000000000000000000000000000000000000000000000000000000000000000000000000000000000000000000000000",
          "type": "0x2",
          "transactionHash": "0x47c43fb0dc7b3b64206a70f76dea74de8e75875ef12b088063c57bc2a9d3e705",
          "transactionIndex": "0x4f",
          "blockHash": "0x0df2cfa2429ff1fd888d7eb236e5d78fd38b4b2b59b3b083533f391594ec923a",
          "blockNumber": "0x668a37",
          "gasUsed": "0x8379",
          "effectiveGasPrice": "0x866560517",
          "from": "0x8454d149beb26e3e3fc5ed1c87fb0b2a1b7b6c2c",
          "to": "0x0d7135aaf464555e780e2a63f3b1ef0a97b3a499",
          "contractAddress": null
        },
        {
          "status": "0x1",
          "cumulativeGasUsed": "0xb10fe3",
          "logs": [],
          "logsBloom": "0x00000000000000000000000000000000000000000000000000000000000000000000000000000000000000000000000000000000000000000000000000000000000000000000000000000000000000000000000000000000000000000000000000000000000000000000000000000000000000000000000000000000000000000000000000000000000000000000000000000000000000000000000000000000000000000000000000000000000000000000000000000000000000000000000000000000000000000000000000000000000000000000000000000000000000000000000000000000000000000000000000000000000000000000000000000000",
          "type": "0x2",
          "transactionHash": "0x5558f16b4f62e62e8dbf34925501fb26b3033936c1bacc7477f2d485727c4fe8",
          "transactionIndex": "0x50",
          "blockHash": "0x0df2cfa2429ff1fd888d7eb236e5d78fd38b4b2b59b3b083533f391594ec923a",
          "blockNumber": "0x668a37",
          "gasUsed": "0x8379",
          "effectiveGasPrice": "0x866560517",
          "from": "0x8454d149beb26e3e3fc5ed1c87fb0b2a1b7b6c2c",
          "to": "0x0d7135aaf464555e780e2a63f3b1ef0a97b3a499",
          "contractAddress": null
        },
        {
          "status": "0x1",
          "cumulativeGasUsed": "0xb193b5",
          "logs": [],
          "logsBloom": "0x00000000000000000000000000000000000000000000000000000000000000000000000000000000000000000000000000000000000000000000000000000000000000000000000000000000000000000000000000000000000000000000000000000000000000000000000000000000000000000000000000000000000000000000000000000000000000000000000000000000000000000000000000000000000000000000000000000000000000000000000000000000000000000000000000000000000000000000000000000000000000000000000000000000000000000000000000000000000000000000000000000000000000000000000000000000",
          "type": "0x2",
          "transactionHash": "0x95a93913daf64a6baa8dbc0916e6900fe5e0d29d29ed3c63f0b58e773cd298dd",
          "transactionIndex": "0x51",
          "blockHash": "0x0df2cfa2429ff1fd888d7eb236e5d78fd38b4b2b59b3b083533f391594ec923a",
          "blockNumber": "0x668a37",
          "gasUsed": "0x83d2",
          "effectiveGasPrice": "0x866560517",
          "from": "0x8454d149beb26e3e3fc5ed1c87fb0b2a1b7b6c2c",
          "to": "0x0d7135aaf464555e780e2a63f3b1ef0a97b3a499",
          "contractAddress": null
        },
        {
          "status": "0x1",
          "cumulativeGasUsed": "0xb22493",
          "logs": [
            {
              "address": "0xe661b554500a04988aaa5c390b88b4589465a20a",
              "topics": [
                "0xed4c89b805f4efb58bc4a42b9a3c6f09783f619295a1fa41ab46d6190c8c7f3b",
                "0xd8a85b4800000000000000000000000000000000000000000000000000000000",
                "0x0000000000000000000000000000000000000000000000000000000000048058"
              ],
              "data": "0x",
              "blockHash": "0x0df2cfa2429ff1fd888d7eb236e5d78fd38b4b2b59b3b083533f391594ec923a",
              "blockNumber": "0x668a37",
              "transactionHash": "0xacbb43ec7cc9db72f8d5430537aed84421c69844b89b6b3acb918ddc1a53cc8a",
              "transactionIndex": "0x52",
              "logIndex": "0x82",
              "removed": false
            }
          ],
          "logsBloom": "0x00000000000000000040000000000000000000000800000000000000000000000000000000000000000000000000000000000000000000000000000000000000000000000000000004000000000000000800000000000000000000000000000000000000000000000000000000000000800000800000040000000000000000000000000000000000000000001000000000000000000000000000004000000000000000000000000000010000000000000000000000000000000000000000000000000000000000000000000000040000000000000000000000000000000000000000000000000000000000000000000000000000000000002000000000000000",
          "type": "0x2",
          "transactionHash": "0xacbb43ec7cc9db72f8d5430537aed84421c69844b89b6b3acb918ddc1a53cc8a",
          "transactionIndex": "0x52",
          "blockHash": "0x0df2cfa2429ff1fd888d7eb236e5d78fd38b4b2b59b3b083533f391594ec923a",
          "blockNumber": "0x668a37",
          "gasUsed": "0x90de",
          "effectiveGasPrice": "0x866560517",
          "from": "0x8454d149beb26e3e3fc5ed1c87fb0b2a1b7b6c2c",
          "to": "0xe661b554500a04988aaa5c390b88b4589465a20a",
          "contractAddress": null
        },
        {
          "status": "0x1",
          "cumulativeGasUsed": "0xb29ccd",
          "logs": [],
          "logsBloom": "0x00000000000000000000000000000000000000000000000000000000000000000000000000000000000000000000000000000000000000000000000000000000000000000000000000000000000000000000000000000000000000000000000000000000000000000000000000000000000000000000000000000000000000000000000000000000000000000000000000000000000000000000000000000000000000000000000000000000000000000000000000000000000000000000000000000000000000000000000000000000000000000000000000000000000000000000000000000000000000000000000000000000000000000000000000000000",
          "type": "0x2",
          "transactionHash": "0x7d4a61a4dfe2e0756541bcc38d0c2067f3ee1e9f455df7445a540a3a4a372203",
          "transactionIndex": "0x53",
          "blockHash": "0x0df2cfa2429ff1fd888d7eb236e5d78fd38b4b2b59b3b083533f391594ec923a",
          "blockNumber": "0x668a37",
          "gasUsed": "0x783a",
          "effectiveGasPrice": "0x866560517",
          "from": "0x8454d149beb26e3e3fc5ed1c87fb0b2a1b7b6c2c",
          "to": "0xe4af9c53a02c28543852c9ec28b617eba5250455",
          "contractAddress": null
        }
      ],
      "libraries": [],
      "pending": [],
      "returns": {},
      "timestamp": 1726732620,
      "chain": 11155111,
      "commit": "d070660"
    }
  ],
  "timestamp": 1726732648
}