{
  "deployments": [
    {
      "transactions": [
        {
          "hash": "0x3662cc81fccd58427da42e58f5e52fb09fe3bd10cdaa442ed2314b96e9ee7040",
          "transactionType": "CALL",
          "contractName": null,
          "contractAddress": "0x08832066a18b3108a613970a24e816cb10bf76c3",
          "function": "allowlistSender(uint64,address,bool)",
          "arguments": [
            "16015286601757825753",
            "0x2E35D0AD6d2340F4572d20AdA0661901FD0B464B",
            "true"
          ],
          "transaction": {
            "from": "0x8454d149beb26e3e3fc5ed1c87fb0b2a1b7b6c2c",
            "to": "0x08832066a18b3108a613970a24e816cb10bf76c3",
            "gas": "0x12153",
            "value": "0x0",
            "input": "0xf039a009000000000000000000000000000000000000000000000000de41ba4fc9d91ad90000000000000000000000002e35d0ad6d2340f4572d20ada0661901fd0b464b0000000000000000000000000000000000000000000000000000000000000001",
            "nonce": "0x6ec",
            "chainId": "0x14a34"
          },
          "additionalContracts": [],
          "isFixedGasLimit": false
        },
        {
          "hash": "0x326ac723d89bd8ea88ca9633958a79a9a4cb54a122a9dc869caf5206cec956b4",
          "transactionType": "CALL",
          "contractName": null,
          "contractAddress": "0x08832066a18b3108a613970a24e816cb10bf76c3",
          "function": "allowlistSourceChain(uint64,bool)",
          "arguments": [
            "10344971235874465080",
            "true"
          ],
          "transaction": {
            "from": "0x8454d149beb26e3e3fc5ed1c87fb0b2a1b7b6c2c",
            "to": "0x08832066a18b3108a613970a24e816cb10bf76c3",
            "gas": "0xb0bb",
            "value": "0x0",
            "input": "0xdb04fa490000000000000000000000000000000000000000000000008f90b8876dee65380000000000000000000000000000000000000000000000000000000000000001",
            "nonce": "0x6ed",
            "chainId": "0x14a34"
          },
          "additionalContracts": [],
          "isFixedGasLimit": false
        },
        {
          "hash": "0xd5c931d5ce4a2281b748b3149a639de80d40dcb55f67dcb96b5d542fcf4b4a5f",
          "transactionType": "CALL",
          "contractName": null,
          "contractAddress": "0x08832066a18b3108a613970a24e816cb10bf76c3",
          "function": "allowlistDestinationChain(uint64,bool)",
          "arguments": [
            "16015286601757825753",
            "true"
          ],
          "transaction": {
            "from": "0x8454d149beb26e3e3fc5ed1c87fb0b2a1b7b6c2c",
            "to": "0x08832066a18b3108a613970a24e816cb10bf76c3",
            "gas": "0xb0c7",
            "value": "0x0",
            "input": "0x96d3b83d000000000000000000000000000000000000000000000000de41ba4fc9d91ad90000000000000000000000000000000000000000000000000000000000000001",
            "nonce": "0x6ee",
            "chainId": "0x14a34"
          },
          "additionalContracts": [],
          "isFixedGasLimit": false
        },
        {
          "hash": "0x4bf92451691187de71e5e3bf5af057a20fb015f44db63dc5d5945df756906389",
          "transactionType": "CALL",
          "contractName": null,
          "contractAddress": "0x93c9040d6eb49c9da4ab7d322c2a3298b250c0ca",
          "function": "setGasLimitsForFunctionSelectors(bytes4[],uint256[])",
          "arguments": [
            "[0xe7a050aa, 0xcc15a557, 0x0dd8dd02, 0xe4cc3f90, 0xeea9064b, 0xda8be864, 0x3ccc861d]",
            "[560000, 300000, 580000, 630000, 400000, 650000, 590000]"
          ],
          "transaction": {
            "from": "0x8454d149beb26e3e3fc5ed1c87fb0b2a1b7b6c2c",
            "to": "0x93c9040d6eb49c9da4ab7d322c2a3298b250c0ca",
            "gas": "0x1536c",
            "value": "0x0",
            "input": "0x3ef2d377000000000000000000000000000000000000000000000000000000000000004000000000000000000000000000000000000000000000000000000000000001400000000000000000000000000000000000000000000000000000000000000007e7a050aa00000000000000000000000000000000000000000000000000000000cc15a557000000000000000000000000000000000000000000000000000000000dd8dd0200000000000000000000000000000000000000000000000000000000e4cc3f9000000000000000000000000000000000000000000000000000000000eea9064b00000000000000000000000000000000000000000000000000000000da8be864000000000000000000000000000000000000000000000000000000003ccc861d0000000000000000000000000000000000000000000000000000000000000000000000000000000000000000000000000000000000000000000000070000000000000000000000000000000000000000000000000000000000088b8000000000000000000000000000000000000000000000000000000000000493e0000000000000000000000000000000000000000000000000000000000008d9a00000000000000000000000000000000000000000000000000000000000099cf00000000000000000000000000000000000000000000000000000000000061a80000000000000000000000000000000000000000000000000000000000009eb1000000000000000000000000000000000000000000000000000000000000900b0",
            "nonce": "0x6ef",
            "chainId": "0x14a34"
          },
          "additionalContracts": [],
          "isFixedGasLimit": false
        },
        {
          "hash": "0xb7e455b73142b6c574e69d7362d846aef9d944e876ab2dc346cc3482fef60751",
          "transactionType": "CALL",
          "contractName": null,
          "contractAddress": "0x93c9040d6eb49c9da4ab7d322c2a3298b250c0ca",
          "function": "setSenderCCIP(address)",
          "arguments": [
            "0x08832066A18B3108A613970A24e816cB10bF76c3"
          ],
          "transaction": {
            "from": "0x8454d149beb26e3e3fc5ed1c87fb0b2a1b7b6c2c",
            "to": "0x93c9040d6eb49c9da4ab7d322c2a3298b250c0ca",
            "gas": "0xaea1",
            "value": "0x0",
            "input": "0xd8d6c31a00000000000000000000000008832066a18b3108a613970a24e816cb10bf76c3",
            "nonce": "0x6f0",
            "chainId": "0x14a34"
          },
          "additionalContracts": [],
          "isFixedGasLimit": false
        }
      ],
      "receipts": [
        {
          "status": "0x1",
          "cumulativeGasUsed": "0x774eab",
          "logs": [
            {
              "address": "0x08832066a18b3108a613970a24e816cb10bf76c3",
              "topics": [
                "0x7341e817a8458e8902ebedbcd9e82db8299e43de630c89ade217662e6cafe906",
                "0x000000000000000000000000000000000000000000000000de41ba4fc9d91ad9",
                "0x0000000000000000000000002e35d0ad6d2340f4572d20ada0661901fd0b464b"
              ],
              "data": "0x0000000000000000000000000000000000000000000000000000000000000001",
              "blockHash": "0xc3a8dff5865dd4be0b74133610ad750c8b75dcb93c450ba948aa2f51f7269d0f",
              "blockNumber": "0x16187b0",
              "transactionHash": "0x3662cc81fccd58427da42e58f5e52fb09fe3bd10cdaa442ed2314b96e9ee7040",
              "transactionIndex": "0x23",
              "logIndex": "0xbd",
              "removed": false
            }
          ],
          "logsBloom": "0x00000000000000000000000000000000000000000000000000000000000000000000000000004000000000000000000000000000000040000000000000000000000000010000000000000000000000000000000000000000000000000000000000000000000000000000000000010000000000000000000000000000000000000000000000000000000000000000040000000020000000000000000000000000000000000000000000000000000000000000400010000000000000000000000000000000000000000000000000000000000000000000000000000000000000000000000000000000000020000000000000000000000001000000000000000018",
          "type": "0x2",
          "transactionHash": "0x3662cc81fccd58427da42e58f5e52fb09fe3bd10cdaa442ed2314b96e9ee7040",
          "transactionIndex": "0x23",
          "blockHash": "0xc3a8dff5865dd4be0b74133610ad750c8b75dcb93c450ba948aa2f51f7269d0f",
          "blockNumber": "0x16187b0",
          "gasUsed": "0xd178",
          "effectiveGasPrice": "0xfbde0",
          "from": "0x8454d149beb26e3e3fc5ed1c87fb0b2a1b7b6c2c",
          "to": "0x08832066a18b3108a613970a24e816cb10bf76c3",
          "contractAddress": null,
          "l1BaseFeeScalar": "0x44d",
          "l1BlobBaseFee": "0x1",
          "l1BlobBaseFeeScalar": "0xa118b",
          "l1Fee": "0x2df922",
          "l1GasPrice": "0x1a18ca",
          "l1GasUsed": "0x640"
        },
        {
          "status": "0x1",
          "cumulativeGasUsed": "0x77ce9f",
          "logs": [
            {
              "address": "0x08832066a18b3108a613970a24e816cb10bf76c3",
              "topics": [
                "0xa5f858f3914e62a82af355192513d8dbc618ff9815e7213a71930d8996a3cb82",
                "0x0000000000000000000000000000000000000000000000008f90b8876dee6538"
              ],
              "data": "0x0000000000000000000000000000000000000000000000000000000000000001",
              "blockHash": "0xc3a8dff5865dd4be0b74133610ad750c8b75dcb93c450ba948aa2f51f7269d0f",
              "blockNumber": "0x16187b0",
              "transactionHash": "0x326ac723d89bd8ea88ca9633958a79a9a4cb54a122a9dc869caf5206cec956b4",
              "transactionIndex": "0x24",
              "logIndex": "0xbe",
              "removed": false
            }
          ],
          "logsBloom": "0x00000000000000000000020000000000000000000000000000000000000000000000000000000000000000000000000000000000000000000000000000000000000000010000000000000000000000000000000400000000000000000000200000000000000000000000100000000000000000000000000000000000000000004000000000000000000000000000040000000000000000000000000000000000000000000000000000000000000000000000000000000000000000000000000000000000000000000000000000000000000000000000000000000000000000000000000000000001000000000000000000000000000000000000000000000008",
          "type": "0x2",
          "transactionHash": "0x326ac723d89bd8ea88ca9633958a79a9a4cb54a122a9dc869caf5206cec956b4",
          "transactionIndex": "0x24",
          "blockHash": "0xc3a8dff5865dd4be0b74133610ad750c8b75dcb93c450ba948aa2f51f7269d0f",
          "blockNumber": "0x16187b0",
          "gasUsed": "0x7ff4",
          "effectiveGasPrice": "0xfbde0",
          "from": "0x8454d149beb26e3e3fc5ed1c87fb0b2a1b7b6c2c",
          "to": "0x08832066a18b3108a613970a24e816cb10bf76c3",
          "contractAddress": null,
          "l1BaseFeeScalar": "0x44d",
          "l1BlobBaseFee": "0x1",
          "l1BlobBaseFeeScalar": "0xa118b",
          "l1Fee": "0x2df922",
          "l1GasPrice": "0x1a18ca",
          "l1GasUsed": "0x640"
        },
        {
          "status": "0x1",
          "cumulativeGasUsed": "0x784e9c",
          "logs": [
            {
              "address": "0x08832066a18b3108a613970a24e816cb10bf76c3",
              "topics": [
                "0x79e93956b5c7b59cb1d0aaa5849af9993c5b994c44b148b1944f4e4ecf1e9b89",
                "0x000000000000000000000000000000000000000000000000de41ba4fc9d91ad9"
              ],
              "data": "0x0000000000000000000000000000000000000000000000000000000000000001",
              "blockHash": "0xc3a8dff5865dd4be0b74133610ad750c8b75dcb93c450ba948aa2f51f7269d0f",
              "blockNumber": "0x16187b0",
              "transactionHash": "0xd5c931d5ce4a2281b748b3149a639de80d40dcb55f67dcb96b5d542fcf4b4a5f",
              "transactionIndex": "0x25",
              "logIndex": "0xbf",
              "removed": false
            }
          ],
          "logsBloom": "0x00000000000000000000000000000000000000040000000000000000000000000000000000004000000000000000000000000000000000000000000000000000000000010000000000200000000000000000000000000000000000000000000000000000000000000000000000010000000000000000000000000000000000000000000000000000000000000000040000000020000000000000000000000000000000000000000000000000000000000000000000000000000000100000000000000000000000000000000000000000000000000000000000000000000000000000000000000000000000000000000000000000000000000000000000000008",
          "type": "0x2",
          "transactionHash": "0xd5c931d5ce4a2281b748b3149a639de80d40dcb55f67dcb96b5d542fcf4b4a5f",
          "transactionIndex": "0x25",
          "blockHash": "0xc3a8dff5865dd4be0b74133610ad750c8b75dcb93c450ba948aa2f51f7269d0f",
          "blockNumber": "0x16187b0",
          "gasUsed": "0x7ffd",
          "effectiveGasPrice": "0xfbde0",
          "from": "0x8454d149beb26e3e3fc5ed1c87fb0b2a1b7b6c2c",
          "to": "0x08832066a18b3108a613970a24e816cb10bf76c3",
          "contractAddress": null,
          "l1BaseFeeScalar": "0x44d",
          "l1BlobBaseFee": "0x1",
          "l1BlobBaseFeeScalar": "0xa118b",
          "l1Fee": "0x2df922",
          "l1GasPrice": "0x1a18ca",
          "l1GasUsed": "0x640"
        },
        {
          "status": "0x1",
          "cumulativeGasUsed": "0x794459",
          "logs": [
            {
              "address": "0x93c9040d6eb49c9da4ab7d322c2a3298b250c0ca",
              "topics": [
                "0xed4c89b805f4efb58bc4a42b9a3c6f09783f619295a1fa41ab46d6190c8c7f3b",
                "0xe7a050aa00000000000000000000000000000000000000000000000000000000",
                "0x0000000000000000000000000000000000000000000000000000000000088b80"
              ],
              "data": "0x",
              "blockHash": "0xc3a8dff5865dd4be0b74133610ad750c8b75dcb93c450ba948aa2f51f7269d0f",
              "blockNumber": "0x16187b0",
              "transactionHash": "0x4bf92451691187de71e5e3bf5af057a20fb015f44db63dc5d5945df756906389",
              "transactionIndex": "0x26",
              "logIndex": "0xc0",
              "removed": false
            },
            {
              "address": "0x93c9040d6eb49c9da4ab7d322c2a3298b250c0ca",
              "topics": [
                "0xed4c89b805f4efb58bc4a42b9a3c6f09783f619295a1fa41ab46d6190c8c7f3b",
                "0xcc15a55700000000000000000000000000000000000000000000000000000000",
                "0x00000000000000000000000000000000000000000000000000000000000493e0"
              ],
              "data": "0x",
              "blockHash": "0xc3a8dff5865dd4be0b74133610ad750c8b75dcb93c450ba948aa2f51f7269d0f",
              "blockNumber": "0x16187b0",
              "transactionHash": "0x4bf92451691187de71e5e3bf5af057a20fb015f44db63dc5d5945df756906389",
              "transactionIndex": "0x26",
              "logIndex": "0xc1",
              "removed": false
            },
            {
              "address": "0x93c9040d6eb49c9da4ab7d322c2a3298b250c0ca",
              "topics": [
                "0xed4c89b805f4efb58bc4a42b9a3c6f09783f619295a1fa41ab46d6190c8c7f3b",
                "0x0dd8dd0200000000000000000000000000000000000000000000000000000000",
                "0x000000000000000000000000000000000000000000000000000000000008d9a0"
              ],
              "data": "0x",
              "blockHash": "0xc3a8dff5865dd4be0b74133610ad750c8b75dcb93c450ba948aa2f51f7269d0f",
              "blockNumber": "0x16187b0",
              "transactionHash": "0x4bf92451691187de71e5e3bf5af057a20fb015f44db63dc5d5945df756906389",
              "transactionIndex": "0x26",
              "logIndex": "0xc2",
              "removed": false
            },
            {
              "address": "0x93c9040d6eb49c9da4ab7d322c2a3298b250c0ca",
              "topics": [
                "0xed4c89b805f4efb58bc4a42b9a3c6f09783f619295a1fa41ab46d6190c8c7f3b",
                "0xe4cc3f9000000000000000000000000000000000000000000000000000000000",
                "0x0000000000000000000000000000000000000000000000000000000000099cf0"
              ],
              "data": "0x",
              "blockHash": "0xc3a8dff5865dd4be0b74133610ad750c8b75dcb93c450ba948aa2f51f7269d0f",
              "blockNumber": "0x16187b0",
              "transactionHash": "0x4bf92451691187de71e5e3bf5af057a20fb015f44db63dc5d5945df756906389",
              "transactionIndex": "0x26",
              "logIndex": "0xc3",
              "removed": false
            },
            {
              "address": "0x93c9040d6eb49c9da4ab7d322c2a3298b250c0ca",
              "topics": [
                "0xed4c89b805f4efb58bc4a42b9a3c6f09783f619295a1fa41ab46d6190c8c7f3b",
                "0xeea9064b00000000000000000000000000000000000000000000000000000000",
                "0x0000000000000000000000000000000000000000000000000000000000061a80"
              ],
              "data": "0x",
              "blockHash": "0xc3a8dff5865dd4be0b74133610ad750c8b75dcb93c450ba948aa2f51f7269d0f",
              "blockNumber": "0x16187b0",
              "transactionHash": "0x4bf92451691187de71e5e3bf5af057a20fb015f44db63dc5d5945df756906389",
              "transactionIndex": "0x26",
              "logIndex": "0xc4",
              "removed": false
            },
            {
              "address": "0x93c9040d6eb49c9da4ab7d322c2a3298b250c0ca",
              "topics": [
                "0xed4c89b805f4efb58bc4a42b9a3c6f09783f619295a1fa41ab46d6190c8c7f3b",
                "0xda8be86400000000000000000000000000000000000000000000000000000000",
                "0x000000000000000000000000000000000000000000000000000000000009eb10"
              ],
              "data": "0x",
              "blockHash": "0xc3a8dff5865dd4be0b74133610ad750c8b75dcb93c450ba948aa2f51f7269d0f",
              "blockNumber": "0x16187b0",
              "transactionHash": "0x4bf92451691187de71e5e3bf5af057a20fb015f44db63dc5d5945df756906389",
              "transactionIndex": "0x26",
              "logIndex": "0xc5",
              "removed": false
            },
            {
              "address": "0x93c9040d6eb49c9da4ab7d322c2a3298b250c0ca",
              "topics": [
                "0xed4c89b805f4efb58bc4a42b9a3c6f09783f619295a1fa41ab46d6190c8c7f3b",
                "0x3ccc861d00000000000000000000000000000000000000000000000000000000",
                "0x00000000000000000000000000000000000000000000000000000000000900b0"
              ],
              "data": "0x",
              "blockHash": "0xc3a8dff5865dd4be0b74133610ad750c8b75dcb93c450ba948aa2f51f7269d0f",
              "blockNumber": "0x16187b0",
              "transactionHash": "0x4bf92451691187de71e5e3bf5af057a20fb015f44db63dc5d5945df756906389",
              "transactionIndex": "0x26",
              "logIndex": "0xc6",
              "removed": false
            }
          ],
          "logsBloom": "0x0000000000000000004000000000000000000000080000000000000000400000000000000000000000080000004000000800000020000000000000000800000000800000000000000000400000000004010800000000200008000000000000000000001000000000000000000000000083000000000204000020000000010104008010000080000000000140010400000010000000040000000000000000000000000040000000000000000000a000800000000000000000000000000000400400000000000000000008001000000000000000000000100000100000000000020000000000001000000000000000000000800000000000000000010000000000",
          "type": "0x2",
          "transactionHash": "0x4bf92451691187de71e5e3bf5af057a20fb015f44db63dc5d5945df756906389",
          "transactionIndex": "0x26",
          "blockHash": "0xc3a8dff5865dd4be0b74133610ad750c8b75dcb93c450ba948aa2f51f7269d0f",
          "blockNumber": "0x16187b0",
          "gasUsed": "0xf5bd",
          "effectiveGasPrice": "0xfbde0",
          "from": "0x8454d149beb26e3e3fc5ed1c87fb0b2a1b7b6c2c",
          "to": "0x93c9040d6eb49c9da4ab7d322c2a3298b250c0ca",
          "contractAddress": null,
          "l1BaseFeeScalar": "0x44d",
          "l1BlobBaseFee": "0x1",
          "l1BlobBaseFeeScalar": "0xa118b",
          "l1Fee": "0x5068bc",
          "l1GasPrice": "0x1a18ca",
          "l1GasUsed": "0xaee"
        },
        {
          "status": "0x1",
          "cumulativeGasUsed": "0xabbedc",
          "logs": [
            {
              "address": "0x93c9040d6eb49c9da4ab7d322c2a3298b250c0ca",
              "topics": [
                "0xc200bc994a6761c6c93718eb06df928b16dca3e77b7ce283d09852e260c9b2da",
                "0x00000000000000000000000008832066a18b3108a613970a24e816cb10bf76c3"
              ],
              "data": "0x",
              "blockHash": "0xc3a8dff5865dd4be0b74133610ad750c8b75dcb93c450ba948aa2f51f7269d0f",
              "blockNumber": "0x16187b0",
              "transactionHash": "0xb7e455b73142b6c574e69d7362d846aef9d944e876ab2dc346cc3482fef60751",
              "transactionIndex": "0x34",
              "logIndex": "0x120",
              "removed": false
            }
          ],
          "logsBloom": "0x00000000000000000100000000000000000000000000000000000000000000000000000000000000000000000000000000000000000000000000000000000000008000000000000000000000000000000000002000000000000000000000000000000000000000000000000000000000000000000000000000000000000001000000000000000000000000000000000000120000000000000000000000000000100000000000000000000000000000800000000000000000000000000000000000000000000000000000000000000000000020000000000000000000000000000000000000000000000000000000000000000000000000000000000000000000",
          "type": "0x2",
          "transactionHash": "0xb7e455b73142b6c574e69d7362d846aef9d944e876ab2dc346cc3482fef60751",
          "transactionIndex": "0x34",
          "blockHash": "0xc3a8dff5865dd4be0b74133610ad750c8b75dcb93c450ba948aa2f51f7269d0f",
          "blockNumber": "0x16187b0",
          "gasUsed": "0x7e6f",
          "effectiveGasPrice": "0xfbde0",
          "from": "0x8454d149beb26e3e3fc5ed1c87fb0b2a1b7b6c2c",
          "to": "0x93c9040d6eb49c9da4ab7d322c2a3298b250c0ca",
          "contractAddress": null,
          "l1BaseFeeScalar": "0x44d",
          "l1BlobBaseFee": "0x1",
          "l1BlobBaseFeeScalar": "0xa118b",
          "l1Fee": "0x2df922",
          "l1GasPrice": "0x1a18ca",
          "l1GasUsed": "0x640"
        }
      ],
      "libraries": [],
      "pending": [],
      "returns": {},
      "timestamp": 1742106173,
      "chain": 84532,
      "commit": "3a511f6"
    },
    {
      "transactions": [
        {
          "hash": "0x4983f9bd5fdebbbf3f0b7896856d1eaa3170a1a4eb2f54bb0ae397bdb6f70e0f",
          "transactionType": "CALL",
          "contractName": null,
          "contractAddress": "0x2e35d0ad6d2340f4572d20ada0661901fd0b464b",
          "function": "allowlistSender(uint64,address,bool)",
          "arguments": [
            "10344971235874465080",
            "0x08832066A18B3108A613970A24e816cB10bF76c3",
            "true"
          ],
          "transaction": {
            "from": "0x8454d149beb26e3e3fc5ed1c87fb0b2a1b7b6c2c",
            "to": "0x2e35d0ad6d2340f4572d20ada0661901fd0b464b",
            "gas": "0x12171",
            "value": "0x0",
            "input": "0xf039a0090000000000000000000000000000000000000000000000008f90b8876dee653800000000000000000000000008832066a18b3108a613970a24e816cb10bf76c30000000000000000000000000000000000000000000000000000000000000001",
            "nonce": "0xa68",
            "chainId": "0xaa36a7"
          },
          "additionalContracts": [],
          "isFixedGasLimit": false
        },
        {
          "hash": "0xd6ce308f18fdb489c50cbe870cba4e46cc158f9d9148bc106adbe1b9590a68c2",
          "transactionType": "CALL",
          "contractName": null,
          "contractAddress": "0x2e35d0ad6d2340f4572d20ada0661901fd0b464b",
          "function": "allowlistSourceChain(uint64,bool)",
          "arguments": [
            "10344971235874465080",
            "true"
          ],
          "transaction": {
            "from": "0x8454d149beb26e3e3fc5ed1c87fb0b2a1b7b6c2c",
            "to": "0x2e35d0ad6d2340f4572d20ada0661901fd0b464b",
            "gas": "0x11c56",
            "value": "0x0",
            "input": "0xdb04fa490000000000000000000000000000000000000000000000008f90b8876dee65380000000000000000000000000000000000000000000000000000000000000001",
            "nonce": "0xa69",
            "chainId": "0xaa36a7"
          },
          "additionalContracts": [],
          "isFixedGasLimit": false
        },
        {
          "hash": "0x7715cba243c005e566b6e14d6f3bbba2fc9e2a36569e4b5012bba57b65fa6b4d",
          "transactionType": "CALL",
          "contractName": null,
          "contractAddress": "0x2e35d0ad6d2340f4572d20ada0661901fd0b464b",
          "function": "allowlistSourceChain(uint64,bool)",
          "arguments": [
            "16015286601757825753",
            "true"
          ],
          "transaction": {
            "from": "0x8454d149beb26e3e3fc5ed1c87fb0b2a1b7b6c2c",
            "to": "0x2e35d0ad6d2340f4572d20ada0661901fd0b464b",
            "gas": "0x11c56",
            "value": "0x0",
            "input": "0xdb04fa49000000000000000000000000000000000000000000000000de41ba4fc9d91ad90000000000000000000000000000000000000000000000000000000000000001",
            "nonce": "0xa6a",
            "chainId": "0xaa36a7"
          },
          "additionalContracts": [],
          "isFixedGasLimit": false
        },
        {
          "hash": "0x1eb6ed44c39ce900cb79e95f19ea436d324ebc611dcce66ccf83d363b6fdb9b4",
          "transactionType": "CALL",
          "contractName": null,
          "contractAddress": "0x2e35d0ad6d2340f4572d20ada0661901fd0b464b",
          "function": "allowlistDestinationChain(uint64,bool)",
          "arguments": [
            "10344971235874465080",
            "true"
          ],
          "transaction": {
            "from": "0x8454d149beb26e3e3fc5ed1c87fb0b2a1b7b6c2c",
            "to": "0x2e35d0ad6d2340f4572d20ada0661901fd0b464b",
            "gas": "0x11c63",
            "value": "0x0",
            "input": "0x96d3b83d0000000000000000000000000000000000000000000000008f90b8876dee65380000000000000000000000000000000000000000000000000000000000000001",
            "nonce": "0xa6b",
            "chainId": "0xaa36a7"
          },
          "additionalContracts": [],
          "isFixedGasLimit": false
        },
        {
          "hash": "0x00f8b8f88b7ab8f562b611385c785f1c0df8fdb4fa4ad5edd3713074e2b8208f",
          "transactionType": "CALL",
          "contractName": null,
          "contractAddress": "0x2e35d0ad6d2340f4572d20ada0661901fd0b464b",
          "function": null,
          "arguments": null,
          "transaction": {
            "from": "0x8454d149beb26e3e3fc5ed1c87fb0b2a1b7b6c2c",
            "to": "0x2e35d0ad6d2340f4572d20ada0661901fd0b464b",
            "gas": "0x945c",
            "value": "0x470de4df820000",
            "input": "0x",
            "nonce": "0xa6c",
            "chainId": "0xaa36a7"
          },
          "additionalContracts": [],
          "isFixedGasLimit": false
        },
        {
          "hash": "0x2c012c51260d1920fa794377b87c653b766c33595cd7e0818221528716ec92a7",
          "transactionType": "CALL",
          "contractName": null,
          "contractAddress": "0x274de069323b70085cdf6e8072b180655dd6577e",
          "function": "setGasLimitsForFunctionSelectors(bytes4[],uint256[])",
          "arguments": [
            "[0xd8a85b48]",
            "[300000]"
          ],
          "transaction": {
            "from": "0x8454d149beb26e3e3fc5ed1c87fb0b2a1b7b6c2c",
            "to": "0x274de069323b70085cdf6e8072b180655dd6577e",
            "gas": "0x126e3",
            "value": "0x0",
            "input": "0x3ef2d377000000000000000000000000000000000000000000000000000000000000004000000000000000000000000000000000000000000000000000000000000000800000000000000000000000000000000000000000000000000000000000000001d8a85b4800000000000000000000000000000000000000000000000000000000000000000000000000000000000000000000000000000000000000000000000100000000000000000000000000000000000000000000000000000000000493e0",
            "nonce": "0xa6d",
            "chainId": "0xaa36a7"
          },
          "additionalContracts": [],
          "isFixedGasLimit": false
        }
      ],
      "receipts": [
        {
          "status": "0x1",
          "cumulativeGasUsed": "0x18c913b",
          "logs": [
            {
              "address": "0x2e35d0ad6d2340f4572d20ada0661901fd0b464b",
              "topics": [
                "0x7341e817a8458e8902ebedbcd9e82db8299e43de630c89ade217662e6cafe906",
                "0x0000000000000000000000000000000000000000000000008f90b8876dee6538",
                "0x00000000000000000000000008832066a18b3108a613970a24e816cb10bf76c3"
              ],
              "data": "0x0000000000000000000000000000000000000000000000000000000000000001",
              "blockHash": "0xdd0b4862e5898a5d5c1f43671b6c55e8e6012f60617060345fd7ff1d6b3a63c7",
              "blockNumber": "0x78bbdf",
              "transactionHash": "0x4983f9bd5fdebbbf3f0b7896856d1eaa3170a1a4eb2f54bb0ae397bdb6f70e0f",
              "transactionIndex": "0x126",
              "logIndex": "0x1cc",
              "removed": false
            }
          ],
          "logsBloom": "0x00000000000000000000000000000000000000000000000000800000000000000000000000000000000000000000000000000000000000000000000000000000000000000000000000000000000000000000002400000000000000000000200000000000000000010000000000000000000000000000000000000000000001004000000000000004000000000000000000020000000000000000000000000000000000000000000000000000000000000000000000000000000000000000000000000000000000000000000000000000000000000000000000000000000000000000000000000000000020000000000000000000000001000000000000000010",
          "type": "0x2",
          "transactionHash": "0x4983f9bd5fdebbbf3f0b7896856d1eaa3170a1a4eb2f54bb0ae397bdb6f70e0f",
          "transactionIndex": "0x126",
          "blockHash": "0xdd0b4862e5898a5d5c1f43671b6c55e8e6012f60617060345fd7ff1d6b3a63c7",
          "blockNumber": "0x78bbdf",
          "gasUsed": "0xd18e",
          "effectiveGasPrice": "0x329268",
          "from": "0x8454d149beb26e3e3fc5ed1c87fb0b2a1b7b6c2c",
          "to": "0x2e35d0ad6d2340f4572d20ada0661901fd0b464b",
          "contractAddress": null
        },
        {
          "status": "0x1",
          "cumulativeGasUsed": "0x18d5f17",
          "logs": [
            {
              "address": "0x2e35d0ad6d2340f4572d20ada0661901fd0b464b",
              "topics": [
                "0xa5f858f3914e62a82af355192513d8dbc618ff9815e7213a71930d8996a3cb82",
                "0x0000000000000000000000000000000000000000000000008f90b8876dee6538"
              ],
              "data": "0x0000000000000000000000000000000000000000000000000000000000000001",
              "blockHash": "0xdd0b4862e5898a5d5c1f43671b6c55e8e6012f60617060345fd7ff1d6b3a63c7",
              "blockNumber": "0x78bbdf",
              "transactionHash": "0xd6ce308f18fdb489c50cbe870cba4e46cc158f9d9148bc106adbe1b9590a68c2",
              "transactionIndex": "0x127",
              "logIndex": "0x1cd",
              "removed": false
            }
          ],
          "logsBloom": "0x00000000000000000000020000000000000000000000000000800000000000000000000000000000000000000000000000000000000000000000000000000000000000000000000000000000000000000000000400000000000000000000200000000000000000010000100000000000000000000000000000000000000000004000000000000004000000000000000000000000000000000000000000000000000000000000000000000000000000000000000000000000000000000000000000000000000000000000000000000000000000000000000000000000000000000000000000000001000000000000000000000000000000000000000000000000",
          "type": "0x2",
          "transactionHash": "0xd6ce308f18fdb489c50cbe870cba4e46cc158f9d9148bc106adbe1b9590a68c2",
          "transactionIndex": "0x127",
          "blockHash": "0xdd0b4862e5898a5d5c1f43671b6c55e8e6012f60617060345fd7ff1d6b3a63c7",
          "blockNumber": "0x78bbdf",
          "gasUsed": "0xcddc",
          "effectiveGasPrice": "0x329268",
          "from": "0x8454d149beb26e3e3fc5ed1c87fb0b2a1b7b6c2c",
          "to": "0x2e35d0ad6d2340f4572d20ada0661901fd0b464b",
          "contractAddress": null
        },
        {
          "status": "0x1",
          "cumulativeGasUsed": "0x18e2cf3",
          "logs": [
            {
              "address": "0x2e35d0ad6d2340f4572d20ada0661901fd0b464b",
              "topics": [
                "0xa5f858f3914e62a82af355192513d8dbc618ff9815e7213a71930d8996a3cb82",
                "0x000000000000000000000000000000000000000000000000de41ba4fc9d91ad9"
              ],
              "data": "0x0000000000000000000000000000000000000000000000000000000000000001",
              "blockHash": "0xdd0b4862e5898a5d5c1f43671b6c55e8e6012f60617060345fd7ff1d6b3a63c7",
              "blockNumber": "0x78bbdf",
              "transactionHash": "0x7715cba243c005e566b6e14d6f3bbba2fc9e2a36569e4b5012bba57b65fa6b4d",
              "transactionIndex": "0x128",
              "logIndex": "0x1ce",
              "removed": false
            }
          ],
          "logsBloom": "0x00000000000000000000020000000000000000000000000000800000000000000000000000004000000000000000000000000000000000000000000000000000000000000000000000000000000000000000000000000000000000000000000000000000000000010000100000010000000000000000000000000000000000000000000000000004000000000000000000000020000000000000000000000000000000000000000000000000000000000000000000000000000000000000000000000000000000000000000000000000000000000000000000000000000000000000000000000001000000000000000000000000000000000000000000000000",
          "type": "0x2",
          "transactionHash": "0x7715cba243c005e566b6e14d6f3bbba2fc9e2a36569e4b5012bba57b65fa6b4d",
          "transactionIndex": "0x128",
          "blockHash": "0xdd0b4862e5898a5d5c1f43671b6c55e8e6012f60617060345fd7ff1d6b3a63c7",
          "blockNumber": "0x78bbdf",
          "gasUsed": "0xcddc",
          "effectiveGasPrice": "0x329268",
          "from": "0x8454d149beb26e3e3fc5ed1c87fb0b2a1b7b6c2c",
          "to": "0x2e35d0ad6d2340f4572d20ada0661901fd0b464b",
          "contractAddress": null
        },
        {
          "status": "0x1",
          "cumulativeGasUsed": "0x18f4ce0",
          "logs": [
            {
              "address": "0x2e35d0ad6d2340f4572d20ada0661901fd0b464b",
              "topics": [
                "0x79e93956b5c7b59cb1d0aaa5849af9993c5b994c44b148b1944f4e4ecf1e9b89",
                "0x0000000000000000000000000000000000000000000000008f90b8876dee6538"
              ],
              "data": "0x0000000000000000000000000000000000000000000000000000000000000001",
              "blockHash": "0xdd0b4862e5898a5d5c1f43671b6c55e8e6012f60617060345fd7ff1d6b3a63c7",
              "blockNumber": "0x78bbdf",
              "transactionHash": "0x1eb6ed44c39ce900cb79e95f19ea436d324ebc611dcce66ccf83d363b6fdb9b4",
              "transactionIndex": "0x12a",
              "logIndex": "0x1cf",
              "removed": false
            }
          ],
          "logsBloom": "0x00000000000000000000000000000000000000040000000000800000000000000000000000000000000000000000000000000000000000000000000000000000000000000000000000200000000000000000000400000000000000000000200000000000000000010000000000000000000000000000000000000000000000004000000000000004000000000000000000000000000000000000000000000000000000000000000000000000000000000000000000000000000000100000000000000000000000000000000000000000000000000000000000000000000000000000000000000000000000000000000000000000000000000000000000000000",
          "type": "0x2",
          "transactionHash": "0x1eb6ed44c39ce900cb79e95f19ea436d324ebc611dcce66ccf83d363b6fdb9b4",
          "transactionIndex": "0x12a",
          "blockHash": "0xdd0b4862e5898a5d5c1f43671b6c55e8e6012f60617060345fd7ff1d6b3a63c7",
          "blockNumber": "0x78bbdf",
          "gasUsed": "0xcde5",
          "effectiveGasPrice": "0x329268",
          "from": "0x8454d149beb26e3e3fc5ed1c87fb0b2a1b7b6c2c",
          "to": "0x2e35d0ad6d2340f4572d20ada0661901fd0b464b",
          "contractAddress": null
        },
        {
          "status": "0x1",
          "cumulativeGasUsed": "0x18fb252",
          "logs": [],
          "logsBloom": "0x00000000000000000000000000000000000000000000000000000000000000000000000000000000000000000000000000000000000000000000000000000000000000000000000000000000000000000000000000000000000000000000000000000000000000000000000000000000000000000000000000000000000000000000000000000000000000000000000000000000000000000000000000000000000000000000000000000000000000000000000000000000000000000000000000000000000000000000000000000000000000000000000000000000000000000000000000000000000000000000000000000000000000000000000000000000",
          "type": "0x2",
          "transactionHash": "0x00f8b8f88b7ab8f562b611385c785f1c0df8fdb4fa4ad5edd3713074e2b8208f",
          "transactionIndex": "0x12b",
          "blockHash": "0xdd0b4862e5898a5d5c1f43671b6c55e8e6012f60617060345fd7ff1d6b3a63c7",
          "blockNumber": "0x78bbdf",
          "gasUsed": "0x6572",
          "effectiveGasPrice": "0x329268",
          "from": "0x8454d149beb26e3e3fc5ed1c87fb0b2a1b7b6c2c",
          "to": "0x2e35d0ad6d2340f4572d20ada0661901fd0b464b",
          "contractAddress": null
        },
        {
          "status": "0x1",
          "cumulativeGasUsed": "0x19087d1",
          "logs": [
            {
              "address": "0x274de069323b70085cdf6e8072b180655dd6577e",
              "topics": [
                "0xed4c89b805f4efb58bc4a42b9a3c6f09783f619295a1fa41ab46d6190c8c7f3b",
                "0xd8a85b4800000000000000000000000000000000000000000000000000000000",
                "0x00000000000000000000000000000000000000000000000000000000000493e0"
              ],
              "data": "0x",
              "blockHash": "0xdd0b4862e5898a5d5c1f43671b6c55e8e6012f60617060345fd7ff1d6b3a63c7",
              "blockNumber": "0x78bbdf",
              "transactionHash": "0x2c012c51260d1920fa794377b87c653b766c33595cd7e0818221528716ec92a7",
              "transactionIndex": "0x12c",
              "logIndex": "0x1d0",
              "removed": false
            }
          ],
          "logsBloom": "0x00000000000000000040000000000000000000000800000000000000000000000000000000000000000000000000000000000000000000000000000000000000000000400000000000000000000000000000000000002000000000000000000000000000000000000000000000000000800000000000040000200000000000000000000000000000000000001000000000000000020000040000000000000000000000000000000000010000000000000000000000000000000000000000000000000000000000000000000000000000000000000000000000000000000000000000000000000000000000000000000000000000000000000000000000000000",
          "type": "0x2",
          "transactionHash": "0x2c012c51260d1920fa794377b87c653b766c33595cd7e0818221528716ec92a7",
          "transactionIndex": "0x12c",
          "blockHash": "0xdd0b4862e5898a5d5c1f43671b6c55e8e6012f60617060345fd7ff1d6b3a63c7",
          "blockNumber": "0x78bbdf",
          "gasUsed": "0xd57f",
          "effectiveGasPrice": "0x329268",
          "from": "0x8454d149beb26e3e3fc5ed1c87fb0b2a1b7b6c2c",
          "to": "0x274de069323b70085cdf6e8072b180655dd6577e",
          "contractAddress": null
        }
      ],
      "libraries": [],
      "pending": [],
      "returns": {},
      "timestamp": 1742106173,
      "chain": 11155111,
      "commit": "3a511f6"
    }
  ],
  "timestamp": 1742106206
}