{
  "deployments": [
    {
      "transactions": [
        {
          "hash": "0xe037d96a04a1b001c5f37b922bc933c17400f83d632e1548b72370c94b988fe9",
          "transactionType": "CALL",
          "contractName": null,
          "contractAddress": "0x08832066a18b3108a613970a24e816cb10bf76c3",
          "function": "allowlistSender(uint64,address,bool)",
          "arguments": [
            "16015286601757825753",
            "0x0C3AcbFdA67bb7a8E987a77fF505730230D7Ce9A",
            "true"
          ],
          "transaction": {
            "from": "0x8454d149beb26e3e3fc5ed1c87fb0b2a1b7b6c2c",
            "to": "0x08832066a18b3108a613970a24e816cb10bf76c3",
            "gas": "0x12153",
            "value": "0x0",
            "input": "0xf039a009000000000000000000000000000000000000000000000000de41ba4fc9d91ad90000000000000000000000000c3acbfda67bb7a8e987a77ff505730230d7ce9a0000000000000000000000000000000000000000000000000000000000000001",
            "nonce": "0x60c",
            "chainId": "0x14a34"
          },
          "additionalContracts": [],
          "isFixedGasLimit": false
        },
        {
          "hash": "0x2f3746e7a8f41e5fc190abc16e3f3ae560871f3f69783562f370a73544ecb24a",
          "transactionType": "CALL",
          "contractName": null,
          "contractAddress": "0x08832066a18b3108a613970a24e816cb10bf76c3",
          "function": "allowlistSourceChain(uint64,bool)",
          "arguments": [
            "10344971235874465080",
            "true"
          ],
          "transaction": {
            "from": "0x8454d149beb26e3e3fc5ed1c87fb0b2a1b7b6c2c",
            "to": "0x08832066a18b3108a613970a24e816cb10bf76c3",
            "gas": "0x11c1b",
            "value": "0x0",
            "input": "0xdb04fa490000000000000000000000000000000000000000000000008f90b8876dee65380000000000000000000000000000000000000000000000000000000000000001",
            "nonce": "0x60d",
            "chainId": "0x14a34"
          },
          "additionalContracts": [],
          "isFixedGasLimit": false
        },
        {
          "hash": "0x8ab00266551ecb4aa44f261a5fdf6e3df5ec2a2e2e78e0d4d580e46325ae7b32",
          "transactionType": "CALL",
          "contractName": null,
          "contractAddress": "0x08832066a18b3108a613970a24e816cb10bf76c3",
          "function": "allowlistDestinationChain(uint64,bool)",
          "arguments": [
            "16015286601757825753",
            "true"
          ],
          "transaction": {
            "from": "0x8454d149beb26e3e3fc5ed1c87fb0b2a1b7b6c2c",
            "to": "0x08832066a18b3108a613970a24e816cb10bf76c3",
            "gas": "0xb0c7",
            "value": "0x0",
            "input": "0x96d3b83d000000000000000000000000000000000000000000000000de41ba4fc9d91ad90000000000000000000000000000000000000000000000000000000000000001",
            "nonce": "0x60e",
            "chainId": "0x14a34"
          },
          "additionalContracts": [],
          "isFixedGasLimit": false
        },
        {
          "hash": "0x5920c0052bf02d0c2165d49263c353d007d48475e6738def784f6b9914805319",
          "transactionType": "CALL",
          "contractName": null,
          "contractAddress": "0x93c9040d6eb49c9da4ab7d322c2a3298b250c0ca",
          "function": "setGasLimitsForFunctionSelectors(bytes4[],uint256[])",
          "arguments": [
            "[0xe7a050aa, 0xcc15a557, 0x0dd8dd02, 0xe4cc3f90, 0xeea9064b, 0xda8be864, 0x3ccc861d]",
            "[560000, 300000, 580000, 630000, 400000, 650000, 590000]"
          ],
          "transaction": {
            "from": "0x8454d149beb26e3e3fc5ed1c87fb0b2a1b7b6c2c",
            "to": "0x93c9040d6eb49c9da4ab7d322c2a3298b250c0ca",
            "gas": "0x48332",
            "value": "0x0",
            "input": "0x3ef2d377000000000000000000000000000000000000000000000000000000000000004000000000000000000000000000000000000000000000000000000000000001400000000000000000000000000000000000000000000000000000000000000007e7a050aa00000000000000000000000000000000000000000000000000000000cc15a557000000000000000000000000000000000000000000000000000000000dd8dd0200000000000000000000000000000000000000000000000000000000e4cc3f9000000000000000000000000000000000000000000000000000000000eea9064b00000000000000000000000000000000000000000000000000000000da8be864000000000000000000000000000000000000000000000000000000003ccc861d0000000000000000000000000000000000000000000000000000000000000000000000000000000000000000000000000000000000000000000000070000000000000000000000000000000000000000000000000000000000088b8000000000000000000000000000000000000000000000000000000000000493e0000000000000000000000000000000000000000000000000000000000008d9a00000000000000000000000000000000000000000000000000000000000099cf00000000000000000000000000000000000000000000000000000000000061a80000000000000000000000000000000000000000000000000000000000009eb1000000000000000000000000000000000000000000000000000000000000900b0",
            "nonce": "0x60f",
            "chainId": "0x14a34"
          },
          "additionalContracts": [],
          "isFixedGasLimit": false
        },
        {
          "hash": "0x8b7ee709f2ecc90720ee9ea76bc32c7c6716ec012802f7b7f5df7595e56511ec",
          "transactionType": "CALL",
          "contractName": null,
          "contractAddress": "0x93c9040d6eb49c9da4ab7d322c2a3298b250c0ca",
          "function": "setSenderCCIP(address)",
          "arguments": [
            "0x08832066A18B3108A613970A24e816cB10bF76c3"
          ],
          "transaction": {
            "from": "0x8454d149beb26e3e3fc5ed1c87fb0b2a1b7b6c2c",
            "to": "0x93c9040d6eb49c9da4ab7d322c2a3298b250c0ca",
            "gas": "0xaea1",
            "value": "0x0",
            "input": "0xd8d6c31a00000000000000000000000008832066a18b3108a613970a24e816cb10bf76c3",
            "nonce": "0x610",
            "chainId": "0x14a34"
          },
          "additionalContracts": [],
          "isFixedGasLimit": false
        }
      ],
      "receipts": [
        {
          "status": "0x1",
          "cumulativeGasUsed": "0x48056b",
          "logs": [
            {
              "address": "0x08832066a18b3108a613970a24e816cb10bf76c3",
              "topics": [
                "0x7341e817a8458e8902ebedbcd9e82db8299e43de630c89ade217662e6cafe906",
                "0x000000000000000000000000000000000000000000000000de41ba4fc9d91ad9",
                "0x0000000000000000000000000c3acbfda67bb7a8e987a77ff505730230d7ce9a"
              ],
              "data": "0x0000000000000000000000000000000000000000000000000000000000000001",
              "blockHash": "0x12920bafd633c109a4b668af88ba576d8faccdda6de4ee1649cf98b2db023c56",
              "blockNumber": "0x15edac8",
              "transactionHash": "0xe037d96a04a1b001c5f37b922bc933c17400f83d632e1548b72370c94b988fe9",
              "transactionIndex": "0x1a",
              "logIndex": "0x47",
              "removed": false
            }
          ],
          "logsBloom": "0x00000000000000000000000000000000020000000000000000000000000000000000000000004000000000000000000000000000000000000000000000000000000000090000000000000000000000000000000000000000000000000000000000000000000000000000000000010000000800000000000000000000000000000000000000000000000000000000040000000020000000000000000000000000000000000000000000000000000000000000000000000000000000000000000000000000000000000000000000000000000000000000000000000000000000000000000000000000000020000000000000000000000001000000000000000018",
          "type": "0x2",
          "transactionHash": "0xe037d96a04a1b001c5f37b922bc933c17400f83d632e1548b72370c94b988fe9",
          "transactionIndex": "0x1a",
          "blockHash": "0x12920bafd633c109a4b668af88ba576d8faccdda6de4ee1649cf98b2db023c56",
          "blockNumber": "0x15edac8",
          "gasUsed": "0xd178",
          "effectiveGasPrice": "0xb2076",
          "from": "0x8454d149beb26e3e3fc5ed1c87fb0b2a1b7b6c2c",
          "to": "0x08832066a18b3108a613970a24e816cb10bf76c3",
          "contractAddress": null,
          "l1BaseFeeScalar": "0x44d",
          "l1BlobBaseFee": "0x1",
          "l1BlobBaseFeeScalar": "0xa118b",
          "l1Fee": "0x24c0cd50",
          "l1GasPrice": "0x14dd0ddd",
          "l1GasUsed": "0x640"
        },
        {
          "status": "0x1",
          "cumulativeGasUsed": "0x48d31b",
          "logs": [
            {
              "address": "0x08832066a18b3108a613970a24e816cb10bf76c3",
              "topics": [
                "0xa5f858f3914e62a82af355192513d8dbc618ff9815e7213a71930d8996a3cb82",
                "0x0000000000000000000000000000000000000000000000008f90b8876dee6538"
              ],
              "data": "0x0000000000000000000000000000000000000000000000000000000000000001",
              "blockHash": "0x12920bafd633c109a4b668af88ba576d8faccdda6de4ee1649cf98b2db023c56",
              "blockNumber": "0x15edac8",
              "transactionHash": "0x2f3746e7a8f41e5fc190abc16e3f3ae560871f3f69783562f370a73544ecb24a",
              "transactionIndex": "0x1b",
              "logIndex": "0x48",
              "removed": false
            }
          ],
          "logsBloom": "0x00000000000000000000020000000000000000000000000000000000000000000000000000000000000000000000000000000000000000000000000000000000000000010000000000000000000000000000000400000000000000000000200000000000000000000000100000000000000000000000000000000000000000004000000000000000000000000000040000000000000000000000000000000000000000000000000000000000000000000000000000000000000000000000000000000000000000000000000000000000000000000000000000000000000000000000000000000001000000000000000000000000000000000000000000000008",
          "type": "0x2",
          "transactionHash": "0x2f3746e7a8f41e5fc190abc16e3f3ae560871f3f69783562f370a73544ecb24a",
          "transactionIndex": "0x1b",
          "blockHash": "0x12920bafd633c109a4b668af88ba576d8faccdda6de4ee1649cf98b2db023c56",
          "blockNumber": "0x15edac8",
          "gasUsed": "0xcdb0",
          "effectiveGasPrice": "0xb2076",
          "from": "0x8454d149beb26e3e3fc5ed1c87fb0b2a1b7b6c2c",
          "to": "0x08832066a18b3108a613970a24e816cb10bf76c3",
          "contractAddress": null,
          "l1BaseFeeScalar": "0x44d",
          "l1BlobBaseFee": "0x1",
          "l1BlobBaseFeeScalar": "0xa118b",
          "l1Fee": "0x24c0cd50",
          "l1GasPrice": "0x14dd0ddd",
          "l1GasUsed": "0x640"
        },
        {
          "status": "0x1",
          "cumulativeGasUsed": "0x495318",
          "logs": [
            {
              "address": "0x08832066a18b3108a613970a24e816cb10bf76c3",
              "topics": [
                "0x79e93956b5c7b59cb1d0aaa5849af9993c5b994c44b148b1944f4e4ecf1e9b89",
                "0x000000000000000000000000000000000000000000000000de41ba4fc9d91ad9"
              ],
              "data": "0x0000000000000000000000000000000000000000000000000000000000000001",
              "blockHash": "0x12920bafd633c109a4b668af88ba576d8faccdda6de4ee1649cf98b2db023c56",
              "blockNumber": "0x15edac8",
              "transactionHash": "0x8ab00266551ecb4aa44f261a5fdf6e3df5ec2a2e2e78e0d4d580e46325ae7b32",
              "transactionIndex": "0x1c",
              "logIndex": "0x49",
              "removed": false
            }
          ],
          "logsBloom": "0x00000000000000000000000000000000000000040000000000000000000000000000000000004000000000000000000000000000000000000000000000000000000000010000000000200000000000000000000000000000000000000000000000000000000000000000000000010000000000000000000000000000000000000000000000000000000000000000040000000020000000000000000000000000000000000000000000000000000000000000000000000000000000100000000000000000000000000000000000000000000000000000000000000000000000000000000000000000000000000000000000000000000000000000000000000008",
          "type": "0x2",
          "transactionHash": "0x8ab00266551ecb4aa44f261a5fdf6e3df5ec2a2e2e78e0d4d580e46325ae7b32",
          "transactionIndex": "0x1c",
          "blockHash": "0x12920bafd633c109a4b668af88ba576d8faccdda6de4ee1649cf98b2db023c56",
          "blockNumber": "0x15edac8",
          "gasUsed": "0x7ffd",
          "effectiveGasPrice": "0xb2076",
          "from": "0x8454d149beb26e3e3fc5ed1c87fb0b2a1b7b6c2c",
          "to": "0x08832066a18b3108a613970a24e816cb10bf76c3",
          "contractAddress": null,
          "l1BaseFeeScalar": "0x44d",
          "l1BlobBaseFee": "0x1",
          "l1BlobBaseFeeScalar": "0xa118b",
          "l1Fee": "0x24c0cd50",
          "l1GasPrice": "0x14dd0ddd",
          "l1GasUsed": "0x640"
        },
        {
          "status": "0x1",
          "cumulativeGasUsed": "0x4c68f9",
          "logs": [
            {
              "address": "0x93c9040d6eb49c9da4ab7d322c2a3298b250c0ca",
              "topics": [
                "0xed4c89b805f4efb58bc4a42b9a3c6f09783f619295a1fa41ab46d6190c8c7f3b",
                "0xe7a050aa00000000000000000000000000000000000000000000000000000000",
                "0x0000000000000000000000000000000000000000000000000000000000088b80"
              ],
              "data": "0x",
              "blockHash": "0x12920bafd633c109a4b668af88ba576d8faccdda6de4ee1649cf98b2db023c56",
              "blockNumber": "0x15edac8",
              "transactionHash": "0x5920c0052bf02d0c2165d49263c353d007d48475e6738def784f6b9914805319",
              "transactionIndex": "0x1d",
              "logIndex": "0x4a",
              "removed": false
            },
            {
              "address": "0x93c9040d6eb49c9da4ab7d322c2a3298b250c0ca",
              "topics": [
                "0xed4c89b805f4efb58bc4a42b9a3c6f09783f619295a1fa41ab46d6190c8c7f3b",
                "0xcc15a55700000000000000000000000000000000000000000000000000000000",
                "0x00000000000000000000000000000000000000000000000000000000000493e0"
              ],
              "data": "0x",
              "blockHash": "0x12920bafd633c109a4b668af88ba576d8faccdda6de4ee1649cf98b2db023c56",
              "blockNumber": "0x15edac8",
              "transactionHash": "0x5920c0052bf02d0c2165d49263c353d007d48475e6738def784f6b9914805319",
              "transactionIndex": "0x1d",
              "logIndex": "0x4b",
              "removed": false
            },
            {
              "address": "0x93c9040d6eb49c9da4ab7d322c2a3298b250c0ca",
              "topics": [
                "0xed4c89b805f4efb58bc4a42b9a3c6f09783f619295a1fa41ab46d6190c8c7f3b",
                "0x0dd8dd0200000000000000000000000000000000000000000000000000000000",
                "0x000000000000000000000000000000000000000000000000000000000008d9a0"
              ],
              "data": "0x",
              "blockHash": "0x12920bafd633c109a4b668af88ba576d8faccdda6de4ee1649cf98b2db023c56",
              "blockNumber": "0x15edac8",
              "transactionHash": "0x5920c0052bf02d0c2165d49263c353d007d48475e6738def784f6b9914805319",
              "transactionIndex": "0x1d",
              "logIndex": "0x4c",
              "removed": false
            },
            {
              "address": "0x93c9040d6eb49c9da4ab7d322c2a3298b250c0ca",
              "topics": [
                "0xed4c89b805f4efb58bc4a42b9a3c6f09783f619295a1fa41ab46d6190c8c7f3b",
                "0xe4cc3f9000000000000000000000000000000000000000000000000000000000",
                "0x0000000000000000000000000000000000000000000000000000000000099cf0"
              ],
              "data": "0x",
              "blockHash": "0x12920bafd633c109a4b668af88ba576d8faccdda6de4ee1649cf98b2db023c56",
              "blockNumber": "0x15edac8",
              "transactionHash": "0x5920c0052bf02d0c2165d49263c353d007d48475e6738def784f6b9914805319",
              "transactionIndex": "0x1d",
              "logIndex": "0x4d",
              "removed": false
            },
            {
              "address": "0x93c9040d6eb49c9da4ab7d322c2a3298b250c0ca",
              "topics": [
                "0xed4c89b805f4efb58bc4a42b9a3c6f09783f619295a1fa41ab46d6190c8c7f3b",
                "0xeea9064b00000000000000000000000000000000000000000000000000000000",
                "0x0000000000000000000000000000000000000000000000000000000000061a80"
              ],
              "data": "0x",
              "blockHash": "0x12920bafd633c109a4b668af88ba576d8faccdda6de4ee1649cf98b2db023c56",
              "blockNumber": "0x15edac8",
              "transactionHash": "0x5920c0052bf02d0c2165d49263c353d007d48475e6738def784f6b9914805319",
              "transactionIndex": "0x1d",
              "logIndex": "0x4e",
              "removed": false
            },
            {
              "address": "0x93c9040d6eb49c9da4ab7d322c2a3298b250c0ca",
              "topics": [
                "0xed4c89b805f4efb58bc4a42b9a3c6f09783f619295a1fa41ab46d6190c8c7f3b",
                "0xda8be86400000000000000000000000000000000000000000000000000000000",
                "0x000000000000000000000000000000000000000000000000000000000009eb10"
              ],
              "data": "0x",
              "blockHash": "0x12920bafd633c109a4b668af88ba576d8faccdda6de4ee1649cf98b2db023c56",
              "blockNumber": "0x15edac8",
              "transactionHash": "0x5920c0052bf02d0c2165d49263c353d007d48475e6738def784f6b9914805319",
              "transactionIndex": "0x1d",
              "logIndex": "0x4f",
              "removed": false
            },
            {
              "address": "0x93c9040d6eb49c9da4ab7d322c2a3298b250c0ca",
              "topics": [
                "0xed4c89b805f4efb58bc4a42b9a3c6f09783f619295a1fa41ab46d6190c8c7f3b",
                "0x3ccc861d00000000000000000000000000000000000000000000000000000000",
                "0x00000000000000000000000000000000000000000000000000000000000900b0"
              ],
              "data": "0x",
              "blockHash": "0x12920bafd633c109a4b668af88ba576d8faccdda6de4ee1649cf98b2db023c56",
              "blockNumber": "0x15edac8",
              "transactionHash": "0x5920c0052bf02d0c2165d49263c353d007d48475e6738def784f6b9914805319",
              "transactionIndex": "0x1d",
              "logIndex": "0x50",
              "removed": false
            }
          ],
          "logsBloom": "0x0000000000000000004000000000000000000000080000000000000000400000000000000000000000080000004000000800000020000000000000000800000000800000000000000000400000000004010800000000200008000000000000000000001000000000000000000000000083000000000204000020000000010104008010000080000000000140010400000010000000040000000000000000000000000040000000000000000000a000800000000000000000000000000000400400000000000000000008001000000000000000000000100000100000000000020000000000001000000000000000000000800000000000000000010000000000",
          "type": "0x2",
          "transactionHash": "0x5920c0052bf02d0c2165d49263c353d007d48475e6738def784f6b9914805319",
          "transactionIndex": "0x1d",
          "blockHash": "0x12920bafd633c109a4b668af88ba576d8faccdda6de4ee1649cf98b2db023c56",
          "blockNumber": "0x15edac8",
          "gasUsed": "0x315e1",
          "effectiveGasPrice": "0xb2076",
          "from": "0x8454d149beb26e3e3fc5ed1c87fb0b2a1b7b6c2c",
          "to": "0x93c9040d6eb49c9da4ab7d322c2a3298b250c0ca",
          "contractAddress": null,
          "l1BaseFeeScalar": "0x44d",
          "l1BlobBaseFee": "0x1",
          "l1BlobBaseFeeScalar": "0xa118b",
          "l1Fee": "0x404868a0",
          "l1GasPrice": "0x14dd0ddd",
          "l1GasUsed": "0xaee"
        },
        {
          "status": "0x1",
          "cumulativeGasUsed": "0x4ce768",
          "logs": [
            {
              "address": "0x93c9040d6eb49c9da4ab7d322c2a3298b250c0ca",
              "topics": [
                "0xc200bc994a6761c6c93718eb06df928b16dca3e77b7ce283d09852e260c9b2da",
                "0x00000000000000000000000008832066a18b3108a613970a24e816cb10bf76c3"
              ],
              "data": "0x",
              "blockHash": "0x12920bafd633c109a4b668af88ba576d8faccdda6de4ee1649cf98b2db023c56",
              "blockNumber": "0x15edac8",
              "transactionHash": "0x8b7ee709f2ecc90720ee9ea76bc32c7c6716ec012802f7b7f5df7595e56511ec",
              "transactionIndex": "0x1e",
              "logIndex": "0x51",
              "removed": false
            }
          ],
          "logsBloom": "0x00000000000000000100000000000000000000000000000000000000000000000000000000000000000000000000000000000000000000000000000000000000008000000000000000000000000000000000002000000000000000000000000000000000000000000000000000000000000000000000000000000000000001000000000000000000000000000000000000120000000000000000000000000000100000000000000000000000000000800000000000000000000000000000000000000000000000000000000000000000000020000000000000000000000000000000000000000000000000000000000000000000000000000000000000000000",
          "type": "0x2",
          "transactionHash": "0x8b7ee709f2ecc90720ee9ea76bc32c7c6716ec012802f7b7f5df7595e56511ec",
          "transactionIndex": "0x1e",
          "blockHash": "0x12920bafd633c109a4b668af88ba576d8faccdda6de4ee1649cf98b2db023c56",
          "blockNumber": "0x15edac8",
          "gasUsed": "0x7e6f",
          "effectiveGasPrice": "0xb2076",
          "from": "0x8454d149beb26e3e3fc5ed1c87fb0b2a1b7b6c2c",
          "to": "0x93c9040d6eb49c9da4ab7d322c2a3298b250c0ca",
          "contractAddress": null,
          "l1BaseFeeScalar": "0x44d",
          "l1BlobBaseFee": "0x1",
          "l1BlobBaseFeeScalar": "0xa118b",
          "l1Fee": "0x24c0cd50",
          "l1GasPrice": "0x14dd0ddd",
          "l1GasUsed": "0x640"
        }
      ],
      "libraries": [],
      "pending": [],
      "returns": {},
      "timestamp": 1741755501,
      "chain": 84532,
      "commit": "c887dfa"
    },
    {
      "transactions": [
        {
          "hash": "0x020dbc2f464e33964032aaf40b027a1eaa5d8b3d81e822178786c1a3e8621a82",
          "transactionType": "CALL",
          "contractName": null,
          "contractAddress": "0x0c3acbfda67bb7a8e987a77ff505730230d7ce9a",
          "function": "allowlistSender(uint64,address,bool)",
          "arguments": [
            "10344971235874465080",
            "0x08832066A18B3108A613970A24e816cB10bF76c3",
            "true"
          ],
          "transaction": {
            "from": "0x8454d149beb26e3e3fc5ed1c87fb0b2a1b7b6c2c",
            "to": "0x0c3acbfda67bb7a8e987a77ff505730230d7ce9a",
            "gas": "0xc0c9",
            "value": "0x0",
            "input": "0xf039a0090000000000000000000000000000000000000000000000008f90b8876dee653800000000000000000000000008832066a18b3108a613970a24e816cb10bf76c30000000000000000000000000000000000000000000000000000000000000001",
            "nonce": "0x8e8",
            "chainId": "0xaa36a7"
          },
          "additionalContracts": [],
          "isFixedGasLimit": false
        },
        {
          "hash": "0xd7623ba4ae84bfd64903ca9edbc10bf501cf4bbedc46d6238c7c2f537202a46e",
          "transactionType": "CALL",
          "contractName": null,
          "contractAddress": "0x0c3acbfda67bb7a8e987a77ff505730230d7ce9a",
          "function": "allowlistSourceChain(uint64,bool)",
          "arguments": [
            "10344971235874465080",
            "true"
          ],
          "transaction": {
            "from": "0x8454d149beb26e3e3fc5ed1c87fb0b2a1b7b6c2c",
            "to": "0x0c3acbfda67bb7a8e987a77ff505730230d7ce9a",
            "gas": "0xb0f9",
            "value": "0x0",
            "input": "0xdb04fa490000000000000000000000000000000000000000000000008f90b8876dee65380000000000000000000000000000000000000000000000000000000000000001",
            "nonce": "0x8e9",
            "chainId": "0xaa36a7"
          },
          "additionalContracts": [],
          "isFixedGasLimit": false
        },
        {
          "hash": "0xa6fd944284388f281183686ab464ac187cc00af50f209eb9601fa196105db536",
          "transactionType": "CALL",
          "contractName": null,
          "contractAddress": "0x0c3acbfda67bb7a8e987a77ff505730230d7ce9a",
          "function": "allowlistSourceChain(uint64,bool)",
          "arguments": [
            "16015286601757825753",
            "true"
          ],
          "transaction": {
            "from": "0x8454d149beb26e3e3fc5ed1c87fb0b2a1b7b6c2c",
            "to": "0x0c3acbfda67bb7a8e987a77ff505730230d7ce9a",
            "gas": "0x11c56",
            "value": "0x0",
            "input": "0xdb04fa49000000000000000000000000000000000000000000000000de41ba4fc9d91ad90000000000000000000000000000000000000000000000000000000000000001",
            "nonce": "0x8ea",
            "chainId": "0xaa36a7"
          },
          "additionalContracts": [],
          "isFixedGasLimit": false
        },
        {
          "hash": "0xf042553cf76b82137432481be054492591e5a710d37d2b3ee24f5485d553bbae",
          "transactionType": "CALL",
          "contractName": null,
          "contractAddress": "0x0c3acbfda67bb7a8e987a77ff505730230d7ce9a",
          "function": "allowlistDestinationChain(uint64,bool)",
          "arguments": [
            "10344971235874465080",
            "true"
          ],
          "transaction": {
            "from": "0x8454d149beb26e3e3fc5ed1c87fb0b2a1b7b6c2c",
            "to": "0x0c3acbfda67bb7a8e987a77ff505730230d7ce9a",
            "gas": "0xbb6f",
            "value": "0x0",
            "input": "0x96d3b83d0000000000000000000000000000000000000000000000008f90b8876dee65380000000000000000000000000000000000000000000000000000000000000001",
            "nonce": "0x8eb",
            "chainId": "0xaa36a7"
          },
          "additionalContracts": [],
          "isFixedGasLimit": false
        },
        {
          "hash": "0xf7e61571e88f405c095ef0dc0fefc47f41361678755470b7a4ebf59e4bff54e0",
          "transactionType": "CALL",
          "contractName": null,
          "contractAddress": "0xc480f6724d958b4fc5887ca3af5045f3dc8cad86",
          "function": "setGasLimitsForFunctionSelectors(bytes4[],uint256[])",
          "arguments": [
            "[0xd8a85b48]",
            "[300000]"
          ],
          "transaction": {
            "from": "0x8454d149beb26e3e3fc5ed1c87fb0b2a1b7b6c2c",
            "to": "0xc480f6724d958b4fc5887ca3af5045f3dc8cad86",
            "gas": "0x126e3",
            "value": "0x0",
            "input": "0x3ef2d377000000000000000000000000000000000000000000000000000000000000004000000000000000000000000000000000000000000000000000000000000000800000000000000000000000000000000000000000000000000000000000000001d8a85b4800000000000000000000000000000000000000000000000000000000000000000000000000000000000000000000000000000000000000000000000100000000000000000000000000000000000000000000000000000000000493e0",
            "nonce": "0x8ec",
            "chainId": "0xaa36a7"
          },
          "additionalContracts": [],
          "isFixedGasLimit": false
        }
      ],
      "receipts": [
        {
          "status": "0x1",
          "cumulativeGasUsed": "0x111760e",
          "logs": [
            {
              "address": "0x0c3acbfda67bb7a8e987a77ff505730230d7ce9a",
              "topics": [
                "0x7341e817a8458e8902ebedbcd9e82db8299e43de630c89ade217662e6cafe906",
                "0x0000000000000000000000000000000000000000000000008f90b8876dee6538",
                "0x00000000000000000000000008832066a18b3108a613970a24e816cb10bf76c3"
              ],
              "data": "0x0000000000000000000000000000000000000000000000000000000000000001",
              "blockHash": "0xdc5aee11da73cc0becc60cbe3ff9fca62810e680405a81dbecad9f6ba0ff6ebb",
              "blockNumber": "0x785046",
              "transactionHash": "0x020dbc2f464e33964032aaf40b027a1eaa5d8b3d81e822178786c1a3e8621a82",
              "transactionIndex": "0x49",
              "logIndex": "0x66",
              "removed": false
            }
          ],
          "logsBloom": "0x00000000000000000000000000000000000000000000000000000000000000000000000000000000000000000000000000000000000000040000000000000000000000000000000000000000000000000000002400000000000000000000200000000000002000000000000000000000000000000000000000000000000001004000000000000000000000000000000000020000000000000000000000000000000000000000000000000000000000000000000000000000000000000000000000000000000000000000000000000000000000000000000000000000000000000000000004000000000020000000000000000000000001000000000000000010",
          "type": "0x2",
          "transactionHash": "0x020dbc2f464e33964032aaf40b027a1eaa5d8b3d81e822178786c1a3e8621a82",
          "transactionIndex": "0x49",
          "blockHash": "0xdc5aee11da73cc0becc60cbe3ff9fca62810e680405a81dbecad9f6ba0ff6ebb",
          "blockNumber": "0x785046",
          "gasUsed": "0x83d2",
          "effectiveGasPrice": "0xb9426fe2",
          "blobGasUsed": "0x0",
          "from": "0x8454d149beb26e3e3fc5ed1c87fb0b2a1b7b6c2c",
          "to": "0x0c3acbfda67bb7a8e987a77ff505730230d7ce9a",
          "contractAddress": null
        },
        {
          "status": "0x1",
          "cumulativeGasUsed": "0x111f62e",
          "logs": [
            {
              "address": "0x0c3acbfda67bb7a8e987a77ff505730230d7ce9a",
              "topics": [
                "0xa5f858f3914e62a82af355192513d8dbc618ff9815e7213a71930d8996a3cb82",
                "0x0000000000000000000000000000000000000000000000008f90b8876dee6538"
              ],
              "data": "0x0000000000000000000000000000000000000000000000000000000000000001",
              "blockHash": "0xdc5aee11da73cc0becc60cbe3ff9fca62810e680405a81dbecad9f6ba0ff6ebb",
              "blockNumber": "0x785046",
              "transactionHash": "0xd7623ba4ae84bfd64903ca9edbc10bf501cf4bbedc46d6238c7c2f537202a46e",
              "transactionIndex": "0x4a",
              "logIndex": "0x67",
              "removed": false
            }
          ],
          "logsBloom": "0x00000000000000000000020000000000000000000000000000000000000000000000000000000000000000000000000000000000000000040000000000000000000000000000000000000000000000000000000400000000000000000000200000000000002000000000100000000000000000000000000000000000000000004000000000000000000000000000000000000000000000000000000000000000000000000000000000000000000000000000000000000000000000000000000000000000000000000000000000000000000000000000000000000000000000000000000004000001000000000000000000000000000000000000000000000000",
          "type": "0x2",
          "transactionHash": "0xd7623ba4ae84bfd64903ca9edbc10bf501cf4bbedc46d6238c7c2f537202a46e",
          "transactionIndex": "0x4a",
          "blockHash": "0xdc5aee11da73cc0becc60cbe3ff9fca62810e680405a81dbecad9f6ba0ff6ebb",
          "blockNumber": "0x785046",
          "gasUsed": "0x8020",
          "effectiveGasPrice": "0xb9426fe2",
          "blobGasUsed": "0x0",
          "from": "0x8454d149beb26e3e3fc5ed1c87fb0b2a1b7b6c2c",
          "to": "0x0c3acbfda67bb7a8e987a77ff505730230d7ce9a",
          "contractAddress": null
        },
        {
          "status": "0x1",
          "cumulativeGasUsed": "0x112c40a",
          "logs": [
            {
              "address": "0x0c3acbfda67bb7a8e987a77ff505730230d7ce9a",
              "topics": [
                "0xa5f858f3914e62a82af355192513d8dbc618ff9815e7213a71930d8996a3cb82",
                "0x000000000000000000000000000000000000000000000000de41ba4fc9d91ad9"
              ],
              "data": "0x0000000000000000000000000000000000000000000000000000000000000001",
              "blockHash": "0xdc5aee11da73cc0becc60cbe3ff9fca62810e680405a81dbecad9f6ba0ff6ebb",
              "blockNumber": "0x785046",
              "transactionHash": "0xa6fd944284388f281183686ab464ac187cc00af50f209eb9601fa196105db536",
              "transactionIndex": "0x4b",
              "logIndex": "0x68",
              "removed": false
            }
          ],
          "logsBloom": "0x00000000000000000000020000000000000000000000000000000000000000000000000000004000000000000000000000000000000000040000000000000000000000000000000000000000000000000000000000000000000000000000000000000000002000000000100000010000000000000000000000000000000000000000000000000000000000000000000000000020000000000000000000000000000000000000000000000000000000000000000000000000000000000000000000000000000000000000000000000000000000000000000000000000000000000000000004000001000000000000000000000000000000000000000000000000",
          "type": "0x2",
          "transactionHash": "0xa6fd944284388f281183686ab464ac187cc00af50f209eb9601fa196105db536",
          "transactionIndex": "0x4b",
          "blockHash": "0xdc5aee11da73cc0becc60cbe3ff9fca62810e680405a81dbecad9f6ba0ff6ebb",
          "blockNumber": "0x785046",
          "gasUsed": "0xcddc",
          "effectiveGasPrice": "0xb9426fe2",
          "blobGasUsed": "0x0",
          "from": "0x8454d149beb26e3e3fc5ed1c87fb0b2a1b7b6c2c",
          "to": "0x0c3acbfda67bb7a8e987a77ff505730230d7ce9a",
          "contractAddress": null
        },
        {
          "status": "0x1",
          "cumulativeGasUsed": "0x1013f90",
          "logs": [
            {
              "address": "0x0c3acbfda67bb7a8e987a77ff505730230d7ce9a",
              "topics": [
                "0x79e93956b5c7b59cb1d0aaa5849af9993c5b994c44b148b1944f4e4ecf1e9b89",
                "0x0000000000000000000000000000000000000000000000008f90b8876dee6538"
              ],
              "data": "0x0000000000000000000000000000000000000000000000000000000000000001",
              "blockHash": "0xdf7fa46c13a45b8a325e95b5eff3097ef30ec80890b34d28300a673f2c0f3c21",
              "blockNumber": "0x785049",
              "transactionHash": "0xf042553cf76b82137432481be054492591e5a710d37d2b3ee24f5485d553bbae",
              "transactionIndex": "0x47",
              "logIndex": "0x53",
              "removed": false
            }
          ],
          "logsBloom": "0x00000000000000000000000000000000000000040000000000000000000000000000000000000000000000000000000000000000000000040000000000000000000000000000000000200000000000000000000400000000000000000000200000000000002000000000000000000000000000000000000000000000000000004000000000000000000000000000000000000000000000000000000000000000000000000000000000000000000000000000000000000000000000100000000000000000000000000000000000000000000000000000000000000000000000000000000004000000000000000000000000000000000000000000000000000000",
          "type": "0x2",
          "transactionHash": "0xf042553cf76b82137432481be054492591e5a710d37d2b3ee24f5485d553bbae",
          "transactionIndex": "0x47",
          "blockHash": "0xdf7fa46c13a45b8a325e95b5eff3097ef30ec80890b34d28300a673f2c0f3c21",
          "blockNumber": "0x785049",
          "gasUsed": "0x8029",
          "effectiveGasPrice": "0xcec9d23d",
          "blobGasUsed": "0x0",
          "from": "0x8454d149beb26e3e3fc5ed1c87fb0b2a1b7b6c2c",
          "to": "0x0c3acbfda67bb7a8e987a77ff505730230d7ce9a",
          "contractAddress": null
        },
        {
          "status": "0x1",
          "cumulativeGasUsed": "0x102150f",
          "logs": [
            {
              "address": "0xc480f6724d958b4fc5887ca3af5045f3dc8cad86",
              "topics": [
                "0xed4c89b805f4efb58bc4a42b9a3c6f09783f619295a1fa41ab46d6190c8c7f3b",
                "0xd8a85b4800000000000000000000000000000000000000000000000000000000",
                "0x00000000000000000000000000000000000000000000000000000000000493e0"
              ],
              "data": "0x",
              "blockHash": "0xdf7fa46c13a45b8a325e95b5eff3097ef30ec80890b34d28300a673f2c0f3c21",
              "blockNumber": "0x785049",
              "transactionHash": "0xf7e61571e88f405c095ef0dc0fefc47f41361678755470b7a4ebf59e4bff54e0",
              "transactionIndex": "0x48",
              "logIndex": "0x54",
              "removed": false
            }
          ],
          "logsBloom": "0x00000000000000000040000000000000400000000800000000000000000000000000000000000000000000000000000000000000000000000000000020000000000000000000000000000000000000000000000000002000000000000000000000000000000000000000000000000000800000000000040000200000000000000000000000000000000000001000000000000000000000000000000000000000000000000000000000010000000000000000000000000000000000000000000000000000000000000000000000000000000000000000000000000000000080000000000000000000000000000000000000000000000000000000000000000000",
          "type": "0x2",
          "transactionHash": "0xf7e61571e88f405c095ef0dc0fefc47f41361678755470b7a4ebf59e4bff54e0",
          "transactionIndex": "0x48",
          "blockHash": "0xdf7fa46c13a45b8a325e95b5eff3097ef30ec80890b34d28300a673f2c0f3c21",
          "blockNumber": "0x785049",
          "gasUsed": "0xd57f",
          "effectiveGasPrice": "0xcec9d23d",
          "blobGasUsed": "0x0",
          "from": "0x8454d149beb26e3e3fc5ed1c87fb0b2a1b7b6c2c",
          "to": "0xc480f6724d958b4fc5887ca3af5045f3dc8cad86",
          "contractAddress": null
        }
      ],
      "libraries": [],
      "pending": [],
      "returns": {},
      "timestamp": 1741755501,
      "chain": 11155111,
      "commit": "c887dfa"
    }
  ],
  "timestamp": 1741755553
}