{
  "deployments": [
    {
      "transactions": [
        {
          "hash": "0x8e54c8e7cf71a3cbd15014e0bda2f708c8605005f0c99b0af891e2c0f112d971",
          "transactionType": "CALL",
          "contractName": null,
          "contractAddress": "0x08832066a18b3108a613970a24e816cb10bf76c3",
          "function": "allowlistSender(uint64,address,bool)",
          "arguments": [
            "16015286601757825753",
            "0xB34B4ac9C056b68153D3090437F99D451ade228a",
            "true"
          ],
          "transaction": {
            "from": "0x8454d149beb26e3e3fc5ed1c87fb0b2a1b7b6c2c",
            "to": "0x08832066a18b3108a613970a24e816cb10bf76c3",
            "gas": "0x12153",
            "value": "0x0",
            "input": "0xf039a009000000000000000000000000000000000000000000000000de41ba4fc9d91ad9000000000000000000000000b34b4ac9c056b68153d3090437f99d451ade228a0000000000000000000000000000000000000000000000000000000000000001",
            "nonce": "0x6e5",
            "chainId": "0x14a34"
          },
          "additionalContracts": [],
          "isFixedGasLimit": false
        },
        {
          "hash": "0x36ed005c62fc5d8535289dcb7ebf7321e367420006bde4f2fd1b5c6185f9ed88",
          "transactionType": "CALL",
          "contractName": null,
          "contractAddress": "0x08832066a18b3108a613970a24e816cb10bf76c3",
          "function": "allowlistSourceChain(uint64,bool)",
          "arguments": [
            "10344971235874465080",
            "true"
          ],
          "transaction": {
            "from": "0x8454d149beb26e3e3fc5ed1c87fb0b2a1b7b6c2c",
            "to": "0x08832066a18b3108a613970a24e816cb10bf76c3",
            "gas": "0xb0bb",
            "value": "0x0",
            "input": "0xdb04fa490000000000000000000000000000000000000000000000008f90b8876dee65380000000000000000000000000000000000000000000000000000000000000001",
            "nonce": "0x6e6",
            "chainId": "0x14a34"
          },
          "additionalContracts": [],
          "isFixedGasLimit": false
        },
        {
          "hash": "0xea6302d88ac688d6ebbcd30687a41fcb4b0d51988d855aea96523c9efcbee826",
          "transactionType": "CALL",
          "contractName": null,
          "contractAddress": "0x08832066a18b3108a613970a24e816cb10bf76c3",
          "function": "allowlistDestinationChain(uint64,bool)",
          "arguments": [
            "16015286601757825753",
            "true"
          ],
          "transaction": {
            "from": "0x8454d149beb26e3e3fc5ed1c87fb0b2a1b7b6c2c",
            "to": "0x08832066a18b3108a613970a24e816cb10bf76c3",
            "gas": "0xb0c7",
            "value": "0x0",
            "input": "0x96d3b83d000000000000000000000000000000000000000000000000de41ba4fc9d91ad90000000000000000000000000000000000000000000000000000000000000001",
            "nonce": "0x6e7",
            "chainId": "0x14a34"
          },
          "additionalContracts": [],
          "isFixedGasLimit": false
        },
        {
          "hash": "0x72480007409ac2f9f7a11522abe58e7358c5554d5f11ca2d6cdb7f60dccd5e1b",
          "transactionType": "CALL",
          "contractName": null,
          "contractAddress": "0x93c9040d6eb49c9da4ab7d322c2a3298b250c0ca",
          "function": "setGasLimitsForFunctionSelectors(bytes4[],uint256[])",
          "arguments": [
            "[0xe7a050aa, 0xcc15a557, 0x0dd8dd02, 0xe4cc3f90, 0xeea9064b, 0xda8be864, 0x3ccc861d]",
            "[560000, 300000, 580000, 630000, 400000, 650000, 590000]"
          ],
          "transaction": {
            "from": "0x8454d149beb26e3e3fc5ed1c87fb0b2a1b7b6c2c",
            "to": "0x93c9040d6eb49c9da4ab7d322c2a3298b250c0ca",
            "gas": "0x1536c",
            "value": "0x0",
            "input": "0x3ef2d377000000000000000000000000000000000000000000000000000000000000004000000000000000000000000000000000000000000000000000000000000001400000000000000000000000000000000000000000000000000000000000000007e7a050aa00000000000000000000000000000000000000000000000000000000cc15a557000000000000000000000000000000000000000000000000000000000dd8dd0200000000000000000000000000000000000000000000000000000000e4cc3f9000000000000000000000000000000000000000000000000000000000eea9064b00000000000000000000000000000000000000000000000000000000da8be864000000000000000000000000000000000000000000000000000000003ccc861d0000000000000000000000000000000000000000000000000000000000000000000000000000000000000000000000000000000000000000000000070000000000000000000000000000000000000000000000000000000000088b8000000000000000000000000000000000000000000000000000000000000493e0000000000000000000000000000000000000000000000000000000000008d9a00000000000000000000000000000000000000000000000000000000000099cf00000000000000000000000000000000000000000000000000000000000061a80000000000000000000000000000000000000000000000000000000000009eb1000000000000000000000000000000000000000000000000000000000000900b0",
            "nonce": "0x6e8",
            "chainId": "0x14a34"
          },
          "additionalContracts": [],
          "isFixedGasLimit": false
        },
        {
          "hash": "0x7fa3df37e61a67fa37c14e360d17cc8dbc5bc3462bfe3e99ccd4151aa0b37823",
          "transactionType": "CALL",
          "contractName": null,
          "contractAddress": "0x93c9040d6eb49c9da4ab7d322c2a3298b250c0ca",
          "function": "setSenderCCIP(address)",
          "arguments": [
            "0x08832066A18B3108A613970A24e816cB10bF76c3"
          ],
          "transaction": {
            "from": "0x8454d149beb26e3e3fc5ed1c87fb0b2a1b7b6c2c",
            "to": "0x93c9040d6eb49c9da4ab7d322c2a3298b250c0ca",
            "gas": "0xaea1",
            "value": "0x0",
            "input": "0xd8d6c31a00000000000000000000000008832066a18b3108a613970a24e816cb10bf76c3",
            "nonce": "0x6e9",
            "chainId": "0x14a34"
          },
          "additionalContracts": [],
          "isFixedGasLimit": false
        }
      ],
      "receipts": [
        {
          "status": "0x1",
          "cumulativeGasUsed": "0x5efcc4",
          "logs": [
            {
              "address": "0x08832066a18b3108a613970a24e816cb10bf76c3",
              "topics": [
                "0x7341e817a8458e8902ebedbcd9e82db8299e43de630c89ade217662e6cafe906",
                "0x000000000000000000000000000000000000000000000000de41ba4fc9d91ad9",
                "0x000000000000000000000000b34b4ac9c056b68153d3090437f99d451ade228a"
              ],
              "data": "0x0000000000000000000000000000000000000000000000000000000000000001",
              "blockHash": "0xd90deeba6b7e9085d240b53cc7233f1bacb3408cbdc252d10400453b274f6b67",
              "blockNumber": "0x1613f96",
              "transactionHash": "0x8e54c8e7cf71a3cbd15014e0bda2f708c8605005f0c99b0af891e2c0f112d971",
              "transactionIndex": "0x11",
              "logIndex": "0x58",
              "removed": false
            }
          ],
          "logsBloom": "0x00000000000000000000000000000000000000000000000000000000000000000000000000004000000000000000000000000000000000000000000000000008000000010000000000000000000000000000000000000000000000000000000000000000000000040000000000010000000000000000000000000000000000000000000000000000000000000000040000000020000000000000000000000000000000000000000000020000000000000000000000000000000000000000000000000000000000000000000000000000000000000000000000000000000000000000000000000000000020000000000000000000000001000000000000000018",
          "type": "0x2",
          "transactionHash": "0x8e54c8e7cf71a3cbd15014e0bda2f708c8605005f0c99b0af891e2c0f112d971",
          "transactionIndex": "0x11",
          "blockHash": "0xd90deeba6b7e9085d240b53cc7233f1bacb3408cbdc252d10400453b274f6b67",
          "blockNumber": "0x1613f96",
          "gasUsed": "0xd178",
          "effectiveGasPrice": "0xec3f3",
          "from": "0x8454d149beb26e3e3fc5ed1c87fb0b2a1b7b6c2c",
          "to": "0x08832066a18b3108a613970a24e816cb10bf76c3",
          "contractAddress": null,
          "l1BaseFeeScalar": "0x44d",
          "l1BlobBaseFee": "0x1",
          "l1BlobBaseFeeScalar": "0xa118b",
          "l1Fee": "0x39aaa452",
          "l1GasPrice": "0x20bc3ee8",
          "l1GasUsed": "0x640"
        },
        {
          "status": "0x1",
          "cumulativeGasUsed": "0x6f0cb9",
          "logs": [
            {
              "address": "0x08832066a18b3108a613970a24e816cb10bf76c3",
              "topics": [
                "0xa5f858f3914e62a82af355192513d8dbc618ff9815e7213a71930d8996a3cb82",
                "0x0000000000000000000000000000000000000000000000008f90b8876dee6538"
              ],
              "data": "0x0000000000000000000000000000000000000000000000000000000000000001",
              "blockHash": "0xd90deeba6b7e9085d240b53cc7233f1bacb3408cbdc252d10400453b274f6b67",
              "blockNumber": "0x1613f96",
              "transactionHash": "0x36ed005c62fc5d8535289dcb7ebf7321e367420006bde4f2fd1b5c6185f9ed88",
              "transactionIndex": "0x18",
              "logIndex": "0x75",
              "removed": false
            }
          ],
          "logsBloom": "0x00000000000000000000020000000000000000000000000000000000000000000000000000000000000000000000000000000000000000000000000000000000000000010000000000000000000000000000000400000000000000000000200000000000000000000000100000000000000000000000000000000000000000004000000000000000000000000000040000000000000000000000000000000000000000000000000000000000000000000000000000000000000000000000000000000000000000000000000000000000000000000000000000000000000000000000000000000001000000000000000000000000000000000000000000000008",
          "type": "0x2",
          "transactionHash": "0x36ed005c62fc5d8535289dcb7ebf7321e367420006bde4f2fd1b5c6185f9ed88",
          "transactionIndex": "0x18",
          "blockHash": "0xd90deeba6b7e9085d240b53cc7233f1bacb3408cbdc252d10400453b274f6b67",
          "blockNumber": "0x1613f96",
          "gasUsed": "0x7ff4",
          "effectiveGasPrice": "0xec3f3",
          "from": "0x8454d149beb26e3e3fc5ed1c87fb0b2a1b7b6c2c",
          "to": "0x08832066a18b3108a613970a24e816cb10bf76c3",
          "contractAddress": null,
          "l1BaseFeeScalar": "0x44d",
          "l1BlobBaseFee": "0x1",
          "l1BlobBaseFeeScalar": "0xa118b",
          "l1Fee": "0x39aaa452",
          "l1GasPrice": "0x20bc3ee8",
          "l1GasUsed": "0x640"
        },
        {
          "status": "0x1",
          "cumulativeGasUsed": "0x6f8cb6",
          "logs": [
            {
              "address": "0x08832066a18b3108a613970a24e816cb10bf76c3",
              "topics": [
                "0x79e93956b5c7b59cb1d0aaa5849af9993c5b994c44b148b1944f4e4ecf1e9b89",
                "0x000000000000000000000000000000000000000000000000de41ba4fc9d91ad9"
              ],
              "data": "0x0000000000000000000000000000000000000000000000000000000000000001",
              "blockHash": "0xd90deeba6b7e9085d240b53cc7233f1bacb3408cbdc252d10400453b274f6b67",
              "blockNumber": "0x1613f96",
              "transactionHash": "0xea6302d88ac688d6ebbcd30687a41fcb4b0d51988d855aea96523c9efcbee826",
              "transactionIndex": "0x19",
              "logIndex": "0x76",
              "removed": false
            }
          ],
          "logsBloom": "0x00000000000000000000000000000000000000040000000000000000000000000000000000004000000000000000000000000000000000000000000000000000000000010000000000200000000000000000000000000000000000000000000000000000000000000000000000010000000000000000000000000000000000000000000000000000000000000000040000000020000000000000000000000000000000000000000000000000000000000000000000000000000000100000000000000000000000000000000000000000000000000000000000000000000000000000000000000000000000000000000000000000000000000000000000000008",
          "type": "0x2",
          "transactionHash": "0xea6302d88ac688d6ebbcd30687a41fcb4b0d51988d855aea96523c9efcbee826",
          "transactionIndex": "0x19",
          "blockHash": "0xd90deeba6b7e9085d240b53cc7233f1bacb3408cbdc252d10400453b274f6b67",
          "blockNumber": "0x1613f96",
          "gasUsed": "0x7ffd",
          "effectiveGasPrice": "0xec3f3",
          "from": "0x8454d149beb26e3e3fc5ed1c87fb0b2a1b7b6c2c",
          "to": "0x08832066a18b3108a613970a24e816cb10bf76c3",
          "contractAddress": null,
          "l1BaseFeeScalar": "0x44d",
          "l1BlobBaseFee": "0x1",
          "l1BlobBaseFeeScalar": "0xa118b",
          "l1Fee": "0x39aaa452",
          "l1GasPrice": "0x20bc3ee8",
          "l1GasUsed": "0x640"
        },
        {
          "status": "0x1",
          "cumulativeGasUsed": "0x708273",
          "logs": [
            {
              "address": "0x93c9040d6eb49c9da4ab7d322c2a3298b250c0ca",
              "topics": [
                "0xed4c89b805f4efb58bc4a42b9a3c6f09783f619295a1fa41ab46d6190c8c7f3b",
                "0xe7a050aa00000000000000000000000000000000000000000000000000000000",
                "0x0000000000000000000000000000000000000000000000000000000000088b80"
              ],
              "data": "0x",
              "blockHash": "0xd90deeba6b7e9085d240b53cc7233f1bacb3408cbdc252d10400453b274f6b67",
              "blockNumber": "0x1613f96",
              "transactionHash": "0x72480007409ac2f9f7a11522abe58e7358c5554d5f11ca2d6cdb7f60dccd5e1b",
              "transactionIndex": "0x1a",
              "logIndex": "0x77",
              "removed": false
            },
            {
              "address": "0x93c9040d6eb49c9da4ab7d322c2a3298b250c0ca",
              "topics": [
                "0xed4c89b805f4efb58bc4a42b9a3c6f09783f619295a1fa41ab46d6190c8c7f3b",
                "0xcc15a55700000000000000000000000000000000000000000000000000000000",
                "0x00000000000000000000000000000000000000000000000000000000000493e0"
              ],
              "data": "0x",
              "blockHash": "0xd90deeba6b7e9085d240b53cc7233f1bacb3408cbdc252d10400453b274f6b67",
              "blockNumber": "0x1613f96",
              "transactionHash": "0x72480007409ac2f9f7a11522abe58e7358c5554d5f11ca2d6cdb7f60dccd5e1b",
              "transactionIndex": "0x1a",
              "logIndex": "0x78",
              "removed": false
            },
            {
              "address": "0x93c9040d6eb49c9da4ab7d322c2a3298b250c0ca",
              "topics": [
                "0xed4c89b805f4efb58bc4a42b9a3c6f09783f619295a1fa41ab46d6190c8c7f3b",
                "0x0dd8dd0200000000000000000000000000000000000000000000000000000000",
                "0x000000000000000000000000000000000000000000000000000000000008d9a0"
              ],
              "data": "0x",
              "blockHash": "0xd90deeba6b7e9085d240b53cc7233f1bacb3408cbdc252d10400453b274f6b67",
              "blockNumber": "0x1613f96",
              "transactionHash": "0x72480007409ac2f9f7a11522abe58e7358c5554d5f11ca2d6cdb7f60dccd5e1b",
              "transactionIndex": "0x1a",
              "logIndex": "0x79",
              "removed": false
            },
            {
              "address": "0x93c9040d6eb49c9da4ab7d322c2a3298b250c0ca",
              "topics": [
                "0xed4c89b805f4efb58bc4a42b9a3c6f09783f619295a1fa41ab46d6190c8c7f3b",
                "0xe4cc3f9000000000000000000000000000000000000000000000000000000000",
                "0x0000000000000000000000000000000000000000000000000000000000099cf0"
              ],
              "data": "0x",
              "blockHash": "0xd90deeba6b7e9085d240b53cc7233f1bacb3408cbdc252d10400453b274f6b67",
              "blockNumber": "0x1613f96",
              "transactionHash": "0x72480007409ac2f9f7a11522abe58e7358c5554d5f11ca2d6cdb7f60dccd5e1b",
              "transactionIndex": "0x1a",
              "logIndex": "0x7a",
              "removed": false
            },
            {
              "address": "0x93c9040d6eb49c9da4ab7d322c2a3298b250c0ca",
              "topics": [
                "0xed4c89b805f4efb58bc4a42b9a3c6f09783f619295a1fa41ab46d6190c8c7f3b",
                "0xeea9064b00000000000000000000000000000000000000000000000000000000",
                "0x0000000000000000000000000000000000000000000000000000000000061a80"
              ],
              "data": "0x",
              "blockHash": "0xd90deeba6b7e9085d240b53cc7233f1bacb3408cbdc252d10400453b274f6b67",
              "blockNumber": "0x1613f96",
              "transactionHash": "0x72480007409ac2f9f7a11522abe58e7358c5554d5f11ca2d6cdb7f60dccd5e1b",
              "transactionIndex": "0x1a",
              "logIndex": "0x7b",
              "removed": false
            },
            {
              "address": "0x93c9040d6eb49c9da4ab7d322c2a3298b250c0ca",
              "topics": [
                "0xed4c89b805f4efb58bc4a42b9a3c6f09783f619295a1fa41ab46d6190c8c7f3b",
                "0xda8be86400000000000000000000000000000000000000000000000000000000",
                "0x000000000000000000000000000000000000000000000000000000000009eb10"
              ],
              "data": "0x",
              "blockHash": "0xd90deeba6b7e9085d240b53cc7233f1bacb3408cbdc252d10400453b274f6b67",
              "blockNumber": "0x1613f96",
              "transactionHash": "0x72480007409ac2f9f7a11522abe58e7358c5554d5f11ca2d6cdb7f60dccd5e1b",
              "transactionIndex": "0x1a",
              "logIndex": "0x7c",
              "removed": false
            },
            {
              "address": "0x93c9040d6eb49c9da4ab7d322c2a3298b250c0ca",
              "topics": [
                "0xed4c89b805f4efb58bc4a42b9a3c6f09783f619295a1fa41ab46d6190c8c7f3b",
                "0x3ccc861d00000000000000000000000000000000000000000000000000000000",
                "0x00000000000000000000000000000000000000000000000000000000000900b0"
              ],
              "data": "0x",
              "blockHash": "0xd90deeba6b7e9085d240b53cc7233f1bacb3408cbdc252d10400453b274f6b67",
              "blockNumber": "0x1613f96",
              "transactionHash": "0x72480007409ac2f9f7a11522abe58e7358c5554d5f11ca2d6cdb7f60dccd5e1b",
              "transactionIndex": "0x1a",
              "logIndex": "0x7d",
              "removed": false
            }
          ],
          "logsBloom": "0x0000000000000000004000000000000000000000080000000000000000400000000000000000000000080000004000000800000020000000000000000800000000800000000000000000400000000004010800000000200008000000000000000000001000000000000000000000000083000000000204000020000000010104008010000080000000000140010400000010000000040000000000000000000000000040000000000000000000a000800000000000000000000000000000400400000000000000000008001000000000000000000000100000100000000000020000000000001000000000000000000000800000000000000000010000000000",
          "type": "0x2",
          "transactionHash": "0x72480007409ac2f9f7a11522abe58e7358c5554d5f11ca2d6cdb7f60dccd5e1b",
          "transactionIndex": "0x1a",
          "blockHash": "0xd90deeba6b7e9085d240b53cc7233f1bacb3408cbdc252d10400453b274f6b67",
          "blockNumber": "0x1613f96",
          "gasUsed": "0xf5bd",
          "effectiveGasPrice": "0xec3f3",
          "from": "0x8454d149beb26e3e3fc5ed1c87fb0b2a1b7b6c2c",
          "to": "0x93c9040d6eb49c9da4ab7d322c2a3298b250c0ca",
          "contractAddress": null,
          "l1BaseFeeScalar": "0x44d",
          "l1BlobBaseFee": "0x1",
          "l1BlobBaseFeeScalar": "0xa118b",
          "l1Fee": "0x64dc829c",
          "l1GasPrice": "0x20bc3ee8",
          "l1GasUsed": "0xaee"
        },
        {
          "status": "0x1",
          "cumulativeGasUsed": "0x7100e2",
          "logs": [
            {
              "address": "0x93c9040d6eb49c9da4ab7d322c2a3298b250c0ca",
              "topics": [
                "0xc200bc994a6761c6c93718eb06df928b16dca3e77b7ce283d09852e260c9b2da",
                "0x00000000000000000000000008832066a18b3108a613970a24e816cb10bf76c3"
              ],
              "data": "0x",
              "blockHash": "0xd90deeba6b7e9085d240b53cc7233f1bacb3408cbdc252d10400453b274f6b67",
              "blockNumber": "0x1613f96",
              "transactionHash": "0x7fa3df37e61a67fa37c14e360d17cc8dbc5bc3462bfe3e99ccd4151aa0b37823",
              "transactionIndex": "0x1b",
              "logIndex": "0x7e",
              "removed": false
            }
          ],
          "logsBloom": "0x00000000000000000100000000000000000000000000000000000000000000000000000000000000000000000000000000000000000000000000000000000000008000000000000000000000000000000000002000000000000000000000000000000000000000000000000000000000000000000000000000000000000001000000000000000000000000000000000000120000000000000000000000000000100000000000000000000000000000800000000000000000000000000000000000000000000000000000000000000000000020000000000000000000000000000000000000000000000000000000000000000000000000000000000000000000",
          "type": "0x2",
          "transactionHash": "0x7fa3df37e61a67fa37c14e360d17cc8dbc5bc3462bfe3e99ccd4151aa0b37823",
          "transactionIndex": "0x1b",
          "blockHash": "0xd90deeba6b7e9085d240b53cc7233f1bacb3408cbdc252d10400453b274f6b67",
          "blockNumber": "0x1613f96",
          "gasUsed": "0x7e6f",
          "effectiveGasPrice": "0xec3f3",
          "from": "0x8454d149beb26e3e3fc5ed1c87fb0b2a1b7b6c2c",
          "to": "0x93c9040d6eb49c9da4ab7d322c2a3298b250c0ca",
          "contractAddress": null,
          "l1BaseFeeScalar": "0x44d",
          "l1BlobBaseFee": "0x1",
          "l1BlobBaseFeeScalar": "0xa118b",
          "l1Fee": "0x39aaa452",
          "l1GasPrice": "0x20bc3ee8",
          "l1GasUsed": "0x640"
        }
      ],
      "libraries": [],
      "pending": [],
      "returns": {},
      "timestamp": 1742069256,
      "chain": 84532,
      "commit": "3a511f6"
    },
    {
      "transactions": [
        {
          "hash": "0x29669f86f8bee8c7be92b2f9f85535ace151f46e005dfe66ed84bd344b9f9fe6",
          "transactionType": "CALL",
          "contractName": null,
          "contractAddress": "0xb34b4ac9c056b68153d3090437f99d451ade228a",
          "function": "allowlistSender(uint64,address,bool)",
          "arguments": [
            "10344971235874465080",
            "0x08832066A18B3108A613970A24e816cB10bF76c3",
            "true"
          ],
          "transaction": {
            "from": "0x8454d149beb26e3e3fc5ed1c87fb0b2a1b7b6c2c",
            "to": "0xb34b4ac9c056b68153d3090437f99d451ade228a",
            "gas": "0xc0c9",
            "value": "0x0",
            "input": "0xf039a0090000000000000000000000000000000000000000000000008f90b8876dee653800000000000000000000000008832066a18b3108a613970a24e816cb10bf76c30000000000000000000000000000000000000000000000000000000000000001",
            "nonce": "0x952",
            "chainId": "0xaa36a7"
          },
          "additionalContracts": [],
          "isFixedGasLimit": false
        },
        {
          "hash": "0xf9198710601dbbd65c0b8ed6c1a55f49d0644bf6d9c8c1fa8ef71599dd853c56",
          "transactionType": "CALL",
          "contractName": null,
          "contractAddress": "0xb34b4ac9c056b68153d3090437f99d451ade228a",
          "function": "allowlistSourceChain(uint64,bool)",
          "arguments": [
            "10344971235874465080",
            "true"
          ],
          "transaction": {
            "from": "0x8454d149beb26e3e3fc5ed1c87fb0b2a1b7b6c2c",
            "to": "0xb34b4ac9c056b68153d3090437f99d451ade228a",
            "gas": "0xb0f9",
            "value": "0x0",
            "input": "0xdb04fa490000000000000000000000000000000000000000000000008f90b8876dee65380000000000000000000000000000000000000000000000000000000000000001",
            "nonce": "0x953",
            "chainId": "0xaa36a7"
          },
          "additionalContracts": [],
          "isFixedGasLimit": false
        },
        {
          "hash": "0x708f7b7aff72814e219cceecc28e804d2158f164510209bc6a9e1b25a974c331",
          "transactionType": "CALL",
          "contractName": null,
          "contractAddress": "0xb34b4ac9c056b68153d3090437f99d451ade228a",
          "function": "allowlistSourceChain(uint64,bool)",
          "arguments": [
            "16015286601757825753",
            "true"
          ],
          "transaction": {
            "from": "0x8454d149beb26e3e3fc5ed1c87fb0b2a1b7b6c2c",
            "to": "0xb34b4ac9c056b68153d3090437f99d451ade228a",
            "gas": "0x11c56",
            "value": "0x0",
            "input": "0xdb04fa49000000000000000000000000000000000000000000000000de41ba4fc9d91ad90000000000000000000000000000000000000000000000000000000000000001",
            "nonce": "0x954",
            "chainId": "0xaa36a7"
          },
          "additionalContracts": [],
          "isFixedGasLimit": false
        },
        {
          "hash": "0x046c2d7d0d9cad66df869a21a3157866e6bdb4168481f86c22492f655960ecb1",
          "transactionType": "CALL",
          "contractName": null,
          "contractAddress": "0xb34b4ac9c056b68153d3090437f99d451ade228a",
          "function": "allowlistDestinationChain(uint64,bool)",
          "arguments": [
            "10344971235874465080",
            "true"
          ],
          "transaction": {
            "from": "0x8454d149beb26e3e3fc5ed1c87fb0b2a1b7b6c2c",
            "to": "0xb34b4ac9c056b68153d3090437f99d451ade228a",
            "gas": "0xbb6f",
            "value": "0x0",
            "input": "0x96d3b83d0000000000000000000000000000000000000000000000008f90b8876dee65380000000000000000000000000000000000000000000000000000000000000001",
            "nonce": "0x955",
            "chainId": "0xaa36a7"
          },
          "additionalContracts": [],
          "isFixedGasLimit": false
        },
        {
          "hash": "0xa4efc94499fed5daebcbcb4f2f0f590792c98e4b70cf096daf4b5c948e865eaa",
          "transactionType": "CALL",
          "contractName": null,
          "contractAddress": "0xe36d5afbf010e89d4612f24c7ae48cb8cbaf38e5",
          "function": "setGasLimitsForFunctionSelectors(bytes4[],uint256[])",
          "arguments": [
            "[0xd8a85b48]",
            "[300000]"
          ],
          "transaction": {
            "from": "0x8454d149beb26e3e3fc5ed1c87fb0b2a1b7b6c2c",
            "to": "0xe36d5afbf010e89d4612f24c7ae48cb8cbaf38e5",
            "gas": "0x126e3",
            "value": "0x0",
            "input": "0x3ef2d377000000000000000000000000000000000000000000000000000000000000004000000000000000000000000000000000000000000000000000000000000000800000000000000000000000000000000000000000000000000000000000000001d8a85b4800000000000000000000000000000000000000000000000000000000000000000000000000000000000000000000000000000000000000000000000100000000000000000000000000000000000000000000000000000000000493e0",
            "nonce": "0x956",
            "chainId": "0xaa36a7"
          },
          "additionalContracts": [],
          "isFixedGasLimit": false
        }
      ],
      "receipts": [
        {
          "status": "0x1",
          "cumulativeGasUsed": "0xa4d78e",
          "logs": [
            {
              "address": "0xb34b4ac9c056b68153d3090437f99d451ade228a",
              "topics": [
                "0x7341e817a8458e8902ebedbcd9e82db8299e43de630c89ade217662e6cafe906",
                "0x0000000000000000000000000000000000000000000000008f90b8876dee6538",
                "0x00000000000000000000000008832066a18b3108a613970a24e816cb10bf76c3"
              ],
              "data": "0x0000000000000000000000000000000000000000000000000000000000000001",
              "blockHash": "0x2d2e3fdf63a56ea07887bccde82eb0f5d605edf14f5c260ef673feb4377cae4f",
              "blockNumber": "0x78b07c",
              "transactionHash": "0x29669f86f8bee8c7be92b2f9f85535ace151f46e005dfe66ed84bd344b9f9fe6",
              "transactionIndex": "0x70",
              "logIndex": "0xb2",
              "removed": false
            }
          ],
          "logsBloom": "0x00000000000000000000000000000000000000000000000000000000000000000000000000000000000000000000000000000000000000000000000000000000000000000000000000000002000000000000002400000000000000000000200000000000000000000000000000000000000000000000000000000000000001004000000000000000000000000000000000020000000000000000000000000000000000000000000000000200000000000000000000000000000000000000000000000000000000000000000000000000000000000000000000000000000000000000000000000000000020000000000000000000000001000010000000000010",
          "type": "0x2",
          "transactionHash": "0x29669f86f8bee8c7be92b2f9f85535ace151f46e005dfe66ed84bd344b9f9fe6",
          "transactionIndex": "0x70",
          "blockHash": "0x2d2e3fdf63a56ea07887bccde82eb0f5d605edf14f5c260ef673feb4377cae4f",
          "blockNumber": "0x78b07c",
          "gasUsed": "0x83d2",
          "effectiveGasPrice": "0x20f38e76",
          "blobGasUsed": "0x0",
          "from": "0x8454d149beb26e3e3fc5ed1c87fb0b2a1b7b6c2c",
          "to": "0xb34b4ac9c056b68153d3090437f99d451ade228a",
          "contractAddress": null
        },
        {
          "status": "0x1",
          "cumulativeGasUsed": "0xa557ae",
          "logs": [
            {
              "address": "0xb34b4ac9c056b68153d3090437f99d451ade228a",
              "topics": [
                "0xa5f858f3914e62a82af355192513d8dbc618ff9815e7213a71930d8996a3cb82",
                "0x0000000000000000000000000000000000000000000000008f90b8876dee6538"
              ],
              "data": "0x0000000000000000000000000000000000000000000000000000000000000001",
              "blockHash": "0x2d2e3fdf63a56ea07887bccde82eb0f5d605edf14f5c260ef673feb4377cae4f",
              "blockNumber": "0x78b07c",
              "transactionHash": "0xf9198710601dbbd65c0b8ed6c1a55f49d0644bf6d9c8c1fa8ef71599dd853c56",
              "transactionIndex": "0x71",
              "logIndex": "0xb3",
              "removed": false
            }
          ],
          "logsBloom": "0x00000000000000000000020000000000000000000000000000000000000000000000000000000000000000000000000000000000000000000000000000000000000000000000000000000002000000000000000400000000000000000000200000000000000000000000100000000000000000000000000000000000000000004000000000000000000000000000000000000000000000000000000000000000000000000000000000000200000000000000000000000000000000000000000000000000000000000000000000000000000000000000000000000000000000000000000000000001000000000000000000000000000000000010000000000000",
          "type": "0x2",
          "transactionHash": "0xf9198710601dbbd65c0b8ed6c1a55f49d0644bf6d9c8c1fa8ef71599dd853c56",
          "transactionIndex": "0x71",
          "blockHash": "0x2d2e3fdf63a56ea07887bccde82eb0f5d605edf14f5c260ef673feb4377cae4f",
          "blockNumber": "0x78b07c",
          "gasUsed": "0x8020",
          "effectiveGasPrice": "0x20f38e76",
          "blobGasUsed": "0x0",
          "from": "0x8454d149beb26e3e3fc5ed1c87fb0b2a1b7b6c2c",
          "to": "0xb34b4ac9c056b68153d3090437f99d451ade228a",
          "contractAddress": null
        },
        {
          "status": "0x1",
          "cumulativeGasUsed": "0xa6258a",
          "logs": [
            {
              "address": "0xb34b4ac9c056b68153d3090437f99d451ade228a",
              "topics": [
                "0xa5f858f3914e62a82af355192513d8dbc618ff9815e7213a71930d8996a3cb82",
                "0x000000000000000000000000000000000000000000000000de41ba4fc9d91ad9"
              ],
              "data": "0x0000000000000000000000000000000000000000000000000000000000000001",
              "blockHash": "0x2d2e3fdf63a56ea07887bccde82eb0f5d605edf14f5c260ef673feb4377cae4f",
              "blockNumber": "0x78b07c",
              "transactionHash": "0x708f7b7aff72814e219cceecc28e804d2158f164510209bc6a9e1b25a974c331",
              "transactionIndex": "0x72",
              "logIndex": "0xb4",
              "removed": false
            }
          ],
          "logsBloom": "0x00000000000000000000020000000000000000000000000000000000000000000000000000004000000000000000000000000000000000000000000000000000000000000000000000000002000000000000000000000000000000000000000000000000000000000000100000010000000000000000000000000000000000000000000000000000000000000000000000000020000000000000000000000000000000000000000000000200000000000000000000000000000000000000000000000000000000000000000000000000000000000000000000000000000000000000000000000001000000000000000000000000000000000010000000000000",
          "type": "0x2",
          "transactionHash": "0x708f7b7aff72814e219cceecc28e804d2158f164510209bc6a9e1b25a974c331",
          "transactionIndex": "0x72",
          "blockHash": "0x2d2e3fdf63a56ea07887bccde82eb0f5d605edf14f5c260ef673feb4377cae4f",
          "blockNumber": "0x78b07c",
          "gasUsed": "0xcddc",
          "effectiveGasPrice": "0x20f38e76",
          "blobGasUsed": "0x0",
          "from": "0x8454d149beb26e3e3fc5ed1c87fb0b2a1b7b6c2c",
          "to": "0xb34b4ac9c056b68153d3090437f99d451ade228a",
          "contractAddress": null
        },
        {
          "status": "0x1",
          "cumulativeGasUsed": "0xa6a5b3",
          "logs": [
            {
              "address": "0xb34b4ac9c056b68153d3090437f99d451ade228a",
              "topics": [
                "0x79e93956b5c7b59cb1d0aaa5849af9993c5b994c44b148b1944f4e4ecf1e9b89",
                "0x0000000000000000000000000000000000000000000000008f90b8876dee6538"
              ],
              "data": "0x0000000000000000000000000000000000000000000000000000000000000001",
              "blockHash": "0x2d2e3fdf63a56ea07887bccde82eb0f5d605edf14f5c260ef673feb4377cae4f",
              "blockNumber": "0x78b07c",
              "transactionHash": "0x046c2d7d0d9cad66df869a21a3157866e6bdb4168481f86c22492f655960ecb1",
              "transactionIndex": "0x73",
              "logIndex": "0xb5",
              "removed": false
            }
          ],
          "logsBloom": "0x00000000000000000000000000000000000000040000000000000000000000000000000000000000000000000000000000000000000000000000000000000000000000000000000000200002000000000000000400000000000000000000200000000000000000000000000000000000000000000000000000000000000000004000000000000000000000000000000000000000000000000000000000000000000000000000000000000200000000000000000000000000000000100000000000000000000000000000000000000000000000000000000000000000000000000000000000000000000000000000000000000000000000000010000000000000",
          "type": "0x2",
          "transactionHash": "0x046c2d7d0d9cad66df869a21a3157866e6bdb4168481f86c22492f655960ecb1",
          "transactionIndex": "0x73",
          "blockHash": "0x2d2e3fdf63a56ea07887bccde82eb0f5d605edf14f5c260ef673feb4377cae4f",
          "blockNumber": "0x78b07c",
          "gasUsed": "0x8029",
          "effectiveGasPrice": "0x20f38e76",
          "blobGasUsed": "0x0",
          "from": "0x8454d149beb26e3e3fc5ed1c87fb0b2a1b7b6c2c",
          "to": "0xb34b4ac9c056b68153d3090437f99d451ade228a",
          "contractAddress": null
        },
        {
          "status": "0x1",
          "cumulativeGasUsed": "0xa77b32",
          "logs": [
            {
              "address": "0xe36d5afbf010e89d4612f24c7ae48cb8cbaf38e5",
              "topics": [
                "0xed4c89b805f4efb58bc4a42b9a3c6f09783f619295a1fa41ab46d6190c8c7f3b",
                "0xd8a85b4800000000000000000000000000000000000000000000000000000000",
                "0x00000000000000000000000000000000000000000000000000000000000493e0"
              ],
              "data": "0x",
              "blockHash": "0x2d2e3fdf63a56ea07887bccde82eb0f5d605edf14f5c260ef673feb4377cae4f",
              "blockNumber": "0x78b07c",
              "transactionHash": "0xa4efc94499fed5daebcbcb4f2f0f590792c98e4b70cf096daf4b5c948e865eaa",
              "transactionIndex": "0x74",
              "logIndex": "0xb6",
              "removed": false
            }
          ],
          "logsBloom": "0x00000000000000000040000000000000000000000800000000000000000000000000000000000000000000010000000000000000000000000000000000000000000000000000000000000000000000000000000000002000000000040000000000000000000000000000000000000000800000000000040000200000000000000000000000000000000000001000000000000000000000000000000000000000000000000000000000010000000000000000000000000000000000000000000000000000000000000000000000000000000000000040000000000000000000000000000000000000000000000000000000000000000000000000000000000000",
          "type": "0x2",
          "transactionHash": "0xa4efc94499fed5daebcbcb4f2f0f590792c98e4b70cf096daf4b5c948e865eaa",
          "transactionIndex": "0x74",
          "blockHash": "0x2d2e3fdf63a56ea07887bccde82eb0f5d605edf14f5c260ef673feb4377cae4f",
          "blockNumber": "0x78b07c",
          "gasUsed": "0xd57f",
          "effectiveGasPrice": "0x20f38e76",
          "blobGasUsed": "0x0",
          "from": "0x8454d149beb26e3e3fc5ed1c87fb0b2a1b7b6c2c",
          "to": "0xe36d5afbf010e89d4612f24c7ae48cb8cbaf38e5",
          "contractAddress": null
        }
      ],
      "libraries": [],
      "pending": [],
      "returns": {},
      "timestamp": 1742069257,
      "chain": 11155111,
      "commit": "3a511f6"
    }
  ],
  "timestamp": 1742069270
}