{
  "deployments": [
    {
      "transactions": [
        {
          "hash": "0x592c2cea848ba00b3e900cbc5ca718c532c31cf05e0a78474fa9a9b672d05b59",
          "transactionType": "CALL",
          "contractName": null,
          "contractAddress": "0x82b539f277db9e93bd80e37f9f8af1c0424f89a7",
          "function": "allowlistSourceChain(uint64,bool)",
          "arguments": [
            "3478487238524512106",
            "true"
          ],
          "transaction": {
            "from": "0x8454d149beb26e3e3fc5ed1c87fb0b2a1b7b6c2c",
            "to": "0x82b539f277db9e93bd80e37f9f8af1c0424f89a7",
            "gas": "0xed15",
            "value": "0x0",
            "input": "0xdb04fa49000000000000000000000000000000000000000000000000304611b6affba76a0000000000000000000000000000000000000000000000000000000000000001",
            "nonce": "0x220",
            "chainId": "0x66eee"
          },
          "additionalContracts": [],
          "isFixedGasLimit": false
        },
        {
          "hash": "0x0f2b4653109f05359d1956166f9a456ab4fc66b01a3176e27fed6c6c2efbafa0",
          "transactionType": "CALL",
          "contractName": null,
          "contractAddress": "0x82b539f277db9e93bd80e37f9f8af1c0424f89a7",
          "function": "allowlistSender(address,bool)",
          "arguments": [
            "0xdEC0bFF39291802a8D04D915995D7764D2111890",
            "true"
          ],
          "transaction": {
            "from": "0x8454d149beb26e3e3fc5ed1c87fb0b2a1b7b6c2c",
            "to": "0x82b539f277db9e93bd80e37f9f8af1c0424f89a7",
            "gas": "0xedaa",
            "value": "0x0",
            "input": "0xeab5b02c000000000000000000000000dec0bff39291802a8d04d915995d7764d21118900000000000000000000000000000000000000000000000000000000000000001",
            "nonce": "0x221",
            "chainId": "0x66eee"
          },
          "additionalContracts": [],
          "isFixedGasLimit": false
        }
      ],
      "receipts": [
        {
          "status": "0x1",
          "cumulativeGasUsed": "0xb4e0",
          "logs": [],
          "logsBloom": "0x00000000000000000000000000000000000000000000000000000000000000000000000000000000000000000000000000000000000000000000000000000000000000000000000000000000000000000000000000000000000000000000000000000000000000000000000000000000000000000000000000000000000000000000000000000000000000000000000000000000000000000000000000000000000000000000000000000000000000000000000000000000000000000000000000000000000000000000000000000000000000000000000000000000000000000000000000000000000000000000000000000000000000000000000000000000",
          "type": "0x2",
          "transactionHash": "0x592c2cea848ba00b3e900cbc5ca718c532c31cf05e0a78474fa9a9b672d05b59",
          "transactionIndex": "0x1",
          "blockHash": "0xe7cb2f603e726ef6e01008a9c246e39f2d0630e798c421e37df2bf9639f95c98",
          "blockNumber": "0x4446732",
          "gasUsed": "0xb4e0",
          "effectiveGasPrice": "0x5f5e100",
          "from": "0x8454d149beb26e3e3fc5ed1c87fb0b2a1b7b6c2c",
          "to": "0x82b539f277db9e93bd80e37f9f8af1c0424f89a7",
          "contractAddress": null,
          "gasUsedForL1": "0x0",
          "l1BlockNumber": "0x63658b"
        },
        {
          "status": "0x1",
          "cumulativeGasUsed": "0xb553",
          "logs": [],
          "logsBloom": "0x00000000000000000000000000000000000000000000000000000000000000000000000000000000000000000000000000000000000000000000000000000000000000000000000000000000000000000000000000000000000000000000000000000000000000000000000000000000000000000000000000000000000000000000000000000000000000000000000000000000000000000000000000000000000000000000000000000000000000000000000000000000000000000000000000000000000000000000000000000000000000000000000000000000000000000000000000000000000000000000000000000000000000000000000000000000",
          "type": "0x2",
          "transactionHash": "0x0f2b4653109f05359d1956166f9a456ab4fc66b01a3176e27fed6c6c2efbafa0",
          "transactionIndex": "0x1",
          "blockHash": "0x3b15e902bc09ef6f618de05d834233b202a44fcb3ed7d0146bb0dc34e48fa23b",
          "blockNumber": "0x4446734",
          "gasUsed": "0xb553",
          "effectiveGasPrice": "0x5f5e100",
          "from": "0x8454d149beb26e3e3fc5ed1c87fb0b2a1b7b6c2c",
          "to": "0x82b539f277db9e93bd80e37f9f8af1c0424f89a7",
          "contractAddress": null,
          "gasUsedForL1": "0x0",
          "l1BlockNumber": "0x63658b"
        }
      ],
      "libraries": [],
      "pending": [],
      "returns": {
        "1": {
          "internal_type": "contract IRestakingConnector",
          "value": "0x0000000000000000000000000000000000000000"
        },
        "0": {
          "internal_type": "contract IReceiverCCIP",
          "value": "0x0000000000000000000000000000000000000000"
        }
      },
      "timestamp": 1723849782,
      "chain": 421614,
      "commit": "226d88e"
    },
    {
      "transactions": [
        {
          "hash": "0xfae6ad55c519fba1fe6ab8b8d65a838ade9989c8c566bc211f8c99f744320e90",
          "transactionType": "CALL",
          "contractName": null,
          "contractAddress": "0xdec0bff39291802a8d04d915995d7764d2111890",
          "function": "allowlistSender(address,bool)",
          "arguments": [
            "0x8454d149Beb26E3E3FC5eD1C87Fb0B2a1b7B6c2c",
            "true"
          ],
          "transaction": {
            "from": "0x8454d149beb26e3e3fc5ed1c87fb0b2a1b7b6c2c",
            "to": "0xdec0bff39291802a8d04d915995d7764d2111890",
            "gas": "0x1092f",
            "value": "0x0",
            "input": "0xeab5b02c0000000000000000000000008454d149beb26e3e3fc5ed1c87fb0b2a1b7b6c2c0000000000000000000000000000000000000000000000000000000000000001",
            "nonce": "0x151",
            "chainId": "0xaa36a7"
          },
          "additionalContracts": [],
          "isFixedGasLimit": false
        },
        {
          "hash": "0x3cf89f69411051b365ed38dad2bdd2865dfbf3988ca052bd4c05c79e04176a42",
          "transactionType": "CALL",
          "contractName": null,
          "contractAddress": "0xfd57b4ddbf88a4e07ff4e34c487b99af2fe82a05",
          "function": "drip(address)",
          "arguments": [
            "0xdEC0bFF39291802a8D04D915995D7764D2111890"
          ],
          "transaction": {
            "from": "0x8454d149beb26e3e3fc5ed1c87fb0b2a1b7b6c2c",
            "to": "0xfd57b4ddbf88a4e07ff4e34c487b99af2fe82a05",
            "gas": "0x1230a",
            "value": "0x0",
            "input": "0x67a5cd06000000000000000000000000dec0bff39291802a8d04d915995d7764d2111890",
            "nonce": "0x152",
            "chainId": "0xaa36a7"
          },
          "additionalContracts": [],
          "isFixedGasLimit": false
        },
        {
          "hash": "0xda9ef33cf42efe67bab8b9f25b2caa2e1127173d2ea0c9134785a0b96407c46e",
          "transactionType": "CALL",
          "contractName": null,
          "contractAddress": "0xfd57b4ddbf88a4e07ff4e34c487b99af2fe82a05",
          "function": "drip(address)",
          "arguments": [
            "0xdEC0bFF39291802a8D04D915995D7764D2111890"
          ],
          "transaction": {
            "from": "0x8454d149beb26e3e3fc5ed1c87fb0b2a1b7b6c2c",
            "to": "0xfd57b4ddbf88a4e07ff4e34c487b99af2fe82a05",
            "gas": "0xb69c",
            "value": "0x0",
            "input": "0x67a5cd06000000000000000000000000dec0bff39291802a8d04d915995d7764d2111890",
            "nonce": "0x153",
            "chainId": "0xaa36a7"
          },
          "additionalContracts": [],
          "isFixedGasLimit": false
        },
        {
          "hash": "0xa75e4d9da9c0626f90bda07fee057790561b41eed335abbe40450229f01b8178",
          "transactionType": "CALL",
          "contractName": null,
          "contractAddress": "0xfd57b4ddbf88a4e07ff4e34c487b99af2fe82a05",
          "function": "drip(address)",
          "arguments": [
            "0xdEC0bFF39291802a8D04D915995D7764D2111890"
          ],
          "transaction": {
            "from": "0x8454d149beb26e3e3fc5ed1c87fb0b2a1b7b6c2c",
            "to": "0xfd57b4ddbf88a4e07ff4e34c487b99af2fe82a05",
            "gas": "0xb69c",
            "value": "0x0",
            "input": "0x67a5cd06000000000000000000000000dec0bff39291802a8d04d915995d7764d2111890",
            "nonce": "0x154",
            "chainId": "0xaa36a7"
          },
          "additionalContracts": [],
          "isFixedGasLimit": false
        }
      ],
      "receipts": [
        {
          "status": "0x1",
          "cumulativeGasUsed": "0x89d02f",
          "logs": [],
          "logsBloom": "0x00000000000000000000000000000000000000000000000000000000000000000000000000000000000000000000000000000000000000000000000000000000000000000000000000000000000000000000000000000000000000000000000000000000000000000000000000000000000000000000000000000000000000000000000000000000000000000000000000000000000000000000000000000000000000000000000000000000000000000000000000000000000000000000000000000000000000000000000000000000000000000000000000000000000000000000000000000000000000000000000000000000000000000000000000000000",
          "type": "0x2",
          "transactionHash": "0xfae6ad55c519fba1fe6ab8b8d65a838ade9989c8c566bc211f8c99f744320e90",
          "transactionIndex": "0x38",
          "blockHash": "0x8a740b5308ba013b9909469c3a51d27da024e6740d42764ed93aa04ab37879d2",
          "blockNumber": "0x63658c",
          "gasUsed": "0xb553",
          "effectiveGasPrice": "0xb27acb",
          "from": "0x8454d149beb26e3e3fc5ed1c87fb0b2a1b7b6c2c",
          "to": "0xdec0bff39291802a8d04d915995d7764d2111890",
          "contractAddress": null
        },
        {
          "status": "0x1",
          "cumulativeGasUsed": "0x8a9730",
          "logs": [
            {
              "address": "0xfd57b4ddbf88a4e07ff4e34c487b99af2fe82a05",
              "topics": [
                "0xddf252ad1be2c89b69c2b068fc378daa952ba7f163c4a11628f55a4df523b3ef",
                "0x0000000000000000000000000000000000000000000000000000000000000000",
                "0x000000000000000000000000dec0bff39291802a8d04d915995d7764d2111890"
              ],
              "data": "0x0000000000000000000000000000000000000000000000000de0b6b3a7640000",
              "blockHash": "0x8a740b5308ba013b9909469c3a51d27da024e6740d42764ed93aa04ab37879d2",
              "blockNumber": "0x63658c",
              "transactionHash": "0x3cf89f69411051b365ed38dad2bdd2865dfbf3988ca052bd4c05c79e04176a42",
              "transactionIndex": "0x39",
              "logIndex": "0x4c",
              "removed": false
            }
          ],
          "logsBloom": "0x00000002000000000000000000000000000000000000000000000000002000000000000000000000000000000000000000000000000000000080000000000000000000000000000000000008000000000000000000000000000000000000000000000000020000000000000000000800000000000000000000000010000000000000000000000000000000000000000000000000000000000000000000000000000000000000000040000000000000080000000000000000000000000000000000000002000000000000000000000000000000000000000000000000000020000000000000000000000000000000000002000000000000000000000000000000",
          "type": "0x2",
          "transactionHash": "0x3cf89f69411051b365ed38dad2bdd2865dfbf3988ca052bd4c05c79e04176a42",
          "transactionIndex": "0x39",
          "blockHash": "0x8a740b5308ba013b9909469c3a51d27da024e6740d42764ed93aa04ab37879d2",
          "blockNumber": "0x63658c",
          "gasUsed": "0xc701",
          "effectiveGasPrice": "0xb27acb",
          "from": "0x8454d149beb26e3e3fc5ed1c87fb0b2a1b7b6c2c",
          "to": "0xfd57b4ddbf88a4e07ff4e34c487b99af2fe82a05",
          "contractAddress": null
        },
        {
          "status": "0x1",
          "cumulativeGasUsed": "0x8b1b65",
          "logs": [
            {
              "address": "0xfd57b4ddbf88a4e07ff4e34c487b99af2fe82a05",
              "topics": [
                "0xddf252ad1be2c89b69c2b068fc378daa952ba7f163c4a11628f55a4df523b3ef",
                "0x0000000000000000000000000000000000000000000000000000000000000000",
                "0x000000000000000000000000dec0bff39291802a8d04d915995d7764d2111890"
              ],
              "data": "0x0000000000000000000000000000000000000000000000000de0b6b3a7640000",
              "blockHash": "0x8a740b5308ba013b9909469c3a51d27da024e6740d42764ed93aa04ab37879d2",
              "blockNumber": "0x63658c",
              "transactionHash": "0xda9ef33cf42efe67bab8b9f25b2caa2e1127173d2ea0c9134785a0b96407c46e",
              "transactionIndex": "0x3a",
              "logIndex": "0x4d",
              "removed": false
            }
          ],
          "logsBloom": "0x00000002000000000000000000000000000000000000000000000000002000000000000000000000000000000000000000000000000000000080000000000000000000000000000000000008000000000000000000000000000000000000000000000000020000000000000000000800000000000000000000000010000000000000000000000000000000000000000000000000000000000000000000000000000000000000000040000000000000080000000000000000000000000000000000000002000000000000000000000000000000000000000000000000000020000000000000000000000000000000000002000000000000000000000000000000",
          "type": "0x2",
          "transactionHash": "0xda9ef33cf42efe67bab8b9f25b2caa2e1127173d2ea0c9134785a0b96407c46e",
          "transactionIndex": "0x3a",
          "blockHash": "0x8a740b5308ba013b9909469c3a51d27da024e6740d42764ed93aa04ab37879d2",
          "blockNumber": "0x63658c",
          "gasUsed": "0x8435",
          "effectiveGasPrice": "0xb27acb",
          "from": "0x8454d149beb26e3e3fc5ed1c87fb0b2a1b7b6c2c",
          "to": "0xfd57b4ddbf88a4e07ff4e34c487b99af2fe82a05",
          "contractAddress": null
        },
        {
          "status": "0x1",
          "cumulativeGasUsed": "0x8b9f9a",
          "logs": [
            {
              "address": "0xfd57b4ddbf88a4e07ff4e34c487b99af2fe82a05",
              "topics": [
                "0xddf252ad1be2c89b69c2b068fc378daa952ba7f163c4a11628f55a4df523b3ef",
                "0x0000000000000000000000000000000000000000000000000000000000000000",
                "0x000000000000000000000000dec0bff39291802a8d04d915995d7764d2111890"
              ],
              "data": "0x0000000000000000000000000000000000000000000000000de0b6b3a7640000",
              "blockHash": "0x8a740b5308ba013b9909469c3a51d27da024e6740d42764ed93aa04ab37879d2",
              "blockNumber": "0x63658c",
              "transactionHash": "0xa75e4d9da9c0626f90bda07fee057790561b41eed335abbe40450229f01b8178",
              "transactionIndex": "0x3b",
              "logIndex": "0x4e",
              "removed": false
            }
          ],
          "logsBloom": "0x00000002000000000000000000000000000000000000000000000000002000000000000000000000000000000000000000000000000000000080000000000000000000000000000000000008000000000000000000000000000000000000000000000000020000000000000000000800000000000000000000000010000000000000000000000000000000000000000000000000000000000000000000000000000000000000000040000000000000080000000000000000000000000000000000000002000000000000000000000000000000000000000000000000000020000000000000000000000000000000000002000000000000000000000000000000",
          "type": "0x2",
          "transactionHash": "0xa75e4d9da9c0626f90bda07fee057790561b41eed335abbe40450229f01b8178",
          "transactionIndex": "0x3b",
          "blockHash": "0x8a740b5308ba013b9909469c3a51d27da024e6740d42764ed93aa04ab37879d2",
          "blockNumber": "0x63658c",
          "gasUsed": "0x8435",
          "effectiveGasPrice": "0xb27acb",
          "from": "0x8454d149beb26e3e3fc5ed1c87fb0b2a1b7b6c2c",
          "to": "0xfd57b4ddbf88a4e07ff4e34c487b99af2fe82a05",
          "contractAddress": null
        }
      ],
      "libraries": [],
      "pending": [],
      "returns": {
        "1": {
          "internal_type": "contract IRestakingConnector",
          "value": "0x0000000000000000000000000000000000000000"
        },
        "0": {
          "internal_type": "contract IReceiverCCIP",
          "value": "0x0000000000000000000000000000000000000000"
        }
      },
      "timestamp": 1723849782,
      "chain": 11155111,
      "commit": "226d88e"
    }
  ],
  "timestamp": 1723849792
}