{
  "deployments": [
    {
      "transactions": [
        {
          "hash": "0xb845f0794f683ab562bc05f8129cc743ea8a60af20752458f91f0611a02bd3b6",
          "transactionType": "CALL",
          "contractName": "TransparentUpgradeableProxy",
          "contractAddress": "0x1d52bc3415aae68806e3fd44d4cdb0b63e68068a",
          "function": null,
          "arguments": null,
          "transaction": {
            "from": "0x8454d149beb26e3e3fc5ed1c87fb0b2a1b7b6c2c",
            "to": "0x1d52bc3415aae68806e3fd44d4cdb0b63e68068a",
            "gas": "0xc131",
            "value": "0x0",
            "input": "0xeab5b02c0000000000000000000000008645c75d0c75b859146aebb74076b319c9331c4e0000000000000000000000000000000000000000000000000000000000000001",
            "nonce": "0x2a4",
            "chainId": "0x14a34"
          },
          "additionalContracts": [],
          "isFixedGasLimit": false
        },
        {
          "hash": "0x8f48a2a2d6e0d22c599470c900a43c315a1709250d64205854fa8adb05883cba",
          "transactionType": "CALL",
          "contractName": "TransparentUpgradeableProxy",
          "contractAddress": "0x1d52bc3415aae68806e3fd44d4cdb0b63e68068a",
          "function": null,
          "arguments": null,
          "transaction": {
            "from": "0x8454d149beb26e3e3fc5ed1c87fb0b2a1b7b6c2c",
            "to": "0x1d52bc3415aae68806e3fd44d4cdb0b63e68068a",
            "gas": "0xc047",
            "value": "0x0",
            "input": "0xdb04fa490000000000000000000000000000000000000000000000008f90b8876dee65380000000000000000000000000000000000000000000000000000000000000001",
            "nonce": "0x2a5",
            "chainId": "0x14a34"
          },
          "additionalContracts": [],
          "isFixedGasLimit": false
        },
        {
          "hash": "0x28432376b326eae77591f000b29e46d3a8bc1b9248840a4e0d1cc280f958c901",
          "transactionType": "CALL",
          "contractName": "TransparentUpgradeableProxy",
          "contractAddress": "0x1d52bc3415aae68806e3fd44d4cdb0b63e68068a",
          "function": null,
          "arguments": null,
          "transaction": {
            "from": "0x8454d149beb26e3e3fc5ed1c87fb0b2a1b7b6c2c",
            "to": "0x1d52bc3415aae68806e3fd44d4cdb0b63e68068a",
            "gas": "0xb5f4",
            "value": "0x0",
            "input": "0x96d3b83d000000000000000000000000000000000000000000000000de41ba4fc9d91ad90000000000000000000000000000000000000000000000000000000000000001",
            "nonce": "0x2a6",
            "chainId": "0x14a34"
          },
          "additionalContracts": [],
          "isFixedGasLimit": false
        },
        {
          "hash": "0x7c29dff7b44c901c9d35119365c5c012131e0ad5896e831a9ad410e65aebde23",
          "transactionType": "CALL",
          "contractName": "TransparentUpgradeableProxy",
          "contractAddress": "0x205e359bdef6e0ff3e1d820668bbf7ce68d14d08",
          "function": null,
          "arguments": null,
          "transaction": {
            "from": "0x8454d149beb26e3e3fc5ed1c87fb0b2a1b7b6c2c",
            "to": "0x205e359bdef6e0ff3e1d820668bbf7ce68d14d08",
            "gas": "0x1eb22",
            "value": "0x0",
            "input": "0x3ef2d377000000000000000000000000000000000000000000000000000000000000004000000000000000000000000000000000000000000000000000000000000001200000000000000000000000000000000000000000000000000000000000000006e7a050aa00000000000000000000000000000000000000000000000000000000cc15a557000000000000000000000000000000000000000000000000000000000dd8dd020000000000000000000000000000000000000000000000000000000060d7faed00000000000000000000000000000000000000000000000000000000eea9064b00000000000000000000000000000000000000000000000000000000da8be8640000000000000000000000000000000000000000000000000000000000000000000000000000000000000000000000000000000000000000000000060000000000000000000000000000000000000000000000000000000000200b2000000000000000000000000000000000000000000000000000000000000aae60000000000000000000000000000000000000000000000000000000000008d9a000000000000000000000000000000000000000000000000000000000000cd14000000000000000000000000000000000000000000000000000000000000927c00000000000000000000000000000000000000000000000000000000000061a80",
            "nonce": "0x2a7",
            "chainId": "0x14a34"
          },
          "additionalContracts": [],
          "isFixedGasLimit": false
        },
        {
          "hash": "0x02b4d744d121dba995f702a2cc816dcbed8ffd019985fd57e374a59f07e5b0d9",
          "transactionType": "CALL",
          "contractName": "TransparentUpgradeableProxy",
          "contractAddress": "0x205e359bdef6e0ff3e1d820668bbf7ce68d14d08",
          "function": null,
          "arguments": null,
          "transaction": {
            "from": "0x8454d149beb26e3e3fc5ed1c87fb0b2a1b7b6c2c",
            "to": "0x205e359bdef6e0ff3e1d820668bbf7ce68d14d08",
            "gas": "0xb4be",
            "value": "0x0",
            "input": "0xd8d6c31a0000000000000000000000001d52bc3415aae68806e3fd44d4cdb0b63e68068a",
            "nonce": "0x2a8",
            "chainId": "0x14a34"
          },
          "additionalContracts": [],
          "isFixedGasLimit": false
        },
        {
          "hash": "0x4068d52b023aa94291cca3127dd894b2a0c7d5d13125e39e1e7472294afbe394",
          "transactionType": "CALL",
          "contractName": null,
          "contractAddress": "0x88a2d74f47a237a62e7a51cdda67270ce381555e",
          "function": "drip(address)",
          "arguments": [
            "0x8454d149Beb26E3E3FC5eD1C87Fb0B2a1b7B6c2c"
          ],
          "transaction": {
            "from": "0x8454d149beb26e3e3fc5ed1c87fb0b2a1b7b6c2c",
            "to": "0x88a2d74f47a237a62e7a51cdda67270ce381555e",
            "gas": "0xb69c",
            "value": "0x0",
            "input": "0x67a5cd060000000000000000000000008454d149beb26e3e3fc5ed1c87fb0b2a1b7b6c2c",
            "nonce": "0x2a9",
            "chainId": "0x14a34"
          },
          "additionalContracts": [],
          "isFixedGasLimit": false
        },
        {
          "hash": "0x89628c3176a322bc0881bd7b1609c1fe32cffaabdf31627ebb7fba2f966fa0c8",
          "transactionType": "CALL",
          "contractName": "TransparentUpgradeableProxy",
          "contractAddress": "0x1d52bc3415aae68806e3fd44d4cdb0b63e68068a",
          "function": null,
          "arguments": null,
          "transaction": {
            "from": "0x8454d149beb26e3e3fc5ed1c87fb0b2a1b7b6c2c",
            "to": "0x1d52bc3415aae68806e3fd44d4cdb0b63e68068a",
            "gas": "0xa5c5",
            "value": "0x0",
            "input": "0x541044db",
            "nonce": "0x2aa",
            "chainId": "0x14a34"
          },
          "additionalContracts": [],
          "isFixedGasLimit": false
        },
        {
          "hash": "0x4d09f5d33c6276247d475b82cf1978f96006e22f039e95de3d120483f057e2e4",
          "transactionType": "CALL",
          "contractName": "TransparentUpgradeableProxy",
          "contractAddress": "0x1d52bc3415aae68806e3fd44d4cdb0b63e68068a",
          "function": null,
          "arguments": null,
          "transaction": {
            "from": "0x8454d149beb26e3e3fc5ed1c87fb0b2a1b7b6c2c",
            "to": "0x1d52bc3415aae68806e3fd44d4cdb0b63e68068a",
            "gas": "0xa8ef",
            "value": "0x0",
            "input": "0x6159ada10000000000000000000000008645c75d0c75b859146aebb74076b319c9331c4e",
            "nonce": "0x2ab",
            "chainId": "0x14a34"
          },
          "additionalContracts": [],
          "isFixedGasLimit": false
        },
        {
          "hash": "0x5492d02d86a6020f1bd892c06536089fb48dd10e0f9661e8a98362dada6bd37d",
          "transactionType": "CALL",
          "contractName": "TransparentUpgradeableProxy",
          "contractAddress": "0x1d52bc3415aae68806e3fd44d4cdb0b63e68068a",
          "function": null,
          "arguments": null,
          "transaction": {
            "from": "0x8454d149beb26e3e3fc5ed1c87fb0b2a1b7b6c2c",
            "to": "0x1d52bc3415aae68806e3fd44d4cdb0b63e68068a",
            "gas": "0xa850",
            "value": "0x0",
            "input": "0x4030d521000000000000000000000000000000000000000000000000de41ba4fc9d91ad9",
            "nonce": "0x2ac",
            "chainId": "0x14a34"
          },
          "additionalContracts": [],
          "isFixedGasLimit": false
        },
        {
          "hash": "0x0f39e75dfeb2e46bfc58b51700b6c2a3969395a08186530c0770b0396bc2f6bd",
          "transactionType": "CALL",
          "contractName": "TransparentUpgradeableProxy",
          "contractAddress": "0x1d52bc3415aae68806e3fd44d4cdb0b63e68068a",
          "function": null,
          "arguments": null,
          "transaction": {
            "from": "0x8454d149beb26e3e3fc5ed1c87fb0b2a1b7b6c2c",
            "to": "0x1d52bc3415aae68806e3fd44d4cdb0b63e68068a",
            "gas": "0xb1d6",
            "value": "0x0",
            "input": "0x75c67c66000000000000000000000000000000000000000000000000de41ba4fc9d91ad9",
            "nonce": "0x2ad",
            "chainId": "0x14a34"
          },
          "additionalContracts": [],
          "isFixedGasLimit": false
        }
      ],
      "receipts": [
        {
          "status": "0x1",
          "cumulativeGasUsed": "0x1234a3",
          "logs": [],
          "logsBloom": "0x00000000000000000000000000000000000000000000000000000000000000000000000000000000000000000000000000000000000000000000000000000000000000000000000000000000000000000000000000000000000000000000000000000000000000000000000000000000000000000000000000000000000000000000000000000000000000000000000000000000000000000000000000000000000000000000000000000000000000000000000000000000000000000000000000000000000000000000000000000000000000000000000000000000000000000000000000000000000000000000000000000000000000000000000000000000",
          "type": "0x2",
          "transactionHash": "0xb845f0794f683ab562bc05f8129cc743ea8a60af20752458f91f0611a02bd3b6",
          "transactionIndex": "0x7",
          "blockHash": "0x5d02aecc3cbabbed41fbd36a0bc7325b538ca7420fc8700e81bda420a4e4e3f1",
          "blockNumber": "0xe26dfb",
          "gasUsed": "0x8419",
          "effectiveGasPrice": "0xf434f",
          "from": "0x8454d149beb26e3e3fc5ed1c87fb0b2a1b7b6c2c",
          "to": "0x1d52bc3415aae68806e3fd44d4cdb0b63e68068a",
          "contractAddress": null,
          "l1BaseFeeScalar": "0x44d",
          "l1BlobBaseFee": "0x1ef38b0960a",
          "l1BlobBaseFeeScalar": "0xa118b",
          "l1Fee": "0x7fb264c321f2",
          "l1GasPrice": "0x778044db0",
          "l1GasUsed": "0x640"
        },
        {
          "status": "0x1",
          "cumulativeGasUsed": "0x12b81c",
          "logs": [],
          "logsBloom": "0x00000000000000000000000000000000000000000000000000000000000000000000000000000000000000000000000000000000000000000000000000000000000000000000000000000000000000000000000000000000000000000000000000000000000000000000000000000000000000000000000000000000000000000000000000000000000000000000000000000000000000000000000000000000000000000000000000000000000000000000000000000000000000000000000000000000000000000000000000000000000000000000000000000000000000000000000000000000000000000000000000000000000000000000000000000000",
          "type": "0x2",
          "transactionHash": "0x8f48a2a2d6e0d22c599470c900a43c315a1709250d64205854fa8adb05883cba",
          "transactionIndex": "0x8",
          "blockHash": "0x5d02aecc3cbabbed41fbd36a0bc7325b538ca7420fc8700e81bda420a4e4e3f1",
          "blockNumber": "0xe26dfb",
          "gasUsed": "0x8379",
          "effectiveGasPrice": "0xf434f",
          "from": "0x8454d149beb26e3e3fc5ed1c87fb0b2a1b7b6c2c",
          "to": "0x1d52bc3415aae68806e3fd44d4cdb0b63e68068a",
          "contractAddress": null,
          "l1BaseFeeScalar": "0x44d",
          "l1BlobBaseFee": "0x1ef38b0960a",
          "l1BlobBaseFeeScalar": "0xa118b",
          "l1Fee": "0x7fb264c321f2",
          "l1GasPrice": "0x778044db0",
          "l1GasUsed": "0x640"
        },
        {
          "status": "0x1",
          "cumulativeGasUsed": "0x133bd8",
          "logs": [],
          "logsBloom": "0x00000000000000000000000000000000000000000000000000000000000000000000000000000000000000000000000000000000000000000000000000000000000000000000000000000000000000000000000000000000000000000000000000000000000000000000000000000000000000000000000000000000000000000000000000000000000000000000000000000000000000000000000000000000000000000000000000000000000000000000000000000000000000000000000000000000000000000000000000000000000000000000000000000000000000000000000000000000000000000000000000000000000000000000000000000000",
          "type": "0x2",
          "transactionHash": "0x28432376b326eae77591f000b29e46d3a8bc1b9248840a4e0d1cc280f958c901",
          "transactionIndex": "0x9",
          "blockHash": "0x5d02aecc3cbabbed41fbd36a0bc7325b538ca7420fc8700e81bda420a4e4e3f1",
          "blockNumber": "0xe26dfb",
          "gasUsed": "0x83bc",
          "effectiveGasPrice": "0xf434f",
          "from": "0x8454d149beb26e3e3fc5ed1c87fb0b2a1b7b6c2c",
          "to": "0x1d52bc3415aae68806e3fd44d4cdb0b63e68068a",
          "contractAddress": null,
          "l1BaseFeeScalar": "0x44d",
          "l1BlobBaseFee": "0x1ef38b0960a",
          "l1BlobBaseFeeScalar": "0xa118b",
          "l1Fee": "0x7fb264c321f2",
          "l1GasPrice": "0x778044db0",
          "l1GasUsed": "0x640"
        },
        {
          "status": "0x1",
          "cumulativeGasUsed": "0x148baa",
          "logs": [
            {
              "address": "0x205e359bdef6e0ff3e1d820668bbf7ce68d14d08",
              "topics": [
                "0xed4c89b805f4efb58bc4a42b9a3c6f09783f619295a1fa41ab46d6190c8c7f3b",
                "0xe7a050aa00000000000000000000000000000000000000000000000000000000",
                "0x0000000000000000000000000000000000000000000000000000000000200b20"
              ],
              "data": "0x",
              "blockHash": "0x5d02aecc3cbabbed41fbd36a0bc7325b538ca7420fc8700e81bda420a4e4e3f1",
              "blockNumber": "0xe26dfb",
              "transactionHash": "0x7c29dff7b44c901c9d35119365c5c012131e0ad5896e831a9ad410e65aebde23",
              "transactionIndex": "0xa",
              "logIndex": "0x18",
              "removed": false
            },
            {
              "address": "0x205e359bdef6e0ff3e1d820668bbf7ce68d14d08",
              "topics": [
                "0xed4c89b805f4efb58bc4a42b9a3c6f09783f619295a1fa41ab46d6190c8c7f3b",
                "0xcc15a55700000000000000000000000000000000000000000000000000000000",
                "0x00000000000000000000000000000000000000000000000000000000000aae60"
              ],
              "data": "0x",
              "blockHash": "0x5d02aecc3cbabbed41fbd36a0bc7325b538ca7420fc8700e81bda420a4e4e3f1",
              "blockNumber": "0xe26dfb",
              "transactionHash": "0x7c29dff7b44c901c9d35119365c5c012131e0ad5896e831a9ad410e65aebde23",
              "transactionIndex": "0xa",
              "logIndex": "0x19",
              "removed": false
            },
            {
              "address": "0x205e359bdef6e0ff3e1d820668bbf7ce68d14d08",
              "topics": [
                "0xed4c89b805f4efb58bc4a42b9a3c6f09783f619295a1fa41ab46d6190c8c7f3b",
                "0x0dd8dd0200000000000000000000000000000000000000000000000000000000",
                "0x000000000000000000000000000000000000000000000000000000000008d9a0"
              ],
              "data": "0x",
              "blockHash": "0x5d02aecc3cbabbed41fbd36a0bc7325b538ca7420fc8700e81bda420a4e4e3f1",
              "blockNumber": "0xe26dfb",
              "transactionHash": "0x7c29dff7b44c901c9d35119365c5c012131e0ad5896e831a9ad410e65aebde23",
              "transactionIndex": "0xa",
              "logIndex": "0x1a",
              "removed": false
            },
            {
              "address": "0x205e359bdef6e0ff3e1d820668bbf7ce68d14d08",
              "topics": [
                "0xed4c89b805f4efb58bc4a42b9a3c6f09783f619295a1fa41ab46d6190c8c7f3b",
                "0x60d7faed00000000000000000000000000000000000000000000000000000000",
                "0x00000000000000000000000000000000000000000000000000000000000cd140"
              ],
              "data": "0x",
              "blockHash": "0x5d02aecc3cbabbed41fbd36a0bc7325b538ca7420fc8700e81bda420a4e4e3f1",
              "blockNumber": "0xe26dfb",
              "transactionHash": "0x7c29dff7b44c901c9d35119365c5c012131e0ad5896e831a9ad410e65aebde23",
              "transactionIndex": "0xa",
              "logIndex": "0x1b",
              "removed": false
            },
            {
              "address": "0x205e359bdef6e0ff3e1d820668bbf7ce68d14d08",
              "topics": [
                "0xed4c89b805f4efb58bc4a42b9a3c6f09783f619295a1fa41ab46d6190c8c7f3b",
                "0xeea9064b00000000000000000000000000000000000000000000000000000000",
                "0x00000000000000000000000000000000000000000000000000000000000927c0"
              ],
              "data": "0x",
              "blockHash": "0x5d02aecc3cbabbed41fbd36a0bc7325b538ca7420fc8700e81bda420a4e4e3f1",
              "blockNumber": "0xe26dfb",
              "transactionHash": "0x7c29dff7b44c901c9d35119365c5c012131e0ad5896e831a9ad410e65aebde23",
              "transactionIndex": "0xa",
              "logIndex": "0x1c",
              "removed": false
            },
            {
              "address": "0x205e359bdef6e0ff3e1d820668bbf7ce68d14d08",
              "topics": [
                "0xed4c89b805f4efb58bc4a42b9a3c6f09783f619295a1fa41ab46d6190c8c7f3b",
                "0xda8be86400000000000000000000000000000000000000000000000000000000",
                "0x0000000000000000000000000000000000000000000000000000000000061a80"
              ],
              "data": "0x",
              "blockHash": "0x5d02aecc3cbabbed41fbd36a0bc7325b538ca7420fc8700e81bda420a4e4e3f1",
              "blockNumber": "0xe26dfb",
              "transactionHash": "0x7c29dff7b44c901c9d35119365c5c012131e0ad5896e831a9ad410e65aebde23",
              "transactionIndex": "0xa",
              "logIndex": "0x1d",
              "removed": false
            }
          ],
          "logsBloom": "0x00000000000000000040000000000000000000002800000000000000004000000000000000000000000800000040000008000000200000000000000000000010000000000400000040000000000000040002000000000000080000000000000000002010000000000000000000000004818000000002000000000000000000040000110000800000000000000000000000000000000000000004000000080000000000000000000008000000002000000000000008000000000000000004400500000000001000000008001000000000000000000000100000100000000000000000000000200000080000000000000000000000000000000000010000000000",
          "type": "0x2",
          "transactionHash": "0x7c29dff7b44c901c9d35119365c5c012131e0ad5896e831a9ad410e65aebde23",
          "transactionIndex": "0xa",
          "blockHash": "0x5d02aecc3cbabbed41fbd36a0bc7325b538ca7420fc8700e81bda420a4e4e3f1",
          "blockNumber": "0xe26dfb",
          "gasUsed": "0x14fd2",
          "effectiveGasPrice": "0xf434f",
          "from": "0x8454d149beb26e3e3fc5ed1c87fb0b2a1b7b6c2c",
          "to": "0x205e359bdef6e0ff3e1d820668bbf7ce68d14d08",
          "contractAddress": null,
          "l1BaseFeeScalar": "0x44d",
          "l1BlobBaseFee": "0x1ef38b0960a",
          "l1BlobBaseFeeScalar": "0xa118b",
          "l1Fee": "0xcd303309a38a",
          "l1GasPrice": "0x778044db0",
          "l1GasUsed": "0xa0a"
        },
        {
          "status": "0x1",
          "cumulativeGasUsed": "0x150e86",
          "logs": [],
          "logsBloom": "0x00000000000000000000000000000000000000000000000000000000000000000000000000000000000000000000000000000000000000000000000000000000000000000000000000000000000000000000000000000000000000000000000000000000000000000000000000000000000000000000000000000000000000000000000000000000000000000000000000000000000000000000000000000000000000000000000000000000000000000000000000000000000000000000000000000000000000000000000000000000000000000000000000000000000000000000000000000000000000000000000000000000000000000000000000000000",
          "type": "0x2",
          "transactionHash": "0x02b4d744d121dba995f702a2cc816dcbed8ffd019985fd57e374a59f07e5b0d9",
          "transactionIndex": "0xb",
          "blockHash": "0x5d02aecc3cbabbed41fbd36a0bc7325b538ca7420fc8700e81bda420a4e4e3f1",
          "blockNumber": "0xe26dfb",
          "gasUsed": "0x82dc",
          "effectiveGasPrice": "0xf434f",
          "from": "0x8454d149beb26e3e3fc5ed1c87fb0b2a1b7b6c2c",
          "to": "0x205e359bdef6e0ff3e1d820668bbf7ce68d14d08",
          "contractAddress": null,
          "l1BaseFeeScalar": "0x44d",
          "l1BlobBaseFee": "0x1ef38b0960a",
          "l1BlobBaseFeeScalar": "0xa118b",
          "l1Fee": "0x7fb264c321f2",
          "l1GasPrice": "0x778044db0",
          "l1GasUsed": "0x640"
        },
        {
          "status": "0x1",
          "cumulativeGasUsed": "0x1592bb",
          "logs": [
            {
              "address": "0x88a2d74f47a237a62e7a51cdda67270ce381555e",
              "topics": [
                "0xddf252ad1be2c89b69c2b068fc378daa952ba7f163c4a11628f55a4df523b3ef",
                "0x0000000000000000000000000000000000000000000000000000000000000000",
                "0x0000000000000000000000008454d149beb26e3e3fc5ed1c87fb0b2a1b7b6c2c"
              ],
              "data": "0x0000000000000000000000000000000000000000000000000de0b6b3a7640000",
              "blockHash": "0x5d02aecc3cbabbed41fbd36a0bc7325b538ca7420fc8700e81bda420a4e4e3f1",
              "blockNumber": "0xe26dfb",
              "transactionHash": "0x4068d52b023aa94291cca3127dd894b2a0c7d5d13125e39e1e7472294afbe394",
              "transactionIndex": "0xc",
              "logIndex": "0x1e",
              "removed": false
            }
          ],
          "logsBloom": "0x00000000000000000000000000000000000000000000000000000000000800000000000000000000000000000000000000000000000000000000000000000000000000000000000000000008000000000000000000000000000000000000000000000000020000080000000000000800000000000000000000000010000000000000000000000000000000000000000000000000000000000000000000000000080000000000000000000000000000000000000000000000000000000000000000000002000000000000000000000000080000000000000000000000000a20000000000000000000000000000000000000000000000000000000000000000000",
          "type": "0x2",
          "transactionHash": "0x4068d52b023aa94291cca3127dd894b2a0c7d5d13125e39e1e7472294afbe394",
          "transactionIndex": "0xc",
          "blockHash": "0x5d02aecc3cbabbed41fbd36a0bc7325b538ca7420fc8700e81bda420a4e4e3f1",
          "blockNumber": "0xe26dfb",
          "gasUsed": "0x8435",
          "effectiveGasPrice": "0xf434f",
          "from": "0x8454d149beb26e3e3fc5ed1c87fb0b2a1b7b6c2c",
          "to": "0x88a2d74f47a237a62e7a51cdda67270ce381555e",
          "contractAddress": null,
          "l1BaseFeeScalar": "0x44d",
          "l1BlobBaseFee": "0x1ef38b0960a",
          "l1BlobBaseFeeScalar": "0xa118b",
          "l1Fee": "0x7fb264c321f2",
          "l1GasPrice": "0x778044db0",
          "l1GasUsed": "0x640"
        },
        {
          "status": "0x1",
          "cumulativeGasUsed": "0x160abf",
          "logs": [],
          "logsBloom": "0x00000000000000000000000000000000000000000000000000000000000000000000000000000000000000000000000000000000000000000000000000000000000000000000000000000000000000000000000000000000000000000000000000000000000000000000000000000000000000000000000000000000000000000000000000000000000000000000000000000000000000000000000000000000000000000000000000000000000000000000000000000000000000000000000000000000000000000000000000000000000000000000000000000000000000000000000000000000000000000000000000000000000000000000000000000000",
          "type": "0x2",
          "transactionHash": "0x89628c3176a322bc0881bd7b1609c1fe32cffaabdf31627ebb7fba2f966fa0c8",
          "transactionIndex": "0xd",
          "blockHash": "0x5d02aecc3cbabbed41fbd36a0bc7325b538ca7420fc8700e81bda420a4e4e3f1",
          "blockNumber": "0xe26dfb",
          "gasUsed": "0x7804",
          "effectiveGasPrice": "0xf434f",
          "from": "0x8454d149beb26e3e3fc5ed1c87fb0b2a1b7b6c2c",
          "to": "0x1d52bc3415aae68806e3fd44d4cdb0b63e68068a",
          "contractAddress": null,
          "l1BaseFeeScalar": "0x44d",
          "l1BlobBaseFee": "0x1ef38b0960a",
          "l1BlobBaseFeeScalar": "0xa118b",
          "l1Fee": "0x7fb264c321f2",
          "l1GasPrice": "0x778044db0",
          "l1GasUsed": "0x640"
        },
        {
          "status": "0x1",
          "cumulativeGasUsed": "0x16850e",
          "logs": [],
          "logsBloom": "0x00000000000000000000000000000000000000000000000000000000000000000000000000000000000000000000000000000000000000000000000000000000000000000000000000000000000000000000000000000000000000000000000000000000000000000000000000000000000000000000000000000000000000000000000000000000000000000000000000000000000000000000000000000000000000000000000000000000000000000000000000000000000000000000000000000000000000000000000000000000000000000000000000000000000000000000000000000000000000000000000000000000000000000000000000000000",
          "type": "0x2",
          "transactionHash": "0x4d09f5d33c6276247d475b82cf1978f96006e22f039e95de3d120483f057e2e4",
          "transactionIndex": "0xe",
          "blockHash": "0x5d02aecc3cbabbed41fbd36a0bc7325b538ca7420fc8700e81bda420a4e4e3f1",
          "blockNumber": "0xe26dfb",
          "gasUsed": "0x7a4f",
          "effectiveGasPrice": "0xf434f",
          "from": "0x8454d149beb26e3e3fc5ed1c87fb0b2a1b7b6c2c",
          "to": "0x1d52bc3415aae68806e3fd44d4cdb0b63e68068a",
          "contractAddress": null,
          "l1BaseFeeScalar": "0x44d",
          "l1BlobBaseFee": "0x1ef38b0960a",
          "l1BlobBaseFeeScalar": "0xa118b",
          "l1Fee": "0x7fb264c321f2",
          "l1GasPrice": "0x778044db0",
          "l1GasUsed": "0x640"
        },
        {
          "status": "0x1",
          "cumulativeGasUsed": "0x16feea",
          "logs": [],
          "logsBloom": "0x00000000000000000000000000000000000000000000000000000000000000000000000000000000000000000000000000000000000000000000000000000000000000000000000000000000000000000000000000000000000000000000000000000000000000000000000000000000000000000000000000000000000000000000000000000000000000000000000000000000000000000000000000000000000000000000000000000000000000000000000000000000000000000000000000000000000000000000000000000000000000000000000000000000000000000000000000000000000000000000000000000000000000000000000000000000",
          "type": "0x2",
          "transactionHash": "0x5492d02d86a6020f1bd892c06536089fb48dd10e0f9661e8a98362dada6bd37d",
          "transactionIndex": "0xf",
          "blockHash": "0x5d02aecc3cbabbed41fbd36a0bc7325b538ca7420fc8700e81bda420a4e4e3f1",
          "blockNumber": "0xe26dfb",
          "gasUsed": "0x79dc",
          "effectiveGasPrice": "0xf434f",
          "from": "0x8454d149beb26e3e3fc5ed1c87fb0b2a1b7b6c2c",
          "to": "0x1d52bc3415aae68806e3fd44d4cdb0b63e68068a",
          "contractAddress": null,
          "l1BaseFeeScalar": "0x44d",
          "l1BlobBaseFee": "0x1ef38b0960a",
          "l1BlobBaseFeeScalar": "0xa118b",
          "l1Fee": "0x7fb264c321f2",
          "l1GasPrice": "0x778044db0",
          "l1GasUsed": "0x640"
        },
        {
          "status": "0x1",
          "cumulativeGasUsed": "0x177883",
          "logs": [],
          "logsBloom": "0x00000000000000000000000000000000000000000000000000000000000000000000000000000000000000000000000000000000000000000000000000000000000000000000000000000000000000000000000000000000000000000000000000000000000000000000000000000000000000000000000000000000000000000000000000000000000000000000000000000000000000000000000000000000000000000000000000000000000000000000000000000000000000000000000000000000000000000000000000000000000000000000000000000000000000000000000000000000000000000000000000000000000000000000000000000000",
          "type": "0x2",
          "transactionHash": "0x0f39e75dfeb2e46bfc58b51700b6c2a3969395a08186530c0770b0396bc2f6bd",
          "transactionIndex": "0x10",
          "blockHash": "0x5d02aecc3cbabbed41fbd36a0bc7325b538ca7420fc8700e81bda420a4e4e3f1",
          "blockNumber": "0xe26dfb",
          "gasUsed": "0x7999",
          "effectiveGasPrice": "0xf434f",
          "from": "0x8454d149beb26e3e3fc5ed1c87fb0b2a1b7b6c2c",
          "to": "0x1d52bc3415aae68806e3fd44d4cdb0b63e68068a",
          "contractAddress": null,
          "l1BaseFeeScalar": "0x44d",
          "l1BlobBaseFee": "0x1ef38b0960a",
          "l1BlobBaseFeeScalar": "0xa118b",
          "l1Fee": "0x7fb264c321f2",
          "l1GasPrice": "0x778044db0",
          "l1GasUsed": "0x640"
        }
      ],
      "libraries": [],
      "pending": [],
      "returns": {},
      "timestamp": 1725446866,
      "chain": 84532,
      "commit": "242f757"
    },
    {
      "transactions": [
        {
          "hash": "0xa0867df4afc64b244b70c1d28362cc3aa08c077f2f9c5bdec424c01c2eb310b7",
          "transactionType": "CALL",
          "contractName": null,
          "contractAddress": "0x8645c75d0c75b859146aebb74076b319c9331c4e",
          "function": "allowlistSender(address,bool)",
          "arguments": [
            "0x1D52bC3415AAe68806E3Fd44D4cdb0b63E68068A",
            "true"
          ],
          "transaction": {
            "from": "0x8454d149beb26e3e3fc5ed1c87fb0b2a1b7b6c2c",
            "to": "0x8645c75d0c75b859146aebb74076b319c9331c4e",
            "gas": "0xb6b2",
            "value": "0x0",
            "input": "0xeab5b02c0000000000000000000000001d52bc3415aae68806e3fd44d4cdb0b63e68068a0000000000000000000000000000000000000000000000000000000000000001",
            "nonce": "0x4c8",
            "chainId": "0xaa36a7"
          },
          "additionalContracts": [],
          "isFixedGasLimit": false
        },
        {
          "hash": "0xdb669e720c7bdc260e7a0338467cb959b6713fa3bb369e665af1ddb0ae4b52fa",
          "transactionType": "CALL",
          "contractName": null,
          "contractAddress": "0x8645c75d0c75b859146aebb74076b319c9331c4e",
          "function": "allowlistSourceChain(uint64,bool)",
          "arguments": [
            "10344971235874465080",
            "true"
          ],
          "transaction": {
            "from": "0x8454d149beb26e3e3fc5ed1c87fb0b2a1b7b6c2c",
            "to": "0x8645c75d0c75b859146aebb74076b319c9331c4e",
            "gas": "0xb5d5",
            "value": "0x0",
            "input": "0xdb04fa490000000000000000000000000000000000000000000000008f90b8876dee65380000000000000000000000000000000000000000000000000000000000000001",
            "nonce": "0x4c9",
            "chainId": "0xaa36a7"
          },
          "additionalContracts": [],
          "isFixedGasLimit": false
        },
        {
          "hash": "0x2ee4ac193c7f07d90e0891307c41f7efb9b58cf63a0e641ceb9403bb59a0f079",
          "transactionType": "CALL",
          "contractName": null,
          "contractAddress": "0x8645c75d0c75b859146aebb74076b319c9331c4e",
          "function": "allowlistSourceChain(uint64,bool)",
          "arguments": [
            "16015286601757825753",
            "true"
          ],
          "transaction": {
            "from": "0x8454d149beb26e3e3fc5ed1c87fb0b2a1b7b6c2c",
            "to": "0x8645c75d0c75b859146aebb74076b319c9331c4e",
            "gas": "0xb5d5",
            "value": "0x0",
            "input": "0xdb04fa49000000000000000000000000000000000000000000000000de41ba4fc9d91ad90000000000000000000000000000000000000000000000000000000000000001",
            "nonce": "0x4ca",
            "chainId": "0xaa36a7"
          },
          "additionalContracts": [],
          "isFixedGasLimit": false
        },
        {
          "hash": "0xc8ea20d38c1b6a450b430b5993b70f0ef86e9ab79df389e846e8246d54f28f5b",
          "transactionType": "CALL",
          "contractName": null,
          "contractAddress": "0x8645c75d0c75b859146aebb74076b319c9331c4e",
          "function": "allowlistDestinationChain(uint64,bool)",
          "arguments": [
            "10344971235874465080",
            "true"
          ],
          "transaction": {
            "from": "0x8454d149beb26e3e3fc5ed1c87fb0b2a1b7b6c2c",
            "to": "0x8645c75d0c75b859146aebb74076b319c9331c4e",
            "gas": "0xb5d6",
            "value": "0x0",
            "input": "0x96d3b83d0000000000000000000000000000000000000000000000008f90b8876dee65380000000000000000000000000000000000000000000000000000000000000001",
            "nonce": "0x4cb",
            "chainId": "0xaa36a7"
          },
          "additionalContracts": [],
          "isFixedGasLimit": false
        },
        {
          "hash": "0x1a4a114f19a0b0acaef35207d95c64e64f78fb7e991da590dfd586ff35ee5c85",
          "transactionType": "CALL",
          "contractName": null,
          "contractAddress": "0x673bd60afd73e5b7540ff457bf3e5a32b8e67494",
          "function": "setGasLimitsForFunctionSelectors(bytes4[],uint256[])",
          "arguments": [
            "[0xd8a85b48]",
            "[295000]"
          ],
          "transaction": {
            "from": "0x8454d149beb26e3e3fc5ed1c87fb0b2a1b7b6c2c",
            "to": "0x673bd60afd73e5b7540ff457bf3e5a32b8e67494",
            "gas": "0xc837",
            "value": "0x0",
            "input": "0x3ef2d377000000000000000000000000000000000000000000000000000000000000004000000000000000000000000000000000000000000000000000000000000000800000000000000000000000000000000000000000000000000000000000000001d8a85b480000000000000000000000000000000000000000000000000000000000000000000000000000000000000000000000000000000000000000000000010000000000000000000000000000000000000000000000000000000000048058",
            "nonce": "0x4cc",
            "chainId": "0xaa36a7"
          },
          "additionalContracts": [],
          "isFixedGasLimit": false
        },
        {
          "hash": "0x97e777959f07a8df71cc7cf3d2d816411d81c671d0260fbadb9de854bcc3edc7",
          "transactionType": "CALL",
          "contractName": null,
          "contractAddress": "0x5a7cda47ebfbbe2658085567ff6ac7fb45cfd198",
          "function": "getAgentFactory()",
          "arguments": [],
          "transaction": {
            "from": "0x8454d149beb26e3e3fc5ed1c87fb0b2a1b7b6c2c",
            "to": "0x5a7cda47ebfbbe2658085567ff6ac7fb45cfd198",
            "gas": "0xafd4",
            "value": "0x0",
            "input": "0xf3b372de",
            "nonce": "0x4cd",
            "chainId": "0xaa36a7"
          },
          "additionalContracts": [],
          "isFixedGasLimit": false
        }
      ],
      "receipts": [
        {
          "status": "0x1",
          "cumulativeGasUsed": "0x94b7cb",
          "logs": [],
          "logsBloom": "0x00000000000000000000000000000000000000000000000000000000000000000000000000000000000000000000000000000000000000000000000000000000000000000000000000000000000000000000000000000000000000000000000000000000000000000000000000000000000000000000000000000000000000000000000000000000000000000000000000000000000000000000000000000000000000000000000000000000000000000000000000000000000000000000000000000000000000000000000000000000000000000000000000000000000000000000000000000000000000000000000000000000000000000000000000000000",
          "type": "0x2",
          "transactionHash": "0xa0867df4afc64b244b70c1d28362cc3aa08c077f2f9c5bdec424c01c2eb310b7",
          "transactionIndex": "0x30",
          "blockHash": "0x299c6616ed1c900af97a9c4a7709a56669a28c567dbdd439cddf7020dacc1b4f",
          "blockNumber": "0x652dcc",
          "gasUsed": "0x8445",
          "effectiveGasPrice": "0x8409f7369",
          "from": "0x8454d149beb26e3e3fc5ed1c87fb0b2a1b7b6c2c",
          "to": "0x8645c75d0c75b859146aebb74076b319c9331c4e",
          "contractAddress": null
        },
        {
          "status": "0x1",
          "cumulativeGasUsed": "0x953b70",
          "logs": [],
          "logsBloom": "0x00000000000000000000000000000000000000000000000000000000000000000000000000000000000000000000000000000000000000000000000000000000000000000000000000000000000000000000000000000000000000000000000000000000000000000000000000000000000000000000000000000000000000000000000000000000000000000000000000000000000000000000000000000000000000000000000000000000000000000000000000000000000000000000000000000000000000000000000000000000000000000000000000000000000000000000000000000000000000000000000000000000000000000000000000000000",
          "type": "0x2",
          "transactionHash": "0xdb669e720c7bdc260e7a0338467cb959b6713fa3bb369e665af1ddb0ae4b52fa",
          "transactionIndex": "0x31",
          "blockHash": "0x299c6616ed1c900af97a9c4a7709a56669a28c567dbdd439cddf7020dacc1b4f",
          "blockNumber": "0x652dcc",
          "gasUsed": "0x83a5",
          "effectiveGasPrice": "0x8409f7369",
          "from": "0x8454d149beb26e3e3fc5ed1c87fb0b2a1b7b6c2c",
          "to": "0x8645c75d0c75b859146aebb74076b319c9331c4e",
          "contractAddress": null
        },
        {
          "status": "0x1",
          "cumulativeGasUsed": "0x95bf15",
          "logs": [],
          "logsBloom": "0x00000000000000000000000000000000000000000000000000000000000000000000000000000000000000000000000000000000000000000000000000000000000000000000000000000000000000000000000000000000000000000000000000000000000000000000000000000000000000000000000000000000000000000000000000000000000000000000000000000000000000000000000000000000000000000000000000000000000000000000000000000000000000000000000000000000000000000000000000000000000000000000000000000000000000000000000000000000000000000000000000000000000000000000000000000000",
          "type": "0x2",
          "transactionHash": "0x2ee4ac193c7f07d90e0891307c41f7efb9b58cf63a0e641ceb9403bb59a0f079",
          "transactionIndex": "0x32",
          "blockHash": "0x299c6616ed1c900af97a9c4a7709a56669a28c567dbdd439cddf7020dacc1b4f",
          "blockNumber": "0x652dcc",
          "gasUsed": "0x83a5",
          "effectiveGasPrice": "0x8409f7369",
          "from": "0x8454d149beb26e3e3fc5ed1c87fb0b2a1b7b6c2c",
          "to": "0x8645c75d0c75b859146aebb74076b319c9331c4e",
          "contractAddress": null
        },
        {
          "status": "0x1",
          "cumulativeGasUsed": "0x9642bb",
          "logs": [],
          "logsBloom": "0x00000000000000000000000000000000000000000000000000000000000000000000000000000000000000000000000000000000000000000000000000000000000000000000000000000000000000000000000000000000000000000000000000000000000000000000000000000000000000000000000000000000000000000000000000000000000000000000000000000000000000000000000000000000000000000000000000000000000000000000000000000000000000000000000000000000000000000000000000000000000000000000000000000000000000000000000000000000000000000000000000000000000000000000000000000000",
          "type": "0x2",
          "transactionHash": "0xc8ea20d38c1b6a450b430b5993b70f0ef86e9ab79df389e846e8246d54f28f5b",
          "transactionIndex": "0x33",
          "blockHash": "0x299c6616ed1c900af97a9c4a7709a56669a28c567dbdd439cddf7020dacc1b4f",
          "blockNumber": "0x652dcc",
          "gasUsed": "0x83a6",
          "effectiveGasPrice": "0x8409f7369",
          "from": "0x8454d149beb26e3e3fc5ed1c87fb0b2a1b7b6c2c",
          "to": "0x8645c75d0c75b859146aebb74076b319c9331c4e",
          "contractAddress": null
        },
        {
          "status": "0x1",
          "cumulativeGasUsed": "0x96d3af",
          "logs": [
            {
              "address": "0x673bd60afd73e5b7540ff457bf3e5a32b8e67494",
              "topics": [
                "0xed4c89b805f4efb58bc4a42b9a3c6f09783f619295a1fa41ab46d6190c8c7f3b",
                "0xd8a85b4800000000000000000000000000000000000000000000000000000000",
                "0x0000000000000000000000000000000000000000000000000000000000048058"
              ],
              "data": "0x",
              "blockHash": "0x299c6616ed1c900af97a9c4a7709a56669a28c567dbdd439cddf7020dacc1b4f",
              "blockNumber": "0x652dcc",
              "transactionHash": "0x1a4a114f19a0b0acaef35207d95c64e64f78fb7e991da590dfd586ff35ee5c85",
              "transactionIndex": "0x34",
              "logIndex": "0x57",
              "removed": false
            }
          ],
          "logsBloom": "0x00000000000000000040000000000000000000000800000000000000000000000000000000000000000000000000000000000000000000000000000000000000000000000000000000000000000000000800000000000000000000000000000000000000000000000000000000000000800000000000040000000000000000000002000004000004000000001000000000000000000000000000000000000000000000000000000000010000000000000000000000000000000000000000000000000000000000000000000000040000000000000000000000000000000000000000000000000000000000000000000000000000000000002000000000000000",
          "type": "0x2",
          "transactionHash": "0x1a4a114f19a0b0acaef35207d95c64e64f78fb7e991da590dfd586ff35ee5c85",
          "transactionIndex": "0x34",
          "blockHash": "0x299c6616ed1c900af97a9c4a7709a56669a28c567dbdd439cddf7020dacc1b4f",
          "blockNumber": "0x652dcc",
          "gasUsed": "0x90f4",
          "effectiveGasPrice": "0x8409f7369",
          "from": "0x8454d149beb26e3e3fc5ed1c87fb0b2a1b7b6c2c",
          "to": "0x673bd60afd73e5b7540ff457bf3e5a32b8e67494",
          "contractAddress": null
        },
        {
          "status": "0x1",
          "cumulativeGasUsed": "0x974be9",
          "logs": [],
          "logsBloom": "0x00000000000000000000000000000000000000000000000000000000000000000000000000000000000000000000000000000000000000000000000000000000000000000000000000000000000000000000000000000000000000000000000000000000000000000000000000000000000000000000000000000000000000000000000000000000000000000000000000000000000000000000000000000000000000000000000000000000000000000000000000000000000000000000000000000000000000000000000000000000000000000000000000000000000000000000000000000000000000000000000000000000000000000000000000000000",
          "type": "0x2",
          "transactionHash": "0x97e777959f07a8df71cc7cf3d2d816411d81c671d0260fbadb9de854bcc3edc7",
          "transactionIndex": "0x35",
          "blockHash": "0x299c6616ed1c900af97a9c4a7709a56669a28c567dbdd439cddf7020dacc1b4f",
          "blockNumber": "0x652dcc",
          "gasUsed": "0x783a",
          "effectiveGasPrice": "0x8409f7369",
          "from": "0x8454d149beb26e3e3fc5ed1c87fb0b2a1b7b6c2c",
          "to": "0x5a7cda47ebfbbe2658085567ff6ac7fb45cfd198",
          "contractAddress": null
        }
      ],
      "libraries": [],
      "pending": [],
      "returns": {},
      "timestamp": 1725446867,
      "chain": 11155111,
      "commit": "242f757"
    }
  ],
  "timestamp": 1725446886
}