{
  "deployments": [
    {
      "transactions": [
        {
          "hash": "0x29383b671d73846336d10e180eddc4513d74cfce08184bea12502d7f54db7b28",
          "transactionType": "CALL",
          "contractName": null,
          "contractAddress": "0x4d480cfc32d7b72ccab92f2bf309995d3c260437",
          "function": "allowlistSourceChain(uint64,bool)",
          "arguments": [
            "10344971235874465080",
            "true"
          ],
          "transaction": {
            "from": "0x8454d149beb26e3e3fc5ed1c87fb0b2a1b7b6c2c",
            "to": "0x4d480cfc32d7b72ccab92f2bf309995d3c260437",
            "gas": "0xb5b5",
            "value": "0x0",
            "input": "0xdb04fa490000000000000000000000000000000000000000000000008f90b8876dee65380000000000000000000000000000000000000000000000000000000000000001",
            "nonce": "0x8c",
            "chainId": "0x14a34"
          },
          "additionalContracts": [],
          "isFixedGasLimit": false
        },
        {
          "hash": "0xfe33cb54b8d14e9b7ecea94dd06fbac1163a885ca06c9028062c75c5fccce32f",
          "transactionType": "CALL",
          "contractName": null,
          "contractAddress": "0x4d480cfc32d7b72ccab92f2bf309995d3c260437",
          "function": "allowlistSender(address,bool)",
          "arguments": [
            "0x8eCCfFD03c9A361872A9Da63529D0ee1377A00f4",
            "true"
          ],
          "transaction": {
            "from": "0x8454d149beb26e3e3fc5ed1c87fb0b2a1b7b6c2c",
            "to": "0x4d480cfc32d7b72ccab92f2bf309995d3c260437",
            "gas": "0x12200",
            "value": "0x0",
            "input": "0xeab5b02c0000000000000000000000008eccffd03c9a361872a9da63529d0ee1377a00f40000000000000000000000000000000000000000000000000000000000000001",
            "nonce": "0x8d",
            "chainId": "0x14a34"
          },
          "additionalContracts": [],
          "isFixedGasLimit": false
        },
        {
          "hash": "0xdd2398f8f5e02dc07dbb5e45d9c09a503b8aa758d46eb19e2a069d871b8bd92a",
          "transactionType": "CALL",
          "contractName": null,
          "contractAddress": "0x88a2d74f47a237a62e7a51cdda67270ce381555e",
          "function": "drip(address)",
          "arguments": [
            "0x8454d149Beb26E3E3FC5eD1C87Fb0B2a1b7B6c2c"
          ],
          "transaction": {
            "from": "0x8454d149beb26e3e3fc5ed1c87fb0b2a1b7b6c2c",
            "to": "0x88a2d74f47a237a62e7a51cdda67270ce381555e",
            "gas": "0xb69c",
            "value": "0x0",
            "input": "0x67a5cd060000000000000000000000008454d149beb26e3e3fc5ed1c87fb0b2a1b7b6c2c",
            "nonce": "0x8e",
            "chainId": "0x14a34"
          },
          "additionalContracts": [],
          "isFixedGasLimit": false
        }
      ],
      "receipts": [
        {
          "status": "0x1",
          "cumulativeGasUsed": "0x7751e6",
          "logs": [],
          "logsBloom": "0x00000000000000000000000000000000000000000000000000000000000000000000000000000000000000000000000000000000000000000000000000000000000000000000000000000000000000000000000000000000000000000000000000000000000000000000000000000000000000000000000000000000000000000000000000000000000000000000000000000000000000000000000000000000000000000000000000000000000000000000000000000000000000000000000000000000000000000000000000000000000000000000000000000000000000000000000000000000000000000000000000000000000000000000000000000000",
          "type": "0x2",
          "transactionHash": "0x29383b671d73846336d10e180eddc4513d74cfce08184bea12502d7f54db7b28",
          "transactionIndex": "0xc",
          "blockHash": "0x4c618d7762d006c0f4fa668bf7c4cb23f82a133c8d3b2cdc249aedce5837791b",
          "blockNumber": "0xd96399",
          "gasUsed": "0x838f",
          "effectiveGasPrice": "0x95eb07",
          "from": "0x8454d149beb26e3e3fc5ed1c87fb0b2a1b7b6c2c",
          "to": "0x4d480cfc32d7b72ccab92f2bf309995d3c260437",
          "contractAddress": null,
          "l1BaseFeeScalar": "0x44d",
          "l1BlobBaseFee": "0x4a1bd3218",
          "l1BlobBaseFeeScalar": "0xa118b",
          "l1Fee": "0x13d831d26ea",
          "l1GasPrice": "0x6bed77b09",
          "l1GasUsed": "0x640"
        },
        {
          "status": "0x1",
          "cumulativeGasUsed": "0x7823db",
          "logs": [],
          "logsBloom": "0x00000000000000000000000000000000000000000000000000000000000000000000000000000000000000000000000000000000000000000000000000000000000000000000000000000000000000000000000000000000000000000000000000000000000000000000000000000000000000000000000000000000000000000000000000000000000000000000000000000000000000000000000000000000000000000000000000000000000000000000000000000000000000000000000000000000000000000000000000000000000000000000000000000000000000000000000000000000000000000000000000000000000000000000000000000000",
          "type": "0x2",
          "transactionHash": "0xfe33cb54b8d14e9b7ecea94dd06fbac1163a885ca06c9028062c75c5fccce32f",
          "transactionIndex": "0xd",
          "blockHash": "0x4c618d7762d006c0f4fa668bf7c4cb23f82a133c8d3b2cdc249aedce5837791b",
          "blockNumber": "0xd96399",
          "gasUsed": "0xd1f5",
          "effectiveGasPrice": "0x95eb07",
          "from": "0x8454d149beb26e3e3fc5ed1c87fb0b2a1b7b6c2c",
          "to": "0x4d480cfc32d7b72ccab92f2bf309995d3c260437",
          "contractAddress": null,
          "l1BaseFeeScalar": "0x44d",
          "l1BlobBaseFee": "0x4a1bd3218",
          "l1BlobBaseFeeScalar": "0xa118b",
          "l1Fee": "0x13d831d26ea",
          "l1GasPrice": "0x6bed77b09",
          "l1GasUsed": "0x640"
        },
        {
          "status": "0x1",
          "cumulativeGasUsed": "0x78a810",
          "logs": [
            {
              "address": "0x88a2d74f47a237a62e7a51cdda67270ce381555e",
              "topics": [
                "0xddf252ad1be2c89b69c2b068fc378daa952ba7f163c4a11628f55a4df523b3ef",
                "0x0000000000000000000000000000000000000000000000000000000000000000",
                "0x0000000000000000000000008454d149beb26e3e3fc5ed1c87fb0b2a1b7b6c2c"
              ],
              "data": "0x0000000000000000000000000000000000000000000000000de0b6b3a7640000",
              "blockHash": "0x4c618d7762d006c0f4fa668bf7c4cb23f82a133c8d3b2cdc249aedce5837791b",
              "blockNumber": "0xd96399",
              "transactionHash": "0xdd2398f8f5e02dc07dbb5e45d9c09a503b8aa758d46eb19e2a069d871b8bd92a",
              "transactionIndex": "0xe",
              "logIndex": "0x47",
              "removed": false
            }
          ],
          "logsBloom": "0x00000000000000000000000000000000000000000000000000000000000800000000000000000000000000000000000000000000000000000000000000000000000000000000000000000008000000000000000000000000000000000000000000000000020000080000000000000800000000000000000000000010000000000000000000000000000000000000000000000000000000000000000000000000080000000000000000000000000000000000000000000000000000000000000000000002000000000000000000000000080000000000000000000000000a20000000000000000000000000000000000000000000000000000000000000000000",
          "type": "0x2",
          "transactionHash": "0xdd2398f8f5e02dc07dbb5e45d9c09a503b8aa758d46eb19e2a069d871b8bd92a",
          "transactionIndex": "0xe",
          "blockHash": "0x4c618d7762d006c0f4fa668bf7c4cb23f82a133c8d3b2cdc249aedce5837791b",
          "blockNumber": "0xd96399",
          "gasUsed": "0x8435",
          "effectiveGasPrice": "0x95eb07",
          "from": "0x8454d149beb26e3e3fc5ed1c87fb0b2a1b7b6c2c",
          "to": "0x88a2d74f47a237a62e7a51cdda67270ce381555e",
          "contractAddress": null,
          "l1BaseFeeScalar": "0x44d",
          "l1BlobBaseFee": "0x4a1bd3218",
          "l1BlobBaseFeeScalar": "0xa118b",
          "l1Fee": "0x13d831d26ea",
          "l1GasPrice": "0x6bed77b09",
          "l1GasUsed": "0x640"
        }
      ],
      "libraries": [],
      "pending": [],
      "returns": {},
      "timestamp": 1724261902,
      "chain": 84532,
      "commit": "022ba0a"
    },
    {
      "transactions": [
        {
          "hash": "0xceffe34472493ae83c695d2fb12f5ba2adbc45df41669f075d75d230d1d0af65",
          "transactionType": "CALL",
          "contractName": null,
          "contractAddress": "0x8eccffd03c9a361872a9da63529d0ee1377a00f4",
          "function": "allowlistSender(address,bool)",
          "arguments": [
            "0x8454d149Beb26E3E3FC5eD1C87Fb0B2a1b7B6c2c",
            "true"
          ],
          "transaction": {
            "from": "0x8454d149beb26e3e3fc5ed1c87fb0b2a1b7b6c2c",
            "to": "0x8eccffd03c9a361872a9da63529d0ee1377a00f4",
            "gas": "0x13321",
            "value": "0x0",
            "input": "0xeab5b02c0000000000000000000000008454d149beb26e3e3fc5ed1c87fb0b2a1b7b6c2c0000000000000000000000000000000000000000000000000000000000000001",
            "nonce": "0x1f1",
            "chainId": "0xaa36a7"
          },
          "additionalContracts": [],
          "isFixedGasLimit": false
        },
        {
          "hash": "0x3d5ef233ba411d915a4744e3d7e6760a3928e08b3241d5ad101ebc1cbde5d2b3",
          "transactionType": "CALL",
          "contractName": null,
          "contractAddress": "0xfd57b4ddbf88a4e07ff4e34c487b99af2fe82a05",
          "function": "drip(address)",
          "arguments": [
            "0x8eCCfFD03c9A361872A9Da63529D0ee1377A00f4"
          ],
          "transaction": {
            "from": "0x8454d149beb26e3e3fc5ed1c87fb0b2a1b7b6c2c",
            "to": "0xfd57b4ddbf88a4e07ff4e34c487b99af2fe82a05",
            "gas": "0x112ce",
            "value": "0x0",
            "input": "0x67a5cd060000000000000000000000008eccffd03c9a361872a9da63529d0ee1377a00f4",
            "nonce": "0x1f2",
            "chainId": "0xaa36a7"
          },
          "additionalContracts": [],
          "isFixedGasLimit": false
        }
      ],
      "receipts": [
        {
          "status": "0x1",
          "cumulativeGasUsed": "0x102cd32",
          "logs": [],
          "logsBloom": "0x00000000000000000000000000000000000000000000000000000000000000000000000000000000000000000000000000000000000000000000000000000000000000000000000000000000000000000000000000000000000000000000000000000000000000000000000000000000000000000000000000000000000000000000000000000000000000000000000000000000000000000000000000000000000000000000000000000000000000000000000000000000000000000000000000000000000000000000000000000000000000000000000000000000000000000000000000000000000000000000000000000000000000000000000000000000",
          "type": "0x2",
          "transactionHash": "0xceffe34472493ae83c695d2fb12f5ba2adbc45df41669f075d75d230d1d0af65",
          "transactionIndex": "0x6d",
          "blockHash": "0x86e1a0942bf0ec38a2feb6297cd8101ac139ac61d35867599a3354de0d0461b1",
          "blockNumber": "0x63dc66",
          "gasUsed": "0xd201",
          "effectiveGasPrice": "0x5a60e382d",
          "from": "0x8454d149beb26e3e3fc5ed1c87fb0b2a1b7b6c2c",
          "to": "0x8eccffd03c9a361872a9da63529d0ee1377a00f4",
          "contractAddress": null
        },
        {
          "status": "0x1",
          "cumulativeGasUsed": "0x1039427",
          "logs": [
            {
              "address": "0xfd57b4ddbf88a4e07ff4e34c487b99af2fe82a05",
              "topics": [
                "0xddf252ad1be2c89b69c2b068fc378daa952ba7f163c4a11628f55a4df523b3ef",
                "0x0000000000000000000000000000000000000000000000000000000000000000",
                "0x0000000000000000000000008eccffd03c9a361872a9da63529d0ee1377a00f4"
              ],
              "data": "0x0000000000000000000000000000000000000000000000000de0b6b3a7640000",
              "blockHash": "0x86e1a0942bf0ec38a2feb6297cd8101ac139ac61d35867599a3354de0d0461b1",
              "blockNumber": "0x63dc66",
              "transactionHash": "0x3d5ef233ba411d915a4744e3d7e6760a3928e08b3241d5ad101ebc1cbde5d2b3",
              "transactionIndex": "0x6e",
              "logIndex": "0xe4",
              "removed": false
            }
          ],
          "logsBloom": "0x00000002000000000000000000000000000000000000000000000000000000000000000000000000000000000000000000000000000000000000000000000000000000000000000000000008000000000000000000000400000000000000000000000000020000000000000000000800000000000000000000000010000000000000000000000000000000000000000000000000000000000000000000000000000000000000000040000000000000080000000008000000000000800000000000000002000000000000000000000000000000000000000000000000000020000000000000000000000000000000000000000000000000000000000000000000",
          "type": "0x2",
          "transactionHash": "0x3d5ef233ba411d915a4744e3d7e6760a3928e08b3241d5ad101ebc1cbde5d2b3",
          "transactionIndex": "0x6e",
          "blockHash": "0x86e1a0942bf0ec38a2feb6297cd8101ac139ac61d35867599a3354de0d0461b1",
          "blockNumber": "0x63dc66",
          "gasUsed": "0xc6f5",
          "effectiveGasPrice": "0x5a60e382d",
          "from": "0x8454d149beb26e3e3fc5ed1c87fb0b2a1b7b6c2c",
          "to": "0xfd57b4ddbf88a4e07ff4e34c487b99af2fe82a05",
          "contractAddress": null
        }
      ],
      "libraries": [],
      "pending": [],
      "returns": {},
      "timestamp": 1724261904,
      "chain": 11155111,
      "commit": "022ba0a"
    }
  ],
  "timestamp": 1724261921
}