{
  "deployments": [
    {
      "transactions": [
        {
          "hash": "0x2f68544e0f89671ab5cb53548bd6f9ff327e39105dafc2dc1af258cdbd490b98",
          "transactionType": "CALL",
          "contractName": null,
          "contractAddress": "0x9114d9e95243a4066ad1125429aabeb7913f1104",
          "function": "allowlistSender(address,bool)",
          "arguments": [
            "0xeB5fA729acf79123A4826C88151076Ee0562Fc56",
            "true"
          ],
          "transaction": {
            "from": "0x8454d149beb26e3e3fc5ed1c87fb0b2a1b7b6c2c",
            "to": "0x9114d9e95243a4066ad1125429aabeb7913f1104",
            "gas": "0x13300",
            "value": "0x0",
            "input": "0xeab5b02c000000000000000000000000eb5fa729acf79123a4826c88151076ee0562fc560000000000000000000000000000000000000000000000000000000000000001",
            "nonce": "0x3b0",
            "chainId": "0x14a34"
          },
          "additionalContracts": [],
          "isFixedGasLimit": false
        },
        {
          "hash": "0x1e38cf5a0e1920dfa8ba43811f79ca5a304c7d594673e551a265d67f7fed4a89",
          "transactionType": "CALL",
          "contractName": null,
          "contractAddress": "0x9114d9e95243a4066ad1125429aabeb7913f1104",
          "function": "allowlistSourceChain(uint64,bool)",
          "arguments": [
            "10344971235874465080",
            "true"
          ],
          "transaction": {
            "from": "0x8454d149beb26e3e3fc5ed1c87fb0b2a1b7b6c2c",
            "to": "0x9114d9e95243a4066ad1125429aabeb7913f1104",
            "gas": "0x120f7",
            "value": "0x0",
            "input": "0xdb04fa490000000000000000000000000000000000000000000000008f90b8876dee65380000000000000000000000000000000000000000000000000000000000000001",
            "nonce": "0x3b1",
            "chainId": "0x14a34"
          },
          "additionalContracts": [],
          "isFixedGasLimit": false
        },
        {
          "hash": "0x27b717fc0bc02c163b8a36034697b1235e394bc948184fec3780500c3f0acf6a",
          "transactionType": "CALL",
          "contractName": null,
          "contractAddress": "0x9114d9e95243a4066ad1125429aabeb7913f1104",
          "function": "allowlistDestinationChain(uint64,bool)",
          "arguments": [
            "16015286601757825753",
            "true"
          ],
          "transaction": {
            "from": "0x8454d149beb26e3e3fc5ed1c87fb0b2a1b7b6c2c",
            "to": "0x9114d9e95243a4066ad1125429aabeb7913f1104",
            "gas": "0xb5b8",
            "value": "0x0",
            "input": "0x96d3b83d000000000000000000000000000000000000000000000000de41ba4fc9d91ad90000000000000000000000000000000000000000000000000000000000000001",
            "nonce": "0x3b2",
            "chainId": "0x14a34"
          },
          "additionalContracts": [],
          "isFixedGasLimit": false
        },
        {
          "hash": "0xe994fc85f2ddda94f547c26bde6513920d17984bd7019f4efb7780a9e8f3954d",
          "transactionType": "CALL",
          "contractName": null,
          "contractAddress": "0x1b753398d85943670a9335132707173492365602",
          "function": "setGasLimitsForFunctionSelectors(bytes4[],uint256[])",
          "arguments": [
            "[0xe7a050aa, 0xcc15a557, 0x0dd8dd02, 0x60d7faed, 0xeea9064b, 0xda8be864]",
            "[2100000, 1500000, 580000, 840000, 650000, 400000]"
          ],
          "transaction": {
            "from": "0x8454d149beb26e3e3fc5ed1c87fb0b2a1b7b6c2c",
            "to": "0x1b753398d85943670a9335132707173492365602",
            "gas": "0x182b1",
            "value": "0x0",
            "input": "0x3ef2d377000000000000000000000000000000000000000000000000000000000000004000000000000000000000000000000000000000000000000000000000000001200000000000000000000000000000000000000000000000000000000000000006e7a050aa00000000000000000000000000000000000000000000000000000000cc15a557000000000000000000000000000000000000000000000000000000000dd8dd020000000000000000000000000000000000000000000000000000000060d7faed00000000000000000000000000000000000000000000000000000000eea9064b00000000000000000000000000000000000000000000000000000000da8be8640000000000000000000000000000000000000000000000000000000000000000000000000000000000000000000000000000000000000000000000060000000000000000000000000000000000000000000000000000000000200b20000000000000000000000000000000000000000000000000000000000016e360000000000000000000000000000000000000000000000000000000000008d9a000000000000000000000000000000000000000000000000000000000000cd140000000000000000000000000000000000000000000000000000000000009eb100000000000000000000000000000000000000000000000000000000000061a80",
            "nonce": "0x3b3",
            "chainId": "0x14a34"
          },
          "additionalContracts": [],
          "isFixedGasLimit": false
        },
        {
          "hash": "0xf9ecbc05eccfc77b71d26db992f1fb4a028c9b11b4c140c6a8bc4ca42c14e300",
          "transactionType": "CALL",
          "contractName": null,
          "contractAddress": "0x1b753398d85943670a9335132707173492365602",
          "function": "setSenderCCIP(address)",
          "arguments": [
            "0x9114d9e95243A4066ad1125429AAbeB7913F1104"
          ],
          "transaction": {
            "from": "0x8454d149beb26e3e3fc5ed1c87fb0b2a1b7b6c2c",
            "to": "0x1b753398d85943670a9335132707173492365602",
            "gas": "0xb50e",
            "value": "0x0",
            "input": "0xd8d6c31a0000000000000000000000009114d9e95243a4066ad1125429aabeb7913f1104",
            "nonce": "0x3b4",
            "chainId": "0x14a34"
          },
          "additionalContracts": [],
          "isFixedGasLimit": false
        },
        {
          "hash": "0xa61dae7e4f4bc53e995b131f402d72fa9c96850f69082871c2efcf12dfbf8f7a",
          "transactionType": "CALL",
          "contractName": null,
          "contractAddress": "0x9114d9e95243a4066ad1125429aabeb7913f1104",
          "function": "getSenderHooks()",
          "arguments": [],
          "transaction": {
            "from": "0x8454d149beb26e3e3fc5ed1c87fb0b2a1b7b6c2c",
            "to": "0x9114d9e95243a4066ad1125429aabeb7913f1104",
            "gas": "0xa5f1",
            "value": "0x0",
            "input": "0xe09df825",
            "nonce": "0x3b5",
            "chainId": "0x14a34"
          },
          "additionalContracts": [],
          "isFixedGasLimit": false
        },
        {
          "hash": "0xe908129d721d1aa7de499f81f72716a4564039a578bac1c4b75f465f6ede873d",
          "transactionType": "CALL",
          "contractName": null,
          "contractAddress": "0x9114d9e95243a4066ad1125429aabeb7913f1104",
          "function": "allowlistedSenders(address)",
          "arguments": [
            "0xeB5fA729acf79123A4826C88151076Ee0562Fc56"
          ],
          "transaction": {
            "from": "0x8454d149beb26e3e3fc5ed1c87fb0b2a1b7b6c2c",
            "to": "0x9114d9e95243a4066ad1125429aabeb7913f1104",
            "gas": "0xb2c0",
            "value": "0x0",
            "input": "0x6159ada1000000000000000000000000eb5fa729acf79123a4826c88151076ee0562fc56",
            "nonce": "0x3b6",
            "chainId": "0x14a34"
          },
          "additionalContracts": [],
          "isFixedGasLimit": false
        },
        {
          "hash": "0xbf6ed3594934efb069ad14c195b3a0659c1a61ef0c10814ca022c0aa3f127a6c",
          "transactionType": "CALL",
          "contractName": null,
          "contractAddress": "0x9114d9e95243a4066ad1125429aabeb7913f1104",
          "function": "allowlistedSourceChains(uint64)",
          "arguments": [
            "16015286601757825753"
          ],
          "transaction": {
            "from": "0x8454d149beb26e3e3fc5ed1c87fb0b2a1b7b6c2c",
            "to": "0x9114d9e95243a4066ad1125429aabeb7913f1104",
            "gas": "0xa850",
            "value": "0x0",
            "input": "0x4030d521000000000000000000000000000000000000000000000000de41ba4fc9d91ad9",
            "nonce": "0x3b7",
            "chainId": "0x14a34"
          },
          "additionalContracts": [],
          "isFixedGasLimit": false
        },
        {
          "hash": "0xfc7649aa37031d15b6debf1e9a466e20faf223e57def03c884347b41ee7482d1",
          "transactionType": "CALL",
          "contractName": null,
          "contractAddress": "0x9114d9e95243a4066ad1125429aabeb7913f1104",
          "function": "allowlistedDestinationChains(uint64)",
          "arguments": [
            "16015286601757825753"
          ],
          "transaction": {
            "from": "0x8454d149beb26e3e3fc5ed1c87fb0b2a1b7b6c2c",
            "to": "0x9114d9e95243a4066ad1125429aabeb7913f1104",
            "gas": "0xb236",
            "value": "0x0",
            "input": "0x75c67c66000000000000000000000000000000000000000000000000de41ba4fc9d91ad9",
            "nonce": "0x3b8",
            "chainId": "0x14a34"
          },
          "additionalContracts": [],
          "isFixedGasLimit": false
        }
      ],
      "receipts": [
        {
          "status": "0x1",
          "cumulativeGasUsed": "0x6d79b",
          "logs": [],
          "logsBloom": "0x00000000000000000000000000000000000000000000000000000000000000000000000000000000000000000000000000000000000000000000000000000000000000000000000000000000000000000000000000000000000000000000000000000000000000000000000000000000000000000000000000000000000000000000000000000000000000000000000000000000000000000000000000000000000000000000000000000000000000000000000000000000000000000000000000000000000000000000000000000000000000000000000000000000000000000000000000000000000000000000000000000000000000000000000000000000",
          "type": "0x2",
          "transactionHash": "0x2f68544e0f89671ab5cb53548bd6f9ff327e39105dafc2dc1af258cdbd490b98",
          "transactionIndex": "0x3",
          "blockHash": "0xf9786cd010a380ea106cc1922a46826e4842f92669134fb6e8f9899560683c46",
          "blockNumber": "0xe6c4c9",
          "gasUsed": "0xd1eb",
          "effectiveGasPrice": "0x9246d0",
          "from": "0x8454d149beb26e3e3fc5ed1c87fb0b2a1b7b6c2c",
          "to": "0x9114d9e95243a4066ad1125429aabeb7913f1104",
          "contractAddress": null,
          "l1BaseFeeScalar": "0x44d",
          "l1BlobBaseFee": "0x1a0f8aa9e8",
          "l1BlobBaseFeeScalar": "0xa118b",
          "l1Fee": "0x6b7a22fd338",
          "l1GasPrice": "0x22e8df4",
          "l1GasUsed": "0x640"
        },
        {
          "status": "0x1",
          "cumulativeGasUsed": "0x7a8d0",
          "logs": [],
          "logsBloom": "0x00000000000000000000000000000000000000000000000000000000000000000000000000000000000000000000000000000000000000000000000000000000000000000000000000000000000000000000000000000000000000000000000000000000000000000000000000000000000000000000000000000000000000000000000000000000000000000000000000000000000000000000000000000000000000000000000000000000000000000000000000000000000000000000000000000000000000000000000000000000000000000000000000000000000000000000000000000000000000000000000000000000000000000000000000000000",
          "type": "0x2",
          "transactionHash": "0x1e38cf5a0e1920dfa8ba43811f79ca5a304c7d594673e551a265d67f7fed4a89",
          "transactionIndex": "0x4",
          "blockHash": "0xf9786cd010a380ea106cc1922a46826e4842f92669134fb6e8f9899560683c46",
          "blockNumber": "0xe6c4c9",
          "gasUsed": "0xd135",
          "effectiveGasPrice": "0x9246d0",
          "from": "0x8454d149beb26e3e3fc5ed1c87fb0b2a1b7b6c2c",
          "to": "0x9114d9e95243a4066ad1125429aabeb7913f1104",
          "contractAddress": null,
          "l1BaseFeeScalar": "0x44d",
          "l1BlobBaseFee": "0x1a0f8aa9e8",
          "l1BlobBaseFeeScalar": "0xa118b",
          "l1Fee": "0x6b7a22fd338",
          "l1GasPrice": "0x22e8df4",
          "l1GasUsed": "0x640"
        },
        {
          "status": "0x1",
          "cumulativeGasUsed": "0x2addd",
          "logs": [],
          "logsBloom": "0x00000000000000000000000000000000000000000000000000000000000000000000000000000000000000000000000000000000000000000000000000000000000000000000000000000000000000000000000000000000000000000000000000000000000000000000000000000000000000000000000000000000000000000000000000000000000000000000000000000000000000000000000000000000000000000000000000000000000000000000000000000000000000000000000000000000000000000000000000000000000000000000000000000000000000000000000000000000000000000000000000000000000000000000000000000000",
          "type": "0x2",
          "transactionHash": "0x27b717fc0bc02c163b8a36034697b1235e394bc948184fec3780500c3f0acf6a",
          "transactionIndex": "0x2",
          "blockHash": "0x0ea732a199dce05b317de9642be91b8ae8be31e079506282619b8ea47ac093ce",
          "blockNumber": "0xe6c4ca",
          "gasUsed": "0x8390",
          "effectiveGasPrice": "0x91d576",
          "from": "0x8454d149beb26e3e3fc5ed1c87fb0b2a1b7b6c2c",
          "to": "0x9114d9e95243a4066ad1125429aabeb7913f1104",
          "contractAddress": null,
          "l1BaseFeeScalar": "0x44d",
          "l1BlobBaseFee": "0x1817b7d5fd",
          "l1BlobBaseFeeScalar": "0xa118b",
          "l1Fee": "0x635c5173cf5",
          "l1GasPrice": "0x20a5fa0",
          "l1GasUsed": "0x640"
        },
        {
          "status": "0x1",
          "cumulativeGasUsed": "0x3c5d3",
          "logs": [
            {
              "address": "0x1b753398d85943670a9335132707173492365602",
              "topics": [
                "0xed4c89b805f4efb58bc4a42b9a3c6f09783f619295a1fa41ab46d6190c8c7f3b",
                "0xe7a050aa00000000000000000000000000000000000000000000000000000000",
                "0x0000000000000000000000000000000000000000000000000000000000200b20"
              ],
              "data": "0x",
              "blockHash": "0x0ea732a199dce05b317de9642be91b8ae8be31e079506282619b8ea47ac093ce",
              "blockNumber": "0xe6c4ca",
              "transactionHash": "0xe994fc85f2ddda94f547c26bde6513920d17984bd7019f4efb7780a9e8f3954d",
              "transactionIndex": "0x3",
              "logIndex": "0x1",
              "removed": false
            },
            {
              "address": "0x1b753398d85943670a9335132707173492365602",
              "topics": [
                "0xed4c89b805f4efb58bc4a42b9a3c6f09783f619295a1fa41ab46d6190c8c7f3b",
                "0xcc15a55700000000000000000000000000000000000000000000000000000000",
                "0x000000000000000000000000000000000000000000000000000000000016e360"
              ],
              "data": "0x",
              "blockHash": "0x0ea732a199dce05b317de9642be91b8ae8be31e079506282619b8ea47ac093ce",
              "blockNumber": "0xe6c4ca",
              "transactionHash": "0xe994fc85f2ddda94f547c26bde6513920d17984bd7019f4efb7780a9e8f3954d",
              "transactionIndex": "0x3",
              "logIndex": "0x2",
              "removed": false
            },
            {
              "address": "0x1b753398d85943670a9335132707173492365602",
              "topics": [
                "0xed4c89b805f4efb58bc4a42b9a3c6f09783f619295a1fa41ab46d6190c8c7f3b",
                "0x0dd8dd0200000000000000000000000000000000000000000000000000000000",
                "0x000000000000000000000000000000000000000000000000000000000008d9a0"
              ],
              "data": "0x",
              "blockHash": "0x0ea732a199dce05b317de9642be91b8ae8be31e079506282619b8ea47ac093ce",
              "blockNumber": "0xe6c4ca",
              "transactionHash": "0xe994fc85f2ddda94f547c26bde6513920d17984bd7019f4efb7780a9e8f3954d",
              "transactionIndex": "0x3",
              "logIndex": "0x3",
              "removed": false
            },
            {
              "address": "0x1b753398d85943670a9335132707173492365602",
              "topics": [
                "0xed4c89b805f4efb58bc4a42b9a3c6f09783f619295a1fa41ab46d6190c8c7f3b",
                "0x60d7faed00000000000000000000000000000000000000000000000000000000",
                "0x00000000000000000000000000000000000000000000000000000000000cd140"
              ],
              "data": "0x",
              "blockHash": "0x0ea732a199dce05b317de9642be91b8ae8be31e079506282619b8ea47ac093ce",
              "blockNumber": "0xe6c4ca",
              "transactionHash": "0xe994fc85f2ddda94f547c26bde6513920d17984bd7019f4efb7780a9e8f3954d",
              "transactionIndex": "0x3",
              "logIndex": "0x4",
              "removed": false
            },
            {
              "address": "0x1b753398d85943670a9335132707173492365602",
              "topics": [
                "0xed4c89b805f4efb58bc4a42b9a3c6f09783f619295a1fa41ab46d6190c8c7f3b",
                "0xeea9064b00000000000000000000000000000000000000000000000000000000",
                "0x000000000000000000000000000000000000000000000000000000000009eb10"
              ],
              "data": "0x",
              "blockHash": "0x0ea732a199dce05b317de9642be91b8ae8be31e079506282619b8ea47ac093ce",
              "blockNumber": "0xe6c4ca",
              "transactionHash": "0xe994fc85f2ddda94f547c26bde6513920d17984bd7019f4efb7780a9e8f3954d",
              "transactionIndex": "0x3",
              "logIndex": "0x5",
              "removed": false
            },
            {
              "address": "0x1b753398d85943670a9335132707173492365602",
              "topics": [
                "0xed4c89b805f4efb58bc4a42b9a3c6f09783f619295a1fa41ab46d6190c8c7f3b",
                "0xda8be86400000000000000000000000000000000000000000000000000000000",
                "0x0000000000000000000000000000000000000000000000000000000000061a80"
              ],
              "data": "0x",
              "blockHash": "0x0ea732a199dce05b317de9642be91b8ae8be31e079506282619b8ea47ac093ce",
              "blockNumber": "0xe6c4ca",
              "transactionHash": "0xe994fc85f2ddda94f547c26bde6513920d17984bd7019f4efb7780a9e8f3954d",
              "transactionIndex": "0x3",
              "logIndex": "0x6",
              "removed": false
            }
          ],
          "logsBloom": "0x00000000000000000040000000000000000000002800000000000100004000000000000000008000000800000040000008000000200000000000000008000010000000000400000040000000000000040002000000000000080000000000000000000010000000000000000002000004810000000002000000000000000001040000110000800000008000000000000000000000000000000000000000000000000000000000000008000000002000000000000008800000000000000000400400000000000000000008001000000000000000000000100000100000000000000000000000000000000000000000000000800000000000000000010000000000",
          "type": "0x2",
          "transactionHash": "0xe994fc85f2ddda94f547c26bde6513920d17984bd7019f4efb7780a9e8f3954d",
          "transactionIndex": "0x3",
          "blockHash": "0x0ea732a199dce05b317de9642be91b8ae8be31e079506282619b8ea47ac093ce",
          "blockNumber": "0xe6c4ca",
          "gasUsed": "0x117f6",
          "effectiveGasPrice": "0x91d576",
          "from": "0x8454d149beb26e3e3fc5ed1c87fb0b2a1b7b6c2c",
          "to": "0x1b753398d85943670a9335132707173492365602",
          "contractAddress": null,
          "l1BaseFeeScalar": "0x44d",
          "l1BlobBaseFee": "0x1817b7d5fd",
          "l1BlobBaseFeeScalar": "0xa118b",
          "l1Fee": "0xa1519e1efe4",
          "l1GasPrice": "0x20a5fa0",
          "l1GasUsed": "0xa25"
        },
        {
          "status": "0x1",
          "cumulativeGasUsed": "0x448e8",
          "logs": [],
          "logsBloom": "0x00000000000000000000000000000000000000000000000000000000000000000000000000000000000000000000000000000000000000000000000000000000000000000000000000000000000000000000000000000000000000000000000000000000000000000000000000000000000000000000000000000000000000000000000000000000000000000000000000000000000000000000000000000000000000000000000000000000000000000000000000000000000000000000000000000000000000000000000000000000000000000000000000000000000000000000000000000000000000000000000000000000000000000000000000000000",
          "type": "0x2",
          "transactionHash": "0xf9ecbc05eccfc77b71d26db992f1fb4a028c9b11b4c140c6a8bc4ca42c14e300",
          "transactionIndex": "0x4",
          "blockHash": "0x0ea732a199dce05b317de9642be91b8ae8be31e079506282619b8ea47ac093ce",
          "blockNumber": "0xe6c4ca",
          "gasUsed": "0x8315",
          "effectiveGasPrice": "0x91d576",
          "from": "0x8454d149beb26e3e3fc5ed1c87fb0b2a1b7b6c2c",
          "to": "0x1b753398d85943670a9335132707173492365602",
          "contractAddress": null,
          "l1BaseFeeScalar": "0x44d",
          "l1BlobBaseFee": "0x1817b7d5fd",
          "l1BlobBaseFeeScalar": "0xa118b",
          "l1Fee": "0x635c5173cf5",
          "l1GasPrice": "0x20a5fa0",
          "l1GasUsed": "0x640"
        },
        {
          "status": "0x1",
          "cumulativeGasUsed": "0x4c10c",
          "logs": [],
          "logsBloom": "0x00000000000000000000000000000000000000000000000000000000000000000000000000000000000000000000000000000000000000000000000000000000000000000000000000000000000000000000000000000000000000000000000000000000000000000000000000000000000000000000000000000000000000000000000000000000000000000000000000000000000000000000000000000000000000000000000000000000000000000000000000000000000000000000000000000000000000000000000000000000000000000000000000000000000000000000000000000000000000000000000000000000000000000000000000000000",
          "type": "0x2",
          "transactionHash": "0xa61dae7e4f4bc53e995b131f402d72fa9c96850f69082871c2efcf12dfbf8f7a",
          "transactionIndex": "0x5",
          "blockHash": "0x0ea732a199dce05b317de9642be91b8ae8be31e079506282619b8ea47ac093ce",
          "blockNumber": "0xe6c4ca",
          "gasUsed": "0x7824",
          "effectiveGasPrice": "0x91d576",
          "from": "0x8454d149beb26e3e3fc5ed1c87fb0b2a1b7b6c2c",
          "to": "0x9114d9e95243a4066ad1125429aabeb7913f1104",
          "contractAddress": null,
          "l1BaseFeeScalar": "0x44d",
          "l1BlobBaseFee": "0x1817b7d5fd",
          "l1BlobBaseFeeScalar": "0xa118b",
          "l1Fee": "0x635c5173cf5",
          "l1GasPrice": "0x20a5fa0",
          "l1GasUsed": "0x640"
        },
        {
          "status": "0x1",
          "cumulativeGasUsed": "0x53b45",
          "logs": [],
          "logsBloom": "0x00000000000000000000000000000000000000000000000000000000000000000000000000000000000000000000000000000000000000000000000000000000000000000000000000000000000000000000000000000000000000000000000000000000000000000000000000000000000000000000000000000000000000000000000000000000000000000000000000000000000000000000000000000000000000000000000000000000000000000000000000000000000000000000000000000000000000000000000000000000000000000000000000000000000000000000000000000000000000000000000000000000000000000000000000000000",
          "type": "0x2",
          "transactionHash": "0xe908129d721d1aa7de499f81f72716a4564039a578bac1c4b75f465f6ede873d",
          "transactionIndex": "0x6",
          "blockHash": "0x0ea732a199dce05b317de9642be91b8ae8be31e079506282619b8ea47ac093ce",
          "blockNumber": "0xe6c4ca",
          "gasUsed": "0x7a39",
          "effectiveGasPrice": "0x91d576",
          "from": "0x8454d149beb26e3e3fc5ed1c87fb0b2a1b7b6c2c",
          "to": "0x9114d9e95243a4066ad1125429aabeb7913f1104",
          "contractAddress": null,
          "l1BaseFeeScalar": "0x44d",
          "l1BlobBaseFee": "0x1817b7d5fd",
          "l1BlobBaseFeeScalar": "0xa118b",
          "l1Fee": "0x635c5173cf5",
          "l1GasPrice": "0x20a5fa0",
          "l1GasUsed": "0x640"
        },
        {
          "status": "0x1",
          "cumulativeGasUsed": "0x5b521",
          "logs": [],
          "logsBloom": "0x00000000000000000000000000000000000000000000000000000000000000000000000000000000000000000000000000000000000000000000000000000000000000000000000000000000000000000000000000000000000000000000000000000000000000000000000000000000000000000000000000000000000000000000000000000000000000000000000000000000000000000000000000000000000000000000000000000000000000000000000000000000000000000000000000000000000000000000000000000000000000000000000000000000000000000000000000000000000000000000000000000000000000000000000000000000",
          "type": "0x2",
          "transactionHash": "0xbf6ed3594934efb069ad14c195b3a0659c1a61ef0c10814ca022c0aa3f127a6c",
          "transactionIndex": "0x7",
          "blockHash": "0x0ea732a199dce05b317de9642be91b8ae8be31e079506282619b8ea47ac093ce",
          "blockNumber": "0xe6c4ca",
          "gasUsed": "0x79dc",
          "effectiveGasPrice": "0x91d576",
          "from": "0x8454d149beb26e3e3fc5ed1c87fb0b2a1b7b6c2c",
          "to": "0x9114d9e95243a4066ad1125429aabeb7913f1104",
          "contractAddress": null,
          "l1BaseFeeScalar": "0x44d",
          "l1BlobBaseFee": "0x1817b7d5fd",
          "l1BlobBaseFeeScalar": "0xa118b",
          "l1Fee": "0x635c5173cf5",
          "l1GasPrice": "0x20a5fa0",
          "l1GasUsed": "0x640"
        },
        {
          "status": "0x1",
          "cumulativeGasUsed": "0x62efc",
          "logs": [],
          "logsBloom": "0x00000000000000000000000000000000000000000000000000000000000000000000000000000000000000000000000000000000000000000000000000000000000000000000000000000000000000000000000000000000000000000000000000000000000000000000000000000000000000000000000000000000000000000000000000000000000000000000000000000000000000000000000000000000000000000000000000000000000000000000000000000000000000000000000000000000000000000000000000000000000000000000000000000000000000000000000000000000000000000000000000000000000000000000000000000000",
          "type": "0x2",
          "transactionHash": "0xfc7649aa37031d15b6debf1e9a466e20faf223e57def03c884347b41ee7482d1",
          "transactionIndex": "0x8",
          "blockHash": "0x0ea732a199dce05b317de9642be91b8ae8be31e079506282619b8ea47ac093ce",
          "blockNumber": "0xe6c4ca",
          "gasUsed": "0x79db",
          "effectiveGasPrice": "0x91d576",
          "from": "0x8454d149beb26e3e3fc5ed1c87fb0b2a1b7b6c2c",
          "to": "0x9114d9e95243a4066ad1125429aabeb7913f1104",
          "contractAddress": null,
          "l1BaseFeeScalar": "0x44d",
          "l1BlobBaseFee": "0x1817b7d5fd",
          "l1BlobBaseFeeScalar": "0xa118b",
          "l1Fee": "0x635c5173cf5",
          "l1GasPrice": "0x20a5fa0",
          "l1GasUsed": "0x640"
        }
      ],
      "libraries": [],
      "pending": [],
      "returns": {},
      "timestamp": 1726015600,
      "chain": 84532,
      "commit": "1ba2034"
    },
    {
      "transactions": [
        {
          "hash": "0x3071413bc02a0b2ec2a02ee2fc5d0ca0b8569123893f32c34945e50cd127e311",
          "transactionType": "CALL",
          "contractName": null,
          "contractAddress": "0xeb5fa729acf79123a4826c88151076ee0562fc56",
          "function": "allowlistSender(address,bool)",
          "arguments": [
            "0x9114d9e95243A4066ad1125429AAbeB7913F1104",
            "true"
          ],
          "transaction": {
            "from": "0x8454d149beb26e3e3fc5ed1c87fb0b2a1b7b6c2c",
            "to": "0xeb5fa729acf79123a4826c88151076ee0562fc56",
            "gas": "0xc131",
            "value": "0x0",
            "input": "0xeab5b02c0000000000000000000000009114d9e95243a4066ad1125429aabeb7913f11040000000000000000000000000000000000000000000000000000000000000001",
            "nonce": "0x5e6",
            "chainId": "0xaa36a7"
          },
          "additionalContracts": [],
          "isFixedGasLimit": false
        },
        {
          "hash": "0x2dba947c747e8166b3c62a875d0b1b4720f2a8cd77c76dcd106f4327bf4113ef",
          "transactionType": "CALL",
          "contractName": null,
          "contractAddress": "0xeb5fa729acf79123a4826c88151076ee0562fc56",
          "function": "allowlistSourceChain(uint64,bool)",
          "arguments": [
            "10344971235874465080",
            "true"
          ],
          "transaction": {
            "from": "0x8454d149beb26e3e3fc5ed1c87fb0b2a1b7b6c2c",
            "to": "0xeb5fa729acf79123a4826c88151076ee0562fc56",
            "gas": "0xc047",
            "value": "0x0",
            "input": "0xdb04fa490000000000000000000000000000000000000000000000008f90b8876dee65380000000000000000000000000000000000000000000000000000000000000001",
            "nonce": "0x5e7",
            "chainId": "0xaa36a7"
          },
          "additionalContracts": [],
          "isFixedGasLimit": false
        },
        {
          "hash": "0xc24504db07368e623d634448a14942ef480e2d9e20c651b101a0019428aee5b9",
          "transactionType": "CALL",
          "contractName": null,
          "contractAddress": "0xeb5fa729acf79123a4826c88151076ee0562fc56",
          "function": "allowlistSourceChain(uint64,bool)",
          "arguments": [
            "16015286601757825753",
            "true"
          ],
          "transaction": {
            "from": "0x8454d149beb26e3e3fc5ed1c87fb0b2a1b7b6c2c",
            "to": "0xeb5fa729acf79123a4826c88151076ee0562fc56",
            "gas": "0xc047",
            "value": "0x0",
            "input": "0xdb04fa49000000000000000000000000000000000000000000000000de41ba4fc9d91ad90000000000000000000000000000000000000000000000000000000000000001",
            "nonce": "0x5e8",
            "chainId": "0xaa36a7"
          },
          "additionalContracts": [],
          "isFixedGasLimit": false
        },
        {
          "hash": "0xd9b889299dfe374d69586b15ce6cf23f2faf83ca9af266cc11141602fc72ac37",
          "transactionType": "CALL",
          "contractName": null,
          "contractAddress": "0xeb5fa729acf79123a4826c88151076ee0562fc56",
          "function": "allowlistDestinationChain(uint64,bool)",
          "arguments": [
            "10344971235874465080",
            "true"
          ],
          "transaction": {
            "from": "0x8454d149beb26e3e3fc5ed1c87fb0b2a1b7b6c2c",
            "to": "0xeb5fa729acf79123a4826c88151076ee0562fc56",
            "gas": "0xc0c9",
            "value": "0x0",
            "input": "0x96d3b83d0000000000000000000000000000000000000000000000008f90b8876dee65380000000000000000000000000000000000000000000000000000000000000001",
            "nonce": "0x5e9",
            "chainId": "0xaa36a7"
          },
          "additionalContracts": [],
          "isFixedGasLimit": false
        },
        {
          "hash": "0xba734b295aa85d3867c5d52e169b03c31161c26bcee20e7995da150117b63158",
          "transactionType": "CALL",
          "contractName": null,
          "contractAddress": "0x61985879af16e295a176f9fd47cc94dfdb096195",
          "function": "setGasLimitsForFunctionSelectors(bytes4[],uint256[])",
          "arguments": [
            "[0xd8a85b48]",
            "[295000]"
          ],
          "transaction": {
            "from": "0x8454d149beb26e3e3fc5ed1c87fb0b2a1b7b6c2c",
            "to": "0x61985879af16e295a176f9fd47cc94dfdb096195",
            "gas": "0xd752",
            "value": "0x0",
            "input": "0x3ef2d377000000000000000000000000000000000000000000000000000000000000004000000000000000000000000000000000000000000000000000000000000000800000000000000000000000000000000000000000000000000000000000000001d8a85b480000000000000000000000000000000000000000000000000000000000000000000000000000000000000000000000000000000000000000000000010000000000000000000000000000000000000000000000000000000000048058",
            "nonce": "0x5ea",
            "chainId": "0xaa36a7"
          },
          "additionalContracts": [],
          "isFixedGasLimit": false
        },
        {
          "hash": "0x1d363bace53c4ba581bf55ba59ce38a3473655df0bcd9b886e7d281c47258616",
          "transactionType": "CALL",
          "contractName": null,
          "contractAddress": "0x66bce6a7849a2ed6cfc1eb487bb6e0851b981c5d",
          "function": "getAgentFactory()",
          "arguments": [],
          "transaction": {
            "from": "0x8454d149beb26e3e3fc5ed1c87fb0b2a1b7b6c2c",
            "to": "0x66bce6a7849a2ed6cfc1eb487bb6e0851b981c5d",
            "gas": "0xafd4",
            "value": "0x0",
            "input": "0xf3b372de",
            "nonce": "0x5eb",
            "chainId": "0xaa36a7"
          },
          "additionalContracts": [],
          "isFixedGasLimit": false
        }
      ],
      "receipts": [
        {
          "status": "0x1",
          "cumulativeGasUsed": "0x15a4d88",
          "logs": [],
          "logsBloom": "0x00000000000000000000000000000000000000000000000000000000000000000000000000000000000000000000000000000000000000000000000000000000000000000000000000000000000000000000000000000000000000000000000000000000000000000000000000000000000000000000000000000000000000000000000000000000000000000000000000000000000000000000000000000000000000000000000000000000000000000000000000000000000000000000000000000000000000000000000000000000000000000000000000000000000000000000000000000000000000000000000000000000000000000000000000000000",
          "type": "0x2",
          "transactionHash": "0x3071413bc02a0b2ec2a02ee2fc5d0ca0b8569123893f32c34945e50cd127e311",
          "transactionIndex": "0x64",
          "blockHash": "0xd7a32d793402480e658cd85d508a7a7f1067d48a90c95d762a956bae2c69aa06",
          "blockNumber": "0x65c494",
          "gasUsed": "0x8419",
          "effectiveGasPrice": "0x227fe18",
          "from": "0x8454d149beb26e3e3fc5ed1c87fb0b2a1b7b6c2c",
          "to": "0xeb5fa729acf79123a4826c88151076ee0562fc56",
          "contractAddress": null
        },
        {
          "status": "0x1",
          "cumulativeGasUsed": "0x15ad101",
          "logs": [],
          "logsBloom": "0x00000000000000000000000000000000000000000000000000000000000000000000000000000000000000000000000000000000000000000000000000000000000000000000000000000000000000000000000000000000000000000000000000000000000000000000000000000000000000000000000000000000000000000000000000000000000000000000000000000000000000000000000000000000000000000000000000000000000000000000000000000000000000000000000000000000000000000000000000000000000000000000000000000000000000000000000000000000000000000000000000000000000000000000000000000000",
          "type": "0x2",
          "transactionHash": "0x2dba947c747e8166b3c62a875d0b1b4720f2a8cd77c76dcd106f4327bf4113ef",
          "transactionIndex": "0x65",
          "blockHash": "0xd7a32d793402480e658cd85d508a7a7f1067d48a90c95d762a956bae2c69aa06",
          "blockNumber": "0x65c494",
          "gasUsed": "0x8379",
          "effectiveGasPrice": "0x227fe18",
          "from": "0x8454d149beb26e3e3fc5ed1c87fb0b2a1b7b6c2c",
          "to": "0xeb5fa729acf79123a4826c88151076ee0562fc56",
          "contractAddress": null
        },
        {
          "status": "0x1",
          "cumulativeGasUsed": "0x15b547a",
          "logs": [],
          "logsBloom": "0x00000000000000000000000000000000000000000000000000000000000000000000000000000000000000000000000000000000000000000000000000000000000000000000000000000000000000000000000000000000000000000000000000000000000000000000000000000000000000000000000000000000000000000000000000000000000000000000000000000000000000000000000000000000000000000000000000000000000000000000000000000000000000000000000000000000000000000000000000000000000000000000000000000000000000000000000000000000000000000000000000000000000000000000000000000000",
          "type": "0x2",
          "transactionHash": "0xc24504db07368e623d634448a14942ef480e2d9e20c651b101a0019428aee5b9",
          "transactionIndex": "0x66",
          "blockHash": "0xd7a32d793402480e658cd85d508a7a7f1067d48a90c95d762a956bae2c69aa06",
          "blockNumber": "0x65c494",
          "gasUsed": "0x8379",
          "effectiveGasPrice": "0x227fe18",
          "from": "0x8454d149beb26e3e3fc5ed1c87fb0b2a1b7b6c2c",
          "to": "0xeb5fa729acf79123a4826c88151076ee0562fc56",
          "contractAddress": null
        },
        {
          "status": "0x1",
          "cumulativeGasUsed": "0x15bd84c",
          "logs": [],
          "logsBloom": "0x00000000000000000000000000000000000000000000000000000000000000000000000000000000000000000000000000000000000000000000000000000000000000000000000000000000000000000000000000000000000000000000000000000000000000000000000000000000000000000000000000000000000000000000000000000000000000000000000000000000000000000000000000000000000000000000000000000000000000000000000000000000000000000000000000000000000000000000000000000000000000000000000000000000000000000000000000000000000000000000000000000000000000000000000000000000",
          "type": "0x2",
          "transactionHash": "0xd9b889299dfe374d69586b15ce6cf23f2faf83ca9af266cc11141602fc72ac37",
          "transactionIndex": "0x67",
          "blockHash": "0xd7a32d793402480e658cd85d508a7a7f1067d48a90c95d762a956bae2c69aa06",
          "blockNumber": "0x65c494",
          "gasUsed": "0x83d2",
          "effectiveGasPrice": "0x227fe18",
          "from": "0x8454d149beb26e3e3fc5ed1c87fb0b2a1b7b6c2c",
          "to": "0xeb5fa729acf79123a4826c88151076ee0562fc56",
          "contractAddress": null
        },
        {
          "status": "0x1",
          "cumulativeGasUsed": "0x15c7430",
          "logs": [
            {
              "address": "0x61985879af16e295a176f9fd47cc94dfdb096195",
              "topics": [
                "0xed4c89b805f4efb58bc4a42b9a3c6f09783f619295a1fa41ab46d6190c8c7f3b",
                "0xd8a85b4800000000000000000000000000000000000000000000000000000000",
                "0x0000000000000000000000000000000000000000000000000000000000048058"
              ],
              "data": "0x",
              "blockHash": "0xd7a32d793402480e658cd85d508a7a7f1067d48a90c95d762a956bae2c69aa06",
              "blockNumber": "0x65c494",
              "transactionHash": "0xba734b295aa85d3867c5d52e169b03c31161c26bcee20e7995da150117b63158",
              "transactionIndex": "0x68",
              "logIndex": "0xaf",
              "removed": false
            }
          ],
          "logsBloom": "0x00000000000000000040000000000000000000000800000000000200000000000000000000000000000000000000000000000000000000000000000000000000000000000000000000000000000000000800000000000000000000000000000000000000000000000000000000000000800020000000040000000000000000000000000000000000000000001000000000000000000000000000000000000000000000000000000000010000000000000000000000000000000000000000000000000000000000000000000000040000000000000000000000000000000000000000000000000000000000020000000000000000000000002000000000000000",
          "type": "0x2",
          "transactionHash": "0xba734b295aa85d3867c5d52e169b03c31161c26bcee20e7995da150117b63158",
          "transactionIndex": "0x68",
          "blockHash": "0xd7a32d793402480e658cd85d508a7a7f1067d48a90c95d762a956bae2c69aa06",
          "blockNumber": "0x65c494",
          "gasUsed": "0x9be4",
          "effectiveGasPrice": "0x227fe18",
          "from": "0x8454d149beb26e3e3fc5ed1c87fb0b2a1b7b6c2c",
          "to": "0x61985879af16e295a176f9fd47cc94dfdb096195",
          "contractAddress": null
        },
        {
          "status": "0x1",
          "cumulativeGasUsed": "0x15cec6a",
          "logs": [],
          "logsBloom": "0x00000000000000000000000000000000000000000000000000000000000000000000000000000000000000000000000000000000000000000000000000000000000000000000000000000000000000000000000000000000000000000000000000000000000000000000000000000000000000000000000000000000000000000000000000000000000000000000000000000000000000000000000000000000000000000000000000000000000000000000000000000000000000000000000000000000000000000000000000000000000000000000000000000000000000000000000000000000000000000000000000000000000000000000000000000000",
          "type": "0x2",
          "transactionHash": "0x1d363bace53c4ba581bf55ba59ce38a3473655df0bcd9b886e7d281c47258616",
          "transactionIndex": "0x69",
          "blockHash": "0xd7a32d793402480e658cd85d508a7a7f1067d48a90c95d762a956bae2c69aa06",
          "blockNumber": "0x65c494",
          "gasUsed": "0x783a",
          "effectiveGasPrice": "0x227fe18",
          "from": "0x8454d149beb26e3e3fc5ed1c87fb0b2a1b7b6c2c",
          "to": "0x66bce6a7849a2ed6cfc1eb487bb6e0851b981c5d",
          "contractAddress": null
        }
      ],
      "libraries": [],
      "pending": [],
      "returns": {},
      "timestamp": 1726015601,
      "chain": 11155111,
      "commit": "1ba2034"
    }
  ],
  "timestamp": 1726015626
}