{
  "deployments": [
    {
      "transactions": [
        {
          "hash": "0x6ba09a8d38bb9cf4f65a5f32a50848efd3c7ee4aa762f08149d7b85c3eaf7921",
          "transactionType": "CALL",
          "contractName": null,
          "contractAddress": "0x2ee92a6e9afb0e94937f9020df3bd6203f73d24a",
          "function": "allowlistSender(uint64,address,bool)",
          "arguments": [
            "16015286601757825753",
            "0x390225c015FfB24E18bdca2E1DdF87367e62c049",
            "true"
          ],
          "transaction": {
            "from": "0x8454d149beb26e3e3fc5ed1c87fb0b2a1b7b6c2c",
            "to": "0x2ee92a6e9afb0e94937f9020df3bd6203f73d24a",
            "gas": "0xb9d0",
            "value": "0x0",
            "input": "0xf039a009000000000000000000000000000000000000000000000000de41ba4fc9d91ad9000000000000000000000000390225c015ffb24e18bdca2e1ddf87367e62c0490000000000000000000000000000000000000000000000000000000000000001",
            "nonce": "0x5f0",
            "chainId": "0x14a34"
          },
          "additionalContracts": [],
          "isFixedGasLimit": false
        },
        {
          "hash": "0x06eb667f2a617de4371fddc97463c880cc07a6f533bcce54443ff51ac6db5952",
          "transactionType": "CALL",
          "contractName": null,
          "contractAddress": "0x2ee92a6e9afb0e94937f9020df3bd6203f73d24a",
          "function": "allowlistSourceChain(uint64,bool)",
          "arguments": [
            "10344971235874465080",
            "true"
          ],
          "transaction": {
            "from": "0x8454d149beb26e3e3fc5ed1c87fb0b2a1b7b6c2c",
            "to": "0x2ee92a6e9afb0e94937f9020df3bd6203f73d24a",
            "gas": "0xb3da",
            "value": "0x0",
            "input": "0xdb04fa490000000000000000000000000000000000000000000000008f90b8876dee65380000000000000000000000000000000000000000000000000000000000000001",
            "nonce": "0x5f1",
            "chainId": "0x14a34"
          },
          "additionalContracts": [],
          "isFixedGasLimit": false
        },
        {
          "hash": "0x3f50337d67bd5aa3643d21149fd6476adbbaa19a9db10be0263ae06231c59bcc",
          "transactionType": "CALL",
          "contractName": null,
          "contractAddress": "0x2ee92a6e9afb0e94937f9020df3bd6203f73d24a",
          "function": "allowlistDestinationChain(uint64,bool)",
          "arguments": [
            "16015286601757825753",
            "true"
          ],
          "transaction": {
            "from": "0x8454d149beb26e3e3fc5ed1c87fb0b2a1b7b6c2c",
            "to": "0x2ee92a6e9afb0e94937f9020df3bd6203f73d24a",
            "gas": "0xb3f8",
            "value": "0x0",
            "input": "0x96d3b83d000000000000000000000000000000000000000000000000de41ba4fc9d91ad90000000000000000000000000000000000000000000000000000000000000001",
            "nonce": "0x5f2",
            "chainId": "0x14a34"
          },
          "additionalContracts": [],
          "isFixedGasLimit": false
        },
        {
          "hash": "0x3e97472d2c4fb634263065a2c277f9b0a01fdb8dcc77e9da50fc30999adc1fab",
          "transactionType": "CALL",
          "contractName": null,
          "contractAddress": "0xe04336a5e33451ad56319ff7c09e14e28c65adbe",
          "function": "setGasLimitsForFunctionSelectors(bytes4[],uint256[])",
          "arguments": [
            "[0xe7a050aa, 0xcc15a557, 0x0dd8dd02, 0xe4cc3f90, 0xeea9064b, 0xda8be864, 0x3ccc861d]",
            "[440000, 300000, 580000, 700000, 450000, 440000, 640000]"
          ],
          "transaction": {
            "from": "0x8454d149beb26e3e3fc5ed1c87fb0b2a1b7b6c2c",
            "to": "0xe04336a5e33451ad56319ff7c09e14e28c65adbe",
            "gas": "0x1c85c",
            "value": "0x0",
            "input": "0x3ef2d377000000000000000000000000000000000000000000000000000000000000004000000000000000000000000000000000000000000000000000000000000001400000000000000000000000000000000000000000000000000000000000000007e7a050aa00000000000000000000000000000000000000000000000000000000cc15a557000000000000000000000000000000000000000000000000000000000dd8dd0200000000000000000000000000000000000000000000000000000000e4cc3f9000000000000000000000000000000000000000000000000000000000eea9064b00000000000000000000000000000000000000000000000000000000da8be864000000000000000000000000000000000000000000000000000000003ccc861d000000000000000000000000000000000000000000000000000000000000000000000000000000000000000000000000000000000000000000000007000000000000000000000000000000000000000000000000000000000006b6c000000000000000000000000000000000000000000000000000000000000493e0000000000000000000000000000000000000000000000000000000000008d9a000000000000000000000000000000000000000000000000000000000000aae60000000000000000000000000000000000000000000000000000000000006ddd0000000000000000000000000000000000000000000000000000000000006b6c0000000000000000000000000000000000000000000000000000000000009c400",
            "nonce": "0x5f3",
            "chainId": "0x14a34"
          },
          "additionalContracts": [],
          "isFixedGasLimit": false
        },
        {
          "hash": "0x9ddd93dcc1c6347620b7bc87f6e1131c2fed64fef09ee856f5816103ef4637d9",
          "transactionType": "CALL",
          "contractName": null,
          "contractAddress": "0xe04336a5e33451ad56319ff7c09e14e28c65adbe",
          "function": "setSenderCCIP(address)",
          "arguments": [
            "0x2ee92A6E9aFb0E94937F9020Df3bD6203F73d24A"
          ],
          "transaction": {
            "from": "0x8454d149beb26e3e3fc5ed1c87fb0b2a1b7b6c2c",
            "to": "0xe04336a5e33451ad56319ff7c09e14e28c65adbe",
            "gas": "0xb0d4",
            "value": "0x0",
            "input": "0xd8d6c31a0000000000000000000000002ee92a6e9afb0e94937f9020df3bd6203f73d24a",
            "nonce": "0x5f4",
            "chainId": "0x14a34"
          },
          "additionalContracts": [],
          "isFixedGasLimit": false
        },
        {
          "hash": "0xd248fc88671ad369dcf2ef7d78978cc5f46ca6f0f4e6b2fba0e5a84755df0dba",
          "transactionType": "CALL",
          "contractName": null,
          "contractAddress": "0x2ee92a6e9afb0e94937f9020df3bd6203f73d24a",
          "function": "getSenderHooks()",
          "arguments": [],
          "transaction": {
            "from": "0x8454d149beb26e3e3fc5ed1c87fb0b2a1b7b6c2c",
            "to": "0x2ee92a6e9afb0e94937f9020df3bd6203f73d24a",
            "gas": "0xa4d2",
            "value": "0x0",
            "input": "0xe09df825",
            "nonce": "0x5f5",
            "chainId": "0x14a34"
          },
          "additionalContracts": [],
          "isFixedGasLimit": false
        },
        {
          "hash": "0xeb2a009553c3e587f38beb1c232d2c0f231a8a6528f661031df34ff622d4497e",
          "transactionType": "CALL",
          "contractName": null,
          "contractAddress": "0x2ee92a6e9afb0e94937f9020df3bd6203f73d24a",
          "function": "allowlistedSenders(uint64,address)",
          "arguments": [
            "16015286601757825753",
            "0x390225c015FfB24E18bdca2E1DdF87367e62c049"
          ],
          "transaction": {
            "from": "0x8454d149beb26e3e3fc5ed1c87fb0b2a1b7b6c2c",
            "to": "0x2ee92a6e9afb0e94937f9020df3bd6203f73d24a",
            "gas": "0xa11b",
            "value": "0x0",
            "input": "0x039faeb0000000000000000000000000000000000000000000000000de41ba4fc9d91ad9000000000000000000000000390225c015ffb24e18bdca2e1ddf87367e62c049",
            "nonce": "0x5f6",
            "chainId": "0x14a34"
          },
          "additionalContracts": [],
          "isFixedGasLimit": false
        },
        {
          "hash": "0x5a93a68349331655687c638e89cb2c62f6acbec9d58b3454e08332dc2addf489",
          "transactionType": "CALL",
          "contractName": null,
          "contractAddress": "0x2ee92a6e9afb0e94937f9020df3bd6203f73d24a",
          "function": "allowlistedSourceChains(uint64)",
          "arguments": [
            "16015286601757825753"
          ],
          "transaction": {
            "from": "0x8454d149beb26e3e3fc5ed1c87fb0b2a1b7b6c2c",
            "to": "0x2ee92a6e9afb0e94937f9020df3bd6203f73d24a",
            "gas": "0xa6f6",
            "value": "0x0",
            "input": "0x4030d521000000000000000000000000000000000000000000000000de41ba4fc9d91ad9",
            "nonce": "0x5f7",
            "chainId": "0x14a34"
          },
          "additionalContracts": [],
          "isFixedGasLimit": false
        },
        {
          "hash": "0xf05f7724002bff49552afcfeafe40f454c0f3f4230ea3e4057211a622c848aa5",
          "transactionType": "CALL",
          "contractName": null,
          "contractAddress": "0x2ee92a6e9afb0e94937f9020df3bd6203f73d24a",
          "function": "allowlistedDestinationChains(uint64)",
          "arguments": [
            "16015286601757825753"
          ],
          "transaction": {
            "from": "0x8454d149beb26e3e3fc5ed1c87fb0b2a1b7b6c2c",
            "to": "0x2ee92a6e9afb0e94937f9020df3bd6203f73d24a",
            "gas": "0xa6d3",
            "value": "0x0",
            "input": "0x75c67c66000000000000000000000000000000000000000000000000de41ba4fc9d91ad9",
            "nonce": "0x5f8",
            "chainId": "0x14a34"
          },
          "additionalContracts": [],
          "isFixedGasLimit": false
        }
      ],
      "receipts": [
        {
          "status": "0x1",
          "cumulativeGasUsed": "0x70cea3",
          "logs": [
            {
              "address": "0x2ee92a6e9afb0e94937f9020df3bd6203f73d24a",
              "topics": [
                "0x7341e817a8458e8902ebedbcd9e82db8299e43de630c89ade217662e6cafe906",
                "0x000000000000000000000000000000000000000000000000de41ba4fc9d91ad9",
                "0x000000000000000000000000390225c015ffb24e18bdca2e1ddf87367e62c049"
              ],
              "data": "0x0000000000000000000000000000000000000000000000000000000000000001",
              "blockHash": "0xd99f8f1074500a3068891ac254ca2818e3521efc26e8066e3d738b02ac260bba",
              "blockNumber": "0x15e39f6",
              "transactionHash": "0x6ba09a8d38bb9cf4f65a5f32a50848efd3c7ee4aa762f08149d7b85c3eaf7921",
              "transactionIndex": "0x36",
              "logIndex": "0xab",
              "removed": false
            }
          ],
          "logsBloom": "0x00000400000000000020000000000000000000000000000000000000000000000000000000004000000000000000000000000000000000000000000000010000000000000000000000000000000000000000000000000400000000000000000000000000000000000000000000010000000000000000000000000000008000000000000000000000000000000000000000000020000000000000000000000000000000000000000000000000000000000000000000000000000000000000000000000000000000000000000000000000000000000000000000000000000000002000000000000000000020000000000000000000000001000000000000000010",
          "type": "0x2",
          "transactionHash": "0x6ba09a8d38bb9cf4f65a5f32a50848efd3c7ee4aa762f08149d7b85c3eaf7921",
          "transactionIndex": "0x36",
          "blockHash": "0xd99f8f1074500a3068891ac254ca2818e3521efc26e8066e3d738b02ac260bba",
          "blockNumber": "0x15e39f6",
          "gasUsed": "0x8687",
          "effectiveGasPrice": "0xf472c",
          "from": "0x8454d149beb26e3e3fc5ed1c87fb0b2a1b7b6c2c",
          "to": "0x2ee92a6e9afb0e94937f9020df3bd6203f73d24a",
          "contractAddress": null,
          "l1BaseFeeScalar": "0x44d",
          "l1BlobBaseFee": "0x1",
          "l1BlobBaseFeeScalar": "0xa118b",
          "l1Fee": "0x14fcd02",
          "l1GasPrice": "0xbe9f3f",
          "l1GasUsed": "0x640"
        },
        {
          "status": "0x1",
          "cumulativeGasUsed": "0x7150d9",
          "logs": [
            {
              "address": "0x2ee92a6e9afb0e94937f9020df3bd6203f73d24a",
              "topics": [
                "0xa5f858f3914e62a82af355192513d8dbc618ff9815e7213a71930d8996a3cb82",
                "0x0000000000000000000000000000000000000000000000008f90b8876dee6538"
              ],
              "data": "0x0000000000000000000000000000000000000000000000000000000000000001",
              "blockHash": "0xd99f8f1074500a3068891ac254ca2818e3521efc26e8066e3d738b02ac260bba",
              "blockNumber": "0x15e39f6",
              "transactionHash": "0x06eb667f2a617de4371fddc97463c880cc07a6f533bcce54443ff51ac6db5952",
              "transactionIndex": "0x37",
              "logIndex": "0xac",
              "removed": false
            }
          ],
          "logsBloom": "0x00000000000000000020020000000000000000000000000000000000000000000000000000000000000000000000000000000000000000000000000000000000000000000000000000000000000000000000000400000400000000000000200000000000000000000000100000000000000000000000000000000000008000004000000000000000000000000000000000000000000000000000000000000000000000000000000000000000000000000000000000000000000000000000000000000000000000000000000000000000000000000000000000000000000000000000000000000001000000000000000000000000000000000000000000000000",
          "type": "0x2",
          "transactionHash": "0x06eb667f2a617de4371fddc97463c880cc07a6f533bcce54443ff51ac6db5952",
          "transactionIndex": "0x37",
          "blockHash": "0xd99f8f1074500a3068891ac254ca2818e3521efc26e8066e3d738b02ac260bba",
          "blockNumber": "0x15e39f6",
          "gasUsed": "0x8236",
          "effectiveGasPrice": "0xf472c",
          "from": "0x8454d149beb26e3e3fc5ed1c87fb0b2a1b7b6c2c",
          "to": "0x2ee92a6e9afb0e94937f9020df3bd6203f73d24a",
          "contractAddress": null,
          "l1BaseFeeScalar": "0x44d",
          "l1BlobBaseFee": "0x1",
          "l1BlobBaseFeeScalar": "0xa118b",
          "l1Fee": "0x14fcd02",
          "l1GasPrice": "0xbe9f3f",
          "l1GasUsed": "0x640"
        },
        {
          "status": "0x1",
          "cumulativeGasUsed": "0x87c2b0",
          "logs": [
            {
              "address": "0x2ee92a6e9afb0e94937f9020df3bd6203f73d24a",
              "topics": [
                "0x79e93956b5c7b59cb1d0aaa5849af9993c5b994c44b148b1944f4e4ecf1e9b89",
                "0x000000000000000000000000000000000000000000000000de41ba4fc9d91ad9"
              ],
              "data": "0x0000000000000000000000000000000000000000000000000000000000000001",
              "blockHash": "0xd99f8f1074500a3068891ac254ca2818e3521efc26e8066e3d738b02ac260bba",
              "blockNumber": "0x15e39f6",
              "transactionHash": "0x3f50337d67bd5aa3643d21149fd6476adbbaa19a9db10be0263ae06231c59bcc",
              "transactionIndex": "0x44",
              "logIndex": "0xce",
              "removed": false
            }
          ],
          "logsBloom": "0x00000000000000000020000000000000000000040000000000000000000000000000000000004000000000000000000000000000000000000000000000000000000000000000000000200000000000000000000000000400000000000000000000000000000000000000000000010000000000000000000000000000008000000000000000000000000000000000000000000020000000000000000000000000000000000000000000000000000000000000000000000000000000100000000000000000000000000000000000000000000000000000000000000000000000000000000000000000000000000000000000000000000000000000000000000000",
          "type": "0x2",
          "transactionHash": "0x3f50337d67bd5aa3643d21149fd6476adbbaa19a9db10be0263ae06231c59bcc",
          "transactionIndex": "0x44",
          "blockHash": "0xd99f8f1074500a3068891ac254ca2818e3521efc26e8066e3d738b02ac260bba",
          "blockNumber": "0x15e39f6",
          "gasUsed": "0x824c",
          "effectiveGasPrice": "0xf472c",
          "from": "0x8454d149beb26e3e3fc5ed1c87fb0b2a1b7b6c2c",
          "to": "0x2ee92a6e9afb0e94937f9020df3bd6203f73d24a",
          "contractAddress": null,
          "l1BaseFeeScalar": "0x44d",
          "l1BlobBaseFee": "0x1",
          "l1BlobBaseFeeScalar": "0xa118b",
          "l1Fee": "0x14fcd02",
          "l1GasPrice": "0xbe9f3f",
          "l1GasUsed": "0x640"
        },
        {
          "status": "0x1",
          "cumulativeGasUsed": "0xa43e2f",
          "logs": [
            {
              "address": "0xe04336a5e33451ad56319ff7c09e14e28c65adbe",
              "topics": [
                "0xed4c89b805f4efb58bc4a42b9a3c6f09783f619295a1fa41ab46d6190c8c7f3b",
                "0xe7a050aa00000000000000000000000000000000000000000000000000000000",
                "0x000000000000000000000000000000000000000000000000000000000006b6c0"
              ],
              "data": "0x",
              "blockHash": "0xd99f8f1074500a3068891ac254ca2818e3521efc26e8066e3d738b02ac260bba",
              "blockNumber": "0x15e39f6",
              "transactionHash": "0x3e97472d2c4fb634263065a2c277f9b0a01fdb8dcc77e9da50fc30999adc1fab",
              "transactionIndex": "0x52",
              "logIndex": "0xf7",
              "removed": false
            },
            {
              "address": "0xe04336a5e33451ad56319ff7c09e14e28c65adbe",
              "topics": [
                "0xed4c89b805f4efb58bc4a42b9a3c6f09783f619295a1fa41ab46d6190c8c7f3b",
                "0xcc15a55700000000000000000000000000000000000000000000000000000000",
                "0x00000000000000000000000000000000000000000000000000000000000493e0"
              ],
              "data": "0x",
              "blockHash": "0xd99f8f1074500a3068891ac254ca2818e3521efc26e8066e3d738b02ac260bba",
              "blockNumber": "0x15e39f6",
              "transactionHash": "0x3e97472d2c4fb634263065a2c277f9b0a01fdb8dcc77e9da50fc30999adc1fab",
              "transactionIndex": "0x52",
              "logIndex": "0xf8",
              "removed": false
            },
            {
              "address": "0xe04336a5e33451ad56319ff7c09e14e28c65adbe",
              "topics": [
                "0xed4c89b805f4efb58bc4a42b9a3c6f09783f619295a1fa41ab46d6190c8c7f3b",
                "0x0dd8dd0200000000000000000000000000000000000000000000000000000000",
                "0x000000000000000000000000000000000000000000000000000000000008d9a0"
              ],
              "data": "0x",
              "blockHash": "0xd99f8f1074500a3068891ac254ca2818e3521efc26e8066e3d738b02ac260bba",
              "blockNumber": "0x15e39f6",
              "transactionHash": "0x3e97472d2c4fb634263065a2c277f9b0a01fdb8dcc77e9da50fc30999adc1fab",
              "transactionIndex": "0x52",
              "logIndex": "0xf9",
              "removed": false
            },
            {
              "address": "0xe04336a5e33451ad56319ff7c09e14e28c65adbe",
              "topics": [
                "0xed4c89b805f4efb58bc4a42b9a3c6f09783f619295a1fa41ab46d6190c8c7f3b",
                "0xe4cc3f9000000000000000000000000000000000000000000000000000000000",
                "0x00000000000000000000000000000000000000000000000000000000000aae60"
              ],
              "data": "0x",
              "blockHash": "0xd99f8f1074500a3068891ac254ca2818e3521efc26e8066e3d738b02ac260bba",
              "blockNumber": "0x15e39f6",
              "transactionHash": "0x3e97472d2c4fb634263065a2c277f9b0a01fdb8dcc77e9da50fc30999adc1fab",
              "transactionIndex": "0x52",
              "logIndex": "0xfa",
              "removed": false
            },
            {
              "address": "0xe04336a5e33451ad56319ff7c09e14e28c65adbe",
              "topics": [
                "0xed4c89b805f4efb58bc4a42b9a3c6f09783f619295a1fa41ab46d6190c8c7f3b",
                "0xeea9064b00000000000000000000000000000000000000000000000000000000",
                "0x000000000000000000000000000000000000000000000000000000000006ddd0"
              ],
              "data": "0x",
              "blockHash": "0xd99f8f1074500a3068891ac254ca2818e3521efc26e8066e3d738b02ac260bba",
              "blockNumber": "0x15e39f6",
              "transactionHash": "0x3e97472d2c4fb634263065a2c277f9b0a01fdb8dcc77e9da50fc30999adc1fab",
              "transactionIndex": "0x52",
              "logIndex": "0xfb",
              "removed": false
            },
            {
              "address": "0xe04336a5e33451ad56319ff7c09e14e28c65adbe",
              "topics": [
                "0xed4c89b805f4efb58bc4a42b9a3c6f09783f619295a1fa41ab46d6190c8c7f3b",
                "0xda8be86400000000000000000000000000000000000000000000000000000000",
                "0x000000000000000000000000000000000000000000000000000000000006b6c0"
              ],
              "data": "0x",
              "blockHash": "0xd99f8f1074500a3068891ac254ca2818e3521efc26e8066e3d738b02ac260bba",
              "blockNumber": "0x15e39f6",
              "transactionHash": "0x3e97472d2c4fb634263065a2c277f9b0a01fdb8dcc77e9da50fc30999adc1fab",
              "transactionIndex": "0x52",
              "logIndex": "0xfc",
              "removed": false
            },
            {
              "address": "0xe04336a5e33451ad56319ff7c09e14e28c65adbe",
              "topics": [
                "0xed4c89b805f4efb58bc4a42b9a3c6f09783f619295a1fa41ab46d6190c8c7f3b",
                "0x3ccc861d00000000000000000000000000000000000000000000000000000000",
                "0x000000000000000000000000000000000000000000000000000000000009c400"
              ],
              "data": "0x",
              "blockHash": "0xd99f8f1074500a3068891ac254ca2818e3521efc26e8066e3d738b02ac260bba",
              "blockNumber": "0x15e39f6",
              "transactionHash": "0x3e97472d2c4fb634263065a2c277f9b0a01fdb8dcc77e9da50fc30999adc1fab",
              "transactionIndex": "0x52",
              "logIndex": "0xfd",
              "removed": false
            }
          ],
          "logsBloom": "0x00000000000000000040000000000000000000000800000000000000044000000000000000000000000800000040000008140000000000000000000000000000000000000000000000000000000000044100000000002000080000042004000000000010000000000000000000000000838000000000040000200000000100040010100000800000000000000300000000000000000400000004000000000000000080000000800000000000002000000000000000000000000000000000400500000400000000000008001000000000000000000000100000000000000000020000000000000000000000000000000000000000000000000000010000000000",
          "type": "0x2",
          "transactionHash": "0x3e97472d2c4fb634263065a2c277f9b0a01fdb8dcc77e9da50fc30999adc1fab",
          "transactionIndex": "0x52",
          "blockHash": "0xd99f8f1074500a3068891ac254ca2818e3521efc26e8066e3d738b02ac260bba",
          "blockNumber": "0x15e39f6",
          "gasUsed": "0x14a66",
          "effectiveGasPrice": "0xf472c",
          "from": "0x8454d149beb26e3e3fc5ed1c87fb0b2a1b7b6c2c",
          "to": "0xe04336a5e33451ad56319ff7c09e14e28c65adbe",
          "contractAddress": null,
          "l1BaseFeeScalar": "0x44d",
          "l1BlobBaseFee": "0x1",
          "l1BlobBaseFeeScalar": "0xa118b",
          "l1Fee": "0x242e74a",
          "l1GasPrice": "0xbe9f3f",
          "l1GasUsed": "0xac6"
        },
        {
          "status": "0x1",
          "cumulativeGasUsed": "0xcc389",
          "logs": [
            {
              "address": "0xe04336a5e33451ad56319ff7c09e14e28c65adbe",
              "topics": [
                "0xc200bc994a6761c6c93718eb06df928b16dca3e77b7ce283d09852e260c9b2da",
                "0x0000000000000000000000002ee92a6e9afb0e94937f9020df3bd6203f73d24a"
              ],
              "data": "0x",
              "blockHash": "0xe2e164be88841566e7664582e048b3260402170ce71baeea1cb827b94497ffaf",
              "blockNumber": "0x15e39f7",
              "transactionHash": "0x9ddd93dcc1c6347620b7bc87f6e1131c2fed64fef09ee856f5816103ef4637d9",
              "transactionIndex": "0x7",
              "logIndex": "0x10",
              "removed": false
            }
          ],
          "logsBloom": "0x00000000000000000100000000000000100000040000000000000000000000000000000000000000000000000000000000100000000000000000000000000000000000000000000000000000000000000000000000000000000000000400000000000000000000000000000000000000000000000000000000000000000000000000000000000000000000000200000000000000000000000000000000000000100000000000000000000000000000000000000000000000000000000000000000000400000000000000000000000000000020000000000000000000000000000000000000000000000000000000000000000000000000000000000000000000",
          "type": "0x2",
          "transactionHash": "0x9ddd93dcc1c6347620b7bc87f6e1131c2fed64fef09ee856f5816103ef4637d9",
          "transactionIndex": "0x7",
          "blockHash": "0xe2e164be88841566e7664582e048b3260402170ce71baeea1cb827b94497ffaf",
          "blockNumber": "0x15e39f7",
          "gasUsed": "0x8006",
          "effectiveGasPrice": "0xf472b",
          "from": "0x8454d149beb26e3e3fc5ed1c87fb0b2a1b7b6c2c",
          "to": "0xe04336a5e33451ad56319ff7c09e14e28c65adbe",
          "contractAddress": null,
          "l1BaseFeeScalar": "0x44d",
          "l1BlobBaseFee": "0x1",
          "l1BlobBaseFeeScalar": "0xa118b",
          "l1Fee": "0x14fcd02",
          "l1GasPrice": "0xbe9f3f",
          "l1GasUsed": "0x640"
        },
        {
          "status": "0x1",
          "cumulativeGasUsed": "0xd343c",
          "logs": [],
          "logsBloom": "0x00000000000000000000000000000000000000000000000000000000000000000000000000000000000000000000000000000000000000000000000000000000000000000000000000000000000000000000000000000000000000000000000000000000000000000000000000000000000000000000000000000000000000000000000000000000000000000000000000000000000000000000000000000000000000000000000000000000000000000000000000000000000000000000000000000000000000000000000000000000000000000000000000000000000000000000000000000000000000000000000000000000000000000000000000000000",
          "type": "0x2",
          "transactionHash": "0xd248fc88671ad369dcf2ef7d78978cc5f46ca6f0f4e6b2fba0e5a84755df0dba",
          "transactionIndex": "0x8",
          "blockHash": "0xe2e164be88841566e7664582e048b3260402170ce71baeea1cb827b94497ffaf",
          "blockNumber": "0x15e39f7",
          "gasUsed": "0x70b3",
          "effectiveGasPrice": "0xf472b",
          "from": "0x8454d149beb26e3e3fc5ed1c87fb0b2a1b7b6c2c",
          "to": "0x2ee92a6e9afb0e94937f9020df3bd6203f73d24a",
          "contractAddress": null,
          "l1BaseFeeScalar": "0x44d",
          "l1BlobBaseFee": "0x1",
          "l1BlobBaseFeeScalar": "0xa118b",
          "l1Fee": "0x14fcd02",
          "l1GasPrice": "0xbe9f3f",
          "l1GasUsed": "0x640"
        },
        {
          "status": "0x1",
          "cumulativeGasUsed": "0xda8e0",
          "logs": [],
          "logsBloom": "0x00000000000000000000000000000000000000000000000000000000000000000000000000000000000000000000000000000000000000000000000000000000000000000000000000000000000000000000000000000000000000000000000000000000000000000000000000000000000000000000000000000000000000000000000000000000000000000000000000000000000000000000000000000000000000000000000000000000000000000000000000000000000000000000000000000000000000000000000000000000000000000000000000000000000000000000000000000000000000000000000000000000000000000000000000000000",
          "type": "0x2",
          "transactionHash": "0xeb2a009553c3e587f38beb1c232d2c0f231a8a6528f661031df34ff622d4497e",
          "transactionIndex": "0x9",
          "blockHash": "0xe2e164be88841566e7664582e048b3260402170ce71baeea1cb827b94497ffaf",
          "blockNumber": "0x15e39f7",
          "gasUsed": "0x74a4",
          "effectiveGasPrice": "0xf472b",
          "from": "0x8454d149beb26e3e3fc5ed1c87fb0b2a1b7b6c2c",
          "to": "0x2ee92a6e9afb0e94937f9020df3bd6203f73d24a",
          "contractAddress": null,
          "l1BaseFeeScalar": "0x44d",
          "l1BlobBaseFee": "0x1",
          "l1BlobBaseFeeScalar": "0xa118b",
          "l1Fee": "0x14fcd02",
          "l1GasPrice": "0xbe9f3f",
          "l1GasUsed": "0x640"
        },
        {
          "status": "0x1",
          "cumulativeGasUsed": "0xe1b0a",
          "logs": [],
          "logsBloom": "0x00000000000000000000000000000000000000000000000000000000000000000000000000000000000000000000000000000000000000000000000000000000000000000000000000000000000000000000000000000000000000000000000000000000000000000000000000000000000000000000000000000000000000000000000000000000000000000000000000000000000000000000000000000000000000000000000000000000000000000000000000000000000000000000000000000000000000000000000000000000000000000000000000000000000000000000000000000000000000000000000000000000000000000000000000000000",
          "type": "0x2",
          "transactionHash": "0x5a93a68349331655687c638e89cb2c62f6acbec9d58b3454e08332dc2addf489",
          "transactionIndex": "0xa",
          "blockHash": "0xe2e164be88841566e7664582e048b3260402170ce71baeea1cb827b94497ffaf",
          "blockNumber": "0x15e39f7",
          "gasUsed": "0x722a",
          "effectiveGasPrice": "0xf472b",
          "from": "0x8454d149beb26e3e3fc5ed1c87fb0b2a1b7b6c2c",
          "to": "0x2ee92a6e9afb0e94937f9020df3bd6203f73d24a",
          "contractAddress": null,
          "l1BaseFeeScalar": "0x44d",
          "l1BlobBaseFee": "0x1",
          "l1BlobBaseFeeScalar": "0xa118b",
          "l1Fee": "0x14fcd02",
          "l1GasPrice": "0xbe9f3f",
          "l1GasUsed": "0x640"
        },
        {
          "status": "0x1",
          "cumulativeGasUsed": "0xe8d1c",
          "logs": [],
          "logsBloom": "0x00000000000000000000000000000000000000000000000000000000000000000000000000000000000000000000000000000000000000000000000000000000000000000000000000000000000000000000000000000000000000000000000000000000000000000000000000000000000000000000000000000000000000000000000000000000000000000000000000000000000000000000000000000000000000000000000000000000000000000000000000000000000000000000000000000000000000000000000000000000000000000000000000000000000000000000000000000000000000000000000000000000000000000000000000000000",
          "type": "0x2",
          "transactionHash": "0xf05f7724002bff49552afcfeafe40f454c0f3f4230ea3e4057211a622c848aa5",
          "transactionIndex": "0xb",
          "blockHash": "0xe2e164be88841566e7664582e048b3260402170ce71baeea1cb827b94497ffaf",
          "blockNumber": "0x15e39f7",
          "gasUsed": "0x7212",
          "effectiveGasPrice": "0xf472b",
          "from": "0x8454d149beb26e3e3fc5ed1c87fb0b2a1b7b6c2c",
          "to": "0x2ee92a6e9afb0e94937f9020df3bd6203f73d24a",
          "contractAddress": null,
          "l1BaseFeeScalar": "0x44d",
          "l1BlobBaseFee": "0x1",
          "l1BlobBaseFeeScalar": "0xa118b",
          "l1Fee": "0x14fcd02",
          "l1GasPrice": "0xbe9f3f",
          "l1GasUsed": "0x640"
        }
      ],
      "libraries": [],
      "pending": [],
      "returns": {},
      "timestamp": 1741673162,
      "chain": 84532,
      "commit": "74e6e68"
    },
    {
      "transactions": [
        {
          "hash": "0x0ce3cce82a0c728be6a69679f776955e2c44188ba39deb248234f695187c17cf",
          "transactionType": "CALL",
          "contractName": null,
          "contractAddress": "0x390225c015ffb24e18bdca2e1ddf87367e62c049",
          "function": "allowlistSender(uint64,address,bool)",
          "arguments": [
            "10344971235874465080",
            "0x2ee92A6E9aFb0E94937F9020Df3bD6203F73d24A",
            "true"
          ],
          "transaction": {
            "from": "0x8454d149beb26e3e3fc5ed1c87fb0b2a1b7b6c2c",
            "to": "0x390225c015ffb24e18bdca2e1ddf87367e62c049",
            "gas": "0xc0c9",
            "value": "0x0",
            "input": "0xf039a0090000000000000000000000000000000000000000000000008f90b8876dee65380000000000000000000000002ee92a6e9afb0e94937f9020df3bd6203f73d24a0000000000000000000000000000000000000000000000000000000000000001",
            "nonce": "0x859",
            "chainId": "0xaa36a7"
          },
          "additionalContracts": [],
          "isFixedGasLimit": false
        },
        {
          "hash": "0x2c15bd8724d15a7752a7c54f713f25871b0cb1135d53cf374887455cd0b804a9",
          "transactionType": "CALL",
          "contractName": null,
          "contractAddress": "0x390225c015ffb24e18bdca2e1ddf87367e62c049",
          "function": "allowlistSourceChain(uint64,bool)",
          "arguments": [
            "10344971235874465080",
            "true"
          ],
          "transaction": {
            "from": "0x8454d149beb26e3e3fc5ed1c87fb0b2a1b7b6c2c",
            "to": "0x390225c015ffb24e18bdca2e1ddf87367e62c049",
            "gas": "0xb0f9",
            "value": "0x0",
            "input": "0xdb04fa490000000000000000000000000000000000000000000000008f90b8876dee65380000000000000000000000000000000000000000000000000000000000000001",
            "nonce": "0x85a",
            "chainId": "0xaa36a7"
          },
          "additionalContracts": [],
          "isFixedGasLimit": false
        },
        {
          "hash": "0x9aae9eb537334da9bc693d4147ee5feff1c493265876fcfedeaddcc6240fd2d0",
          "transactionType": "CALL",
          "contractName": null,
          "contractAddress": "0x390225c015ffb24e18bdca2e1ddf87367e62c049",
          "function": "allowlistSourceChain(uint64,bool)",
          "arguments": [
            "16015286601757825753",
            "true"
          ],
          "transaction": {
            "from": "0x8454d149beb26e3e3fc5ed1c87fb0b2a1b7b6c2c",
            "to": "0x390225c015ffb24e18bdca2e1ddf87367e62c049",
            "gas": "0xb0f9",
            "value": "0x0",
            "input": "0xdb04fa49000000000000000000000000000000000000000000000000de41ba4fc9d91ad90000000000000000000000000000000000000000000000000000000000000001",
            "nonce": "0x85b",
            "chainId": "0xaa36a7"
          },
          "additionalContracts": [],
          "isFixedGasLimit": false
        },
        {
          "hash": "0x29714e6d249c109afa43c4b8b7d3c3fc2bfdfcc5dd4e90c44ce77c009ac3583d",
          "transactionType": "CALL",
          "contractName": null,
          "contractAddress": "0x390225c015ffb24e18bdca2e1ddf87367e62c049",
          "function": "allowlistDestinationChain(uint64,bool)",
          "arguments": [
            "10344971235874465080",
            "true"
          ],
          "transaction": {
            "from": "0x8454d149beb26e3e3fc5ed1c87fb0b2a1b7b6c2c",
            "to": "0x390225c015ffb24e18bdca2e1ddf87367e62c049",
            "gas": "0xbb6f",
            "value": "0x0",
            "input": "0x96d3b83d0000000000000000000000000000000000000000000000008f90b8876dee65380000000000000000000000000000000000000000000000000000000000000001",
            "nonce": "0x85c",
            "chainId": "0xaa36a7"
          },
          "additionalContracts": [],
          "isFixedGasLimit": false
        },
        {
          "hash": "0x20d39054e7097fdb491b68b62032082b523108e9699f9453eb7a63eff5e54f6d",
          "transactionType": "CALL",
          "contractName": null,
          "contractAddress": "0x284691a52d74884bcdd49e726354c0d2427e2cf6",
          "function": "setGasLimitsForFunctionSelectors(bytes4[],uint256[])",
          "arguments": [
            "[0xd8a85b48]",
            "[300000]"
          ],
          "transaction": {
            "from": "0x8454d149beb26e3e3fc5ed1c87fb0b2a1b7b6c2c",
            "to": "0x284691a52d74884bcdd49e726354c0d2427e2cf6",
            "gas": "0xd68b",
            "value": "0x0",
            "input": "0x3ef2d377000000000000000000000000000000000000000000000000000000000000004000000000000000000000000000000000000000000000000000000000000000800000000000000000000000000000000000000000000000000000000000000001d8a85b4800000000000000000000000000000000000000000000000000000000000000000000000000000000000000000000000000000000000000000000000100000000000000000000000000000000000000000000000000000000000493e0",
            "nonce": "0x85d",
            "chainId": "0xaa36a7"
          },
          "additionalContracts": [],
          "isFixedGasLimit": false
        }
      ],
      "receipts": [
        {
          "status": "0x1",
          "cumulativeGasUsed": "0x984050",
          "logs": [
            {
              "address": "0x390225c015ffb24e18bdca2e1ddf87367e62c049",
              "topics": [
                "0x7341e817a8458e8902ebedbcd9e82db8299e43de630c89ade217662e6cafe906",
                "0x0000000000000000000000000000000000000000000000008f90b8876dee6538",
                "0x0000000000000000000000002ee92a6e9afb0e94937f9020df3bd6203f73d24a"
              ],
              "data": "0x0000000000000000000000000000000000000000000000000000000000000001",
              "blockHash": "0xa45cf10924925a3d9c4597a5420d2cbaa35c4bc7026c183238968c307ad4f791",
              "blockNumber": "0x783745",
              "transactionHash": "0x0ce3cce82a0c728be6a69679f776955e2c44188ba39deb248234f695187c17cf",
              "transactionIndex": "0xa6",
              "logIndex": "0xa3",
              "removed": false
            }
          ],
          "logsBloom": "0x00000000000000000000000000000000100000040000000000000000000000000000000000000000000000000000000000000000000000000000000000000000000000000000000000000000000000000000000400000000000000000400200000000000000000000000000000000000000000000000000000000000020000004000000000000000000000000000000000000000080000000000000000000000000000000000000000000000000000000000000000000000000000000000000000000000000000000000000000000000000000000000000000000000000000000000000000000000000020000000000000000008000001000000000000000010",
          "type": "0x2",
          "transactionHash": "0x0ce3cce82a0c728be6a69679f776955e2c44188ba39deb248234f695187c17cf",
          "transactionIndex": "0xa6",
          "blockHash": "0xa45cf10924925a3d9c4597a5420d2cbaa35c4bc7026c183238968c307ad4f791",
          "blockNumber": "0x783745",
          "gasUsed": "0x83d2",
          "effectiveGasPrice": "0x7811f2",
          "blobGasUsed": "0x0",
          "from": "0x8454d149beb26e3e3fc5ed1c87fb0b2a1b7b6c2c",
          "to": "0x390225c015ffb24e18bdca2e1ddf87367e62c049",
          "contractAddress": null
        },
        {
          "status": "0x1",
          "cumulativeGasUsed": "0xe59994",
          "logs": [
            {
              "address": "0x390225c015ffb24e18bdca2e1ddf87367e62c049",
              "topics": [
                "0xa5f858f3914e62a82af355192513d8dbc618ff9815e7213a71930d8996a3cb82",
                "0x0000000000000000000000000000000000000000000000008f90b8876dee6538"
              ],
              "data": "0x0000000000000000000000000000000000000000000000000000000000000001",
              "blockHash": "0x344c2b948e40f8154e53a72543e2b9abacd776bbe13d14ac2d7124c26c889f82",
              "blockNumber": "0x783746",
              "transactionHash": "0x2c15bd8724d15a7752a7c54f713f25871b0cb1135d53cf374887455cd0b804a9",
              "transactionIndex": "0xf1",
              "logIndex": "0x119",
              "removed": false
            }
          ],
          "logsBloom": "0x00000000000000000000020000000000000000000000000000000000000000000000000000000000000000000000000000000000000000000000000000000000000000000000000000000000000000000000000400000000000000000000200000000000000000000000100000000000000000000000000000000000020000004000000000000000000000000000000000000000080000000000000000000000000000000000000000000000000000000000000000000000000000000000000000000000000000000000000000000000000000000000000000000000000000000000000000000001000000000000000000000008000000000000000000000000",
          "type": "0x2",
          "transactionHash": "0x2c15bd8724d15a7752a7c54f713f25871b0cb1135d53cf374887455cd0b804a9",
          "transactionIndex": "0xf1",
          "blockHash": "0x344c2b948e40f8154e53a72543e2b9abacd776bbe13d14ac2d7124c26c889f82",
          "blockNumber": "0x783746",
          "gasUsed": "0x8020",
          "effectiveGasPrice": "0x743a7e",
          "blobGasUsed": "0x0",
          "from": "0x8454d149beb26e3e3fc5ed1c87fb0b2a1b7b6c2c",
          "to": "0x390225c015ffb24e18bdca2e1ddf87367e62c049",
          "contractAddress": null
        },
        {
          "status": "0x1",
          "cumulativeGasUsed": "0xadee55",
          "logs": [
            {
              "address": "0x390225c015ffb24e18bdca2e1ddf87367e62c049",
              "topics": [
                "0xa5f858f3914e62a82af355192513d8dbc618ff9815e7213a71930d8996a3cb82",
                "0x000000000000000000000000000000000000000000000000de41ba4fc9d91ad9"
              ],
              "data": "0x0000000000000000000000000000000000000000000000000000000000000001",
              "blockHash": "0xc72763ada0c06af872f7c861db39a25125817c9c85ac21eb4f08703ef113a836",
              "blockNumber": "0x78374a",
              "transactionHash": "0x9aae9eb537334da9bc693d4147ee5feff1c493265876fcfedeaddcc6240fd2d0",
              "transactionIndex": "0xdc",
              "logIndex": "0xd4",
              "removed": false
            }
          ],
          "logsBloom": "0x00000000000000000000020000000000000000000000000000000000000000000000000000004000000000000000000000000000000000000000000000000000000000000000000000000000000000000000000000000000000000000000000000000000000000000000100000010000000000000000000000000000020000000000000000000000000000000000000000000020080000000000000000000000000000000000000000000000000000000000000000000000000000000000000000000000000000000000000000000000000000000000000000000000000000000000000000000001000000000000000000000008000000000000000000000000",
          "type": "0x2",
          "transactionHash": "0x9aae9eb537334da9bc693d4147ee5feff1c493265876fcfedeaddcc6240fd2d0",
          "transactionIndex": "0xdc",
          "blockHash": "0xc72763ada0c06af872f7c861db39a25125817c9c85ac21eb4f08703ef113a836",
          "blockNumber": "0x78374a",
          "gasUsed": "0x8020",
          "effectiveGasPrice": "0x705e8a",
          "blobGasUsed": "0x0",
          "from": "0x8454d149beb26e3e3fc5ed1c87fb0b2a1b7b6c2c",
          "to": "0x390225c015ffb24e18bdca2e1ddf87367e62c049",
          "contractAddress": null
        },
        {
          "status": "0x1",
          "cumulativeGasUsed": "0xae6e7e",
          "logs": [
            {
              "address": "0x390225c015ffb24e18bdca2e1ddf87367e62c049",
              "topics": [
                "0x79e93956b5c7b59cb1d0aaa5849af9993c5b994c44b148b1944f4e4ecf1e9b89",
                "0x0000000000000000000000000000000000000000000000008f90b8876dee6538"
              ],
              "data": "0x0000000000000000000000000000000000000000000000000000000000000001",
              "blockHash": "0xc72763ada0c06af872f7c861db39a25125817c9c85ac21eb4f08703ef113a836",
              "blockNumber": "0x78374a",
              "transactionHash": "0x29714e6d249c109afa43c4b8b7d3c3fc2bfdfcc5dd4e90c44ce77c009ac3583d",
              "transactionIndex": "0xdd",
              "logIndex": "0xd5",
              "removed": false
            }
          ],
          "logsBloom": "0x00000000000000000000000000000000000000040000000000000000000000000000000000000000000000000000000000000000000000000000000000000000000000000000000000200000000000000000000400000000000000000000200000000000000000000000000000000000000000000000000000000000020000004000000000000000000000000000000000000000080000000000000000000000000000000000000000000000000000000000000000000000000000100000000000000000000000000000000000000000000000000000000000000000000000000000000000000000000000000000000000000008000000000000000000000000",
          "type": "0x2",
          "transactionHash": "0x29714e6d249c109afa43c4b8b7d3c3fc2bfdfcc5dd4e90c44ce77c009ac3583d",
          "transactionIndex": "0xdd",
          "blockHash": "0xc72763ada0c06af872f7c861db39a25125817c9c85ac21eb4f08703ef113a836",
          "blockNumber": "0x78374a",
          "gasUsed": "0x8029",
          "effectiveGasPrice": "0x705e8a",
          "blobGasUsed": "0x0",
          "from": "0x8454d149beb26e3e3fc5ed1c87fb0b2a1b7b6c2c",
          "to": "0x390225c015ffb24e18bdca2e1ddf87367e62c049",
          "contractAddress": null
        },
        {
          "status": "0x1",
          "cumulativeGasUsed": "0xaf0131",
          "logs": [
            {
              "address": "0x284691a52d74884bcdd49e726354c0d2427e2cf6",
              "topics": [
                "0xed4c89b805f4efb58bc4a42b9a3c6f09783f619295a1fa41ab46d6190c8c7f3b",
                "0xd8a85b4800000000000000000000000000000000000000000000000000000000",
                "0x00000000000000000000000000000000000000000000000000000000000493e0"
              ],
              "data": "0x",
              "blockHash": "0xc72763ada0c06af872f7c861db39a25125817c9c85ac21eb4f08703ef113a836",
              "blockNumber": "0x78374a",
              "transactionHash": "0x20d39054e7097fdb491b68b62032082b523108e9699f9453eb7a63eff5e54f6d",
              "transactionIndex": "0xde",
              "logIndex": "0xd6",
              "removed": false
            }
          ],
          "logsBloom": "0x00000000000000000040000000000000000000000800000000000000000000000000000000000000000000000000000000000000000000000000000000000000008000000000000800000000000000000000000000002000000000000000000000000000000000000000000000000000800200000000040000200000000000000000000000000000000000001000000000000000000000000000000000000000000000000000000000010000000000000000000000000000000000000000000000000000000000000000000000000000000000000000000000000000000000000000000000000000000000000000000000000000000000000000000000000000",
          "type": "0x2",
          "transactionHash": "0x20d39054e7097fdb491b68b62032082b523108e9699f9453eb7a63eff5e54f6d",
          "transactionIndex": "0xde",
          "blockHash": "0xc72763ada0c06af872f7c861db39a25125817c9c85ac21eb4f08703ef113a836",
          "blockNumber": "0x78374a",
          "gasUsed": "0x92b3",
          "effectiveGasPrice": "0x705e8a",
          "blobGasUsed": "0x0",
          "from": "0x8454d149beb26e3e3fc5ed1c87fb0b2a1b7b6c2c",
          "to": "0x284691a52d74884bcdd49e726354c0d2427e2cf6",
          "contractAddress": null
        }
      ],
      "libraries": [],
      "pending": [],
      "returns": {},
      "timestamp": 1741673162,
      "chain": 11155111,
      "commit": "74e6e68"
    }
  ],
  "timestamp": 1741673232
}