{
  "deployments": [
    {
      "transactions": [
        {
          "hash": "0xf3feefe7b82e3818f98b699bfe8e2e5035959ad3ccefb79ee9c49fcd83dd2265",
          "transactionType": "CALL",
          "contractName": null,
          "contractAddress": "0x2ee92a6e9afb0e94937f9020df3bd6203f73d24a",
          "function": "allowlistSender(uint64,address,bool)",
          "arguments": [
            "16015286601757825753",
            "0x390225c015FfB24E18bdca2E1DdF87367e62c049",
            "true"
          ],
          "transaction": {
            "from": "0x8454d149beb26e3e3fc5ed1c87fb0b2a1b7b6c2c",
            "to": "0x2ee92a6e9afb0e94937f9020df3bd6203f73d24a",
            "gas": "0x1366e",
            "value": "0x0",
            "input": "0xf039a009000000000000000000000000000000000000000000000000de41ba4fc9d91ad9000000000000000000000000390225c015ffb24e18bdca2e1ddf87367e62c0490000000000000000000000000000000000000000000000000000000000000001",
            "nonce": "0x5da",
            "chainId": "0x14a34"
          },
          "additionalContracts": [],
          "isFixedGasLimit": false
        },
        {
          "hash": "0xeb3802977ba0f885dfdba8e069ec17721e5d69f35679197a333abd96681ce94e",
          "transactionType": "CALL",
          "contractName": null,
          "contractAddress": "0x2ee92a6e9afb0e94937f9020df3bd6203f73d24a",
          "function": "allowlistSourceChain(uint64,bool)",
          "arguments": [
            "10344971235874465080",
            "true"
          ],
          "transaction": {
            "from": "0x8454d149beb26e3e3fc5ed1c87fb0b2a1b7b6c2c",
            "to": "0x2ee92a6e9afb0e94937f9020df3bd6203f73d24a",
            "gas": "0xb3da",
            "value": "0x0",
            "input": "0xdb04fa490000000000000000000000000000000000000000000000008f90b8876dee65380000000000000000000000000000000000000000000000000000000000000001",
            "nonce": "0x5db",
            "chainId": "0x14a34"
          },
          "additionalContracts": [],
          "isFixedGasLimit": false
        },
        {
          "hash": "0x5d28835d8361ceede2c50dbb785389c2968086e01d8ebbdd7aeaff0ecf531b51",
          "transactionType": "CALL",
          "contractName": null,
          "contractAddress": "0x2ee92a6e9afb0e94937f9020df3bd6203f73d24a",
          "function": "allowlistDestinationChain(uint64,bool)",
          "arguments": [
            "16015286601757825753",
            "true"
          ],
          "transaction": {
            "from": "0x8454d149beb26e3e3fc5ed1c87fb0b2a1b7b6c2c",
            "to": "0x2ee92a6e9afb0e94937f9020df3bd6203f73d24a",
            "gas": "0xb3f8",
            "value": "0x0",
            "input": "0x96d3b83d000000000000000000000000000000000000000000000000de41ba4fc9d91ad90000000000000000000000000000000000000000000000000000000000000001",
            "nonce": "0x5dc",
            "chainId": "0x14a34"
          },
          "additionalContracts": [],
          "isFixedGasLimit": false
        },
        {
          "hash": "0x19d707c566426e676be2ba7035d0773f62a778f7f0de646b8dfabc2051929ad2",
          "transactionType": "CALL",
          "contractName": null,
          "contractAddress": "0xe04336a5e33451ad56319ff7c09e14e28c65adbe",
          "function": "setGasLimitsForFunctionSelectors(bytes4[],uint256[])",
          "arguments": [
            "[0xe7a050aa, 0xcc15a557, 0x0dd8dd02, 0xe4cc3f90, 0xeea9064b, 0xda8be864, 0x3ccc861d]",
            "[410000, 290000, 315000, 560000, 350000, 340000, 540000]"
          ],
          "transaction": {
            "from": "0x8454d149beb26e3e3fc5ed1c87fb0b2a1b7b6c2c",
            "to": "0xe04336a5e33451ad56319ff7c09e14e28c65adbe",
            "gas": "0x1734d",
            "value": "0x0",
            "input": "0x3ef2d377000000000000000000000000000000000000000000000000000000000000004000000000000000000000000000000000000000000000000000000000000001400000000000000000000000000000000000000000000000000000000000000007e7a050aa00000000000000000000000000000000000000000000000000000000cc15a557000000000000000000000000000000000000000000000000000000000dd8dd0200000000000000000000000000000000000000000000000000000000e4cc3f9000000000000000000000000000000000000000000000000000000000eea9064b00000000000000000000000000000000000000000000000000000000da8be864000000000000000000000000000000000000000000000000000000003ccc861d00000000000000000000000000000000000000000000000000000000000000000000000000000000000000000000000000000000000000000000000700000000000000000000000000000000000000000000000000000000000641900000000000000000000000000000000000000000000000000000000000046cd0000000000000000000000000000000000000000000000000000000000004ce780000000000000000000000000000000000000000000000000000000000088b80000000000000000000000000000000000000000000000000000000000005573000000000000000000000000000000000000000000000000000000000000530200000000000000000000000000000000000000000000000000000000000083d60",
            "nonce": "0x5dd",
            "chainId": "0x14a34"
          },
          "additionalContracts": [],
          "isFixedGasLimit": false
        },
        {
          "hash": "0x99fec9f3a3f543ca6f092f5efa7e4657c57220a80ebaf9bf15abd1c2b511af7a",
          "transactionType": "CALL",
          "contractName": null,
          "contractAddress": "0xe04336a5e33451ad56319ff7c09e14e28c65adbe",
          "function": "setSenderCCIP(address)",
          "arguments": [
            "0x2ee92A6E9aFb0E94937F9020Df3bD6203F73d24A"
          ],
          "transaction": {
            "from": "0x8454d149beb26e3e3fc5ed1c87fb0b2a1b7b6c2c",
            "to": "0xe04336a5e33451ad56319ff7c09e14e28c65adbe",
            "gas": "0xb0d4",
            "value": "0x0",
            "input": "0xd8d6c31a0000000000000000000000002ee92a6e9afb0e94937f9020df3bd6203f73d24a",
            "nonce": "0x5de",
            "chainId": "0x14a34"
          },
          "additionalContracts": [],
          "isFixedGasLimit": false
        },
        {
          "hash": "0x51ec1aae3d2566f78f79f99b85ea3db0445c1a8c1319cec9da74cef8992ce4db",
          "transactionType": "CALL",
          "contractName": null,
          "contractAddress": "0x2ee92a6e9afb0e94937f9020df3bd6203f73d24a",
          "function": "getSenderHooks()",
          "arguments": [],
          "transaction": {
            "from": "0x8454d149beb26e3e3fc5ed1c87fb0b2a1b7b6c2c",
            "to": "0x2ee92a6e9afb0e94937f9020df3bd6203f73d24a",
            "gas": "0xa4d2",
            "value": "0x0",
            "input": "0xe09df825",
            "nonce": "0x5df",
            "chainId": "0x14a34"
          },
          "additionalContracts": [],
          "isFixedGasLimit": false
        },
        {
          "hash": "0xce9fa27884658372f61085396e8247a28bcdba8ad9d7040e7f55bf996a27f685",
          "transactionType": "CALL",
          "contractName": null,
          "contractAddress": "0x2ee92a6e9afb0e94937f9020df3bd6203f73d24a",
          "function": "allowlistedSenders(uint64,address)",
          "arguments": [
            "16015286601757825753",
            "0x390225c015FfB24E18bdca2E1DdF87367e62c049"
          ],
          "transaction": {
            "from": "0x8454d149beb26e3e3fc5ed1c87fb0b2a1b7b6c2c",
            "to": "0x2ee92a6e9afb0e94937f9020df3bd6203f73d24a",
            "gas": "0xa11b",
            "value": "0x0",
            "input": "0x039faeb0000000000000000000000000000000000000000000000000de41ba4fc9d91ad9000000000000000000000000390225c015ffb24e18bdca2e1ddf87367e62c049",
            "nonce": "0x5e0",
            "chainId": "0x14a34"
          },
          "additionalContracts": [],
          "isFixedGasLimit": false
        },
        {
          "hash": "0x4b6e7600032ae33e3d59bc056d249c4ab9c361bd211987a43616ee0a11bb2092",
          "transactionType": "CALL",
          "contractName": null,
          "contractAddress": "0x2ee92a6e9afb0e94937f9020df3bd6203f73d24a",
          "function": "allowlistedSourceChains(uint64)",
          "arguments": [
            "16015286601757825753"
          ],
          "transaction": {
            "from": "0x8454d149beb26e3e3fc5ed1c87fb0b2a1b7b6c2c",
            "to": "0x2ee92a6e9afb0e94937f9020df3bd6203f73d24a",
            "gas": "0xa6f6",
            "value": "0x0",
            "input": "0x4030d521000000000000000000000000000000000000000000000000de41ba4fc9d91ad9",
            "nonce": "0x5e1",
            "chainId": "0x14a34"
          },
          "additionalContracts": [],
          "isFixedGasLimit": false
        },
        {
          "hash": "0xa650499be18aab8976cb1440666a74a71fa25d752204f55e360716d8387c19f8",
          "transactionType": "CALL",
          "contractName": null,
          "contractAddress": "0x2ee92a6e9afb0e94937f9020df3bd6203f73d24a",
          "function": "allowlistedDestinationChains(uint64)",
          "arguments": [
            "16015286601757825753"
          ],
          "transaction": {
            "from": "0x8454d149beb26e3e3fc5ed1c87fb0b2a1b7b6c2c",
            "to": "0x2ee92a6e9afb0e94937f9020df3bd6203f73d24a",
            "gas": "0xa6d3",
            "value": "0x0",
            "input": "0x75c67c66000000000000000000000000000000000000000000000000de41ba4fc9d91ad9",
            "nonce": "0x5e2",
            "chainId": "0x14a34"
          },
          "additionalContracts": [],
          "isFixedGasLimit": false
        }
      ],
      "receipts": [
        {
          "status": "0x1",
          "cumulativeGasUsed": "0x647c8",
          "logs": [
            {
              "address": "0x2ee92a6e9afb0e94937f9020df3bd6203f73d24a",
              "topics": [
                "0x7341e817a8458e8902ebedbcd9e82db8299e43de630c89ade217662e6cafe906",
                "0x000000000000000000000000000000000000000000000000de41ba4fc9d91ad9",
                "0x000000000000000000000000390225c015ffb24e18bdca2e1ddf87367e62c049"
              ],
              "data": "0x0000000000000000000000000000000000000000000000000000000000000001",
              "blockHash": "0xdd316122d0853788feb786cf1e38a0a7e57f616b60b4e7b14ed220d2e3eb68b3",
              "blockNumber": "0x15e1c26",
              "transactionHash": "0xf3feefe7b82e3818f98b699bfe8e2e5035959ad3ccefb79ee9c49fcd83dd2265",
              "transactionIndex": "0x5",
              "logIndex": "0x8",
              "removed": false
            }
          ],
          "logsBloom": "0x00000400000000000020000000000000000000000000000000000000000000000000000000004000000000000000000000000000000000000000000000010000000000000000000000000000000000000000000000000400000000000000000000000000000000000000000000010000000000000000000000000000008000000000000000000000000000000000000000000020000000000000000000000000000000000000000000000000000000000000000000000000000000000000000000000000000000000000000000000000000000000000000000000000000000002000000000000000000020000000000000000000000001000000000000000010",
          "type": "0x2",
          "transactionHash": "0xf3feefe7b82e3818f98b699bfe8e2e5035959ad3ccefb79ee9c49fcd83dd2265",
          "transactionIndex": "0x5",
          "blockHash": "0xdd316122d0853788feb786cf1e38a0a7e57f616b60b4e7b14ed220d2e3eb68b3",
          "blockNumber": "0x15e1c26",
          "gasUsed": "0xd443",
          "effectiveGasPrice": "0xf4454",
          "from": "0x8454d149beb26e3e3fc5ed1c87fb0b2a1b7b6c2c",
          "to": "0x2ee92a6e9afb0e94937f9020df3bd6203f73d24a",
          "contractAddress": null,
          "l1BaseFeeScalar": "0x44d",
          "l1BlobBaseFee": "0x1",
          "l1BlobBaseFeeScalar": "0xa118b",
          "l1Fee": "0x39a8685b34",
          "l1GasPrice": "0x20bafa5df2",
          "l1GasUsed": "0x640"
        },
        {
          "status": "0x1",
          "cumulativeGasUsed": "0x6c9fe",
          "logs": [
            {
              "address": "0x2ee92a6e9afb0e94937f9020df3bd6203f73d24a",
              "topics": [
                "0xa5f858f3914e62a82af355192513d8dbc618ff9815e7213a71930d8996a3cb82",
                "0x0000000000000000000000000000000000000000000000008f90b8876dee6538"
              ],
              "data": "0x0000000000000000000000000000000000000000000000000000000000000001",
              "blockHash": "0xdd316122d0853788feb786cf1e38a0a7e57f616b60b4e7b14ed220d2e3eb68b3",
              "blockNumber": "0x15e1c26",
              "transactionHash": "0xeb3802977ba0f885dfdba8e069ec17721e5d69f35679197a333abd96681ce94e",
              "transactionIndex": "0x6",
              "logIndex": "0x9",
              "removed": false
            }
          ],
          "logsBloom": "0x00000000000000000020020000000000000000000000000000000000000000000000000000000000000000000000000000000000000000000000000000000000000000000000000000000000000000000000000400000400000000000000200000000000000000000000100000000000000000000000000000000000008000004000000000000000000000000000000000000000000000000000000000000000000000000000000000000000000000000000000000000000000000000000000000000000000000000000000000000000000000000000000000000000000000000000000000000001000000000000000000000000000000000000000000000000",
          "type": "0x2",
          "transactionHash": "0xeb3802977ba0f885dfdba8e069ec17721e5d69f35679197a333abd96681ce94e",
          "transactionIndex": "0x6",
          "blockHash": "0xdd316122d0853788feb786cf1e38a0a7e57f616b60b4e7b14ed220d2e3eb68b3",
          "blockNumber": "0x15e1c26",
          "gasUsed": "0x8236",
          "effectiveGasPrice": "0xf4454",
          "from": "0x8454d149beb26e3e3fc5ed1c87fb0b2a1b7b6c2c",
          "to": "0x2ee92a6e9afb0e94937f9020df3bd6203f73d24a",
          "contractAddress": null,
          "l1BaseFeeScalar": "0x44d",
          "l1BlobBaseFee": "0x1",
          "l1BlobBaseFeeScalar": "0xa118b",
          "l1Fee": "0x39a8685b34",
          "l1GasPrice": "0x20bafa5df2",
          "l1GasUsed": "0x640"
        },
        {
          "status": "0x1",
          "cumulativeGasUsed": "0x74c4a",
          "logs": [
            {
              "address": "0x2ee92a6e9afb0e94937f9020df3bd6203f73d24a",
              "topics": [
                "0x79e93956b5c7b59cb1d0aaa5849af9993c5b994c44b148b1944f4e4ecf1e9b89",
                "0x000000000000000000000000000000000000000000000000de41ba4fc9d91ad9"
              ],
              "data": "0x0000000000000000000000000000000000000000000000000000000000000001",
              "blockHash": "0xdd316122d0853788feb786cf1e38a0a7e57f616b60b4e7b14ed220d2e3eb68b3",
              "blockNumber": "0x15e1c26",
              "transactionHash": "0x5d28835d8361ceede2c50dbb785389c2968086e01d8ebbdd7aeaff0ecf531b51",
              "transactionIndex": "0x7",
              "logIndex": "0xa",
              "removed": false
            }
          ],
          "logsBloom": "0x00000000000000000020000000000000000000040000000000000000000000000000000000004000000000000000000000000000000000000000000000000000000000000000000000200000000000000000000000000400000000000000000000000000000000000000000000010000000000000000000000000000008000000000000000000000000000000000000000000020000000000000000000000000000000000000000000000000000000000000000000000000000000100000000000000000000000000000000000000000000000000000000000000000000000000000000000000000000000000000000000000000000000000000000000000000",
          "type": "0x2",
          "transactionHash": "0x5d28835d8361ceede2c50dbb785389c2968086e01d8ebbdd7aeaff0ecf531b51",
          "transactionIndex": "0x7",
          "blockHash": "0xdd316122d0853788feb786cf1e38a0a7e57f616b60b4e7b14ed220d2e3eb68b3",
          "blockNumber": "0x15e1c26",
          "gasUsed": "0x824c",
          "effectiveGasPrice": "0xf4454",
          "from": "0x8454d149beb26e3e3fc5ed1c87fb0b2a1b7b6c2c",
          "to": "0x2ee92a6e9afb0e94937f9020df3bd6203f73d24a",
          "contractAddress": null,
          "l1BaseFeeScalar": "0x44d",
          "l1BlobBaseFee": "0x1",
          "l1BlobBaseFeeScalar": "0xa118b",
          "l1Fee": "0x39a8685b34",
          "l1GasPrice": "0x20bafa5df2",
          "l1GasUsed": "0x640"
        },
        {
          "status": "0x1",
          "cumulativeGasUsed": "0x84a2c",
          "logs": [
            {
              "address": "0xe04336a5e33451ad56319ff7c09e14e28c65adbe",
              "topics": [
                "0xed4c89b805f4efb58bc4a42b9a3c6f09783f619295a1fa41ab46d6190c8c7f3b",
                "0xe7a050aa00000000000000000000000000000000000000000000000000000000",
                "0x0000000000000000000000000000000000000000000000000000000000064190"
              ],
              "data": "0x",
              "blockHash": "0xdd316122d0853788feb786cf1e38a0a7e57f616b60b4e7b14ed220d2e3eb68b3",
              "blockNumber": "0x15e1c26",
              "transactionHash": "0x19d707c566426e676be2ba7035d0773f62a778f7f0de646b8dfabc2051929ad2",
              "transactionIndex": "0x8",
              "logIndex": "0xb",
              "removed": false
            },
            {
              "address": "0xe04336a5e33451ad56319ff7c09e14e28c65adbe",
              "topics": [
                "0xed4c89b805f4efb58bc4a42b9a3c6f09783f619295a1fa41ab46d6190c8c7f3b",
                "0xcc15a55700000000000000000000000000000000000000000000000000000000",
                "0x0000000000000000000000000000000000000000000000000000000000046cd0"
              ],
              "data": "0x",
              "blockHash": "0xdd316122d0853788feb786cf1e38a0a7e57f616b60b4e7b14ed220d2e3eb68b3",
              "blockNumber": "0x15e1c26",
              "transactionHash": "0x19d707c566426e676be2ba7035d0773f62a778f7f0de646b8dfabc2051929ad2",
              "transactionIndex": "0x8",
              "logIndex": "0xc",
              "removed": false
            },
            {
              "address": "0xe04336a5e33451ad56319ff7c09e14e28c65adbe",
              "topics": [
                "0xed4c89b805f4efb58bc4a42b9a3c6f09783f619295a1fa41ab46d6190c8c7f3b",
                "0x0dd8dd0200000000000000000000000000000000000000000000000000000000",
                "0x000000000000000000000000000000000000000000000000000000000004ce78"
              ],
              "data": "0x",
              "blockHash": "0xdd316122d0853788feb786cf1e38a0a7e57f616b60b4e7b14ed220d2e3eb68b3",
              "blockNumber": "0x15e1c26",
              "transactionHash": "0x19d707c566426e676be2ba7035d0773f62a778f7f0de646b8dfabc2051929ad2",
              "transactionIndex": "0x8",
              "logIndex": "0xd",
              "removed": false
            },
            {
              "address": "0xe04336a5e33451ad56319ff7c09e14e28c65adbe",
              "topics": [
                "0xed4c89b805f4efb58bc4a42b9a3c6f09783f619295a1fa41ab46d6190c8c7f3b",
                "0xe4cc3f9000000000000000000000000000000000000000000000000000000000",
                "0x0000000000000000000000000000000000000000000000000000000000088b80"
              ],
              "data": "0x",
              "blockHash": "0xdd316122d0853788feb786cf1e38a0a7e57f616b60b4e7b14ed220d2e3eb68b3",
              "blockNumber": "0x15e1c26",
              "transactionHash": "0x19d707c566426e676be2ba7035d0773f62a778f7f0de646b8dfabc2051929ad2",
              "transactionIndex": "0x8",
              "logIndex": "0xe",
              "removed": false
            },
            {
              "address": "0xe04336a5e33451ad56319ff7c09e14e28c65adbe",
              "topics": [
                "0xed4c89b805f4efb58bc4a42b9a3c6f09783f619295a1fa41ab46d6190c8c7f3b",
                "0xeea9064b00000000000000000000000000000000000000000000000000000000",
                "0x0000000000000000000000000000000000000000000000000000000000055730"
              ],
              "data": "0x",
              "blockHash": "0xdd316122d0853788feb786cf1e38a0a7e57f616b60b4e7b14ed220d2e3eb68b3",
              "blockNumber": "0x15e1c26",
              "transactionHash": "0x19d707c566426e676be2ba7035d0773f62a778f7f0de646b8dfabc2051929ad2",
              "transactionIndex": "0x8",
              "logIndex": "0xf",
              "removed": false
            },
            {
              "address": "0xe04336a5e33451ad56319ff7c09e14e28c65adbe",
              "topics": [
                "0xed4c89b805f4efb58bc4a42b9a3c6f09783f619295a1fa41ab46d6190c8c7f3b",
                "0xda8be86400000000000000000000000000000000000000000000000000000000",
                "0x0000000000000000000000000000000000000000000000000000000000053020"
              ],
              "data": "0x",
              "blockHash": "0xdd316122d0853788feb786cf1e38a0a7e57f616b60b4e7b14ed220d2e3eb68b3",
              "blockNumber": "0x15e1c26",
              "transactionHash": "0x19d707c566426e676be2ba7035d0773f62a778f7f0de646b8dfabc2051929ad2",
              "transactionIndex": "0x8",
              "logIndex": "0x10",
              "removed": false
            },
            {
              "address": "0xe04336a5e33451ad56319ff7c09e14e28c65adbe",
              "topics": [
                "0xed4c89b805f4efb58bc4a42b9a3c6f09783f619295a1fa41ab46d6190c8c7f3b",
                "0x3ccc861d00000000000000000000000000000000000000000000000000000000",
                "0x0000000000000000000000000000000000000000000000000000000000083d60"
              ],
              "data": "0x",
              "blockHash": "0xdd316122d0853788feb786cf1e38a0a7e57f616b60b4e7b14ed220d2e3eb68b3",
              "blockNumber": "0x15e1c26",
              "transactionHash": "0x19d707c566426e676be2ba7035d0773f62a778f7f0de646b8dfabc2051929ad2",
              "transactionIndex": "0x8",
              "logIndex": "0x11",
              "removed": false
            }
          ],
          "logsBloom": "0x00000001000000000040000000000000000000000800000000000000004000000000000000020000000800000040000000100000000000000000200000100000000000000000000000000100000000040108000000000000080000000000000000000010000000002000000000010000830000000000000000000000000100000000100000800000000000000300000000000000000400000000000000000000001000400000000000000000002000000000000080000000000000000000400400000400000000000008001000010000000200000000000000000000400001020000800000001800000000000000000000002000000000100000010100000000",
          "type": "0x2",
          "transactionHash": "0x19d707c566426e676be2ba7035d0773f62a778f7f0de646b8dfabc2051929ad2",
          "transactionIndex": "0x8",
          "blockHash": "0xdd316122d0853788feb786cf1e38a0a7e57f616b60b4e7b14ed220d2e3eb68b3",
          "blockNumber": "0x15e1c26",
          "gasUsed": "0xfde2",
          "effectiveGasPrice": "0xf4454",
          "from": "0x8454d149beb26e3e3fc5ed1c87fb0b2a1b7b6c2c",
          "to": "0xe04336a5e33451ad56319ff7c09e14e28c65adbe",
          "contractAddress": null,
          "l1BaseFeeScalar": "0x44d",
          "l1BlobBaseFee": "0x1",
          "l1BlobBaseFeeScalar": "0xa118b",
          "l1Fee": "0x6a26c80565",
          "l1GasPrice": "0x20bafa5df2",
          "l1GasUsed": "0xb81"
        },
        {
          "status": "0x1",
          "cumulativeGasUsed": "0xdb6e2",
          "logs": [
            {
              "address": "0xe04336a5e33451ad56319ff7c09e14e28c65adbe",
              "topics": [
                "0xc200bc994a6761c6c93718eb06df928b16dca3e77b7ce283d09852e260c9b2da",
                "0x0000000000000000000000002ee92a6e9afb0e94937f9020df3bd6203f73d24a"
              ],
              "data": "0x",
              "blockHash": "0xdd316122d0853788feb786cf1e38a0a7e57f616b60b4e7b14ed220d2e3eb68b3",
              "blockNumber": "0x15e1c26",
              "transactionHash": "0x99fec9f3a3f543ca6f092f5efa7e4657c57220a80ebaf9bf15abd1c2b511af7a",
              "transactionIndex": "0xb",
              "logIndex": "0x1a",
              "removed": false
            }
          ],
          "logsBloom": "0x00000000000000000100000000000000100000040000000000000000000000000000000000000000000000000000000000100000000000000000000000000000000000000000000000000000000000000000000000000000000000000400000000000000000000000000000000000000000000000000000000000000000000000000000000000000000000000200000000000000000000000000000000000000100000000000000000000000000000000000000000000000000000000000000000000400000000000000000000000000000020000000000000000000000000000000000000000000000000000000000000000000000000000000000000000000",
          "type": "0x2",
          "transactionHash": "0x99fec9f3a3f543ca6f092f5efa7e4657c57220a80ebaf9bf15abd1c2b511af7a",
          "transactionIndex": "0xb",
          "blockHash": "0xdd316122d0853788feb786cf1e38a0a7e57f616b60b4e7b14ed220d2e3eb68b3",
          "blockNumber": "0x15e1c26",
          "gasUsed": "0x8006",
          "effectiveGasPrice": "0xf4454",
          "from": "0x8454d149beb26e3e3fc5ed1c87fb0b2a1b7b6c2c",
          "to": "0xe04336a5e33451ad56319ff7c09e14e28c65adbe",
          "contractAddress": null,
          "l1BaseFeeScalar": "0x44d",
          "l1BlobBaseFee": "0x1",
          "l1BlobBaseFeeScalar": "0xa118b",
          "l1Fee": "0x39a8685b34",
          "l1GasPrice": "0x20bafa5df2",
          "l1GasUsed": "0x640"
        },
        {
          "status": "0x1",
          "cumulativeGasUsed": "0xe2795",
          "logs": [],
          "logsBloom": "0x00000000000000000000000000000000000000000000000000000000000000000000000000000000000000000000000000000000000000000000000000000000000000000000000000000000000000000000000000000000000000000000000000000000000000000000000000000000000000000000000000000000000000000000000000000000000000000000000000000000000000000000000000000000000000000000000000000000000000000000000000000000000000000000000000000000000000000000000000000000000000000000000000000000000000000000000000000000000000000000000000000000000000000000000000000000",
          "type": "0x2",
          "transactionHash": "0x51ec1aae3d2566f78f79f99b85ea3db0445c1a8c1319cec9da74cef8992ce4db",
          "transactionIndex": "0xc",
          "blockHash": "0xdd316122d0853788feb786cf1e38a0a7e57f616b60b4e7b14ed220d2e3eb68b3",
          "blockNumber": "0x15e1c26",
          "gasUsed": "0x70b3",
          "effectiveGasPrice": "0xf4454",
          "from": "0x8454d149beb26e3e3fc5ed1c87fb0b2a1b7b6c2c",
          "to": "0x2ee92a6e9afb0e94937f9020df3bd6203f73d24a",
          "contractAddress": null,
          "l1BaseFeeScalar": "0x44d",
          "l1BlobBaseFee": "0x1",
          "l1BlobBaseFeeScalar": "0xa118b",
          "l1Fee": "0x39a8685b34",
          "l1GasPrice": "0x20bafa5df2",
          "l1GasUsed": "0x640"
        },
        {
          "status": "0x1",
          "cumulativeGasUsed": "0xe9c39",
          "logs": [],
          "logsBloom": "0x00000000000000000000000000000000000000000000000000000000000000000000000000000000000000000000000000000000000000000000000000000000000000000000000000000000000000000000000000000000000000000000000000000000000000000000000000000000000000000000000000000000000000000000000000000000000000000000000000000000000000000000000000000000000000000000000000000000000000000000000000000000000000000000000000000000000000000000000000000000000000000000000000000000000000000000000000000000000000000000000000000000000000000000000000000000",
          "type": "0x2",
          "transactionHash": "0xce9fa27884658372f61085396e8247a28bcdba8ad9d7040e7f55bf996a27f685",
          "transactionIndex": "0xd",
          "blockHash": "0xdd316122d0853788feb786cf1e38a0a7e57f616b60b4e7b14ed220d2e3eb68b3",
          "blockNumber": "0x15e1c26",
          "gasUsed": "0x74a4",
          "effectiveGasPrice": "0xf4454",
          "from": "0x8454d149beb26e3e3fc5ed1c87fb0b2a1b7b6c2c",
          "to": "0x2ee92a6e9afb0e94937f9020df3bd6203f73d24a",
          "contractAddress": null,
          "l1BaseFeeScalar": "0x44d",
          "l1BlobBaseFee": "0x1",
          "l1BlobBaseFeeScalar": "0xa118b",
          "l1Fee": "0x39a8685b34",
          "l1GasPrice": "0x20bafa5df2",
          "l1GasUsed": "0x640"
        },
        {
          "status": "0x1",
          "cumulativeGasUsed": "0x12f375",
          "logs": [],
          "logsBloom": "0x00000000000000000000000000000000000000000000000000000000000000000000000000000000000000000000000000000000000000000000000000000000000000000000000000000000000000000000000000000000000000000000000000000000000000000000000000000000000000000000000000000000000000000000000000000000000000000000000000000000000000000000000000000000000000000000000000000000000000000000000000000000000000000000000000000000000000000000000000000000000000000000000000000000000000000000000000000000000000000000000000000000000000000000000000000000",
          "type": "0x2",
          "transactionHash": "0x4b6e7600032ae33e3d59bc056d249c4ab9c361bd211987a43616ee0a11bb2092",
          "transactionIndex": "0x10",
          "blockHash": "0xdd316122d0853788feb786cf1e38a0a7e57f616b60b4e7b14ed220d2e3eb68b3",
          "blockNumber": "0x15e1c26",
          "gasUsed": "0x722a",
          "effectiveGasPrice": "0xf4454",
          "from": "0x8454d149beb26e3e3fc5ed1c87fb0b2a1b7b6c2c",
          "to": "0x2ee92a6e9afb0e94937f9020df3bd6203f73d24a",
          "contractAddress": null,
          "l1BaseFeeScalar": "0x44d",
          "l1BlobBaseFee": "0x1",
          "l1BlobBaseFeeScalar": "0xa118b",
          "l1Fee": "0x39a8685b34",
          "l1GasPrice": "0x20bafa5df2",
          "l1GasUsed": "0x640"
        },
        {
          "status": "0x1",
          "cumulativeGasUsed": "0x15e563",
          "logs": [],
          "logsBloom": "0x00000000000000000000000000000000000000000000000000000000000000000000000000000000000000000000000000000000000000000000000000000000000000000000000000000000000000000000000000000000000000000000000000000000000000000000000000000000000000000000000000000000000000000000000000000000000000000000000000000000000000000000000000000000000000000000000000000000000000000000000000000000000000000000000000000000000000000000000000000000000000000000000000000000000000000000000000000000000000000000000000000000000000000000000000000000",
          "type": "0x2",
          "transactionHash": "0xa650499be18aab8976cb1440666a74a71fa25d752204f55e360716d8387c19f8",
          "transactionIndex": "0x12",
          "blockHash": "0xdd316122d0853788feb786cf1e38a0a7e57f616b60b4e7b14ed220d2e3eb68b3",
          "blockNumber": "0x15e1c26",
          "gasUsed": "0x7212",
          "effectiveGasPrice": "0xf4454",
          "from": "0x8454d149beb26e3e3fc5ed1c87fb0b2a1b7b6c2c",
          "to": "0x2ee92a6e9afb0e94937f9020df3bd6203f73d24a",
          "contractAddress": null,
          "l1BaseFeeScalar": "0x44d",
          "l1BlobBaseFee": "0x1",
          "l1BlobBaseFeeScalar": "0xa118b",
          "l1Fee": "0x39a8685b34",
          "l1GasPrice": "0x20bafa5df2",
          "l1GasUsed": "0x640"
        }
      ],
      "libraries": [],
      "pending": [],
      "returns": {},
      "timestamp": 1741657895,
      "chain": 84532,
      "commit": "74e6e68"
    },
    {
      "transactions": [
        {
          "hash": "0x63d70dec2ede5a9ad4da8deb8bba682b97b8f8e3abe5dd86ae6e2f5297e2577d",
          "transactionType": "CALL",
          "contractName": null,
          "contractAddress": "0x390225c015ffb24e18bdca2e1ddf87367e62c049",
          "function": "allowlistSender(uint64,address,bool)",
          "arguments": [
            "10344971235874465080",
            "0x2ee92A6E9aFb0E94937F9020Df3bD6203F73d24A",
            "true"
          ],
          "transaction": {
            "from": "0x8454d149beb26e3e3fc5ed1c87fb0b2a1b7b6c2c",
            "to": "0x390225c015ffb24e18bdca2e1ddf87367e62c049",
            "gas": "0xc0c9",
            "value": "0x0",
            "input": "0xf039a0090000000000000000000000000000000000000000000000008f90b8876dee65380000000000000000000000002ee92a6e9afb0e94937f9020df3bd6203f73d24a0000000000000000000000000000000000000000000000000000000000000001",
            "nonce": "0x852",
            "chainId": "0xaa36a7"
          },
          "additionalContracts": [],
          "isFixedGasLimit": false
        },
        {
          "hash": "0x539b4a5fe9d2ca413bc6c5b78e4be96dee985c3dcf4f4bc3d1322ac62cd3d9c2",
          "transactionType": "CALL",
          "contractName": null,
          "contractAddress": "0x390225c015ffb24e18bdca2e1ddf87367e62c049",
          "function": "allowlistSourceChain(uint64,bool)",
          "arguments": [
            "10344971235874465080",
            "true"
          ],
          "transaction": {
            "from": "0x8454d149beb26e3e3fc5ed1c87fb0b2a1b7b6c2c",
            "to": "0x390225c015ffb24e18bdca2e1ddf87367e62c049",
            "gas": "0xb0f9",
            "value": "0x0",
            "input": "0xdb04fa490000000000000000000000000000000000000000000000008f90b8876dee65380000000000000000000000000000000000000000000000000000000000000001",
            "nonce": "0x853",
            "chainId": "0xaa36a7"
          },
          "additionalContracts": [],
          "isFixedGasLimit": false
        },
        {
          "hash": "0x732f899ddd8260e72c72eadc8c098604b99a3570540e3b2cf265655994b25426",
          "transactionType": "CALL",
          "contractName": null,
          "contractAddress": "0x390225c015ffb24e18bdca2e1ddf87367e62c049",
          "function": "allowlistSourceChain(uint64,bool)",
          "arguments": [
            "16015286601757825753",
            "true"
          ],
          "transaction": {
            "from": "0x8454d149beb26e3e3fc5ed1c87fb0b2a1b7b6c2c",
            "to": "0x390225c015ffb24e18bdca2e1ddf87367e62c049",
            "gas": "0x11c56",
            "value": "0x0",
            "input": "0xdb04fa49000000000000000000000000000000000000000000000000de41ba4fc9d91ad90000000000000000000000000000000000000000000000000000000000000001",
            "nonce": "0x854",
            "chainId": "0xaa36a7"
          },
          "additionalContracts": [],
          "isFixedGasLimit": false
        },
        {
          "hash": "0x6bf1f1aa3831c0ee3cc6df7b874393e72790c1e74bc52c25ed78c83de1f6413d",
          "transactionType": "CALL",
          "contractName": null,
          "contractAddress": "0x390225c015ffb24e18bdca2e1ddf87367e62c049",
          "function": "allowlistDestinationChain(uint64,bool)",
          "arguments": [
            "10344971235874465080",
            "true"
          ],
          "transaction": {
            "from": "0x8454d149beb26e3e3fc5ed1c87fb0b2a1b7b6c2c",
            "to": "0x390225c015ffb24e18bdca2e1ddf87367e62c049",
            "gas": "0xbb6f",
            "value": "0x0",
            "input": "0x96d3b83d0000000000000000000000000000000000000000000000008f90b8876dee65380000000000000000000000000000000000000000000000000000000000000001",
            "nonce": "0x855",
            "chainId": "0xaa36a7"
          },
          "additionalContracts": [],
          "isFixedGasLimit": false
        },
        {
          "hash": "0x53612cefb472f93a89f088dfd39e00cb48843b900f04aebe35c07bb0737710c5",
          "transactionType": "CALL",
          "contractName": null,
          "contractAddress": "0x284691a52d74884bcdd49e726354c0d2427e2cf6",
          "function": "setGasLimitsForFunctionSelectors(bytes4[],uint256[])",
          "arguments": [
            "[0xd8a85b48]",
            "[270000]"
          ],
          "transaction": {
            "from": "0x8454d149beb26e3e3fc5ed1c87fb0b2a1b7b6c2c",
            "to": "0x284691a52d74884bcdd49e726354c0d2427e2cf6",
            "gas": "0x126e3",
            "value": "0x0",
            "input": "0x3ef2d377000000000000000000000000000000000000000000000000000000000000004000000000000000000000000000000000000000000000000000000000000000800000000000000000000000000000000000000000000000000000000000000001d8a85b480000000000000000000000000000000000000000000000000000000000000000000000000000000000000000000000000000000000000000000000010000000000000000000000000000000000000000000000000000000000041eb0",
            "nonce": "0x856",
            "chainId": "0xaa36a7"
          },
          "additionalContracts": [],
          "isFixedGasLimit": false
        }
      ],
      "receipts": [
        {
          "status": "0x1",
          "cumulativeGasUsed": "0x59349c",
          "logs": [
            {
              "address": "0x390225c015ffb24e18bdca2e1ddf87367e62c049",
              "topics": [
                "0x7341e817a8458e8902ebedbcd9e82db8299e43de630c89ade217662e6cafe906",
                "0x0000000000000000000000000000000000000000000000008f90b8876dee6538",
                "0x0000000000000000000000002ee92a6e9afb0e94937f9020df3bd6203f73d24a"
              ],
              "data": "0x0000000000000000000000000000000000000000000000000000000000000001",
              "blockHash": "0x7704a8cb6aab2bad8af900311cefd5baea1e83184def31af51c2b76599fc9fe4",
              "blockNumber": "0x783290",
              "transactionHash": "0x63d70dec2ede5a9ad4da8deb8bba682b97b8f8e3abe5dd86ae6e2f5297e2577d",
              "transactionIndex": "0x5f",
              "logIndex": "0x71",
              "removed": false
            }
          ],
          "logsBloom": "0x00000000000000000000000000000000100000040000000000000000000000000000000000000000000000000000000000000000000000000000000000000000000000000000000000000000000000000000000400000000000000000400200000000000000000000000000000000000000000000000000000000000020000004000000000000000000000000000000000000000080000000000000000000000000000000000000000000000000000000000000000000000000000000000000000000000000000000000000000000000000000000000000000000000000000000000000000000000000020000000000000000008000001000000000000000010",
          "type": "0x2",
          "transactionHash": "0x63d70dec2ede5a9ad4da8deb8bba682b97b8f8e3abe5dd86ae6e2f5297e2577d",
          "transactionIndex": "0x5f",
          "blockHash": "0x7704a8cb6aab2bad8af900311cefd5baea1e83184def31af51c2b76599fc9fe4",
          "blockNumber": "0x783290",
          "gasUsed": "0x83d2",
          "effectiveGasPrice": "0x20661cc223",
          "blobGasUsed": "0x0",
          "from": "0x8454d149beb26e3e3fc5ed1c87fb0b2a1b7b6c2c",
          "to": "0x390225c015ffb24e18bdca2e1ddf87367e62c049",
          "contractAddress": null
        },
        {
          "status": "0x1",
          "cumulativeGasUsed": "0x5ca437",
          "logs": [
            {
              "address": "0x390225c015ffb24e18bdca2e1ddf87367e62c049",
              "topics": [
                "0xa5f858f3914e62a82af355192513d8dbc618ff9815e7213a71930d8996a3cb82",
                "0x0000000000000000000000000000000000000000000000008f90b8876dee6538"
              ],
              "data": "0x0000000000000000000000000000000000000000000000000000000000000001",
              "blockHash": "0x7704a8cb6aab2bad8af900311cefd5baea1e83184def31af51c2b76599fc9fe4",
              "blockNumber": "0x783290",
              "transactionHash": "0x539b4a5fe9d2ca413bc6c5b78e4be96dee985c3dcf4f4bc3d1322ac62cd3d9c2",
              "transactionIndex": "0x63",
              "logIndex": "0x74",
              "removed": false
            }
          ],
          "logsBloom": "0x00000000000000000000020000000000000000000000000000000000000000000000000000000000000000000000000000000000000000000000000000000000000000000000000000000000000000000000000400000000000000000000200000000000000000000000100000000000000000000000000000000000020000004000000000000000000000000000000000000000080000000000000000000000000000000000000000000000000000000000000000000000000000000000000000000000000000000000000000000000000000000000000000000000000000000000000000000001000000000000000000000008000000000000000000000000",
          "type": "0x2",
          "transactionHash": "0x539b4a5fe9d2ca413bc6c5b78e4be96dee985c3dcf4f4bc3d1322ac62cd3d9c2",
          "transactionIndex": "0x63",
          "blockHash": "0x7704a8cb6aab2bad8af900311cefd5baea1e83184def31af51c2b76599fc9fe4",
          "blockNumber": "0x783290",
          "gasUsed": "0x8020",
          "effectiveGasPrice": "0x20661cc223",
          "blobGasUsed": "0x0",
          "from": "0x8454d149beb26e3e3fc5ed1c87fb0b2a1b7b6c2c",
          "to": "0x390225c015ffb24e18bdca2e1ddf87367e62c049",
          "contractAddress": null
        },
        {
          "status": "0x1",
          "cumulativeGasUsed": "0x74ebf5",
          "logs": [
            {
              "address": "0x390225c015ffb24e18bdca2e1ddf87367e62c049",
              "topics": [
                "0xa5f858f3914e62a82af355192513d8dbc618ff9815e7213a71930d8996a3cb82",
                "0x000000000000000000000000000000000000000000000000de41ba4fc9d91ad9"
              ],
              "data": "0x0000000000000000000000000000000000000000000000000000000000000001",
              "blockHash": "0x9d6b23ffc1fc60c1108ce05982cfa00639aff311186ce2283330413dda54fca4",
              "blockNumber": "0x783293",
              "transactionHash": "0x732f899ddd8260e72c72eadc8c098604b99a3570540e3b2cf265655994b25426",
              "transactionIndex": "0xb0",
              "logIndex": "0x73",
              "removed": false
            }
          ],
          "logsBloom": "0x00000000000000000000020000000000000000000000000000000000000000000000000000004000000000000000000000000000000000000000000000000000000000000000000000000000000000000000000000000000000000000000000000000000000000000000100000010000000000000000000000000000020000000000000000000000000000000000000000000020080000000000000000000000000000000000000000000000000000000000000000000000000000000000000000000000000000000000000000000000000000000000000000000000000000000000000000000001000000000000000000000008000000000000000000000000",
          "type": "0x2",
          "transactionHash": "0x732f899ddd8260e72c72eadc8c098604b99a3570540e3b2cf265655994b25426",
          "transactionIndex": "0xb0",
          "blockHash": "0x9d6b23ffc1fc60c1108ce05982cfa00639aff311186ce2283330413dda54fca4",
          "blockNumber": "0x783293",
          "gasUsed": "0xcddc",
          "effectiveGasPrice": "0x25a7254812",
          "blobGasUsed": "0x0",
          "from": "0x8454d149beb26e3e3fc5ed1c87fb0b2a1b7b6c2c",
          "to": "0x390225c015ffb24e18bdca2e1ddf87367e62c049",
          "contractAddress": null
        },
        {
          "status": "0x1",
          "cumulativeGasUsed": "0x756c1e",
          "logs": [
            {
              "address": "0x390225c015ffb24e18bdca2e1ddf87367e62c049",
              "topics": [
                "0x79e93956b5c7b59cb1d0aaa5849af9993c5b994c44b148b1944f4e4ecf1e9b89",
                "0x0000000000000000000000000000000000000000000000008f90b8876dee6538"
              ],
              "data": "0x0000000000000000000000000000000000000000000000000000000000000001",
              "blockHash": "0x9d6b23ffc1fc60c1108ce05982cfa00639aff311186ce2283330413dda54fca4",
              "blockNumber": "0x783293",
              "transactionHash": "0x6bf1f1aa3831c0ee3cc6df7b874393e72790c1e74bc52c25ed78c83de1f6413d",
              "transactionIndex": "0xb1",
              "logIndex": "0x74",
              "removed": false
            }
          ],
          "logsBloom": "0x00000000000000000000000000000000000000040000000000000000000000000000000000000000000000000000000000000000000000000000000000000000000000000000000000200000000000000000000400000000000000000000200000000000000000000000000000000000000000000000000000000000020000004000000000000000000000000000000000000000080000000000000000000000000000000000000000000000000000000000000000000000000000100000000000000000000000000000000000000000000000000000000000000000000000000000000000000000000000000000000000000008000000000000000000000000",
          "type": "0x2",
          "transactionHash": "0x6bf1f1aa3831c0ee3cc6df7b874393e72790c1e74bc52c25ed78c83de1f6413d",
          "transactionIndex": "0xb1",
          "blockHash": "0x9d6b23ffc1fc60c1108ce05982cfa00639aff311186ce2283330413dda54fca4",
          "blockNumber": "0x783293",
          "gasUsed": "0x8029",
          "effectiveGasPrice": "0x25a7254812",
          "blobGasUsed": "0x0",
          "from": "0x8454d149beb26e3e3fc5ed1c87fb0b2a1b7b6c2c",
          "to": "0x390225c015ffb24e18bdca2e1ddf87367e62c049",
          "contractAddress": null
        },
        {
          "status": "0x1",
          "cumulativeGasUsed": "0x76419d",
          "logs": [
            {
              "address": "0x284691a52d74884bcdd49e726354c0d2427e2cf6",
              "topics": [
                "0xed4c89b805f4efb58bc4a42b9a3c6f09783f619295a1fa41ab46d6190c8c7f3b",
                "0xd8a85b4800000000000000000000000000000000000000000000000000000000",
                "0x0000000000000000000000000000000000000000000000000000000000041eb0"
              ],
              "data": "0x",
              "blockHash": "0x9d6b23ffc1fc60c1108ce05982cfa00639aff311186ce2283330413dda54fca4",
              "blockNumber": "0x783293",
              "transactionHash": "0x53612cefb472f93a89f088dfd39e00cb48843b900f04aebe35c07bb0737710c5",
              "transactionIndex": "0xb2",
              "logIndex": "0x75",
              "removed": false
            }
          ],
          "logsBloom": "0x00000000000000000040000000000000000000000800000000000000000000000000000000000000000000000000000000000000000000000000000000000000008000000000000808000000000000000000000000800000000000000000000000000000000000000000000000000000800200000000040000000000000000000000000000000000000000001000000000000000000000000000000000000000000000000000000000010000100000000000000000000000000000000000000000000000000000000000000000000000000000000000000000000000000000000000000000000000000000000000000000000000000000000000000000000000",
          "type": "0x2",
          "transactionHash": "0x53612cefb472f93a89f088dfd39e00cb48843b900f04aebe35c07bb0737710c5",
          "transactionIndex": "0xb2",
          "blockHash": "0x9d6b23ffc1fc60c1108ce05982cfa00639aff311186ce2283330413dda54fca4",
          "blockNumber": "0x783293",
          "gasUsed": "0xd57f",
          "effectiveGasPrice": "0x25a7254812",
          "blobGasUsed": "0x0",
          "from": "0x8454d149beb26e3e3fc5ed1c87fb0b2a1b7b6c2c",
          "to": "0x284691a52d74884bcdd49e726354c0d2427e2cf6",
          "contractAddress": null
        }
      ],
      "libraries": [],
      "pending": [],
      "returns": {},
      "timestamp": 1741657896,
      "chain": 11155111,
      "commit": "74e6e68"
    }
  ],
  "timestamp": 1741657958
}