{
  "deployments": [
    {
      "transactions": [
        {
          "hash": "0xc69c157851fc5eef35b7e2cd734e12f94f7e18900737e22d54f289725fec51ad",
          "transactionType": "CALL",
          "contractName": null,
          "contractAddress": "0x1d52bc3415aae68806e3fd44d4cdb0b63e68068a",
          "function": "allowlistSender(address,bool)",
          "arguments": [
            "0x8645c75d0C75b859146AEBb74076B319c9331c4E",
            "true"
          ],
          "transaction": {
            "from": "0x8454d149beb26e3e3fc5ed1c87fb0b2a1b7b6c2c",
            "to": "0x1d52bc3415aae68806e3fd44d4cdb0b63e68068a",
            "gas": "0x121d4",
            "value": "0x0",
            "input": "0xeab5b02c0000000000000000000000008645c75d0c75b859146aebb74076b319c9331c4e0000000000000000000000000000000000000000000000000000000000000001",
            "nonce": "0x250",
            "chainId": "0x14a34"
          },
          "additionalContracts": [],
          "isFixedGasLimit": false
        },
        {
          "hash": "0x96b2d04f49befc0cd0c5a99c53997ae8683605cb7a07c4a7a84e2f568c057fa1",
          "transactionType": "CALL",
          "contractName": null,
          "contractAddress": "0x1d52bc3415aae68806e3fd44d4cdb0b63e68068a",
          "function": "allowlistSourceChain(uint64,bool)",
          "arguments": [
            "10344971235874465080",
            "true"
          ],
          "transaction": {
            "from": "0x8454d149beb26e3e3fc5ed1c87fb0b2a1b7b6c2c",
            "to": "0x1d52bc3415aae68806e3fd44d4cdb0b63e68068a",
            "gas": "0x120f7",
            "value": "0x0",
            "input": "0xdb04fa490000000000000000000000000000000000000000000000008f90b8876dee65380000000000000000000000000000000000000000000000000000000000000001",
            "nonce": "0x251",
            "chainId": "0x14a34"
          },
          "additionalContracts": [],
          "isFixedGasLimit": false
        },
        {
          "hash": "0xc1827732617f7f5cd66663a66fca77df157655b1f6888f952439fd09053e798d",
          "transactionType": "CALL",
          "contractName": null,
          "contractAddress": "0x1d52bc3415aae68806e3fd44d4cdb0b63e68068a",
          "function": "allowlistDestinationChain(uint64,bool)",
          "arguments": [
            "16015286601757825753",
            "true"
          ],
          "transaction": {
            "from": "0x8454d149beb26e3e3fc5ed1c87fb0b2a1b7b6c2c",
            "to": "0x1d52bc3415aae68806e3fd44d4cdb0b63e68068a",
            "gas": "0xb5f4",
            "value": "0x0",
            "input": "0x96d3b83d000000000000000000000000000000000000000000000000de41ba4fc9d91ad90000000000000000000000000000000000000000000000000000000000000001",
            "nonce": "0x252",
            "chainId": "0x14a34"
          },
          "additionalContracts": [],
          "isFixedGasLimit": false
        },
        {
          "hash": "0x641740e40376a84bbc7af2af48ef65f822154546df6d68dbe48ba549a2591654",
          "transactionType": "CALL",
          "contractName": null,
          "contractAddress": "0x205e359bdef6e0ff3e1d820668bbf7ce68d14d08",
          "function": "setGasLimitsForFunctionSelectors(bytes4[],uint256[])",
          "arguments": [
            "[0xe7a050aa00000000000000000000000000000000000000000000000000000000, 0x32e89ace00000000000000000000000000000000000000000000000000000000, 0x0dd8dd0200000000000000000000000000000000000000000000000000000000, 0x60d7faed00000000000000000000000000000000000000000000000000000000, 0xeea9064b00000000000000000000000000000000000000000000000000000000, 0x7f54807100000000000000000000000000000000000000000000000000000000, 0xda8be86400000000000000000000000000000000000000000000000000000000]",
            "[2100000, 700000, 780000, 700000, 600000, 600000, 400000]"
          ],
          "transaction": {
            "from": "0x8454d149beb26e3e3fc5ed1c87fb0b2a1b7b6c2c",
            "to": "0x205e359bdef6e0ff3e1d820668bbf7ce68d14d08",
            "gas": "0x19ca6",
            "value": "0x0",
            "input": "0x3ef2d377000000000000000000000000000000000000000000000000000000000000004000000000000000000000000000000000000000000000000000000000000001400000000000000000000000000000000000000000000000000000000000000007e7a050aa0000000000000000000000000000000000000000000000000000000032e89ace000000000000000000000000000000000000000000000000000000000dd8dd020000000000000000000000000000000000000000000000000000000060d7faed00000000000000000000000000000000000000000000000000000000eea9064b000000000000000000000000000000000000000000000000000000007f54807100000000000000000000000000000000000000000000000000000000da8be8640000000000000000000000000000000000000000000000000000000000000000000000000000000000000000000000000000000000000000000000070000000000000000000000000000000000000000000000000000000000200b2000000000000000000000000000000000000000000000000000000000000aae6000000000000000000000000000000000000000000000000000000000000be6e000000000000000000000000000000000000000000000000000000000000aae6000000000000000000000000000000000000000000000000000000000000927c000000000000000000000000000000000000000000000000000000000000927c00000000000000000000000000000000000000000000000000000000000061a80",
            "nonce": "0x253",
            "chainId": "0x14a34"
          },
          "additionalContracts": [],
          "isFixedGasLimit": false
        },
        {
          "hash": "0x218414a131402461d16473edc3d0aaeb561759df615735e56fbaa38756a0a775",
          "transactionType": "CALL",
          "contractName": null,
          "contractAddress": "0x88a2d74f47a237a62e7a51cdda67270ce381555e",
          "function": "drip(address)",
          "arguments": [
            "0x8454d149Beb26E3E3FC5eD1C87Fb0B2a1b7B6c2c"
          ],
          "transaction": {
            "from": "0x8454d149beb26e3e3fc5ed1c87fb0b2a1b7b6c2c",
            "to": "0x88a2d74f47a237a62e7a51cdda67270ce381555e",
            "gas": "0xb69c",
            "value": "0x0",
            "input": "0x67a5cd060000000000000000000000008454d149beb26e3e3fc5ed1c87fb0b2a1b7b6c2c",
            "nonce": "0x254",
            "chainId": "0x14a34"
          },
          "additionalContracts": [],
          "isFixedGasLimit": false
        },
        {
          "hash": "0xc5f51780c94f78eb81d945d073204e76bd023e0e0794a9ac670408c0691ae477",
          "transactionType": "CALL",
          "contractName": null,
          "contractAddress": "0x1d52bc3415aae68806e3fd44d4cdb0b63e68068a",
          "function": "allowlistedSenders(address)",
          "arguments": [
            "0x8645c75d0C75b859146AEBb74076B319c9331c4E"
          ],
          "transaction": {
            "from": "0x8454d149beb26e3e3fc5ed1c87fb0b2a1b7b6c2c",
            "to": "0x1d52bc3415aae68806e3fd44d4cdb0b63e68068a",
            "gas": "0xa8ef",
            "value": "0x0",
            "input": "0x6159ada10000000000000000000000008645c75d0c75b859146aebb74076b319c9331c4e",
            "nonce": "0x255",
            "chainId": "0x14a34"
          },
          "additionalContracts": [],
          "isFixedGasLimit": false
        }
      ],
      "receipts": [
        {
          "status": "0x1",
          "cumulativeGasUsed": "0x2ab394",
          "logs": [],
          "logsBloom": "0x00000000000000000000000000000000000000000000000000000000000000000000000000000000000000000000000000000000000000000000000000000000000000000000000000000000000000000000000000000000000000000000000000000000000000000000000000000000000000000000000000000000000000000000000000000000000000000000000000000000000000000000000000000000000000000000000000000000000000000000000000000000000000000000000000000000000000000000000000000000000000000000000000000000000000000000000000000000000000000000000000000000000000000000000000000000",
          "type": "0x2",
          "transactionHash": "0xc69c157851fc5eef35b7e2cd734e12f94f7e18900737e22d54f289725fec51ad",
          "transactionIndex": "0xa",
          "blockHash": "0xf0ced2035f83889ec78dfa2c64783a09fdbd234c6cd9c3807016cc0eaef7f1c8",
          "blockNumber": "0xdfdace",
          "gasUsed": "0xd1d5",
          "effectiveGasPrice": "0x7a647",
          "from": "0x8454d149beb26e3e3fc5ed1c87fb0b2a1b7b6c2c",
          "to": "0x1d52bc3415aae68806e3fd44d4cdb0b63e68068a",
          "contractAddress": null,
          "l1BaseFeeScalar": "0x44d",
          "l1BlobBaseFee": "0xf0a79d117",
          "l1BlobBaseFeeScalar": "0xa118b",
          "l1Fee": "0x3e1f98d045c",
          "l1GasPrice": "0xd9b5a1cb",
          "l1GasUsed": "0x640"
        },
        {
          "status": "0x1",
          "cumulativeGasUsed": "0x2b84c9",
          "logs": [],
          "logsBloom": "0x00000000000000000000000000000000000000000000000000000000000000000000000000000000000000000000000000000000000000000000000000000000000000000000000000000000000000000000000000000000000000000000000000000000000000000000000000000000000000000000000000000000000000000000000000000000000000000000000000000000000000000000000000000000000000000000000000000000000000000000000000000000000000000000000000000000000000000000000000000000000000000000000000000000000000000000000000000000000000000000000000000000000000000000000000000000",
          "type": "0x2",
          "transactionHash": "0x96b2d04f49befc0cd0c5a99c53997ae8683605cb7a07c4a7a84e2f568c057fa1",
          "transactionIndex": "0xb",
          "blockHash": "0xf0ced2035f83889ec78dfa2c64783a09fdbd234c6cd9c3807016cc0eaef7f1c8",
          "blockNumber": "0xdfdace",
          "gasUsed": "0xd135",
          "effectiveGasPrice": "0x7a647",
          "from": "0x8454d149beb26e3e3fc5ed1c87fb0b2a1b7b6c2c",
          "to": "0x1d52bc3415aae68806e3fd44d4cdb0b63e68068a",
          "contractAddress": null,
          "l1BaseFeeScalar": "0x44d",
          "l1BlobBaseFee": "0xf0a79d117",
          "l1BlobBaseFeeScalar": "0xa118b",
          "l1Fee": "0x3e1f98d045c",
          "l1GasPrice": "0xd9b5a1cb",
          "l1GasUsed": "0x640"
        },
        {
          "status": "0x1",
          "cumulativeGasUsed": "0x2c0885",
          "logs": [],
          "logsBloom": "0x00000000000000000000000000000000000000000000000000000000000000000000000000000000000000000000000000000000000000000000000000000000000000000000000000000000000000000000000000000000000000000000000000000000000000000000000000000000000000000000000000000000000000000000000000000000000000000000000000000000000000000000000000000000000000000000000000000000000000000000000000000000000000000000000000000000000000000000000000000000000000000000000000000000000000000000000000000000000000000000000000000000000000000000000000000000",
          "type": "0x2",
          "transactionHash": "0xc1827732617f7f5cd66663a66fca77df157655b1f6888f952439fd09053e798d",
          "transactionIndex": "0xc",
          "blockHash": "0xf0ced2035f83889ec78dfa2c64783a09fdbd234c6cd9c3807016cc0eaef7f1c8",
          "blockNumber": "0xdfdace",
          "gasUsed": "0x83bc",
          "effectiveGasPrice": "0x7a647",
          "from": "0x8454d149beb26e3e3fc5ed1c87fb0b2a1b7b6c2c",
          "to": "0x1d52bc3415aae68806e3fd44d4cdb0b63e68068a",
          "contractAddress": null,
          "l1BaseFeeScalar": "0x44d",
          "l1BlobBaseFee": "0xf0a79d117",
          "l1BlobBaseFeeScalar": "0xa118b",
          "l1Fee": "0x3e1f98d045c",
          "l1GasPrice": "0xd9b5a1cb",
          "l1GasUsed": "0x640"
        },
        {
          "status": "0x1",
          "cumulativeGasUsed": "0x2d3345",
          "logs": [
            {
              "address": "0x205e359bdef6e0ff3e1d820668bbf7ce68d14d08",
              "topics": [
                "0xed4c89b805f4efb58bc4a42b9a3c6f09783f619295a1fa41ab46d6190c8c7f3b",
                "0xe7a050aa00000000000000000000000000000000000000000000000000000000",
                "0x0000000000000000000000000000000000000000000000000000000000200b20"
              ],
              "data": "0x",
              "blockHash": "0xf0ced2035f83889ec78dfa2c64783a09fdbd234c6cd9c3807016cc0eaef7f1c8",
              "blockNumber": "0xdfdace",
              "transactionHash": "0x641740e40376a84bbc7af2af48ef65f822154546df6d68dbe48ba549a2591654",
              "transactionIndex": "0xd",
              "logIndex": "0x35",
              "removed": false
            },
            {
              "address": "0x205e359bdef6e0ff3e1d820668bbf7ce68d14d08",
              "topics": [
                "0xed4c89b805f4efb58bc4a42b9a3c6f09783f619295a1fa41ab46d6190c8c7f3b",
                "0x32e89ace00000000000000000000000000000000000000000000000000000000",
                "0x00000000000000000000000000000000000000000000000000000000000aae60"
              ],
              "data": "0x",
              "blockHash": "0xf0ced2035f83889ec78dfa2c64783a09fdbd234c6cd9c3807016cc0eaef7f1c8",
              "blockNumber": "0xdfdace",
              "transactionHash": "0x641740e40376a84bbc7af2af48ef65f822154546df6d68dbe48ba549a2591654",
              "transactionIndex": "0xd",
              "logIndex": "0x36",
              "removed": false
            },
            {
              "address": "0x205e359bdef6e0ff3e1d820668bbf7ce68d14d08",
              "topics": [
                "0xed4c89b805f4efb58bc4a42b9a3c6f09783f619295a1fa41ab46d6190c8c7f3b",
                "0x0dd8dd0200000000000000000000000000000000000000000000000000000000",
                "0x00000000000000000000000000000000000000000000000000000000000be6e0"
              ],
              "data": "0x",
              "blockHash": "0xf0ced2035f83889ec78dfa2c64783a09fdbd234c6cd9c3807016cc0eaef7f1c8",
              "blockNumber": "0xdfdace",
              "transactionHash": "0x641740e40376a84bbc7af2af48ef65f822154546df6d68dbe48ba549a2591654",
              "transactionIndex": "0xd",
              "logIndex": "0x37",
              "removed": false
            },
            {
              "address": "0x205e359bdef6e0ff3e1d820668bbf7ce68d14d08",
              "topics": [
                "0xed4c89b805f4efb58bc4a42b9a3c6f09783f619295a1fa41ab46d6190c8c7f3b",
                "0x60d7faed00000000000000000000000000000000000000000000000000000000",
                "0x00000000000000000000000000000000000000000000000000000000000aae60"
              ],
              "data": "0x",
              "blockHash": "0xf0ced2035f83889ec78dfa2c64783a09fdbd234c6cd9c3807016cc0eaef7f1c8",
              "blockNumber": "0xdfdace",
              "transactionHash": "0x641740e40376a84bbc7af2af48ef65f822154546df6d68dbe48ba549a2591654",
              "transactionIndex": "0xd",
              "logIndex": "0x38",
              "removed": false
            },
            {
              "address": "0x205e359bdef6e0ff3e1d820668bbf7ce68d14d08",
              "topics": [
                "0xed4c89b805f4efb58bc4a42b9a3c6f09783f619295a1fa41ab46d6190c8c7f3b",
                "0xeea9064b00000000000000000000000000000000000000000000000000000000",
                "0x00000000000000000000000000000000000000000000000000000000000927c0"
              ],
              "data": "0x",
              "blockHash": "0xf0ced2035f83889ec78dfa2c64783a09fdbd234c6cd9c3807016cc0eaef7f1c8",
              "blockNumber": "0xdfdace",
              "transactionHash": "0x641740e40376a84bbc7af2af48ef65f822154546df6d68dbe48ba549a2591654",
              "transactionIndex": "0xd",
              "logIndex": "0x39",
              "removed": false
            },
            {
              "address": "0x205e359bdef6e0ff3e1d820668bbf7ce68d14d08",
              "topics": [
                "0xed4c89b805f4efb58bc4a42b9a3c6f09783f619295a1fa41ab46d6190c8c7f3b",
                "0x7f54807100000000000000000000000000000000000000000000000000000000",
                "0x00000000000000000000000000000000000000000000000000000000000927c0"
              ],
              "data": "0x",
              "blockHash": "0xf0ced2035f83889ec78dfa2c64783a09fdbd234c6cd9c3807016cc0eaef7f1c8",
              "blockNumber": "0xdfdace",
              "transactionHash": "0x641740e40376a84bbc7af2af48ef65f822154546df6d68dbe48ba549a2591654",
              "transactionIndex": "0xd",
              "logIndex": "0x3a",
              "removed": false
            },
            {
              "address": "0x205e359bdef6e0ff3e1d820668bbf7ce68d14d08",
              "topics": [
                "0xed4c89b805f4efb58bc4a42b9a3c6f09783f619295a1fa41ab46d6190c8c7f3b",
                "0xda8be86400000000000000000000000000000000000000000000000000000000",
                "0x0000000000000000000000000000000000000000000000000000000000061a80"
              ],
              "data": "0x",
              "blockHash": "0xf0ced2035f83889ec78dfa2c64783a09fdbd234c6cd9c3807016cc0eaef7f1c8",
              "blockNumber": "0xdfdace",
              "transactionHash": "0x641740e40376a84bbc7af2af48ef65f822154546df6d68dbe48ba549a2591654",
              "transactionIndex": "0xd",
              "logIndex": "0x3b",
              "removed": false
            }
          ],
          "logsBloom": "0x00000000000000000040000000000000000000200800000000000000004000000020000000000000000800000040000400000000200000000000000000000010000000000400000040000000000000040002000000000000000000000000000000002000000000001000000000000004818000000002000000000000000000000200100000800000000000000000010000000000000000000004000000080000000000000000000000000000002000000000000008000040008000000004400500000000001000000000001000000000000000000000000000100000000000000000000000200000084000000000000000000000000000000000010000000000",
          "type": "0x2",
          "transactionHash": "0x641740e40376a84bbc7af2af48ef65f822154546df6d68dbe48ba549a2591654",
          "transactionIndex": "0xd",
          "blockHash": "0xf0ced2035f83889ec78dfa2c64783a09fdbd234c6cd9c3807016cc0eaef7f1c8",
          "blockNumber": "0xdfdace",
          "gasUsed": "0x12ac0",
          "effectiveGasPrice": "0x7a647",
          "from": "0x8454d149beb26e3e3fc5ed1c87fb0b2a1b7b6c2c",
          "to": "0x205e359bdef6e0ff3e1d820668bbf7ce68d14d08",
          "contractAddress": null,
          "l1BaseFeeScalar": "0x44d",
          "l1BlobBaseFee": "0xf0a79d117",
          "l1BlobBaseFeeScalar": "0xa118b",
          "l1Fee": "0x6904db0d016",
          "l1GasPrice": "0xd9b5a1cb",
          "l1GasUsed": "0xa90"
        },
        {
          "status": "0x1",
          "cumulativeGasUsed": "0x2db77a",
          "logs": [
            {
              "address": "0x88a2d74f47a237a62e7a51cdda67270ce381555e",
              "topics": [
                "0xddf252ad1be2c89b69c2b068fc378daa952ba7f163c4a11628f55a4df523b3ef",
                "0x0000000000000000000000000000000000000000000000000000000000000000",
                "0x0000000000000000000000008454d149beb26e3e3fc5ed1c87fb0b2a1b7b6c2c"
              ],
              "data": "0x0000000000000000000000000000000000000000000000000de0b6b3a7640000",
              "blockHash": "0xf0ced2035f83889ec78dfa2c64783a09fdbd234c6cd9c3807016cc0eaef7f1c8",
              "blockNumber": "0xdfdace",
              "transactionHash": "0x218414a131402461d16473edc3d0aaeb561759df615735e56fbaa38756a0a775",
              "transactionIndex": "0xe",
              "logIndex": "0x3c",
              "removed": false
            }
          ],
          "logsBloom": "0x00000000000000000000000000000000000000000000000000000000000800000000000000000000000000000000000000000000000000000000000000000000000000000000000000000008000000000000000000000000000000000000000000000000020000080000000000000800000000000000000000000010000000000000000000000000000000000000000000000000000000000000000000000000080000000000000000000000000000000000000000000000000000000000000000000002000000000000000000000000080000000000000000000000000a20000000000000000000000000000000000000000000000000000000000000000000",
          "type": "0x2",
          "transactionHash": "0x218414a131402461d16473edc3d0aaeb561759df615735e56fbaa38756a0a775",
          "transactionIndex": "0xe",
          "blockHash": "0xf0ced2035f83889ec78dfa2c64783a09fdbd234c6cd9c3807016cc0eaef7f1c8",
          "blockNumber": "0xdfdace",
          "gasUsed": "0x8435",
          "effectiveGasPrice": "0x7a647",
          "from": "0x8454d149beb26e3e3fc5ed1c87fb0b2a1b7b6c2c",
          "to": "0x88a2d74f47a237a62e7a51cdda67270ce381555e",
          "contractAddress": null,
          "l1BaseFeeScalar": "0x44d",
          "l1BlobBaseFee": "0xf0a79d117",
          "l1BlobBaseFeeScalar": "0xa118b",
          "l1Fee": "0x3e1f98d045c",
          "l1GasPrice": "0xd9b5a1cb",
          "l1GasUsed": "0x640"
        },
        {
          "status": "0x1",
          "cumulativeGasUsed": "0x2e31c9",
          "logs": [],
          "logsBloom": "0x00000000000000000000000000000000000000000000000000000000000000000000000000000000000000000000000000000000000000000000000000000000000000000000000000000000000000000000000000000000000000000000000000000000000000000000000000000000000000000000000000000000000000000000000000000000000000000000000000000000000000000000000000000000000000000000000000000000000000000000000000000000000000000000000000000000000000000000000000000000000000000000000000000000000000000000000000000000000000000000000000000000000000000000000000000000",
          "type": "0x2",
          "transactionHash": "0xc5f51780c94f78eb81d945d073204e76bd023e0e0794a9ac670408c0691ae477",
          "transactionIndex": "0xf",
          "blockHash": "0xf0ced2035f83889ec78dfa2c64783a09fdbd234c6cd9c3807016cc0eaef7f1c8",
          "blockNumber": "0xdfdace",
          "gasUsed": "0x7a4f",
          "effectiveGasPrice": "0x7a647",
          "from": "0x8454d149beb26e3e3fc5ed1c87fb0b2a1b7b6c2c",
          "to": "0x1d52bc3415aae68806e3fd44d4cdb0b63e68068a",
          "contractAddress": null,
          "l1BaseFeeScalar": "0x44d",
          "l1BlobBaseFee": "0xf0a79d117",
          "l1BlobBaseFeeScalar": "0xa118b",
          "l1Fee": "0x3e1f98d045c",
          "l1GasPrice": "0xd9b5a1cb",
          "l1GasUsed": "0x640"
        }
      ],
      "libraries": [],
      "pending": [],
      "returns": {},
      "timestamp": 1725109370,
      "chain": 84532,
      "commit": "a27ebe2"
    },
    {
      "transactions": [
        {
          "hash": "0xe2aa8d162073c984f5f270fa95978b46b033386ec5f89c8150f2b7902ecc7276",
          "transactionType": "CALL",
          "contractName": null,
          "contractAddress": "0x8645c75d0c75b859146aebb74076b319c9331c4e",
          "function": "allowlistSender(address,bool)",
          "arguments": [
            "0x1D52bC3415AAe68806E3Fd44D4cdb0b63E68068A",
            "true"
          ],
          "transaction": {
            "from": "0x8454d149beb26e3e3fc5ed1c87fb0b2a1b7b6c2c",
            "to": "0x8645c75d0c75b859146aebb74076b319c9331c4e",
            "gas": "0xb6b2",
            "value": "0x0",
            "input": "0xeab5b02c0000000000000000000000001d52bc3415aae68806e3fd44d4cdb0b63e68068a0000000000000000000000000000000000000000000000000000000000000001",
            "nonce": "0x451",
            "chainId": "0xaa36a7"
          },
          "additionalContracts": [],
          "isFixedGasLimit": false
        },
        {
          "hash": "0x6a235f695d4766641999a3c0443168e4aaa9b0ceffc99ac72f3b733dfa80139b",
          "transactionType": "CALL",
          "contractName": null,
          "contractAddress": "0x8645c75d0c75b859146aebb74076b319c9331c4e",
          "function": "allowlistSourceChain(uint64,bool)",
          "arguments": [
            "10344971235874465080",
            "true"
          ],
          "transaction": {
            "from": "0x8454d149beb26e3e3fc5ed1c87fb0b2a1b7b6c2c",
            "to": "0x8645c75d0c75b859146aebb74076b319c9331c4e",
            "gas": "0xb5d5",
            "value": "0x0",
            "input": "0xdb04fa490000000000000000000000000000000000000000000000008f90b8876dee65380000000000000000000000000000000000000000000000000000000000000001",
            "nonce": "0x452",
            "chainId": "0xaa36a7"
          },
          "additionalContracts": [],
          "isFixedGasLimit": false
        },
        {
          "hash": "0x98bb6ea6da68e155829e369306963a62d7376637f5f04cb6f4b2711ed2e5e689",
          "transactionType": "CALL",
          "contractName": null,
          "contractAddress": "0x8645c75d0c75b859146aebb74076b319c9331c4e",
          "function": "allowlistSourceChain(uint64,bool)",
          "arguments": [
            "16015286601757825753",
            "true"
          ],
          "transaction": {
            "from": "0x8454d149beb26e3e3fc5ed1c87fb0b2a1b7b6c2c",
            "to": "0x8645c75d0c75b859146aebb74076b319c9331c4e",
            "gas": "0xb5d5",
            "value": "0x0",
            "input": "0xdb04fa49000000000000000000000000000000000000000000000000de41ba4fc9d91ad90000000000000000000000000000000000000000000000000000000000000001",
            "nonce": "0x453",
            "chainId": "0xaa36a7"
          },
          "additionalContracts": [],
          "isFixedGasLimit": false
        },
        {
          "hash": "0x7090c97f25214cfa8d7d75dd5399a5914e07139030942e8fe285aea63c54c3a7",
          "transactionType": "CALL",
          "contractName": null,
          "contractAddress": "0x8645c75d0c75b859146aebb74076b319c9331c4e",
          "function": "allowlistDestinationChain(uint64,bool)",
          "arguments": [
            "10344971235874465080",
            "true"
          ],
          "transaction": {
            "from": "0x8454d149beb26e3e3fc5ed1c87fb0b2a1b7b6c2c",
            "to": "0x8645c75d0c75b859146aebb74076b319c9331c4e",
            "gas": "0xb5d6",
            "value": "0x0",
            "input": "0x96d3b83d0000000000000000000000000000000000000000000000008f90b8876dee65380000000000000000000000000000000000000000000000000000000000000001",
            "nonce": "0x454",
            "chainId": "0xaa36a7"
          },
          "additionalContracts": [],
          "isFixedGasLimit": false
        },
        {
          "hash": "0xb7c6bb5138deecdd625367fda60a82b8002756deeb8ed14b2d7057b75e73e489",
          "transactionType": "CALL",
          "contractName": null,
          "contractAddress": "0x673bd60afd73e5b7540ff457bf3e5a32b8e67494",
          "function": "setGasLimitsForFunctionSelectors(bytes4[],uint256[])",
          "arguments": [
            "[0xd8a85b4800000000000000000000000000000000000000000000000000000000]",
            "[295000]"
          ],
          "transaction": {
            "from": "0x8454d149beb26e3e3fc5ed1c87fb0b2a1b7b6c2c",
            "to": "0x673bd60afd73e5b7540ff457bf3e5a32b8e67494",
            "gas": "0xe385",
            "value": "0x0",
            "input": "0x3ef2d377000000000000000000000000000000000000000000000000000000000000004000000000000000000000000000000000000000000000000000000000000000800000000000000000000000000000000000000000000000000000000000000001d8a85b480000000000000000000000000000000000000000000000000000000000000000000000000000000000000000000000000000000000000000000000010000000000000000000000000000000000000000000000000000000000048058",
            "nonce": "0x455",
            "chainId": "0xaa36a7"
          },
          "additionalContracts": [],
          "isFixedGasLimit": false
        },
        {
          "hash": "0x8cd9be047fbf317dc7e2cb2cb14ffe90fc6e86be247c5e08519727ba05d2d358",
          "transactionType": "CALL",
          "contractName": null,
          "contractAddress": "0xfd57b4ddbf88a4e07ff4e34c487b99af2fe82a05",
          "function": "drip(address)",
          "arguments": [
            "0x8645c75d0C75b859146AEBb74076B319c9331c4E"
          ],
          "transaction": {
            "from": "0x8454d149beb26e3e3fc5ed1c87fb0b2a1b7b6c2c",
            "to": "0xfd57b4ddbf88a4e07ff4e34c487b99af2fe82a05",
            "gas": "0x1230a",
            "value": "0x0",
            "input": "0x67a5cd060000000000000000000000008645c75d0c75b859146aebb74076b319c9331c4e",
            "nonce": "0x456",
            "chainId": "0xaa36a7"
          },
          "additionalContracts": [],
          "isFixedGasLimit": false
        }
      ],
      "receipts": [
        {
          "status": "0x1",
          "cumulativeGasUsed": "0x113d97e",
          "logs": [],
          "logsBloom": "0x00000000000000000000000000000000000000000000000000000000000000000000000000000000000000000000000000000000000000000000000000000000000000000000000000000000000000000000000000000000000000000000000000000000000000000000000000000000000000000000000000000000000000000000000000000000000000000000000000000000000000000000000000000000000000000000000000000000000000000000000000000000000000000000000000000000000000000000000000000000000000000000000000000000000000000000000000000000000000000000000000000000000000000000000000000000",
          "type": "0x2",
          "transactionHash": "0xe2aa8d162073c984f5f270fa95978b46b033386ec5f89c8150f2b7902ecc7276",
          "transactionIndex": "0x8c",
          "blockHash": "0x4c279751dcd89f59568be7cdfad256a3e8a44b611649e3e48542618358836a3c",
          "blockNumber": "0x64cea8",
          "gasUsed": "0x8445",
          "effectiveGasPrice": "0x11be42a97",
          "from": "0x8454d149beb26e3e3fc5ed1c87fb0b2a1b7b6c2c",
          "to": "0x8645c75d0c75b859146aebb74076b319c9331c4e",
          "contractAddress": null
        },
        {
          "status": "0x1",
          "cumulativeGasUsed": "0x1145d23",
          "logs": [],
          "logsBloom": "0x00000000000000000000000000000000000000000000000000000000000000000000000000000000000000000000000000000000000000000000000000000000000000000000000000000000000000000000000000000000000000000000000000000000000000000000000000000000000000000000000000000000000000000000000000000000000000000000000000000000000000000000000000000000000000000000000000000000000000000000000000000000000000000000000000000000000000000000000000000000000000000000000000000000000000000000000000000000000000000000000000000000000000000000000000000000",
          "type": "0x2",
          "transactionHash": "0x6a235f695d4766641999a3c0443168e4aaa9b0ceffc99ac72f3b733dfa80139b",
          "transactionIndex": "0x8d",
          "blockHash": "0x4c279751dcd89f59568be7cdfad256a3e8a44b611649e3e48542618358836a3c",
          "blockNumber": "0x64cea8",
          "gasUsed": "0x83a5",
          "effectiveGasPrice": "0x11be42a97",
          "from": "0x8454d149beb26e3e3fc5ed1c87fb0b2a1b7b6c2c",
          "to": "0x8645c75d0c75b859146aebb74076b319c9331c4e",
          "contractAddress": null
        },
        {
          "status": "0x1",
          "cumulativeGasUsed": "0x114e0c8",
          "logs": [],
          "logsBloom": "0x00000000000000000000000000000000000000000000000000000000000000000000000000000000000000000000000000000000000000000000000000000000000000000000000000000000000000000000000000000000000000000000000000000000000000000000000000000000000000000000000000000000000000000000000000000000000000000000000000000000000000000000000000000000000000000000000000000000000000000000000000000000000000000000000000000000000000000000000000000000000000000000000000000000000000000000000000000000000000000000000000000000000000000000000000000000",
          "type": "0x2",
          "transactionHash": "0x98bb6ea6da68e155829e369306963a62d7376637f5f04cb6f4b2711ed2e5e689",
          "transactionIndex": "0x8e",
          "blockHash": "0x4c279751dcd89f59568be7cdfad256a3e8a44b611649e3e48542618358836a3c",
          "blockNumber": "0x64cea8",
          "gasUsed": "0x83a5",
          "effectiveGasPrice": "0x11be42a97",
          "from": "0x8454d149beb26e3e3fc5ed1c87fb0b2a1b7b6c2c",
          "to": "0x8645c75d0c75b859146aebb74076b319c9331c4e",
          "contractAddress": null
        },
        {
          "status": "0x1",
          "cumulativeGasUsed": "0x115646e",
          "logs": [],
          "logsBloom": "0x00000000000000000000000000000000000000000000000000000000000000000000000000000000000000000000000000000000000000000000000000000000000000000000000000000000000000000000000000000000000000000000000000000000000000000000000000000000000000000000000000000000000000000000000000000000000000000000000000000000000000000000000000000000000000000000000000000000000000000000000000000000000000000000000000000000000000000000000000000000000000000000000000000000000000000000000000000000000000000000000000000000000000000000000000000000",
          "type": "0x2",
          "transactionHash": "0x7090c97f25214cfa8d7d75dd5399a5914e07139030942e8fe285aea63c54c3a7",
          "transactionIndex": "0x8f",
          "blockHash": "0x4c279751dcd89f59568be7cdfad256a3e8a44b611649e3e48542618358836a3c",
          "blockNumber": "0x64cea8",
          "gasUsed": "0x83a6",
          "effectiveGasPrice": "0x11be42a97",
          "from": "0x8454d149beb26e3e3fc5ed1c87fb0b2a1b7b6c2c",
          "to": "0x8645c75d0c75b859146aebb74076b319c9331c4e",
          "contractAddress": null
        },
        {
          "status": "0x1",
          "cumulativeGasUsed": "0x1160000",
          "logs": [
            {
              "address": "0x673bd60afd73e5b7540ff457bf3e5a32b8e67494",
              "topics": [
                "0xed4c89b805f4efb58bc4a42b9a3c6f09783f619295a1fa41ab46d6190c8c7f3b",
                "0xd8a85b4800000000000000000000000000000000000000000000000000000000",
                "0x0000000000000000000000000000000000000000000000000000000000048058"
              ],
              "data": "0x",
              "blockHash": "0x4c279751dcd89f59568be7cdfad256a3e8a44b611649e3e48542618358836a3c",
              "blockNumber": "0x64cea8",
              "transactionHash": "0xb7c6bb5138deecdd625367fda60a82b8002756deeb8ed14b2d7057b75e73e489",
              "transactionIndex": "0x90",
              "logIndex": "0xae",
              "removed": false
            }
          ],
          "logsBloom": "0x00000000000000000040000000000000000000000800000000000000000000000000000000000000000000000000000000000000000000000000000000000000000000000000000000000000000000000800000000000000000000000000000000000000000000000000000000000000800000000000040000000000000000000002000004000004000000001000000000000000000000000000000000000000000000000000000000010000000000000000000000000000000000000000000000000000000000000000000000040000000000000000000000000000000000000000000000000000000000000000000000000000000000002000000000000000",
          "type": "0x2",
          "transactionHash": "0xb7c6bb5138deecdd625367fda60a82b8002756deeb8ed14b2d7057b75e73e489",
          "transactionIndex": "0x90",
          "blockHash": "0x4c279751dcd89f59568be7cdfad256a3e8a44b611649e3e48542618358836a3c",
          "blockNumber": "0x64cea8",
          "gasUsed": "0x9b92",
          "effectiveGasPrice": "0x11be42a97",
          "from": "0x8454d149beb26e3e3fc5ed1c87fb0b2a1b7b6c2c",
          "to": "0x673bd60afd73e5b7540ff457bf3e5a32b8e67494",
          "contractAddress": null
        },
        {
          "status": "0x1",
          "cumulativeGasUsed": "0x116c701",
          "logs": [
            {
              "address": "0xfd57b4ddbf88a4e07ff4e34c487b99af2fe82a05",
              "topics": [
                "0xddf252ad1be2c89b69c2b068fc378daa952ba7f163c4a11628f55a4df523b3ef",
                "0x0000000000000000000000000000000000000000000000000000000000000000",
                "0x0000000000000000000000008645c75d0c75b859146aebb74076b319c9331c4e"
              ],
              "data": "0x0000000000000000000000000000000000000000000000000de0b6b3a7640000",
              "blockHash": "0x4c279751dcd89f59568be7cdfad256a3e8a44b611649e3e48542618358836a3c",
              "blockNumber": "0x64cea8",
              "transactionHash": "0x8cd9be047fbf317dc7e2cb2cb14ffe90fc6e86be247c5e08519727ba05d2d358",
              "transactionIndex": "0x91",
              "logIndex": "0xaf",
              "removed": false
            }
          ],
          "logsBloom": "0x00000002000000010000000000000000000000000000000000000000000000000000000000000000000000000000000000000000000000000000000000000000000000000000000000000008000000000000020000000000000000000000000000000000020000000000000000000800000000000000000000000010000000000000000000000000000000000000000000000000000000000000000000000000000000000000000040000000000000080000000000000000000000000000000000000002000000000000000000000000000000000000000000000000000020000000040000000000000000000000000000000000000000000000000000000000",
          "type": "0x2",
          "transactionHash": "0x8cd9be047fbf317dc7e2cb2cb14ffe90fc6e86be247c5e08519727ba05d2d358",
          "transactionIndex": "0x91",
          "blockHash": "0x4c279751dcd89f59568be7cdfad256a3e8a44b611649e3e48542618358836a3c",
          "blockNumber": "0x64cea8",
          "gasUsed": "0xc701",
          "effectiveGasPrice": "0x11be42a97",
          "from": "0x8454d149beb26e3e3fc5ed1c87fb0b2a1b7b6c2c",
          "to": "0xfd57b4ddbf88a4e07ff4e34c487b99af2fe82a05",
          "contractAddress": null
        }
      ],
      "libraries": [],
      "pending": [],
      "returns": {},
      "timestamp": 1725109370,
      "chain": 11155111,
      "commit": "a27ebe2"
    }
  ],
  "timestamp": 1725109408
}