{
  "deployments": [
    {
      "transactions": [
        {
          "hash": "0x937d60e18fc6b408d91a90212c9758601b16c9110f04947cd3c03730eb0af0ac",
          "transactionType": "CALL",
          "contractName": null,
          "contractAddress": "0x4834dfb5f5a5677eba93f380ec166375047ea2f6",
          "function": "allowlistSender(uint64,address,bool)",
          "arguments": [
            "16015286601757825753",
            "0xAA1ffb25606a449c5B03ea0433b0541c36Fe8903",
            "true"
          ],
          "transaction": {
            "from": "0x8454d149beb26e3e3fc5ed1c87fb0b2a1b7b6c2c",
            "to": "0x4834dfb5f5a5677eba93f380ec166375047ea2f6",
            "gas": "0x12153",
            "value": "0x0",
            "input": "0xf039a009000000000000000000000000000000000000000000000000de41ba4fc9d91ad9000000000000000000000000aa1ffb25606a449c5b03ea0433b0541c36fe89030000000000000000000000000000000000000000000000000000000000000001",
            "nonce": "0x720",
            "chainId": "0x14a34"
          },
          "additionalContracts": [],
          "isFixedGasLimit": false
        },
        {
          "hash": "0x980121b286dc752e5fff5d44a835b944232d8b796d2dda80de05d27e1a305c36",
          "transactionType": "CALL",
          "contractName": null,
          "contractAddress": "0x4834dfb5f5a5677eba93f380ec166375047ea2f6",
          "function": "allowlistSourceChain(uint64,bool)",
          "arguments": [
            "10344971235874465080",
            "true"
          ],
          "transaction": {
            "from": "0x8454d149beb26e3e3fc5ed1c87fb0b2a1b7b6c2c",
            "to": "0x4834dfb5f5a5677eba93f380ec166375047ea2f6",
            "gas": "0x11c1b",
            "value": "0x0",
            "input": "0xdb04fa490000000000000000000000000000000000000000000000008f90b8876dee65380000000000000000000000000000000000000000000000000000000000000001",
            "nonce": "0x721",
            "chainId": "0x14a34"
          },
          "additionalContracts": [],
          "isFixedGasLimit": false
        },
        {
          "hash": "0x5f5a27a68b91f8e765c83b552d7e0450b02434fa713af5bec975e3c2676091ba",
          "transactionType": "CALL",
          "contractName": null,
          "contractAddress": "0x4834dfb5f5a5677eba93f380ec166375047ea2f6",
          "function": "allowlistDestinationChain(uint64,bool)",
          "arguments": [
            "16015286601757825753",
            "true"
          ],
          "transaction": {
            "from": "0x8454d149beb26e3e3fc5ed1c87fb0b2a1b7b6c2c",
            "to": "0x4834dfb5f5a5677eba93f380ec166375047ea2f6",
            "gas": "0xb0c7",
            "value": "0x0",
            "input": "0x96d3b83d000000000000000000000000000000000000000000000000de41ba4fc9d91ad90000000000000000000000000000000000000000000000000000000000000001",
            "nonce": "0x722",
            "chainId": "0x14a34"
          },
          "additionalContracts": [],
          "isFixedGasLimit": false
        },
        {
          "hash": "0x9de6a5e1616edea7682b446219ee5b7bf4a73c5b50ec53341ee59853769d7aeb",
          "transactionType": "CALL",
          "contractName": null,
          "contractAddress": "0xbf186e57781c73ba6e13d504e679cddde464e5fa",
          "function": "setGasLimitsForFunctionSelectors(bytes4[],uint256[])",
          "arguments": [
            "[0xe7a050aa, 0xcc15a557, 0x0dd8dd02, 0xe4cc3f90, 0xeea9064b, 0xda8be864, 0x3ccc861d]",
            "[560000, 300000, 580000, 630000, 400000, 650000, 590000]"
          ],
          "transaction": {
            "from": "0x8454d149beb26e3e3fc5ed1c87fb0b2a1b7b6c2c",
            "to": "0xbf186e57781c73ba6e13d504e679cddde464e5fa",
            "gas": "0x48332",
            "value": "0x0",
            "input": "0x3ef2d377000000000000000000000000000000000000000000000000000000000000004000000000000000000000000000000000000000000000000000000000000001400000000000000000000000000000000000000000000000000000000000000007e7a050aa00000000000000000000000000000000000000000000000000000000cc15a557000000000000000000000000000000000000000000000000000000000dd8dd0200000000000000000000000000000000000000000000000000000000e4cc3f9000000000000000000000000000000000000000000000000000000000eea9064b00000000000000000000000000000000000000000000000000000000da8be864000000000000000000000000000000000000000000000000000000003ccc861d0000000000000000000000000000000000000000000000000000000000000000000000000000000000000000000000000000000000000000000000070000000000000000000000000000000000000000000000000000000000088b8000000000000000000000000000000000000000000000000000000000000493e0000000000000000000000000000000000000000000000000000000000008d9a00000000000000000000000000000000000000000000000000000000000099cf00000000000000000000000000000000000000000000000000000000000061a80000000000000000000000000000000000000000000000000000000000009eb1000000000000000000000000000000000000000000000000000000000000900b0",
            "nonce": "0x723",
            "chainId": "0x14a34"
          },
          "additionalContracts": [],
          "isFixedGasLimit": false
        },
        {
          "hash": "0xab8e3ac2cbf2ba0b6e11473aa8a685bd36fe95d93b6c92da4cbec4f345e74150",
          "transactionType": "CALL",
          "contractName": null,
          "contractAddress": "0xbf186e57781c73ba6e13d504e679cddde464e5fa",
          "function": "setSenderCCIP(address)",
          "arguments": [
            "0x4834DFb5f5A5677eBa93F380EC166375047ea2F6"
          ],
          "transaction": {
            "from": "0x8454d149beb26e3e3fc5ed1c87fb0b2a1b7b6c2c",
            "to": "0xbf186e57781c73ba6e13d504e679cddde464e5fa",
            "gas": "0xaea1",
            "value": "0x0",
            "input": "0xd8d6c31a0000000000000000000000004834dfb5f5a5677eba93f380ec166375047ea2f6",
            "nonce": "0x724",
            "chainId": "0x14a34"
          },
          "additionalContracts": [],
          "isFixedGasLimit": false
        }
      ],
      "receipts": [
        {
          "status": "0x1",
          "cumulativeGasUsed": "0x724555",
          "logs": [
            {
              "address": "0x4834dfb5f5a5677eba93f380ec166375047ea2f6",
              "topics": [
                "0x7341e817a8458e8902ebedbcd9e82db8299e43de630c89ade217662e6cafe906",
                "0x000000000000000000000000000000000000000000000000de41ba4fc9d91ad9",
                "0x000000000000000000000000aa1ffb25606a449c5b03ea0433b0541c36fe8903"
              ],
              "data": "0x0000000000000000000000000000000000000000000000000000000000000001",
              "blockHash": "0x28c747e13c8063dc42e3a2b733f527a47458a73bf369e205bd5b7a7163daf052",
              "blockNumber": "0x16322a6",
              "transactionHash": "0x937d60e18fc6b408d91a90212c9758601b16c9110f04947cd3c03730eb0af0ac",
              "transactionIndex": "0x1c",
              "logIndex": "0xc4",
              "removed": false
            }
          ],
          "logsBloom": "0x00000000000000000000000000000000000000000000000000000000000000000000000000004000000000000000000000000000000000000000000000000000000000000000000000000000000040000000000000000000000000000000004000000000000000000000000000010000000000000000000000000000000000000000000000000000000000000000000000000020000000000000000000000000000020000000000000000000000000000000000000000000000000000000004000000000000000000000000000000000000800080000000000000000000000000000000000000000000020000000000000000000000001000000000000000010",
          "type": "0x2",
          "transactionHash": "0x937d60e18fc6b408d91a90212c9758601b16c9110f04947cd3c03730eb0af0ac",
          "transactionIndex": "0x1c",
          "blockHash": "0x28c747e13c8063dc42e3a2b733f527a47458a73bf369e205bd5b7a7163daf052",
          "blockNumber": "0x16322a6",
          "gasUsed": "0xd178",
          "effectiveGasPrice": "0x31955ed",
          "from": "0x8454d149beb26e3e3fc5ed1c87fb0b2a1b7b6c2c",
          "to": "0x4834dfb5f5a5677eba93f380ec166375047ea2f6",
          "contractAddress": null,
          "l1BaseFeeScalar": "0x44d",
          "l1BlobBaseFee": "0x1",
          "l1BlobBaseFeeScalar": "0xa118b",
          "l1Fee": "0xb419f1c",
          "l1GasPrice": "0x663cc1c",
          "l1GasUsed": "0x640"
        },
        {
          "status": "0x1",
          "cumulativeGasUsed": "0x731305",
          "logs": [
            {
              "address": "0x4834dfb5f5a5677eba93f380ec166375047ea2f6",
              "topics": [
                "0xa5f858f3914e62a82af355192513d8dbc618ff9815e7213a71930d8996a3cb82",
                "0x0000000000000000000000000000000000000000000000008f90b8876dee6538"
              ],
              "data": "0x0000000000000000000000000000000000000000000000000000000000000001",
              "blockHash": "0x28c747e13c8063dc42e3a2b733f527a47458a73bf369e205bd5b7a7163daf052",
              "blockNumber": "0x16322a6",
              "transactionHash": "0x980121b286dc752e5fff5d44a835b944232d8b796d2dda80de05d27e1a305c36",
              "transactionIndex": "0x1d",
              "logIndex": "0xc5",
              "removed": false
            }
          ],
          "logsBloom": "0x00000000000000000000020000000000000000000000000000000000000000000000000000000000000000000000000000000000000000000000000000000000000000000000000000000000000000000000000400000000000000000000204000000000000000000000100000000000000000000000000000000000000000004000000000000000000000000000000000000000000000000000000000000000000020000000000000000000000000000000000000000000000000000000000000000000000000000000000000000000000800000000000000000000000000000000000000000001000000000000000000000000000000000000000000000000",
          "type": "0x2",
          "transactionHash": "0x980121b286dc752e5fff5d44a835b944232d8b796d2dda80de05d27e1a305c36",
          "transactionIndex": "0x1d",
          "blockHash": "0x28c747e13c8063dc42e3a2b733f527a47458a73bf369e205bd5b7a7163daf052",
          "blockNumber": "0x16322a6",
          "gasUsed": "0xcdb0",
          "effectiveGasPrice": "0x31955ed",
          "from": "0x8454d149beb26e3e3fc5ed1c87fb0b2a1b7b6c2c",
          "to": "0x4834dfb5f5a5677eba93f380ec166375047ea2f6",
          "contractAddress": null,
          "l1BaseFeeScalar": "0x44d",
          "l1BlobBaseFee": "0x1",
          "l1BlobBaseFeeScalar": "0xa118b",
          "l1Fee": "0xb419f1c",
          "l1GasPrice": "0x663cc1c",
          "l1GasUsed": "0x640"
        },
        {
          "status": "0x1",
          "cumulativeGasUsed": "0x739302",
          "logs": [
            {
              "address": "0x4834dfb5f5a5677eba93f380ec166375047ea2f6",
              "topics": [
                "0x79e93956b5c7b59cb1d0aaa5849af9993c5b994c44b148b1944f4e4ecf1e9b89",
                "0x000000000000000000000000000000000000000000000000de41ba4fc9d91ad9"
              ],
              "data": "0x0000000000000000000000000000000000000000000000000000000000000001",
              "blockHash": "0x28c747e13c8063dc42e3a2b733f527a47458a73bf369e205bd5b7a7163daf052",
              "blockNumber": "0x16322a6",
              "transactionHash": "0x5f5a27a68b91f8e765c83b552d7e0450b02434fa713af5bec975e3c2676091ba",
              "transactionIndex": "0x1e",
              "logIndex": "0xc6",
              "removed": false
            }
          ],
          "logsBloom": "0x00000000000000000000000000000000000000040000000000000000000000000000000000004000000000000000000000000000000000000000000000000000000000000000000000200000000000000000000000000000000000000000004000000000000000000000000000010000000000000000000000000000000000000000000000000000000000000000000000000020000000000000000000000000000020000000000000000000000000000000000000000000000000100000000000000000000000000000000000000000000800000000000000000000000000000000000000000000000000000000000000000000000000000000000000000000",
          "type": "0x2",
          "transactionHash": "0x5f5a27a68b91f8e765c83b552d7e0450b02434fa713af5bec975e3c2676091ba",
          "transactionIndex": "0x1e",
          "blockHash": "0x28c747e13c8063dc42e3a2b733f527a47458a73bf369e205bd5b7a7163daf052",
          "blockNumber": "0x16322a6",
          "gasUsed": "0x7ffd",
          "effectiveGasPrice": "0x31955ed",
          "from": "0x8454d149beb26e3e3fc5ed1c87fb0b2a1b7b6c2c",
          "to": "0x4834dfb5f5a5677eba93f380ec166375047ea2f6",
          "contractAddress": null,
          "l1BaseFeeScalar": "0x44d",
          "l1BlobBaseFee": "0x1",
          "l1BlobBaseFeeScalar": "0xa118b",
          "l1Fee": "0xb419f1c",
          "l1GasPrice": "0x663cc1c",
          "l1GasUsed": "0x640"
        },
        {
          "status": "0x1",
          "cumulativeGasUsed": "0x76a8e3",
          "logs": [
            {
              "address": "0xbf186e57781c73ba6e13d504e679cddde464e5fa",
              "topics": [
                "0xed4c89b805f4efb58bc4a42b9a3c6f09783f619295a1fa41ab46d6190c8c7f3b",
                "0xe7a050aa00000000000000000000000000000000000000000000000000000000",
                "0x0000000000000000000000000000000000000000000000000000000000088b80"
              ],
              "data": "0x",
              "blockHash": "0x28c747e13c8063dc42e3a2b733f527a47458a73bf369e205bd5b7a7163daf052",
              "blockNumber": "0x16322a6",
              "transactionHash": "0x9de6a5e1616edea7682b446219ee5b7bf4a73c5b50ec53341ee59853769d7aeb",
              "transactionIndex": "0x1f",
              "logIndex": "0xc7",
              "removed": false
            },
            {
              "address": "0xbf186e57781c73ba6e13d504e679cddde464e5fa",
              "topics": [
                "0xed4c89b805f4efb58bc4a42b9a3c6f09783f619295a1fa41ab46d6190c8c7f3b",
                "0xcc15a55700000000000000000000000000000000000000000000000000000000",
                "0x00000000000000000000000000000000000000000000000000000000000493e0"
              ],
              "data": "0x",
              "blockHash": "0x28c747e13c8063dc42e3a2b733f527a47458a73bf369e205bd5b7a7163daf052",
              "blockNumber": "0x16322a6",
              "transactionHash": "0x9de6a5e1616edea7682b446219ee5b7bf4a73c5b50ec53341ee59853769d7aeb",
              "transactionIndex": "0x1f",
              "logIndex": "0xc8",
              "removed": false
            },
            {
              "address": "0xbf186e57781c73ba6e13d504e679cddde464e5fa",
              "topics": [
                "0xed4c89b805f4efb58bc4a42b9a3c6f09783f619295a1fa41ab46d6190c8c7f3b",
                "0x0dd8dd0200000000000000000000000000000000000000000000000000000000",
                "0x000000000000000000000000000000000000000000000000000000000008d9a0"
              ],
              "data": "0x",
              "blockHash": "0x28c747e13c8063dc42e3a2b733f527a47458a73bf369e205bd5b7a7163daf052",
              "blockNumber": "0x16322a6",
              "transactionHash": "0x9de6a5e1616edea7682b446219ee5b7bf4a73c5b50ec53341ee59853769d7aeb",
              "transactionIndex": "0x1f",
              "logIndex": "0xc9",
              "removed": false
            },
            {
              "address": "0xbf186e57781c73ba6e13d504e679cddde464e5fa",
              "topics": [
                "0xed4c89b805f4efb58bc4a42b9a3c6f09783f619295a1fa41ab46d6190c8c7f3b",
                "0xe4cc3f9000000000000000000000000000000000000000000000000000000000",
                "0x0000000000000000000000000000000000000000000000000000000000099cf0"
              ],
              "data": "0x",
              "blockHash": "0x28c747e13c8063dc42e3a2b733f527a47458a73bf369e205bd5b7a7163daf052",
              "blockNumber": "0x16322a6",
              "transactionHash": "0x9de6a5e1616edea7682b446219ee5b7bf4a73c5b50ec53341ee59853769d7aeb",
              "transactionIndex": "0x1f",
              "logIndex": "0xca",
              "removed": false
            },
            {
              "address": "0xbf186e57781c73ba6e13d504e679cddde464e5fa",
              "topics": [
                "0xed4c89b805f4efb58bc4a42b9a3c6f09783f619295a1fa41ab46d6190c8c7f3b",
                "0xeea9064b00000000000000000000000000000000000000000000000000000000",
                "0x0000000000000000000000000000000000000000000000000000000000061a80"
              ],
              "data": "0x",
              "blockHash": "0x28c747e13c8063dc42e3a2b733f527a47458a73bf369e205bd5b7a7163daf052",
              "blockNumber": "0x16322a6",
              "transactionHash": "0x9de6a5e1616edea7682b446219ee5b7bf4a73c5b50ec53341ee59853769d7aeb",
              "transactionIndex": "0x1f",
              "logIndex": "0xcb",
              "removed": false
            },
            {
              "address": "0xbf186e57781c73ba6e13d504e679cddde464e5fa",
              "topics": [
                "0xed4c89b805f4efb58bc4a42b9a3c6f09783f619295a1fa41ab46d6190c8c7f3b",
                "0xda8be86400000000000000000000000000000000000000000000000000000000",
                "0x000000000000000000000000000000000000000000000000000000000009eb10"
              ],
              "data": "0x",
              "blockHash": "0x28c747e13c8063dc42e3a2b733f527a47458a73bf369e205bd5b7a7163daf052",
              "blockNumber": "0x16322a6",
              "transactionHash": "0x9de6a5e1616edea7682b446219ee5b7bf4a73c5b50ec53341ee59853769d7aeb",
              "transactionIndex": "0x1f",
              "logIndex": "0xcc",
              "removed": false
            },
            {
              "address": "0xbf186e57781c73ba6e13d504e679cddde464e5fa",
              "topics": [
                "0xed4c89b805f4efb58bc4a42b9a3c6f09783f619295a1fa41ab46d6190c8c7f3b",
                "0x3ccc861d00000000000000000000000000000000000000000000000000000000",
                "0x00000000000000000000000000000000000000000000000000000000000900b0"
              ],
              "data": "0x",
              "blockHash": "0x28c747e13c8063dc42e3a2b733f527a47458a73bf369e205bd5b7a7163daf052",
              "blockNumber": "0x16322a6",
              "transactionHash": "0x9de6a5e1616edea7682b446219ee5b7bf4a73c5b50ec53341ee59853769d7aeb",
              "transactionIndex": "0x1f",
              "logIndex": "0xcd",
              "removed": false
            }
          ],
          "logsBloom": "0x0000000000000000004000000000000000000000080000000000000000400000000000000000000000080000004000000800000020000000000000000800000000000000000000000000400000000004010800000000200008000000000000000000001000000000080000000000000083000000000204000020000000010104008010000080000000000140010400000000000000040000000000000000000000000040000000000000000040a000000000000000000000000000000000400400000000000000000008001000000000000000000000100000100000000000020000000000001000000000000000000000800000000000020000010000000000",
          "type": "0x2",
          "transactionHash": "0x9de6a5e1616edea7682b446219ee5b7bf4a73c5b50ec53341ee59853769d7aeb",
          "transactionIndex": "0x1f",
          "blockHash": "0x28c747e13c8063dc42e3a2b733f527a47458a73bf369e205bd5b7a7163daf052",
          "blockNumber": "0x16322a6",
          "gasUsed": "0x315e1",
          "effectiveGasPrice": "0x31955ed",
          "from": "0x8454d149beb26e3e3fc5ed1c87fb0b2a1b7b6c2c",
          "to": "0xbf186e57781c73ba6e13d504e679cddde464e5fa",
          "contractAddress": null,
          "l1BaseFeeScalar": "0x44d",
          "l1BlobBaseFee": "0x1",
          "l1BlobBaseFeeScalar": "0xa118b",
          "l1Fee": "0x13c83007",
          "l1GasPrice": "0x663cc1c",
          "l1GasUsed": "0xafb"
        },
        {
          "status": "0x1",
          "cumulativeGasUsed": "0x772752",
          "logs": [
            {
              "address": "0xbf186e57781c73ba6e13d504e679cddde464e5fa",
              "topics": [
                "0xc200bc994a6761c6c93718eb06df928b16dca3e77b7ce283d09852e260c9b2da",
                "0x0000000000000000000000004834dfb5f5a5677eba93f380ec166375047ea2f6"
              ],
              "data": "0x",
              "blockHash": "0x28c747e13c8063dc42e3a2b733f527a47458a73bf369e205bd5b7a7163daf052",
              "blockNumber": "0x16322a6",
              "transactionHash": "0xab8e3ac2cbf2ba0b6e11473aa8a685bd36fe95d93b6c92da4cbec4f345e74150",
              "transactionIndex": "0x20",
              "logIndex": "0xce",
              "removed": false
            }
          ],
          "logsBloom": "0x00000000000000000100000000000000000000000000000000000000000000000000000000000000000000000000000000000000000000000000000000000000000000000000000000000000000000000000000000000000000000000000000000000000000000000800000000000000000000000000000000000000000000000000000000000000000000000000000000000000000000000000000000000000100000000000000000004000c00000000000000000000000000000000000000000000000000000000000000000000000000020000000000000000000000000000000000000000000000000000000000000000000000080020000000000000000",
          "type": "0x2",
          "transactionHash": "0xab8e3ac2cbf2ba0b6e11473aa8a685bd36fe95d93b6c92da4cbec4f345e74150",
          "transactionIndex": "0x20",
          "blockHash": "0x28c747e13c8063dc42e3a2b733f527a47458a73bf369e205bd5b7a7163daf052",
          "blockNumber": "0x16322a6",
          "gasUsed": "0x7e6f",
          "effectiveGasPrice": "0x31955ed",
          "from": "0x8454d149beb26e3e3fc5ed1c87fb0b2a1b7b6c2c",
          "to": "0xbf186e57781c73ba6e13d504e679cddde464e5fa",
          "contractAddress": null,
          "l1BaseFeeScalar": "0x44d",
          "l1BlobBaseFee": "0x1",
          "l1BlobBaseFeeScalar": "0xa118b",
          "l1Fee": "0xb419f1c",
          "l1GasPrice": "0x663cc1c",
          "l1GasUsed": "0x640"
        }
      ],
      "libraries": [],
      "pending": [],
      "returns": {},
      "timestamp": 1742316585,
      "chain": 84532,
      "commit": "1f35fc3"
    },
    {
      "transactions": [
        {
          "hash": "0x393cbd596260809ebebeacb23b659882689514680f673a4f6cc3e04e534268f6",
          "transactionType": "CALL",
          "contractName": null,
          "contractAddress": "0xaa1ffb25606a449c5b03ea0433b0541c36fe8903",
          "function": "allowlistSender(uint64,address,bool)",
          "arguments": [
            "10344971235874465080",
            "0x4834DFb5f5A5677eBa93F380EC166375047ea2F6",
            "true"
          ],
          "transaction": {
            "from": "0x8454d149beb26e3e3fc5ed1c87fb0b2a1b7b6c2c",
            "to": "0xaa1ffb25606a449c5b03ea0433b0541c36fe8903",
            "gas": "0x12171",
            "value": "0x0",
            "input": "0xf039a0090000000000000000000000000000000000000000000000008f90b8876dee65380000000000000000000000004834dfb5f5a5677eba93f380ec166375047ea2f60000000000000000000000000000000000000000000000000000000000000001",
            "nonce": "0xab7",
            "chainId": "0xaa36a7"
          },
          "additionalContracts": [],
          "isFixedGasLimit": false
        },
        {
          "hash": "0xeb597389f894215557fa3f87545976e31492c9496f7fd379e531f3aafec84fe4",
          "transactionType": "CALL",
          "contractName": null,
          "contractAddress": "0xaa1ffb25606a449c5b03ea0433b0541c36fe8903",
          "function": "allowlistSourceChain(uint64,bool)",
          "arguments": [
            "10344971235874465080",
            "true"
          ],
          "transaction": {
            "from": "0x8454d149beb26e3e3fc5ed1c87fb0b2a1b7b6c2c",
            "to": "0xaa1ffb25606a449c5b03ea0433b0541c36fe8903",
            "gas": "0xb0f9",
            "value": "0x0",
            "input": "0xdb04fa490000000000000000000000000000000000000000000000008f90b8876dee65380000000000000000000000000000000000000000000000000000000000000001",
            "nonce": "0xab8",
            "chainId": "0xaa36a7"
          },
          "additionalContracts": [],
          "isFixedGasLimit": false
        },
        {
          "hash": "0xc22613bde92964d961a9b96f6e1de24033b8697f5533ee4c59b0719c8209a203",
          "transactionType": "CALL",
          "contractName": null,
          "contractAddress": "0xaa1ffb25606a449c5b03ea0433b0541c36fe8903",
          "function": "allowlistSourceChain(uint64,bool)",
          "arguments": [
            "16015286601757825753",
            "true"
          ],
          "transaction": {
            "from": "0x8454d149beb26e3e3fc5ed1c87fb0b2a1b7b6c2c",
            "to": "0xaa1ffb25606a449c5b03ea0433b0541c36fe8903",
            "gas": "0xb0f9",
            "value": "0x0",
            "input": "0xdb04fa49000000000000000000000000000000000000000000000000de41ba4fc9d91ad90000000000000000000000000000000000000000000000000000000000000001",
            "nonce": "0xab9",
            "chainId": "0xaa36a7"
          },
          "additionalContracts": [],
          "isFixedGasLimit": false
        },
        {
          "hash": "0x19cc35881f60dfbc2a6a7f567268bd3d8519636826382cc67dd57af0c0117dda",
          "transactionType": "CALL",
          "contractName": null,
          "contractAddress": "0xaa1ffb25606a449c5b03ea0433b0541c36fe8903",
          "function": "allowlistDestinationChain(uint64,bool)",
          "arguments": [
            "10344971235874465080",
            "true"
          ],
          "transaction": {
            "from": "0x8454d149beb26e3e3fc5ed1c87fb0b2a1b7b6c2c",
            "to": "0xaa1ffb25606a449c5b03ea0433b0541c36fe8903",
            "gas": "0xbb6f",
            "value": "0x0",
            "input": "0x96d3b83d0000000000000000000000000000000000000000000000008f90b8876dee65380000000000000000000000000000000000000000000000000000000000000001",
            "nonce": "0xaba",
            "chainId": "0xaa36a7"
          },
          "additionalContracts": [],
          "isFixedGasLimit": false
        },
        {
          "hash": "0xaccec1772a6e90f80066c5c50e0c940255274a207466cf1bb378dcbe88281560",
          "transactionType": "CALL",
          "contractName": null,
          "contractAddress": "0x1c0a29e1768c4d10da8bc5aef17347b43f9c1f82",
          "function": "setGasLimitsForFunctionSelectors(bytes4[],uint256[])",
          "arguments": [
            "[0xd8a85b48]",
            "[300000]"
          ],
          "transaction": {
            "from": "0x8454d149beb26e3e3fc5ed1c87fb0b2a1b7b6c2c",
            "to": "0x1c0a29e1768c4d10da8bc5aef17347b43f9c1f82",
            "gas": "0xc68c",
            "value": "0x0",
            "input": "0x3ef2d377000000000000000000000000000000000000000000000000000000000000004000000000000000000000000000000000000000000000000000000000000000800000000000000000000000000000000000000000000000000000000000000001d8a85b4800000000000000000000000000000000000000000000000000000000000000000000000000000000000000000000000000000000000000000000000100000000000000000000000000000000000000000000000000000000000493e0",
            "nonce": "0xabb",
            "chainId": "0xaa36a7"
          },
          "additionalContracts": [],
          "isFixedGasLimit": false
        }
      ],
      "receipts": [
        {
          "status": "0x1",
          "cumulativeGasUsed": "0x19b077a",
          "logs": [
            {
              "address": "0xaa1ffb25606a449c5b03ea0433b0541c36fe8903",
              "topics": [
                "0x7341e817a8458e8902ebedbcd9e82db8299e43de630c89ade217662e6cafe906",
                "0x0000000000000000000000000000000000000000000000008f90b8876dee6538",
                "0x0000000000000000000000004834dfb5f5a5677eba93f380ec166375047ea2f6"
              ],
              "data": "0x0000000000000000000000000000000000000000000000000000000000000001",
              "blockHash": "0x5c67f0602c54d99eec0f5ded0d8daae81352a00cc30b6683c443bd5ad1923309",
              "blockNumber": "0x78fe46",
              "blockTimestamp": "0x67d9a438",
              "transactionHash": "0x393cbd596260809ebebeacb23b659882689514680f673a4f6cc3e04e534268f6",
              "transactionIndex": "0x6f",
              "logIndex": "0x9e",
              "removed": false
            }
          ],
          "logsBloom": "0x00000000000000000000000000000000000000000000000000000040000000000000000000000000000000000000000000000000000000000000000000000000000000040000000000000000000000000000000400000000000000000000200000000000000000000000000000000000000000000000000000000000000000004000000000000000000000000000000000000000000000000000000000000000000000000000000000004008800000000000000000000000000000000000000000000000000000000000000000000000000000000000000000000000000000000000000000000000000020000000000000000000000081000000000000000010",
          "type": "0x2",
          "transactionHash": "0x393cbd596260809ebebeacb23b659882689514680f673a4f6cc3e04e534268f6",
          "transactionIndex": "0x6f",
          "blockHash": "0x5c67f0602c54d99eec0f5ded0d8daae81352a00cc30b6683c443bd5ad1923309",
          "blockNumber": "0x78fe46",
          "gasUsed": "0xd18e",
          "effectiveGasPrice": "0x6df157c",
          "from": "0x8454d149beb26e3e3fc5ed1c87fb0b2a1b7b6c2c",
          "to": "0xaa1ffb25606a449c5b03ea0433b0541c36fe8903",
          "contractAddress": null
        },
        {
          "status": "0x1",
          "cumulativeGasUsed": "0x19d1387",
          "logs": [
            {
              "address": "0xaa1ffb25606a449c5b03ea0433b0541c36fe8903",
              "topics": [
                "0xa5f858f3914e62a82af355192513d8dbc618ff9815e7213a71930d8996a3cb82",
                "0x0000000000000000000000000000000000000000000000008f90b8876dee6538"
              ],
              "data": "0x0000000000000000000000000000000000000000000000000000000000000001",
              "blockHash": "0x5c67f0602c54d99eec0f5ded0d8daae81352a00cc30b6683c443bd5ad1923309",
              "blockNumber": "0x78fe46",
              "blockTimestamp": "0x67d9a438",
              "transactionHash": "0xeb597389f894215557fa3f87545976e31492c9496f7fd379e531f3aafec84fe4",
              "transactionIndex": "0x72",
              "logIndex": "0xa1",
              "removed": false
            }
          ],
          "logsBloom": "0x00000000000000000000020000000000000000000000000000000040000000000000000000000000000000000000000000000000000000000000000000000000000000040000000000000000000000000000000400000000000000000000200000000000000000000000100000000000000000000000000000000000000000004000000000000000000000000000000000000000000000000000000000000000000000000000000000000008000000000000000000000000000000000000000000000000000000000000000000000000000000000000000000000000000000000000000000000001000000000000000000000000000000000000000000000000",
          "type": "0x2",
          "transactionHash": "0xeb597389f894215557fa3f87545976e31492c9496f7fd379e531f3aafec84fe4",
          "transactionIndex": "0x72",
          "blockHash": "0x5c67f0602c54d99eec0f5ded0d8daae81352a00cc30b6683c443bd5ad1923309",
          "blockNumber": "0x78fe46",
          "gasUsed": "0x8020",
          "effectiveGasPrice": "0x6df157c",
          "from": "0x8454d149beb26e3e3fc5ed1c87fb0b2a1b7b6c2c",
          "to": "0xaa1ffb25606a449c5b03ea0433b0541c36fe8903",
          "contractAddress": null
        },
        {
          "status": "0x1",
          "cumulativeGasUsed": "0x19d93a7",
          "logs": [
            {
              "address": "0xaa1ffb25606a449c5b03ea0433b0541c36fe8903",
              "topics": [
                "0xa5f858f3914e62a82af355192513d8dbc618ff9815e7213a71930d8996a3cb82",
                "0x000000000000000000000000000000000000000000000000de41ba4fc9d91ad9"
              ],
              "data": "0x0000000000000000000000000000000000000000000000000000000000000001",
              "blockHash": "0x5c67f0602c54d99eec0f5ded0d8daae81352a00cc30b6683c443bd5ad1923309",
              "blockNumber": "0x78fe46",
              "blockTimestamp": "0x67d9a438",
              "transactionHash": "0xc22613bde92964d961a9b96f6e1de24033b8697f5533ee4c59b0719c8209a203",
              "transactionIndex": "0x73",
              "logIndex": "0xa2",
              "removed": false
            }
          ],
          "logsBloom": "0x00000000000000000000020000000000000000000000000000000040000000000000000000004000000000000000000000000000000000000000000000000000000000040000000000000000000000000000000000000000000000000000000000000000000000000000100000010000000000000000000000000000000000000000000000000000000000000000000000000020000000000000000000000000000000000000000000000008000000000000000000000000000000000000000000000000000000000000000000000000000000000000000000000000000000000000000000000001000000000000000000000000000000000000000000000000",
          "type": "0x2",
          "transactionHash": "0xc22613bde92964d961a9b96f6e1de24033b8697f5533ee4c59b0719c8209a203",
          "transactionIndex": "0x73",
          "blockHash": "0x5c67f0602c54d99eec0f5ded0d8daae81352a00cc30b6683c443bd5ad1923309",
          "blockNumber": "0x78fe46",
          "gasUsed": "0x8020",
          "effectiveGasPrice": "0x6df157c",
          "from": "0x8454d149beb26e3e3fc5ed1c87fb0b2a1b7b6c2c",
          "to": "0xaa1ffb25606a449c5b03ea0433b0541c36fe8903",
          "contractAddress": null
        },
        {
          "status": "0x1",
          "cumulativeGasUsed": "0x19e13d0",
          "logs": [
            {
              "address": "0xaa1ffb25606a449c5b03ea0433b0541c36fe8903",
              "topics": [
                "0x79e93956b5c7b59cb1d0aaa5849af9993c5b994c44b148b1944f4e4ecf1e9b89",
                "0x0000000000000000000000000000000000000000000000008f90b8876dee6538"
              ],
              "data": "0x0000000000000000000000000000000000000000000000000000000000000001",
              "blockHash": "0x5c67f0602c54d99eec0f5ded0d8daae81352a00cc30b6683c443bd5ad1923309",
              "blockNumber": "0x78fe46",
              "blockTimestamp": "0x67d9a438",
              "transactionHash": "0x19cc35881f60dfbc2a6a7f567268bd3d8519636826382cc67dd57af0c0117dda",
              "transactionIndex": "0x74",
              "logIndex": "0xa3",
              "removed": false
            }
          ],
          "logsBloom": "0x00000000000000000000000000000000000000040000000000000040000000000000000000000000000000000000000000000000000000000000000000000000000000040000000000200000000000000000000400000000000000000000200000000000000000000000000000000000000000000000000000000000000000004000000000000000000000000000000000000000000000000000000000000000000000000000000000000008000000000000000000000000000000100000000000000000000000000000000000000000000000000000000000000000000000000000000000000000000000000000000000000000000000000000000000000000",
          "type": "0x2",
          "transactionHash": "0x19cc35881f60dfbc2a6a7f567268bd3d8519636826382cc67dd57af0c0117dda",
          "transactionIndex": "0x74",
          "blockHash": "0x5c67f0602c54d99eec0f5ded0d8daae81352a00cc30b6683c443bd5ad1923309",
          "blockNumber": "0x78fe46",
          "gasUsed": "0x8029",
          "effectiveGasPrice": "0x6df157c",
          "from": "0x8454d149beb26e3e3fc5ed1c87fb0b2a1b7b6c2c",
          "to": "0xaa1ffb25606a449c5b03ea0433b0541c36fe8903",
          "contractAddress": null
        },
        {
          "status": "0x1",
          "cumulativeGasUsed": "0x19e9b93",
          "logs": [
            {
              "address": "0x1c0a29e1768c4d10da8bc5aef17347b43f9c1f82",
              "topics": [
                "0xed4c89b805f4efb58bc4a42b9a3c6f09783f619295a1fa41ab46d6190c8c7f3b",
                "0xd8a85b4800000000000000000000000000000000000000000000000000000000",
                "0x00000000000000000000000000000000000000000000000000000000000493e0"
              ],
              "data": "0x",
              "blockHash": "0x5c67f0602c54d99eec0f5ded0d8daae81352a00cc30b6683c443bd5ad1923309",
              "blockNumber": "0x78fe46",
              "blockTimestamp": "0x67d9a438",
              "transactionHash": "0xaccec1772a6e90f80066c5c50e0c940255274a207466cf1bb378dcbe88281560",
              "transactionIndex": "0x75",
              "logIndex": "0xa4",
              "removed": false
            }
          ],
          "logsBloom": "0x00000000000000000040000000000000000000020800000000000000000000000000000000000000000000000000000000000000000000000000000000000000000000000000000000000000000000000000000000002000000000000000000000000000000000000000000000000000800000000000040000200000000000000000000000000000000000001000000000001004000000000000000000000000000000000000000000010000000000000000000000000000000000000000000000000000000000000000000000000000000000000000000000000000000000000000000000000000000000000000000000000000000000000000000000000000",
          "type": "0x2",
          "transactionHash": "0xaccec1772a6e90f80066c5c50e0c940255274a207466cf1bb378dcbe88281560",
          "transactionIndex": "0x75",
          "blockHash": "0x5c67f0602c54d99eec0f5ded0d8daae81352a00cc30b6683c443bd5ad1923309",
          "blockNumber": "0x78fe46",
          "gasUsed": "0x87c3",
          "effectiveGasPrice": "0x6df157c",
          "from": "0x8454d149beb26e3e3fc5ed1c87fb0b2a1b7b6c2c",
          "to": "0x1c0a29e1768c4d10da8bc5aef17347b43f9c1f82",
          "contractAddress": null
        }
      ],
      "libraries": [],
      "pending": [],
      "returns": {},
      "timestamp": 1742316586,
      "chain": 11155111,
      "commit": "1f35fc3"
    }
  ],
  "timestamp": 1742316602
}