{
  "deployments": [
    {
      "transactions": [
        {
          "hash": "0x3df72900f3d87e364238f24215a21dafbb008bf4f9dcec512458d012917206ff",
          "transactionType": "CALL",
          "contractName": null,
          "contractAddress": "0x355c6ab76af980bb1726eb2e652c19f81b384e5b",
          "function": "allowlistSourceChain(uint64,bool)",
          "arguments": [
            "3478487238524512106",
            "true"
          ],
          "transaction": {
            "from": "0x8454d149beb26e3e3fc5ed1c87fb0b2a1b7b6c2c",
            "to": "0x355c6ab76af980bb1726eb2e652c19f81b384e5b",
            "gas": "0xed31",
            "value": "0x0",
            "input": "0xdb04fa49000000000000000000000000000000000000000000000000304611b6affba76a0000000000000000000000000000000000000000000000000000000000000001",
            "nonce": "0x22d",
            "chainId": "0x66eee"
          },
          "additionalContracts": [],
          "isFixedGasLimit": false
        },
        {
          "hash": "0x270157e1b70f0bc22e4f7ac552df81bbb6294b857e3dbedb8f0518b3e5647d9d",
          "transactionType": "CALL",
          "contractName": null,
          "contractAddress": "0x355c6ab76af980bb1726eb2e652c19f81b384e5b",
          "function": "allowlistSender(address,bool)",
          "arguments": [
            "0x7A3E017Ca7ced7AAA60d5557aF74063F14E64eb6",
            "true"
          ],
          "transaction": {
            "from": "0x8454d149beb26e3e3fc5ed1c87fb0b2a1b7b6c2c",
            "to": "0x355c6ab76af980bb1726eb2e652c19f81b384e5b",
            "gas": "0xedaa",
            "value": "0x0",
            "input": "0xeab5b02c0000000000000000000000007a3e017ca7ced7aaa60d5557af74063f14e64eb60000000000000000000000000000000000000000000000000000000000000001",
            "nonce": "0x22e",
            "chainId": "0x66eee"
          },
          "additionalContracts": [],
          "isFixedGasLimit": false
        }
      ],
      "receipts": [
        {
          "status": "0x1",
          "cumulativeGasUsed": "0xb4f6",
          "logs": [],
          "logsBloom": "0x00000000000000000000000000000000000000000000000000000000000000000000000000000000000000000000000000000000000000000000000000000000000000000000000000000000000000000000000000000000000000000000000000000000000000000000000000000000000000000000000000000000000000000000000000000000000000000000000000000000000000000000000000000000000000000000000000000000000000000000000000000000000000000000000000000000000000000000000000000000000000000000000000000000000000000000000000000000000000000000000000000000000000000000000000000000",
          "type": "0x2",
          "transactionHash": "0x3df72900f3d87e364238f24215a21dafbb008bf4f9dcec512458d012917206ff",
          "transactionIndex": "0x1",
          "blockHash": "0xe0ff0e3927bc57489a68ff0d1d11260d7f423de34f9e3ed01a688cd081b59506",
          "blockNumber": "0x4486302",
          "gasUsed": "0xb4f6",
          "effectiveGasPrice": "0x5f5e100",
          "from": "0x8454d149beb26e3e3fc5ed1c87fb0b2a1b7b6c2c",
          "to": "0x355c6ab76af980bb1726eb2e652c19f81b384e5b",
          "contractAddress": null,
          "gasUsedForL1": "0x0",
          "l1BlockNumber": "0x637f09"
        },
        {
          "status": "0x1",
          "cumulativeGasUsed": "0xb553",
          "logs": [],
          "logsBloom": "0x00000000000000000000000000000000000000000000000000000000000000000000000000000000000000000000000000000000000000000000000000000000000000000000000000000000000000000000000000000000000000000000000000000000000000000000000000000000000000000000000000000000000000000000000000000000000000000000000000000000000000000000000000000000000000000000000000000000000000000000000000000000000000000000000000000000000000000000000000000000000000000000000000000000000000000000000000000000000000000000000000000000000000000000000000000000",
          "type": "0x2",
          "transactionHash": "0x270157e1b70f0bc22e4f7ac552df81bbb6294b857e3dbedb8f0518b3e5647d9d",
          "transactionIndex": "0x1",
          "blockHash": "0xaaecc30df8dab1ee62c308511d75d6d825d9b54a33567a6491b4b47a4f0cd106",
          "blockNumber": "0x4486304",
          "gasUsed": "0xb553",
          "effectiveGasPrice": "0x5f5e100",
          "from": "0x8454d149beb26e3e3fc5ed1c87fb0b2a1b7b6c2c",
          "to": "0x355c6ab76af980bb1726eb2e652c19f81b384e5b",
          "contractAddress": null,
          "gasUsedForL1": "0x0",
          "l1BlockNumber": "0x637f09"
        }
      ],
      "libraries": [],
      "pending": [],
      "returns": {
        "0": {
          "internal_type": "contract IReceiverCCIP",
          "value": "0x0000000000000000000000000000000000000000"
        },
        "1": {
          "internal_type": "contract IRestakingConnector",
          "value": "0x0000000000000000000000000000000000000000"
        }
      },
      "timestamp": 1723937812,
      "chain": 421614,
      "commit": "eae07fd"
    },
    {
      "transactions": [
        {
          "hash": "0x2fe3114091c1fc07bfdd2d97016a7efe1c441713d01b922370b8ee00add44752",
          "transactionType": "CALL",
          "contractName": null,
          "contractAddress": "0x7a3e017ca7ced7aaa60d5557af74063f14e64eb6",
          "function": "allowlistSender(address,bool)",
          "arguments": [
            "0x8454d149Beb26E3E3FC5eD1C87Fb0B2a1b7B6c2c",
            "true"
          ],
          "transaction": {
            "from": "0x8454d149beb26e3e3fc5ed1c87fb0b2a1b7b6c2c",
            "to": "0x7a3e017ca7ced7aaa60d5557af74063f14e64eb6",
            "gas": "0x1092f",
            "value": "0x0",
            "input": "0xeab5b02c0000000000000000000000008454d149beb26e3e3fc5ed1c87fb0b2a1b7b6c2c0000000000000000000000000000000000000000000000000000000000000001",
            "nonce": "0x17f",
            "chainId": "0xaa36a7"
          },
          "additionalContracts": [],
          "isFixedGasLimit": false
        },
        {
          "hash": "0xabdb2f138294d186fbe235321128713adbdae66cea55f4747b0c18eb92013a50",
          "transactionType": "CALL",
          "contractName": null,
          "contractAddress": "0xfd57b4ddbf88a4e07ff4e34c487b99af2fe82a05",
          "function": "drip(address)",
          "arguments": [
            "0x7A3E017Ca7ced7AAA60d5557aF74063F14E64eb6"
          ],
          "transaction": {
            "from": "0x8454d149beb26e3e3fc5ed1c87fb0b2a1b7b6c2c",
            "to": "0xfd57b4ddbf88a4e07ff4e34c487b99af2fe82a05",
            "gas": "0x1230a",
            "value": "0x0",
            "input": "0x67a5cd060000000000000000000000007a3e017ca7ced7aaa60d5557af74063f14e64eb6",
            "nonce": "0x180",
            "chainId": "0xaa36a7"
          },
          "additionalContracts": [],
          "isFixedGasLimit": false
        },
        {
          "hash": "0x94347794aa56018de4508b2235b6f218da25ff5d62b88f4307931306e0145694",
          "transactionType": "CALL",
          "contractName": null,
          "contractAddress": "0xfd57b4ddbf88a4e07ff4e34c487b99af2fe82a05",
          "function": "drip(address)",
          "arguments": [
            "0x7A3E017Ca7ced7AAA60d5557aF74063F14E64eb6"
          ],
          "transaction": {
            "from": "0x8454d149beb26e3e3fc5ed1c87fb0b2a1b7b6c2c",
            "to": "0xfd57b4ddbf88a4e07ff4e34c487b99af2fe82a05",
            "gas": "0xb69c",
            "value": "0x0",
            "input": "0x67a5cd060000000000000000000000007a3e017ca7ced7aaa60d5557af74063f14e64eb6",
            "nonce": "0x181",
            "chainId": "0xaa36a7"
          },
          "additionalContracts": [],
          "isFixedGasLimit": false
        },
        {
          "hash": "0x4ba3982e083d6f3565338a480b2aedbe008d0f3cf130779a0e813a537c83b58f",
          "transactionType": "CALL",
          "contractName": null,
          "contractAddress": "0xfd57b4ddbf88a4e07ff4e34c487b99af2fe82a05",
          "function": "drip(address)",
          "arguments": [
            "0x7A3E017Ca7ced7AAA60d5557aF74063F14E64eb6"
          ],
          "transaction": {
            "from": "0x8454d149beb26e3e3fc5ed1c87fb0b2a1b7b6c2c",
            "to": "0xfd57b4ddbf88a4e07ff4e34c487b99af2fe82a05",
            "gas": "0xb69c",
            "value": "0x0",
            "input": "0x67a5cd060000000000000000000000007a3e017ca7ced7aaa60d5557af74063f14e64eb6",
            "nonce": "0x182",
            "chainId": "0xaa36a7"
          },
          "additionalContracts": [],
          "isFixedGasLimit": false
        }
      ],
      "receipts": [
        {
          "status": "0x1",
          "cumulativeGasUsed": "0x6c4d87",
          "logs": [],
          "logsBloom": "0x00000000000000000000000000000000000000000000000000000000000000000000000000000000000000000000000000000000000000000000000000000000000000000000000000000000000000000000000000000000000000000000000000000000000000000000000000000000000000000000000000000000000000000000000000000000000000000000000000000000000000000000000000000000000000000000000000000000000000000000000000000000000000000000000000000000000000000000000000000000000000000000000000000000000000000000000000000000000000000000000000000000000000000000000000000000",
          "type": "0x2",
          "transactionHash": "0x2fe3114091c1fc07bfdd2d97016a7efe1c441713d01b922370b8ee00add44752",
          "transactionIndex": "0x27",
          "blockHash": "0x30535a838bd457c41f29126ba386642af23a61dcdaf68d3ea668602cc2153977",
          "blockNumber": "0x637f0b",
          "gasUsed": "0xb553",
          "effectiveGasPrice": "0x129082",
          "from": "0x8454d149beb26e3e3fc5ed1c87fb0b2a1b7b6c2c",
          "to": "0x7a3e017ca7ced7aaa60d5557af74063f14e64eb6",
          "contractAddress": null
        },
        {
          "status": "0x1",
          "cumulativeGasUsed": "0x6d1488",
          "logs": [
            {
              "address": "0xfd57b4ddbf88a4e07ff4e34c487b99af2fe82a05",
              "topics": [
                "0xddf252ad1be2c89b69c2b068fc378daa952ba7f163c4a11628f55a4df523b3ef",
                "0x0000000000000000000000000000000000000000000000000000000000000000",
                "0x0000000000000000000000007a3e017ca7ced7aaa60d5557af74063f14e64eb6"
              ],
              "data": "0x0000000000000000000000000000000000000000000000000de0b6b3a7640000",
              "blockHash": "0x30535a838bd457c41f29126ba386642af23a61dcdaf68d3ea668602cc2153977",
              "blockNumber": "0x637f0b",
              "transactionHash": "0xabdb2f138294d186fbe235321128713adbdae66cea55f4747b0c18eb92013a50",
              "transactionIndex": "0x28",
              "logIndex": "0x40",
              "removed": false
            }
          ],
          "logsBloom": "0x00000002000000100000000000000000000000000000000000000000000000000000000000020000000000000000000000000000000000000000000000000000000000000000000000000008000000000000000000000000000000000000000000000000020000000000040000000800000000000000000000000010000000000000000000000000000000000000000000000000000000000000000000000000000000000000000040000000000000080000000000000000000000000000000000000002000000000000000000000000000000000000000000000000000020000000000000000000000000000000000000000000000000000000000000000000",
          "type": "0x2",
          "transactionHash": "0xabdb2f138294d186fbe235321128713adbdae66cea55f4747b0c18eb92013a50",
          "transactionIndex": "0x28",
          "blockHash": "0x30535a838bd457c41f29126ba386642af23a61dcdaf68d3ea668602cc2153977",
          "blockNumber": "0x637f0b",
          "gasUsed": "0xc701",
          "effectiveGasPrice": "0x129082",
          "from": "0x8454d149beb26e3e3fc5ed1c87fb0b2a1b7b6c2c",
          "to": "0xfd57b4ddbf88a4e07ff4e34c487b99af2fe82a05",
          "contractAddress": null
        },
        {
          "status": "0x1",
          "cumulativeGasUsed": "0x6d98bd",
          "logs": [
            {
              "address": "0xfd57b4ddbf88a4e07ff4e34c487b99af2fe82a05",
              "topics": [
                "0xddf252ad1be2c89b69c2b068fc378daa952ba7f163c4a11628f55a4df523b3ef",
                "0x0000000000000000000000000000000000000000000000000000000000000000",
                "0x0000000000000000000000007a3e017ca7ced7aaa60d5557af74063f14e64eb6"
              ],
              "data": "0x0000000000000000000000000000000000000000000000000de0b6b3a7640000",
              "blockHash": "0x30535a838bd457c41f29126ba386642af23a61dcdaf68d3ea668602cc2153977",
              "blockNumber": "0x637f0b",
              "transactionHash": "0x94347794aa56018de4508b2235b6f218da25ff5d62b88f4307931306e0145694",
              "transactionIndex": "0x29",
              "logIndex": "0x41",
              "removed": false
            }
          ],
          "logsBloom": "0x00000002000000100000000000000000000000000000000000000000000000000000000000020000000000000000000000000000000000000000000000000000000000000000000000000008000000000000000000000000000000000000000000000000020000000000040000000800000000000000000000000010000000000000000000000000000000000000000000000000000000000000000000000000000000000000000040000000000000080000000000000000000000000000000000000002000000000000000000000000000000000000000000000000000020000000000000000000000000000000000000000000000000000000000000000000",
          "type": "0x2",
          "transactionHash": "0x94347794aa56018de4508b2235b6f218da25ff5d62b88f4307931306e0145694",
          "transactionIndex": "0x29",
          "blockHash": "0x30535a838bd457c41f29126ba386642af23a61dcdaf68d3ea668602cc2153977",
          "blockNumber": "0x637f0b",
          "gasUsed": "0x8435",
          "effectiveGasPrice": "0x129082",
          "from": "0x8454d149beb26e3e3fc5ed1c87fb0b2a1b7b6c2c",
          "to": "0xfd57b4ddbf88a4e07ff4e34c487b99af2fe82a05",
          "contractAddress": null
        },
        {
          "status": "0x1",
          "cumulativeGasUsed": "0x6e1cf2",
          "logs": [
            {
              "address": "0xfd57b4ddbf88a4e07ff4e34c487b99af2fe82a05",
              "topics": [
                "0xddf252ad1be2c89b69c2b068fc378daa952ba7f163c4a11628f55a4df523b3ef",
                "0x0000000000000000000000000000000000000000000000000000000000000000",
                "0x0000000000000000000000007a3e017ca7ced7aaa60d5557af74063f14e64eb6"
              ],
              "data": "0x0000000000000000000000000000000000000000000000000de0b6b3a7640000",
              "blockHash": "0x30535a838bd457c41f29126ba386642af23a61dcdaf68d3ea668602cc2153977",
              "blockNumber": "0x637f0b",
              "transactionHash": "0x4ba3982e083d6f3565338a480b2aedbe008d0f3cf130779a0e813a537c83b58f",
              "transactionIndex": "0x2a",
              "logIndex": "0x42",
              "removed": false
            }
          ],
          "logsBloom": "0x00000002000000100000000000000000000000000000000000000000000000000000000000020000000000000000000000000000000000000000000000000000000000000000000000000008000000000000000000000000000000000000000000000000020000000000040000000800000000000000000000000010000000000000000000000000000000000000000000000000000000000000000000000000000000000000000040000000000000080000000000000000000000000000000000000002000000000000000000000000000000000000000000000000000020000000000000000000000000000000000000000000000000000000000000000000",
          "type": "0x2",
          "transactionHash": "0x4ba3982e083d6f3565338a480b2aedbe008d0f3cf130779a0e813a537c83b58f",
          "transactionIndex": "0x2a",
          "blockHash": "0x30535a838bd457c41f29126ba386642af23a61dcdaf68d3ea668602cc2153977",
          "blockNumber": "0x637f0b",
          "gasUsed": "0x8435",
          "effectiveGasPrice": "0x129082",
          "from": "0x8454d149beb26e3e3fc5ed1c87fb0b2a1b7b6c2c",
          "to": "0xfd57b4ddbf88a4e07ff4e34c487b99af2fe82a05",
          "contractAddress": null
        }
      ],
      "libraries": [],
      "pending": [],
      "returns": {
        "0": {
          "internal_type": "contract IReceiverCCIP",
          "value": "0x0000000000000000000000000000000000000000"
        },
        "1": {
          "internal_type": "contract IRestakingConnector",
          "value": "0x0000000000000000000000000000000000000000"
        }
      },
      "timestamp": 1723937812,
      "chain": 11155111,
      "commit": "eae07fd"
    }
  ],
  "timestamp": 1723937822
}