{
  "transactions": [
    {
      "hash": "0x306a190061a7f6588cdd48472efdff88369b1b482cca2aa3bb88234ce9199e6c",
      "transactionType": "CALL",
      "contractName": null,
      "contractAddress": "0x2604e5a6b77b5ab95e38b6fa6fc1f5db5585f562",
      "function": "registerAsOperator(address,uint32,string)",
      "arguments": [
        "0x722551f573D58C97893286F8F00E76119501Ae37",
        "10",
        "some operator"
      ],
      "transaction": {
        "from": "0x722551f573d58c97893286f8f00e76119501ae37",
        "to": "0x2604e5a6b77b5ab95e38b6fa6fc1f5db5585f562",
        "gas": "0x3ad2e",
        "value": "0x0",
        "input": "0x2aa6d888000000000000000000000000722551f573d58c97893286f8f00e76119501ae37000000000000000000000000000000000000000000000000000000000000000a0000000000000000000000000000000000000000000000000000000000000060000000000000000000000000000000000000000000000000000000000000000d736f6d65206f70657261746f7200000000000000000000000000000000000000",
        "nonce": "0x2",
        "chainId": "0xaa36a7"
      },
      "additionalContracts": [],
      "isFixedGasLimit": false
    }
  ],
  "receipts": [
    {
      "status": "0x1",
      "cumulativeGasUsed": "0x12270ac",
      "logs": [
        {
          "address": "0x9647f2973327ed44547f2927da7239525bac2e79",
          "topics": [
            "0x4e85751d6331506c6c62335f207eb31f12a61e570f34f5c17640308785c6d4db"
          ],
          "data": "0x000000000000000000000000722551f573d58c97893286f8f00e76119501ae37000000000000000000000000000000000000000000000000000000000000000a00000000000000000000000000000000000000000000000000000000007850f4",
          "blockHash": "0x46f0d06392160ac2beb4c55480b27f4bd2b68fd5f5ef583b1e340e45a589731a",
          "blockNumber": "0x7850e9",
          "transactionHash": "0x306a190061a7f6588cdd48472efdff88369b1b482cca2aa3bb88234ce9199e6c",
          "transactionIndex": "0x53",
          "logIndex": "0xc2",
          "removed": false
        },
        {
          "address": "0x2604e5a6b77b5ab95e38b6fa6fc1f5db5585f562",
          "topics": [
            "0x773b54c04d756fcc5e678111f7d730de3be98192000799eee3d63716055a87c6",
            "0x000000000000000000000000722551f573d58c97893286f8f00e76119501ae37"
          ],
          "data": "0x000000000000000000000000722551f573d58c97893286f8f00e76119501ae37",
          "blockHash": "0x46f0d06392160ac2beb4c55480b27f4bd2b68fd5f5ef583b1e340e45a589731a",
          "blockNumber": "0x7850e9",
          "transactionHash": "0x306a190061a7f6588cdd48472efdff88369b1b482cca2aa3bb88234ce9199e6c",
          "transactionIndex": "0x53",
          "logIndex": "0xc3",
          "removed": false
        },
        {
          "address": "0x2604e5a6b77b5ab95e38b6fa6fc1f5db5585f562",
          "topics": [
            "0xc3ee9f2e5fda98e8066a1f745b2df9285f416fe98cf2559cd21484b3d8743304",
            "0x000000000000000000000000722551f573d58c97893286f8f00e76119501ae37",
            "0x000000000000000000000000722551f573d58c97893286f8f00e76119501ae37"
          ],
          "data": "0x",
          "blockHash": "0x46f0d06392160ac2beb4c55480b27f4bd2b68fd5f5ef583b1e340e45a589731a",
          "blockNumber": "0x7850e9",
          "transactionHash": "0x306a190061a7f6588cdd48472efdff88369b1b482cca2aa3bb88234ce9199e6c",
          "transactionIndex": "0x53",
          "logIndex": "0xc4",
          "removed": false
        },
        {
          "address": "0x2604e5a6b77b5ab95e38b6fa6fc1f5db5585f562",
          "topics": [
            "0xa453db612af59e5521d6ab9284dc3e2d06af286eb1b1b7b771fce4716c19f2c1",
            "0x000000000000000000000000722551f573d58c97893286f8f00e76119501ae37"
          ],
          "data": "0x000000000000000000000000722551f573d58c97893286f8f00e76119501ae37",
          "blockHash": "0x46f0d06392160ac2beb4c55480b27f4bd2b68fd5f5ef583b1e340e45a589731a",
          "blockNumber": "0x7850e9",
          "transactionHash": "0x306a190061a7f6588cdd48472efdff88369b1b482cca2aa3bb88234ce9199e6c",
          "transactionIndex": "0x53",
          "logIndex": "0xc5",
          "removed": false
        },
        {
          "address": "0x2604e5a6b77b5ab95e38b6fa6fc1f5db5585f562",
          "topics": [
            "0x02a919ed0e2acad1dd90f17ef2fa4ae5462ee1339170034a8531cca4b6708090",
            "0x000000000000000000000000722551f573d58c97893286f8f00e76119501ae37"
          ],
          "data": "0x0000000000000000000000000000000000000000000000000000000000000020000000000000000000000000000000000000000000000000000000000000000d736f6d65206f70657261746f7200000000000000000000000000000000000000",
          "blockHash": "0x46f0d06392160ac2beb4c55480b27f4bd2b68fd5f5ef583b1e340e45a589731a",
          "blockNumber": "0x7850e9",
          "transactionHash": "0x306a190061a7f6588cdd48472efdff88369b1b482cca2aa3bb88234ce9199e6c",
          "transactionIndex": "0x53",
          "logIndex": "0xc6",
          "removed": false
        }
      ],
      "logsBloom": "0x00000010000000000100000000000000000000000000000000000001000000000000000000000000000000200000010000000020040040002000000000000000000000000000000000000000000000100000000000080000000000000000000000000000000000000000000000000000000000000000200000000000000004000000000000000000000000000000000000800000000000000240000000000000000000000000000000000000000000000000000000000000000000000000000000000000101000000000000000040000010000000000000000000000000000080000000000000000000000000000000002000000000000000000000000000100",
      "type": "0x2",
      "transactionHash": "0x306a190061a7f6588cdd48472efdff88369b1b482cca2aa3bb88234ce9199e6c",
      "transactionIndex": "0x53",
      "blockHash": "0x46f0d06392160ac2beb4c55480b27f4bd2b68fd5f5ef583b1e340e45a589731a",
      "blockNumber": "0x7850e9",
      "gasUsed": "0x2838b",
      "effectiveGasPrice": "0x2bbb978e30",
      "blobGasUsed": "0x0",
      "from": "0x722551f573d58c97893286f8f00e76119501ae37",
      "to": "0x2604e5a6b77b5ab95e38b6fa6fc1f5db5585f562",
      "contractAddress": null
    }
  ],
  "libraries": [
    "src/RestakingConnectorUtils.sol:RestakingConnectorUtils:0x8f11aE71Ac71BA601a1EF5B9D87D1DC1339EB4B3",
    "src/utils/EigenlayerMsgDecoders.sol:AgentOwnerSignature:0x2F5d827aF9E768762B8A72C478362799C99B63b7",
    "src/utils/EigenlayerMsgDecoders.sol:DelegationDecoders:0x1b7F90bfC259f18310094D45e0a7E0786cb12F03",
    "src/utils/EigenlayerMsgEncoders.sol:EigenlayerMsgEncoders:0x659fB218aa16721c14982Ae53A27269847c0133F",
    "src/utils/FunctionSelectorDecoder.sol:FunctionSelectorDecoder:0xc5132D7ba9F2B19a68d69712724f9126638FD7B3"
  ],
  "pending": [],
  "returns": {},
  "timestamp": 1741757665,
  "chain": 11155111,
  "commit": "c887dfa"
}