{
  "transactions": [
    {
      "hash": "0x8f61c08aecae1c6bdc85ff26bff0d2fd682bbae9445db83c3230f76d0ead0037",
      "transactionType": "CREATE2",
      "contractName": "AgentOwnerSignature",
      "contractAddress": "0x97ab347c4dc5f6fab0d7a64edd81d815d245f268",
      "function": null,
      "arguments": null,
      "transaction": {
        "from": "0x8454d149beb26e3e3fc5ed1c87fb0b2a1b7b6c2c",
        "to": "0x4e59b44847b379578588920ca78fbf26c0b4956c",
        "gas": "0x3cab2",
        "input": "0x000000000000000000000000000000000000000000000000000000000000000061021961003a600b82828239805160001a60731461002d57634e487b7160e01b600052600060045260246000fd5b30600052607381538281f3fe73000000000000000000000000000000000000000030146080604052600436106100355760003560e01c8063e6cdf0ea1461003a575b600080fd5b61009a6100483660046100c8565b018051602080830151604080850151606080870151608090970151835195860192909252848301969096526001600160f81b031916948301949094528351604181840301815260619092019093529092565b6040516100a99392919061017d565b60405180910390f35b634e487b7160e01b600052604160045260246000fd5b600080604083850312156100db57600080fd5b823567ffffffffffffffff808211156100f357600080fd5b818501915085601f83011261010757600080fd5b813581811115610119576101196100b2565b604051601f8201601f19908116603f01168101908382118183101715610141576101416100b2565b8160405282815288602084870101111561015a57600080fd5b826020860160208301376000602093820184015298969091013596505050505050565b60018060a01b03841681526000602084602084015260606040840152835180606085015260005b818110156101c0578581018301518582016080015282016101a4565b506000608082860101526080601f19601f8301168501019250505094935050505056fea2646970667358221220bb808e1788bf76fe36f8c8bbcac9980828a1a90120b8c19941c2de2d15d609ff64736f6c63430008160033",
        "nonce": "0x270",
        "chainId": "0x14a34"
      },
      "additionalContracts": [],
      "isFixedGasLimit": false
    },
    {
      "hash": "0x9efd49624fab47a81a5ef26f9dafa3d133c5f04276ace1d763763db040636c06",
      "transactionType": "CREATE2",
      "contractName": "FunctionSelectorDecoder",
      "contractAddress": "0xa1c4ff36787bdc46aac547f282045a2050862502",
      "function": null,
      "arguments": null,
      "transaction": {
        "from": "0x8454d149beb26e3e3fc5ed1c87fb0b2a1b7b6c2c",
        "to": "0x4e59b44847b379578588920ca78fbf26c0b4956c",
        "gas": "0x2f0eb",
        "input": "0x000000000000000000000000000000000000000000000000000000000000000061016961003a600b82828239805160001a60731461002d57634e487b7160e01b600052600060045260246000fd5b30600052607381538281f3fe73000000000000000000000000000000000000000030146080604052600436106100355760003560e01c8063c168a5881461003a575b600080fd5b61004f610048366004610082565b6060015190565b6040516001600160e01b0319909116815260200160405180910390f35b634e487b7160e01b600052604160045260246000fd5b60006020828403121561009457600080fd5b813567ffffffffffffffff808211156100ac57600080fd5b818401915084601f8301126100c057600080fd5b8135818111156100d2576100d261006c565b604051601f8201601f19908116603f011681019083821181831017156100fa576100fa61006c565b8160405282815287602084870101111561011357600080fd5b82602086016020830137600092810160200192909252509594505050505056fea2646970667358221220247c1e3692c29d85449a8cb7460aced49b8d115a7d3eabfba97959a3efadfeba64736f6c63430008160033",
        "nonce": "0x271",
        "chainId": "0x14a34"
      },
      "additionalContracts": [],
      "isFixedGasLimit": false
    },
    {
      "hash": "0x754c15cb1028ad73e02ca681d0f5e64e07bfccb08b1330514c19a89c9a61c135",
      "transactionType": "CREATE",
      "contractName": "SenderCCIP",
      "contractAddress": "0x31fda7d0849431fa52b6c4d9a5626165288c8eed",
      "function": null,
      "arguments": [
        "0xD3b06cEbF099CE7DA4AcCf578aaebFDBd6e88a93",
        "0xE4aB69C077896252FAFBD49EFD26B5D171A32410"
      ],
      "transaction": {
        "from": "0x8454d149beb26e3e3fc5ed1c87fb0b2a1b7b6c2c",
        "gas": "0x24127a",
        "value": "0x0",
        "input": "0x60a06040523480156200001157600080fd5b50604051620020d2380380620020d283398101604081905262000034916200017c565b8181816001600160a01b03811662000067576040516335fdcccd60e21b8152600060048201526024015b60405180910390fd5b6001600160a01b03908116608052606c80546001600160a01b031916929091169190911790555062000098620000a0565b5050620001b4565b600054610100900460ff16156200010a5760405162461bcd60e51b815260206004820152602760248201527f496e697469616c697a61626c653a20636f6e747261637420697320696e697469604482015266616c697a696e6760c81b60648201526084016200005e565b60005460ff90811610156200015d576000805460ff191660ff9081179091556040519081527f7f26b83ff96e1f2b6a682f133852f6798a09c465da95921460cefb38474024989060200160405180910390a15b565b80516001600160a01b03811681146200017757600080fd5b919050565b600080604083850312156200019057600080fd5b6200019b836200015f565b9150620001ab602084016200015f565b90509250929050565b608051611efb620001d76000396000818161034201526109840152611efb6000f3fe6080604052600436106101185760003560e01c806375c67c66116100a0578063b0f479a111610064578063b0f479a114610333578063db04fa4914610366578063eab5b02c14610386578063f0e62fea146103a6578063f2fde38b146103c657600080fd5b806375c67c66146102905780638129fc1c146102c057806385572ffb146102d55780638da5cb5b146102f557806396d3b83d1461031357600080fd5b806351cff8d9116100e757806351cff8d9146101d9578063541044db146101f95780636159ada11461022b5780636bfe13ae1461025b578063715018a61461027b57600080fd5b806301ffc9a7146101245780631b3565ab146101595780633aeac4e1146101875780634030d521146101a957600080fd5b3661011f57005b600080fd5b34801561013057600080fd5b5061014461013f3660046116c8565b6103e6565b60405190151581526020015b60405180910390f35b34801561016557600080fd5b50610179610174366004611728565b61041d565b604051908152602001610150565b34801561019357600080fd5b506101a76101a23660046117e1565b6106ee565b005b3480156101b557600080fd5b506101446101c436600461181a565b606a6020526000908152604090205460ff1681565b3480156101e557600080fd5b506101a76101f4366004611835565b61079d565b34801561020557600080fd5b50606d546001600160a01b03165b6040516001600160a01b039091168152602001610150565b34801561023757600080fd5b50610144610246366004611835565b606b6020526000908152604090205460ff1681565b34801561026757600080fd5b50606d54610213906001600160a01b031681565b34801561028757600080fd5b506101a7610854565b34801561029c57600080fd5b506101446102ab36600461181a565b60696020526000908152604090205460ff1681565b3480156102cc57600080fd5b506101a7610868565b3480156102e157600080fd5b506101a76102f0366004611852565b610979565b34801561030157600080fd5b506033546001600160a01b0316610213565b34801561031f57600080fd5b506101a761032e36600461189a565b6109d5565b34801561033f57600080fd5b507f0000000000000000000000000000000000000000000000000000000000000000610213565b34801561037257600080fd5b506101a761038136600461189a565b610a08565b34801561039257600080fd5b506101a76103a13660046118c6565b610a3b565b3480156103b257600080fd5b506101a76103c1366004611835565b610a6e565b3480156103d257600080fd5b506101a76103e1366004611835565b610af8565b60006001600160e01b031982166385572ffb60e01b148061041757506001600160e01b031982166301ffc9a760e01b145b92915050565b6001600160401b038716600090815260696020526040812054889060ff166104685760405163206abad760e01b81526001600160401b03821660048201526024015b60405180910390fd5b876001600160a01b0381166104905760405163502ffa3f60e11b815260040160405180910390fd5b60006104a28a8a8a8a8a60008b610b6e565b90506000306001600160a01b031663b0f479a16040518163ffffffff1660e01b8152600401602060405180830381865afa1580156104e4573d6000803e3d6000fd5b505050506040513d601f19601f8201168201806040525081019061050891906118e4565b90506000816001600160a01b03166320487ded8e856040518363ffffffff1660e01b815260040161053a929190611951565b602060405180830381865afa158015610557573d6000803e3d6000fd5b505050506040513d601f19601f8201168201806040525081019061057b9190611a2d565b9050478111156105a757604051634787a10360e11b81524760048201526024810182905260440161045f565b60405163095ea7b360e01b81526001600160a01b038381166004830152602482018a90528a169063095ea7b3906044016020604051808303816000875af11580156105f6573d6000803e3d6000fd5b505050506040513d601f19601f8201168201806040525081019061061a9190611a46565b50816001600160a01b03166396f4e9f9828f866040518463ffffffff1660e01b815260040161064a929190611951565b60206040518083038185885af1158015610668573d6000803e3d6000fd5b50505050506040513d601f19601f8201168201806040525081019061068d9190611a2d565b95508c6001600160401b0316867f437cb3c5ba4364504dda6ba3c906ffb0897c7beeb1675f3aaf22a1b9a99b39948e8e8e8e8e6000896040516106d69796959493929190611a8c565b60405180910390a35050505050979650505050505050565b6106f6610ea8565b6040516370a0823160e01b81523060048201526000906001600160a01b038316906370a0823190602401602060405180830381865afa15801561073d573d6000803e3d6000fd5b505050506040513d601f19601f820116820180604052508101906107619190611a2d565b90508060000361078457604051630686827b60e51b815260040160405180910390fd5b6107986001600160a01b0383168483610f02565b505050565b6107a5610ea8565b4760008190036107c857604051630686827b60e51b815260040160405180910390fd5b6000826001600160a01b03168260405160006040518083038185875af1925050503d8060008114610815576040519150601f19603f3d011682016040523d82523d6000602084013e61081a565b606091505b505090508061079857604051639d11f56360e01b81523360048201526001600160a01b03841660248201526044810183905260640161045f565b61085c610ea8565b6108666000610f54565b565b600054610100900460ff16158080156108885750600054600160ff909116105b806108a25750303b1580156108a2575060005460ff166001145b6109055760405162461bcd60e51b815260206004820152602e60248201527f496e697469616c697a61626c653a20636f6e747261637420697320616c72656160448201526d191e481a5b9a5d1a585b1a5e995960921b606482015260840161045f565b6000805460ff191660011790558015610928576000805461ff0019166101001790555b610930610fa6565b8015610976576000805461ff0019169055604051600181527f7f26b83ff96e1f2b6a682f133852f6798a09c465da95921460cefb38474024989060200160405180910390a15b50565b336001600160a01b037f000000000000000000000000000000000000000000000000000000000000000016146109c4576040516335fdcccd60e21b815233600482015260240161045f565b6109766109d082611c7f565b610fae565b6109dd610ea8565b6001600160401b03919091166000908152606960205260409020805460ff1916911515919091179055565b610a10610ea8565b6001600160401b03919091166000908152606a60205260409020805460ff1916911515919091179055565b610a43610ea8565b6001600160a01b03919091166000908152606b60205260409020805460ff1916911515919091179055565b610a76610ea8565b6001600160a01b038116610ad65760405162461bcd60e51b815260206004820152602160248201527f5f73656e6465725574696c732063616e6e6f74206265206164647265737328306044820152602960f81b606482015260840161045f565b606d80546001600160a01b0319166001600160a01b0392909216919091179055565b610b00610ea8565b6001600160a01b038116610b655760405162461bcd60e51b815260206004820152602660248201527f4f776e61626c653a206e6577206f776e657220697320746865207a65726f206160448201526564647265737360d01b606482015260840161045f565b61097681610f54565b610ba96040518060a0016040528060608152602001606081526020016060815260200160006001600160a01b03168152602001606081525090565b606060008511610bf8576040805160008082526020820190925290610bf0565b6040805180820190915260008082526020820152815260200190600190039081610bc95790505b509050610c73565b60408051600180825281830190925290816020015b6040805180820190915260008082526020820152815260200190600190039081610c0d5790505090506040518060400160405280876001600160a01b031681526020018681525081600081518110610c6757610c67611d2b565b60200260200101819052505b60008888604051602001610c88929190611d41565b60408051601f198184030181529082905263182d14b160e31b8252915060009073a1c4ff36787bdc46aac547f282045a20508625029063c168a58890610cd2908590600401611d55565b602060405180830381865af4158015610cef573d6000803e3d6000fd5b505050506040513d601f19601f82011682018060405250810190610d139190611d68565b606d54604051637418047760e11b81526001600160e01b0319831660048201529192506000916001600160a01b039091169063e83008ee906024016020604051808303816000875af1158015610d6d573d6000803e3d6000fd5b505050506040513d601f19601f82011682018060405250810190610d919190611a2d565b5050606d5460405163026a6d1160e41b815286916001600160a01b0316906326a6d11090610dc59086908d90600401611d85565b600060405180830381600087803b158015610ddf57600080fd5b505af1158015610df3573d6000803e3d6000fd5b50506040805160a081019091526001600160a01b038f1660c0820152915081905060e081016040516020818303038152906040528152602001848152602001858152602001886001600160a01b03168152602001610e9660405180602001604052808581525060408051915160248084019190915281518084039091018152604490920190526020810180516001600160e01b03166397a657c960e01b17905290565b90529c9b505050505050505050505050565b6033546001600160a01b031633146108665760405162461bcd60e51b815260206004820181905260248201527f4f776e61626c653a2063616c6c6572206973206e6f7420746865206f776e6572604482015260640161045f565b604080516001600160a01b038416602482015260448082018490528251808303909101815260649091019091526020810180516001600160e01b031663a9059cbb60e01b1790526107989084906113f1565b603380546001600160a01b038381166001600160a01b0319831681179093556040519116919082907f8be0079c531659141344cd1fd0a4f28419497f9722a3daafe3b4186f6b6457e090600090a35050565b6108666114c3565b80602001518160400151806020019051810190610fcb91906118e4565b6001600160401b0382166000908152606a602052604090205460ff1661100f5760405163042784cf60e31b81526001600160401b038316600482015260240161045f565b6001600160a01b0381166000908152606b602052604090205460ff16611053576040516368692cbb60e11b81526001600160a01b038216600482015260240161045f565b608083015151156110d557826080015160008151811061107557611075611d2b565b602002602001015160000151606660006101000a8154816001600160a01b0302191690836001600160a01b0316021790555082608001516000815181106110be576110be611d2b565b6020026020010151602001516067819055506110eb565b606680546001600160a01b031916905560006067555b60608084015160405163182d14b160e31b815290919060009073a1c4ff36787bdc46aac547f282045a20508625029063c168a5889061112e908690600401611d55565b602060405180830381865af415801561114b573d6000803e3d6000fd5b505050506040513d601f19601f8201168201806040525081019061116f9190611d68565b90506304eaf49760e31b6001600160e01b031982160161130d57606d54604051631b150b6960e31b8152600091829182916001600160a01b03169063d8a85b48906111be908990600401611d55565b6060604051808303816000875af11580156111dd573d6000803e3d6000fd5b505050506040513d601f19601f820116820180604052508101906112019190611daf565b60405163a9059cbb60e01b81526001600160a01b03808516600483015260248201849052939650919450925060009183169063a9059cbb906044016020604051808303816000875af115801561125b573d6000803e3d6000fd5b505050506040513d601f19601f8201168201806040525081019061127f9190611a46565b9050806112e95760405162461bcd60e51b815260206004820152603260248201527f53656e646572434349503a206661696c656420746f207472616e73666572207460448201527137b5b2b7103a379030b3b2b73a27bbb732b960711b606482015260840161045f565b604051806060016040528060388152602001611e8e6038913995505050505061136d565b6040516001600160e01b03198216907ff5f32a3c89e78e479c1fa0cc28bfa53d46387fc6bdb93ca76fc24129a37f67b290600090a26040518060400160405280600f81526020016e756e6b6e6f776e206d65737361676560881b81525091505b85602001516001600160401b031686600001517f90ec910a8f80bb04e184a806e2ae6f8786ef2ae898859a3180f953397edc120188604001518060200190518101906113b991906118e4565b606680546001600160a01b0319169055600060678190556040516113e1929188918190611df2565b60405180910390a3505050505050565b6000611446826040518060400160405280602081526020017f5361666545524332303a206c6f772d6c6576656c2063616c6c206661696c6564815250856001600160a01b03166114f29092919063ffffffff16565b80519091501561079857808060200190518101906114649190611a46565b6107985760405162461bcd60e51b815260206004820152602a60248201527f5361666545524332303a204552433230206f7065726174696f6e20646964206e6044820152691bdd081cdd58d8d9595960b21b606482015260840161045f565b600054610100900460ff166114ea5760405162461bcd60e51b815260040161045f90611e26565b610866611509565b60606115018484600085611539565b949350505050565b600054610100900460ff166115305760405162461bcd60e51b815260040161045f90611e26565b61086633610f54565b60608247101561159a5760405162461bcd60e51b815260206004820152602660248201527f416464726573733a20696e73756666696369656e742062616c616e636520666f6044820152651c8818d85b1b60d21b606482015260840161045f565b600080866001600160a01b031685876040516115b69190611e71565b60006040518083038185875af1925050503d80600081146115f3576040519150601f19603f3d011682016040523d82523d6000602084013e6115f8565b606091505b509150915061160987838387611614565b979650505050505050565b6060831561168357825160000361167c576001600160a01b0385163b61167c5760405162461bcd60e51b815260206004820152601d60248201527f416464726573733a2063616c6c20746f206e6f6e2d636f6e7472616374000000604482015260640161045f565b5081611501565b61150183838151156116985781518083602001fd5b8060405162461bcd60e51b815260040161045f9190611d55565b6001600160e01b03198116811461097657600080fd5b6000602082840312156116da57600080fd5b81356116e5816116b2565b9392505050565b80356001600160401b038116811461170357600080fd5b919050565b6001600160a01b038116811461097657600080fd5b803561170381611708565b600080600080600080600060c0888a03121561174357600080fd5b61174c886116ec565b9650602088013561175c81611708565b955060408801356001600160401b038082111561177857600080fd5b818a0191508a601f83011261178c57600080fd5b81358181111561179b57600080fd5b8b60208285010111156117ad57600080fd5b6020830197508096505050506117c56060890161171d565b92506080880135915060a0880135905092959891949750929550565b600080604083850312156117f457600080fd5b82356117ff81611708565b9150602083013561180f81611708565b809150509250929050565b60006020828403121561182c57600080fd5b6116e5826116ec565b60006020828403121561184757600080fd5b81356116e581611708565b60006020828403121561186457600080fd5b81356001600160401b0381111561187a57600080fd5b820160a081850312156116e557600080fd5b801515811461097657600080fd5b600080604083850312156118ad57600080fd5b6118b6836116ec565b9150602083013561180f8161188c565b600080604083850312156118d957600080fd5b82356118b681611708565b6000602082840312156118f657600080fd5b81516116e581611708565b60005b8381101561191c578181015183820152602001611904565b50506000910152565b6000815180845261193d816020860160208601611901565b601f01601f19169290920160200192915050565b600060406001600160401b03851683526020604081850152845160a0604086015261197f60e0860182611925565b905081860151603f198087840301606088015261199c8383611925565b6040890151888203830160808a01528051808352908601945060009350908501905b808410156119f057845180516001600160a01b03168352860151868301529385019360019390930192908601906119be565b5060608901516001600160a01b031660a08901526080890151888203830160c08a01529550611a1f8187611925565b9a9950505050505050505050565b600060208284031215611a3f57600080fd5b5051919050565b600060208284031215611a5857600080fd5b81516116e58161188c565b81835281816020850137506000828201602090810191909152601f909101601f19169091010190565b600060018060a01b03808a16835260c06020840152611aaf60c08401898b611a63565b968116604084015260608301959095525091909216608082015260a001529392505050565b634e487b7160e01b600052604160045260246000fd5b604080519081016001600160401b0381118282101715611b0c57611b0c611ad4565b60405290565b60405160a081016001600160401b0381118282101715611b0c57611b0c611ad4565b604051601f8201601f191681016001600160401b0381118282101715611b5c57611b5c611ad4565b604052919050565b600082601f830112611b7557600080fd5b81356001600160401b03811115611b8e57611b8e611ad4565b611ba1601f8201601f1916602001611b34565b818152846020838601011115611bb657600080fd5b816020850160208301376000918101602001919091529392505050565b600082601f830112611be457600080fd5b813560206001600160401b03821115611bff57611bff611ad4565b611c0d818360051b01611b34565b82815260069290921b84018101918181019086841115611c2c57600080fd5b8286015b84811015611c745760408189031215611c495760008081fd5b611c51611aea565b8135611c5c81611708565b81528185013585820152835291830191604001611c30565b509695505050505050565b600060a08236031215611c9157600080fd5b611c99611b12565b82358152611ca9602084016116ec565b602082015260408301356001600160401b0380821115611cc857600080fd5b611cd436838701611b64565b60408401526060850135915080821115611ced57600080fd5b611cf936838701611b64565b60608401526080850135915080821115611d1257600080fd5b50611d1f36828601611bd3565b60808301525092915050565b634e487b7160e01b600052603260045260246000fd5b602081526000611501602083018486611a63565b6020815260006116e56020830184611925565b600060208284031215611d7a57600080fd5b81516116e5816116b2565b604081526000611d986040830185611925565b905060018060a01b03831660208301529392505050565b600080600060608486031215611dc457600080fd5b8351611dcf81611708565b602085015160408601519194509250611de781611708565b809150509250925092565b600060018060a01b03808716835260806020840152611e146080840187611925565b94166040830152506060015292915050565b6020808252602b908201527f496e697469616c697a61626c653a20636f6e7472616374206973206e6f74206960408201526a6e697469616c697a696e6760a81b606082015260800190565b60008251611e83818460208701611901565b919091019291505056fe436f6d706c65746564207769746864726177616c20616e642073656e7420746f6b656e7320746f20456967656e4167656e74206f776e6572a264697066735822122062d2b6405a27a2343b1b4279ba9c4b0756872c118fb85383bf9b1d4cdfda333864736f6c63430008160033000000000000000000000000d3b06cebf099ce7da4accf578aaebfdbd6e88a93000000000000000000000000e4ab69c077896252fafbd49efd26b5d171a32410",
        "nonce": "0x272",
        "chainId": "0x14a34"
      },
      "additionalContracts": [],
      "isFixedGasLimit": false
    },
    {
      "hash": "0x4370f90046262022698bd47361c9a3986f48775313dcf2efa49beb43f91afdb9",
      "transactionType": "CALL",
      "contractName": "ProxyAdmin",
      "contractAddress": "0x673430d3601557fcdeadfbbe1bb513a3fc777984",
      "function": "upgrade(address,address)",
      "arguments": [
        "0x1D52bC3415AAe68806E3Fd44D4cdb0b63E68068A",
        "0x31FDa7D0849431FA52b6C4d9A5626165288C8EED"
      ],
      "transaction": {
        "from": "0x8454d149beb26e3e3fc5ed1c87fb0b2a1b7b6c2c",
        "to": "0x673430d3601557fcdeadfbbe1bb513a3fc777984",
        "gas": "0xd175",
        "value": "0x0",
        "input": "0x99a88ec40000000000000000000000001d52bc3415aae68806e3fd44d4cdb0b63e68068a00000000000000000000000031fda7d0849431fa52b6c4d9a5626165288c8eed",
        "nonce": "0x273",
        "chainId": "0x14a34"
      },
      "additionalContracts": [],
      "isFixedGasLimit": false
    },
    {
      "hash": "0xaae735b567146ec9b724fc3fab33b30b8c173b661be97233182bffc8425bb4be",
      "transactionType": "CREATE",
      "contractName": "SenderUtils",
      "contractAddress": "0xefb0f5381b7f37df207c80a8cf1ddaa54bc3227d",
      "function": null,
      "arguments": null,
      "transaction": {
        "from": "0x8454d149beb26e3e3fc5ed1c87fb0b2a1b7b6c2c",
        "gas": "0x25e2ec",
        "value": "0x0",
        "input": "0x608060405234801561001057600080fd5b5061001961001e565b6100de565b600054610100900460ff161561008a5760405162461bcd60e51b815260206004820152602760248201527f496e697469616c697a61626c653a20636f6e747261637420697320696e697469604482015266616c697a696e6760c81b606482015260840160405180910390fd5b60005460ff90811610156100dc576000805460ff191660ff9081179091556040519081527f7f26b83ff96e1f2b6a682f133852f6798a09c465da95921460cefb38474024989060200160405180910390a15b565b61211a80620000ee6000396000f3fe608060405234801561001057600080fd5b50600436106101425760003560e01c80638129fc1c116100b8578063d1e2acf01161007c578063d1e2acf014610359578063d8a85b481461039b578063d8d6c31a146103d8578063e83008ee146103eb578063f2392b47146103fe578063f2fde38b1461042357600080fd5b80638129fc1c146102d45780638da5cb5b146102dc5780639f132ba3146102ed578063b32a8cb214610310578063c6b533141461033357600080fd5b80632e28761f1161010a5780632e28761f1461024d5780633ef2d37714610272578063597b36da1461028557806370480275146102a6578063715018a6146102b9578063766dad8f146102c157600080fd5b80630f2b2ed714610147578063129b3491146101725780631785f53c146101e957806324d7806c146101fe57806326a6d1101461023a575b600080fd5b61015a61015536600461179d565b610436565b6040516101699392919061182a565b60405180910390f35b6101b661018036600461185a565b60666020526000908152604090208054600182015460028301546003909301546001600160a01b03928316939192918216911684565b604080516001600160a01b0395861681526020810194909452918416918301919091529091166060820152608001610169565b6101fc6101f7366004611898565b6104f3565b005b61022a61020c366004611898565b6001600160a01b031660009081526065602052604090205460ff1690565b6040519015158152602001610169565b6101fc6102483660046118bc565b61051c565b6069546001600160a01b03165b6040516001600160a01b039091168152602001610169565b6101fc6102803660046119b2565b61061a565b610298610293366004611af0565b61075e565b604051908152602001610169565b6101fc6102b4366004611898565b61078e565b6101fc6107ba565b6101fc6102cf3660046118bc565b6107ce565b6101fc6109f9565b6033546001600160a01b031661025a565b61022a6102fb36600461185a565b60676020526000908152604090205460ff1681565b61032361031e36600461179d565b610bb5565b6040516101699493929190611c45565b61034661034136600461179d565b610d96565b6040516101699796959493929190611d80565b61038c61036736600461179d565b6040805160208101909152600081525060640151604080516020810190915290815290565b60405190518152602001610169565b6103ae6103a936600461179d565b610dd2565b604080516001600160a01b0394851681526020810193909352921691810191909152606001610169565b6101fc6103e6366004611898565b610eeb565b6102986103f9366004611e20565b610f15565b61041161040c36600461179d565b610f46565b60405161016996959493929190611e3d565b6101fc610431366004611898565b61100e565b60008060607397ab347c4dc5f6fab0d7a64edd81d815d245f26863e6cdf0ea8560646040518363ffffffff1660e01b8152600401610475929190611e8b565b600060405180830381865af4158015610492573d6000803e3d6000fd5b505050506040513d6000823e601f3d908101601f191682016040526104ba9190810190611ead565b805192955090935091506041146104ec5760405162461bcd60e51b81526004016104e390611f43565b60405180910390fd5b9193909250565b6104fb611084565b6001600160a01b03166000908152606560205260409020805460ff19169055565b6069546001600160a01b031633146105765760405162461bcd60e51b815260206004820152601860248201527f6e6f742063616c6c65642062792053656e64657243434950000000000000000060448201526064016104e3565b60405163182d14b160e31b815260009073a1c4ff36787bdc46aac547f282045a20508625029063c168a588906105b0908690600401611f99565b602060405180830381865af41580156105cd573d6000803e3d6000fd5b505050506040513d601f19601f820116820180604052508101906105f19190611fac565b9050639f28051360e01b6001600160e01b03198216016106155761061583836107ce565b505050565b610622611084565b80518251146106825760405162461bcd60e51b815260206004820152602660248201527f696e70757420617272617973206d7573742068617665207468652073616d65206044820152650d8cadccee8d60d31b60648201526084016104e3565b60005b8151811015610615578181815181106106a0576106a0611fc9565b6020026020010151606860008584815181106106be576106be611fc9565b60200260200101516001600160e01b0319166001600160e01b0319168152602001908152602001600020819055508181815181106106fe576106fe611fc9565b602002602001015183828151811061071857610718611fc9565b60200260200101516001600160e01b0319167fed4c89b805f4efb58bc4a42b9a3c6f09783f619295a1fa41ab46d6190c8c7f3b60405160405180910390a3600101610685565b6000816040516020016107719190611fdf565b604051602081830303815290604052805190602001209050919050565b610796611084565b6001600160a01b03166000908152606560205260409020805460ff19166001179055565b6107c2611084565b6107cc60006110de565b565b6001600160a01b0381166108305760405162461bcd60e51b815260206004820152602360248201527f63616e6e6f7420636f6d6d697420746f6b656e4c32206173206164647265737360448201526228302960e81b60648201526084016104e3565b600080600061083e85610d96565b5050945094505050925081156109f25760006108598461075e565b60008181526067602052604090205490915060ff16156108c75760405162461bcd60e51b8152602060048201526024808201527f7769746864726177616c526f6f742068617320616c7265616479206265656e206044820152631d5cd95960e21b60648201526084016104e3565b604051806080016040528085604001516001600160a01b031681526020018560c001516000815181106108fc576108fc611fc9565b60209081029190910181015182526001600160a01b0388811683830152858116604093840152600085815260668352838120855181546001600160a01b031990811691851691909117825593860151600182015593850151600285018054851691841691909117905560609094015160039093018054909216921691909117905560c0850151805190919061099357610993611fc9565b602002602001015184604001516001600160a01b0316827ff30a53a037f0d33efe3fd7456ec6673655e4e186d1ffae5266493f573ca465b3856040516109e891906001600160a01b0391909116815260200190565b60405180910390a4505b5050505050565b600054610100900460ff1615808015610a195750600054600160ff909116105b80610a335750303b158015610a33575060005460ff166001145b610a4f5760405162461bcd60e51b81526004016104e390611ff2565b6000805460ff191660011790558015610a72576000805461ff0019166101001790555b6068602052622191c07f0b5ad0d5ce1e91a175bc6dcf9ff68e4f11c3776d1b7eaa1ef6ba2cb867138dc15562186a007f28a4a37c297eed92423fedff570755a8fd3a8dca967573f6fa02e39b583ff64755620c35007f5c5bd8d53f871cce127a914ba5505a5ff070fa3e26b8594e3cbb6dba2fb2604d8190557f68bfe3030d2bf8070f2e141baec130cd688fb27947fb9f4fc242f307295943c855620927c07f381c5d456e583085841682a6142f5063572672a9702215f7b19d54db09214e9c556336a2fa1960e21b60005262061a807f19944d14319a6054b386814a79f83200e21ba78d3307cd97f05baeda40a07abd55610b6c611130565b8015610bb2576000805461ff0019169055604051600181527f7f26b83ff96e1f2b6a682f133852f6798a09c465da95921460cefb38474024989060200160405180910390a15b50565b606060008060606000608486015190506001811015610c3c5760405162461bcd60e51b815260206004820152603960248201527f6465636f646551756575655769746864726177616c734d73673a20617272617960448201527f4c656e677468206d757374206265206174206c6561737420310000000000000060648201526084016104e3565b8067ffffffffffffffff811115610c5557610c556116af565b604051908082528060200260200182016040528015610c8e57816020015b610c7b611627565b815260200190600190039081610c735790505b50945060005b81811015610cd857610ca4611627565b610caf8884846111b1565b905080878381518110610cc457610cc4611fc9565b602090810291909101015250600101610c94565b506000610ce6600183612056565b610cf190600861206f565b610cfc90602061206f565b90507397ab347c4dc5f6fab0d7a64edd81d815d245f26863e6cdf0ea88610d25846101a4612086565b6040518363ffffffff1660e01b8152600401610d42929190611e8b565b600060405180830381865af4158015610d5f573d6000803e3d6000fd5b505050506040513d6000823e601f3d908101601f19168201604052610d879190810190611ead565b97999198509695509350505050565b610d9e611651565b60606000806000806060610db188611335565b9650610dbc886114c3565b9b9d949c50929a91995097509095509350915050565b600080600080610e01856040805160208101909152600081525060640151604080516020810190915290815290565b80516000818152606660208181526040808420815160808101835281546001600160a01b0390811682526001808401805484880190815260028601805485168689019081526003880180548716606089019081528e8e5260678c528a8e20805460ff19169097179096559a90995286546001600160a01b0319908116909755918a9055815486169091558754909416909655935191519451925197985095969083169491909216917f1ff450d29c3fea88215329ce61771e7026cd701e49b49e978f2a5edbd0777ca79190a460608101516020820151604090920151909891975095509350505050565b610ef3611084565b606980546001600160a01b0319166001600160a01b0392909216919091179055565b6001600160e01b031981166000908152606860205260408120548015610f3b5792915050565b5062061a8092915050565b6064810151608482015160a4830151604051637366f87560e11b815260009081906060907397ab347c4dc5f6fab0d7a64edd81d815d245f2689063e6cdf0ea90610f97908a9060c490600401611e8b565b600060405180830381865af4158015610fb4573d6000803e3d6000fd5b505050506040513d6000823e601f3d908101601f19168201604052610fdc9190810190611ead565b805192955090935091506041146110055760405162461bcd60e51b81526004016104e390611f43565b91939550919395565b611016611084565b6001600160a01b03811661107b5760405162461bcd60e51b815260206004820152602660248201527f4f776e61626c653a206e6577206f776e657220697320746865207a65726f206160448201526564647265737360d01b60648201526084016104e3565b610bb2816110de565b6033546001600160a01b031633146107cc5760405162461bcd60e51b815260206004820181905260248201527f4f776e61626c653a2063616c6c6572206973206e6f7420746865206f776e657260448201526064016104e3565b603380546001600160a01b038381166001600160a01b0319831681179093556040519116919082907f8be0079c531659141344cd1fd0a4f28419497f9722a3daafe3b4186f6b6457e090600090a35050565b600054610100900460ff16158080156111505750600054600160ff909116105b8061116a5750303b15801561116a575060005460ff166001145b6111865760405162461bcd60e51b81526004016104e390611ff2565b6000805460ff1916600117905580156111a9576000805461ff0019166101001790555b610b6c6115cd565b6111b9611627565b6000808080806111ca87600761206f565b6111d560018a612056565b6111df9190612086565b905060006111ee82602061206f565b6111fa90610104612086565b9050600061120983602061206f565b61121590610144612086565b9050600061122484602061206f565b61123090610184612086565b60608d0151848e0151848f01518f840151929b509099509750955090506000600160405190808252806020026020018201604052801561127a578160200160208202803683370190505b50604080516001808252818301909252919250600091906020808301908036833701905050905087826000815181106112b5576112b5611fc9565b60200260200101906001600160a01b031690816001600160a01b03168152505086816000815181106112e9576112e9611fc9565b6020026020010181815250506112fd611627565b506040805160608101825292835260208301919091526001600160a01b039098169781019790975250949a9950505050505050505050565b61133d611651565b60e48201516101048301516101248401516101448501516101648601516101c48701516101e48801516102048901516102248a015190919060008467ffffffffffffffff811115611390576113906116af565b6040519080825280602002602001820160405280156113b9578160200160208202803683370190505b50905060008467ffffffffffffffff8111156113d7576113d76116af565b604051908082528060200260200182016040528015611400578160200160208202803683370190505b509050838260008151811061141757611417611fc9565b60200260200101906001600160a01b031690816001600160a01b031681525050828160008151811061144b5761144b611fc9565b60200260200101818152505060006040518060e001604052808d6001600160a01b031681526020018c6001600160a01b031681526020018b6001600160a01b031681526020018a81526020018963ffffffff168152602001848152602001838152509050809c50505050505050505050505050919050565b60a481015160c4820151610244830151610264840151604051637366f87560e11b815260609493926000928392879291907397ab347c4dc5f6fab0d7a64edd81d815d245f2689063e6cdf0ea90611522908c9061028490600401611e8b565b600060405180830381865af415801561153f573d6000803e3d6000fd5b505050506040513d6000823e601f3d908101601f191682016040526115679190810190611ead565b60408051600180825281830190925293985091965094506020808301908036833701905050975080886000815181106115a2576115a2611fc9565b60200260200101906001600160a01b031690816001600160a01b031681525050505091939550919395565b600054610100900460ff166115f45760405162461bcd60e51b81526004016104e390612099565b6107cc600054610100900460ff1661161e5760405162461bcd60e51b81526004016104e390612099565b6107cc336110de565b6040518060600160405280606081526020016060815260200160006001600160a01b031681525090565b6040518060e0016040528060006001600160a01b0316815260200160006001600160a01b0316815260200160006001600160a01b0316815260200160008152602001600063ffffffff16815260200160608152602001606081525090565b634e487b7160e01b600052604160045260246000fd5b60405160e0810167ffffffffffffffff811182821017156116e8576116e86116af565b60405290565b604051601f8201601f1916810167ffffffffffffffff81118282101715611717576117176116af565b604052919050565b600067ffffffffffffffff821115611739576117396116af565b50601f01601f191660200190565b600082601f83011261175857600080fd5b813561176b6117668261171f565b6116ee565b81815284602083860101111561178057600080fd5b816020850160208301376000918101602001919091529392505050565b6000602082840312156117af57600080fd5b813567ffffffffffffffff8111156117c657600080fd5b6117d284828501611747565b949350505050565b60005b838110156117f55781810151838201526020016117dd565b50506000910152565b600081518084526118168160208601602086016117da565b601f01601f19169290920160200192915050565b60018060a01b038416815282602082015260606040820152600061185160608301846117fe565b95945050505050565b60006020828403121561186c57600080fd5b5035919050565b6001600160a01b0381168114610bb257600080fd5b803561189381611873565b919050565b6000602082840312156118aa57600080fd5b81356118b581611873565b9392505050565b600080604083850312156118cf57600080fd5b823567ffffffffffffffff8111156118e657600080fd5b6118f285828601611747565b925050602083013561190381611873565b809150509250929050565b600067ffffffffffffffff821115611928576119286116af565b5060051b60200190565b6001600160e01b031981168114610bb257600080fd5b600082601f83011261195957600080fd5b813560206119696117668361190e565b8083825260208201915060208460051b87010193508684111561198b57600080fd5b602086015b848110156119a75780358352918301918301611990565b509695505050505050565b600080604083850312156119c557600080fd5b823567ffffffffffffffff808211156119dd57600080fd5b818501915085601f8301126119f157600080fd5b81356020611a016117668361190e565b82815260059290921b84018101918181019089841115611a2057600080fd5b948201945b83861015611a47578535611a3881611932565b82529482019490820190611a25565b96505086013592505080821115611a5d57600080fd5b50611a6a85828601611948565b9150509250929050565b803563ffffffff8116811461189357600080fd5b600082601f830112611a9957600080fd5b81356020611aa96117668361190e565b8083825260208201915060208460051b870101935086841115611acb57600080fd5b602086015b848110156119a7578035611ae381611873565b8352918301918301611ad0565b600060208284031215611b0257600080fd5b813567ffffffffffffffff80821115611b1a57600080fd5b9083019060e08286031215611b2e57600080fd5b611b366116c5565b611b3f83611888565b8152611b4d60208401611888565b6020820152611b5e60408401611888565b604082015260608301356060820152611b7960808401611a74565b608082015260a083013582811115611b9057600080fd5b611b9c87828601611a88565b60a08301525060c083013582811115611bb457600080fd5b611bc087828601611948565b60c08301525095945050505050565b60008151808452602080850194506020840160005b83811015611c095781516001600160a01b031687529582019590820190600101611be4565b509495945050505050565b60008151808452602080850194506020840160005b83811015611c0957815187529582019590820190600101611c29565b6000608082016080835280875180835260a08501915060a08160051b86010192506020808a0160005b83811015611cd657609f19888703018552815160608151818952611c94828a0182611bcf565b91505084820151888203868a0152611cac8282611c14565b6040938401516001600160a01b031699909301989098525095509382019390820190600101611c6e565b50506001600160a01b038916868201525050508460408401528281036060840152611d0181856117fe565b979650505050505050565b600060018060a01b03808351168452806020840151166020850152806040840151166040850152506060820151606084015263ffffffff608083015116608084015260a082015160e060a0850152611d6760e0850182611bcf565b905060c083015184820360c08601526118518282611c14565b60e081526000611d9360e083018a611d0c565b82810360208481019190915289518083528a82019282019060005b81811015611dd35784516001600160a01b031683529383019391830191600101611dae565b5050896040860152611de9606086018a15159052565b6001600160a01b03881660808601528660a086015284810360c0860152611e1081876117fe565b9c9b505050505050505050505050565b600060208284031215611e3257600080fd5b81356118b581611932565b6001600160a01b038781168252868116602083015260408201869052841660608201526080810183905260c060a08201819052600090611e7f908301846117fe565b98975050505050505050565b604081526000611e9e60408301856117fe565b90508260208301529392505050565b600080600060608486031215611ec257600080fd5b8351611ecd81611873565b60208501516040860151919450925067ffffffffffffffff811115611ef157600080fd5b8401601f81018613611f0257600080fd5b8051611f106117668261171f565b818152876020838501011115611f2557600080fd5b611f368260208301602086016117da565b8093505050509250925092565b60208082526036908201527f6465636f64654465706f736974496e746f53747261746567794d73673a20696e6040820152750ecc2d8d2c840e6d2cedcc2e8eae4ca40d8cadccee8d60531b606082015260800190565b6020815260006118b560208301846117fe565b600060208284031215611fbe57600080fd5b81516118b581611932565b634e487b7160e01b600052603260045260246000fd5b6020815260006118b56020830184611d0c565b6020808252602e908201527f496e697469616c697a61626c653a20636f6e747261637420697320616c72656160408201526d191e481a5b9a5d1a585b1a5e995960921b606082015260800190565b634e487b7160e01b600052601160045260246000fd5b8181038181111561206957612069612040565b92915050565b808202811582820484141761206957612069612040565b8082018082111561206957612069612040565b6020808252602b908201527f496e697469616c697a61626c653a20636f6e7472616374206973206e6f74206960408201526a6e697469616c697a696e6760a81b60608201526080019056fea2646970667358221220224ba38dcb0310a8554a06fc2d5131425af50bd7d35923cf8141d604da8c188c64736f6c63430008160033",
        "nonce": "0x274",
        "chainId": "0x14a34"
      },
      "additionalContracts": [],
      "isFixedGasLimit": false
    },
    {
      "hash": "0xbc0678f7349d4859ad728626a671d937ec5cd2d894681f0b28059946dcc98648",
      "transactionType": "CALL",
      "contractName": "ProxyAdmin",
      "contractAddress": "0x673430d3601557fcdeadfbbe1bb513a3fc777984",
      "function": "upgrade(address,address)",
      "arguments": [
        "0x205e359BDEF6E0fF3E1d820668bBf7ce68D14d08",
        "0xefB0f5381B7f37Df207C80A8cf1ddaA54bc3227D"
      ],
      "transaction": {
        "from": "0x8454d149beb26e3e3fc5ed1c87fb0b2a1b7b6c2c",
        "to": "0x673430d3601557fcdeadfbbe1bb513a3fc777984",
        "gas": "0xd175",
        "value": "0x0",
        "input": "0x99a88ec4000000000000000000000000205e359bdef6e0ff3e1d820668bbf7ce68d14d08000000000000000000000000efb0f5381b7f37df207c80a8cf1ddaa54bc3227d",
        "nonce": "0x275",
        "chainId": "0x14a34"
      },
      "additionalContracts": [],
      "isFixedGasLimit": false
    },
    {
      "hash": "0x11193418cbb52dfa2ef1ee774e1980dec432674f99f7c3c5251394c21213a9a7",
      "transactionType": "CALL",
      "contractName": "TransparentUpgradeableProxy",
      "contractAddress": "0x1d52bc3415aae68806e3fd44d4cdb0b63e68068a",
      "function": null,
      "arguments": null,
      "transaction": {
        "from": "0x8454d149beb26e3e3fc5ed1c87fb0b2a1b7b6c2c",
        "to": "0x1d52bc3415aae68806e3fd44d4cdb0b63e68068a",
        "gas": "0xb5f4",
        "value": "0x0",
        "input": "0x96d3b83d000000000000000000000000000000000000000000000000de41ba4fc9d91ad90000000000000000000000000000000000000000000000000000000000000001",
        "nonce": "0x276",
        "chainId": "0x14a34"
      },
      "additionalContracts": [],
      "isFixedGasLimit": false
    },
    {
      "hash": "0x8522937cefd83be3756e8596d151ed10c511e2318d37b2fb69102942619a70cb",
      "transactionType": "CALL",
      "contractName": "TransparentUpgradeableProxy",
      "contractAddress": "0x1d52bc3415aae68806e3fd44d4cdb0b63e68068a",
      "function": null,
      "arguments": null,
      "transaction": {
        "from": "0x8454d149beb26e3e3fc5ed1c87fb0b2a1b7b6c2c",
        "to": "0x1d52bc3415aae68806e3fd44d4cdb0b63e68068a",
        "gas": "0xc047",
        "value": "0x0",
        "input": "0xdb04fa49000000000000000000000000000000000000000000000000de41ba4fc9d91ad90000000000000000000000000000000000000000000000000000000000000001",
        "nonce": "0x277",
        "chainId": "0x14a34"
      },
      "additionalContracts": [],
      "isFixedGasLimit": false
    },
    {
      "hash": "0xde7aa23c36083a9d1bd3d2454d71ad37c5388bf2efc5b7b193f83ca206c437dc",
      "transactionType": "CALL",
      "contractName": "TransparentUpgradeableProxy",
      "contractAddress": "0x1d52bc3415aae68806e3fd44d4cdb0b63e68068a",
      "function": null,
      "arguments": null,
      "transaction": {
        "from": "0x8454d149beb26e3e3fc5ed1c87fb0b2a1b7b6c2c",
        "to": "0x1d52bc3415aae68806e3fd44d4cdb0b63e68068a",
        "gas": "0xc131",
        "value": "0x0",
        "input": "0xeab5b02c0000000000000000000000008645c75d0c75b859146aebb74076b319c9331c4e0000000000000000000000000000000000000000000000000000000000000001",
        "nonce": "0x278",
        "chainId": "0x14a34"
      },
      "additionalContracts": [],
      "isFixedGasLimit": false
    },
    {
      "hash": "0x77604cf1a4e5a899fc0a6feee675d2fc281a43281a34a41dc6ff9c96b0e1b4db",
      "transactionType": "CALL",
      "contractName": "TransparentUpgradeableProxy",
      "contractAddress": "0x1d52bc3415aae68806e3fd44d4cdb0b63e68068a",
      "function": null,
      "arguments": null,
      "transaction": {
        "from": "0x8454d149beb26e3e3fc5ed1c87fb0b2a1b7b6c2c",
        "to": "0x1d52bc3415aae68806e3fd44d4cdb0b63e68068a",
        "gas": "0xbfd4",
        "value": "0x0",
        "input": "0xf0e62fea000000000000000000000000205e359bdef6e0ff3e1d820668bbf7ce68d14d08",
        "nonce": "0x279",
        "chainId": "0x14a34"
      },
      "additionalContracts": [],
      "isFixedGasLimit": false
    },
    {
      "hash": "0x339c888bde35e574b2f158ebe49e3521864d2f77e0dd2f8b25e837e6239b1279",
      "transactionType": "CALL",
      "contractName": "TransparentUpgradeableProxy",
      "contractAddress": "0x205e359bdef6e0ff3e1d820668bbf7ce68d14d08",
      "function": null,
      "arguments": null,
      "transaction": {
        "from": "0x8454d149beb26e3e3fc5ed1c87fb0b2a1b7b6c2c",
        "to": "0x205e359bdef6e0ff3e1d820668bbf7ce68d14d08",
        "gas": "0x1203c",
        "value": "0x0",
        "input": "0xd8d6c31a0000000000000000000000001d52bc3415aae68806e3fd44d4cdb0b63e68068a",
        "nonce": "0x27a",
        "chainId": "0x14a34"
      },
      "additionalContracts": [],
      "isFixedGasLimit": false
    },
    {
      "hash": "0x2bdb59382d800e127ea40af280bdf2713c584962e8c1d2b1e2231015e1ab6686",
      "transactionType": "CALL",
      "contractName": "TransparentUpgradeableProxy",
      "contractAddress": "0x1d52bc3415aae68806e3fd44d4cdb0b63e68068a",
      "function": null,
      "arguments": null,
      "transaction": {
        "from": "0x8454d149beb26e3e3fc5ed1c87fb0b2a1b7b6c2c",
        "to": "0x1d52bc3415aae68806e3fd44d4cdb0b63e68068a",
        "gas": "0xa5c5",
        "value": "0x0",
        "input": "0x541044db",
        "nonce": "0x27b",
        "chainId": "0x14a34"
      },
      "additionalContracts": [],
      "isFixedGasLimit": false
    },
    {
      "hash": "0xb1ccdfc0632dfea4b5270ac75e6b7e11b45446e7e302f9c6f78d28bd50d553de",
      "transactionType": "CALL",
      "contractName": "TransparentUpgradeableProxy",
      "contractAddress": "0x1d52bc3415aae68806e3fd44d4cdb0b63e68068a",
      "function": null,
      "arguments": null,
      "transaction": {
        "from": "0x8454d149beb26e3e3fc5ed1c87fb0b2a1b7b6c2c",
        "to": "0x1d52bc3415aae68806e3fd44d4cdb0b63e68068a",
        "gas": "0xa8ef",
        "value": "0x0",
        "input": "0x6159ada10000000000000000000000008645c75d0c75b859146aebb74076b319c9331c4e",
        "nonce": "0x27c",
        "chainId": "0x14a34"
      },
      "additionalContracts": [],
      "isFixedGasLimit": false
    },
    {
      "hash": "0x73365553d267a941a7295a5e10f805888a725b9d4133098609517898110afb83",
      "transactionType": "CALL",
      "contractName": "TransparentUpgradeableProxy",
      "contractAddress": "0x1d52bc3415aae68806e3fd44d4cdb0b63e68068a",
      "function": null,
      "arguments": null,
      "transaction": {
        "from": "0x8454d149beb26e3e3fc5ed1c87fb0b2a1b7b6c2c",
        "to": "0x1d52bc3415aae68806e3fd44d4cdb0b63e68068a",
        "gas": "0xa850",
        "value": "0x0",
        "input": "0x4030d521000000000000000000000000000000000000000000000000de41ba4fc9d91ad9",
        "nonce": "0x27d",
        "chainId": "0x14a34"
      },
      "additionalContracts": [],
      "isFixedGasLimit": false
    },
    {
      "hash": "0xf630aff1b3ed643c84284b740fe6c2dedd260d46d784726e065f9c639556e7f0",
      "transactionType": "CALL",
      "contractName": "TransparentUpgradeableProxy",
      "contractAddress": "0x1d52bc3415aae68806e3fd44d4cdb0b63e68068a",
      "function": null,
      "arguments": null,
      "transaction": {
        "from": "0x8454d149beb26e3e3fc5ed1c87fb0b2a1b7b6c2c",
        "to": "0x1d52bc3415aae68806e3fd44d4cdb0b63e68068a",
        "gas": "0xb1d6",
        "value": "0x0",
        "input": "0x75c67c66000000000000000000000000000000000000000000000000de41ba4fc9d91ad9",
        "nonce": "0x27e",
        "chainId": "0x14a34"
      },
      "additionalContracts": [],
      "isFixedGasLimit": false
    }
  ],
  "receipts": [
    {
      "status": "0x1",
      "cumulativeGasUsed": "0x334e5d",
      "logs": [],
      "logsBloom": "0x00000000000000000000000000000000000000000000000000000000000000000000000000000000000000000000000000000000000000000000000000000000000000000000000000000000000000000000000000000000000000000000000000000000000000000000000000000000000000000000000000000000000000000000000000000000000000000000000000000000000000000000000000000000000000000000000000000000000000000000000000000000000000000000000000000000000000000000000000000000000000000000000000000000000000000000000000000000000000000000000000000000000000000000000000000000",
      "type": "0x2",
      "transactionHash": "0x8f61c08aecae1c6bdc85ff26bff0d2fd682bbae9445db83c3230f76d0ead0037",
      "transactionIndex": "0x8",
      "blockHash": "0xad44ac41bc39e4d182bea87c23a040899e01866b0162331803dd5916747b9117",
      "blockNumber": "0xe1dc48",
      "gasUsed": "0x297e0",
      "effectiveGasPrice": "0x98234",
      "from": "0x8454d149beb26e3e3fc5ed1c87fb0b2a1b7b6c2c",
      "to": "0x4e59b44847b379578588920ca78fbf26c0b4956c",
      "contractAddress": "0x97ab347c4dc5f6fab0d7a64edd81d815d245f268",
      "l1BaseFeeScalar": "0x44d",
      "l1BlobBaseFee": "0x5a2ec70b8",
      "l1BlobBaseFeeScalar": "0xa118b",
      "l1Fee": "0x7945e3eef46",
      "l1GasPrice": "0x4003f9291",
      "l1GasUsed": "0x2000"
    },
    {
      "status": "0x1",
      "cumulativeGasUsed": "0x35514a",
      "logs": [],
      "logsBloom": "0x00000000000000000000000000000000000000000000000000000000000000000000000000000000000000000000000000000000000000000000000000000000000000000000000000000000000000000000000000000000000000000000000000000000000000000000000000000000000000000000000000000000000000000000000000000000000000000000000000000000000000000000000000000000000000000000000000000000000000000000000000000000000000000000000000000000000000000000000000000000000000000000000000000000000000000000000000000000000000000000000000000000000000000000000000000000",
      "type": "0x2",
      "transactionHash": "0x9efd49624fab47a81a5ef26f9dafa3d133c5f04276ace1d763763db040636c06",
      "transactionIndex": "0x9",
      "blockHash": "0xad44ac41bc39e4d182bea87c23a040899e01866b0162331803dd5916747b9117",
      "blockNumber": "0xe1dc48",
      "gasUsed": "0x202ed",
      "effectiveGasPrice": "0x98234",
      "from": "0x8454d149beb26e3e3fc5ed1c87fb0b2a1b7b6c2c",
      "to": "0x4e59b44847b379578588920ca78fbf26c0b4956c",
      "contractAddress": "0xa1c4ff36787bdc46aac547f282045a2050862502",
      "l1BaseFeeScalar": "0x44d",
      "l1BlobBaseFee": "0x5a2ec70b8",
      "l1BlobBaseFeeScalar": "0xa118b",
      "l1Fee": "0x576496d97bb",
      "l1GasPrice": "0x4003f9291",
      "l1GasUsed": "0x170f"
    },
    {
      "status": "0x1",
      "cumulativeGasUsed": "0x5112ce",
      "logs": [
        {
          "address": "0x31fda7d0849431fa52b6c4d9a5626165288c8eed",
          "topics": [
            "0x7f26b83ff96e1f2b6a682f133852f6798a09c465da95921460cefb3847402498"
          ],
          "data": "0x00000000000000000000000000000000000000000000000000000000000000ff",
          "blockHash": "0xad44ac41bc39e4d182bea87c23a040899e01866b0162331803dd5916747b9117",
          "blockNumber": "0xe1dc48",
          "transactionHash": "0x754c15cb1028ad73e02ca681d0f5e64e07bfccb08b1330514c19a89c9a61c135",
          "transactionIndex": "0xa",
          "logIndex": "0x10",
          "removed": false
        }
      ],
      "logsBloom": "0x00000000000000000000000000000000000000000000000000000000000000000000000000000000000000000000000000000000000000000000000000000000000000000000000000000000000000008000000002000000000000000000000000000000000000000000000000000000000000000000000000000000000000000000000000000000000000000000000800000000000080000000000000000000000000000000000000000000000400000000000000000000000000000000000000000000000000000000000000040000000000000000000000000000000000000000000000000000000000000000000000000000000000000000000000000000",
      "type": "0x2",
      "transactionHash": "0x754c15cb1028ad73e02ca681d0f5e64e07bfccb08b1330514c19a89c9a61c135",
      "transactionIndex": "0xa",
      "blockHash": "0xad44ac41bc39e4d182bea87c23a040899e01866b0162331803dd5916747b9117",
      "blockNumber": "0xe1dc48",
      "gasUsed": "0x1bc184",
      "effectiveGasPrice": "0x98234",
      "from": "0x8454d149beb26e3e3fc5ed1c87fb0b2a1b7b6c2c",
      "to": null,
      "contractAddress": "0x31fda7d0849431fa52b6c4d9a5626165288c8eed",
      "l1BaseFeeScalar": "0x44d",
      "l1BlobBaseFee": "0x5a2ec70b8",
      "l1BlobBaseFeeScalar": "0xa118b",
      "l1Fee": "0x44c6d5d51046",
      "l1GasPrice": "0x4003f9291",
      "l1GasUsed": "0x1225f"
    },
    {
      "status": "0x1",
      "cumulativeGasUsed": "0x51aa73",
      "logs": [
        {
          "address": "0x1d52bc3415aae68806e3fd44d4cdb0b63e68068a",
          "topics": [
            "0xbc7cd75a20ee27fd9adebab32041f755214dbc6bffa90cc0225b39da2e5c2d3b",
            "0x00000000000000000000000031fda7d0849431fa52b6c4d9a5626165288c8eed"
          ],
          "data": "0x",
          "blockHash": "0xad44ac41bc39e4d182bea87c23a040899e01866b0162331803dd5916747b9117",
          "blockNumber": "0xe1dc48",
          "transactionHash": "0x4370f90046262022698bd47361c9a3986f48775313dcf2efa49beb43f91afdb9",
          "transactionIndex": "0xb",
          "logIndex": "0x11",
          "removed": false
        }
      ],
      "logsBloom": "0x00000010000000000000000000000000400000000000000000000000000000000000000000000000000000000000000000000000000000000000400000000000000000000000000000000100000022000000000000000000000000000000000000000000000000000000000000000000000000000000000000000000000000000000000000000000000000000000000000000000000000100000000000000000000000000000000000000000000000000000000000000000000000000000000000000020000000000000000000000000000000000000080000000000000000000000000000000000000000000000000000000000000000000000000000000000",
      "type": "0x2",
      "transactionHash": "0x4370f90046262022698bd47361c9a3986f48775313dcf2efa49beb43f91afdb9",
      "transactionIndex": "0xb",
      "blockHash": "0xad44ac41bc39e4d182bea87c23a040899e01866b0162331803dd5916747b9117",
      "blockNumber": "0xe1dc48",
      "gasUsed": "0x97a5",
      "effectiveGasPrice": "0x98234",
      "from": "0x8454d149beb26e3e3fc5ed1c87fb0b2a1b7b6c2c",
      "to": "0x673430d3601557fcdeadfbbe1bb513a3fc777984",
      "contractAddress": null,
      "l1BaseFeeScalar": "0x44d",
      "l1BlobBaseFee": "0x5a2ec70b8",
      "l1BlobBaseFeeScalar": "0xa118b",
      "l1Fee": "0x17cb2118799",
      "l1GasPrice": "0x4003f9291",
      "l1GasUsed": "0x647"
    },
    {
      "status": "0x1",
      "cumulativeGasUsed": "0x6ed14b",
      "logs": [
        {
          "address": "0xefb0f5381b7f37df207c80a8cf1ddaa54bc3227d",
          "topics": [
            "0x7f26b83ff96e1f2b6a682f133852f6798a09c465da95921460cefb3847402498"
          ],
          "data": "0x00000000000000000000000000000000000000000000000000000000000000ff",
          "blockHash": "0xad44ac41bc39e4d182bea87c23a040899e01866b0162331803dd5916747b9117",
          "blockNumber": "0xe1dc48",
          "transactionHash": "0xaae735b567146ec9b724fc3fab33b30b8c173b661be97233182bffc8425bb4be",
          "transactionIndex": "0xc",
          "logIndex": "0x12",
          "removed": false
        }
      ],
      "logsBloom": "0x00000000000000000000000000000000000000000000000000000000000000000000000000000000000000000000000000000000000008000000000000000000000000000000000000000000000000000000000000000000000000000000000000000000000000000000000000000000000000000000000000000000000000000000000000000000000000000000000000000000000080000000000000000000000000000000000000000000000400000080000000000000000000001000000000000000000000000000000000040000000000000000000000000000000000000000000000000000000000000000000000000000000000000000000000000000",
      "type": "0x2",
      "transactionHash": "0xaae735b567146ec9b724fc3fab33b30b8c173b661be97233182bffc8425bb4be",
      "transactionIndex": "0xc",
      "blockHash": "0xad44ac41bc39e4d182bea87c23a040899e01866b0162331803dd5916747b9117",
      "blockNumber": "0xe1dc48",
      "gasUsed": "0x1d26d8",
      "effectiveGasPrice": "0x98234",
      "from": "0x8454d149beb26e3e3fc5ed1c87fb0b2a1b7b6c2c",
      "to": null,
      "contractAddress": "0xefb0f5381b7f37df207c80a8cf1ddaa54bc3227d",
      "l1BaseFeeScalar": "0x44d",
      "l1BlobBaseFee": "0x5a2ec70b8",
      "l1BlobBaseFeeScalar": "0xa118b",
      "l1Fee": "0x494591be5e54",
      "l1GasPrice": "0x4003f9291",
      "l1GasUsed": "0x1355a"
    },
    {
      "status": "0x1",
      "cumulativeGasUsed": "0x6f68f0",
      "logs": [
        {
          "address": "0x205e359bdef6e0ff3e1d820668bbf7ce68d14d08",
          "topics": [
            "0xbc7cd75a20ee27fd9adebab32041f755214dbc6bffa90cc0225b39da2e5c2d3b",
            "0x000000000000000000000000efb0f5381b7f37df207c80a8cf1ddaa54bc3227d"
          ],
          "data": "0x",
          "blockHash": "0xad44ac41bc39e4d182bea87c23a040899e01866b0162331803dd5916747b9117",
          "blockNumber": "0xe1dc48",
          "transactionHash": "0xbc0678f7349d4859ad728626a671d937ec5cd2d894681f0b28059946dcc98648",
          "transactionIndex": "0xd",
          "logIndex": "0x13",
          "removed": false
        }
      ],
      "logsBloom": "0x00000000000000000000000000000000400000000000000000000000000000000000000000000000000000000000000000000000000000000000000000000000000000000000000000000000000002000000008000000000000000000000000000002000000000000000000000000000000000000000000000000000000000000000000000000000000000000000000000000000000000000000000000000000000000000000000000000000000000000000000000000000000000000004000000000020001000000000000000000000000000000000000000000000000400000000000000000000000000000000000000000000000000000000000040000000",
      "type": "0x2",
      "transactionHash": "0xbc0678f7349d4859ad728626a671d937ec5cd2d894681f0b28059946dcc98648",
      "transactionIndex": "0xd",
      "blockHash": "0xad44ac41bc39e4d182bea87c23a040899e01866b0162331803dd5916747b9117",
      "blockNumber": "0xe1dc48",
      "gasUsed": "0x97a5",
      "effectiveGasPrice": "0x98234",
      "from": "0x8454d149beb26e3e3fc5ed1c87fb0b2a1b7b6c2c",
      "to": "0x673430d3601557fcdeadfbbe1bb513a3fc777984",
      "contractAddress": null,
      "l1BaseFeeScalar": "0x44d",
      "l1BlobBaseFee": "0x5a2ec70b8",
      "l1BlobBaseFeeScalar": "0xa118b",
      "l1Fee": "0x17cb2118799",
      "l1GasPrice": "0x4003f9291",
      "l1GasUsed": "0x647"
    },
    {
      "status": "0x1",
      "cumulativeGasUsed": "0x6fecac",
      "logs": [],
      "logsBloom": "0x00000000000000000000000000000000000000000000000000000000000000000000000000000000000000000000000000000000000000000000000000000000000000000000000000000000000000000000000000000000000000000000000000000000000000000000000000000000000000000000000000000000000000000000000000000000000000000000000000000000000000000000000000000000000000000000000000000000000000000000000000000000000000000000000000000000000000000000000000000000000000000000000000000000000000000000000000000000000000000000000000000000000000000000000000000000",
      "type": "0x2",
      "transactionHash": "0x11193418cbb52dfa2ef1ee774e1980dec432674f99f7c3c5251394c21213a9a7",
      "transactionIndex": "0xe",
      "blockHash": "0xad44ac41bc39e4d182bea87c23a040899e01866b0162331803dd5916747b9117",
      "blockNumber": "0xe1dc48",
      "gasUsed": "0x83bc",
      "effectiveGasPrice": "0x98234",
      "from": "0x8454d149beb26e3e3fc5ed1c87fb0b2a1b7b6c2c",
      "to": "0x1d52bc3415aae68806e3fd44d4cdb0b63e68068a",
      "contractAddress": null,
      "l1BaseFeeScalar": "0x44d",
      "l1BlobBaseFee": "0x5a2ec70b8",
      "l1BlobBaseFeeScalar": "0xa118b",
      "l1Fee": "0x17af7c60844",
      "l1GasPrice": "0x4003f9291",
      "l1GasUsed": "0x640"
    },
    {
      "status": "0x1",
      "cumulativeGasUsed": "0x707025",
      "logs": [],
      "logsBloom": "0x00000000000000000000000000000000000000000000000000000000000000000000000000000000000000000000000000000000000000000000000000000000000000000000000000000000000000000000000000000000000000000000000000000000000000000000000000000000000000000000000000000000000000000000000000000000000000000000000000000000000000000000000000000000000000000000000000000000000000000000000000000000000000000000000000000000000000000000000000000000000000000000000000000000000000000000000000000000000000000000000000000000000000000000000000000000",
      "type": "0x2",
      "transactionHash": "0x8522937cefd83be3756e8596d151ed10c511e2318d37b2fb69102942619a70cb",
      "transactionIndex": "0xf",
      "blockHash": "0xad44ac41bc39e4d182bea87c23a040899e01866b0162331803dd5916747b9117",
      "blockNumber": "0xe1dc48",
      "gasUsed": "0x8379",
      "effectiveGasPrice": "0x98234",
      "from": "0x8454d149beb26e3e3fc5ed1c87fb0b2a1b7b6c2c",
      "to": "0x1d52bc3415aae68806e3fd44d4cdb0b63e68068a",
      "contractAddress": null,
      "l1BaseFeeScalar": "0x44d",
      "l1BlobBaseFee": "0x5a2ec70b8",
      "l1BlobBaseFeeScalar": "0xa118b",
      "l1Fee": "0x17af7c60844",
      "l1GasPrice": "0x4003f9291",
      "l1GasUsed": "0x640"
    },
    {
      "status": "0x1",
      "cumulativeGasUsed": "0x70f43e",
      "logs": [],
      "logsBloom": "0x00000000000000000000000000000000000000000000000000000000000000000000000000000000000000000000000000000000000000000000000000000000000000000000000000000000000000000000000000000000000000000000000000000000000000000000000000000000000000000000000000000000000000000000000000000000000000000000000000000000000000000000000000000000000000000000000000000000000000000000000000000000000000000000000000000000000000000000000000000000000000000000000000000000000000000000000000000000000000000000000000000000000000000000000000000000",
      "type": "0x2",
      "transactionHash": "0xde7aa23c36083a9d1bd3d2454d71ad37c5388bf2efc5b7b193f83ca206c437dc",
      "transactionIndex": "0x10",
      "blockHash": "0xad44ac41bc39e4d182bea87c23a040899e01866b0162331803dd5916747b9117",
      "blockNumber": "0xe1dc48",
      "gasUsed": "0x8419",
      "effectiveGasPrice": "0x98234",
      "from": "0x8454d149beb26e3e3fc5ed1c87fb0b2a1b7b6c2c",
      "to": "0x1d52bc3415aae68806e3fd44d4cdb0b63e68068a",
      "contractAddress": null,
      "l1BaseFeeScalar": "0x44d",
      "l1BlobBaseFee": "0x5a2ec70b8",
      "l1BlobBaseFeeScalar": "0xa118b",
      "l1Fee": "0x17af7c60844",
      "l1GasPrice": "0x4003f9291",
      "l1GasUsed": "0x640"
    },
    {
      "status": "0x1",
      "cumulativeGasUsed": "0x717769",
      "logs": [],
      "logsBloom": "0x00000000000000000000000000000000000000000000000000000000000000000000000000000000000000000000000000000000000000000000000000000000000000000000000000000000000000000000000000000000000000000000000000000000000000000000000000000000000000000000000000000000000000000000000000000000000000000000000000000000000000000000000000000000000000000000000000000000000000000000000000000000000000000000000000000000000000000000000000000000000000000000000000000000000000000000000000000000000000000000000000000000000000000000000000000000",
      "type": "0x2",
      "transactionHash": "0x77604cf1a4e5a899fc0a6feee675d2fc281a43281a34a41dc6ff9c96b0e1b4db",
      "transactionIndex": "0x11",
      "blockHash": "0xad44ac41bc39e4d182bea87c23a040899e01866b0162331803dd5916747b9117",
      "blockNumber": "0xe1dc48",
      "gasUsed": "0x832b",
      "effectiveGasPrice": "0x98234",
      "from": "0x8454d149beb26e3e3fc5ed1c87fb0b2a1b7b6c2c",
      "to": "0x1d52bc3415aae68806e3fd44d4cdb0b63e68068a",
      "contractAddress": null,
      "l1BaseFeeScalar": "0x44d",
      "l1BlobBaseFee": "0x5a2ec70b8",
      "l1BlobBaseFeeScalar": "0xa118b",
      "l1Fee": "0x17af7c60844",
      "l1GasPrice": "0x4003f9291",
      "l1GasUsed": "0x640"
    },
    {
      "status": "0x1",
      "cumulativeGasUsed": "0x724817",
      "logs": [],
      "logsBloom": "0x00000000000000000000000000000000000000000000000000000000000000000000000000000000000000000000000000000000000000000000000000000000000000000000000000000000000000000000000000000000000000000000000000000000000000000000000000000000000000000000000000000000000000000000000000000000000000000000000000000000000000000000000000000000000000000000000000000000000000000000000000000000000000000000000000000000000000000000000000000000000000000000000000000000000000000000000000000000000000000000000000000000000000000000000000000000",
      "type": "0x2",
      "transactionHash": "0x339c888bde35e574b2f158ebe49e3521864d2f77e0dd2f8b25e837e6239b1279",
      "transactionIndex": "0x12",
      "blockHash": "0xad44ac41bc39e4d182bea87c23a040899e01866b0162331803dd5916747b9117",
      "blockNumber": "0xe1dc48",
      "gasUsed": "0xd0ae",
      "effectiveGasPrice": "0x98234",
      "from": "0x8454d149beb26e3e3fc5ed1c87fb0b2a1b7b6c2c",
      "to": "0x205e359bdef6e0ff3e1d820668bbf7ce68d14d08",
      "contractAddress": null,
      "l1BaseFeeScalar": "0x44d",
      "l1BlobBaseFee": "0x5a2ec70b8",
      "l1BlobBaseFeeScalar": "0xa118b",
      "l1Fee": "0x17af7c60844",
      "l1GasPrice": "0x4003f9291",
      "l1GasUsed": "0x640"
    },
    {
      "status": "0x1",
      "cumulativeGasUsed": "0x72c01b",
      "logs": [],
      "logsBloom": "0x00000000000000000000000000000000000000000000000000000000000000000000000000000000000000000000000000000000000000000000000000000000000000000000000000000000000000000000000000000000000000000000000000000000000000000000000000000000000000000000000000000000000000000000000000000000000000000000000000000000000000000000000000000000000000000000000000000000000000000000000000000000000000000000000000000000000000000000000000000000000000000000000000000000000000000000000000000000000000000000000000000000000000000000000000000000",
      "type": "0x2",
      "transactionHash": "0x2bdb59382d800e127ea40af280bdf2713c584962e8c1d2b1e2231015e1ab6686",
      "transactionIndex": "0x13",
      "blockHash": "0xad44ac41bc39e4d182bea87c23a040899e01866b0162331803dd5916747b9117",
      "blockNumber": "0xe1dc48",
      "gasUsed": "0x7804",
      "effectiveGasPrice": "0x98234",
      "from": "0x8454d149beb26e3e3fc5ed1c87fb0b2a1b7b6c2c",
      "to": "0x1d52bc3415aae68806e3fd44d4cdb0b63e68068a",
      "contractAddress": null,
      "l1BaseFeeScalar": "0x44d",
      "l1BlobBaseFee": "0x5a2ec70b8",
      "l1BlobBaseFeeScalar": "0xa118b",
      "l1Fee": "0x17af7c60844",
      "l1GasPrice": "0x4003f9291",
      "l1GasUsed": "0x640"
    },
    {
      "status": "0x1",
      "cumulativeGasUsed": "0x733a6a",
      "logs": [],
      "logsBloom": "0x00000000000000000000000000000000000000000000000000000000000000000000000000000000000000000000000000000000000000000000000000000000000000000000000000000000000000000000000000000000000000000000000000000000000000000000000000000000000000000000000000000000000000000000000000000000000000000000000000000000000000000000000000000000000000000000000000000000000000000000000000000000000000000000000000000000000000000000000000000000000000000000000000000000000000000000000000000000000000000000000000000000000000000000000000000000",
      "type": "0x2",
      "transactionHash": "0xb1ccdfc0632dfea4b5270ac75e6b7e11b45446e7e302f9c6f78d28bd50d553de",
      "transactionIndex": "0x14",
      "blockHash": "0xad44ac41bc39e4d182bea87c23a040899e01866b0162331803dd5916747b9117",
      "blockNumber": "0xe1dc48",
      "gasUsed": "0x7a4f",
      "effectiveGasPrice": "0x98234",
      "from": "0x8454d149beb26e3e3fc5ed1c87fb0b2a1b7b6c2c",
      "to": "0x1d52bc3415aae68806e3fd44d4cdb0b63e68068a",
      "contractAddress": null,
      "l1BaseFeeScalar": "0x44d",
      "l1BlobBaseFee": "0x5a2ec70b8",
      "l1BlobBaseFeeScalar": "0xa118b",
      "l1Fee": "0x17af7c60844",
      "l1GasPrice": "0x4003f9291",
      "l1GasUsed": "0x640"
    },
    {
      "status": "0x1",
      "cumulativeGasUsed": "0x73b446",
      "logs": [],
      "logsBloom": "0x00000000000000000000000000000000000000000000000000000000000000000000000000000000000000000000000000000000000000000000000000000000000000000000000000000000000000000000000000000000000000000000000000000000000000000000000000000000000000000000000000000000000000000000000000000000000000000000000000000000000000000000000000000000000000000000000000000000000000000000000000000000000000000000000000000000000000000000000000000000000000000000000000000000000000000000000000000000000000000000000000000000000000000000000000000000",
      "type": "0x2",
      "transactionHash": "0x73365553d267a941a7295a5e10f805888a725b9d4133098609517898110afb83",
      "transactionIndex": "0x15",
      "blockHash": "0xad44ac41bc39e4d182bea87c23a040899e01866b0162331803dd5916747b9117",
      "blockNumber": "0xe1dc48",
      "gasUsed": "0x79dc",
      "effectiveGasPrice": "0x98234",
      "from": "0x8454d149beb26e3e3fc5ed1c87fb0b2a1b7b6c2c",
      "to": "0x1d52bc3415aae68806e3fd44d4cdb0b63e68068a",
      "contractAddress": null,
      "l1BaseFeeScalar": "0x44d",
      "l1BlobBaseFee": "0x5a2ec70b8",
      "l1BlobBaseFeeScalar": "0xa118b",
      "l1Fee": "0x17af7c60844",
      "l1GasPrice": "0x4003f9291",
      "l1GasUsed": "0x640"
    },
    {
      "status": "0x1",
      "cumulativeGasUsed": "0x742ddf",
      "logs": [],
      "logsBloom": "0x00000000000000000000000000000000000000000000000000000000000000000000000000000000000000000000000000000000000000000000000000000000000000000000000000000000000000000000000000000000000000000000000000000000000000000000000000000000000000000000000000000000000000000000000000000000000000000000000000000000000000000000000000000000000000000000000000000000000000000000000000000000000000000000000000000000000000000000000000000000000000000000000000000000000000000000000000000000000000000000000000000000000000000000000000000000",
      "type": "0x2",
      "transactionHash": "0xf630aff1b3ed643c84284b740fe6c2dedd260d46d784726e065f9c639556e7f0",
      "transactionIndex": "0x16",
      "blockHash": "0xad44ac41bc39e4d182bea87c23a040899e01866b0162331803dd5916747b9117",
      "blockNumber": "0xe1dc48",
      "gasUsed": "0x7999",
      "effectiveGasPrice": "0x98234",
      "from": "0x8454d149beb26e3e3fc5ed1c87fb0b2a1b7b6c2c",
      "to": "0x1d52bc3415aae68806e3fd44d4cdb0b63e68068a",
      "contractAddress": null,
      "l1BaseFeeScalar": "0x44d",
      "l1BlobBaseFee": "0x5a2ec70b8",
      "l1BlobBaseFeeScalar": "0xa118b",
      "l1Fee": "0x17af7c60844",
      "l1GasPrice": "0x4003f9291",
      "l1GasUsed": "0x640"
    }
  ],
  "libraries": [
    "src/utils/EigenlayerMsgDecoders.sol:AgentOwnerSignature:0x97ab347c4dc5F6faB0d7A64eDd81d815d245F268",
    "src/utils/FunctionSelectorDecoder.sol:FunctionSelectorDecoder:0xa1c4ff36787BdC46aaC547F282045a2050862502"
  ],
  "pending": [],
  "returns": {},
  "timestamp": 1725372347,
  "chain": 84532,
  "commit": "5c7cf7f"
}