{
  "transactions": [
    {
      "hash": "0xb58c79b65f09c402f10f022bd3cf8757a396b4d13fab7ecf10503cac5d0de305",
      "transactionType": "CREATE2",
      "contractName": "FunctionSelectorDecoder",
      "contractAddress": "0x03ead4d2fe96520289e6a473b7a07a6207f481b2",
      "function": null,
      "arguments": null,
      "transaction": {
        "from": "0x8454d149beb26e3e3fc5ed1c87fb0b2a1b7b6c2c",
        "to": "0x4e59b44847b379578588920ca78fbf26c0b4956c",
        "gas": "0x2f0eb",
        "input": "0x000000000000000000000000000000000000000000000000000000000000000061016961003a600b82828239805160001a60731461002d57634e487b7160e01b600052600060045260246000fd5b30600052607381538281f3fe73000000000000000000000000000000000000000030146080604052600436106100355760003560e01c8063c168a5881461003a575b600080fd5b61004f610048366004610082565b6060015190565b6040516001600160e01b0319909116815260200160405180910390f35b634e487b7160e01b600052604160045260246000fd5b60006020828403121561009457600080fd5b813567ffffffffffffffff808211156100ac57600080fd5b818401915084601f8301126100c057600080fd5b8135818111156100d2576100d261006c565b604051601f8201601f19908116603f011681019083821181831017156100fa576100fa61006c565b8160405282815287602084870101111561011357600080fd5b82602086016020830137600092810160200192909252509594505050505056fea2646970667358221220717bd0a7f1841d5b1d708519bc1e87d8d5b95d6e17c9781b3d0619587a7a87e264736f6c63430008160033",
        "nonce": "0x2ae",
        "chainId": "0x14a34"
      },
      "additionalContracts": [],
      "isFixedGasLimit": false
    },
    {
      "hash": "0x1ef6df17550a30671517b1dc99826fd88db16c39246ee3e0030fc45e82a6bd28",
      "transactionType": "CREATE",
      "contractName": "SenderCCIP",
      "contractAddress": "0x58b7feb890af77cf6185daa39065bf0bc067302e",
      "function": null,
      "arguments": [
        "0xD3b06cEbF099CE7DA4AcCf578aaebFDBd6e88a93",
        "0xE4aB69C077896252FAFBD49EFD26B5D171A32410"
      ],
      "transaction": {
        "from": "0x8454d149beb26e3e3fc5ed1c87fb0b2a1b7b6c2c",
        "gas": "0x244a5e",
        "value": "0x0",
        "input": "0x60a06040523480156200001157600080fd5b50604051620021053803806200210583398101604081905262000034916200017c565b8181816001600160a01b03811662000067576040516335fdcccd60e21b8152600060048201526024015b60405180910390fd5b6001600160a01b03908116608052606c80546001600160a01b031916929091169190911790555062000098620000a0565b5050620001b4565b600054610100900460ff16156200010a5760405162461bcd60e51b815260206004820152602760248201527f496e697469616c697a61626c653a20636f6e747261637420697320696e697469604482015266616c697a696e6760c81b60648201526084016200005e565b60005460ff90811610156200015d576000805460ff191660ff9081179091556040519081527f7f26b83ff96e1f2b6a682f133852f6798a09c465da95921460cefb38474024989060200160405180910390a15b565b80516001600160a01b03811681146200017757600080fd5b919050565b600080604083850312156200019057600080fd5b6200019b836200015f565b9150620001ab602084016200015f565b90509250929050565b608051611f2e620001d76000396000818161032401526109af0152611f2e6000f3fe6080604052600436106101185760003560e01c806385572ffb116100a0578063cf7f2b3411610064578063cf7f2b3414610348578063db04fa4914610368578063e09df82514610388578063eab5b02c146103a6578063f2fde38b146103c657600080fd5b806385572ffb146102835780638da5cb5b146102a357806396d3b83d146102d5578063ab2fdedd146102f5578063b0f479a11461031557600080fd5b806351cff8d9116100e757806351cff8d9146101d95780636159ada1146101f9578063715018a61461022957806375c67c661461023e5780638129fc1c1461026e57600080fd5b806301ffc9a7146101245780631b3565ab146101595780633aeac4e1146101875780634030d521146101a957600080fd5b3661011f57005b600080fd5b34801561013057600080fd5b5061014461013f36600461170b565b6103e6565b60405190151581526020015b60405180910390f35b34801561016557600080fd5b5061017961017436600461176b565b61041d565b604051908152602001610150565b34801561019357600080fd5b506101a76101a2366004611824565b610719565b005b3480156101b557600080fd5b506101446101c436600461185d565b606a6020526000908152604090205460ff1681565b3480156101e557600080fd5b506101a76101f4366004611878565b6107c8565b34801561020557600080fd5b50610144610214366004611878565b606b6020526000908152604090205460ff1681565b34801561023557600080fd5b506101a761087f565b34801561024a57600080fd5b5061014461025936600461185d565b60696020526000908152604090205460ff1681565b34801561027a57600080fd5b506101a7610893565b34801561028f57600080fd5b506101a761029e366004611895565b6109a4565b3480156102af57600080fd5b506033546001600160a01b03165b6040516001600160a01b039091168152602001610150565b3480156102e157600080fd5b506101a76102f03660046118dd565b610a00565b34801561030157600080fd5b506101a7610310366004611878565b610a33565b34801561032157600080fd5b507f00000000000000000000000000000000000000000000000000000000000000006102bd565b34801561035457600080fd5b50606d546102bd906001600160a01b031681565b34801561037457600080fd5b506101a76103833660046118dd565b610abd565b34801561039457600080fd5b50606d546001600160a01b03166102bd565b3480156103b257600080fd5b506101a76103c1366004611909565b610af0565b3480156103d257600080fd5b506101a76103e1366004611878565b610b23565b60006001600160e01b031982166385572ffb60e01b148061041757506001600160e01b031982166301ffc9a760e01b145b92915050565b6001600160401b038716600090815260696020526040812054889060ff166104685760405163206abad760e01b81526001600160401b03821660048201526024015b60405180910390fd5b876001600160a01b0381166104905760405163502ffa3f60e11b815260040160405180910390fd5b60006104a28a8a8a8a8a60008b610b99565b90506000306001600160a01b031663b0f479a16040518163ffffffff1660e01b8152600401602060405180830381865afa1580156104e4573d6000803e3d6000fd5b505050506040513d601f19601f820116820180604052508101906105089190611927565b90506000816001600160a01b03166320487ded8e856040518363ffffffff1660e01b815260040161053a929190611994565b602060405180830381865afa158015610557573d6000803e3d6000fd5b505050506040513d601f19601f8201168201806040525081019061057b9190611a70565b9050478111156105a757604051634787a10360e11b81524760048201526024810182905260440161045f565b60405163095ea7b360e01b81526001600160a01b038381166004830152602482018a90528a169063095ea7b3906044016020604051808303816000875af11580156105f6573d6000803e3d6000fd5b505050506040513d601f19601f8201168201806040525081019061061a9190611a89565b50816001600160a01b03166396f4e9f9828f866040518463ffffffff1660e01b815260040161064a929190611994565b60206040518083038185885af1158015610668573d6000803e3d6000fd5b50505050506040513d601f19601f8201168201806040525081019061068d9190611a70565b955060006040518060400160405280600f81526020016e191a5cdc185d18da19590818d85b1b608a1b81525090508d6001600160401b0316877f437cb3c5ba4364504dda6ba3c906ffb0897c7beeb1675f3aaf22a1b9a99b39948f848e8e60008960405161070096959493929190611aa6565b60405180910390a3505050505050979650505050505050565b610721610edc565b6040516370a0823160e01b81523060048201526000906001600160a01b038316906370a0823190602401602060405180830381865afa158015610768573d6000803e3d6000fd5b505050506040513d601f19601f8201168201806040525081019061078c9190611a70565b9050806000036107af57604051630686827b60e51b815260040160405180910390fd5b6107c36001600160a01b0383168483610f36565b505050565b6107d0610edc565b4760008190036107f357604051630686827b60e51b815260040160405180910390fd5b6000826001600160a01b03168260405160006040518083038185875af1925050503d8060008114610840576040519150601f19603f3d011682016040523d82523d6000602084013e610845565b606091505b50509050806107c357604051639d11f56360e01b81523360048201526001600160a01b03841660248201526044810183905260640161045f565b610887610edc565b6108916000610f88565b565b600054610100900460ff16158080156108b35750600054600160ff909116105b806108cd5750303b1580156108cd575060005460ff166001145b6109305760405162461bcd60e51b815260206004820152602e60248201527f496e697469616c697a61626c653a20636f6e747261637420697320616c72656160448201526d191e481a5b9a5d1a585b1a5e995960921b606482015260840161045f565b6000805460ff191660011790558015610953576000805461ff0019166101001790555b61095b610fda565b80156109a1576000805461ff0019169055604051600181527f7f26b83ff96e1f2b6a682f133852f6798a09c465da95921460cefb38474024989060200160405180910390a15b50565b336001600160a01b037f000000000000000000000000000000000000000000000000000000000000000016146109ef576040516335fdcccd60e21b815233600482015260240161045f565b6109a16109fb82611c97565b610fe2565b610a08610edc565b6001600160401b03919091166000908152606960205260409020805460ff1916911515919091179055565b610a3b610edc565b6001600160a01b038116610a9b5760405162461bcd60e51b815260206004820152602160248201527f5f73656e646572486f6f6b732063616e6e6f74206265206164647265737328306044820152602960f81b606482015260840161045f565b606d80546001600160a01b0319166001600160a01b0392909216919091179055565b610ac5610edc565b6001600160401b03919091166000908152606a60205260409020805460ff1916911515919091179055565b610af8610edc565b6001600160a01b03919091166000908152606b60205260409020805460ff1916911515919091179055565b610b2b610edc565b6001600160a01b038116610b905760405162461bcd60e51b815260206004820152602660248201527f4f776e61626c653a206e6577206f776e657220697320746865207a65726f206160448201526564647265737360d01b606482015260840161045f565b6109a181610f88565b610bd46040518060a0016040528060608152602001606081526020016060815260200160006001600160a01b03168152602001606081525090565b606060008511610c23576040805160008082526020820190925290610c1b565b6040805180820190915260008082526020820152815260200190600190039081610bf45790505b509050610c9e565b60408051600180825281830190925290816020015b6040805180820190915260008082526020820152815260200190600190039081610c385790505090506040518060400160405280876001600160a01b031681526020018681525081600081518110610c9257610c92611d43565b60200260200101819052505b60008888604051602001610cb3929190611d59565b60408051601f198184030181529082905263182d14b160e31b825291506000907303ead4d2fe96520289e6a473b7a07a6207f481b29063c168a58890610cfd908590600401611d88565b602060405180830381865af4158015610d1a573d6000803e3d6000fd5b505050506040513d601f19601f82011682018060405250810190610d3e9190611d9b565b606d54604051637418047760e11b81526001600160e01b0319831660048201529192506000916001600160a01b039091169063e83008ee906024016020604051808303816000875af1158015610d98573d6000803e3d6000fd5b505050506040513d601f19601f82011682018060405250810190610dbc9190611a70565b90508515610dc75750845b606d5460405163026a6d1160e41b81526001600160a01b03909116906326a6d11090610df99086908d90600401611db8565b600060405180830381600087803b158015610e1357600080fd5b505af1158015610e27573d6000803e3d6000fd5b50506040805160a081019091526001600160a01b038f1660c0820152915081905060e081016040516020818303038152906040528152602001848152602001858152602001886001600160a01b03168152602001610eca60405180602001604052808581525060408051915160248084019190915281518084039091018152604490920190526020810180516001600160e01b03166397a657c960e01b17905290565b90529c9b505050505050505050505050565b6033546001600160a01b031633146108915760405162461bcd60e51b815260206004820181905260248201527f4f776e61626c653a2063616c6c6572206973206e6f7420746865206f776e6572604482015260640161045f565b604080516001600160a01b038416602482015260448082018490528251808303909101815260649091019091526020810180516001600160e01b031663a9059cbb60e01b1790526107c39084906111ae565b603380546001600160a01b038381166001600160a01b0319831681179093556040519116919082907f8be0079c531659141344cd1fd0a4f28419497f9722a3daafe3b4186f6b6457e090600090a35050565b610891611280565b80602001518160400151806020019051810190610fff9190611927565b6001600160401b0382166000908152606a602052604090205460ff166110435760405163042784cf60e31b81526001600160401b038316600482015260240161045f565b6001600160a01b0381166000908152606b602052604090205460ff16611087576040516368692cbb60e11b81526001600160a01b038216600482015260240161045f565b608083015151156111095782608001516000815181106110a9576110a9611d43565b602002602001015160000151606660006101000a8154816001600160a01b0302191690836001600160a01b0316021790555082608001516000815181106110f2576110f2611d43565b60200260200101516020015160678190555061111f565b606680546001600160a01b031916905560006067555b600061112a846112af565b905083602001516001600160401b031684600001517f90ec910a8f80bb04e184a806e2ae6f8786ef2ae898859a3180f953397edc120186604001518060200190518101906111789190611927565b606680546001600160a01b0319169055600060678190556040516111a0929187918190611de2565b60405180910390a350505050565b6000611203826040518060400160405280602081526020017f5361666545524332303a206c6f772d6c6576656c2063616c6c206661696c6564815250856001600160a01b03166115359092919063ffffffff16565b8051909150156107c357808060200190518101906112219190611a89565b6107c35760405162461bcd60e51b815260206004820152602a60248201527f5361666545524332303a204552433230206f7065726174696f6e20646964206e6044820152691bdd081cdd58d8d9595960b21b606482015260840161045f565b600054610100900460ff166112a75760405162461bcd60e51b815260040161045f90611e16565b61089161154c565b60608181015160405163182d14b160e31b81526000907303ead4d2fe96520289e6a473b7a07a6207f481b29063c168a588906112ef908590600401611d88565b602060405180830381865af415801561130c573d6000803e3d6000fd5b505050506040513d601f19601f820116820180604052508101906113309190611d9b565b90506304eaf49760e31b6001600160e01b03198216016114ce57606d54604051631b150b6960e31b8152600091829182916001600160a01b03169063d8a85b489061137f908890600401611d88565b6060604051808303816000875af115801561139e573d6000803e3d6000fd5b505050506040513d601f19601f820116820180604052508101906113c29190611e61565b60405163a9059cbb60e01b81526001600160a01b03808516600483015260248201849052939650919450925060009183169063a9059cbb906044016020604051808303816000875af115801561141c573d6000803e3d6000fd5b505050506040513d601f19601f820116820180604052508101906114409190611a89565b9050806114aa5760405162461bcd60e51b815260206004820152603260248201527f53656e646572434349503a206661696c656420746f207472616e73666572207460448201527137b5b2b7103a379030b3b2b73a27bbb732b960711b606482015260840161045f565b604051806060016040528060388152602001611ec16038913996505050505061152e565b6040516001600160e01b03198216907ff5f32a3c89e78e479c1fa0cc28bfa53d46387fc6bdb93ca76fc24129a37f67b290600090a26040518060400160405280600f81526020016e756e6b6e6f776e206d65737361676560881b81525092505b5050919050565b6060611544848460008561157c565b949350505050565b600054610100900460ff166115735760405162461bcd60e51b815260040161045f90611e16565b61089133610f88565b6060824710156115dd5760405162461bcd60e51b815260206004820152602660248201527f416464726573733a20696e73756666696369656e742062616c616e636520666f6044820152651c8818d85b1b60d21b606482015260840161045f565b600080866001600160a01b031685876040516115f99190611ea4565b60006040518083038185875af1925050503d8060008114611636576040519150601f19603f3d011682016040523d82523d6000602084013e61163b565b606091505b509150915061164c87838387611657565b979650505050505050565b606083156116c65782516000036116bf576001600160a01b0385163b6116bf5760405162461bcd60e51b815260206004820152601d60248201527f416464726573733a2063616c6c20746f206e6f6e2d636f6e7472616374000000604482015260640161045f565b5081611544565b61154483838151156116db5781518083602001fd5b8060405162461bcd60e51b815260040161045f9190611d88565b6001600160e01b0319811681146109a157600080fd5b60006020828403121561171d57600080fd5b8135611728816116f5565b9392505050565b80356001600160401b038116811461174657600080fd5b919050565b6001600160a01b03811681146109a157600080fd5b80356117468161174b565b600080600080600080600060c0888a03121561178657600080fd5b61178f8861172f565b9650602088013561179f8161174b565b955060408801356001600160401b03808211156117bb57600080fd5b818a0191508a601f8301126117cf57600080fd5b8135818111156117de57600080fd5b8b60208285010111156117f057600080fd5b60208301975080965050505061180860608901611760565b92506080880135915060a0880135905092959891949750929550565b6000806040838503121561183757600080fd5b82356118428161174b565b915060208301356118528161174b565b809150509250929050565b60006020828403121561186f57600080fd5b6117288261172f565b60006020828403121561188a57600080fd5b81356117288161174b565b6000602082840312156118a757600080fd5b81356001600160401b038111156118bd57600080fd5b820160a0818503121561172857600080fd5b80151581146109a157600080fd5b600080604083850312156118f057600080fd5b6118f98361172f565b91506020830135611852816118cf565b6000806040838503121561191c57600080fd5b82356118f98161174b565b60006020828403121561193957600080fd5b81516117288161174b565b60005b8381101561195f578181015183820152602001611947565b50506000910152565b60008151808452611980816020860160208601611944565b601f01601f19169290920160200192915050565b600060406001600160401b03851683526020604081850152845160a060408601526119c260e0860182611968565b905081860151603f19808784030160608801526119df8383611968565b6040890151888203830160808a01528051808352908601945060009350908501905b80841015611a3357845180516001600160a01b0316835286015186830152938501936001939093019290860190611a01565b5060608901516001600160a01b031660a08901526080890151888203830160c08a01529550611a628187611968565b9a9950505050505050505050565b600060208284031215611a8257600080fd5b5051919050565b600060208284031215611a9b57600080fd5b8151611728816118cf565b600060018060a01b03808916835260c06020840152611ac860c0840189611968565b968116604084015260608301959095525091909216608082015260a0015292915050565b634e487b7160e01b600052604160045260246000fd5b604080519081016001600160401b0381118282101715611b2457611b24611aec565b60405290565b60405160a081016001600160401b0381118282101715611b2457611b24611aec565b604051601f8201601f191681016001600160401b0381118282101715611b7457611b74611aec565b604052919050565b600082601f830112611b8d57600080fd5b81356001600160401b03811115611ba657611ba6611aec565b611bb9601f8201601f1916602001611b4c565b818152846020838601011115611bce57600080fd5b816020850160208301376000918101602001919091529392505050565b600082601f830112611bfc57600080fd5b813560206001600160401b03821115611c1757611c17611aec565b611c25818360051b01611b4c565b82815260069290921b84018101918181019086841115611c4457600080fd5b8286015b84811015611c8c5760408189031215611c615760008081fd5b611c69611b02565b8135611c748161174b565b81528185013585820152835291830191604001611c48565b509695505050505050565b600060a08236031215611ca957600080fd5b611cb1611b2a565b82358152611cc16020840161172f565b602082015260408301356001600160401b0380821115611ce057600080fd5b611cec36838701611b7c565b60408401526060850135915080821115611d0557600080fd5b611d1136838701611b7c565b60608401526080850135915080821115611d2a57600080fd5b50611d3736828601611beb565b60808301525092915050565b634e487b7160e01b600052603260045260246000fd5b60208152816020820152818360408301376000818301604090810191909152601f909201601f19160101919050565b6020815260006117286020830184611968565b600060208284031215611dad57600080fd5b8151611728816116f5565b604081526000611dcb6040830185611968565b905060018060a01b03831660208301529392505050565b600060018060a01b03808716835260806020840152611e046080840187611968565b94166040830152506060015292915050565b6020808252602b908201527f496e697469616c697a61626c653a20636f6e7472616374206973206e6f74206960408201526a6e697469616c697a696e6760a81b606082015260800190565b600080600060608486031215611e7657600080fd5b8351611e818161174b565b602085015160408601519194509250611e998161174b565b809150509250925092565b60008251611eb6818460208701611944565b919091019291505056fe436f6d706c65746564207769746864726177616c20616e642073656e7420746f6b656e7320746f20456967656e4167656e74206f776e6572a26469706673582212203b74d5f1184f75a4722ae224c5596c1e326296141f7f2da174f8bea4604553fb64736f6c63430008160033000000000000000000000000d3b06cebf099ce7da4accf578aaebfdbd6e88a93000000000000000000000000e4ab69c077896252fafbd49efd26b5d171a32410",
        "nonce": "0x2af",
        "chainId": "0x14a34"
      },
      "additionalContracts": [],
      "isFixedGasLimit": false
    },
    {
      "hash": "0xecd0c0cd420a5c871a62f67122a5e2016b3db2e5be9d973fedee7439f7d383e0",
      "transactionType": "CALL",
      "contractName": "ProxyAdmin",
      "contractAddress": "0x673430d3601557fcdeadfbbe1bb513a3fc777984",
      "function": "upgrade(address,address)",
      "arguments": [
        "0x1D52bC3415AAe68806E3Fd44D4cdb0b63E68068A",
        "0x58b7FEb890af77cF6185DAa39065Bf0Bc067302E"
      ],
      "transaction": {
        "from": "0x8454d149beb26e3e3fc5ed1c87fb0b2a1b7b6c2c",
        "to": "0x673430d3601557fcdeadfbbe1bb513a3fc777984",
        "gas": "0xd175",
        "value": "0x0",
        "input": "0x99a88ec40000000000000000000000001d52bc3415aae68806e3fd44d4cdb0b63e68068a00000000000000000000000058b7feb890af77cf6185daa39065bf0bc067302e",
        "nonce": "0x2b0",
        "chainId": "0x14a34"
      },
      "additionalContracts": [],
      "isFixedGasLimit": false
    },
    {
      "hash": "0x368bdc851a2a755a3ec19c13b7fe98cbbe04f0f68bbc1d896af279252c473680",
      "transactionType": "CREATE",
      "contractName": "SenderHooks",
      "contractAddress": "0x9bfdc3d6a8fad84ce4ee0bb1add333b59ccdd282",
      "function": null,
      "arguments": null,
      "transaction": {
        "from": "0x8454d149beb26e3e3fc5ed1c87fb0b2a1b7b6c2c",
        "gas": "0x246402",
        "value": "0x0",
        "input": "0x608060405234801561001057600080fd5b5061001961001e565b6100de565b600054610100900460ff161561008a5760405162461bcd60e51b815260206004820152602760248201527f496e697469616c697a61626c653a20636f6e747261637420697320696e697469604482015266616c697a696e6760c81b606482015260840160405180910390fd5b60005460ff90811610156100dc576000805460ff191660ff9081179091556040519081527f7f26b83ff96e1f2b6a682f133852f6798a09c465da95921460cefb38474024989060200160405180910390a15b565b611fbd806100ed6000396000f3fe608060405234801561001057600080fd5b50600436106101375760003560e01c806394e05cbf116100b8578063d8a85b481161007c578063d8a85b481461035a578063d8d6c31a14610397578063e83008ee146103aa578063ede038c1146103bd578063f2392b47146103e0578063f2fde38b1461040557600080fd5b806394e05cbf14610237578063b32a8cb214610258578063bac52f851461027b578063c6b53314146102f2578063d1e2acf01461031857600080fd5b80633ef2d377116100ff5780633ef2d377146101f05780637048027514610203578063715018a6146102165780638129fc1c1461021e5780638da5cb5b1461022657600080fd5b80630f2b2ed71461013c5780631785f53c1461016757806324d7806c1461017c57806326a6d110146101b85780632e28761f146101cb575b600080fd5b61014f61014a36600461178c565b610418565b60405161015e93929190611819565b60405180910390f35b61017a61017536600461185e565b6104d5565b005b6101a861018a36600461185e565b6001600160a01b031660009081526065602052604090205460ff1690565b604051901515815260200161015e565b61017a6101c6366004611882565b6104fe565b6069546001600160a01b03165b6040516001600160a01b03909116815260200161015e565b61017a6101fe366004611978565b6105fc565b61017a61021136600461185e565b610740565b61017a61076c565b61017a610780565b6033546001600160a01b03166101d8565b61024a610245366004611a3a565b61093e565b60405190815260200161015e565b61026b61026636600461178c565b610984565b60405161015e9493929190611ad5565b6102bf610289366004611b9c565b60666020526000908152604090208054600182015460028301546003909301546001600160a01b03928316939192918216911684565b604080516001600160a01b039586168152602081019490945291841691830191909152909116606082015260800161015e565b61030561030036600461178c565b610b65565b60405161015e9796959493929190611c29565b61034b61032636600461178c565b6040805160208101909152600081525060640151604080516020810190915290815290565b6040519051815260200161015e565b61036d61036836600461178c565b610ba1565b604080516001600160a01b039485168152602081019390935292169181019190915260600161015e565b61017a6103a536600461185e565b610c92565b61024a6103b8366004611cc9565b610cbc565b6101a86103cb366004611b9c565b60676020526000908152604090205460ff1681565b6103f36103ee36600461178c565b610ced565b60405161015e96959493929190611ce6565b61017a61041336600461185e565b610db5565b6000806060732134b1f8c6d6b1e2cc9ead07c5735c53729463fa63e6cdf0ea8560646040518363ffffffff1660e01b8152600401610457929190611d34565b600060405180830381865af4158015610474573d6000803e3d6000fd5b505050506040513d6000823e601f3d908101601f1916820160405261049c9190810190611d56565b805192955090935091506041146104ce5760405162461bcd60e51b81526004016104c590611dec565b60405180910390fd5b9193909250565b6104dd610e2b565b6001600160a01b03166000908152606560205260409020805460ff19169055565b6069546001600160a01b031633146105585760405162461bcd60e51b815260206004820152601860248201527f6e6f742063616c6c65642062792053656e64657243434950000000000000000060448201526064016104c5565b60405163182d14b160e31b81526000907303ead4d2fe96520289e6a473b7a07a6207f481b29063c168a58890610592908690600401611e42565b602060405180830381865af41580156105af573d6000803e3d6000fd5b505050506040513d601f19601f820116820180604052508101906105d39190611e55565b9050639f28051360e01b6001600160e01b03198216016105f7576105f78383610e85565b505050565b610604610e2b565b80518251146106645760405162461bcd60e51b815260206004820152602660248201527f696e70757420617272617973206d7573742068617665207468652073616d65206044820152650d8cadccee8d60d31b60648201526084016104c5565b60005b81518110156105f75781818151811061068257610682611e72565b6020026020010151606860008584815181106106a0576106a0611e72565b60200260200101516001600160e01b0319166001600160e01b0319168152602001908152602001600020819055508181815181106106e0576106e0611e72565b60200260200101518382815181106106fa576106fa611e72565b60200260200101516001600160e01b0319167fed4c89b805f4efb58bc4a42b9a3c6f09783f619295a1fa41ab46d6190c8c7f3b60405160405180910390a3600101610667565b610748610e2b565b6001600160a01b03166000908152606560205260409020805460ff19166001179055565b610774610e2b565b61077e60006110c6565b565b600054610100900460ff16158080156107a05750600054600160ff909116105b806107ba5750303b1580156107ba575060005460ff166001145b6107d65760405162461bcd60e51b81526004016104c590611e88565b6000805460ff1916600117905580156107f9576000805461ff0019166101001790555b6068602052622191c07f0b5ad0d5ce1e91a175bc6dcf9ff68e4f11c3776d1b7eaa1ef6ba2cb867138dc15562186a007f28a4a37c297eed92423fedff570755a8fd3a8dca967573f6fa02e39b583ff64755620c35007f5c5bd8d53f871cce127a914ba5505a5ff070fa3e26b8594e3cbb6dba2fb2604d55620cd1407f68bfe3030d2bf8070f2e141baec130cd688fb27947fb9f4fc242f307295943c855620927c07f381c5d456e583085841682a6142f5063572672a9702215f7b19d54db09214e9c556336a2fa1960e21b60005262061a807f19944d14319a6054b386814a79f83200e21ba78d3307cd97f05baeda40a07abd556108f5611118565b801561093b576000805461ff0019169055604051600181527f7f26b83ff96e1f2b6a682f133852f6798a09c465da95921460cefb38474024989060200160405180910390a15b50565b600082826040516020016109659291909182526001600160a01b0316602082015260400190565b6040516020818303038152906040528051906020012090505b92915050565b606060008060606000608486015190506001811015610a0b5760405162461bcd60e51b815260206004820152603960248201527f6465636f646551756575655769746864726177616c734d73673a20617272617960448201527f4c656e677468206d757374206265206174206c6561737420310000000000000060648201526084016104c5565b8067ffffffffffffffff811115610a2457610a246116c7565b604051908082528060200260200182016040528015610a5d57816020015b610a4a61163f565b815260200190600190039081610a425790505b50945060005b81811015610aa757610a7361163f565b610a7e888484611199565b905080878381518110610a9357610a93611e72565b602090810291909101015250600101610a63565b506000610ab5600183611eec565b610ac0906008611eff565b610acb906020611eff565b9050732134b1f8c6d6b1e2cc9ead07c5735c53729463fa63e6cdf0ea88610af4846101a4611f16565b6040518363ffffffff1660e01b8152600401610b11929190611d34565b600060405180830381865af4158015610b2e573d6000803e3d6000fd5b505050506040513d6000823e601f3d908101601f19168201604052610b569190810190611d56565b97999198509695509350505050565b610b6d611669565b60606000806000806060610b808861131d565b9650610b8b886114ab565b9b9d949c50929a91995097509095509350915050565b600080600080610bd0856040805160208101909152600081525060640151604080516020810190915290815290565b80516000818152606660209081526040808320815160808101835281546001600160a01b039081168252600180840154838701908152600285015483168487019081526003909501548316606085019081528989526067909752858820805460ff19169092179091559251925194519351979850959690959182169492909116917f1ff450d29c3fea88215329ce61771e7026cd701e49b49e978f2a5edbd0777ca791a460608101516020820151604090920151909891975095509350505050565b610c9a610e2b565b606980546001600160a01b0319166001600160a01b0392909216919091179055565b6001600160e01b031981166000908152606860205260408120548015610ce25792915050565b5062061a8092915050565b6064810151608482015160a4830151604051637366f87560e11b81526000908190606090732134b1f8c6d6b1e2cc9ead07c5735c53729463fa9063e6cdf0ea90610d3e908a9060c490600401611d34565b600060405180830381865af4158015610d5b573d6000803e3d6000fd5b505050506040513d6000823e601f3d908101601f19168201604052610d839190810190611d56565b80519295509093509150604114610dac5760405162461bcd60e51b81526004016104c590611dec565b91939550919395565b610dbd610e2b565b6001600160a01b038116610e225760405162461bcd60e51b815260206004820152602660248201527f4f776e61626c653a206e6577206f776e657220697320746865207a65726f206160448201526564647265737360d01b60648201526084016104c5565b61093b816110c6565b6033546001600160a01b0316331461077e5760405162461bcd60e51b815260206004820181905260248201527f4f776e61626c653a2063616c6c6572206973206e6f7420746865206f776e657260448201526064016104c5565b6001600160a01b038116610ee75760405162461bcd60e51b815260206004820152602360248201527f63616e6e6f7420636f6d6d697420746f6b656e4c32206173206164647265737360448201526228302960e81b60648201526084016104c5565b6000806000610ef585610b65565b5050945094505050925081156110bf576000610f19610f13856115b5565b8361093e565b60008181526067602052604090205490915060ff1615610f925760405162461bcd60e51b815260206004820152602e60248201527f7769746864726177616c4167656e744f776e6572526f6f742068617320616c7260448201526d1958591e481899595b881d5cd95960921b60648201526084016104c5565b604051806080016040528085604001516001600160a01b031681526020018560c00151600081518110610fc757610fc7611e72565b60209081029190910181015182526001600160a01b0380891683830152858116604093840152600085815260668352838120855181549084166001600160a01b0319918216178255938601516001820155858501516002820180549185169186169190911790556060909501516003909501805495831695909316949094179091559086015160c08701518051919092169284927f41a32be977303ebb5eaa6a0e64753b1133880020de124e82d6e71c4d092cc8419290919061108c5761108c611e72565b6020026020010151856040516110b59291909182526001600160a01b0316602082015260400190565b60405180910390a3505b5050505050565b603380546001600160a01b038381166001600160a01b0319831681179093556040519116919082907f8be0079c531659141344cd1fd0a4f28419497f9722a3daafe3b4186f6b6457e090600090a35050565b600054610100900460ff16158080156111385750600054600160ff909116105b806111525750303b158015611152575060005460ff166001145b61116e5760405162461bcd60e51b81526004016104c590611e88565b6000805460ff191660011790558015611191576000805461ff0019166101001790555b6108f56115e5565b6111a161163f565b6000808080806111b2876007611eff565b6111bd60018a611eec565b6111c79190611f16565b905060006111d6826020611eff565b6111e290610104611f16565b905060006111f1836020611eff565b6111fd90610144611f16565b9050600061120c846020611eff565b61121890610184611f16565b60608d0151848e0151848f01518f840151929b5090995097509550905060006001604051908082528060200260200182016040528015611262578160200160208202803683370190505b506040805160018082528183019092529192506000919060208083019080368337019050509050878260008151811061129d5761129d611e72565b60200260200101906001600160a01b031690816001600160a01b03168152505086816000815181106112d1576112d1611e72565b6020026020010181815250506112e561163f565b506040805160608101825292835260208301919091526001600160a01b039098169781019790975250949a9950505050505050505050565b611325611669565b60e48201516101048301516101248401516101448501516101648601516101c48701516101e48801516102048901516102248a015190919060008467ffffffffffffffff811115611378576113786116c7565b6040519080825280602002602001820160405280156113a1578160200160208202803683370190505b50905060008467ffffffffffffffff8111156113bf576113bf6116c7565b6040519080825280602002602001820160405280156113e8578160200160208202803683370190505b50905083826000815181106113ff576113ff611e72565b60200260200101906001600160a01b031690816001600160a01b031681525050828160008151811061143357611433611e72565b60200260200101818152505060006040518060e001604052808d6001600160a01b031681526020018c6001600160a01b031681526020018b6001600160a01b031681526020018a81526020018963ffffffff168152602001848152602001838152509050809c50505050505050505050505050919050565b60a481015160c4820151610244830151610264840151604051637366f87560e11b81526060949392600092839287929190732134b1f8c6d6b1e2cc9ead07c5735c53729463fa9063e6cdf0ea9061150a908c9061028490600401611d34565b600060405180830381865af4158015611527573d6000803e3d6000fd5b505050506040513d6000823e601f3d908101601f1916820160405261154f9190810190611d56565b604080516001808252818301909252939850919650945060208083019080368337019050509750808860008151811061158a5761158a611e72565b60200260200101906001600160a01b031690816001600160a01b031681525050505091939550919395565b6000816040516020016115c89190611f29565b604051602081830303815290604052805190602001209050919050565b600054610100900460ff1661160c5760405162461bcd60e51b81526004016104c590611f3c565b61077e600054610100900460ff166116365760405162461bcd60e51b81526004016104c590611f3c565b61077e336110c6565b6040518060600160405280606081526020016060815260200160006001600160a01b031681525090565b6040518060e0016040528060006001600160a01b0316815260200160006001600160a01b0316815260200160006001600160a01b0316815260200160008152602001600063ffffffff16815260200160608152602001606081525090565b634e487b7160e01b600052604160045260246000fd5b604051601f8201601f1916810167ffffffffffffffff81118282101715611706576117066116c7565b604052919050565b600067ffffffffffffffff821115611728576117286116c7565b50601f01601f191660200190565b600082601f83011261174757600080fd5b813561175a6117558261170e565b6116dd565b81815284602083860101111561176f57600080fd5b816020850160208301376000918101602001919091529392505050565b60006020828403121561179e57600080fd5b813567ffffffffffffffff8111156117b557600080fd5b6117c184828501611736565b949350505050565b60005b838110156117e45781810151838201526020016117cc565b50506000910152565b600081518084526118058160208601602086016117c9565b601f01601f19169290920160200192915050565b60018060a01b038416815282602082015260606040820152600061184060608301846117ed565b95945050505050565b6001600160a01b038116811461093b57600080fd5b60006020828403121561187057600080fd5b813561187b81611849565b9392505050565b6000806040838503121561189557600080fd5b823567ffffffffffffffff8111156118ac57600080fd5b6118b885828601611736565b92505060208301356118c981611849565b809150509250929050565b600067ffffffffffffffff8211156118ee576118ee6116c7565b5060051b60200190565b6001600160e01b03198116811461093b57600080fd5b600082601f83011261191f57600080fd5b8135602061192f611755836118d4565b8083825260208201915060208460051b87010193508684111561195157600080fd5b602086015b8481101561196d5780358352918301918301611956565b509695505050505050565b6000806040838503121561198b57600080fd5b823567ffffffffffffffff808211156119a357600080fd5b818501915085601f8301126119b757600080fd5b813560206119c7611755836118d4565b82815260059290921b840181019181810190898411156119e657600080fd5b948201945b83861015611a0d5785356119fe816118f8565b825294820194908201906119eb565b96505086013592505080821115611a2357600080fd5b50611a308582860161190e565b9150509250929050565b60008060408385031215611a4d57600080fd5b8235915060208301356118c981611849565b60008151808452602080850194506020840160005b83811015611a995781516001600160a01b031687529582019590820190600101611a74565b509495945050505050565b60008151808452602080850194506020840160005b83811015611a9957815187529582019590820190600101611ab9565b6000608082016080835280875180835260a08501915060a08160051b86010192506020808a0160005b83811015611b6657609f19888703018552815160608151818952611b24828a0182611a5f565b91505084820151888203868a0152611b3c8282611aa4565b6040938401516001600160a01b031699909301989098525095509382019390820190600101611afe565b50506001600160a01b038916868201525050508460408401528281036060840152611b9181856117ed565b979650505050505050565b600060208284031215611bae57600080fd5b5035919050565b600060018060a01b03808351168452806020840151166020850152806040840151166040850152506060820151606084015263ffffffff608083015116608084015260a082015160e060a0850152611c1060e0850182611a5f565b905060c083015184820360c08601526118408282611aa4565b60e081526000611c3c60e083018a611bb5565b82810360208481019190915289518083528a82019282019060005b81811015611c7c5784516001600160a01b031683529383019391830191600101611c57565b5050896040860152611c92606086018a15159052565b6001600160a01b03881660808601528660a086015284810360c0860152611cb981876117ed565b9c9b505050505050505050505050565b600060208284031215611cdb57600080fd5b813561187b816118f8565b6001600160a01b038781168252868116602083015260408201869052841660608201526080810183905260c060a08201819052600090611d28908301846117ed565b98975050505050505050565b604081526000611d4760408301856117ed565b90508260208301529392505050565b600080600060608486031215611d6b57600080fd5b8351611d7681611849565b60208501516040860151919450925067ffffffffffffffff811115611d9a57600080fd5b8401601f81018613611dab57600080fd5b8051611db96117558261170e565b818152876020838501011115611dce57600080fd5b611ddf8260208301602086016117c9565b8093505050509250925092565b60208082526036908201527f6465636f64654465706f736974496e746f53747261746567794d73673a20696e6040820152750ecc2d8d2c840e6d2cedcc2e8eae4ca40d8cadccee8d60531b606082015260800190565b60208152600061187b60208301846117ed565b600060208284031215611e6757600080fd5b815161187b816118f8565b634e487b7160e01b600052603260045260246000fd5b6020808252602e908201527f496e697469616c697a61626c653a20636f6e747261637420697320616c72656160408201526d191e481a5b9a5d1a585b1a5e995960921b606082015260800190565b634e487b7160e01b600052601160045260246000fd5b8181038181111561097e5761097e611ed6565b808202811582820484141761097e5761097e611ed6565b8082018082111561097e5761097e611ed6565b60208152600061187b6020830184611bb5565b6020808252602b908201527f496e697469616c697a61626c653a20636f6e7472616374206973206e6f74206960408201526a6e697469616c697a696e6760a81b60608201526080019056fea2646970667358221220103ddbc71e918d5616bc3ea0d61d1dec64bab807e08cfa596a549cae6069fa1d64736f6c63430008160033",
        "nonce": "0x2b1",
        "chainId": "0x14a34"
      },
      "additionalContracts": [],
      "isFixedGasLimit": false
    },
    {
      "hash": "0x7a303ddb7b511fffd52edbc9a29b93d2d03ed468ec3f63c8275879316f90a413",
      "transactionType": "CALL",
      "contractName": "ProxyAdmin",
      "contractAddress": "0x673430d3601557fcdeadfbbe1bb513a3fc777984",
      "function": "upgrade(address,address)",
      "arguments": [
        "0x205e359BDEF6E0fF3E1d820668bBf7ce68D14d08",
        "0x9BFdc3d6a8fad84Ce4EE0bB1AdD333b59ccDd282"
      ],
      "transaction": {
        "from": "0x8454d149beb26e3e3fc5ed1c87fb0b2a1b7b6c2c",
        "to": "0x673430d3601557fcdeadfbbe1bb513a3fc777984",
        "gas": "0xd175",
        "value": "0x0",
        "input": "0x99a88ec4000000000000000000000000205e359bdef6e0ff3e1d820668bbf7ce68d14d080000000000000000000000009bfdc3d6a8fad84ce4ee0bb1add333b59ccdd282",
        "nonce": "0x2b2",
        "chainId": "0x14a34"
      },
      "additionalContracts": [],
      "isFixedGasLimit": false
    },
    {
      "hash": "0xedefe5e7364e12358f7912fa03e4c508563bba59a95e639aec3034dda41ddf0f",
      "transactionType": "CALL",
      "contractName": "TransparentUpgradeableProxy",
      "contractAddress": "0x1d52bc3415aae68806e3fd44d4cdb0b63e68068a",
      "function": null,
      "arguments": null,
      "transaction": {
        "from": "0x8454d149beb26e3e3fc5ed1c87fb0b2a1b7b6c2c",
        "to": "0x1d52bc3415aae68806e3fd44d4cdb0b63e68068a",
        "gas": "0xb5b8",
        "value": "0x0",
        "input": "0x96d3b83d000000000000000000000000000000000000000000000000de41ba4fc9d91ad90000000000000000000000000000000000000000000000000000000000000001",
        "nonce": "0x2b3",
        "chainId": "0x14a34"
      },
      "additionalContracts": [],
      "isFixedGasLimit": false
    },
    {
      "hash": "0x918ee4d4c8f2103e15b369b2ea9367c5b74db9ce4bfcb2bada6f1b0cd55b224f",
      "transactionType": "CALL",
      "contractName": "TransparentUpgradeableProxy",
      "contractAddress": "0x1d52bc3415aae68806e3fd44d4cdb0b63e68068a",
      "function": null,
      "arguments": null,
      "transaction": {
        "from": "0x8454d149beb26e3e3fc5ed1c87fb0b2a1b7b6c2c",
        "to": "0x1d52bc3415aae68806e3fd44d4cdb0b63e68068a",
        "gas": "0xc047",
        "value": "0x0",
        "input": "0xdb04fa49000000000000000000000000000000000000000000000000de41ba4fc9d91ad90000000000000000000000000000000000000000000000000000000000000001",
        "nonce": "0x2b4",
        "chainId": "0x14a34"
      },
      "additionalContracts": [],
      "isFixedGasLimit": false
    },
    {
      "hash": "0x047ee89f98f63ea86d6bd1f08fcf125b7a71ac9572a2448404948fa7052bd879",
      "transactionType": "CALL",
      "contractName": "TransparentUpgradeableProxy",
      "contractAddress": "0x1d52bc3415aae68806e3fd44d4cdb0b63e68068a",
      "function": null,
      "arguments": null,
      "transaction": {
        "from": "0x8454d149beb26e3e3fc5ed1c87fb0b2a1b7b6c2c",
        "to": "0x1d52bc3415aae68806e3fd44d4cdb0b63e68068a",
        "gas": "0xb692",
        "value": "0x0",
        "input": "0xeab5b02c0000000000000000000000008645c75d0c75b859146aebb74076b319c9331c4e0000000000000000000000000000000000000000000000000000000000000001",
        "nonce": "0x2b5",
        "chainId": "0x14a34"
      },
      "additionalContracts": [],
      "isFixedGasLimit": false
    },
    {
      "hash": "0xb50e3c36eec71c48f5e367272dd6791ec551f2fe28b389521c5a514ccab13948",
      "transactionType": "CALL",
      "contractName": "TransparentUpgradeableProxy",
      "contractAddress": "0x1d52bc3415aae68806e3fd44d4cdb0b63e68068a",
      "function": null,
      "arguments": null,
      "transaction": {
        "from": "0x8454d149beb26e3e3fc5ed1c87fb0b2a1b7b6c2c",
        "to": "0x1d52bc3415aae68806e3fd44d4cdb0b63e68068a",
        "gas": "0xb52d",
        "value": "0x0",
        "input": "0xab2fdedd000000000000000000000000205e359bdef6e0ff3e1d820668bbf7ce68d14d08",
        "nonce": "0x2b6",
        "chainId": "0x14a34"
      },
      "additionalContracts": [],
      "isFixedGasLimit": false
    },
    {
      "hash": "0x598b4fccdd8b7f3ad73e156090294917afabf2429e25e6bf79b97f3680644649",
      "transactionType": "CALL",
      "contractName": "TransparentUpgradeableProxy",
      "contractAddress": "0x205e359bdef6e0ff3e1d820668bbf7ce68d14d08",
      "function": null,
      "arguments": null,
      "transaction": {
        "from": "0x8454d149beb26e3e3fc5ed1c87fb0b2a1b7b6c2c",
        "to": "0x205e359bdef6e0ff3e1d820668bbf7ce68d14d08",
        "gas": "0xb4be",
        "value": "0x0",
        "input": "0xd8d6c31a0000000000000000000000001d52bc3415aae68806e3fd44d4cdb0b63e68068a",
        "nonce": "0x2b7",
        "chainId": "0x14a34"
      },
      "additionalContracts": [],
      "isFixedGasLimit": false
    },
    {
      "hash": "0xad6dc8ad18cc98c8a6b0ce88e7295608a0295f231f7d6db2ef971d4acc7a663d",
      "transactionType": "CALL",
      "contractName": "TransparentUpgradeableProxy",
      "contractAddress": "0x1d52bc3415aae68806e3fd44d4cdb0b63e68068a",
      "function": null,
      "arguments": null,
      "transaction": {
        "from": "0x8454d149beb26e3e3fc5ed1c87fb0b2a1b7b6c2c",
        "to": "0x1d52bc3415aae68806e3fd44d4cdb0b63e68068a",
        "gas": "0xa5f1",
        "value": "0x0",
        "input": "0xe09df825",
        "nonce": "0x2b8",
        "chainId": "0x14a34"
      },
      "additionalContracts": [],
      "isFixedGasLimit": false
    },
    {
      "hash": "0x7443f519c377d80f85aecc38c2e7f3de60b36aaec4e2f910a52b5b2bcce7225d",
      "transactionType": "CALL",
      "contractName": "TransparentUpgradeableProxy",
      "contractAddress": "0x1d52bc3415aae68806e3fd44d4cdb0b63e68068a",
      "function": null,
      "arguments": null,
      "transaction": {
        "from": "0x8454d149beb26e3e3fc5ed1c87fb0b2a1b7b6c2c",
        "to": "0x1d52bc3415aae68806e3fd44d4cdb0b63e68068a",
        "gas": "0xb2c0",
        "value": "0x0",
        "input": "0x6159ada10000000000000000000000008645c75d0c75b859146aebb74076b319c9331c4e",
        "nonce": "0x2b9",
        "chainId": "0x14a34"
      },
      "additionalContracts": [],
      "isFixedGasLimit": false
    },
    {
      "hash": "0xadb0a1f188c8507e8f4abb730ce119857736a3604643bb33d138ec034a4b9f07",
      "transactionType": "CALL",
      "contractName": "TransparentUpgradeableProxy",
      "contractAddress": "0x1d52bc3415aae68806e3fd44d4cdb0b63e68068a",
      "function": null,
      "arguments": null,
      "transaction": {
        "from": "0x8454d149beb26e3e3fc5ed1c87fb0b2a1b7b6c2c",
        "to": "0x1d52bc3415aae68806e3fd44d4cdb0b63e68068a",
        "gas": "0xa850",
        "value": "0x0",
        "input": "0x4030d521000000000000000000000000000000000000000000000000de41ba4fc9d91ad9",
        "nonce": "0x2ba",
        "chainId": "0x14a34"
      },
      "additionalContracts": [],
      "isFixedGasLimit": false
    },
    {
      "hash": "0xa395f6406f9dcf231cdea7c990d1e092e07dedd9a1b3d0dafd4596b0f08d3940",
      "transactionType": "CALL",
      "contractName": "TransparentUpgradeableProxy",
      "contractAddress": "0x1d52bc3415aae68806e3fd44d4cdb0b63e68068a",
      "function": null,
      "arguments": null,
      "transaction": {
        "from": "0x8454d149beb26e3e3fc5ed1c87fb0b2a1b7b6c2c",
        "to": "0x1d52bc3415aae68806e3fd44d4cdb0b63e68068a",
        "gas": "0xb236",
        "value": "0x0",
        "input": "0x75c67c66000000000000000000000000000000000000000000000000de41ba4fc9d91ad9",
        "nonce": "0x2bb",
        "chainId": "0x14a34"
      },
      "additionalContracts": [],
      "isFixedGasLimit": false
    }
  ],
  "receipts": [
    {
      "status": "0x1",
      "cumulativeGasUsed": "0x173195",
      "logs": [],
      "logsBloom": "0x00000000000000000000000000000000000000000000000000000000000000000000000000000000000000000000000000000000000000000000000000000000000000000000000000000000000000000000000000000000000000000000000000000000000000000000000000000000000000000000000000000000000000000000000000000000000000000000000000000000000000000000000000000000000000000000000000000000000000000000000000000000000000000000000000000000000000000000000000000000000000000000000000000000000000000000000000000000000000000000000000000000000000000000000000000000",
      "type": "0x2",
      "transactionHash": "0xb58c79b65f09c402f10f022bd3cf8757a396b4d13fab7ecf10503cac5d0de305",
      "transactionIndex": "0xc",
      "blockHash": "0x36bf12a1867ab9f3fa1d9dd052f79093db1b012cc80186a0f8841cc605ba3714",
      "blockNumber": "0xe2813b",
      "gasUsed": "0x202ed",
      "effectiveGasPrice": "0x187b1",
      "from": "0x8454d149beb26e3e3fc5ed1c87fb0b2a1b7b6c2c",
      "to": "0x4e59b44847b379578588920ca78fbf26c0b4956c",
      "contractAddress": "0x03ead4d2fe96520289e6a473b7a07a6207f481b2",
      "l1BaseFeeScalar": "0x44d",
      "l1BlobBaseFee": "0x169bc9f5e86",
      "l1BlobBaseFeeScalar": "0xa118b",
      "l1Fee": "0x158681f608843",
      "l1GasPrice": "0xef4f833de",
      "l1GasUsed": "0x170f"
    },
    {
      "status": "0x1",
      "cumulativeGasUsed": "0x331e1b",
      "logs": [
        {
          "address": "0x58b7feb890af77cf6185daa39065bf0bc067302e",
          "topics": [
            "0x7f26b83ff96e1f2b6a682f133852f6798a09c465da95921460cefb3847402498"
          ],
          "data": "0x00000000000000000000000000000000000000000000000000000000000000ff",
          "blockHash": "0x36bf12a1867ab9f3fa1d9dd052f79093db1b012cc80186a0f8841cc605ba3714",
          "blockNumber": "0xe2813b",
          "transactionHash": "0x1ef6df17550a30671517b1dc99826fd88db16c39246ee3e0030fc45e82a6bd28",
          "transactionIndex": "0xd",
          "logIndex": "0x18",
          "removed": false
        }
      ],
      "logsBloom": "0x000000000000000000000000000000000000000000800000000000000000000000000000000000000000000000000000000000000000000000000000000000000000000000000000000000000000000000000000000000000000000000000000000000000000000000000000000000000000000000000000000000000000000000000000000000000000000000000000000000000000c00000000000000000000000000000000000000000000004000000000000000000000000000000000000000000000000000000000000000c0000000000000000000000000000000000000000000000000000000000000000000000000000000000000000000000000000",
      "type": "0x2",
      "transactionHash": "0x1ef6df17550a30671517b1dc99826fd88db16c39246ee3e0030fc45e82a6bd28",
      "transactionIndex": "0xd",
      "blockHash": "0x36bf12a1867ab9f3fa1d9dd052f79093db1b012cc80186a0f8841cc605ba3714",
      "blockNumber": "0xe2813b",
      "gasUsed": "0x1bec86",
      "effectiveGasPrice": "0x187b1",
      "from": "0x8454d149beb26e3e3fc5ed1c87fb0b2a1b7b6c2c",
      "to": null,
      "contractAddress": "0x58b7feb890af77cf6185daa39065bf0bc067302e",
      "l1BaseFeeScalar": "0x44d",
      "l1BlobBaseFee": "0x169bc9f5e86",
      "l1BlobBaseFeeScalar": "0xa118b",
      "l1Fee": "0x11155eec2ec545",
      "l1GasPrice": "0xef4f833de",
      "l1GasUsed": "0x124d4"
    },
    {
      "status": "0x1",
      "cumulativeGasUsed": "0x33b5c0",
      "logs": [
        {
          "address": "0x1d52bc3415aae68806e3fd44d4cdb0b63e68068a",
          "topics": [
            "0xbc7cd75a20ee27fd9adebab32041f755214dbc6bffa90cc0225b39da2e5c2d3b",
            "0x00000000000000000000000058b7feb890af77cf6185daa39065bf0bc067302e"
          ],
          "data": "0x",
          "blockHash": "0x36bf12a1867ab9f3fa1d9dd052f79093db1b012cc80186a0f8841cc605ba3714",
          "blockNumber": "0xe2813b",
          "transactionHash": "0xecd0c0cd420a5c871a62f67122a5e2016b3db2e5be9d973fedee7439f7d383e0",
          "transactionIndex": "0xe",
          "logIndex": "0x19",
          "removed": false
        }
      ],
      "logsBloom": "0x00000000000000000000000000000000400000000000000000000000000000000000000000000000000000000000000000000000000000000040400000000000000000000000000000000100000002000000000000000000000000008000000000000000000000000000000000000000000000000000000000000000000000000000000000000000000000000000000000000000000000000000000000000000000000000000000000000000000000000000000000000000000000000000000000000020004000000000000000000000000000000000080000000000000000000000000000000000000000000000000000000000000000000000000000000000",
      "type": "0x2",
      "transactionHash": "0xecd0c0cd420a5c871a62f67122a5e2016b3db2e5be9d973fedee7439f7d383e0",
      "transactionIndex": "0xe",
      "blockHash": "0x36bf12a1867ab9f3fa1d9dd052f79093db1b012cc80186a0f8841cc605ba3714",
      "blockNumber": "0xe2813b",
      "gasUsed": "0x97a5",
      "effectiveGasPrice": "0x187b1",
      "from": "0x8454d149beb26e3e3fc5ed1c87fb0b2a1b7b6c2c",
      "to": "0x673430d3601557fcdeadfbbe1bb513a3fc777984",
      "contractAddress": null,
      "l1BaseFeeScalar": "0x44d",
      "l1BlobBaseFee": "0x169bc9f5e86",
      "l1BlobBaseFeeScalar": "0xa118b",
      "l1Fee": "0x5dc48706e6ff",
      "l1GasPrice": "0xef4f833de",
      "l1GasUsed": "0x647"
    },
    {
      "status": "0x1",
      "cumulativeGasUsed": "0x4fb5f5",
      "logs": [
        {
          "address": "0x9bfdc3d6a8fad84ce4ee0bb1add333b59ccdd282",
          "topics": [
            "0x7f26b83ff96e1f2b6a682f133852f6798a09c465da95921460cefb3847402498"
          ],
          "data": "0x00000000000000000000000000000000000000000000000000000000000000ff",
          "blockHash": "0x36bf12a1867ab9f3fa1d9dd052f79093db1b012cc80186a0f8841cc605ba3714",
          "blockNumber": "0xe2813b",
          "transactionHash": "0x368bdc851a2a755a3ec19c13b7fe98cbbe04f0f68bbc1d896af279252c473680",
          "transactionIndex": "0xf",
          "logIndex": "0x1a",
          "removed": false
        }
      ],
      "logsBloom": "0x00000000000000000000000000000000000000000000000000000000000000000000000000000000000000000000000000800000000000000000000000000000000000000000000000000000000000000000000000000000000004000000000000000000000000000020000000000000000000000000000000000000000000000000000000000000000000000000000000000000000080000000000000000000000000000000000000000000000400000000000000000000000000000000000000000000000000000000000000040000000000000000000000000000000000000000000000000000000000000000000000000000000000000000000000000000",
      "type": "0x2",
      "transactionHash": "0x368bdc851a2a755a3ec19c13b7fe98cbbe04f0f68bbc1d896af279252c473680",
      "transactionIndex": "0xf",
      "blockHash": "0x36bf12a1867ab9f3fa1d9dd052f79093db1b012cc80186a0f8841cc605ba3714",
      "blockNumber": "0xe2813b",
      "gasUsed": "0x1c0035",
      "effectiveGasPrice": "0x187b1",
      "from": "0x8454d149beb26e3e3fc5ed1c87fb0b2a1b7b6c2c",
      "to": null,
      "contractAddress": "0x9bfdc3d6a8fad84ce4ee0bb1add333b59ccdd282",
      "l1BaseFeeScalar": "0x44d",
      "l1BlobBaseFee": "0x169bc9f5e86",
      "l1BlobBaseFeeScalar": "0xa118b",
      "l1Fee": "0x114fee6ab1c4ab",
      "l1GasPrice": "0xef4f833de",
      "l1GasUsed": "0x128c0"
    },
    {
      "status": "0x1",
      "cumulativeGasUsed": "0x504d9a",
      "logs": [
        {
          "address": "0x205e359bdef6e0ff3e1d820668bbf7ce68d14d08",
          "topics": [
            "0xbc7cd75a20ee27fd9adebab32041f755214dbc6bffa90cc0225b39da2e5c2d3b",
            "0x0000000000000000000000009bfdc3d6a8fad84ce4ee0bb1add333b59ccdd282"
          ],
          "data": "0x",
          "blockHash": "0x36bf12a1867ab9f3fa1d9dd052f79093db1b012cc80186a0f8841cc605ba3714",
          "blockNumber": "0xe2813b",
          "transactionHash": "0x7a303ddb7b511fffd52edbc9a29b93d2d03ed468ec3f63c8275879316f90a413",
          "transactionIndex": "0x10",
          "logIndex": "0x1b",
          "removed": false
        }
      ],
      "logsBloom": "0x00000000000000000000000000000000400000000000000000000000000000000000000000000000000000000000000000000000000000000000000000000000000000000000000000000000000002000000000000000000000000000000000000002000000000000000000000000000000000000000000000000000000000000000000000000000000000000000000000000000000000000000000000000400000000000000000000000000000000000000000000000000000000000004000000000020001000000000000000000000000000000000000000000000000000000001000000000000000000000000000000000000000000000000080000000000",
      "type": "0x2",
      "transactionHash": "0x7a303ddb7b511fffd52edbc9a29b93d2d03ed468ec3f63c8275879316f90a413",
      "transactionIndex": "0x10",
      "blockHash": "0x36bf12a1867ab9f3fa1d9dd052f79093db1b012cc80186a0f8841cc605ba3714",
      "blockNumber": "0xe2813b",
      "gasUsed": "0x97a5",
      "effectiveGasPrice": "0x187b1",
      "from": "0x8454d149beb26e3e3fc5ed1c87fb0b2a1b7b6c2c",
      "to": "0x673430d3601557fcdeadfbbe1bb513a3fc777984",
      "contractAddress": null,
      "l1BaseFeeScalar": "0x44d",
      "l1BlobBaseFee": "0x169bc9f5e86",
      "l1BlobBaseFeeScalar": "0xa118b",
      "l1Fee": "0x5dc48706e6ff",
      "l1GasPrice": "0xef4f833de",
      "l1GasUsed": "0x647"
    },
    {
      "status": "0x1",
      "cumulativeGasUsed": "0x50d12a",
      "logs": [],
      "logsBloom": "0x00000000000000000000000000000000000000000000000000000000000000000000000000000000000000000000000000000000000000000000000000000000000000000000000000000000000000000000000000000000000000000000000000000000000000000000000000000000000000000000000000000000000000000000000000000000000000000000000000000000000000000000000000000000000000000000000000000000000000000000000000000000000000000000000000000000000000000000000000000000000000000000000000000000000000000000000000000000000000000000000000000000000000000000000000000000",
      "type": "0x2",
      "transactionHash": "0xedefe5e7364e12358f7912fa03e4c508563bba59a95e639aec3034dda41ddf0f",
      "transactionIndex": "0x11",
      "blockHash": "0x36bf12a1867ab9f3fa1d9dd052f79093db1b012cc80186a0f8841cc605ba3714",
      "blockNumber": "0xe2813b",
      "gasUsed": "0x8390",
      "effectiveGasPrice": "0x187b1",
      "from": "0x8454d149beb26e3e3fc5ed1c87fb0b2a1b7b6c2c",
      "to": "0x1d52bc3415aae68806e3fd44d4cdb0b63e68068a",
      "contractAddress": null,
      "l1BaseFeeScalar": "0x44d",
      "l1BlobBaseFee": "0x169bc9f5e86",
      "l1BlobBaseFeeScalar": "0xa118b",
      "l1Fee": "0x5d57966428dd",
      "l1GasPrice": "0xef4f833de",
      "l1GasUsed": "0x640"
    },
    {
      "status": "0x1",
      "cumulativeGasUsed": "0x5154a3",
      "logs": [],
      "logsBloom": "0x00000000000000000000000000000000000000000000000000000000000000000000000000000000000000000000000000000000000000000000000000000000000000000000000000000000000000000000000000000000000000000000000000000000000000000000000000000000000000000000000000000000000000000000000000000000000000000000000000000000000000000000000000000000000000000000000000000000000000000000000000000000000000000000000000000000000000000000000000000000000000000000000000000000000000000000000000000000000000000000000000000000000000000000000000000000",
      "type": "0x2",
      "transactionHash": "0x918ee4d4c8f2103e15b369b2ea9367c5b74db9ce4bfcb2bada6f1b0cd55b224f",
      "transactionIndex": "0x12",
      "blockHash": "0x36bf12a1867ab9f3fa1d9dd052f79093db1b012cc80186a0f8841cc605ba3714",
      "blockNumber": "0xe2813b",
      "gasUsed": "0x8379",
      "effectiveGasPrice": "0x187b1",
      "from": "0x8454d149beb26e3e3fc5ed1c87fb0b2a1b7b6c2c",
      "to": "0x1d52bc3415aae68806e3fd44d4cdb0b63e68068a",
      "contractAddress": null,
      "l1BaseFeeScalar": "0x44d",
      "l1BlobBaseFee": "0x169bc9f5e86",
      "l1BlobBaseFeeScalar": "0xa118b",
      "l1Fee": "0x5d57966428dd",
      "l1GasPrice": "0xef4f833de",
      "l1GasUsed": "0x640"
    },
    {
      "status": "0x1",
      "cumulativeGasUsed": "0x51d8d2",
      "logs": [],
      "logsBloom": "0x00000000000000000000000000000000000000000000000000000000000000000000000000000000000000000000000000000000000000000000000000000000000000000000000000000000000000000000000000000000000000000000000000000000000000000000000000000000000000000000000000000000000000000000000000000000000000000000000000000000000000000000000000000000000000000000000000000000000000000000000000000000000000000000000000000000000000000000000000000000000000000000000000000000000000000000000000000000000000000000000000000000000000000000000000000000",
      "type": "0x2",
      "transactionHash": "0x047ee89f98f63ea86d6bd1f08fcf125b7a71ac9572a2448404948fa7052bd879",
      "transactionIndex": "0x13",
      "blockHash": "0x36bf12a1867ab9f3fa1d9dd052f79093db1b012cc80186a0f8841cc605ba3714",
      "blockNumber": "0xe2813b",
      "gasUsed": "0x842f",
      "effectiveGasPrice": "0x187b1",
      "from": "0x8454d149beb26e3e3fc5ed1c87fb0b2a1b7b6c2c",
      "to": "0x1d52bc3415aae68806e3fd44d4cdb0b63e68068a",
      "contractAddress": null,
      "l1BaseFeeScalar": "0x44d",
      "l1BlobBaseFee": "0x169bc9f5e86",
      "l1BlobBaseFeeScalar": "0xa118b",
      "l1Fee": "0x5d57966428dd",
      "l1GasPrice": "0xef4f833de",
      "l1GasUsed": "0x640"
    },
    {
      "status": "0x1",
      "cumulativeGasUsed": "0x525bfe",
      "logs": [],
      "logsBloom": "0x00000000000000000000000000000000000000000000000000000000000000000000000000000000000000000000000000000000000000000000000000000000000000000000000000000000000000000000000000000000000000000000000000000000000000000000000000000000000000000000000000000000000000000000000000000000000000000000000000000000000000000000000000000000000000000000000000000000000000000000000000000000000000000000000000000000000000000000000000000000000000000000000000000000000000000000000000000000000000000000000000000000000000000000000000000000",
      "type": "0x2",
      "transactionHash": "0xb50e3c36eec71c48f5e367272dd6791ec551f2fe28b389521c5a514ccab13948",
      "transactionIndex": "0x14",
      "blockHash": "0x36bf12a1867ab9f3fa1d9dd052f79093db1b012cc80186a0f8841cc605ba3714",
      "blockNumber": "0xe2813b",
      "gasUsed": "0x832c",
      "effectiveGasPrice": "0x187b1",
      "from": "0x8454d149beb26e3e3fc5ed1c87fb0b2a1b7b6c2c",
      "to": "0x1d52bc3415aae68806e3fd44d4cdb0b63e68068a",
      "contractAddress": null,
      "l1BaseFeeScalar": "0x44d",
      "l1BlobBaseFee": "0x169bc9f5e86",
      "l1BlobBaseFeeScalar": "0xa118b",
      "l1Fee": "0x5d57966428dd",
      "l1GasPrice": "0xef4f833de",
      "l1GasUsed": "0x640"
    },
    {
      "status": "0x1",
      "cumulativeGasUsed": "0x52deda",
      "logs": [],
      "logsBloom": "0x00000000000000000000000000000000000000000000000000000000000000000000000000000000000000000000000000000000000000000000000000000000000000000000000000000000000000000000000000000000000000000000000000000000000000000000000000000000000000000000000000000000000000000000000000000000000000000000000000000000000000000000000000000000000000000000000000000000000000000000000000000000000000000000000000000000000000000000000000000000000000000000000000000000000000000000000000000000000000000000000000000000000000000000000000000000",
      "type": "0x2",
      "transactionHash": "0x598b4fccdd8b7f3ad73e156090294917afabf2429e25e6bf79b97f3680644649",
      "transactionIndex": "0x15",
      "blockHash": "0x36bf12a1867ab9f3fa1d9dd052f79093db1b012cc80186a0f8841cc605ba3714",
      "blockNumber": "0xe2813b",
      "gasUsed": "0x82dc",
      "effectiveGasPrice": "0x187b1",
      "from": "0x8454d149beb26e3e3fc5ed1c87fb0b2a1b7b6c2c",
      "to": "0x205e359bdef6e0ff3e1d820668bbf7ce68d14d08",
      "contractAddress": null,
      "l1BaseFeeScalar": "0x44d",
      "l1BlobBaseFee": "0x169bc9f5e86",
      "l1BlobBaseFeeScalar": "0xa118b",
      "l1Fee": "0x5d57966428dd",
      "l1GasPrice": "0xef4f833de",
      "l1GasUsed": "0x640"
    },
    {
      "status": "0x1",
      "cumulativeGasUsed": "0x5356fe",
      "logs": [],
      "logsBloom": "0x00000000000000000000000000000000000000000000000000000000000000000000000000000000000000000000000000000000000000000000000000000000000000000000000000000000000000000000000000000000000000000000000000000000000000000000000000000000000000000000000000000000000000000000000000000000000000000000000000000000000000000000000000000000000000000000000000000000000000000000000000000000000000000000000000000000000000000000000000000000000000000000000000000000000000000000000000000000000000000000000000000000000000000000000000000000",
      "type": "0x2",
      "transactionHash": "0xad6dc8ad18cc98c8a6b0ce88e7295608a0295f231f7d6db2ef971d4acc7a663d",
      "transactionIndex": "0x16",
      "blockHash": "0x36bf12a1867ab9f3fa1d9dd052f79093db1b012cc80186a0f8841cc605ba3714",
      "blockNumber": "0xe2813b",
      "gasUsed": "0x7824",
      "effectiveGasPrice": "0x187b1",
      "from": "0x8454d149beb26e3e3fc5ed1c87fb0b2a1b7b6c2c",
      "to": "0x1d52bc3415aae68806e3fd44d4cdb0b63e68068a",
      "contractAddress": null,
      "l1BaseFeeScalar": "0x44d",
      "l1BlobBaseFee": "0x169bc9f5e86",
      "l1BlobBaseFeeScalar": "0xa118b",
      "l1Fee": "0x5d57966428dd",
      "l1GasPrice": "0xef4f833de",
      "l1GasUsed": "0x640"
    },
    {
      "status": "0x1",
      "cumulativeGasUsed": "0x53d137",
      "logs": [],
      "logsBloom": "0x00000000000000000000000000000000000000000000000000000000000000000000000000000000000000000000000000000000000000000000000000000000000000000000000000000000000000000000000000000000000000000000000000000000000000000000000000000000000000000000000000000000000000000000000000000000000000000000000000000000000000000000000000000000000000000000000000000000000000000000000000000000000000000000000000000000000000000000000000000000000000000000000000000000000000000000000000000000000000000000000000000000000000000000000000000000",
      "type": "0x2",
      "transactionHash": "0x7443f519c377d80f85aecc38c2e7f3de60b36aaec4e2f910a52b5b2bcce7225d",
      "transactionIndex": "0x17",
      "blockHash": "0x36bf12a1867ab9f3fa1d9dd052f79093db1b012cc80186a0f8841cc605ba3714",
      "blockNumber": "0xe2813b",
      "gasUsed": "0x7a39",
      "effectiveGasPrice": "0x187b1",
      "from": "0x8454d149beb26e3e3fc5ed1c87fb0b2a1b7b6c2c",
      "to": "0x1d52bc3415aae68806e3fd44d4cdb0b63e68068a",
      "contractAddress": null,
      "l1BaseFeeScalar": "0x44d",
      "l1BlobBaseFee": "0x169bc9f5e86",
      "l1BlobBaseFeeScalar": "0xa118b",
      "l1Fee": "0x5d57966428dd",
      "l1GasPrice": "0xef4f833de",
      "l1GasUsed": "0x640"
    },
    {
      "status": "0x1",
      "cumulativeGasUsed": "0x544b13",
      "logs": [],
      "logsBloom": "0x00000000000000000000000000000000000000000000000000000000000000000000000000000000000000000000000000000000000000000000000000000000000000000000000000000000000000000000000000000000000000000000000000000000000000000000000000000000000000000000000000000000000000000000000000000000000000000000000000000000000000000000000000000000000000000000000000000000000000000000000000000000000000000000000000000000000000000000000000000000000000000000000000000000000000000000000000000000000000000000000000000000000000000000000000000000",
      "type": "0x2",
      "transactionHash": "0xadb0a1f188c8507e8f4abb730ce119857736a3604643bb33d138ec034a4b9f07",
      "transactionIndex": "0x18",
      "blockHash": "0x36bf12a1867ab9f3fa1d9dd052f79093db1b012cc80186a0f8841cc605ba3714",
      "blockNumber": "0xe2813b",
      "gasUsed": "0x79dc",
      "effectiveGasPrice": "0x187b1",
      "from": "0x8454d149beb26e3e3fc5ed1c87fb0b2a1b7b6c2c",
      "to": "0x1d52bc3415aae68806e3fd44d4cdb0b63e68068a",
      "contractAddress": null,
      "l1BaseFeeScalar": "0x44d",
      "l1BlobBaseFee": "0x169bc9f5e86",
      "l1BlobBaseFeeScalar": "0xa118b",
      "l1Fee": "0x5d57966428dd",
      "l1GasPrice": "0xef4f833de",
      "l1GasUsed": "0x640"
    },
    {
      "status": "0x1",
      "cumulativeGasUsed": "0x54c4ee",
      "logs": [],
      "logsBloom": "0x00000000000000000000000000000000000000000000000000000000000000000000000000000000000000000000000000000000000000000000000000000000000000000000000000000000000000000000000000000000000000000000000000000000000000000000000000000000000000000000000000000000000000000000000000000000000000000000000000000000000000000000000000000000000000000000000000000000000000000000000000000000000000000000000000000000000000000000000000000000000000000000000000000000000000000000000000000000000000000000000000000000000000000000000000000000",
      "type": "0x2",
      "transactionHash": "0xa395f6406f9dcf231cdea7c990d1e092e07dedd9a1b3d0dafd4596b0f08d3940",
      "transactionIndex": "0x19",
      "blockHash": "0x36bf12a1867ab9f3fa1d9dd052f79093db1b012cc80186a0f8841cc605ba3714",
      "blockNumber": "0xe2813b",
      "gasUsed": "0x79db",
      "effectiveGasPrice": "0x187b1",
      "from": "0x8454d149beb26e3e3fc5ed1c87fb0b2a1b7b6c2c",
      "to": "0x1d52bc3415aae68806e3fd44d4cdb0b63e68068a",
      "contractAddress": null,
      "l1BaseFeeScalar": "0x44d",
      "l1BlobBaseFee": "0x169bc9f5e86",
      "l1BlobBaseFeeScalar": "0xa118b",
      "l1Fee": "0x5d57966428dd",
      "l1GasPrice": "0xef4f833de",
      "l1GasUsed": "0x640"
    }
  ],
  "libraries": [
    "src/utils/EigenlayerMsgDecoders.sol:AgentOwnerSignature:0x2134b1f8C6D6b1E2CC9eAD07c5735c53729463FA",
    "src/utils/FunctionSelectorDecoder.sol:FunctionSelectorDecoder:0x03EaD4D2fe96520289E6A473b7A07a6207F481B2"
  ],
  "pending": [],
  "returns": {},
  "timestamp": 1725456784,
  "chain": 84532,
  "commit": "db05b7e"
}