{
  "transactions": [
    {
      "hash": "0xd86aa21c5b8a987b9951046c0def05b398957e496478b94657044e844416ef77",
      "transactionType": "CALL",
      "contractName": null,
      "contractAddress": "0x88a2d74f47a237a62e7a51cdda67270ce381555e",
      "function": "approve(address,uint256)",
      "arguments": [
        "0x2a0dd3580658CC32e2D0984051DA5f2312001a13",
        "7970000000000000"
      ],
      "transaction": {
        "from": "0x8454d149beb26e3e3fc5ed1c87fb0b2a1b7b6c2c",
        "to": "0x88a2d74f47a237a62e7a51cdda67270ce381555e",
        "gas": "0xf9f2",
        "value": "0x0",
        "input": "0x095ea7b30000000000000000000000002a0dd3580658cc32e2d0984051da5f2312001a13000000000000000000000000000000000000000000000000001c50ac3adc2000",
        "nonce": "0x41e",
        "chainId": "0x14a34"
      },
      "additionalContracts": [],
      "isFixedGasLimit": false
    },
    {
      "hash": "0x77b164f6340c4ef5c7bb5f5ae78c50a399be304777d934147a01829fab4fae9c",
      "transactionType": "CALL",
      "contractName": "TransparentUpgradeableProxy",
      "contractAddress": "0x2a0dd3580658cc32e2d0984051da5f2312001a13",
      "function": null,
      "arguments": null,
      "transaction": {
        "from": "0x8454d149beb26e3e3fc5ed1c87fb0b2a1b7b6c2c",
        "to": "0x2a0dd3580658cc32e2d0984051da5f2312001a13",
        "gas": "0x63b84",
        "value": "0x11262c6cfeafa7",
        "input": "0x1b3565ab000000000000000000000000000000000000000000000000de41ba4fc9d91ad90000000000000000000000000d7135aaf464555e780e2a63f3b1ef0a97b3a49900000000000000000000000000000000000000000000000000000000000000c000000000000000000000000088a2d74f47a237a62e7a51cdda67270ce381555e000000000000000000000000000000000000000000000000001c50ac3adc200000000000000000000000000000000000000000000000000000000000000927c000000000000000000000000000000000000000000000000000000000000000e5e7a050aa000000000000000000000000ee33ddcfb85e06ac1fd0a4b36f9b6958d5a7d3f0000000000000000000000000fd57b4ddbf88a4e07ff4e34c487b99af2fe82a05000000000000000000000000000000000000000000000000001c50ac3adc20000000000000000000000000008454d149beb26e3e3fc5ed1c87fb0b2a1b7b6c2c0000000000000000000000000000000000000000000000000000000066e9053812fdc57e5fcdd928d5dad839529d2331ce1157b2f9dc0cd19399eff321e35c7e009be0d5de6e6200b0e774afa2bad854e1be383d50439c665bc5c3b20e7dc6451b000000000000000000000000000000000000000000000000000000",
        "nonce": "0x41f",
        "chainId": "0x14a34"
      },
      "additionalContracts": [],
      "isFixedGasLimit": false
    }
  ],
  "receipts": [
    {
      "status": "0x1",
      "cumulativeGasUsed": "0x423e8",
      "logs": [
        {
          "address": "0x88a2d74f47a237a62e7a51cdda67270ce381555e",
          "topics": [
            "0x8c5be1e5ebec7d5bd14f71427d1e84f3dd0314c0f7b2291e5b200ac8c7c3b925",
            "0x0000000000000000000000008454d149beb26e3e3fc5ed1c87fb0b2a1b7b6c2c",
            "0x0000000000000000000000002a0dd3580658cc32e2d0984051da5f2312001a13"
          ],
          "data": "0x000000000000000000000000000000000000000000000000001c50ac3adc2000",
          "blockHash": "0xe04c32bcf30ae752dd51ac9043d3ed083b664c426af08d0fce25ac1fd3d0dee0",
          "blockNumber": "0xeacdfe",
          "transactionHash": "0xd86aa21c5b8a987b9951046c0def05b398957e496478b94657044e844416ef77",
          "transactionIndex": "0x3",
          "logIndex": "0x3",
          "removed": false
        }
      ],
      "logsBloom": "0x000000000000000000000000000000000000000000000000000000000008000000000000000000000000000000000000000000000002000000000000002000000000000000000000400000000000000000000000000000000000000000000000000000000000000800000000000000000000000000000000000000000000000000000000000000000000000000000000000000000000000000000000000000000a0000000000000000000000000000000000000000000000000000000000000000000000000000000000000000000000080000000000000000000000000a00000010000000000000000000000000000000000000000000000000000000000000",
      "type": "0x2",
      "transactionHash": "0xd86aa21c5b8a987b9951046c0def05b398957e496478b94657044e844416ef77",
      "transactionIndex": "0x3",
      "blockHash": "0xe04c32bcf30ae752dd51ac9043d3ed083b664c426af08d0fce25ac1fd3d0dee0",
      "blockNumber": "0xeacdfe",
      "gasUsed": "0xb4f5",
      "effectiveGasPrice": "0x83e64",
      "from": "0x8454d149beb26e3e3fc5ed1c87fb0b2a1b7b6c2c",
      "to": "0x88a2d74f47a237a62e7a51cdda67270ce381555e",
      "contractAddress": null,
      "l1BaseFeeScalar": "0x44d",
      "l1BlobBaseFee": "0x251b2107c1",
      "l1BlobBaseFeeScalar": "0xa118b",
      "l1Fee": "0x992315433b2",
      "l1GasPrice": "0xfe835bf0",
      "l1GasUsed": "0x640"
    },
    {
      "status": "0x1",
      "cumulativeGasUsed": "0x8a708",
      "logs": [
        {
          "address": "0x88a2d74f47a237a62e7a51cdda67270ce381555e",
          "topics": [
            "0x8c5be1e5ebec7d5bd14f71427d1e84f3dd0314c0f7b2291e5b200ac8c7c3b925",
            "0x0000000000000000000000008454d149beb26e3e3fc5ed1c87fb0b2a1b7b6c2c",
            "0x0000000000000000000000002a0dd3580658cc32e2d0984051da5f2312001a13"
          ],
          "data": "0x0000000000000000000000000000000000000000000000000000000000000000",
          "blockHash": "0xe04c32bcf30ae752dd51ac9043d3ed083b664c426af08d0fce25ac1fd3d0dee0",
          "blockNumber": "0xeacdfe",
          "transactionHash": "0x77b164f6340c4ef5c7bb5f5ae78c50a399be304777d934147a01829fab4fae9c",
          "transactionIndex": "0x4",
          "logIndex": "0x4",
          "removed": false
        },
        {
          "address": "0x88a2d74f47a237a62e7a51cdda67270ce381555e",
          "topics": [
            "0xddf252ad1be2c89b69c2b068fc378daa952ba7f163c4a11628f55a4df523b3ef",
            "0x0000000000000000000000008454d149beb26e3e3fc5ed1c87fb0b2a1b7b6c2c",
            "0x0000000000000000000000002a0dd3580658cc32e2d0984051da5f2312001a13"
          ],
          "data": "0x000000000000000000000000000000000000000000000000001c50ac3adc2000",
          "blockHash": "0xe04c32bcf30ae752dd51ac9043d3ed083b664c426af08d0fce25ac1fd3d0dee0",
          "blockNumber": "0xeacdfe",
          "transactionHash": "0x77b164f6340c4ef5c7bb5f5ae78c50a399be304777d934147a01829fab4fae9c",
          "transactionIndex": "0x4",
          "logIndex": "0x5",
          "removed": false
        },
        {
          "address": "0x88a2d74f47a237a62e7a51cdda67270ce381555e",
          "topics": [
            "0x8c5be1e5ebec7d5bd14f71427d1e84f3dd0314c0f7b2291e5b200ac8c7c3b925",
            "0x0000000000000000000000002a0dd3580658cc32e2d0984051da5f2312001a13",
            "0x000000000000000000000000d3b06cebf099ce7da4accf578aaebfdbd6e88a93"
          ],
          "data": "0x000000000000000000000000000000000000000000000000001c50ac3adc2000",
          "blockHash": "0xe04c32bcf30ae752dd51ac9043d3ed083b664c426af08d0fce25ac1fd3d0dee0",
          "blockNumber": "0xeacdfe",
          "transactionHash": "0x77b164f6340c4ef5c7bb5f5ae78c50a399be304777d934147a01829fab4fae9c",
          "transactionIndex": "0x4",
          "logIndex": "0x6",
          "removed": false
        },
        {
          "address": "0x4200000000000000000000000000000000000006",
          "topics": [
            "0xe1fffcc4923d04b559f4d29a8bfc6cda04eb5b0d3c460751c2402c5c5cc9109c",
            "0x000000000000000000000000d3b06cebf099ce7da4accf578aaebfdbd6e88a93"
          ],
          "data": "0x0000000000000000000000000000000000000000000000000011262c6cfeafa7",
          "blockHash": "0xe04c32bcf30ae752dd51ac9043d3ed083b664c426af08d0fce25ac1fd3d0dee0",
          "blockNumber": "0xeacdfe",
          "transactionHash": "0x77b164f6340c4ef5c7bb5f5ae78c50a399be304777d934147a01829fab4fae9c",
          "transactionIndex": "0x4",
          "logIndex": "0x7",
          "removed": false
        },
        {
          "address": "0x4200000000000000000000000000000000000006",
          "topics": [
            "0xddf252ad1be2c89b69c2b068fc378daa952ba7f163c4a11628f55a4df523b3ef",
            "0x000000000000000000000000d3b06cebf099ce7da4accf578aaebfdbd6e88a93",
            "0x0000000000000000000000006486906bb2d85a6c0ccef2a2831c11a2059ebfea"
          ],
          "data": "0x0000000000000000000000000000000000000000000000000011262c6cfeafa7",
          "blockHash": "0xe04c32bcf30ae752dd51ac9043d3ed083b664c426af08d0fce25ac1fd3d0dee0",
          "blockNumber": "0xeacdfe",
          "transactionHash": "0x77b164f6340c4ef5c7bb5f5ae78c50a399be304777d934147a01829fab4fae9c",
          "transactionIndex": "0x4",
          "logIndex": "0x8",
          "removed": false
        },
        {
          "address": "0x88a2d74f47a237a62e7a51cdda67270ce381555e",
          "topics": [
            "0x8c5be1e5ebec7d5bd14f71427d1e84f3dd0314c0f7b2291e5b200ac8c7c3b925",
            "0x0000000000000000000000002a0dd3580658cc32e2d0984051da5f2312001a13",
            "0x000000000000000000000000d3b06cebf099ce7da4accf578aaebfdbd6e88a93"
          ],
          "data": "0x0000000000000000000000000000000000000000000000000000000000000000",
          "blockHash": "0xe04c32bcf30ae752dd51ac9043d3ed083b664c426af08d0fce25ac1fd3d0dee0",
          "blockNumber": "0xeacdfe",
          "transactionHash": "0x77b164f6340c4ef5c7bb5f5ae78c50a399be304777d934147a01829fab4fae9c",
          "transactionIndex": "0x4",
          "logIndex": "0x9",
          "removed": false
        },
        {
          "address": "0x88a2d74f47a237a62e7a51cdda67270ce381555e",
          "topics": [
            "0xddf252ad1be2c89b69c2b068fc378daa952ba7f163c4a11628f55a4df523b3ef",
            "0x0000000000000000000000002a0dd3580658cc32e2d0984051da5f2312001a13",
            "0x000000000000000000000000875207858c691f192c606068f417dcf666b2ec6b"
          ],
          "data": "0x000000000000000000000000000000000000000000000000001c50ac3adc2000",
          "blockHash": "0xe04c32bcf30ae752dd51ac9043d3ed083b664c426af08d0fce25ac1fd3d0dee0",
          "blockNumber": "0xeacdfe",
          "transactionHash": "0x77b164f6340c4ef5c7bb5f5ae78c50a399be304777d934147a01829fab4fae9c",
          "transactionIndex": "0x4",
          "logIndex": "0xa",
          "removed": false
        },
        {
          "address": "0x6486906bb2d85a6c0ccef2a2831c11a2059ebfea",
          "topics": [
            "0x1871cdf8010e63f2eb8384381a68dfa7416dc571a5517e66e88b2d2d0c0a690a"
          ],
          "data": "0x00000000000000000000000000000000000000000000000000000000000c2948",
          "blockHash": "0xe04c32bcf30ae752dd51ac9043d3ed083b664c426af08d0fce25ac1fd3d0dee0",
          "blockNumber": "0xeacdfe",
          "transactionHash": "0x77b164f6340c4ef5c7bb5f5ae78c50a399be304777d934147a01829fab4fae9c",
          "transactionIndex": "0x4",
          "logIndex": "0xb",
          "removed": false
        },
        {
          "address": "0x875207858c691f192c606068f417dcf666b2ec6b",
          "topics": [
            "0x1871cdf8010e63f2eb8384381a68dfa7416dc571a5517e66e88b2d2d0c0a690a"
          ],
          "data": "0x000000000000000000000000000000000000000000000000001c50ac3adc2000",
          "blockHash": "0xe04c32bcf30ae752dd51ac9043d3ed083b664c426af08d0fce25ac1fd3d0dee0",
          "blockNumber": "0xeacdfe",
          "transactionHash": "0x77b164f6340c4ef5c7bb5f5ae78c50a399be304777d934147a01829fab4fae9c",
          "transactionIndex": "0x4",
          "logIndex": "0xc",
          "removed": false
        },
        {
          "address": "0x88a2d74f47a237a62e7a51cdda67270ce381555e",
          "topics": [
            "0xddf252ad1be2c89b69c2b068fc378daa952ba7f163c4a11628f55a4df523b3ef",
            "0x000000000000000000000000875207858c691f192c606068f417dcf666b2ec6b",
            "0x0000000000000000000000000000000000000000000000000000000000000000"
          ],
          "data": "0x000000000000000000000000000000000000000000000000001c50ac3adc2000",
          "blockHash": "0xe04c32bcf30ae752dd51ac9043d3ed083b664c426af08d0fce25ac1fd3d0dee0",
          "blockNumber": "0xeacdfe",
          "transactionHash": "0x77b164f6340c4ef5c7bb5f5ae78c50a399be304777d934147a01829fab4fae9c",
          "transactionIndex": "0x4",
          "logIndex": "0xd",
          "removed": false
        },
        {
          "address": "0x875207858c691f192c606068f417dcf666b2ec6b",
          "topics": [
            "0x696de425f79f4a40bc6d2122ca50507f0efbeabbff86a84871b7196ab8ea8df7",
            "0x0000000000000000000000006486906bb2d85a6c0ccef2a2831c11a2059ebfea"
          ],
          "data": "0x000000000000000000000000000000000000000000000000001c50ac3adc2000",
          "blockHash": "0xe04c32bcf30ae752dd51ac9043d3ed083b664c426af08d0fce25ac1fd3d0dee0",
          "blockNumber": "0xeacdfe",
          "transactionHash": "0x77b164f6340c4ef5c7bb5f5ae78c50a399be304777d934147a01829fab4fae9c",
          "transactionIndex": "0x4",
          "logIndex": "0xe",
          "removed": false
        },
        {
          "address": "0x6486906bb2d85a6c0ccef2a2831c11a2059ebfea",
          "topics": [
            "0xd0c3c799bf9e2639de44391e7f524d229b2b55f5b1ea94b2bf7da42f7243dddd"
          ],
          "data": "0x00000000000000000000000000000000000000000000000000000000000000200000000000000000000000000000000000000000000000008f90b8876dee65380000000000000000000000002a0dd3580658cc32e2d0984051da5f2312001a130000000000000000000000000d7135aaf464555e780e2a63f3b1ef0a97b3a49900000000000000000000000000000000000000000000000000000000000007cb00000000000000000000000000000000000000000000000000000000000927c00000000000000000000000000000000000000000000000000000000000000000000000000000000000000000000000000000000000000000000000000000000e00000000000000000000000042000000000000000000000000000000000000060000000000000000000000000000000000000000000000000011262c6cfeafa700000000000000000000000000000000000000000000000000000000000001a00000000000000000000000000000000000000000000000000000000000000300000000000000000000000000000000000000000000000000000000000000036009c888cf9c267a809081dd63c87b9858d8c2953e9b86fe02a62f4217e4f33b980000000000000000000000000000000000000000000000000000000000000140000000000000000000000000000000000000000000000000000000000000002000000000000000000000000000000000000000000000000000000000000000e5e7a050aa000000000000000000000000ee33ddcfb85e06ac1fd0a4b36f9b6958d5a7d3f0000000000000000000000000fd57b4ddbf88a4e07ff4e34c487b99af2fe82a05000000000000000000000000000000000000000000000000001c50ac3adc20000000000000000000000000008454d149beb26e3e3fc5ed1c87fb0b2a1b7b6c2c0000000000000000000000000000000000000000000000000000000066e9053812fdc57e5fcdd928d5dad839529d2331ce1157b2f9dc0cd19399eff321e35c7e009be0d5de6e6200b0e774afa2bad854e1be383d50439c665bc5c3b20e7dc6451b000000000000000000000000000000000000000000000000000000000000000000000000000000000000000000000000000000000000000000000100000000000000000000000088a2d74f47a237a62e7a51cdda67270ce381555e000000000000000000000000000000000000000000000000001c50ac3adc2000000000000000000000000000000000000000000000000000000000000000000100000000000000000000000000000000000000000000000000000000000000200000000000000000000000000000000000000000000000000000000000000000",
          "blockHash": "0xe04c32bcf30ae752dd51ac9043d3ed083b664c426af08d0fce25ac1fd3d0dee0",
          "blockNumber": "0xeacdfe",
          "transactionHash": "0x77b164f6340c4ef5c7bb5f5ae78c50a399be304777d934147a01829fab4fae9c",
          "transactionIndex": "0x4",
          "logIndex": "0xf",
          "removed": false
        },
        {
          "address": "0x2a0dd3580658cc32e2d0984051da5f2312001a13",
          "topics": [
            "0x437cb3c5ba4364504dda6ba3c906ffb0897c7beeb1675f3aaf22a1b9a99b3994",
            "0x09c888cf9c267a809081dd63c87b9858d8c2953e9b86fe02a62f4217e4f33b98",
            "0x000000000000000000000000000000000000000000000000de41ba4fc9d91ad9"
          ],
          "data": "0x0000000000000000000000000d7135aaf464555e780e2a63f3b1ef0a97b3a49900000000000000000000000000000000000000000000000000000000000000c000000000000000000000000088a2d74f47a237a62e7a51cdda67270ce381555e000000000000000000000000000000000000000000000000001c50ac3adc200000000000000000000000000000000000000000000000000000000000000000000000000000000000000000000000000000000000000000000011262c6cfeafa7000000000000000000000000000000000000000000000000000000000000000f646973706174636865642063616c6c0000000000000000000000000000000000",
          "blockHash": "0xe04c32bcf30ae752dd51ac9043d3ed083b664c426af08d0fce25ac1fd3d0dee0",
          "blockNumber": "0xeacdfe",
          "transactionHash": "0x77b164f6340c4ef5c7bb5f5ae78c50a399be304777d934147a01829fab4fae9c",
          "transactionIndex": "0x4",
          "logIndex": "0x10",
          "removed": false
        }
      ],
      "logsBloom": "0x000000200000000000008020000000000000000000000000000400000008000000010000010040040020001000000000000000000002000000080000002000000000000000000210400000280080000020000001000000000000000080000000000000000600000800000040000108020400000400000000000002100000000000000001000000000000000000000000000000210020000000000000000000000a2000000000000400000000000000002000000000004000000100000000100200000002000090000000000000000000080000000000000000080000004a20000010000000000000000000000000000004000000000000400000000000000000",
      "type": "0x2",
      "transactionHash": "0x77b164f6340c4ef5c7bb5f5ae78c50a399be304777d934147a01829fab4fae9c",
      "transactionIndex": "0x4",
      "blockHash": "0xe04c32bcf30ae752dd51ac9043d3ed083b664c426af08d0fce25ac1fd3d0dee0",
      "blockNumber": "0xeacdfe",
      "gasUsed": "0x48320",
      "effectiveGasPrice": "0x83e64",
      "from": "0x8454d149beb26e3e3fc5ed1c87fb0b2a1b7b6c2c",
      "to": "0x2a0dd3580658cc32e2d0984051da5f2312001a13",
      "contractAddress": null,
      "l1BaseFeeScalar": "0x44d",
      "l1BlobBaseFee": "0x251b2107c1",
      "l1BlobBaseFeeScalar": "0xa118b",
      "l1Fee": "0x1bb56d8adc37",
      "l1GasPrice": "0xfe835bf0",
      "l1GasUsed": "0x1218"
    }
  ],
  "libraries": [
    "src/utils/EigenlayerMsgDecoders.sol:AgentOwnerSignature:0x53AFa41De7ee721C0E2A160a7a6dc73db505E6b5",
    "src/utils/EigenlayerMsgDecoders.sol:DelegationDecoders:0x9C24f3021961Ce64ccfB40A8eb5A7687E26607CD",
    "src/utils/EigenlayerMsgEncoders.sol:EigenlayerMsgEncoders:0x89d5D3d971923c4F0A7f911309D0A1F381bAF144",
    "src/utils/FunctionSelectorDecoder.sol:FunctionSelectorDecoder:0x4310A3A9d3c75CE0612c50DA408FCB1593f2bfdD"
  ],
  "pending": [],
  "returns": {},
  "timestamp": 1726544612,
  "chain": 84532,
  "commit": "e56853f"
}