{
  "transactions": [
    {
      "hash": "0x0eb25b3e8db16a5ead254926afcd04404aaa40bfbc52b20033cd3a62ba833d01",
      "transactionType": "CALL",
      "contractName": null,
      "contractAddress": "0x88a2d74f47a237a62e7a51cdda67270ce381555e",
      "function": "approve(address,uint256)",
      "arguments": [
        "0x1D52bC3415AAe68806E3Fd44D4cdb0b63E68068A",
        "7970000000000000"
      ],
      "transaction": {
        "from": "0x8454d149beb26e3e3fc5ed1c87fb0b2a1b7b6c2c",
        "to": "0x88a2d74f47a237a62e7a51cdda67270ce381555e",
        "gas": "0x108b7",
        "value": "0x0",
        "input": "0x095ea7b30000000000000000000000001d52bc3415aae68806e3fd44d4cdb0b63e68068a000000000000000000000000000000000000000000000000001c50ac3adc2000",
        "nonce": "0x330",
        "chainId": "0x14a34"
      },
      "additionalContracts": [],
      "isFixedGasLimit": false
    },
    {
      "hash": "0x057ddc12c0cbc67fb65fc323ea9efedd418ad2e8e9ab9df63d14bb04e62b887d",
      "transactionType": "CALL",
      "contractName": "TransparentUpgradeableProxy",
      "contractAddress": "0x1d52bc3415aae68806e3fd44d4cdb0b63e68068a",
      "function": null,
      "arguments": null,
      "transaction": {
        "from": "0x8454d149beb26e3e3fc5ed1c87fb0b2a1b7b6c2c",
        "to": "0x1d52bc3415aae68806e3fd44d4cdb0b63e68068a",
        "gas": "0x61fdf",
        "value": "0x23a36f1a3be722",
        "input": "0x1b3565ab000000000000000000000000000000000000000000000000de41ba4fc9d91ad90000000000000000000000008645c75d0c75b859146aebb74076b319c9331c4e00000000000000000000000000000000000000000000000000000000000000c000000000000000000000000088a2d74f47a237a62e7a51cdda67270ce381555e000000000000000000000000000000000000000000000000001c50ac3adc200000000000000000000000000000000000000000000000000000000000000c350000000000000000000000000000000000000000000000000000000000000000e5e7a050aa000000000000000000000000ee33ddcfb85e06ac1fd0a4b36f9b6958d5a7d3f0000000000000000000000000fd57b4ddbf88a4e07ff4e34c487b99af2fe82a05000000000000000000000000000000000000000000000000001c50ac3adc20000000000000000000000000008454d149beb26e3e3fc5ed1c87fb0b2a1b7b6c2c0000000000000000000000000000000000000000000000000000000066dd84e6584c704f6996811e276057f795970a9de366648cf380c36d80d579adcede4e931e7c2fe3b93e375567ce81e1d766c563d78dcbf6c5f40d0a25c12f5c05c01a081b000000000000000000000000000000000000000000000000000000",
        "nonce": "0x331",
        "chainId": "0x14a34"
      },
      "additionalContracts": [],
      "isFixedGasLimit": false
    }
  ],
  "receipts": [
    {
      "status": "0x1",
      "cumulativeGasUsed": "0x56c12",
      "logs": [
        {
          "address": "0x88a2d74f47a237a62e7a51cdda67270ce381555e",
          "topics": [
            "0x8c5be1e5ebec7d5bd14f71427d1e84f3dd0314c0f7b2291e5b200ac8c7c3b925",
            "0x0000000000000000000000008454d149beb26e3e3fc5ed1c87fb0b2a1b7b6c2c",
            "0x0000000000000000000000001d52bc3415aae68806e3fd44d4cdb0b63e68068a"
          ],
          "data": "0x000000000000000000000000000000000000000000000000001c50ac3adc2000",
          "blockHash": "0x61d2262d6bec4f4bacf6e025119d3cd662c2a67b5adeb76755934bb1d116bf44",
          "blockNumber": "0xe50dc9",
          "transactionHash": "0x0eb25b3e8db16a5ead254926afcd04404aaa40bfbc52b20033cd3a62ba833d01",
          "transactionIndex": "0x5",
          "logIndex": "0x8",
          "removed": false
        }
      ],
      "logsBloom": "0x000000000000000000000000000000000000000000000000000000000008000000000000000002000000000000000000000000000000000000000000002000000000000000000000000000000000000000000000000000000000000000000000000000000000200800000000000000000000000000000000000000000000000000000000000000000000000000000000000000000000000000000000000000000a0000000000000000000000000000000000000000000000000000000000000000000000000000000000000000000000080000000000000000000000000a00000010000000000000000004000000000000000000000000000000000000000000",
      "type": "0x2",
      "transactionHash": "0x0eb25b3e8db16a5ead254926afcd04404aaa40bfbc52b20033cd3a62ba833d01",
      "transactionIndex": "0x5",
      "blockHash": "0x61d2262d6bec4f4bacf6e025119d3cd662c2a67b5adeb76755934bb1d116bf44",
      "blockNumber": "0xe50dc9",
      "gasUsed": "0xb501",
      "effectiveGasPrice": "0x8751ca",
      "from": "0x8454d149beb26e3e3fc5ed1c87fb0b2a1b7b6c2c",
      "to": "0x88a2d74f47a237a62e7a51cdda67270ce381555e",
      "contractAddress": null,
      "l1BaseFeeScalar": "0x44d",
      "l1BlobBaseFee": "0x20fbab8dde",
      "l1BlobBaseFeeScalar": "0xa118b",
      "l1Fee": "0x8835a8b8b9c",
      "l1GasPrice": "0x1ae5cdb7e",
      "l1GasUsed": "0x640"
    },
    {
      "status": "0x1",
      "cumulativeGasUsed": "0xd26e8",
      "logs": [
        {
          "address": "0x88a2d74f47a237a62e7a51cdda67270ce381555e",
          "topics": [
            "0x8c5be1e5ebec7d5bd14f71427d1e84f3dd0314c0f7b2291e5b200ac8c7c3b925",
            "0x0000000000000000000000008454d149beb26e3e3fc5ed1c87fb0b2a1b7b6c2c",
            "0x0000000000000000000000001d52bc3415aae68806e3fd44d4cdb0b63e68068a"
          ],
          "data": "0x0000000000000000000000000000000000000000000000000000000000000000",
          "blockHash": "0xabd3f99e9368de5289b609236ccac01080713b575f43f87d7734a9b4b8340890",
          "blockNumber": "0xe50dca",
          "transactionHash": "0x057ddc12c0cbc67fb65fc323ea9efedd418ad2e8e9ab9df63d14bb04e62b887d",
          "transactionIndex": "0x6",
          "logIndex": "0x9",
          "removed": false
        },
        {
          "address": "0x88a2d74f47a237a62e7a51cdda67270ce381555e",
          "topics": [
            "0xddf252ad1be2c89b69c2b068fc378daa952ba7f163c4a11628f55a4df523b3ef",
            "0x0000000000000000000000008454d149beb26e3e3fc5ed1c87fb0b2a1b7b6c2c",
            "0x0000000000000000000000001d52bc3415aae68806e3fd44d4cdb0b63e68068a"
          ],
          "data": "0x000000000000000000000000000000000000000000000000001c50ac3adc2000",
          "blockHash": "0xabd3f99e9368de5289b609236ccac01080713b575f43f87d7734a9b4b8340890",
          "blockNumber": "0xe50dca",
          "transactionHash": "0x057ddc12c0cbc67fb65fc323ea9efedd418ad2e8e9ab9df63d14bb04e62b887d",
          "transactionIndex": "0x6",
          "logIndex": "0xa",
          "removed": false
        },
        {
          "address": "0x88a2d74f47a237a62e7a51cdda67270ce381555e",
          "topics": [
            "0x8c5be1e5ebec7d5bd14f71427d1e84f3dd0314c0f7b2291e5b200ac8c7c3b925",
            "0x0000000000000000000000001d52bc3415aae68806e3fd44d4cdb0b63e68068a",
            "0x000000000000000000000000d3b06cebf099ce7da4accf578aaebfdbd6e88a93"
          ],
          "data": "0x000000000000000000000000000000000000000000000000001c50ac3adc2000",
          "blockHash": "0xabd3f99e9368de5289b609236ccac01080713b575f43f87d7734a9b4b8340890",
          "blockNumber": "0xe50dca",
          "transactionHash": "0x057ddc12c0cbc67fb65fc323ea9efedd418ad2e8e9ab9df63d14bb04e62b887d",
          "transactionIndex": "0x6",
          "logIndex": "0xb",
          "removed": false
        },
        {
          "address": "0x4200000000000000000000000000000000000006",
          "topics": [
            "0xe1fffcc4923d04b559f4d29a8bfc6cda04eb5b0d3c460751c2402c5c5cc9109c",
            "0x000000000000000000000000d3b06cebf099ce7da4accf578aaebfdbd6e88a93"
          ],
          "data": "0x0000000000000000000000000000000000000000000000000023a36f1a3be722",
          "blockHash": "0xabd3f99e9368de5289b609236ccac01080713b575f43f87d7734a9b4b8340890",
          "blockNumber": "0xe50dca",
          "transactionHash": "0x057ddc12c0cbc67fb65fc323ea9efedd418ad2e8e9ab9df63d14bb04e62b887d",
          "transactionIndex": "0x6",
          "logIndex": "0xc",
          "removed": false
        },
        {
          "address": "0x4200000000000000000000000000000000000006",
          "topics": [
            "0xddf252ad1be2c89b69c2b068fc378daa952ba7f163c4a11628f55a4df523b3ef",
            "0x000000000000000000000000d3b06cebf099ce7da4accf578aaebfdbd6e88a93",
            "0x0000000000000000000000006486906bb2d85a6c0ccef2a2831c11a2059ebfea"
          ],
          "data": "0x0000000000000000000000000000000000000000000000000023a36f1a3be722",
          "blockHash": "0xabd3f99e9368de5289b609236ccac01080713b575f43f87d7734a9b4b8340890",
          "blockNumber": "0xe50dca",
          "transactionHash": "0x057ddc12c0cbc67fb65fc323ea9efedd418ad2e8e9ab9df63d14bb04e62b887d",
          "transactionIndex": "0x6",
          "logIndex": "0xd",
          "removed": false
        },
        {
          "address": "0x88a2d74f47a237a62e7a51cdda67270ce381555e",
          "topics": [
            "0x8c5be1e5ebec7d5bd14f71427d1e84f3dd0314c0f7b2291e5b200ac8c7c3b925",
            "0x0000000000000000000000001d52bc3415aae68806e3fd44d4cdb0b63e68068a",
            "0x000000000000000000000000d3b06cebf099ce7da4accf578aaebfdbd6e88a93"
          ],
          "data": "0x0000000000000000000000000000000000000000000000000000000000000000",
          "blockHash": "0xabd3f99e9368de5289b609236ccac01080713b575f43f87d7734a9b4b8340890",
          "blockNumber": "0xe50dca",
          "transactionHash": "0x057ddc12c0cbc67fb65fc323ea9efedd418ad2e8e9ab9df63d14bb04e62b887d",
          "transactionIndex": "0x6",
          "logIndex": "0xe",
          "removed": false
        },
        {
          "address": "0x88a2d74f47a237a62e7a51cdda67270ce381555e",
          "topics": [
            "0xddf252ad1be2c89b69c2b068fc378daa952ba7f163c4a11628f55a4df523b3ef",
            "0x0000000000000000000000001d52bc3415aae68806e3fd44d4cdb0b63e68068a",
            "0x000000000000000000000000875207858c691f192c606068f417dcf666b2ec6b"
          ],
          "data": "0x000000000000000000000000000000000000000000000000001c50ac3adc2000",
          "blockHash": "0xabd3f99e9368de5289b609236ccac01080713b575f43f87d7734a9b4b8340890",
          "blockNumber": "0xe50dca",
          "transactionHash": "0x057ddc12c0cbc67fb65fc323ea9efedd418ad2e8e9ab9df63d14bb04e62b887d",
          "transactionIndex": "0x6",
          "logIndex": "0xf",
          "removed": false
        },
        {
          "address": "0x6486906bb2d85a6c0ccef2a2831c11a2059ebfea",
          "topics": [
            "0x1871cdf8010e63f2eb8384381a68dfa7416dc571a5517e66e88b2d2d0c0a690a"
          ],
          "data": "0x00000000000000000000000000000000000000000000000000000000000c2948",
          "blockHash": "0xabd3f99e9368de5289b609236ccac01080713b575f43f87d7734a9b4b8340890",
          "blockNumber": "0xe50dca",
          "transactionHash": "0x057ddc12c0cbc67fb65fc323ea9efedd418ad2e8e9ab9df63d14bb04e62b887d",
          "transactionIndex": "0x6",
          "logIndex": "0x10",
          "removed": false
        },
        {
          "address": "0x875207858c691f192c606068f417dcf666b2ec6b",
          "topics": [
            "0x1871cdf8010e63f2eb8384381a68dfa7416dc571a5517e66e88b2d2d0c0a690a"
          ],
          "data": "0x000000000000000000000000000000000000000000000000001c50ac3adc2000",
          "blockHash": "0xabd3f99e9368de5289b609236ccac01080713b575f43f87d7734a9b4b8340890",
          "blockNumber": "0xe50dca",
          "transactionHash": "0x057ddc12c0cbc67fb65fc323ea9efedd418ad2e8e9ab9df63d14bb04e62b887d",
          "transactionIndex": "0x6",
          "logIndex": "0x11",
          "removed": false
        },
        {
          "address": "0x88a2d74f47a237a62e7a51cdda67270ce381555e",
          "topics": [
            "0xddf252ad1be2c89b69c2b068fc378daa952ba7f163c4a11628f55a4df523b3ef",
            "0x000000000000000000000000875207858c691f192c606068f417dcf666b2ec6b",
            "0x0000000000000000000000000000000000000000000000000000000000000000"
          ],
          "data": "0x000000000000000000000000000000000000000000000000001c50ac3adc2000",
          "blockHash": "0xabd3f99e9368de5289b609236ccac01080713b575f43f87d7734a9b4b8340890",
          "blockNumber": "0xe50dca",
          "transactionHash": "0x057ddc12c0cbc67fb65fc323ea9efedd418ad2e8e9ab9df63d14bb04e62b887d",
          "transactionIndex": "0x6",
          "logIndex": "0x12",
          "removed": false
        },
        {
          "address": "0x875207858c691f192c606068f417dcf666b2ec6b",
          "topics": [
            "0x696de425f79f4a40bc6d2122ca50507f0efbeabbff86a84871b7196ab8ea8df7",
            "0x0000000000000000000000006486906bb2d85a6c0ccef2a2831c11a2059ebfea"
          ],
          "data": "0x000000000000000000000000000000000000000000000000001c50ac3adc2000",
          "blockHash": "0xabd3f99e9368de5289b609236ccac01080713b575f43f87d7734a9b4b8340890",
          "blockNumber": "0xe50dca",
          "transactionHash": "0x057ddc12c0cbc67fb65fc323ea9efedd418ad2e8e9ab9df63d14bb04e62b887d",
          "transactionIndex": "0x6",
          "logIndex": "0x13",
          "removed": false
        },
        {
          "address": "0x6486906bb2d85a6c0ccef2a2831c11a2059ebfea",
          "topics": [
            "0xd0c3c799bf9e2639de44391e7f524d229b2b55f5b1ea94b2bf7da42f7243dddd"
          ],
          "data": "0x00000000000000000000000000000000000000000000000000000000000000200000000000000000000000000000000000000000000000008f90b8876dee65380000000000000000000000001d52bc3415aae68806e3fd44d4cdb0b63e68068a0000000000000000000000008645c75d0c75b859146aebb74076b319c9331c4e000000000000000000000000000000000000000000000000000000000000079500000000000000000000000000000000000000000000000000000000000c35000000000000000000000000000000000000000000000000000000000000000000000000000000000000000000000000000000000000000000000000000000002400000000000000000000000042000000000000000000000000000000000000060000000000000000000000000000000000000000000000000023a36f1a3be72200000000000000000000000000000000000000000000000000000000000001a00000000000000000000000000000000000000000000000000000000000000300000000000000000000000000000000000000000000000000000000000000036074b9200b5526f3ff5951a409d802a43e87f959e22790d2f922f5960b13ddcaf80000000000000000000000000000000000000000000000000000000000000140000000000000000000000000000000000000000000000000000000000000002000000000000000000000000000000000000000000000000000000000000000e5e7a050aa000000000000000000000000ee33ddcfb85e06ac1fd0a4b36f9b6958d5a7d3f0000000000000000000000000fd57b4ddbf88a4e07ff4e34c487b99af2fe82a05000000000000000000000000000000000000000000000000001c50ac3adc20000000000000000000000000008454d149beb26e3e3fc5ed1c87fb0b2a1b7b6c2c0000000000000000000000000000000000000000000000000000000066dd84e6584c704f6996811e276057f795970a9de366648cf380c36d80d579adcede4e931e7c2fe3b93e375567ce81e1d766c563d78dcbf6c5f40d0a25c12f5c05c01a081b000000000000000000000000000000000000000000000000000000000000000000000000000000000000000000000000000000000000000000000100000000000000000000000088a2d74f47a237a62e7a51cdda67270ce381555e000000000000000000000000000000000000000000000000001c50ac3adc2000000000000000000000000000000000000000000000000000000000000000000100000000000000000000000000000000000000000000000000000000000000200000000000000000000000000000000000000000000000000000000000000000",
          "blockHash": "0xabd3f99e9368de5289b609236ccac01080713b575f43f87d7734a9b4b8340890",
          "blockNumber": "0xe50dca",
          "transactionHash": "0x057ddc12c0cbc67fb65fc323ea9efedd418ad2e8e9ab9df63d14bb04e62b887d",
          "transactionIndex": "0x6",
          "logIndex": "0x14",
          "removed": false
        },
        {
          "address": "0x1d52bc3415aae68806e3fd44d4cdb0b63e68068a",
          "topics": [
            "0x437cb3c5ba4364504dda6ba3c906ffb0897c7beeb1675f3aaf22a1b9a99b3994",
            "0x74b9200b5526f3ff5951a409d802a43e87f959e22790d2f922f5960b13ddcaf8",
            "0x000000000000000000000000000000000000000000000000de41ba4fc9d91ad9"
          ],
          "data": "0x0000000000000000000000008645c75d0c75b859146aebb74076b319c9331c4e00000000000000000000000000000000000000000000000000000000000000c000000000000000000000000088a2d74f47a237a62e7a51cdda67270ce381555e000000000000000000000000000000000000000000000000001c50ac3adc200000000000000000000000000000000000000000000000000000000000000000000000000000000000000000000000000000000000000000000023a36f1a3be722000000000000000000000000000000000000000000000000000000000000000f646973706174636865642063616c6c0000000000000000000000000000000000",
          "blockHash": "0xabd3f99e9368de5289b609236ccac01080713b575f43f87d7734a9b4b8340890",
          "blockNumber": "0xe50dca",
          "transactionHash": "0x057ddc12c0cbc67fb65fc323ea9efedd418ad2e8e9ab9df63d14bb04e62b887d",
          "transactionIndex": "0x6",
          "logIndex": "0x15",
          "removed": false
        }
      ],
      "logsBloom": "0x0000002000000000000080a0000000000000000000000000000400000008000000010000000042000020001000000000000000000000000000084000002000000000000000000210000001280000000020000001000000000000000080000000000000000600200800000040000108020400000400000000000002100000000000000001000000000000000000000000000000210020000000001000000000000a0000000000000400000000000000002000000004004000000100000000100000000002000010000000000000000000080000000000080000080000004a20000010000000000000000004000000000004000000000000400000000000000000",
      "type": "0x2",
      "transactionHash": "0x057ddc12c0cbc67fb65fc323ea9efedd418ad2e8e9ab9df63d14bb04e62b887d",
      "transactionIndex": "0x6",
      "blockHash": "0xabd3f99e9368de5289b609236ccac01080713b575f43f87d7734a9b4b8340890",
      "blockNumber": "0xe50dca",
      "gasUsed": "0x46f1d",
      "effectiveGasPrice": "0x86fc46",
      "from": "0x8454d149beb26e3e3fc5ed1c87fb0b2a1b7b6c2c",
      "to": "0x1d52bc3415aae68806e3fd44d4cdb0b63e68068a",
      "contractAddress": null,
      "l1BaseFeeScalar": "0x44d",
      "l1BlobBaseFee": "0x20fbab8dde",
      "l1BlobBaseFeeScalar": "0xa118b",
      "l1Fee": "0x18b744f3c6a1",
      "l1GasPrice": "0x19f8372d3",
      "l1GasUsed": "0x1225"
    }
  ],
  "libraries": [],
  "pending": [],
  "returns": {},
  "timestamp": 1725790841,
  "chain": 84532,
  "commit": "4269c03"
}