{
  "transactions": [
    {
      "hash": "0x684e84eff25f385d190bf6664b3859b94e8fbb44b9e648b90d568e83430e666a",
      "transactionType": "CALL",
      "contractName": null,
      "contractAddress": "0x88a2d74f47a237a62e7a51cdda67270ce381555e",
      "function": "approve(address,uint256)",
      "arguments": [
        "0xD5425269f8371930686F94087bAEbc4Cb015E301",
        "7970000000000000"
      ],
      "transaction": {
        "from": "0x8454d149beb26e3e3fc5ed1c87fb0b2a1b7b6c2c",
        "to": "0x88a2d74f47a237a62e7a51cdda67270ce381555e",
        "gas": "0x108b7",
        "value": "0x0",
        "input": "0x095ea7b3000000000000000000000000d5425269f8371930686f94087baebc4cb015e301000000000000000000000000000000000000000000000000001c50ac3adc2000",
        "nonce": "0x511",
        "chainId": "0x14a34"
      },
      "additionalContracts": [],
      "isFixedGasLimit": false
    },
    {
      "hash": "0xe6bb6bfb11a7f3f59b8a2e28132bf05f711ff2191a68747c64103c28b0f95f8c",
      "transactionType": "CALL",
      "contractName": "TransparentUpgradeableProxy",
      "contractAddress": "0xd5425269f8371930686f94087baebc4cb015e301",
      "function": null,
      "arguments": null,
      "transaction": {
        "from": "0x8454d149beb26e3e3fc5ed1c87fb0b2a1b7b6c2c",
        "to": "0xd5425269f8371930686f94087baebc4cb015e301",
        "gas": "0x62f93",
        "value": "0x23173d336fb0bac",
        "input": "0x1b3565ab000000000000000000000000000000000000000000000000de41ba4fc9d91ad9000000000000000000000000d49fcab0176df22387ebc9cbb086af08c7db536400000000000000000000000000000000000000000000000000000000000000c000000000000000000000000088a2d74f47a237a62e7a51cdda67270ce381555e000000000000000000000000000000000000000000000000001c50ac3adc2000000000000000000000000000000000000000000000000000000000000008b29000000000000000000000000000000000000000000000000000000000000000e5e7a050aa000000000000000000000000ee33ddcfb85e06ac1fd0a4b36f9b6958d5a7d3f0000000000000000000000000fd57b4ddbf88a4e07ff4e34c487b99af2fe82a05000000000000000000000000000000000000000000000000001c50ac3adc20000000000000000000000000008454d149beb26e3e3fc5ed1c87fb0b2a1b7b6c2c0000000000000000000000000000000000000000000000000000000066f97c7ec2ffbbe5587a8bd619bc21ffe354cdc6af66c52d9b6d9222572d0b87620c4a1171b03e21e63d81931148621124860aa7a5d89b3db73958056da54eb0685af6ac1c000000000000000000000000000000000000000000000000000000",
        "nonce": "0x512",
        "chainId": "0x14a34"
      },
      "additionalContracts": [],
      "isFixedGasLimit": false
    }
  ],
  "receipts": [
    {
      "status": "0x1",
      "cumulativeGasUsed": "0x307f2",
      "logs": [
        {
          "address": "0x88a2d74f47a237a62e7a51cdda67270ce381555e",
          "topics": [
            "0x8c5be1e5ebec7d5bd14f71427d1e84f3dd0314c0f7b2291e5b200ac8c7c3b925",
            "0x0000000000000000000000008454d149beb26e3e3fc5ed1c87fb0b2a1b7b6c2c",
            "0x000000000000000000000000d5425269f8371930686f94087baebc4cb015e301"
          ],
          "data": "0x000000000000000000000000000000000000000000000000001c50ac3adc2000",
          "blockHash": "0xc2ca31ea9890afd036ee83921e4aaf17246d0878c4f11feaaaadcb5a4170869a",
          "blockNumber": "0xf3099f",
          "transactionHash": "0x684e84eff25f385d190bf6664b3859b94e8fbb44b9e648b90d568e83430e666a",
          "transactionIndex": "0x3",
          "logIndex": "0x1",
          "removed": false
        }
      ],
      "logsBloom": "0x000000000000000000200000000000000000000000000000000000000008000000000000000000000000000200000000000000008000000000000000002000000000000000000000000000000000000000000000000000000000000000000000000000000000000800000000000000000000000000000000000000000000000000000000000000000000000000000000000000000000000000000000000000000a0000000000000000000000000000000000000000000000000000000000000000000000000000000000000000000000080000000000000000000000000a00000010000000000000000000000000000000000000000000000000000000000000",
      "type": "0x2",
      "transactionHash": "0x684e84eff25f385d190bf6664b3859b94e8fbb44b9e648b90d568e83430e666a",
      "transactionIndex": "0x3",
      "blockHash": "0xc2ca31ea9890afd036ee83921e4aaf17246d0878c4f11feaaaadcb5a4170869a",
      "blockNumber": "0xf3099f",
      "gasUsed": "0xb501",
      "effectiveGasPrice": "0xf4340",
      "from": "0x8454d149beb26e3e3fc5ed1c87fb0b2a1b7b6c2c",
      "to": "0x88a2d74f47a237a62e7a51cdda67270ce381555e",
      "contractAddress": null,
      "l1BaseFeeScalar": "0x44d",
      "l1BlobBaseFee": "0x1",
      "l1BlobBaseFeeScalar": "0xa118b",
      "l1Fee": "0x526fa98a16",
      "l1GasPrice": "0x2ecbd391ac",
      "l1GasUsed": "0x640"
    },
    {
      "status": "0x1",
      "cumulativeGasUsed": "0x7826e",
      "logs": [
        {
          "address": "0x88a2d74f47a237a62e7a51cdda67270ce381555e",
          "topics": [
            "0x8c5be1e5ebec7d5bd14f71427d1e84f3dd0314c0f7b2291e5b200ac8c7c3b925",
            "0x0000000000000000000000008454d149beb26e3e3fc5ed1c87fb0b2a1b7b6c2c",
            "0x000000000000000000000000d5425269f8371930686f94087baebc4cb015e301"
          ],
          "data": "0x0000000000000000000000000000000000000000000000000000000000000000",
          "blockHash": "0xc2ca31ea9890afd036ee83921e4aaf17246d0878c4f11feaaaadcb5a4170869a",
          "blockNumber": "0xf3099f",
          "transactionHash": "0xe6bb6bfb11a7f3f59b8a2e28132bf05f711ff2191a68747c64103c28b0f95f8c",
          "transactionIndex": "0x4",
          "logIndex": "0x2",
          "removed": false
        },
        {
          "address": "0x88a2d74f47a237a62e7a51cdda67270ce381555e",
          "topics": [
            "0xddf252ad1be2c89b69c2b068fc378daa952ba7f163c4a11628f55a4df523b3ef",
            "0x0000000000000000000000008454d149beb26e3e3fc5ed1c87fb0b2a1b7b6c2c",
            "0x000000000000000000000000d5425269f8371930686f94087baebc4cb015e301"
          ],
          "data": "0x000000000000000000000000000000000000000000000000001c50ac3adc2000",
          "blockHash": "0xc2ca31ea9890afd036ee83921e4aaf17246d0878c4f11feaaaadcb5a4170869a",
          "blockNumber": "0xf3099f",
          "transactionHash": "0xe6bb6bfb11a7f3f59b8a2e28132bf05f711ff2191a68747c64103c28b0f95f8c",
          "transactionIndex": "0x4",
          "logIndex": "0x3",
          "removed": false
        },
        {
          "address": "0x88a2d74f47a237a62e7a51cdda67270ce381555e",
          "topics": [
            "0x8c5be1e5ebec7d5bd14f71427d1e84f3dd0314c0f7b2291e5b200ac8c7c3b925",
            "0x000000000000000000000000d5425269f8371930686f94087baebc4cb015e301",
            "0x000000000000000000000000d3b06cebf099ce7da4accf578aaebfdbd6e88a93"
          ],
          "data": "0x000000000000000000000000000000000000000000000000001c50ac3adc2000",
          "blockHash": "0xc2ca31ea9890afd036ee83921e4aaf17246d0878c4f11feaaaadcb5a4170869a",
          "blockNumber": "0xf3099f",
          "transactionHash": "0xe6bb6bfb11a7f3f59b8a2e28132bf05f711ff2191a68747c64103c28b0f95f8c",
          "transactionIndex": "0x4",
          "logIndex": "0x4",
          "removed": false
        },
        {
          "address": "0x4200000000000000000000000000000000000006",
          "topics": [
            "0xe1fffcc4923d04b559f4d29a8bfc6cda04eb5b0d3c460751c2402c5c5cc9109c",
            "0x000000000000000000000000d3b06cebf099ce7da4accf578aaebfdbd6e88a93"
          ],
          "data": "0x000000000000000000000000000000000000000000000000023173d336fb0bac",
          "blockHash": "0xc2ca31ea9890afd036ee83921e4aaf17246d0878c4f11feaaaadcb5a4170869a",
          "blockNumber": "0xf3099f",
          "transactionHash": "0xe6bb6bfb11a7f3f59b8a2e28132bf05f711ff2191a68747c64103c28b0f95f8c",
          "transactionIndex": "0x4",
          "logIndex": "0x5",
          "removed": false
        },
        {
          "address": "0x4200000000000000000000000000000000000006",
          "topics": [
            "0xddf252ad1be2c89b69c2b068fc378daa952ba7f163c4a11628f55a4df523b3ef",
            "0x000000000000000000000000d3b06cebf099ce7da4accf578aaebfdbd6e88a93",
            "0x0000000000000000000000006486906bb2d85a6c0ccef2a2831c11a2059ebfea"
          ],
          "data": "0x000000000000000000000000000000000000000000000000023173d336fb0bac",
          "blockHash": "0xc2ca31ea9890afd036ee83921e4aaf17246d0878c4f11feaaaadcb5a4170869a",
          "blockNumber": "0xf3099f",
          "transactionHash": "0xe6bb6bfb11a7f3f59b8a2e28132bf05f711ff2191a68747c64103c28b0f95f8c",
          "transactionIndex": "0x4",
          "logIndex": "0x6",
          "removed": false
        },
        {
          "address": "0x88a2d74f47a237a62e7a51cdda67270ce381555e",
          "topics": [
            "0x8c5be1e5ebec7d5bd14f71427d1e84f3dd0314c0f7b2291e5b200ac8c7c3b925",
            "0x000000000000000000000000d5425269f8371930686f94087baebc4cb015e301",
            "0x000000000000000000000000d3b06cebf099ce7da4accf578aaebfdbd6e88a93"
          ],
          "data": "0x0000000000000000000000000000000000000000000000000000000000000000",
          "blockHash": "0xc2ca31ea9890afd036ee83921e4aaf17246d0878c4f11feaaaadcb5a4170869a",
          "blockNumber": "0xf3099f",
          "transactionHash": "0xe6bb6bfb11a7f3f59b8a2e28132bf05f711ff2191a68747c64103c28b0f95f8c",
          "transactionIndex": "0x4",
          "logIndex": "0x7",
          "removed": false
        },
        {
          "address": "0x88a2d74f47a237a62e7a51cdda67270ce381555e",
          "topics": [
            "0xddf252ad1be2c89b69c2b068fc378daa952ba7f163c4a11628f55a4df523b3ef",
            "0x000000000000000000000000d5425269f8371930686f94087baebc4cb015e301",
            "0x000000000000000000000000875207858c691f192c606068f417dcf666b2ec6b"
          ],
          "data": "0x000000000000000000000000000000000000000000000000001c50ac3adc2000",
          "blockHash": "0xc2ca31ea9890afd036ee83921e4aaf17246d0878c4f11feaaaadcb5a4170869a",
          "blockNumber": "0xf3099f",
          "transactionHash": "0xe6bb6bfb11a7f3f59b8a2e28132bf05f711ff2191a68747c64103c28b0f95f8c",
          "transactionIndex": "0x4",
          "logIndex": "0x8",
          "removed": false
        },
        {
          "address": "0x6486906bb2d85a6c0ccef2a2831c11a2059ebfea",
          "topics": [
            "0x1871cdf8010e63f2eb8384381a68dfa7416dc571a5517e66e88b2d2d0c0a690a"
          ],
          "data": "0x00000000000000000000000000000000000000000000000000000000000c2948",
          "blockHash": "0xc2ca31ea9890afd036ee83921e4aaf17246d0878c4f11feaaaadcb5a4170869a",
          "blockNumber": "0xf3099f",
          "transactionHash": "0xe6bb6bfb11a7f3f59b8a2e28132bf05f711ff2191a68747c64103c28b0f95f8c",
          "transactionIndex": "0x4",
          "logIndex": "0x9",
          "removed": false
        },
        {
          "address": "0x875207858c691f192c606068f417dcf666b2ec6b",
          "topics": [
            "0x1871cdf8010e63f2eb8384381a68dfa7416dc571a5517e66e88b2d2d0c0a690a"
          ],
          "data": "0x000000000000000000000000000000000000000000000000001c50ac3adc2000",
          "blockHash": "0xc2ca31ea9890afd036ee83921e4aaf17246d0878c4f11feaaaadcb5a4170869a",
          "blockNumber": "0xf3099f",
          "transactionHash": "0xe6bb6bfb11a7f3f59b8a2e28132bf05f711ff2191a68747c64103c28b0f95f8c",
          "transactionIndex": "0x4",
          "logIndex": "0xa",
          "removed": false
        },
        {
          "address": "0x88a2d74f47a237a62e7a51cdda67270ce381555e",
          "topics": [
            "0xddf252ad1be2c89b69c2b068fc378daa952ba7f163c4a11628f55a4df523b3ef",
            "0x000000000000000000000000875207858c691f192c606068f417dcf666b2ec6b",
            "0x0000000000000000000000000000000000000000000000000000000000000000"
          ],
          "data": "0x000000000000000000000000000000000000000000000000001c50ac3adc2000",
          "blockHash": "0xc2ca31ea9890afd036ee83921e4aaf17246d0878c4f11feaaaadcb5a4170869a",
          "blockNumber": "0xf3099f",
          "transactionHash": "0xe6bb6bfb11a7f3f59b8a2e28132bf05f711ff2191a68747c64103c28b0f95f8c",
          "transactionIndex": "0x4",
          "logIndex": "0xb",
          "removed": false
        },
        {
          "address": "0x875207858c691f192c606068f417dcf666b2ec6b",
          "topics": [
            "0x696de425f79f4a40bc6d2122ca50507f0efbeabbff86a84871b7196ab8ea8df7",
            "0x0000000000000000000000006486906bb2d85a6c0ccef2a2831c11a2059ebfea"
          ],
          "data": "0x000000000000000000000000000000000000000000000000001c50ac3adc2000",
          "blockHash": "0xc2ca31ea9890afd036ee83921e4aaf17246d0878c4f11feaaaadcb5a4170869a",
          "blockNumber": "0xf3099f",
          "transactionHash": "0xe6bb6bfb11a7f3f59b8a2e28132bf05f711ff2191a68747c64103c28b0f95f8c",
          "transactionIndex": "0x4",
          "logIndex": "0xc",
          "removed": false
        },
        {
          "address": "0x6486906bb2d85a6c0ccef2a2831c11a2059ebfea",
          "topics": [
            "0xd0c3c799bf9e2639de44391e7f524d229b2b55f5b1ea94b2bf7da42f7243dddd"
          ],
          "data": "0x00000000000000000000000000000000000000000000000000000000000000200000000000000000000000000000000000000000000000008f90b8876dee6538000000000000000000000000d5425269f8371930686f94087baebc4cb015e301000000000000000000000000d49fcab0176df22387ebc9cbb086af08c7db53640000000000000000000000000000000000000000000000000000000000000804000000000000000000000000000000000000000000000000000000000008b290000000000000000000000000000000000000000000000000000000000000000000000000000000000000000000000000000000000000000000000000000000070000000000000000000000004200000000000000000000000000000000000006000000000000000000000000000000000000000000000000023173d336fb0bac00000000000000000000000000000000000000000000000000000000000001a000000000000000000000000000000000000000000000000000000000000003000000000000000000000000000000000000000000000000000000000000000360cc52ba76b1c8cebebf221b645d435030159f0d45d722febb4d721f4f33d4526a0000000000000000000000000000000000000000000000000000000000000140000000000000000000000000000000000000000000000000000000000000002000000000000000000000000000000000000000000000000000000000000000e5e7a050aa000000000000000000000000ee33ddcfb85e06ac1fd0a4b36f9b6958d5a7d3f0000000000000000000000000fd57b4ddbf88a4e07ff4e34c487b99af2fe82a05000000000000000000000000000000000000000000000000001c50ac3adc20000000000000000000000000008454d149beb26e3e3fc5ed1c87fb0b2a1b7b6c2c0000000000000000000000000000000000000000000000000000000066f97c7ec2ffbbe5587a8bd619bc21ffe354cdc6af66c52d9b6d9222572d0b87620c4a1171b03e21e63d81931148621124860aa7a5d89b3db73958056da54eb0685af6ac1c000000000000000000000000000000000000000000000000000000000000000000000000000000000000000000000000000000000000000000000100000000000000000000000088a2d74f47a237a62e7a51cdda67270ce381555e000000000000000000000000000000000000000000000000001c50ac3adc2000000000000000000000000000000000000000000000000000000000000000000100000000000000000000000000000000000000000000000000000000000000200000000000000000000000000000000000000000000000000000000000000000",
          "blockHash": "0xc2ca31ea9890afd036ee83921e4aaf17246d0878c4f11feaaaadcb5a4170869a",
          "blockNumber": "0xf3099f",
          "transactionHash": "0xe6bb6bfb11a7f3f59b8a2e28132bf05f711ff2191a68747c64103c28b0f95f8c",
          "transactionIndex": "0x4",
          "logIndex": "0xd",
          "removed": false
        },
        {
          "address": "0xd5425269f8371930686f94087baebc4cb015e301",
          "topics": [
            "0x6b6da56b1307373f9bd6679da1d5b7f08ce714f80bc3b92807d23fd9064917f8",
            "0xcc52ba76b1c8cebebf221b645d435030159f0d45d722febb4d721f4f33d4526a",
            "0x000000000000000000000000000000000000000000000000de41ba4fc9d91ad9"
          ],
          "data": "0x000000000000000000000000d49fcab0176df22387ebc9cbb086af08c7db536400000000000000000000000088a2d74f47a237a62e7a51cdda67270ce381555e000000000000000000000000000000000000000000000000001c50ac3adc20000000000000000000000000000000000000000000000000000000000000000000000000000000000000000000000000000000000000000000023173d336fb0bac",
          "blockHash": "0xc2ca31ea9890afd036ee83921e4aaf17246d0878c4f11feaaaadcb5a4170869a",
          "blockNumber": "0xf3099f",
          "transactionHash": "0xe6bb6bfb11a7f3f59b8a2e28132bf05f711ff2191a68747c64103c28b0f95f8c",
          "transactionIndex": "0x4",
          "logIndex": "0xe",
          "removed": false
        }
      ],
      "logsBloom": "0x000000202800000000208000000000000000000000000000004400000008000000000000000040000020001200000000000000008000000000080000002000000000001000000210200000080000000020000001000000000000000080000000000000000600000800000040000108020400000400000000000002100000000000000001000000000000000000000000000000210020000000000000000000000a0000000000000400000000000000002000000000004000000100000000100000200002010010000000000000000000080000000000000000080000004a20000010000000020000000000000000000004000000000000402000000000000000",
      "type": "0x2",
      "transactionHash": "0xe6bb6bfb11a7f3f59b8a2e28132bf05f711ff2191a68747c64103c28b0f95f8c",
      "transactionIndex": "0x4",
      "blockHash": "0xc2ca31ea9890afd036ee83921e4aaf17246d0878c4f11feaaaadcb5a4170869a",
      "blockNumber": "0xf3099f",
      "gasUsed": "0x47a7c",
      "effectiveGasPrice": "0xf4340",
      "from": "0x8454d149beb26e3e3fc5ed1c87fb0b2a1b7b6c2c",
      "to": "0xd5425269f8371930686f94087baebc4cb015e301",
      "contractAddress": null,
      "l1BaseFeeScalar": "0x44d",
      "l1BlobBaseFee": "0x1",
      "l1BlobBaseFeeScalar": "0xa118b",
      "l1Fee": "0xf009335a9d",
      "l1GasPrice": "0x2ecbd391ac",
      "l1GasUsed": "0x1232"
    }
  ],
  "libraries": [
    "src/utils/EigenlayerMsgDecoders.sol:AgentOwnerSignature:0x91fFD20C33FecfA496bEfBC1989694652BF4b34A",
    "src/utils/EigenlayerMsgDecoders.sol:DelegationDecoders:0x8EaC1204957052B4f537409afbf30907C4433625",
    "src/utils/EigenlayerMsgEncoders.sol:EigenlayerMsgEncoders:0xe372b3d9A29038f5e73B7710668a68c2D5315A42",
    "src/utils/FunctionSelectorDecoder.sol:FunctionSelectorDecoder:0x186af032108ADD15e87b8098ab764376C824f4D5"
  ],
  "pending": [],
  "returns": {},
  "timestamp": 1727623716,
  "chain": 84532,
  "commit": "cf39f25"
}