{
  "transactions": [
    {
      "hash": "0xe07066254442850504d13ad00062c320ace61f8bc01d0d53375351dd4ea76ccc",
      "transactionType": "CALL",
      "contractName": null,
      "contractAddress": "0x88a2d74f47a237a62e7a51cdda67270ce381555e",
      "function": "approve(address,uint256)",
      "arguments": [
        "0x1D52bC3415AAe68806E3Fd44D4cdb0b63E68068A",
        "7970000000000000"
      ],
      "transaction": {
        "from": "0x8454d149beb26e3e3fc5ed1c87fb0b2a1b7b6c2c",
        "to": "0x88a2d74f47a237a62e7a51cdda67270ce381555e",
        "gas": "0x108b7",
        "value": "0x0",
        "input": "0x095ea7b30000000000000000000000001d52bc3415aae68806e3fd44d4cdb0b63e68068a000000000000000000000000000000000000000000000000001c50ac3adc2000",
        "nonce": "0x32c",
        "chainId": "0x14a34"
      },
      "additionalContracts": [],
      "isFixedGasLimit": false
    },
    {
      "hash": "0x9370119c134fa979fe96431a7ff1bb7ac9fc2aa5e14624b0dc54a2b7f0d7918b",
      "transactionType": "CALL",
      "contractName": "TransparentUpgradeableProxy",
      "contractAddress": "0x1d52bc3415aae68806e3fd44d4cdb0b63e68068a",
      "function": null,
      "arguments": null,
      "transaction": {
        "from": "0x8454d149beb26e3e3fc5ed1c87fb0b2a1b7b6c2c",
        "to": "0x1d52bc3415aae68806e3fd44d4cdb0b63e68068a",
        "gas": "0x67c08",
        "value": "0x142a8ebf6cf800",
        "input": "0x1b3565ab000000000000000000000000000000000000000000000000de41ba4fc9d91ad90000000000000000000000008645c75d0c75b859146aebb74076b319c9331c4e00000000000000000000000000000000000000000000000000000000000000c000000000000000000000000088a2d74f47a237a62e7a51cdda67270ce381555e000000000000000000000000000000000000000000000000001c50ac3adc200000000000000000000000000000000000000000000000000000000000000c350000000000000000000000000000000000000000000000000000000000000000e5e7a050aa000000000000000000000000ee33ddcfb85e06ac1fd0a4b36f9b6958d5a7d3f0000000000000000000000000fd57b4ddbf88a4e07ff4e34c487b99af2fe82a05000000000000000000000000000000000000000000000000001c50ac3adc20000000000000000000000000008454d149beb26e3e3fc5ed1c87fb0b2a1b7b6c2c0000000000000000000000000000000000000000000000000000000066dd2b3e1fb67280f744598ea408433e72e9964d2abea1dd3c7c97c6abed1d202bbc4500010f3fa04cb7750b8484885368a973534b1479b640a2ef8388199e87cfaa4f7b1b000000000000000000000000000000000000000000000000000000",
        "nonce": "0x32d",
        "chainId": "0x14a34"
      },
      "additionalContracts": [],
      "isFixedGasLimit": false
    }
  ],
  "receipts": [
    {
      "status": "0x1",
      "cumulativeGasUsed": "0xf1bea",
      "logs": [
        {
          "address": "0x88a2d74f47a237a62e7a51cdda67270ce381555e",
          "topics": [
            "0x8c5be1e5ebec7d5bd14f71427d1e84f3dd0314c0f7b2291e5b200ac8c7c3b925",
            "0x0000000000000000000000008454d149beb26e3e3fc5ed1c87fb0b2a1b7b6c2c",
            "0x0000000000000000000000001d52bc3415aae68806e3fd44d4cdb0b63e68068a"
          ],
          "data": "0x000000000000000000000000000000000000000000000000001c50ac3adc2000",
          "blockHash": "0x72d158007a257517eb291fde331e56794831f227b86f596c708a686fb08bab08",
          "blockNumber": "0xe4e0f4",
          "transactionHash": "0xe07066254442850504d13ad00062c320ace61f8bc01d0d53375351dd4ea76ccc",
          "transactionIndex": "0x6",
          "logIndex": "0x14",
          "removed": false
        }
      ],
      "logsBloom": "0x000000000000000000000000000000000000000000000000000000000008000000000000000002000000000000000000000000000000000000000000002000000000000000000000000000000000000000000000000000000000000000000000000000000000200800000000000000000000000000000000000000000000000000000000000000000000000000000000000000000000000000000000000000000a0000000000000000000000000000000000000000000000000000000000000000000000000000000000000000000000080000000000000000000000000a00000010000000000000000004000000000000000000000000000000000000000000",
      "type": "0x2",
      "transactionHash": "0xe07066254442850504d13ad00062c320ace61f8bc01d0d53375351dd4ea76ccc",
      "transactionIndex": "0x6",
      "blockHash": "0x72d158007a257517eb291fde331e56794831f227b86f596c708a686fb08bab08",
      "blockNumber": "0xe4e0f4",
      "gasUsed": "0xb501",
      "effectiveGasPrice": "0x89549e",
      "from": "0x8454d149beb26e3e3fc5ed1c87fb0b2a1b7b6c2c",
      "to": "0x88a2d74f47a237a62e7a51cdda67270ce381555e",
      "contractAddress": null,
      "l1BaseFeeScalar": "0x44d",
      "l1BlobBaseFee": "0x124da3022f",
      "l1BlobBaseFeeScalar": "0xa118b",
      "l1Fee": "0x4b8e1f16b74",
      "l1GasPrice": "0xa59b6849",
      "l1GasUsed": "0x640"
    },
    {
      "status": "0x1",
      "cumulativeGasUsed": "0x138afb",
      "logs": [
        {
          "address": "0x88a2d74f47a237a62e7a51cdda67270ce381555e",
          "topics": [
            "0x8c5be1e5ebec7d5bd14f71427d1e84f3dd0314c0f7b2291e5b200ac8c7c3b925",
            "0x0000000000000000000000008454d149beb26e3e3fc5ed1c87fb0b2a1b7b6c2c",
            "0x0000000000000000000000001d52bc3415aae68806e3fd44d4cdb0b63e68068a"
          ],
          "data": "0x0000000000000000000000000000000000000000000000000000000000000000",
          "blockHash": "0x72d158007a257517eb291fde331e56794831f227b86f596c708a686fb08bab08",
          "blockNumber": "0xe4e0f4",
          "transactionHash": "0x9370119c134fa979fe96431a7ff1bb7ac9fc2aa5e14624b0dc54a2b7f0d7918b",
          "transactionIndex": "0x7",
          "logIndex": "0x15",
          "removed": false
        },
        {
          "address": "0x88a2d74f47a237a62e7a51cdda67270ce381555e",
          "topics": [
            "0xddf252ad1be2c89b69c2b068fc378daa952ba7f163c4a11628f55a4df523b3ef",
            "0x0000000000000000000000008454d149beb26e3e3fc5ed1c87fb0b2a1b7b6c2c",
            "0x0000000000000000000000001d52bc3415aae68806e3fd44d4cdb0b63e68068a"
          ],
          "data": "0x000000000000000000000000000000000000000000000000001c50ac3adc2000",
          "blockHash": "0x72d158007a257517eb291fde331e56794831f227b86f596c708a686fb08bab08",
          "blockNumber": "0xe4e0f4",
          "transactionHash": "0x9370119c134fa979fe96431a7ff1bb7ac9fc2aa5e14624b0dc54a2b7f0d7918b",
          "transactionIndex": "0x7",
          "logIndex": "0x16",
          "removed": false
        },
        {
          "address": "0x88a2d74f47a237a62e7a51cdda67270ce381555e",
          "topics": [
            "0x8c5be1e5ebec7d5bd14f71427d1e84f3dd0314c0f7b2291e5b200ac8c7c3b925",
            "0x0000000000000000000000001d52bc3415aae68806e3fd44d4cdb0b63e68068a",
            "0x000000000000000000000000d3b06cebf099ce7da4accf578aaebfdbd6e88a93"
          ],
          "data": "0x000000000000000000000000000000000000000000000000001c50ac3adc2000",
          "blockHash": "0x72d158007a257517eb291fde331e56794831f227b86f596c708a686fb08bab08",
          "blockNumber": "0xe4e0f4",
          "transactionHash": "0x9370119c134fa979fe96431a7ff1bb7ac9fc2aa5e14624b0dc54a2b7f0d7918b",
          "transactionIndex": "0x7",
          "logIndex": "0x17",
          "removed": false
        },
        {
          "address": "0x4200000000000000000000000000000000000006",
          "topics": [
            "0xe1fffcc4923d04b559f4d29a8bfc6cda04eb5b0d3c460751c2402c5c5cc9109c",
            "0x000000000000000000000000d3b06cebf099ce7da4accf578aaebfdbd6e88a93"
          ],
          "data": "0x000000000000000000000000000000000000000000000000000f25c5de4f6038",
          "blockHash": "0x72d158007a257517eb291fde331e56794831f227b86f596c708a686fb08bab08",
          "blockNumber": "0xe4e0f4",
          "transactionHash": "0x9370119c134fa979fe96431a7ff1bb7ac9fc2aa5e14624b0dc54a2b7f0d7918b",
          "transactionIndex": "0x7",
          "logIndex": "0x18",
          "removed": false
        },
        {
          "address": "0x4200000000000000000000000000000000000006",
          "topics": [
            "0xddf252ad1be2c89b69c2b068fc378daa952ba7f163c4a11628f55a4df523b3ef",
            "0x000000000000000000000000d3b06cebf099ce7da4accf578aaebfdbd6e88a93",
            "0x0000000000000000000000006486906bb2d85a6c0ccef2a2831c11a2059ebfea"
          ],
          "data": "0x000000000000000000000000000000000000000000000000000f25c5de4f6038",
          "blockHash": "0x72d158007a257517eb291fde331e56794831f227b86f596c708a686fb08bab08",
          "blockNumber": "0xe4e0f4",
          "transactionHash": "0x9370119c134fa979fe96431a7ff1bb7ac9fc2aa5e14624b0dc54a2b7f0d7918b",
          "transactionIndex": "0x7",
          "logIndex": "0x19",
          "removed": false
        },
        {
          "address": "0x88a2d74f47a237a62e7a51cdda67270ce381555e",
          "topics": [
            "0x8c5be1e5ebec7d5bd14f71427d1e84f3dd0314c0f7b2291e5b200ac8c7c3b925",
            "0x0000000000000000000000001d52bc3415aae68806e3fd44d4cdb0b63e68068a",
            "0x000000000000000000000000d3b06cebf099ce7da4accf578aaebfdbd6e88a93"
          ],
          "data": "0x0000000000000000000000000000000000000000000000000000000000000000",
          "blockHash": "0x72d158007a257517eb291fde331e56794831f227b86f596c708a686fb08bab08",
          "blockNumber": "0xe4e0f4",
          "transactionHash": "0x9370119c134fa979fe96431a7ff1bb7ac9fc2aa5e14624b0dc54a2b7f0d7918b",
          "transactionIndex": "0x7",
          "logIndex": "0x1a",
          "removed": false
        },
        {
          "address": "0x88a2d74f47a237a62e7a51cdda67270ce381555e",
          "topics": [
            "0xddf252ad1be2c89b69c2b068fc378daa952ba7f163c4a11628f55a4df523b3ef",
            "0x0000000000000000000000001d52bc3415aae68806e3fd44d4cdb0b63e68068a",
            "0x000000000000000000000000875207858c691f192c606068f417dcf666b2ec6b"
          ],
          "data": "0x000000000000000000000000000000000000000000000000001c50ac3adc2000",
          "blockHash": "0x72d158007a257517eb291fde331e56794831f227b86f596c708a686fb08bab08",
          "blockNumber": "0xe4e0f4",
          "transactionHash": "0x9370119c134fa979fe96431a7ff1bb7ac9fc2aa5e14624b0dc54a2b7f0d7918b",
          "transactionIndex": "0x7",
          "logIndex": "0x1b",
          "removed": false
        },
        {
          "address": "0x6486906bb2d85a6c0ccef2a2831c11a2059ebfea",
          "topics": [
            "0x1871cdf8010e63f2eb8384381a68dfa7416dc571a5517e66e88b2d2d0c0a690a"
          ],
          "data": "0x00000000000000000000000000000000000000000000000000000000000c2948",
          "blockHash": "0x72d158007a257517eb291fde331e56794831f227b86f596c708a686fb08bab08",
          "blockNumber": "0xe4e0f4",
          "transactionHash": "0x9370119c134fa979fe96431a7ff1bb7ac9fc2aa5e14624b0dc54a2b7f0d7918b",
          "transactionIndex": "0x7",
          "logIndex": "0x1c",
          "removed": false
        },
        {
          "address": "0x875207858c691f192c606068f417dcf666b2ec6b",
          "topics": [
            "0x1871cdf8010e63f2eb8384381a68dfa7416dc571a5517e66e88b2d2d0c0a690a"
          ],
          "data": "0x000000000000000000000000000000000000000000000000001c50ac3adc2000",
          "blockHash": "0x72d158007a257517eb291fde331e56794831f227b86f596c708a686fb08bab08",
          "blockNumber": "0xe4e0f4",
          "transactionHash": "0x9370119c134fa979fe96431a7ff1bb7ac9fc2aa5e14624b0dc54a2b7f0d7918b",
          "transactionIndex": "0x7",
          "logIndex": "0x1d",
          "removed": false
        },
        {
          "address": "0x88a2d74f47a237a62e7a51cdda67270ce381555e",
          "topics": [
            "0xddf252ad1be2c89b69c2b068fc378daa952ba7f163c4a11628f55a4df523b3ef",
            "0x000000000000000000000000875207858c691f192c606068f417dcf666b2ec6b",
            "0x0000000000000000000000000000000000000000000000000000000000000000"
          ],
          "data": "0x000000000000000000000000000000000000000000000000001c50ac3adc2000",
          "blockHash": "0x72d158007a257517eb291fde331e56794831f227b86f596c708a686fb08bab08",
          "blockNumber": "0xe4e0f4",
          "transactionHash": "0x9370119c134fa979fe96431a7ff1bb7ac9fc2aa5e14624b0dc54a2b7f0d7918b",
          "transactionIndex": "0x7",
          "logIndex": "0x1e",
          "removed": false
        },
        {
          "address": "0x875207858c691f192c606068f417dcf666b2ec6b",
          "topics": [
            "0x696de425f79f4a40bc6d2122ca50507f0efbeabbff86a84871b7196ab8ea8df7",
            "0x0000000000000000000000006486906bb2d85a6c0ccef2a2831c11a2059ebfea"
          ],
          "data": "0x000000000000000000000000000000000000000000000000001c50ac3adc2000",
          "blockHash": "0x72d158007a257517eb291fde331e56794831f227b86f596c708a686fb08bab08",
          "blockNumber": "0xe4e0f4",
          "transactionHash": "0x9370119c134fa979fe96431a7ff1bb7ac9fc2aa5e14624b0dc54a2b7f0d7918b",
          "transactionIndex": "0x7",
          "logIndex": "0x1f",
          "removed": false
        },
        {
          "address": "0x6486906bb2d85a6c0ccef2a2831c11a2059ebfea",
          "topics": [
            "0xd0c3c799bf9e2639de44391e7f524d229b2b55f5b1ea94b2bf7da42f7243dddd"
          ],
          "data": "0x00000000000000000000000000000000000000000000000000000000000000200000000000000000000000000000000000000000000000008f90b8876dee65380000000000000000000000001d52bc3415aae68806e3fd44d4cdb0b63e68068a0000000000000000000000008645c75d0c75b859146aebb74076b319c9331c4e000000000000000000000000000000000000000000000000000000000000078900000000000000000000000000000000000000000000000000000000000c3500000000000000000000000000000000000000000000000000000000000000000000000000000000000000000000000000000000000000000000000000000000220000000000000000000000004200000000000000000000000000000000000006000000000000000000000000000000000000000000000000000f25c5de4f603800000000000000000000000000000000000000000000000000000000000001a00000000000000000000000000000000000000000000000000000000000000300000000000000000000000000000000000000000000000000000000000000036092b02bf30c620a87304d13973169a553aadd478e78e1956635356d08368721340000000000000000000000000000000000000000000000000000000000000140000000000000000000000000000000000000000000000000000000000000002000000000000000000000000000000000000000000000000000000000000000e5e7a050aa000000000000000000000000ee33ddcfb85e06ac1fd0a4b36f9b6958d5a7d3f0000000000000000000000000fd57b4ddbf88a4e07ff4e34c487b99af2fe82a05000000000000000000000000000000000000000000000000001c50ac3adc20000000000000000000000000008454d149beb26e3e3fc5ed1c87fb0b2a1b7b6c2c0000000000000000000000000000000000000000000000000000000066dd2b3e1fb67280f744598ea408433e72e9964d2abea1dd3c7c97c6abed1d202bbc4500010f3fa04cb7750b8484885368a973534b1479b640a2ef8388199e87cfaa4f7b1b000000000000000000000000000000000000000000000000000000000000000000000000000000000000000000000000000000000000000000000100000000000000000000000088a2d74f47a237a62e7a51cdda67270ce381555e000000000000000000000000000000000000000000000000001c50ac3adc2000000000000000000000000000000000000000000000000000000000000000000100000000000000000000000000000000000000000000000000000000000000200000000000000000000000000000000000000000000000000000000000000000",
          "blockHash": "0x72d158007a257517eb291fde331e56794831f227b86f596c708a686fb08bab08",
          "blockNumber": "0xe4e0f4",
          "transactionHash": "0x9370119c134fa979fe96431a7ff1bb7ac9fc2aa5e14624b0dc54a2b7f0d7918b",
          "transactionIndex": "0x7",
          "logIndex": "0x20",
          "removed": false
        },
        {
          "address": "0x1d52bc3415aae68806e3fd44d4cdb0b63e68068a",
          "topics": [
            "0x437cb3c5ba4364504dda6ba3c906ffb0897c7beeb1675f3aaf22a1b9a99b3994",
            "0x92b02bf30c620a87304d13973169a553aadd478e78e1956635356d0836872134",
            "0x000000000000000000000000000000000000000000000000de41ba4fc9d91ad9"
          ],
          "data": "0x0000000000000000000000008645c75d0c75b859146aebb74076b319c9331c4e00000000000000000000000000000000000000000000000000000000000000c000000000000000000000000088a2d74f47a237a62e7a51cdda67270ce381555e000000000000000000000000000000000000000000000000001c50ac3adc20000000000000000000000000000000000000000000000000000000000000000000000000000000000000000000000000000000000000000000000f25c5de4f6038000000000000000000000000000000000000000000000000000000000000000f646973706174636865642063616c6c0000000000000000000000000000000000",
          "blockHash": "0x72d158007a257517eb291fde331e56794831f227b86f596c708a686fb08bab08",
          "blockNumber": "0xe4e0f4",
          "transactionHash": "0x9370119c134fa979fe96431a7ff1bb7ac9fc2aa5e14624b0dc54a2b7f0d7918b",
          "transactionIndex": "0x7",
          "logIndex": "0x21",
          "removed": false
        }
      ],
      "logsBloom": "0x000000200000000000008020000000000000000000000000000400000008000000010000000042000020001000000000000000000000000000084010002000000000000000000210000001280000000020000001000000000000000080000000000000000600200800000040000108020400000400000000000002100000000000000001000000000000000000000000000000210020000000000000000000000a0000000000000400000000000000002000000000004000000100000000100000000002000010000000000000000000080000000000080000080000004a20000010000000001000000004000000000004000000000000400002000000000000",
      "type": "0x2",
      "transactionHash": "0x9370119c134fa979fe96431a7ff1bb7ac9fc2aa5e14624b0dc54a2b7f0d7918b",
      "transactionIndex": "0x7",
      "blockHash": "0x72d158007a257517eb291fde331e56794831f227b86f596c708a686fb08bab08",
      "blockNumber": "0xe4e0f4",
      "gasUsed": "0x46f11",
      "effectiveGasPrice": "0x89549e",
      "from": "0x8454d149beb26e3e3fc5ed1c87fb0b2a1b7b6c2c",
      "to": "0x1d52bc3415aae68806e3fd44d4cdb0b63e68068a",
      "contractAddress": null,
      "l1BaseFeeScalar": "0x44d",
      "l1BlobBaseFee": "0x124da3022f",
      "l1BlobBaseFeeScalar": "0xa118b",
      "l1Fee": "0xd8d6ffb11cb",
      "l1GasPrice": "0xa59b6849",
      "l1GasUsed": "0x11ef"
    }
  ],
  "libraries": [],
  "pending": [],
  "returns": {},
  "timestamp": 1725767885,
  "chain": 84532,
  "commit": "4269c03"
}