{
  "transactions": [
    {
      "hash": "0xe55ef1aef5f8ace88d12dc21fd317d73ce9623c25ece321a7edecdaa0aecbaea",
      "transactionType": "CALL",
      "contractName": null,
      "contractAddress": "0x88a2d74f47a237a62e7a51cdda67270ce381555e",
      "function": "approve(address,uint256)",
      "arguments": [
        "0x2a0dd3580658CC32e2D0984051DA5f2312001a13",
        "7970000000000000"
      ],
      "transaction": {
        "from": "0x8454d149beb26e3e3fc5ed1c87fb0b2a1b7b6c2c",
        "to": "0x88a2d74f47a237a62e7a51cdda67270ce381555e",
        "gas": "0xf9f2",
        "value": "0x0",
        "input": "0x095ea7b30000000000000000000000002a0dd3580658cc32e2d0984051da5f2312001a13000000000000000000000000000000000000000000000000001c50ac3adc2000",
        "nonce": "0x424",
        "chainId": "0x14a34"
      },
      "additionalContracts": [],
      "isFixedGasLimit": false
    },
    {
      "hash": "0x07c413e3c1fdf2cbe3f32713e18b25da501152e70af177cf500349270b2449cb",
      "transactionType": "CALL",
      "contractName": "TransparentUpgradeableProxy",
      "contractAddress": "0x2a0dd3580658cc32e2d0984051da5f2312001a13",
      "function": null,
      "arguments": null,
      "transaction": {
        "from": "0x8454d149beb26e3e3fc5ed1c87fb0b2a1b7b6c2c",
        "to": "0x2a0dd3580658cc32e2d0984051da5f2312001a13",
        "gas": "0x63b9f",
        "value": "0x29ce4db8c03f4f",
        "input": "0x1b3565ab000000000000000000000000000000000000000000000000de41ba4fc9d91ad90000000000000000000000000d7135aaf464555e780e2a63f3b1ef0a97b3a49900000000000000000000000000000000000000000000000000000000000000c000000000000000000000000088a2d74f47a237a62e7a51cdda67270ce381555e000000000000000000000000000000000000000000000000001c50ac3adc200000000000000000000000000000000000000000000000000000000000000927c000000000000000000000000000000000000000000000000000000000000000e5e7a050aa000000000000000000000000ee33ddcfb85e06ac1fd0a4b36f9b6958d5a7d3f0000000000000000000000000fd57b4ddbf88a4e07ff4e34c487b99af2fe82a05000000000000000000000000000000000000000000000000001c50ac3adc20000000000000000000000000008454d149beb26e3e3fc5ed1c87fb0b2a1b7b6c2c0000000000000000000000000000000000000000000000000000000066e947aa4f05311a35031d948492e6a6c8645c1ec51385a94db983f61472d679b1b1b4c32fb6e4f438a090ed392be2f9b96b54c81bafc660b293d8345798cf2824140ed31c000000000000000000000000000000000000000000000000000000",
        "nonce": "0x425",
        "chainId": "0x14a34"
      },
      "additionalContracts": [],
      "isFixedGasLimit": false
    }
  ],
  "receipts": [
    {
      "status": "0x1",
      "cumulativeGasUsed": "0xcdf31",
      "logs": [
        {
          "address": "0x88a2d74f47a237a62e7a51cdda67270ce381555e",
          "topics": [
            "0x8c5be1e5ebec7d5bd14f71427d1e84f3dd0314c0f7b2291e5b200ac8c7c3b925",
            "0x0000000000000000000000008454d149beb26e3e3fc5ed1c87fb0b2a1b7b6c2c",
            "0x0000000000000000000000002a0dd3580658cc32e2d0984051da5f2312001a13"
          ],
          "data": "0x000000000000000000000000000000000000000000000000001c50ac3adc2000",
          "blockHash": "0x4ccad1bc25b024ce2d387ac3d5d2d3662f97a3e1aaa1f4df51e562f3a57e1c5e",
          "blockNumber": "0xeaef37",
          "transactionHash": "0xe55ef1aef5f8ace88d12dc21fd317d73ce9623c25ece321a7edecdaa0aecbaea",
          "transactionIndex": "0x6",
          "logIndex": "0xe",
          "removed": false
        }
      ],
      "logsBloom": "0x000000000000000000000000000000000000000000000000000000000008000000000000000000000000000000000000000000000002000000000000002000000000000000000000400000000000000000000000000000000000000000000000000000000000000800000000000000000000000000000000000000000000000000000000000000000000000000000000000000000000000000000000000000000a0000000000000000000000000000000000000000000000000000000000000000000000000000000000000000000000080000000000000000000000000a00000010000000000000000000000000000000000000000000000000000000000000",
      "type": "0x2",
      "transactionHash": "0xe55ef1aef5f8ace88d12dc21fd317d73ce9623c25ece321a7edecdaa0aecbaea",
      "transactionIndex": "0x6",
      "blockHash": "0x4ccad1bc25b024ce2d387ac3d5d2d3662f97a3e1aaa1f4df51e562f3a57e1c5e",
      "blockNumber": "0xeaef37",
      "gasUsed": "0xb4f5",
      "effectiveGasPrice": "0x187ac",
      "from": "0x8454d149beb26e3e3fc5ed1c87fb0b2a1b7b6c2c",
      "to": "0x88a2d74f47a237a62e7a51cdda67270ce381555e",
      "contractAddress": null,
      "l1BaseFeeScalar": "0x44d",
      "l1BlobBaseFee": "0x23ad68e864",
      "l1BlobBaseFeeScalar": "0xa118b",
      "l1Fee": "0x9350562a38c",
      "l1GasPrice": "0x19d80b932",
      "l1GasUsed": "0x640"
    },
    {
      "status": "0x1",
      "cumulativeGasUsed": "0x116265",
      "logs": [
        {
          "address": "0x88a2d74f47a237a62e7a51cdda67270ce381555e",
          "topics": [
            "0x8c5be1e5ebec7d5bd14f71427d1e84f3dd0314c0f7b2291e5b200ac8c7c3b925",
            "0x0000000000000000000000008454d149beb26e3e3fc5ed1c87fb0b2a1b7b6c2c",
            "0x0000000000000000000000002a0dd3580658cc32e2d0984051da5f2312001a13"
          ],
          "data": "0x0000000000000000000000000000000000000000000000000000000000000000",
          "blockHash": "0x4ccad1bc25b024ce2d387ac3d5d2d3662f97a3e1aaa1f4df51e562f3a57e1c5e",
          "blockNumber": "0xeaef37",
          "transactionHash": "0x07c413e3c1fdf2cbe3f32713e18b25da501152e70af177cf500349270b2449cb",
          "transactionIndex": "0x7",
          "logIndex": "0xf",
          "removed": false
        },
        {
          "address": "0x88a2d74f47a237a62e7a51cdda67270ce381555e",
          "topics": [
            "0xddf252ad1be2c89b69c2b068fc378daa952ba7f163c4a11628f55a4df523b3ef",
            "0x0000000000000000000000008454d149beb26e3e3fc5ed1c87fb0b2a1b7b6c2c",
            "0x0000000000000000000000002a0dd3580658cc32e2d0984051da5f2312001a13"
          ],
          "data": "0x000000000000000000000000000000000000000000000000001c50ac3adc2000",
          "blockHash": "0x4ccad1bc25b024ce2d387ac3d5d2d3662f97a3e1aaa1f4df51e562f3a57e1c5e",
          "blockNumber": "0xeaef37",
          "transactionHash": "0x07c413e3c1fdf2cbe3f32713e18b25da501152e70af177cf500349270b2449cb",
          "transactionIndex": "0x7",
          "logIndex": "0x10",
          "removed": false
        },
        {
          "address": "0x88a2d74f47a237a62e7a51cdda67270ce381555e",
          "topics": [
            "0x8c5be1e5ebec7d5bd14f71427d1e84f3dd0314c0f7b2291e5b200ac8c7c3b925",
            "0x0000000000000000000000002a0dd3580658cc32e2d0984051da5f2312001a13",
            "0x000000000000000000000000d3b06cebf099ce7da4accf578aaebfdbd6e88a93"
          ],
          "data": "0x000000000000000000000000000000000000000000000000001c50ac3adc2000",
          "blockHash": "0x4ccad1bc25b024ce2d387ac3d5d2d3662f97a3e1aaa1f4df51e562f3a57e1c5e",
          "blockNumber": "0xeaef37",
          "transactionHash": "0x07c413e3c1fdf2cbe3f32713e18b25da501152e70af177cf500349270b2449cb",
          "transactionIndex": "0x7",
          "logIndex": "0x11",
          "removed": false
        },
        {
          "address": "0x4200000000000000000000000000000000000006",
          "topics": [
            "0xe1fffcc4923d04b559f4d29a8bfc6cda04eb5b0d3c460751c2402c5c5cc9109c",
            "0x000000000000000000000000d3b06cebf099ce7da4accf578aaebfdbd6e88a93"
          ],
          "data": "0x0000000000000000000000000000000000000000000000000029ce4db8c03f4f",
          "blockHash": "0x4ccad1bc25b024ce2d387ac3d5d2d3662f97a3e1aaa1f4df51e562f3a57e1c5e",
          "blockNumber": "0xeaef37",
          "transactionHash": "0x07c413e3c1fdf2cbe3f32713e18b25da501152e70af177cf500349270b2449cb",
          "transactionIndex": "0x7",
          "logIndex": "0x12",
          "removed": false
        },
        {
          "address": "0x4200000000000000000000000000000000000006",
          "topics": [
            "0xddf252ad1be2c89b69c2b068fc378daa952ba7f163c4a11628f55a4df523b3ef",
            "0x000000000000000000000000d3b06cebf099ce7da4accf578aaebfdbd6e88a93",
            "0x0000000000000000000000006486906bb2d85a6c0ccef2a2831c11a2059ebfea"
          ],
          "data": "0x0000000000000000000000000000000000000000000000000029ce4db8c03f4f",
          "blockHash": "0x4ccad1bc25b024ce2d387ac3d5d2d3662f97a3e1aaa1f4df51e562f3a57e1c5e",
          "blockNumber": "0xeaef37",
          "transactionHash": "0x07c413e3c1fdf2cbe3f32713e18b25da501152e70af177cf500349270b2449cb",
          "transactionIndex": "0x7",
          "logIndex": "0x13",
          "removed": false
        },
        {
          "address": "0x88a2d74f47a237a62e7a51cdda67270ce381555e",
          "topics": [
            "0x8c5be1e5ebec7d5bd14f71427d1e84f3dd0314c0f7b2291e5b200ac8c7c3b925",
            "0x0000000000000000000000002a0dd3580658cc32e2d0984051da5f2312001a13",
            "0x000000000000000000000000d3b06cebf099ce7da4accf578aaebfdbd6e88a93"
          ],
          "data": "0x0000000000000000000000000000000000000000000000000000000000000000",
          "blockHash": "0x4ccad1bc25b024ce2d387ac3d5d2d3662f97a3e1aaa1f4df51e562f3a57e1c5e",
          "blockNumber": "0xeaef37",
          "transactionHash": "0x07c413e3c1fdf2cbe3f32713e18b25da501152e70af177cf500349270b2449cb",
          "transactionIndex": "0x7",
          "logIndex": "0x14",
          "removed": false
        },
        {
          "address": "0x88a2d74f47a237a62e7a51cdda67270ce381555e",
          "topics": [
            "0xddf252ad1be2c89b69c2b068fc378daa952ba7f163c4a11628f55a4df523b3ef",
            "0x0000000000000000000000002a0dd3580658cc32e2d0984051da5f2312001a13",
            "0x000000000000000000000000875207858c691f192c606068f417dcf666b2ec6b"
          ],
          "data": "0x000000000000000000000000000000000000000000000000001c50ac3adc2000",
          "blockHash": "0x4ccad1bc25b024ce2d387ac3d5d2d3662f97a3e1aaa1f4df51e562f3a57e1c5e",
          "blockNumber": "0xeaef37",
          "transactionHash": "0x07c413e3c1fdf2cbe3f32713e18b25da501152e70af177cf500349270b2449cb",
          "transactionIndex": "0x7",
          "logIndex": "0x15",
          "removed": false
        },
        {
          "address": "0x6486906bb2d85a6c0ccef2a2831c11a2059ebfea",
          "topics": [
            "0x1871cdf8010e63f2eb8384381a68dfa7416dc571a5517e66e88b2d2d0c0a690a"
          ],
          "data": "0x00000000000000000000000000000000000000000000000000000000000c2948",
          "blockHash": "0x4ccad1bc25b024ce2d387ac3d5d2d3662f97a3e1aaa1f4df51e562f3a57e1c5e",
          "blockNumber": "0xeaef37",
          "transactionHash": "0x07c413e3c1fdf2cbe3f32713e18b25da501152e70af177cf500349270b2449cb",
          "transactionIndex": "0x7",
          "logIndex": "0x16",
          "removed": false
        },
        {
          "address": "0x875207858c691f192c606068f417dcf666b2ec6b",
          "topics": [
            "0x1871cdf8010e63f2eb8384381a68dfa7416dc571a5517e66e88b2d2d0c0a690a"
          ],
          "data": "0x000000000000000000000000000000000000000000000000001c50ac3adc2000",
          "blockHash": "0x4ccad1bc25b024ce2d387ac3d5d2d3662f97a3e1aaa1f4df51e562f3a57e1c5e",
          "blockNumber": "0xeaef37",
          "transactionHash": "0x07c413e3c1fdf2cbe3f32713e18b25da501152e70af177cf500349270b2449cb",
          "transactionIndex": "0x7",
          "logIndex": "0x17",
          "removed": false
        },
        {
          "address": "0x88a2d74f47a237a62e7a51cdda67270ce381555e",
          "topics": [
            "0xddf252ad1be2c89b69c2b068fc378daa952ba7f163c4a11628f55a4df523b3ef",
            "0x000000000000000000000000875207858c691f192c606068f417dcf666b2ec6b",
            "0x0000000000000000000000000000000000000000000000000000000000000000"
          ],
          "data": "0x000000000000000000000000000000000000000000000000001c50ac3adc2000",
          "blockHash": "0x4ccad1bc25b024ce2d387ac3d5d2d3662f97a3e1aaa1f4df51e562f3a57e1c5e",
          "blockNumber": "0xeaef37",
          "transactionHash": "0x07c413e3c1fdf2cbe3f32713e18b25da501152e70af177cf500349270b2449cb",
          "transactionIndex": "0x7",
          "logIndex": "0x18",
          "removed": false
        },
        {
          "address": "0x875207858c691f192c606068f417dcf666b2ec6b",
          "topics": [
            "0x696de425f79f4a40bc6d2122ca50507f0efbeabbff86a84871b7196ab8ea8df7",
            "0x0000000000000000000000006486906bb2d85a6c0ccef2a2831c11a2059ebfea"
          ],
          "data": "0x000000000000000000000000000000000000000000000000001c50ac3adc2000",
          "blockHash": "0x4ccad1bc25b024ce2d387ac3d5d2d3662f97a3e1aaa1f4df51e562f3a57e1c5e",
          "blockNumber": "0xeaef37",
          "transactionHash": "0x07c413e3c1fdf2cbe3f32713e18b25da501152e70af177cf500349270b2449cb",
          "transactionIndex": "0x7",
          "logIndex": "0x19",
          "removed": false
        },
        {
          "address": "0x6486906bb2d85a6c0ccef2a2831c11a2059ebfea",
          "topics": [
            "0xd0c3c799bf9e2639de44391e7f524d229b2b55f5b1ea94b2bf7da42f7243dddd"
          ],
          "data": "0x00000000000000000000000000000000000000000000000000000000000000200000000000000000000000000000000000000000000000008f90b8876dee65380000000000000000000000002a0dd3580658cc32e2d0984051da5f2312001a130000000000000000000000000d7135aaf464555e780e2a63f3b1ef0a97b3a49900000000000000000000000000000000000000000000000000000000000007ce00000000000000000000000000000000000000000000000000000000000927c00000000000000000000000000000000000000000000000000000000000000000000000000000000000000000000000000000000000000000000000000000001000000000000000000000000042000000000000000000000000000000000000060000000000000000000000000000000000000000000000000029ce4db8c03f4f00000000000000000000000000000000000000000000000000000000000001a000000000000000000000000000000000000000000000000000000000000003000000000000000000000000000000000000000000000000000000000000000360a19d67fbe14cae7013a75dc26874faa791ad9f0bf66b2ebbc71830a8424eb7a90000000000000000000000000000000000000000000000000000000000000140000000000000000000000000000000000000000000000000000000000000002000000000000000000000000000000000000000000000000000000000000000e5e7a050aa000000000000000000000000ee33ddcfb85e06ac1fd0a4b36f9b6958d5a7d3f0000000000000000000000000fd57b4ddbf88a4e07ff4e34c487b99af2fe82a05000000000000000000000000000000000000000000000000001c50ac3adc20000000000000000000000000008454d149beb26e3e3fc5ed1c87fb0b2a1b7b6c2c0000000000000000000000000000000000000000000000000000000066e947aa4f05311a35031d948492e6a6c8645c1ec51385a94db983f61472d679b1b1b4c32fb6e4f438a090ed392be2f9b96b54c81bafc660b293d8345798cf2824140ed31c000000000000000000000000000000000000000000000000000000000000000000000000000000000000000000000000000000000000000000000100000000000000000000000088a2d74f47a237a62e7a51cdda67270ce381555e000000000000000000000000000000000000000000000000001c50ac3adc2000000000000000000000000000000000000000000000000000000000000000000100000000000000000000000000000000000000000000000000000000000000200000000000000000000000000000000000000000000000000000000000000000",
          "blockHash": "0x4ccad1bc25b024ce2d387ac3d5d2d3662f97a3e1aaa1f4df51e562f3a57e1c5e",
          "blockNumber": "0xeaef37",
          "transactionHash": "0x07c413e3c1fdf2cbe3f32713e18b25da501152e70af177cf500349270b2449cb",
          "transactionIndex": "0x7",
          "logIndex": "0x1a",
          "removed": false
        },
        {
          "address": "0x2a0dd3580658cc32e2d0984051da5f2312001a13",
          "topics": [
            "0x437cb3c5ba4364504dda6ba3c906ffb0897c7beeb1675f3aaf22a1b9a99b3994",
            "0xa19d67fbe14cae7013a75dc26874faa791ad9f0bf66b2ebbc71830a8424eb7a9",
            "0x000000000000000000000000000000000000000000000000de41ba4fc9d91ad9"
          ],
          "data": "0x0000000000000000000000000d7135aaf464555e780e2a63f3b1ef0a97b3a49900000000000000000000000000000000000000000000000000000000000000c000000000000000000000000088a2d74f47a237a62e7a51cdda67270ce381555e000000000000000000000000000000000000000000000000001c50ac3adc200000000000000000000000000000000000000000000000000000000000000000000000000000000000000000000000000000000000000000000029ce4db8c03f4f000000000000000000000000000000000000000000000000000000000000000f646973706174636865642063616c6c0000000000000000000000000000000000",
          "blockHash": "0x4ccad1bc25b024ce2d387ac3d5d2d3662f97a3e1aaa1f4df51e562f3a57e1c5e",
          "blockNumber": "0xeaef37",
          "transactionHash": "0x07c413e3c1fdf2cbe3f32713e18b25da501152e70af177cf500349270b2449cb",
          "transactionIndex": "0x7",
          "logIndex": "0x1b",
          "removed": false
        }
      ],
      "logsBloom": "0x000000200000000000008020000000000000000000000000000400000008000000010000010040000020001000000000000000000002000000080000002000000000000000000210400000280080000020000001000000000020000080000000000000000600000800000040000108020400000400000000000002100000000000000001000000000000000000000000000000210020000000000000000000000a2000000000000400000000000000002000000000004000000100000000100000000042000010000000000000000000080000000000000000080000004a20000010000000000000000000000000000004000000000000400000000000000004",
      "type": "0x2",
      "transactionHash": "0x07c413e3c1fdf2cbe3f32713e18b25da501152e70af177cf500349270b2449cb",
      "transactionIndex": "0x7",
      "blockHash": "0x4ccad1bc25b024ce2d387ac3d5d2d3662f97a3e1aaa1f4df51e562f3a57e1c5e",
      "blockNumber": "0xeaef37",
      "gasUsed": "0x48334",
      "effectiveGasPrice": "0x187ac",
      "from": "0x8454d149beb26e3e3fc5ed1c87fb0b2a1b7b6c2c",
      "to": "0x2a0dd3580658cc32e2d0984051da5f2312001a13",
      "contractAddress": null,
      "l1BaseFeeScalar": "0x44d",
      "l1BlobBaseFee": "0x23ad68e864",
      "l1BlobBaseFeeScalar": "0xa118b",
      "l1Fee": "0x1aa7b0ff375f",
      "l1GasPrice": "0x19d80b932",
      "l1GasUsed": "0x1218"
    }
  ],
  "libraries": [
    "src/utils/EigenlayerMsgDecoders.sol:AgentOwnerSignature:0xe1483Fa2bbFEADf276b7e3D90b4395041Dfc858f",
    "src/utils/EigenlayerMsgDecoders.sol:DelegationDecoders:0x24e268615e88AAce1E0603cF6c2bec3E8697533B",
    "src/utils/EigenlayerMsgEncoders.sol:EigenlayerMsgEncoders:0xb1e62718F6f0328EEDB329cd277543cc0BBC8cf6",
    "src/utils/FunctionSelectorDecoder.sol:FunctionSelectorDecoder:0x20BC9f23a97E893508bBfdC2e0dBf9cbddf436B5"
  ],
  "pending": [],
  "returns": {},
  "timestamp": 1726561621,
  "chain": 84532,
  "commit": "2d2c0cd"
}