{
  "transactions": [
    {
      "hash": "0x334ec0a94a8691ca2246ee963a55d7f1c2a7d81143966f274df259e3951f6b36",
      "transactionType": "CALL",
      "contractName": null,
      "contractAddress": "0x88a2d74f47a237a62e7a51cdda67270ce381555e",
      "function": "approve(address,uint256)",
      "arguments": [
        "0x2a0dd3580658CC32e2D0984051DA5f2312001a13",
        "7970000000000000"
      ],
      "transaction": {
        "from": "0x8454d149beb26e3e3fc5ed1c87fb0b2a1b7b6c2c",
        "to": "0x88a2d74f47a237a62e7a51cdda67270ce381555e",
        "gas": "0xf9f2",
        "value": "0x0",
        "input": "0x095ea7b30000000000000000000000002a0dd3580658cc32e2d0984051da5f2312001a13000000000000000000000000000000000000000000000000001c50ac3adc2000",
        "nonce": "0x433",
        "chainId": "0x14a34"
      },
      "additionalContracts": [],
      "isFixedGasLimit": false
    },
    {
      "hash": "0xee07eccf8c454d1e58317f9656ff3541f7fa48dcf6af891fc31bc3839cddb75e",
      "transactionType": "CALL",
      "contractName": "TransparentUpgradeableProxy",
      "contractAddress": "0x2a0dd3580658cc32e2d0984051da5f2312001a13",
      "function": null,
      "arguments": null,
      "transaction": {
        "from": "0x8454d149beb26e3e3fc5ed1c87fb0b2a1b7b6c2c",
        "to": "0x2a0dd3580658cc32e2d0984051da5f2312001a13",
        "gas": "0x63b9f",
        "value": "0x1a1fb029d3193a",
        "input": "0x1b3565ab000000000000000000000000000000000000000000000000de41ba4fc9d91ad90000000000000000000000000d7135aaf464555e780e2a63f3b1ef0a97b3a49900000000000000000000000000000000000000000000000000000000000000c000000000000000000000000088a2d74f47a237a62e7a51cdda67270ce381555e000000000000000000000000000000000000000000000000001c50ac3adc200000000000000000000000000000000000000000000000000000000000000927c000000000000000000000000000000000000000000000000000000000000000e5e7a050aa000000000000000000000000ee33ddcfb85e06ac1fd0a4b36f9b6958d5a7d3f0000000000000000000000000fd57b4ddbf88a4e07ff4e34c487b99af2fe82a05000000000000000000000000000000000000000000000000001c50ac3adc20000000000000000000000000008454d149beb26e3e3fc5ed1c87fb0b2a1b7b6c2c0000000000000000000000000000000000000000000000000000000066e9e6c0879d5dd8e6ec57f964f09d241d63d23ff440eba3c888095047bf13b0e302b1e933d54075bde1357486fa3d4c8e2f6715b2487793592eb0e5a1098d9ab189ff5c1b000000000000000000000000000000000000000000000000000000",
        "nonce": "0x434",
        "chainId": "0x14a34"
      },
      "additionalContracts": [],
      "isFixedGasLimit": false
    }
  ],
  "receipts": [
    {
      "status": "0x1",
      "cumulativeGasUsed": "0x65f0b",
      "logs": [
        {
          "address": "0x88a2d74f47a237a62e7a51cdda67270ce381555e",
          "topics": [
            "0x8c5be1e5ebec7d5bd14f71427d1e84f3dd0314c0f7b2291e5b200ac8c7c3b925",
            "0x0000000000000000000000008454d149beb26e3e3fc5ed1c87fb0b2a1b7b6c2c",
            "0x0000000000000000000000002a0dd3580658cc32e2d0984051da5f2312001a13"
          ],
          "data": "0x000000000000000000000000000000000000000000000000001c50ac3adc2000",
          "blockHash": "0x681e73a0e779b4d1ec4d1292a9559752e9c213401513ac5020799b9b43162189",
          "blockNumber": "0xeb3ec1",
          "transactionHash": "0x334ec0a94a8691ca2246ee963a55d7f1c2a7d81143966f274df259e3951f6b36",
          "transactionIndex": "0x4",
          "logIndex": "0x8",
          "removed": false
        }
      ],
      "logsBloom": "0x000000000000000000000000000000000000000000000000000000000008000000000000000000000000000000000000000000000002000000000000002000000000000000000000400000000000000000000000000000000000000000000000000000000000000800000000000000000000000000000000000000000000000000000000000000000000000000000000000000000000000000000000000000000a0000000000000000000000000000000000000000000000000000000000000000000000000000000000000000000000080000000000000000000000000a00000010000000000000000000000000000000000000000000000000000000000000",
      "type": "0x2",
      "transactionHash": "0x334ec0a94a8691ca2246ee963a55d7f1c2a7d81143966f274df259e3951f6b36",
      "transactionIndex": "0x4",
      "blockHash": "0x681e73a0e779b4d1ec4d1292a9559752e9c213401513ac5020799b9b43162189",
      "blockNumber": "0xeb3ec1",
      "gasUsed": "0xb4f5",
      "effectiveGasPrice": "0xece11",
      "from": "0x8454d149beb26e3e3fc5ed1c87fb0b2a1b7b6c2c",
      "to": "0x88a2d74f47a237a62e7a51cdda67270ce381555e",
      "contractAddress": null,
      "l1BaseFeeScalar": "0x44d",
      "l1BlobBaseFee": "0x1",
      "l1BlobBaseFeeScalar": "0xa118b",
      "l1Fee": "0x240e5025e",
      "l1GasPrice": "0x1477bb8e3",
      "l1GasUsed": "0x640"
    },
    {
      "status": "0x1",
      "cumulativeGasUsed": "0xae23f",
      "logs": [
        {
          "address": "0x88a2d74f47a237a62e7a51cdda67270ce381555e",
          "topics": [
            "0x8c5be1e5ebec7d5bd14f71427d1e84f3dd0314c0f7b2291e5b200ac8c7c3b925",
            "0x0000000000000000000000008454d149beb26e3e3fc5ed1c87fb0b2a1b7b6c2c",
            "0x0000000000000000000000002a0dd3580658cc32e2d0984051da5f2312001a13"
          ],
          "data": "0x0000000000000000000000000000000000000000000000000000000000000000",
          "blockHash": "0x681e73a0e779b4d1ec4d1292a9559752e9c213401513ac5020799b9b43162189",
          "blockNumber": "0xeb3ec1",
          "transactionHash": "0xee07eccf8c454d1e58317f9656ff3541f7fa48dcf6af891fc31bc3839cddb75e",
          "transactionIndex": "0x5",
          "logIndex": "0x9",
          "removed": false
        },
        {
          "address": "0x88a2d74f47a237a62e7a51cdda67270ce381555e",
          "topics": [
            "0xddf252ad1be2c89b69c2b068fc378daa952ba7f163c4a11628f55a4df523b3ef",
            "0x0000000000000000000000008454d149beb26e3e3fc5ed1c87fb0b2a1b7b6c2c",
            "0x0000000000000000000000002a0dd3580658cc32e2d0984051da5f2312001a13"
          ],
          "data": "0x000000000000000000000000000000000000000000000000001c50ac3adc2000",
          "blockHash": "0x681e73a0e779b4d1ec4d1292a9559752e9c213401513ac5020799b9b43162189",
          "blockNumber": "0xeb3ec1",
          "transactionHash": "0xee07eccf8c454d1e58317f9656ff3541f7fa48dcf6af891fc31bc3839cddb75e",
          "transactionIndex": "0x5",
          "logIndex": "0xa",
          "removed": false
        },
        {
          "address": "0x88a2d74f47a237a62e7a51cdda67270ce381555e",
          "topics": [
            "0x8c5be1e5ebec7d5bd14f71427d1e84f3dd0314c0f7b2291e5b200ac8c7c3b925",
            "0x0000000000000000000000002a0dd3580658cc32e2d0984051da5f2312001a13",
            "0x000000000000000000000000d3b06cebf099ce7da4accf578aaebfdbd6e88a93"
          ],
          "data": "0x000000000000000000000000000000000000000000000000001c50ac3adc2000",
          "blockHash": "0x681e73a0e779b4d1ec4d1292a9559752e9c213401513ac5020799b9b43162189",
          "blockNumber": "0xeb3ec1",
          "transactionHash": "0xee07eccf8c454d1e58317f9656ff3541f7fa48dcf6af891fc31bc3839cddb75e",
          "transactionIndex": "0x5",
          "logIndex": "0xb",
          "removed": false
        },
        {
          "address": "0x4200000000000000000000000000000000000006",
          "topics": [
            "0xe1fffcc4923d04b559f4d29a8bfc6cda04eb5b0d3c460751c2402c5c5cc9109c",
            "0x000000000000000000000000d3b06cebf099ce7da4accf578aaebfdbd6e88a93"
          ],
          "data": "0x000000000000000000000000000000000000000000000000001a1fb029d3193a",
          "blockHash": "0x681e73a0e779b4d1ec4d1292a9559752e9c213401513ac5020799b9b43162189",
          "blockNumber": "0xeb3ec1",
          "transactionHash": "0xee07eccf8c454d1e58317f9656ff3541f7fa48dcf6af891fc31bc3839cddb75e",
          "transactionIndex": "0x5",
          "logIndex": "0xc",
          "removed": false
        },
        {
          "address": "0x4200000000000000000000000000000000000006",
          "topics": [
            "0xddf252ad1be2c89b69c2b068fc378daa952ba7f163c4a11628f55a4df523b3ef",
            "0x000000000000000000000000d3b06cebf099ce7da4accf578aaebfdbd6e88a93",
            "0x0000000000000000000000006486906bb2d85a6c0ccef2a2831c11a2059ebfea"
          ],
          "data": "0x000000000000000000000000000000000000000000000000001a1fb029d3193a",
          "blockHash": "0x681e73a0e779b4d1ec4d1292a9559752e9c213401513ac5020799b9b43162189",
          "blockNumber": "0xeb3ec1",
          "transactionHash": "0xee07eccf8c454d1e58317f9656ff3541f7fa48dcf6af891fc31bc3839cddb75e",
          "transactionIndex": "0x5",
          "logIndex": "0xd",
          "removed": false
        },
        {
          "address": "0x88a2d74f47a237a62e7a51cdda67270ce381555e",
          "topics": [
            "0x8c5be1e5ebec7d5bd14f71427d1e84f3dd0314c0f7b2291e5b200ac8c7c3b925",
            "0x0000000000000000000000002a0dd3580658cc32e2d0984051da5f2312001a13",
            "0x000000000000000000000000d3b06cebf099ce7da4accf578aaebfdbd6e88a93"
          ],
          "data": "0x0000000000000000000000000000000000000000000000000000000000000000",
          "blockHash": "0x681e73a0e779b4d1ec4d1292a9559752e9c213401513ac5020799b9b43162189",
          "blockNumber": "0xeb3ec1",
          "transactionHash": "0xee07eccf8c454d1e58317f9656ff3541f7fa48dcf6af891fc31bc3839cddb75e",
          "transactionIndex": "0x5",
          "logIndex": "0xe",
          "removed": false
        },
        {
          "address": "0x88a2d74f47a237a62e7a51cdda67270ce381555e",
          "topics": [
            "0xddf252ad1be2c89b69c2b068fc378daa952ba7f163c4a11628f55a4df523b3ef",
            "0x0000000000000000000000002a0dd3580658cc32e2d0984051da5f2312001a13",
            "0x000000000000000000000000875207858c691f192c606068f417dcf666b2ec6b"
          ],
          "data": "0x000000000000000000000000000000000000000000000000001c50ac3adc2000",
          "blockHash": "0x681e73a0e779b4d1ec4d1292a9559752e9c213401513ac5020799b9b43162189",
          "blockNumber": "0xeb3ec1",
          "transactionHash": "0xee07eccf8c454d1e58317f9656ff3541f7fa48dcf6af891fc31bc3839cddb75e",
          "transactionIndex": "0x5",
          "logIndex": "0xf",
          "removed": false
        },
        {
          "address": "0x6486906bb2d85a6c0ccef2a2831c11a2059ebfea",
          "topics": [
            "0x1871cdf8010e63f2eb8384381a68dfa7416dc571a5517e66e88b2d2d0c0a690a"
          ],
          "data": "0x00000000000000000000000000000000000000000000000000000000000c2948",
          "blockHash": "0x681e73a0e779b4d1ec4d1292a9559752e9c213401513ac5020799b9b43162189",
          "blockNumber": "0xeb3ec1",
          "transactionHash": "0xee07eccf8c454d1e58317f9656ff3541f7fa48dcf6af891fc31bc3839cddb75e",
          "transactionIndex": "0x5",
          "logIndex": "0x10",
          "removed": false
        },
        {
          "address": "0x875207858c691f192c606068f417dcf666b2ec6b",
          "topics": [
            "0x1871cdf8010e63f2eb8384381a68dfa7416dc571a5517e66e88b2d2d0c0a690a"
          ],
          "data": "0x000000000000000000000000000000000000000000000000001c50ac3adc2000",
          "blockHash": "0x681e73a0e779b4d1ec4d1292a9559752e9c213401513ac5020799b9b43162189",
          "blockNumber": "0xeb3ec1",
          "transactionHash": "0xee07eccf8c454d1e58317f9656ff3541f7fa48dcf6af891fc31bc3839cddb75e",
          "transactionIndex": "0x5",
          "logIndex": "0x11",
          "removed": false
        },
        {
          "address": "0x88a2d74f47a237a62e7a51cdda67270ce381555e",
          "topics": [
            "0xddf252ad1be2c89b69c2b068fc378daa952ba7f163c4a11628f55a4df523b3ef",
            "0x000000000000000000000000875207858c691f192c606068f417dcf666b2ec6b",
            "0x0000000000000000000000000000000000000000000000000000000000000000"
          ],
          "data": "0x000000000000000000000000000000000000000000000000001c50ac3adc2000",
          "blockHash": "0x681e73a0e779b4d1ec4d1292a9559752e9c213401513ac5020799b9b43162189",
          "blockNumber": "0xeb3ec1",
          "transactionHash": "0xee07eccf8c454d1e58317f9656ff3541f7fa48dcf6af891fc31bc3839cddb75e",
          "transactionIndex": "0x5",
          "logIndex": "0x12",
          "removed": false
        },
        {
          "address": "0x875207858c691f192c606068f417dcf666b2ec6b",
          "topics": [
            "0x696de425f79f4a40bc6d2122ca50507f0efbeabbff86a84871b7196ab8ea8df7",
            "0x0000000000000000000000006486906bb2d85a6c0ccef2a2831c11a2059ebfea"
          ],
          "data": "0x000000000000000000000000000000000000000000000000001c50ac3adc2000",
          "blockHash": "0x681e73a0e779b4d1ec4d1292a9559752e9c213401513ac5020799b9b43162189",
          "blockNumber": "0xeb3ec1",
          "transactionHash": "0xee07eccf8c454d1e58317f9656ff3541f7fa48dcf6af891fc31bc3839cddb75e",
          "transactionIndex": "0x5",
          "logIndex": "0x13",
          "removed": false
        },
        {
          "address": "0x6486906bb2d85a6c0ccef2a2831c11a2059ebfea",
          "topics": [
            "0xd0c3c799bf9e2639de44391e7f524d229b2b55f5b1ea94b2bf7da42f7243dddd"
          ],
          "data": "0x00000000000000000000000000000000000000000000000000000000000000200000000000000000000000000000000000000000000000008f90b8876dee65380000000000000000000000002a0dd3580658cc32e2d0984051da5f2312001a130000000000000000000000000d7135aaf464555e780e2a63f3b1ef0a97b3a49900000000000000000000000000000000000000000000000000000000000007d700000000000000000000000000000000000000000000000000000000000927c0000000000000000000000000000000000000000000000000000000000000000000000000000000000000000000000000000000000000000000000000000000170000000000000000000000004200000000000000000000000000000000000006000000000000000000000000000000000000000000000000001a1fb029d3193a00000000000000000000000000000000000000000000000000000000000001a000000000000000000000000000000000000000000000000000000000000003000000000000000000000000000000000000000000000000000000000000000360b3a8bc1bef4a87586e595183957438e53e7e39d2f2b2ce4ff4b56144d1a0cf2e0000000000000000000000000000000000000000000000000000000000000140000000000000000000000000000000000000000000000000000000000000002000000000000000000000000000000000000000000000000000000000000000e5e7a050aa000000000000000000000000ee33ddcfb85e06ac1fd0a4b36f9b6958d5a7d3f0000000000000000000000000fd57b4ddbf88a4e07ff4e34c487b99af2fe82a05000000000000000000000000000000000000000000000000001c50ac3adc20000000000000000000000000008454d149beb26e3e3fc5ed1c87fb0b2a1b7b6c2c0000000000000000000000000000000000000000000000000000000066e9e6c0879d5dd8e6ec57f964f09d241d63d23ff440eba3c888095047bf13b0e302b1e933d54075bde1357486fa3d4c8e2f6715b2487793592eb0e5a1098d9ab189ff5c1b000000000000000000000000000000000000000000000000000000000000000000000000000000000000000000000000000000000000000000000100000000000000000000000088a2d74f47a237a62e7a51cdda67270ce381555e000000000000000000000000000000000000000000000000001c50ac3adc2000000000000000000000000000000000000000000000000000000000000000000100000000000000000000000000000000000000000000000000000000000000200000000000000000000000000000000000000000000000000000000000000000",
          "blockHash": "0x681e73a0e779b4d1ec4d1292a9559752e9c213401513ac5020799b9b43162189",
          "blockNumber": "0xeb3ec1",
          "transactionHash": "0xee07eccf8c454d1e58317f9656ff3541f7fa48dcf6af891fc31bc3839cddb75e",
          "transactionIndex": "0x5",
          "logIndex": "0x14",
          "removed": false
        },
        {
          "address": "0x2a0dd3580658cc32e2d0984051da5f2312001a13",
          "topics": [
            "0x437cb3c5ba4364504dda6ba3c906ffb0897c7beeb1675f3aaf22a1b9a99b3994",
            "0xb3a8bc1bef4a87586e595183957438e53e7e39d2f2b2ce4ff4b56144d1a0cf2e",
            "0x000000000000000000000000000000000000000000000000de41ba4fc9d91ad9"
          ],
          "data": "0x0000000000000000000000000d7135aaf464555e780e2a63f3b1ef0a97b3a49900000000000000000000000000000000000000000000000000000000000000c000000000000000000000000088a2d74f47a237a62e7a51cdda67270ce381555e000000000000000000000000000000000000000000000000001c50ac3adc20000000000000000000000000000000000000000000000000000000000000000000000000000000000000000000000000000000000000000000001a1fb029d3193a000000000000000000000000000000000000000000000000000000000000000f646973706174636865642063616c6c0000000000000000000000000000000000",
          "blockHash": "0x681e73a0e779b4d1ec4d1292a9559752e9c213401513ac5020799b9b43162189",
          "blockNumber": "0xeb3ec1",
          "transactionHash": "0xee07eccf8c454d1e58317f9656ff3541f7fa48dcf6af891fc31bc3839cddb75e",
          "transactionIndex": "0x5",
          "logIndex": "0x15",
          "removed": false
        }
      ],
      "logsBloom": "0x000000200000000000008020000000000000000000000000000400000008000000010000010040000020001000000000000000000002000000080000002000000000000000000210410000280080000020000001000000000000000080000000000000000600000800000040000108020400000400000000000002100000000000000001000000000000000000000000000000210020000000000000000000000a2000000000000400000000000000002000000000004000000100000000100000000002000010000000000000000000080000000000000000080000004a20000010000000000800000000100000000004000000000000400000000000000000",
      "type": "0x2",
      "transactionHash": "0xee07eccf8c454d1e58317f9656ff3541f7fa48dcf6af891fc31bc3839cddb75e",
      "transactionIndex": "0x5",
      "blockHash": "0x681e73a0e779b4d1ec4d1292a9559752e9c213401513ac5020799b9b43162189",
      "blockNumber": "0xeb3ec1",
      "gasUsed": "0x48334",
      "effectiveGasPrice": "0xece11",
      "from": "0x8454d149beb26e3e3fc5ed1c87fb0b2a1b7b6c2c",
      "to": "0x2a0dd3580658cc32e2d0984051da5f2312001a13",
      "contractAddress": null,
      "l1BaseFeeScalar": "0x44d",
      "l1BlobBaseFee": "0x1",
      "l1BlobBaseFeeScalar": "0xa118b",
      "l1Fee": "0x68623569f",
      "l1GasPrice": "0x1477bb8e3",
      "l1GasUsed": "0x1218"
    }
  ],
  "libraries": [
    "src/utils/EigenlayerMsgDecoders.sol:AgentOwnerSignature:0xe1483Fa2bbFEADf276b7e3D90b4395041Dfc858f",
    "src/utils/EigenlayerMsgDecoders.sol:DelegationDecoders:0x24e268615e88AAce1E0603cF6c2bec3E8697533B",
    "src/utils/EigenlayerMsgEncoders.sol:EigenlayerMsgEncoders:0xb1e62718F6f0328EEDB329cd277543cc0BBC8cf6",
    "src/utils/FunctionSelectorDecoder.sol:FunctionSelectorDecoder:0x20BC9f23a97E893508bBfdC2e0dBf9cbddf436B5"
  ],
  "pending": [],
  "returns": {},
  "timestamp": 1726602346,
  "chain": 84532,
  "commit": "2d2c0cd"
}