{
  "deployments": [
    {
      "transactions": [
        {
          "hash": "0x923475137cbea76ba00306dd95ea8b7cbb12c9f67641173a15c96eb5444a3400",
          "transactionType": "CALL",
          "contractName": null,
          "contractAddress": "0xc2de32c5ac23dab37321f80aaea51cd83558b1b8",
          "function": "allowlistSender(address,bool)",
          "arguments": [
            "0xe2f1b5792604B2E2575825Dd297cf64c6677170F",
            "true"
          ],
          "transaction": {
            "from": "0x8454d149beb26e3e3fc5ed1c87fb0b2a1b7b6c2c",
            "to": "0xc2de32c5ac23dab37321f80aaea51cd83558b1b8",
            "gas": "0x121d4",
            "value": "0x0",
            "input": "0xeab5b02c000000000000000000000000e2f1b5792604b2e2575825dd297cf64c6677170f0000000000000000000000000000000000000000000000000000000000000001",
            "nonce": "0x1b7",
            "chainId": "0x14a34"
          },
          "additionalContracts": [],
          "isFixedGasLimit": false
        },
        {
          "hash": "0x3ff1a72fc013cc2d416c84a04b345feb5ac8c828ab0153bae6832d4cb7924131",
          "transactionType": "CALL",
          "contractName": null,
          "contractAddress": "0xc2de32c5ac23dab37321f80aaea51cd83558b1b8",
          "function": "allowlistSourceChain(uint64,bool)",
          "arguments": [
            "10344971235874465080",
            "true"
          ],
          "transaction": {
            "from": "0x8454d149beb26e3e3fc5ed1c87fb0b2a1b7b6c2c",
            "to": "0xc2de32c5ac23dab37321f80aaea51cd83558b1b8",
            "gas": "0x120d8",
            "value": "0x0",
            "input": "0xdb04fa490000000000000000000000000000000000000000000000008f90b8876dee65380000000000000000000000000000000000000000000000000000000000000001",
            "nonce": "0x1b8",
            "chainId": "0x14a34"
          },
          "additionalContracts": [],
          "isFixedGasLimit": false
        },
        {
          "hash": "0xe4b2556081bc453484bd94c6f1f03f5a1ad9b7e12c79b20fbec5a5d2fe6d0b30",
          "transactionType": "CALL",
          "contractName": null,
          "contractAddress": "0xc2de32c5ac23dab37321f80aaea51cd83558b1b8",
          "function": "allowlistDestinationChain(uint64,bool)",
          "arguments": [
            "16015286601757825753",
            "true"
          ],
          "transaction": {
            "from": "0x8454d149beb26e3e3fc5ed1c87fb0b2a1b7b6c2c",
            "to": "0xc2de32c5ac23dab37321f80aaea51cd83558b1b8",
            "gas": "0xb5d6",
            "value": "0x0",
            "input": "0x96d3b83d000000000000000000000000000000000000000000000000de41ba4fc9d91ad90000000000000000000000000000000000000000000000000000000000000001",
            "nonce": "0x1b9",
            "chainId": "0x14a34"
          },
          "additionalContracts": [],
          "isFixedGasLimit": false
        },
        {
          "hash": "0xcf12dba55663934c5f5f667518c82c38b89a340a56dbcb854fd3d59cb9644673",
          "transactionType": "CALL",
          "contractName": null,
          "contractAddress": "0x88a2d74f47a237a62e7a51cdda67270ce381555e",
          "function": "drip(address)",
          "arguments": [
            "0x8454d149Beb26E3E3FC5eD1C87Fb0B2a1b7B6c2c"
          ],
          "transaction": {
            "from": "0x8454d149beb26e3e3fc5ed1c87fb0b2a1b7b6c2c",
            "to": "0x88a2d74f47a237a62e7a51cdda67270ce381555e",
            "gas": "0xb69c",
            "value": "0x0",
            "input": "0x67a5cd060000000000000000000000008454d149beb26e3e3fc5ed1c87fb0b2a1b7b6c2c",
            "nonce": "0x1ba",
            "chainId": "0x14a34"
          },
          "additionalContracts": [],
          "isFixedGasLimit": false
        }
      ],
      "receipts": [
        {
          "status": "0x1",
          "cumulativeGasUsed": "0x1c1260",
          "logs": [],
          "logsBloom": "0x00000000000000000000000000000000000000000000000000000000000000000000000000000000000000000000000000000000000000000000000000000000000000000000000000000000000000000000000000000000000000000000000000000000000000000000000000000000000000000000000000000000000000000000000000000000000000000000000000000000000000000000000000000000000000000000000000000000000000000000000000000000000000000000000000000000000000000000000000000000000000000000000000000000000000000000000000000000000000000000000000000000000000000000000000000000",
          "type": "0x2",
          "transactionHash": "0x923475137cbea76ba00306dd95ea8b7cbb12c9f67641173a15c96eb5444a3400",
          "transactionIndex": "0x10",
          "blockHash": "0xfe3883a9a961f6823464df420da362b8b8aa94c5a55a49b1c64ff579bb598adf",
          "blockNumber": "0xddf82d",
          "gasUsed": "0xd1d5",
          "effectiveGasPrice": "0x8ffbe4",
          "from": "0x8454d149beb26e3e3fc5ed1c87fb0b2a1b7b6c2c",
          "to": "0xc2de32c5ac23dab37321f80aaea51cd83558b1b8",
          "contractAddress": null,
          "l1BaseFeeScalar": "0x44d",
          "l1BlobBaseFee": "0x11993d0609",
          "l1BlobBaseFeeScalar": "0xa118b",
          "l1Fee": "0x48a901779d7",
          "l1GasPrice": "0xbf9472ee",
          "l1GasUsed": "0x640"
        },
        {
          "status": "0x1",
          "cumulativeGasUsed": "0x1ce37f",
          "logs": [],
          "logsBloom": "0x00000000000000000000000000000000000000000000000000000000000000000000000000000000000000000000000000000000000000000000000000000000000000000000000000000000000000000000000000000000000000000000000000000000000000000000000000000000000000000000000000000000000000000000000000000000000000000000000000000000000000000000000000000000000000000000000000000000000000000000000000000000000000000000000000000000000000000000000000000000000000000000000000000000000000000000000000000000000000000000000000000000000000000000000000000000",
          "type": "0x2",
          "transactionHash": "0x3ff1a72fc013cc2d416c84a04b345feb5ac8c828ab0153bae6832d4cb7924131",
          "transactionIndex": "0x11",
          "blockHash": "0xfe3883a9a961f6823464df420da362b8b8aa94c5a55a49b1c64ff579bb598adf",
          "blockNumber": "0xddf82d",
          "gasUsed": "0xd11f",
          "effectiveGasPrice": "0x8ffbe4",
          "from": "0x8454d149beb26e3e3fc5ed1c87fb0b2a1b7b6c2c",
          "to": "0xc2de32c5ac23dab37321f80aaea51cd83558b1b8",
          "contractAddress": null,
          "l1BaseFeeScalar": "0x44d",
          "l1BlobBaseFee": "0x11993d0609",
          "l1BlobBaseFeeScalar": "0xa118b",
          "l1Fee": "0x48a901779d7",
          "l1GasPrice": "0xbf9472ee",
          "l1GasUsed": "0x640"
        },
        {
          "status": "0x1",
          "cumulativeGasUsed": "0x1d6725",
          "logs": [],
          "logsBloom": "0x00000000000000000000000000000000000000000000000000000000000000000000000000000000000000000000000000000000000000000000000000000000000000000000000000000000000000000000000000000000000000000000000000000000000000000000000000000000000000000000000000000000000000000000000000000000000000000000000000000000000000000000000000000000000000000000000000000000000000000000000000000000000000000000000000000000000000000000000000000000000000000000000000000000000000000000000000000000000000000000000000000000000000000000000000000000",
          "type": "0x2",
          "transactionHash": "0xe4b2556081bc453484bd94c6f1f03f5a1ad9b7e12c79b20fbec5a5d2fe6d0b30",
          "transactionIndex": "0x12",
          "blockHash": "0xfe3883a9a961f6823464df420da362b8b8aa94c5a55a49b1c64ff579bb598adf",
          "blockNumber": "0xddf82d",
          "gasUsed": "0x83a6",
          "effectiveGasPrice": "0x8ffbe4",
          "from": "0x8454d149beb26e3e3fc5ed1c87fb0b2a1b7b6c2c",
          "to": "0xc2de32c5ac23dab37321f80aaea51cd83558b1b8",
          "contractAddress": null,
          "l1BaseFeeScalar": "0x44d",
          "l1BlobBaseFee": "0x11993d0609",
          "l1BlobBaseFeeScalar": "0xa118b",
          "l1Fee": "0x48a901779d7",
          "l1GasPrice": "0xbf9472ee",
          "l1GasUsed": "0x640"
        },
        {
          "status": "0x1",
          "cumulativeGasUsed": "0x207ea5",
          "logs": [
            {
              "address": "0x88a2d74f47a237a62e7a51cdda67270ce381555e",
              "topics": [
                "0xddf252ad1be2c89b69c2b068fc378daa952ba7f163c4a11628f55a4df523b3ef",
                "0x0000000000000000000000000000000000000000000000000000000000000000",
                "0x0000000000000000000000008454d149beb26e3e3fc5ed1c87fb0b2a1b7b6c2c"
              ],
              "data": "0x0000000000000000000000000000000000000000000000000de0b6b3a7640000",
              "blockHash": "0xfe3883a9a961f6823464df420da362b8b8aa94c5a55a49b1c64ff579bb598adf",
              "blockNumber": "0xddf82d",
              "transactionHash": "0xcf12dba55663934c5f5f667518c82c38b89a340a56dbcb854fd3d59cb9644673",
              "transactionIndex": "0x14",
              "logIndex": "0x1f",
              "removed": false
            }
          ],
          "logsBloom": "0x00000000000000000000000000000000000000000000000000000000000800000000000000000000000000000000000000000000000000000000000000000000000000000000000000000008000000000000000000000000000000000000000000000000020000080000000000000800000000000000000000000010000000000000000000000000000000000000000000000000000000000000000000000000080000000000000000000000000000000000000000000000000000000000000000000002000000000000000000000000080000000000000000000000000a20000000000000000000000000000000000000000000000000000000000000000000",
          "type": "0x2",
          "transactionHash": "0xcf12dba55663934c5f5f667518c82c38b89a340a56dbcb854fd3d59cb9644673",
          "transactionIndex": "0x14",
          "blockHash": "0xfe3883a9a961f6823464df420da362b8b8aa94c5a55a49b1c64ff579bb598adf",
          "blockNumber": "0xddf82d",
          "gasUsed": "0x8435",
          "effectiveGasPrice": "0x8ffbe4",
          "from": "0x8454d149beb26e3e3fc5ed1c87fb0b2a1b7b6c2c",
          "to": "0x88a2d74f47a237a62e7a51cdda67270ce381555e",
          "contractAddress": null,
          "l1BaseFeeScalar": "0x44d",
          "l1BlobBaseFee": "0x11993d0609",
          "l1BlobBaseFeeScalar": "0xa118b",
          "l1Fee": "0x48a901779d7",
          "l1GasPrice": "0xbf9472ee",
          "l1GasUsed": "0x640"
        }
      ],
      "libraries": [],
      "pending": [],
      "returns": {},
      "timestamp": 1724862262,
      "chain": 84532,
      "commit": "ed19732"
    },
    {
      "transactions": [
        {
          "hash": "0xe92b216887247dfac05e7196ba757c14577a1973c67a26bed98cc56a06658de6",
          "transactionType": "CALL",
          "contractName": null,
          "contractAddress": "0xe2f1b5792604b2e2575825dd297cf64c6677170f",
          "function": "allowlistSender(address,bool)",
          "arguments": [
            "0xc2De32c5ac23daB37321F80aAea51CD83558B1b8",
            "true"
          ],
          "transaction": {
            "from": "0x8454d149beb26e3e3fc5ed1c87fb0b2a1b7b6c2c",
            "to": "0xe2f1b5792604b2e2575825dd297cf64c6677170f",
            "gas": "0xb6b2",
            "value": "0x0",
            "input": "0xeab5b02c000000000000000000000000c2de32c5ac23dab37321f80aaea51cd83558b1b80000000000000000000000000000000000000000000000000000000000000001",
            "nonce": "0x3b6",
            "chainId": "0xaa36a7"
          },
          "additionalContracts": [],
          "isFixedGasLimit": false
        },
        {
          "hash": "0x4e0955c6816bbf2891784217ead6cb608d1cda8ca1c3ef9177a48470ae62610e",
          "transactionType": "CALL",
          "contractName": null,
          "contractAddress": "0xe2f1b5792604b2e2575825dd297cf64c6677170f",
          "function": "allowlistSourceChain(uint64,bool)",
          "arguments": [
            "10344971235874465080",
            "true"
          ],
          "transaction": {
            "from": "0x8454d149beb26e3e3fc5ed1c87fb0b2a1b7b6c2c",
            "to": "0xe2f1b5792604b2e2575825dd297cf64c6677170f",
            "gas": "0xb5b5",
            "value": "0x0",
            "input": "0xdb04fa490000000000000000000000000000000000000000000000008f90b8876dee65380000000000000000000000000000000000000000000000000000000000000001",
            "nonce": "0x3b7",
            "chainId": "0xaa36a7"
          },
          "additionalContracts": [],
          "isFixedGasLimit": false
        },
        {
          "hash": "0xf0b595736a63f2ea4d099f0601f6de6edd4bba4bab7146545bc8c0fcda79239d",
          "transactionType": "CALL",
          "contractName": null,
          "contractAddress": "0xe2f1b5792604b2e2575825dd297cf64c6677170f",
          "function": "allowlistSourceChain(uint64,bool)",
          "arguments": [
            "16015286601757825753",
            "true"
          ],
          "transaction": {
            "from": "0x8454d149beb26e3e3fc5ed1c87fb0b2a1b7b6c2c",
            "to": "0xe2f1b5792604b2e2575825dd297cf64c6677170f",
            "gas": "0xb5b5",
            "value": "0x0",
            "input": "0xdb04fa49000000000000000000000000000000000000000000000000de41ba4fc9d91ad90000000000000000000000000000000000000000000000000000000000000001",
            "nonce": "0x3b8",
            "chainId": "0xaa36a7"
          },
          "additionalContracts": [],
          "isFixedGasLimit": false
        },
        {
          "hash": "0xa66ef89b67029b843c9dcec66449227a2e85ef759386f97093aeeb509a8163d2",
          "transactionType": "CALL",
          "contractName": null,
          "contractAddress": "0xe2f1b5792604b2e2575825dd297cf64c6677170f",
          "function": "allowlistDestinationChain(uint64,bool)",
          "arguments": [
            "10344971235874465080",
            "true"
          ],
          "transaction": {
            "from": "0x8454d149beb26e3e3fc5ed1c87fb0b2a1b7b6c2c",
            "to": "0xe2f1b5792604b2e2575825dd297cf64c6677170f",
            "gas": "0xb5d6",
            "value": "0x0",
            "input": "0x96d3b83d0000000000000000000000000000000000000000000000008f90b8876dee65380000000000000000000000000000000000000000000000000000000000000001",
            "nonce": "0x3b9",
            "chainId": "0xaa36a7"
          },
          "additionalContracts": [],
          "isFixedGasLimit": false
        },
        {
          "hash": "0x60555fc14436c50f5a1c906aa760f12f843168025cc28717916de78f599d9f07",
          "transactionType": "CALL",
          "contractName": null,
          "contractAddress": "0xfd57b4ddbf88a4e07ff4e34c487b99af2fe82a05",
          "function": "drip(address)",
          "arguments": [
            "0xe2f1b5792604B2E2575825Dd297cf64c6677170F"
          ],
          "transaction": {
            "from": "0x8454d149beb26e3e3fc5ed1c87fb0b2a1b7b6c2c",
            "to": "0xfd57b4ddbf88a4e07ff4e34c487b99af2fe82a05",
            "gas": "0x1230a",
            "value": "0x0",
            "input": "0x67a5cd06000000000000000000000000e2f1b5792604b2e2575825dd297cf64c6677170f",
            "nonce": "0x3ba",
            "chainId": "0xaa36a7"
          },
          "additionalContracts": [],
          "isFixedGasLimit": false
        }
      ],
      "receipts": [
        {
          "status": "0x1",
          "cumulativeGasUsed": "0xa61bf4",
          "logs": [],
          "logsBloom": "0x00000000000000000000000000000000000000000000000000000000000000000000000000000000000000000000000000000000000000000000000000000000000000000000000000000000000000000000000000000000000000000000000000000000000000000000000000000000000000000000000000000000000000000000000000000000000000000000000000000000000000000000000000000000000000000000000000000000000000000000000000000000000000000000000000000000000000000000000000000000000000000000000000000000000000000000000000000000000000000000000000000000000000000000000000000000",
          "type": "0x2",
          "transactionHash": "0xe92b216887247dfac05e7196ba757c14577a1973c67a26bed98cc56a06658de6",
          "transactionIndex": "0x31",
          "blockHash": "0x114cda54817f9f927ba39137852e9d21a751b057ad96013c5a8875cbe0b7dec2",
          "blockNumber": "0x648864",
          "gasUsed": "0x8445",
          "effectiveGasPrice": "0x179da3d16",
          "from": "0x8454d149beb26e3e3fc5ed1c87fb0b2a1b7b6c2c",
          "to": "0xe2f1b5792604b2e2575825dd297cf64c6677170f",
          "contractAddress": null
        },
        {
          "status": "0x1",
          "cumulativeGasUsed": "0xa69f83",
          "logs": [],
          "logsBloom": "0x00000000000000000000000000000000000000000000000000000000000000000000000000000000000000000000000000000000000000000000000000000000000000000000000000000000000000000000000000000000000000000000000000000000000000000000000000000000000000000000000000000000000000000000000000000000000000000000000000000000000000000000000000000000000000000000000000000000000000000000000000000000000000000000000000000000000000000000000000000000000000000000000000000000000000000000000000000000000000000000000000000000000000000000000000000000",
          "type": "0x2",
          "transactionHash": "0x4e0955c6816bbf2891784217ead6cb608d1cda8ca1c3ef9177a48470ae62610e",
          "transactionIndex": "0x32",
          "blockHash": "0x114cda54817f9f927ba39137852e9d21a751b057ad96013c5a8875cbe0b7dec2",
          "blockNumber": "0x648864",
          "gasUsed": "0x838f",
          "effectiveGasPrice": "0x179da3d16",
          "from": "0x8454d149beb26e3e3fc5ed1c87fb0b2a1b7b6c2c",
          "to": "0xe2f1b5792604b2e2575825dd297cf64c6677170f",
          "contractAddress": null
        },
        {
          "status": "0x1",
          "cumulativeGasUsed": "0xa72312",
          "logs": [],
          "logsBloom": "0x00000000000000000000000000000000000000000000000000000000000000000000000000000000000000000000000000000000000000000000000000000000000000000000000000000000000000000000000000000000000000000000000000000000000000000000000000000000000000000000000000000000000000000000000000000000000000000000000000000000000000000000000000000000000000000000000000000000000000000000000000000000000000000000000000000000000000000000000000000000000000000000000000000000000000000000000000000000000000000000000000000000000000000000000000000000",
          "type": "0x2",
          "transactionHash": "0xf0b595736a63f2ea4d099f0601f6de6edd4bba4bab7146545bc8c0fcda79239d",
          "transactionIndex": "0x33",
          "blockHash": "0x114cda54817f9f927ba39137852e9d21a751b057ad96013c5a8875cbe0b7dec2",
          "blockNumber": "0x648864",
          "gasUsed": "0x838f",
          "effectiveGasPrice": "0x179da3d16",
          "from": "0x8454d149beb26e3e3fc5ed1c87fb0b2a1b7b6c2c",
          "to": "0xe2f1b5792604b2e2575825dd297cf64c6677170f",
          "contractAddress": null
        },
        {
          "status": "0x1",
          "cumulativeGasUsed": "0xa7a6b8",
          "logs": [],
          "logsBloom": "0x00000000000000000000000000000000000000000000000000000000000000000000000000000000000000000000000000000000000000000000000000000000000000000000000000000000000000000000000000000000000000000000000000000000000000000000000000000000000000000000000000000000000000000000000000000000000000000000000000000000000000000000000000000000000000000000000000000000000000000000000000000000000000000000000000000000000000000000000000000000000000000000000000000000000000000000000000000000000000000000000000000000000000000000000000000000",
          "type": "0x2",
          "transactionHash": "0xa66ef89b67029b843c9dcec66449227a2e85ef759386f97093aeeb509a8163d2",
          "transactionIndex": "0x34",
          "blockHash": "0x114cda54817f9f927ba39137852e9d21a751b057ad96013c5a8875cbe0b7dec2",
          "blockNumber": "0x648864",
          "gasUsed": "0x83a6",
          "effectiveGasPrice": "0x179da3d16",
          "from": "0x8454d149beb26e3e3fc5ed1c87fb0b2a1b7b6c2c",
          "to": "0xe2f1b5792604b2e2575825dd297cf64c6677170f",
          "contractAddress": null
        },
        {
          "status": "0x1",
          "cumulativeGasUsed": "0xa86db9",
          "logs": [
            {
              "address": "0xfd57b4ddbf88a4e07ff4e34c487b99af2fe82a05",
              "topics": [
                "0xddf252ad1be2c89b69c2b068fc378daa952ba7f163c4a11628f55a4df523b3ef",
                "0x0000000000000000000000000000000000000000000000000000000000000000",
                "0x000000000000000000000000e2f1b5792604b2e2575825dd297cf64c6677170f"
              ],
              "data": "0x0000000000000000000000000000000000000000000000000de0b6b3a7640000",
              "blockHash": "0x114cda54817f9f927ba39137852e9d21a751b057ad96013c5a8875cbe0b7dec2",
              "blockNumber": "0x648864",
              "transactionHash": "0x60555fc14436c50f5a1c906aa760f12f843168025cc28717916de78f599d9f07",
              "transactionIndex": "0x35",
              "logIndex": "0x8a",
              "removed": false
            }
          ],
          "logsBloom": "0x00000002000000000000000000000000000000000000000000000000000000000400000000000000000000000000000000000000000100000000000000000000000000000000000000000008000000000000000000000000000000000000000000000000020000000000000000000800000000000000000000000010000000000000000000000100000000000000000000000000000000000000000000000000000000000000000040000000000000080000000000000000000000000000000000000002000000000000000000000000000000000000000000000000000020000000000000000000000000000000000000000000000000000000000000000000",
          "type": "0x2",
          "transactionHash": "0x60555fc14436c50f5a1c906aa760f12f843168025cc28717916de78f599d9f07",
          "transactionIndex": "0x35",
          "blockHash": "0x114cda54817f9f927ba39137852e9d21a751b057ad96013c5a8875cbe0b7dec2",
          "blockNumber": "0x648864",
          "gasUsed": "0xc701",
          "effectiveGasPrice": "0x179da3d16",
          "from": "0x8454d149beb26e3e3fc5ed1c87fb0b2a1b7b6c2c",
          "to": "0xfd57b4ddbf88a4e07ff4e34c487b99af2fe82a05",
          "contractAddress": null
        }
      ],
      "libraries": [],
      "pending": [],
      "returns": {},
      "timestamp": 1724862263,
      "chain": 11155111,
      "commit": "ed19732"
    }
  ],
  "timestamp": 1724862279
}