{
  "deployments": [
    {
      "transactions": [
        {
          "hash": "0xb397476700f460157c6fa0095bb2aa38e769b631188c13964d9c831ef5271ae1",
          "transactionType": "CALL",
          "contractName": null,
          "contractAddress": "0xd5425269f8371930686f94087baebc4cb015e301",
          "function": "allowlistSender(address,bool)",
          "arguments": [
            "0xd49FCab0176df22387EBc9Cbb086af08C7dB5364",
            "true"
          ],
          "transaction": {
            "from": "0x8454d149beb26e3e3fc5ed1c87fb0b2a1b7b6c2c",
            "to": "0xd5425269f8371930686f94087baebc4cb015e301",
            "gas": "0xc13f",
            "value": "0x0",
            "input": "0xeab5b02c000000000000000000000000d49fcab0176df22387ebc9cbb086af08c7db53640000000000000000000000000000000000000000000000000000000000000001",
            "nonce": "0x513",
            "chainId": "0x14a34"
          },
          "additionalContracts": [],
          "isFixedGasLimit": false
        },
        {
          "hash": "0x5abd8bf4bb488f4e6b916f3c4d351de90677d823c540ba6285b33b453f2eef8a",
          "transactionType": "CALL",
          "contractName": null,
          "contractAddress": "0xd5425269f8371930686f94087baebc4cb015e301",
          "function": "allowlistSourceChain(uint64,bool)",
          "arguments": [
            "10344971235874465080",
            "true"
          ],
          "transaction": {
            "from": "0x8454d149beb26e3e3fc5ed1c87fb0b2a1b7b6c2c",
            "to": "0xd5425269f8371930686f94087baebc4cb015e301",
            "gas": "0xb587",
            "value": "0x0",
            "input": "0xdb04fa490000000000000000000000000000000000000000000000008f90b8876dee65380000000000000000000000000000000000000000000000000000000000000001",
            "nonce": "0x514",
            "chainId": "0x14a34"
          },
          "additionalContracts": [],
          "isFixedGasLimit": false
        },
        {
          "hash": "0x0131b8322953d78380d3c9d773fbe5fb99958f685516172b08d5bdf21aaf46d9",
          "transactionType": "CALL",
          "contractName": null,
          "contractAddress": "0xd5425269f8371930686f94087baebc4cb015e301",
          "function": "allowlistDestinationChain(uint64,bool)",
          "arguments": [
            "16015286601757825753",
            "true"
          ],
          "transaction": {
            "from": "0x8454d149beb26e3e3fc5ed1c87fb0b2a1b7b6c2c",
            "to": "0xd5425269f8371930686f94087baebc4cb015e301",
            "gas": "0xb5a7",
            "value": "0x0",
            "input": "0x96d3b83d000000000000000000000000000000000000000000000000de41ba4fc9d91ad90000000000000000000000000000000000000000000000000000000000000001",
            "nonce": "0x515",
            "chainId": "0x14a34"
          },
          "additionalContracts": [],
          "isFixedGasLimit": false
        },
        {
          "hash": "0x39b366f042efaf810cfc99821f70b2e35ff6bc7371b768ee9d7ec4209b00a1cd",
          "transactionType": "CALL",
          "contractName": null,
          "contractAddress": "0xf377856082ed5e1e66cd309a3b84fd2d7251241c",
          "function": "setGasLimitsForFunctionSelectors(bytes4[],uint256[])",
          "arguments": [
            "[0xe7a050aa, 0xcc15a557, 0x0dd8dd02, 0x60d7faed, 0xeea9064b, 0xda8be864, 0x3ccc861d]",
            "[410000, 290000, 315000, 560000, 350000, 340000, 540000]"
          ],
          "transaction": {
            "from": "0x8454d149beb26e3e3fc5ed1c87fb0b2a1b7b6c2c",
            "to": "0xf377856082ed5e1e66cd309a3b84fd2d7251241c",
            "gas": "0x16009",
            "value": "0x0",
            "input": "0x3ef2d377000000000000000000000000000000000000000000000000000000000000004000000000000000000000000000000000000000000000000000000000000001400000000000000000000000000000000000000000000000000000000000000007e7a050aa00000000000000000000000000000000000000000000000000000000cc15a557000000000000000000000000000000000000000000000000000000000dd8dd020000000000000000000000000000000000000000000000000000000060d7faed00000000000000000000000000000000000000000000000000000000eea9064b00000000000000000000000000000000000000000000000000000000da8be864000000000000000000000000000000000000000000000000000000003ccc861d00000000000000000000000000000000000000000000000000000000000000000000000000000000000000000000000000000000000000000000000700000000000000000000000000000000000000000000000000000000000641900000000000000000000000000000000000000000000000000000000000046cd0000000000000000000000000000000000000000000000000000000000004ce780000000000000000000000000000000000000000000000000000000000088b80000000000000000000000000000000000000000000000000000000000005573000000000000000000000000000000000000000000000000000000000000530200000000000000000000000000000000000000000000000000000000000083d60",
            "nonce": "0x516",
            "chainId": "0x14a34"
          },
          "additionalContracts": [],
          "isFixedGasLimit": false
        },
        {
          "hash": "0x6200750365dd2d204cd82a8fd1608cc931b39b3578cda29202e411b2f10a6dd5",
          "transactionType": "CALL",
          "contractName": null,
          "contractAddress": "0xf377856082ed5e1e66cd309a3b84fd2d7251241c",
          "function": "setSenderCCIP(address)",
          "arguments": [
            "0xD5425269f8371930686F94087bAEbc4Cb015E301"
          ],
          "transaction": {
            "from": "0x8454d149beb26e3e3fc5ed1c87fb0b2a1b7b6c2c",
            "to": "0xf377856082ed5e1e66cd309a3b84fd2d7251241c",
            "gas": "0xb53d",
            "value": "0x0",
            "input": "0xd8d6c31a000000000000000000000000d5425269f8371930686f94087baebc4cb015e301",
            "nonce": "0x517",
            "chainId": "0x14a34"
          },
          "additionalContracts": [],
          "isFixedGasLimit": false
        },
        {
          "hash": "0xd928c87c191cdc5c64339eedc2a3ec0186161a42d654b694627742046b0bbe69",
          "transactionType": "CALL",
          "contractName": null,
          "contractAddress": "0xd5425269f8371930686f94087baebc4cb015e301",
          "function": "getSenderHooks()",
          "arguments": [],
          "transaction": {
            "from": "0x8454d149beb26e3e3fc5ed1c87fb0b2a1b7b6c2c",
            "to": "0xd5425269f8371930686f94087baebc4cb015e301",
            "gas": "0xafa5",
            "value": "0x0",
            "input": "0xe09df825",
            "nonce": "0x518",
            "chainId": "0x14a34"
          },
          "additionalContracts": [],
          "isFixedGasLimit": false
        },
        {
          "hash": "0x5479e3c203a05ff5b9b65565e5323019a7dcb907e6d1c593e9688768ca65748c",
          "transactionType": "CALL",
          "contractName": null,
          "contractAddress": "0xd5425269f8371930686f94087baebc4cb015e301",
          "function": "allowlistedSenders(address)",
          "arguments": [
            "0xd49FCab0176df22387EBc9Cbb086af08C7dB5364"
          ],
          "transaction": {
            "from": "0x8454d149beb26e3e3fc5ed1c87fb0b2a1b7b6c2c",
            "to": "0xd5425269f8371930686f94087baebc4cb015e301",
            "gas": "0xa8c0",
            "value": "0x0",
            "input": "0x6159ada1000000000000000000000000d49fcab0176df22387ebc9cbb086af08c7db5364",
            "nonce": "0x519",
            "chainId": "0x14a34"
          },
          "additionalContracts": [],
          "isFixedGasLimit": false
        },
        {
          "hash": "0x47cc169580ee8e1f52cf4aaf62bb5a09b5362fdc917e5adc73390ed4ec6c9912",
          "transactionType": "CALL",
          "contractName": null,
          "contractAddress": "0xd5425269f8371930686f94087baebc4cb015e301",
          "function": "allowlistedSourceChains(uint64)",
          "arguments": [
            "16015286601757825753"
          ],
          "transaction": {
            "from": "0x8454d149beb26e3e3fc5ed1c87fb0b2a1b7b6c2c",
            "to": "0xd5425269f8371930686f94087baebc4cb015e301",
            "gas": "0xa840",
            "value": "0x0",
            "input": "0x4030d521000000000000000000000000000000000000000000000000de41ba4fc9d91ad9",
            "nonce": "0x51a",
            "chainId": "0x14a34"
          },
          "additionalContracts": [],
          "isFixedGasLimit": false
        },
        {
          "hash": "0x78b00310702a33eeaa5865385a96928417c1e435dd4aa225b09fadfcd0a4845b",
          "transactionType": "CALL",
          "contractName": null,
          "contractAddress": "0xd5425269f8371930686f94087baebc4cb015e301",
          "function": "allowlistedDestinationChains(uint64)",
          "arguments": [
            "16015286601757825753"
          ],
          "transaction": {
            "from": "0x8454d149beb26e3e3fc5ed1c87fb0b2a1b7b6c2c",
            "to": "0xd5425269f8371930686f94087baebc4cb015e301",
            "gas": "0xa83e",
            "value": "0x0",
            "input": "0x75c67c66000000000000000000000000000000000000000000000000de41ba4fc9d91ad9",
            "nonce": "0x51b",
            "chainId": "0x14a34"
          },
          "additionalContracts": [],
          "isFixedGasLimit": false
        }
      ],
      "receipts": [
        {
          "status": "0x1",
          "cumulativeGasUsed": "0x56ab9b",
          "logs": [],
          "logsBloom": "0x00000000000000000000000000000000000000000000000000000000000000000000000000000000000000000000000000000000000000000000000000000000000000000000000000000000000000000000000000000000000000000000000000000000000000000000000000000000000000000000000000000000000000000000000000000000000000000000000000000000000000000000000000000000000000000000000000000000000000000000000000000000000000000000000000000000000000000000000000000000000000000000000000000000000000000000000000000000000000000000000000000000000000000000000000000000",
          "type": "0x2",
          "transactionHash": "0xb397476700f460157c6fa0095bb2aa38e769b631188c13964d9c831ef5271ae1",
          "transactionIndex": "0x22",
          "blockHash": "0xf082d69545df9e6567973ee1f056d25b6bf43a48d4da5a6dbe5c8e0f98dd45a2",
          "blockNumber": "0x1567ee4",
          "gasUsed": "0x8423",
          "effectiveGasPrice": "0x759da",
          "from": "0x8454d149beb26e3e3fc5ed1c87fb0b2a1b7b6c2c",
          "to": "0xd5425269f8371930686f94087baebc4cb015e301",
          "contractAddress": null,
          "l1BaseFeeScalar": "0x44d",
          "l1BlobBaseFee": "0x6304a6b4ac",
          "l1BlobBaseFeeScalar": "0xa118b",
          "l1Fee": "0x199643eb930c",
          "l1GasPrice": "0x963dba73f",
          "l1GasUsed": "0x640"
        },
        {
          "status": "0x1",
          "cumulativeGasUsed": "0x572f08",
          "logs": [],
          "logsBloom": "0x00000000000000000000000000000000000000000000000000000000000000000000000000000000000000000000000000000000000000000000000000000000000000000000000000000000000000000000000000000000000000000000000000000000000000000000000000000000000000000000000000000000000000000000000000000000000000000000000000000000000000000000000000000000000000000000000000000000000000000000000000000000000000000000000000000000000000000000000000000000000000000000000000000000000000000000000000000000000000000000000000000000000000000000000000000000",
          "type": "0x2",
          "transactionHash": "0x5abd8bf4bb488f4e6b916f3c4d351de90677d823c540ba6285b33b453f2eef8a",
          "transactionIndex": "0x23",
          "blockHash": "0xf082d69545df9e6567973ee1f056d25b6bf43a48d4da5a6dbe5c8e0f98dd45a2",
          "blockNumber": "0x1567ee4",
          "gasUsed": "0x836d",
          "effectiveGasPrice": "0x759da",
          "from": "0x8454d149beb26e3e3fc5ed1c87fb0b2a1b7b6c2c",
          "to": "0xd5425269f8371930686f94087baebc4cb015e301",
          "contractAddress": null,
          "l1BaseFeeScalar": "0x44d",
          "l1BlobBaseFee": "0x6304a6b4ac",
          "l1BlobBaseFeeScalar": "0xa118b",
          "l1Fee": "0x199643eb930c",
          "l1GasPrice": "0x963dba73f",
          "l1GasUsed": "0x640"
        },
        {
          "status": "0x1",
          "cumulativeGasUsed": "0x5b20d8",
          "logs": [],
          "logsBloom": "0x00000000000000000000000000000000000000000000000000000000000000000000000000000000000000000000000000000000000000000000000000000000000000000000000000000000000000000000000000000000000000000000000000000000000000000000000000000000000000000000000000000000000000000000000000000000000000000000000000000000000000000000000000000000000000000000000000000000000000000000000000000000000000000000000000000000000000000000000000000000000000000000000000000000000000000000000000000000000000000000000000000000000000000000000000000000",
          "type": "0x2",
          "transactionHash": "0x0131b8322953d78380d3c9d773fbe5fb99958f685516172b08d5bdf21aaf46d9",
          "transactionIndex": "0x25",
          "blockHash": "0xf082d69545df9e6567973ee1f056d25b6bf43a48d4da5a6dbe5c8e0f98dd45a2",
          "blockNumber": "0x1567ee4",
          "gasUsed": "0x8384",
          "effectiveGasPrice": "0x759da",
          "from": "0x8454d149beb26e3e3fc5ed1c87fb0b2a1b7b6c2c",
          "to": "0xd5425269f8371930686f94087baebc4cb015e301",
          "contractAddress": null,
          "l1BaseFeeScalar": "0x44d",
          "l1BlobBaseFee": "0x6304a6b4ac",
          "l1BlobBaseFeeScalar": "0xa118b",
          "l1Fee": "0x199643eb930c",
          "l1GasPrice": "0x963dba73f",
          "l1GasUsed": "0x640"
        },
        {
          "status": "0x1",
          "cumulativeGasUsed": "0x5c1fb7",
          "logs": [
            {
              "address": "0xf377856082ed5e1e66cd309a3b84fd2d7251241c",
              "topics": [
                "0xed4c89b805f4efb58bc4a42b9a3c6f09783f619295a1fa41ab46d6190c8c7f3b",
                "0xe7a050aa00000000000000000000000000000000000000000000000000000000",
                "0x0000000000000000000000000000000000000000000000000000000000064190"
              ],
              "data": "0x",
              "blockHash": "0xf082d69545df9e6567973ee1f056d25b6bf43a48d4da5a6dbe5c8e0f98dd45a2",
              "blockNumber": "0x1567ee4",
              "transactionHash": "0x39b366f042efaf810cfc99821f70b2e35ff6bc7371b768ee9d7ec4209b00a1cd",
              "transactionIndex": "0x26",
              "logIndex": "0x60",
              "removed": false
            },
            {
              "address": "0xf377856082ed5e1e66cd309a3b84fd2d7251241c",
              "topics": [
                "0xed4c89b805f4efb58bc4a42b9a3c6f09783f619295a1fa41ab46d6190c8c7f3b",
                "0xcc15a55700000000000000000000000000000000000000000000000000000000",
                "0x0000000000000000000000000000000000000000000000000000000000046cd0"
              ],
              "data": "0x",
              "blockHash": "0xf082d69545df9e6567973ee1f056d25b6bf43a48d4da5a6dbe5c8e0f98dd45a2",
              "blockNumber": "0x1567ee4",
              "transactionHash": "0x39b366f042efaf810cfc99821f70b2e35ff6bc7371b768ee9d7ec4209b00a1cd",
              "transactionIndex": "0x26",
              "logIndex": "0x61",
              "removed": false
            },
            {
              "address": "0xf377856082ed5e1e66cd309a3b84fd2d7251241c",
              "topics": [
                "0xed4c89b805f4efb58bc4a42b9a3c6f09783f619295a1fa41ab46d6190c8c7f3b",
                "0x0dd8dd0200000000000000000000000000000000000000000000000000000000",
                "0x000000000000000000000000000000000000000000000000000000000004ce78"
              ],
              "data": "0x",
              "blockHash": "0xf082d69545df9e6567973ee1f056d25b6bf43a48d4da5a6dbe5c8e0f98dd45a2",
              "blockNumber": "0x1567ee4",
              "transactionHash": "0x39b366f042efaf810cfc99821f70b2e35ff6bc7371b768ee9d7ec4209b00a1cd",
              "transactionIndex": "0x26",
              "logIndex": "0x62",
              "removed": false
            },
            {
              "address": "0xf377856082ed5e1e66cd309a3b84fd2d7251241c",
              "topics": [
                "0xed4c89b805f4efb58bc4a42b9a3c6f09783f619295a1fa41ab46d6190c8c7f3b",
                "0x60d7faed00000000000000000000000000000000000000000000000000000000",
                "0x0000000000000000000000000000000000000000000000000000000000088b80"
              ],
              "data": "0x",
              "blockHash": "0xf082d69545df9e6567973ee1f056d25b6bf43a48d4da5a6dbe5c8e0f98dd45a2",
              "blockNumber": "0x1567ee4",
              "transactionHash": "0x39b366f042efaf810cfc99821f70b2e35ff6bc7371b768ee9d7ec4209b00a1cd",
              "transactionIndex": "0x26",
              "logIndex": "0x63",
              "removed": false
            },
            {
              "address": "0xf377856082ed5e1e66cd309a3b84fd2d7251241c",
              "topics": [
                "0xed4c89b805f4efb58bc4a42b9a3c6f09783f619295a1fa41ab46d6190c8c7f3b",
                "0xeea9064b00000000000000000000000000000000000000000000000000000000",
                "0x0000000000000000000000000000000000000000000000000000000000055730"
              ],
              "data": "0x",
              "blockHash": "0xf082d69545df9e6567973ee1f056d25b6bf43a48d4da5a6dbe5c8e0f98dd45a2",
              "blockNumber": "0x1567ee4",
              "transactionHash": "0x39b366f042efaf810cfc99821f70b2e35ff6bc7371b768ee9d7ec4209b00a1cd",
              "transactionIndex": "0x26",
              "logIndex": "0x64",
              "removed": false
            },
            {
              "address": "0xf377856082ed5e1e66cd309a3b84fd2d7251241c",
              "topics": [
                "0xed4c89b805f4efb58bc4a42b9a3c6f09783f619295a1fa41ab46d6190c8c7f3b",
                "0xda8be86400000000000000000000000000000000000000000000000000000000",
                "0x0000000000000000000000000000000000000000000000000000000000053020"
              ],
              "data": "0x",
              "blockHash": "0xf082d69545df9e6567973ee1f056d25b6bf43a48d4da5a6dbe5c8e0f98dd45a2",
              "blockNumber": "0x1567ee4",
              "transactionHash": "0x39b366f042efaf810cfc99821f70b2e35ff6bc7371b768ee9d7ec4209b00a1cd",
              "transactionIndex": "0x26",
              "logIndex": "0x65",
              "removed": false
            },
            {
              "address": "0xf377856082ed5e1e66cd309a3b84fd2d7251241c",
              "topics": [
                "0xed4c89b805f4efb58bc4a42b9a3c6f09783f619295a1fa41ab46d6190c8c7f3b",
                "0x3ccc861d00000000000000000000000000000000000000000000000000000000",
                "0x0000000000000000000000000000000000000000000000000000000000083d60"
              ],
              "data": "0x",
              "blockHash": "0xf082d69545df9e6567973ee1f056d25b6bf43a48d4da5a6dbe5c8e0f98dd45a2",
              "blockNumber": "0x1567ee4",
              "transactionHash": "0x39b366f042efaf810cfc99821f70b2e35ff6bc7371b768ee9d7ec4209b00a1cd",
              "transactionIndex": "0x26",
              "logIndex": "0x66",
              "removed": false
            }
          ],
          "logsBloom": "0x0000000100000000024000000000000000000000080000000000000000400000000000000002000000080000004000000000000000000000000020000010000000000000040000000000010010000004000a000000000000080000000000000000000010000000002000000000010000830000000000000000000000000100000000100000800000000000000100000000000000000000000000000000000000001000400000000000000000002000000000000088000000000000000000400400000000000000000008001000010000000200000000000000000000400001000000800000001800000000000000000000002000000000100008010100000000",
          "type": "0x2",
          "transactionHash": "0x39b366f042efaf810cfc99821f70b2e35ff6bc7371b768ee9d7ec4209b00a1cd",
          "transactionIndex": "0x26",
          "blockHash": "0xf082d69545df9e6567973ee1f056d25b6bf43a48d4da5a6dbe5c8e0f98dd45a2",
          "blockNumber": "0x1567ee4",
          "gasUsed": "0xfedf",
          "effectiveGasPrice": "0x759da",
          "from": "0x8454d149beb26e3e3fc5ed1c87fb0b2a1b7b6c2c",
          "to": "0xf377856082ed5e1e66cd309a3b84fd2d7251241c",
          "contractAddress": null,
          "l1BaseFeeScalar": "0x44d",
          "l1BlobBaseFee": "0x6304a6b4ac",
          "l1BlobBaseFeeScalar": "0xa118b",
          "l1Fee": "0x2c89e8c644d2",
          "l1GasPrice": "0x963dba73f",
          "l1GasUsed": "0xae1"
        },
        {
          "status": "0x1",
          "cumulativeGasUsed": "0x5ca2ee",
          "logs": [],
          "logsBloom": "0x00000000000000000000000000000000000000000000000000000000000000000000000000000000000000000000000000000000000000000000000000000000000000000000000000000000000000000000000000000000000000000000000000000000000000000000000000000000000000000000000000000000000000000000000000000000000000000000000000000000000000000000000000000000000000000000000000000000000000000000000000000000000000000000000000000000000000000000000000000000000000000000000000000000000000000000000000000000000000000000000000000000000000000000000000000000",
          "type": "0x2",
          "transactionHash": "0x6200750365dd2d204cd82a8fd1608cc931b39b3578cda29202e411b2f10a6dd5",
          "transactionIndex": "0x27",
          "blockHash": "0xf082d69545df9e6567973ee1f056d25b6bf43a48d4da5a6dbe5c8e0f98dd45a2",
          "blockNumber": "0x1567ee4",
          "gasUsed": "0x8337",
          "effectiveGasPrice": "0x759da",
          "from": "0x8454d149beb26e3e3fc5ed1c87fb0b2a1b7b6c2c",
          "to": "0xf377856082ed5e1e66cd309a3b84fd2d7251241c",
          "contractAddress": null,
          "l1BaseFeeScalar": "0x44d",
          "l1BlobBaseFee": "0x6304a6b4ac",
          "l1BlobBaseFeeScalar": "0xa118b",
          "l1Fee": "0x199643eb930c",
          "l1GasPrice": "0x963dba73f",
          "l1GasUsed": "0x640"
        },
        {
          "status": "0x1",
          "cumulativeGasUsed": "0x5d1b08",
          "logs": [],
          "logsBloom": "0x00000000000000000000000000000000000000000000000000000000000000000000000000000000000000000000000000000000000000000000000000000000000000000000000000000000000000000000000000000000000000000000000000000000000000000000000000000000000000000000000000000000000000000000000000000000000000000000000000000000000000000000000000000000000000000000000000000000000000000000000000000000000000000000000000000000000000000000000000000000000000000000000000000000000000000000000000000000000000000000000000000000000000000000000000000000",
          "type": "0x2",
          "transactionHash": "0xd928c87c191cdc5c64339eedc2a3ec0186161a42d654b694627742046b0bbe69",
          "transactionIndex": "0x28",
          "blockHash": "0xf082d69545df9e6567973ee1f056d25b6bf43a48d4da5a6dbe5c8e0f98dd45a2",
          "blockNumber": "0x1567ee4",
          "gasUsed": "0x781a",
          "effectiveGasPrice": "0x759da",
          "from": "0x8454d149beb26e3e3fc5ed1c87fb0b2a1b7b6c2c",
          "to": "0xd5425269f8371930686f94087baebc4cb015e301",
          "contractAddress": null,
          "l1BaseFeeScalar": "0x44d",
          "l1BlobBaseFee": "0x6304a6b4ac",
          "l1BlobBaseFeeScalar": "0xa118b",
          "l1Fee": "0x199643eb930c",
          "l1GasPrice": "0x963dba73f",
          "l1GasUsed": "0x640"
        },
        {
          "status": "0x1",
          "cumulativeGasUsed": "0x5d9535",
          "logs": [],
          "logsBloom": "0x00000000000000000000000000000000000000000000000000000000000000000000000000000000000000000000000000000000000000000000000000000000000000000000000000000000000000000000000000000000000000000000000000000000000000000000000000000000000000000000000000000000000000000000000000000000000000000000000000000000000000000000000000000000000000000000000000000000000000000000000000000000000000000000000000000000000000000000000000000000000000000000000000000000000000000000000000000000000000000000000000000000000000000000000000000000",
          "type": "0x2",
          "transactionHash": "0x5479e3c203a05ff5b9b65565e5323019a7dcb907e6d1c593e9688768ca65748c",
          "transactionIndex": "0x29",
          "blockHash": "0xf082d69545df9e6567973ee1f056d25b6bf43a48d4da5a6dbe5c8e0f98dd45a2",
          "blockNumber": "0x1567ee4",
          "gasUsed": "0x7a2d",
          "effectiveGasPrice": "0x759da",
          "from": "0x8454d149beb26e3e3fc5ed1c87fb0b2a1b7b6c2c",
          "to": "0xd5425269f8371930686f94087baebc4cb015e301",
          "contractAddress": null,
          "l1BaseFeeScalar": "0x44d",
          "l1BlobBaseFee": "0x6304a6b4ac",
          "l1BlobBaseFeeScalar": "0xa118b",
          "l1Fee": "0x199643eb930c",
          "l1GasPrice": "0x963dba73f",
          "l1GasUsed": "0x640"
        },
        {
          "status": "0x1",
          "cumulativeGasUsed": "0x5e0f05",
          "logs": [],
          "logsBloom": "0x00000000000000000000000000000000000000000000000000000000000000000000000000000000000000000000000000000000000000000000000000000000000000000000000000000000000000000000000000000000000000000000000000000000000000000000000000000000000000000000000000000000000000000000000000000000000000000000000000000000000000000000000000000000000000000000000000000000000000000000000000000000000000000000000000000000000000000000000000000000000000000000000000000000000000000000000000000000000000000000000000000000000000000000000000000000",
          "type": "0x2",
          "transactionHash": "0x47cc169580ee8e1f52cf4aaf62bb5a09b5362fdc917e5adc73390ed4ec6c9912",
          "transactionIndex": "0x2a",
          "blockHash": "0xf082d69545df9e6567973ee1f056d25b6bf43a48d4da5a6dbe5c8e0f98dd45a2",
          "blockNumber": "0x1567ee4",
          "gasUsed": "0x79d0",
          "effectiveGasPrice": "0x759da",
          "from": "0x8454d149beb26e3e3fc5ed1c87fb0b2a1b7b6c2c",
          "to": "0xd5425269f8371930686f94087baebc4cb015e301",
          "contractAddress": null,
          "l1BaseFeeScalar": "0x44d",
          "l1BlobBaseFee": "0x6304a6b4ac",
          "l1BlobBaseFeeScalar": "0xa118b",
          "l1Fee": "0x199643eb930c",
          "l1GasPrice": "0x963dba73f",
          "l1GasUsed": "0x640"
        },
        {
          "status": "0x1",
          "cumulativeGasUsed": "0x5e88d4",
          "logs": [],
          "logsBloom": "0x00000000000000000000000000000000000000000000000000000000000000000000000000000000000000000000000000000000000000000000000000000000000000000000000000000000000000000000000000000000000000000000000000000000000000000000000000000000000000000000000000000000000000000000000000000000000000000000000000000000000000000000000000000000000000000000000000000000000000000000000000000000000000000000000000000000000000000000000000000000000000000000000000000000000000000000000000000000000000000000000000000000000000000000000000000000",
          "type": "0x2",
          "transactionHash": "0x78b00310702a33eeaa5865385a96928417c1e435dd4aa225b09fadfcd0a4845b",
          "transactionIndex": "0x2b",
          "blockHash": "0xf082d69545df9e6567973ee1f056d25b6bf43a48d4da5a6dbe5c8e0f98dd45a2",
          "blockNumber": "0x1567ee4",
          "gasUsed": "0x79cf",
          "effectiveGasPrice": "0x759da",
          "from": "0x8454d149beb26e3e3fc5ed1c87fb0b2a1b7b6c2c",
          "to": "0xd5425269f8371930686f94087baebc4cb015e301",
          "contractAddress": null,
          "l1BaseFeeScalar": "0x44d",
          "l1BlobBaseFee": "0x6304a6b4ac",
          "l1BlobBaseFeeScalar": "0xa118b",
          "l1Fee": "0x199643eb930c",
          "l1GasPrice": "0x963dba73f",
          "l1GasUsed": "0x640"
        }
      ],
      "libraries": [],
      "pending": [],
      "returns": {},
      "timestamp": 1740659876,
      "chain": 84532,
      "commit": "5166d56"
    },
    {
      "transactions": [
        {
          "hash": "0x9ed057930a5a3b1823da023f859c480bfa57165e66389db14bcf6897059352e5",
          "transactionType": "CALL",
          "contractName": null,
          "contractAddress": "0xd49fcab0176df22387ebc9cbb086af08c7db5364",
          "function": "allowlistSender(address,bool)",
          "arguments": [
            "0xD5425269f8371930686F94087bAEbc4Cb015E301",
            "true"
          ],
          "transaction": {
            "from": "0x8454d149beb26e3e3fc5ed1c87fb0b2a1b7b6c2c",
            "to": "0xd49fcab0176df22387ebc9cbb086af08c7db5364",
            "gas": "0xc13f",
            "value": "0x0",
            "input": "0xeab5b02c000000000000000000000000d5425269f8371930686f94087baebc4cb015e3010000000000000000000000000000000000000000000000000000000000000001",
            "nonce": "0x778",
            "chainId": "0xaa36a7"
          },
          "additionalContracts": [],
          "isFixedGasLimit": false
        },
        {
          "hash": "0x4cb920754fbf931098ef09bd73abdf13e83604d43c0dc5a278fb12b1bd82dd8c",
          "transactionType": "CALL",
          "contractName": null,
          "contractAddress": "0xd49fcab0176df22387ebc9cbb086af08c7db5364",
          "function": "allowlistSourceChain(uint64,bool)",
          "arguments": [
            "10344971235874465080",
            "true"
          ],
          "transaction": {
            "from": "0x8454d149beb26e3e3fc5ed1c87fb0b2a1b7b6c2c",
            "to": "0xd49fcab0176df22387ebc9cbb086af08c7db5364",
            "gas": "0xc055",
            "value": "0x0",
            "input": "0xdb04fa490000000000000000000000000000000000000000000000008f90b8876dee65380000000000000000000000000000000000000000000000000000000000000001",
            "nonce": "0x779",
            "chainId": "0xaa36a7"
          },
          "additionalContracts": [],
          "isFixedGasLimit": false
        },
        {
          "hash": "0xa192761d16d8a4e5e000781f0394426c4dea600a229130530ede93bd55dbeadf",
          "transactionType": "CALL",
          "contractName": null,
          "contractAddress": "0xd49fcab0176df22387ebc9cbb086af08c7db5364",
          "function": "allowlistSourceChain(uint64,bool)",
          "arguments": [
            "16015286601757825753",
            "true"
          ],
          "transaction": {
            "from": "0x8454d149beb26e3e3fc5ed1c87fb0b2a1b7b6c2c",
            "to": "0xd49fcab0176df22387ebc9cbb086af08c7db5364",
            "gas": "0xc055",
            "value": "0x0",
            "input": "0xdb04fa49000000000000000000000000000000000000000000000000de41ba4fc9d91ad90000000000000000000000000000000000000000000000000000000000000001",
            "nonce": "0x77a",
            "chainId": "0xaa36a7"
          },
          "additionalContracts": [],
          "isFixedGasLimit": false
        },
        {
          "hash": "0x416660b1b17602e325025b54ffb78fe4422e0ba93b62415f2f56ad74b77b3760",
          "transactionType": "CALL",
          "contractName": null,
          "contractAddress": "0xd49fcab0176df22387ebc9cbb086af08c7db5364",
          "function": "allowlistDestinationChain(uint64,bool)",
          "arguments": [
            "10344971235874465080",
            "true"
          ],
          "transaction": {
            "from": "0x8454d149beb26e3e3fc5ed1c87fb0b2a1b7b6c2c",
            "to": "0xd49fcab0176df22387ebc9cbb086af08c7db5364",
            "gas": "0xb588",
            "value": "0x0",
            "input": "0x96d3b83d0000000000000000000000000000000000000000000000008f90b8876dee65380000000000000000000000000000000000000000000000000000000000000001",
            "nonce": "0x77b",
            "chainId": "0xaa36a7"
          },
          "additionalContracts": [],
          "isFixedGasLimit": false
        },
        {
          "hash": "0xc63ae7eed78da2fe537f22586155757c73413d2e1a31abd320122d0c17d5b845",
          "transactionType": "CALL",
          "contractName": null,
          "contractAddress": "0x3b9e513396a24dff61d541d7bac6ecabe02c0cca",
          "function": "setGasLimitsForFunctionSelectors(bytes4[],uint256[])",
          "arguments": [
            "[0xd8a85b48]",
            "[270000]"
          ],
          "transaction": {
            "from": "0x8454d149beb26e3e3fc5ed1c87fb0b2a1b7b6c2c",
            "to": "0x3b9e513396a24dff61d541d7bac6ecabe02c0cca",
            "gas": "0xc7f7",
            "value": "0x0",
            "input": "0x3ef2d377000000000000000000000000000000000000000000000000000000000000004000000000000000000000000000000000000000000000000000000000000000800000000000000000000000000000000000000000000000000000000000000001d8a85b480000000000000000000000000000000000000000000000000000000000000000000000000000000000000000000000000000000000000000000000010000000000000000000000000000000000000000000000000000000000041eb0",
            "nonce": "0x77c",
            "chainId": "0xaa36a7"
          },
          "additionalContracts": [],
          "isFixedGasLimit": false
        },
        {
          "hash": "0x7d21fafc6d4ba4c73596ecd6184d842a1ea2aec8cc4888d121d8b2c3d2b234a5",
          "transactionType": "CALL",
          "contractName": null,
          "contractAddress": "0x47992d5115ba460e821fd82467909eed75fda1f9",
          "function": "getAgentFactory()",
          "arguments": [],
          "transaction": {
            "from": "0x8454d149beb26e3e3fc5ed1c87fb0b2a1b7b6c2c",
            "to": "0x47992d5115ba460e821fd82467909eed75fda1f9",
            "gas": "0xa602",
            "value": "0x0",
            "input": "0xf3b372de",
            "nonce": "0x77d",
            "chainId": "0xaa36a7"
          },
          "additionalContracts": [],
          "isFixedGasLimit": false
        }
      ],
      "receipts": [
        {
          "status": "0x1",
          "cumulativeGasUsed": "0xcaca59",
          "logs": [],
          "logsBloom": "0x00000000000000000000000000000000000000000000000000000000000000000000000000000000000000000000000000000000000000000000000000000000000000000000000000000000000000000000000000000000000000000000000000000000000000000000000000000000000000000000000000000000000000000000000000000000000000000000000000000000000000000000000000000000000000000000000000000000000000000000000000000000000000000000000000000000000000000000000000000000000000000000000000000000000000000000000000000000000000000000000000000000000000000000000000000000",
          "type": "0x2",
          "transactionHash": "0x9ed057930a5a3b1823da023f859c480bfa57165e66389db14bcf6897059352e5",
          "transactionIndex": "0x70",
          "blockHash": "0x1a4b4d330f39c68bb4ab8d0453223ba6776462a2ff9e7f88ec7ddab611a22e20",
          "blockNumber": "0x76f777",
          "gasUsed": "0x8423",
          "effectiveGasPrice": "0x85170af94",
          "from": "0x8454d149beb26e3e3fc5ed1c87fb0b2a1b7b6c2c",
          "to": "0xd49fcab0176df22387ebc9cbb086af08c7db5364",
          "contractAddress": null
        },
        {
          "status": "0x1",
          "cumulativeGasUsed": "0xcb4ddc",
          "logs": [],
          "logsBloom": "0x00000000000000000000000000000000000000000000000000000000000000000000000000000000000000000000000000000000000000000000000000000000000000000000000000000000000000000000000000000000000000000000000000000000000000000000000000000000000000000000000000000000000000000000000000000000000000000000000000000000000000000000000000000000000000000000000000000000000000000000000000000000000000000000000000000000000000000000000000000000000000000000000000000000000000000000000000000000000000000000000000000000000000000000000000000000",
          "type": "0x2",
          "transactionHash": "0x4cb920754fbf931098ef09bd73abdf13e83604d43c0dc5a278fb12b1bd82dd8c",
          "transactionIndex": "0x71",
          "blockHash": "0x1a4b4d330f39c68bb4ab8d0453223ba6776462a2ff9e7f88ec7ddab611a22e20",
          "blockNumber": "0x76f777",
          "gasUsed": "0x8383",
          "effectiveGasPrice": "0x85170af94",
          "from": "0x8454d149beb26e3e3fc5ed1c87fb0b2a1b7b6c2c",
          "to": "0xd49fcab0176df22387ebc9cbb086af08c7db5364",
          "contractAddress": null
        },
        {
          "status": "0x1",
          "cumulativeGasUsed": "0xcbd15f",
          "logs": [],
          "logsBloom": "0x00000000000000000000000000000000000000000000000000000000000000000000000000000000000000000000000000000000000000000000000000000000000000000000000000000000000000000000000000000000000000000000000000000000000000000000000000000000000000000000000000000000000000000000000000000000000000000000000000000000000000000000000000000000000000000000000000000000000000000000000000000000000000000000000000000000000000000000000000000000000000000000000000000000000000000000000000000000000000000000000000000000000000000000000000000000",
          "type": "0x2",
          "transactionHash": "0xa192761d16d8a4e5e000781f0394426c4dea600a229130530ede93bd55dbeadf",
          "transactionIndex": "0x72",
          "blockHash": "0x1a4b4d330f39c68bb4ab8d0453223ba6776462a2ff9e7f88ec7ddab611a22e20",
          "blockNumber": "0x76f777",
          "gasUsed": "0x8383",
          "effectiveGasPrice": "0x85170af94",
          "from": "0x8454d149beb26e3e3fc5ed1c87fb0b2a1b7b6c2c",
          "to": "0xd49fcab0176df22387ebc9cbb086af08c7db5364",
          "contractAddress": null
        },
        {
          "status": "0x1",
          "cumulativeGasUsed": "0xcc54cd",
          "logs": [],
          "logsBloom": "0x00000000000000000000000000000000000000000000000000000000000000000000000000000000000000000000000000000000000000000000000000000000000000000000000000000000000000000000000000000000000000000000000000000000000000000000000000000000000000000000000000000000000000000000000000000000000000000000000000000000000000000000000000000000000000000000000000000000000000000000000000000000000000000000000000000000000000000000000000000000000000000000000000000000000000000000000000000000000000000000000000000000000000000000000000000000",
          "type": "0x2",
          "transactionHash": "0x416660b1b17602e325025b54ffb78fe4422e0ba93b62415f2f56ad74b77b3760",
          "transactionIndex": "0x73",
          "blockHash": "0x1a4b4d330f39c68bb4ab8d0453223ba6776462a2ff9e7f88ec7ddab611a22e20",
          "blockNumber": "0x76f777",
          "gasUsed": "0x836e",
          "effectiveGasPrice": "0x85170af94",
          "from": "0x8454d149beb26e3e3fc5ed1c87fb0b2a1b7b6c2c",
          "to": "0xd49fcab0176df22387ebc9cbb086af08c7db5364",
          "contractAddress": null
        },
        {
          "status": "0x1",
          "cumulativeGasUsed": "0xcce593",
          "logs": [
            {
              "address": "0x3b9e513396a24dff61d541d7bac6ecabe02c0cca",
              "topics": [
                "0xed4c89b805f4efb58bc4a42b9a3c6f09783f619295a1fa41ab46d6190c8c7f3b",
                "0xd8a85b4800000000000000000000000000000000000000000000000000000000",
                "0x0000000000000000000000000000000000000000000000000000000000041eb0"
              ],
              "data": "0x",
              "blockHash": "0x1a4b4d330f39c68bb4ab8d0453223ba6776462a2ff9e7f88ec7ddab611a22e20",
              "blockNumber": "0x76f777",
              "transactionHash": "0xc63ae7eed78da2fe537f22586155757c73413d2e1a31abd320122d0c17d5b845",
              "transactionIndex": "0x74",
              "logIndex": "0xe9",
              "removed": false
            }
          ],
          "logsBloom": "0x00000001000000000040000000000000000000000800000000000000000000000000000000000000000000000000000000000000000000000000000000000000000000000000000008000000000000000000000000800000000000000000000000000000000000000000000000000000800000000000040000000000001000000000000000000000000000001000000000000000000000000000000000000000000000000000000000010000100000000000000000000000000000000000000000000000000000000000000000000000000000000000000000004000000000000000000000000000000000000000000000000000000000000000000000000000",
          "type": "0x2",
          "transactionHash": "0xc63ae7eed78da2fe537f22586155757c73413d2e1a31abd320122d0c17d5b845",
          "transactionIndex": "0x74",
          "blockHash": "0x1a4b4d330f39c68bb4ab8d0453223ba6776462a2ff9e7f88ec7ddab611a22e20",
          "blockNumber": "0x76f777",
          "gasUsed": "0x90c6",
          "effectiveGasPrice": "0x85170af94",
          "from": "0x8454d149beb26e3e3fc5ed1c87fb0b2a1b7b6c2c",
          "to": "0x3b9e513396a24dff61d541d7bac6ecabe02c0cca",
          "contractAddress": null
        },
        {
          "status": "0x1",
          "cumulativeGasUsed": "0xcd5dc3",
          "logs": [],
          "logsBloom": "0x00000000000000000000000000000000000000000000000000000000000000000000000000000000000000000000000000000000000000000000000000000000000000000000000000000000000000000000000000000000000000000000000000000000000000000000000000000000000000000000000000000000000000000000000000000000000000000000000000000000000000000000000000000000000000000000000000000000000000000000000000000000000000000000000000000000000000000000000000000000000000000000000000000000000000000000000000000000000000000000000000000000000000000000000000000000",
          "type": "0x2",
          "transactionHash": "0x7d21fafc6d4ba4c73596ecd6184d842a1ea2aec8cc4888d121d8b2c3d2b234a5",
          "transactionIndex": "0x75",
          "blockHash": "0x1a4b4d330f39c68bb4ab8d0453223ba6776462a2ff9e7f88ec7ddab611a22e20",
          "blockNumber": "0x76f777",
          "gasUsed": "0x7830",
          "effectiveGasPrice": "0x85170af94",
          "from": "0x8454d149beb26e3e3fc5ed1c87fb0b2a1b7b6c2c",
          "to": "0x47992d5115ba460e821fd82467909eed75fda1f9",
          "contractAddress": null
        }
      ],
      "libraries": [],
      "pending": [],
      "returns": {},
      "timestamp": 1740659877,
      "chain": 11155111,
      "commit": "5166d56"
    }
  ],
  "timestamp": 1740659893
}