{
  "deployments": [
    {
      "transactions": [
        {
          "hash": "0x6aa9b9be6b62f897f2b2412a7b717ac8fb07907d41a107ec422be7981fdac398",
          "transactionType": "CALL",
          "contractName": null,
          "contractAddress": "0x4d480cfc32d7b72ccab92f2bf309995d3c260437",
          "function": "allowlistSourceChain(uint64,bool)",
          "arguments": [
            "10344971235874465080",
            "true"
          ],
          "transaction": {
            "from": "0x8454d149beb26e3e3fc5ed1c87fb0b2a1b7b6c2c",
            "to": "0x4d480cfc32d7b72ccab92f2bf309995d3c260437",
            "gas": "0xc047",
            "value": "0x0",
            "input": "0xdb04fa490000000000000000000000000000000000000000000000008f90b8876dee65380000000000000000000000000000000000000000000000000000000000000001",
            "nonce": "0xa9",
            "chainId": "0x14a34"
          },
          "additionalContracts": [],
          "isFixedGasLimit": false
        },
        {
          "hash": "0x2fde975f3d0cef83d25278c232a58dc8f21085b952dec83cb18f036fb8f4292b",
          "transactionType": "CALL",
          "contractName": null,
          "contractAddress": "0x4d480cfc32d7b72ccab92f2bf309995d3c260437",
          "function": "allowlistSender(address,bool)",
          "arguments": [
            "0x4C854B17250582413783b96E020e5606a561eDdC",
            "true"
          ],
          "transaction": {
            "from": "0x8454d149beb26e3e3fc5ed1c87fb0b2a1b7b6c2c",
            "to": "0x4d480cfc32d7b72ccab92f2bf309995d3c260437",
            "gas": "0x13300",
            "value": "0x0",
            "input": "0xeab5b02c0000000000000000000000004c854b17250582413783b96e020e5606a561eddc0000000000000000000000000000000000000000000000000000000000000001",
            "nonce": "0xaa",
            "chainId": "0x14a34"
          },
          "additionalContracts": [],
          "isFixedGasLimit": false
        },
        {
          "hash": "0x7f9001f59e4b20462f2e7d61d54e72ab517b435e78d9769f5b33be06e57bad71",
          "transactionType": "CALL",
          "contractName": null,
          "contractAddress": "0x88a2d74f47a237a62e7a51cdda67270ce381555e",
          "function": "drip(address)",
          "arguments": [
            "0x8454d149Beb26E3E3FC5eD1C87Fb0B2a1b7B6c2c"
          ],
          "transaction": {
            "from": "0x8454d149beb26e3e3fc5ed1c87fb0b2a1b7b6c2c",
            "to": "0x88a2d74f47a237a62e7a51cdda67270ce381555e",
            "gas": "0xb69c",
            "value": "0x0",
            "input": "0x67a5cd060000000000000000000000008454d149beb26e3e3fc5ed1c87fb0b2a1b7b6c2c",
            "nonce": "0xab",
            "chainId": "0x14a34"
          },
          "additionalContracts": [],
          "isFixedGasLimit": false
        }
      ],
      "receipts": [
        {
          "status": "0x1",
          "cumulativeGasUsed": "0x739654",
          "logs": [],
          "logsBloom": "0x00000000000000000000000000000000000000000000000000000000000000000000000000000000000000000000000000000000000000000000000000000000000000000000000000000000000000000000000000000000000000000000000000000000000000000000000000000000000000000000000000000000000000000000000000000000000000000000000000000000000000000000000000000000000000000000000000000000000000000000000000000000000000000000000000000000000000000000000000000000000000000000000000000000000000000000000000000000000000000000000000000000000000000000000000000000",
          "type": "0x2",
          "transactionHash": "0x6aa9b9be6b62f897f2b2412a7b717ac8fb07907d41a107ec422be7981fdac398",
          "transactionIndex": "0x1b",
          "blockHash": "0x5b85bfbe3b549588ed2c305bc1fb27f1aff4f0c4265ad35e7e36241d3675c748",
          "blockNumber": "0xd98987",
          "gasUsed": "0x8379",
          "effectiveGasPrice": "0x65b72",
          "from": "0x8454d149beb26e3e3fc5ed1c87fb0b2a1b7b6c2c",
          "to": "0x4d480cfc32d7b72ccab92f2bf309995d3c260437",
          "contractAddress": null,
          "l1BaseFeeScalar": "0x44d",
          "l1BlobBaseFee": "0x4ca5e8",
          "l1BlobBaseFeeScalar": "0xa118b",
          "l1Fee": "0x215bd5b3",
          "l1GasPrice": "0x7b8ba61",
          "l1GasUsed": "0x640"
        },
        {
          "status": "0x1",
          "cumulativeGasUsed": "0x74683f",
          "logs": [],
          "logsBloom": "0x00000000000000000000000000000000000000000000000000000000000000000000000000000000000000000000000000000000000000000000000000000000000000000000000000000000000000000000000000000000000000000000000000000000000000000000000000000000000000000000000000000000000000000000000000000000000000000000000000000000000000000000000000000000000000000000000000000000000000000000000000000000000000000000000000000000000000000000000000000000000000000000000000000000000000000000000000000000000000000000000000000000000000000000000000000000",
          "type": "0x2",
          "transactionHash": "0x2fde975f3d0cef83d25278c232a58dc8f21085b952dec83cb18f036fb8f4292b",
          "transactionIndex": "0x1c",
          "blockHash": "0x5b85bfbe3b549588ed2c305bc1fb27f1aff4f0c4265ad35e7e36241d3675c748",
          "blockNumber": "0xd98987",
          "gasUsed": "0xd1eb",
          "effectiveGasPrice": "0x65b72",
          "from": "0x8454d149beb26e3e3fc5ed1c87fb0b2a1b7b6c2c",
          "to": "0x4d480cfc32d7b72ccab92f2bf309995d3c260437",
          "contractAddress": null,
          "l1BaseFeeScalar": "0x44d",
          "l1BlobBaseFee": "0x4ca5e8",
          "l1BlobBaseFeeScalar": "0xa118b",
          "l1Fee": "0x215bd5b3",
          "l1GasPrice": "0x7b8ba61",
          "l1GasUsed": "0x640"
        },
        {
          "status": "0x1",
          "cumulativeGasUsed": "0x74ec74",
          "logs": [
            {
              "address": "0x88a2d74f47a237a62e7a51cdda67270ce381555e",
              "topics": [
                "0xddf252ad1be2c89b69c2b068fc378daa952ba7f163c4a11628f55a4df523b3ef",
                "0x0000000000000000000000000000000000000000000000000000000000000000",
                "0x0000000000000000000000008454d149beb26e3e3fc5ed1c87fb0b2a1b7b6c2c"
              ],
              "data": "0x0000000000000000000000000000000000000000000000000de0b6b3a7640000",
              "blockHash": "0x5b85bfbe3b549588ed2c305bc1fb27f1aff4f0c4265ad35e7e36241d3675c748",
              "blockNumber": "0xd98987",
              "transactionHash": "0x7f9001f59e4b20462f2e7d61d54e72ab517b435e78d9769f5b33be06e57bad71",
              "transactionIndex": "0x1d",
              "logIndex": "0x4c",
              "removed": false
            }
          ],
          "logsBloom": "0x00000000000000000000000000000000000000000000000000000000000800000000000000000000000000000000000000000000000000000000000000000000000000000000000000000008000000000000000000000000000000000000000000000000020000080000000000000800000000000000000000000010000000000000000000000000000000000000000000000000000000000000000000000000080000000000000000000000000000000000000000000000000000000000000000000002000000000000000000000000080000000000000000000000000a20000000000000000000000000000000000000000000000000000000000000000000",
          "type": "0x2",
          "transactionHash": "0x7f9001f59e4b20462f2e7d61d54e72ab517b435e78d9769f5b33be06e57bad71",
          "transactionIndex": "0x1d",
          "blockHash": "0x5b85bfbe3b549588ed2c305bc1fb27f1aff4f0c4265ad35e7e36241d3675c748",
          "blockNumber": "0xd98987",
          "gasUsed": "0x8435",
          "effectiveGasPrice": "0x65b72",
          "from": "0x8454d149beb26e3e3fc5ed1c87fb0b2a1b7b6c2c",
          "to": "0x88a2d74f47a237a62e7a51cdda67270ce381555e",
          "contractAddress": null,
          "l1BaseFeeScalar": "0x44d",
          "l1BlobBaseFee": "0x4ca5e8",
          "l1BlobBaseFeeScalar": "0xa118b",
          "l1Fee": "0x215bd5b3",
          "l1GasPrice": "0x7b8ba61",
          "l1GasUsed": "0x640"
        }
      ],
      "libraries": [],
      "pending": [],
      "returns": {},
      "timestamp": 1724281323,
      "chain": 84532,
      "commit": "5848fa2"
    },
    {
      "transactions": [
        {
          "hash": "0xa84a15b3aab6f3c2bb466dce36a335f4cbe7cc1648be1e1262d970680123861b",
          "transactionType": "CALL",
          "contractName": null,
          "contractAddress": "0x4c854b17250582413783b96e020e5606a561eddc",
          "function": "allowlistSender(address,bool)",
          "arguments": [
            "0x8454d149Beb26E3E3FC5eD1C87Fb0B2a1b7B6c2c",
            "true"
          ],
          "transaction": {
            "from": "0x8454d149beb26e3e3fc5ed1c87fb0b2a1b7b6c2c",
            "to": "0x4c854b17250582413783b96e020e5606a561eddc",
            "gas": "0x13321",
            "value": "0x0",
            "input": "0xeab5b02c0000000000000000000000008454d149beb26e3e3fc5ed1c87fb0b2a1b7b6c2c0000000000000000000000000000000000000000000000000000000000000001",
            "nonce": "0x21f",
            "chainId": "0xaa36a7"
          },
          "additionalContracts": [],
          "isFixedGasLimit": false
        },
        {
          "hash": "0x06bd8638760b6ecfbd6a657737400e1e5ec09c0f5b9216168cd2dae57cc0aacb",
          "transactionType": "CALL",
          "contractName": null,
          "contractAddress": "0xfd57b4ddbf88a4e07ff4e34c487b99af2fe82a05",
          "function": "drip(address)",
          "arguments": [
            "0x4C854B17250582413783b96E020e5606a561eDdC"
          ],
          "transaction": {
            "from": "0x8454d149beb26e3e3fc5ed1c87fb0b2a1b7b6c2c",
            "to": "0xfd57b4ddbf88a4e07ff4e34c487b99af2fe82a05",
            "gas": "0x1230a",
            "value": "0x0",
            "input": "0x67a5cd060000000000000000000000004c854b17250582413783b96e020e5606a561eddc",
            "nonce": "0x220",
            "chainId": "0xaa36a7"
          },
          "additionalContracts": [],
          "isFixedGasLimit": false
        }
      ],
      "receipts": [
        {
          "status": "0x1",
          "cumulativeGasUsed": "0xe8df8f",
          "logs": [],
          "logsBloom": "0x00000000000000000000000000000000000000000000000000000000000000000000000000000000000000000000000000000000000000000000000000000000000000000000000000000000000000000000000000000000000000000000000000000000000000000000000000000000000000000000000000000000000000000000000000000000000000000000000000000000000000000000000000000000000000000000000000000000000000000000000000000000000000000000000000000000000000000000000000000000000000000000000000000000000000000000000000000000000000000000000000000000000000000000000000000000",
          "type": "0x2",
          "transactionHash": "0xa84a15b3aab6f3c2bb466dce36a335f4cbe7cc1648be1e1262d970680123861b",
          "transactionIndex": "0x39",
          "blockHash": "0x6346c4e80e24dabd902efbd7df9f817828f64397de5738ac1e01870cc07cb9f3",
          "blockNumber": "0x63e214",
          "gasUsed": "0xd201",
          "effectiveGasPrice": "0xc9c46f6",
          "from": "0x8454d149beb26e3e3fc5ed1c87fb0b2a1b7b6c2c",
          "to": "0x4c854b17250582413783b96e020e5606a561eddc",
          "contractAddress": null
        },
        {
          "status": "0x1",
          "cumulativeGasUsed": "0xe9a690",
          "logs": [
            {
              "address": "0xfd57b4ddbf88a4e07ff4e34c487b99af2fe82a05",
              "topics": [
                "0xddf252ad1be2c89b69c2b068fc378daa952ba7f163c4a11628f55a4df523b3ef",
                "0x0000000000000000000000000000000000000000000000000000000000000000",
                "0x0000000000000000000000004c854b17250582413783b96e020e5606a561eddc"
              ],
              "data": "0x0000000000000000000000000000000000000000000000000de0b6b3a7640000",
              "blockHash": "0x6346c4e80e24dabd902efbd7df9f817828f64397de5738ac1e01870cc07cb9f3",
              "blockNumber": "0x63e214",
              "transactionHash": "0x06bd8638760b6ecfbd6a657737400e1e5ec09c0f5b9216168cd2dae57cc0aacb",
              "transactionIndex": "0x3a",
              "logIndex": "0x4d",
              "removed": false
            }
          ],
          "logsBloom": "0x00000002000000000000000000000000000000000000000000000000000000008000000000000000000100000000000000000000000000000000000000000000000000000000000000000008000000000000000000000000000000000000000000000000020000000000000000000800000000000000000000000010000000000000000000000000000000000000000000000000000000000000000000000000000000000000000040000000000000080000000000000000000000000000000000000002000000000000000000000000000000000000000000000000000020000000000000400000000000000000000000000000000000000000000000000000",
          "type": "0x2",
          "transactionHash": "0x06bd8638760b6ecfbd6a657737400e1e5ec09c0f5b9216168cd2dae57cc0aacb",
          "transactionIndex": "0x3a",
          "blockHash": "0x6346c4e80e24dabd902efbd7df9f817828f64397de5738ac1e01870cc07cb9f3",
          "blockNumber": "0x63e214",
          "gasUsed": "0xc701",
          "effectiveGasPrice": "0xc9c46f6",
          "from": "0x8454d149beb26e3e3fc5ed1c87fb0b2a1b7b6c2c",
          "to": "0xfd57b4ddbf88a4e07ff4e34c487b99af2fe82a05",
          "contractAddress": null
        }
      ],
      "libraries": [],
      "pending": [],
      "returns": {},
      "timestamp": 1724281324,
      "chain": 11155111,
      "commit": "5848fa2"
    }
  ],
  "timestamp": 1724281361
}