{
  "deployments": [
    {
      "transactions": [
        {
          "hash": "0x020f46f7482b359a3d861a4c8f6d8f93ce1fb9d4eed804b0aace0520f3f7b2e6",
          "transactionType": "CALL",
          "contractName": null,
          "contractAddress": "0xb8ccac28c226159474d83599db17f1c4bd38c799",
          "function": "allowlistSourceChain(uint64,bool)",
          "arguments": [
            "10344971235874465080",
            "true"
          ],
          "transaction": {
            "from": "0x8454d149beb26e3e3fc5ed1c87fb0b2a1b7b6c2c",
            "to": "0xb8ccac28c226159474d83599db17f1c4bd38c799",
            "gas": "0xc026",
            "value": "0x0",
            "input": "0xdb04fa490000000000000000000000000000000000000000000000008f90b8876dee65380000000000000000000000000000000000000000000000000000000000000001",
            "nonce": "0x10e",
            "chainId": "0x14a34"
          },
          "additionalContracts": [],
          "isFixedGasLimit": false
        },
        {
          "hash": "0xdc0f8c0936a7e846ef0b9753bcafc37cbc2383c6ab9e431e84481369f8dc3f58",
          "transactionType": "CALL",
          "contractName": null,
          "contractAddress": "0xb8ccac28c226159474d83599db17f1c4bd38c799",
          "function": "allowlistSender(address,bool)",
          "arguments": [
            "0x1689aD770c571004fA7F3896F64e49bfc61B564F",
            "true"
          ],
          "transaction": {
            "from": "0x8454d149beb26e3e3fc5ed1c87fb0b2a1b7b6c2c",
            "to": "0xb8ccac28c226159474d83599db17f1c4bd38c799",
            "gas": "0x121d4",
            "value": "0x0",
            "input": "0xeab5b02c0000000000000000000000001689ad770c571004fa7f3896f64e49bfc61b564f0000000000000000000000000000000000000000000000000000000000000001",
            "nonce": "0x10f",
            "chainId": "0x14a34"
          },
          "additionalContracts": [],
          "isFixedGasLimit": false
        },
        {
          "hash": "0xcc0beb558afb62045691db3034617f8d6d4ada63d8d25b496ed4b5e10a18b3d2",
          "transactionType": "CALL",
          "contractName": null,
          "contractAddress": "0x88a2d74f47a237a62e7a51cdda67270ce381555e",
          "function": "drip(address)",
          "arguments": [
            "0x8454d149Beb26E3E3FC5eD1C87Fb0B2a1b7B6c2c"
          ],
          "transaction": {
            "from": "0x8454d149beb26e3e3fc5ed1c87fb0b2a1b7b6c2c",
            "to": "0x88a2d74f47a237a62e7a51cdda67270ce381555e",
            "gas": "0xb69c",
            "value": "0x0",
            "input": "0x67a5cd060000000000000000000000008454d149beb26e3e3fc5ed1c87fb0b2a1b7b6c2c",
            "nonce": "0x110",
            "chainId": "0x14a34"
          },
          "additionalContracts": [],
          "isFixedGasLimit": false
        }
      ],
      "receipts": [
        {
          "status": "0x1",
          "cumulativeGasUsed": "0x128d9a2",
          "logs": [],
          "logsBloom": "0x00000000000000000000000000000000000000000000000000000000000000000000000000000000000000000000000000000000000000000000000000000000000000000000000000000000000000000000000000000000000000000000000000000000000000000000000000000000000000000000000000000000000000000000000000000000000000000000000000000000000000000000000000000000000000000000000000000000000000000000000000000000000000000000000000000000000000000000000000000000000000000000000000000000000000000000000000000000000000000000000000000000000000000000000000000000",
          "type": "0x2",
          "transactionHash": "0x020f46f7482b359a3d861a4c8f6d8f93ce1fb9d4eed804b0aace0520f3f7b2e6",
          "transactionIndex": "0xe",
          "blockHash": "0xc640f491f419145f09043d81e894b9f262661770a4e96f308daa7914cacab597",
          "blockNumber": "0xdcac3a",
          "gasUsed": "0x8363",
          "effectiveGasPrice": "0x9ca237",
          "from": "0x8454d149beb26e3e3fc5ed1c87fb0b2a1b7b6c2c",
          "to": "0xb8ccac28c226159474d83599db17f1c4bd38c799",
          "contractAddress": null,
          "l1BaseFeeScalar": "0x44d",
          "l1BlobBaseFee": "0xd5ea528d2",
          "l1BlobBaseFeeScalar": "0xa118b",
          "l1Fee": "0x37460515e17",
          "l1GasPrice": "0x13c0a18f1",
          "l1GasUsed": "0x640"
        },
        {
          "status": "0x1",
          "cumulativeGasUsed": "0x129ab77",
          "logs": [],
          "logsBloom": "0x00000000000000000000000000000000000000000000000000000000000000000000000000000000000000000000000000000000000000000000000000000000000000000000000000000000000000000000000000000000000000000000000000000000000000000000000000000000000000000000000000000000000000000000000000000000000000000000000000000000000000000000000000000000000000000000000000000000000000000000000000000000000000000000000000000000000000000000000000000000000000000000000000000000000000000000000000000000000000000000000000000000000000000000000000000000",
          "type": "0x2",
          "transactionHash": "0xdc0f8c0936a7e846ef0b9753bcafc37cbc2383c6ab9e431e84481369f8dc3f58",
          "transactionIndex": "0xf",
          "blockHash": "0xc640f491f419145f09043d81e894b9f262661770a4e96f308daa7914cacab597",
          "blockNumber": "0xdcac3a",
          "gasUsed": "0xd1d5",
          "effectiveGasPrice": "0x9ca237",
          "from": "0x8454d149beb26e3e3fc5ed1c87fb0b2a1b7b6c2c",
          "to": "0xb8ccac28c226159474d83599db17f1c4bd38c799",
          "contractAddress": null,
          "l1BaseFeeScalar": "0x44d",
          "l1BlobBaseFee": "0xd5ea528d2",
          "l1BlobBaseFeeScalar": "0xa118b",
          "l1Fee": "0x37460515e17",
          "l1GasPrice": "0x13c0a18f1",
          "l1GasUsed": "0x640"
        },
        {
          "status": "0x1",
          "cumulativeGasUsed": "0x12a2fac",
          "logs": [
            {
              "address": "0x88a2d74f47a237a62e7a51cdda67270ce381555e",
              "topics": [
                "0xddf252ad1be2c89b69c2b068fc378daa952ba7f163c4a11628f55a4df523b3ef",
                "0x0000000000000000000000000000000000000000000000000000000000000000",
                "0x0000000000000000000000008454d149beb26e3e3fc5ed1c87fb0b2a1b7b6c2c"
              ],
              "data": "0x0000000000000000000000000000000000000000000000000de0b6b3a7640000",
              "blockHash": "0xc640f491f419145f09043d81e894b9f262661770a4e96f308daa7914cacab597",
              "blockNumber": "0xdcac3a",
              "transactionHash": "0xcc0beb558afb62045691db3034617f8d6d4ada63d8d25b496ed4b5e10a18b3d2",
              "transactionIndex": "0x10",
              "logIndex": "0x4a",
              "removed": false
            }
          ],
          "logsBloom": "0x00000000000000000000000000000000000000000000000000000000000800000000000000000000000000000000000000000000000000000000000000000000000000000000000000000008000000000000000000000000000000000000000000000000020000080000000000000800000000000000000000000010000000000000000000000000000000000000000000000000000000000000000000000000080000000000000000000000000000000000000000000000000000000000000000000002000000000000000000000000080000000000000000000000000a20000000000000000000000000000000000000000000000000000000000000000000",
          "type": "0x2",
          "transactionHash": "0xcc0beb558afb62045691db3034617f8d6d4ada63d8d25b496ed4b5e10a18b3d2",
          "transactionIndex": "0x10",
          "blockHash": "0xc640f491f419145f09043d81e894b9f262661770a4e96f308daa7914cacab597",
          "blockNumber": "0xdcac3a",
          "gasUsed": "0x8435",
          "effectiveGasPrice": "0x9ca237",
          "from": "0x8454d149beb26e3e3fc5ed1c87fb0b2a1b7b6c2c",
          "to": "0x88a2d74f47a237a62e7a51cdda67270ce381555e",
          "contractAddress": null,
          "l1BaseFeeScalar": "0x44d",
          "l1BlobBaseFee": "0xd5ea528d2",
          "l1BlobBaseFeeScalar": "0xa118b",
          "l1Fee": "0x37460515e17",
          "l1GasPrice": "0x13c0a18f1",
          "l1GasUsed": "0x640"
        }
      ],
      "libraries": [],
      "pending": [],
      "returns": {},
      "timestamp": 1724692305,
      "chain": 84532,
      "commit": "b14d606"
    },
    {
      "transactions": [
        {
          "hash": "0x85cc22b944e0ee8ff97092e6eb8c8261ea36eb126f059b9d72380b80f172251c",
          "transactionType": "CALL",
          "contractName": null,
          "contractAddress": "0x1689ad770c571004fa7f3896f64e49bfc61b564f",
          "function": "allowlistSender(address,bool)",
          "arguments": [
            "0x8454d149Beb26E3E3FC5eD1C87Fb0B2a1b7B6c2c",
            "true"
          ],
          "transaction": {
            "from": "0x8454d149beb26e3e3fc5ed1c87fb0b2a1b7b6c2c",
            "to": "0x1689ad770c571004fa7f3896f64e49bfc61b564f",
            "gas": "0x13321",
            "value": "0x0",
            "input": "0xeab5b02c0000000000000000000000008454d149beb26e3e3fc5ed1c87fb0b2a1b7b6c2c0000000000000000000000000000000000000000000000000000000000000001",
            "nonce": "0x2ce",
            "chainId": "0xaa36a7"
          },
          "additionalContracts": [],
          "isFixedGasLimit": false
        },
        {
          "hash": "0x9f816cb2545d707b1fbfd05c1655350ed0d297d2662755963920c26dc9e8bf24",
          "transactionType": "CALL",
          "contractName": null,
          "contractAddress": "0xfd57b4ddbf88a4e07ff4e34c487b99af2fe82a05",
          "function": "drip(address)",
          "arguments": [
            "0x1689aD770c571004fA7F3896F64e49bfc61B564F"
          ],
          "transaction": {
            "from": "0x8454d149beb26e3e3fc5ed1c87fb0b2a1b7b6c2c",
            "to": "0xfd57b4ddbf88a4e07ff4e34c487b99af2fe82a05",
            "gas": "0x1230a",
            "value": "0x0",
            "input": "0x67a5cd060000000000000000000000001689ad770c571004fa7f3896f64e49bfc61b564f",
            "nonce": "0x2cf",
            "chainId": "0xaa36a7"
          },
          "additionalContracts": [],
          "isFixedGasLimit": false
        }
      ],
      "receipts": [
        {
          "status": "0x1",
          "cumulativeGasUsed": "0x9a15be",
          "logs": [],
          "logsBloom": "0x00000000000000000000000000000000000000000000000000000000000000000000000000000000000000000000000000000000000000000000000000000000000000000000000000000000000000000000000000000000000000000000000000000000000000000000000000000000000000000000000000000000000000000000000000000000000000000000000000000000000000000000000000000000000000000000000000000000000000000000000000000000000000000000000000000000000000000000000000000000000000000000000000000000000000000000000000000000000000000000000000000000000000000000000000000000",
          "type": "0x2",
          "transactionHash": "0x85cc22b944e0ee8ff97092e6eb8c8261ea36eb126f059b9d72380b80f172251c",
          "transactionIndex": "0x35",
          "blockHash": "0x9e33b5d46c7a8ca272465c7176de931b15000bbb93d6a92c1a4d9c81c7e9d18b",
          "blockNumber": "0x6457f2",
          "gasUsed": "0xd201",
          "effectiveGasPrice": "0x1aa270972",
          "from": "0x8454d149beb26e3e3fc5ed1c87fb0b2a1b7b6c2c",
          "to": "0x1689ad770c571004fa7f3896f64e49bfc61b564f",
          "contractAddress": null
        },
        {
          "status": "0x1",
          "cumulativeGasUsed": "0x9adcbf",
          "logs": [
            {
              "address": "0xfd57b4ddbf88a4e07ff4e34c487b99af2fe82a05",
              "topics": [
                "0xddf252ad1be2c89b69c2b068fc378daa952ba7f163c4a11628f55a4df523b3ef",
                "0x0000000000000000000000000000000000000000000000000000000000000000",
                "0x0000000000000000000000001689ad770c571004fa7f3896f64e49bfc61b564f"
              ],
              "data": "0x0000000000000000000000000000000000000000000000000de0b6b3a7640000",
              "blockHash": "0x9e33b5d46c7a8ca272465c7176de931b15000bbb93d6a92c1a4d9c81c7e9d18b",
              "blockNumber": "0x6457f2",
              "transactionHash": "0x9f816cb2545d707b1fbfd05c1655350ed0d297d2662755963920c26dc9e8bf24",
              "transactionIndex": "0x36",
              "logIndex": "0x62",
              "removed": false
            }
          ],
          "logsBloom": "0x00400002000000000000000000000000000000000000000000000000000000000000000000000000000000000000000000000000000000000000000000000000000000000000000000000008000000000000000000000000000000000000000000000000020000000000000000000800000000000000000000000010000000000000000000000000000000000000000000000004000000000000000000000000000000000000000040000000000000080000000000000000000000000000000000000002000000000000000000000000000000000000000000000000001020000000000000000000000000000000000000000000000000000000000000000000",
          "type": "0x2",
          "transactionHash": "0x9f816cb2545d707b1fbfd05c1655350ed0d297d2662755963920c26dc9e8bf24",
          "transactionIndex": "0x36",
          "blockHash": "0x9e33b5d46c7a8ca272465c7176de931b15000bbb93d6a92c1a4d9c81c7e9d18b",
          "blockNumber": "0x6457f2",
          "gasUsed": "0xc701",
          "effectiveGasPrice": "0x1aa270972",
          "from": "0x8454d149beb26e3e3fc5ed1c87fb0b2a1b7b6c2c",
          "to": "0xfd57b4ddbf88a4e07ff4e34c487b99af2fe82a05",
          "contractAddress": null
        }
      ],
      "libraries": [],
      "pending": [],
      "returns": {},
      "timestamp": 1724692306,
      "chain": 11155111,
      "commit": "b14d606"
    }
  ],
  "timestamp": 1724692336
}