{
  "deployments": [
    {
      "transactions": [
        {
          "hash": "0x38a8f62329e43a6b6202179b9a709b3b7b35a7f61bdde6be495bf877b3e2b979",
          "transactionType": "CALL",
          "contractName": null,
          "contractAddress": "0x2ee92a6e9afb0e94937f9020df3bd6203f73d24a",
          "function": "allowlistSender(uint64,address,bool)",
          "arguments": [
            "16015286601757825753",
            "0x7aABfF7bb12EAB2aFb76998c0d80928E670CB51A",
            "true"
          ],
          "transaction": {
            "from": "0x8454d149beb26e3e3fc5ed1c87fb0b2a1b7b6c2c",
            "to": "0x2ee92a6e9afb0e94937f9020df3bd6203f73d24a",
            "gas": "0x1366e",
            "value": "0x0",
            "input": "0xf039a009000000000000000000000000000000000000000000000000de41ba4fc9d91ad90000000000000000000000007aabff7bb12eab2afb76998c0d80928e670cb51a0000000000000000000000000000000000000000000000000000000000000001",
            "nonce": "0x5b7",
            "chainId": "0x14a34"
          },
          "additionalContracts": [],
          "isFixedGasLimit": false
        },
        {
          "hash": "0xd647d8b8fb3efd5ee70fb7782410693743c148e8e43f016d0c4a1fdc8e645754",
          "transactionType": "CALL",
          "contractName": null,
          "contractAddress": "0x2ee92a6e9afb0e94937f9020df3bd6203f73d24a",
          "function": "allowlistSourceChain(uint64,bool)",
          "arguments": [
            "10344971235874465080",
            "true"
          ],
          "transaction": {
            "from": "0x8454d149beb26e3e3fc5ed1c87fb0b2a1b7b6c2c",
            "to": "0x2ee92a6e9afb0e94937f9020df3bd6203f73d24a",
            "gas": "0x1301e",
            "value": "0x0",
            "input": "0xdb04fa490000000000000000000000000000000000000000000000008f90b8876dee65380000000000000000000000000000000000000000000000000000000000000001",
            "nonce": "0x5b8",
            "chainId": "0x14a34"
          },
          "additionalContracts": [],
          "isFixedGasLimit": false
        },
        {
          "hash": "0xa2e5fe2bdc242a129502cefc538a83ecd2ab94b3170984790ebb04c6ae3525a6",
          "transactionType": "CALL",
          "contractName": null,
          "contractAddress": "0x2ee92a6e9afb0e94937f9020df3bd6203f73d24a",
          "function": "allowlistDestinationChain(uint64,bool)",
          "arguments": [
            "16015286601757825753",
            "true"
          ],
          "transaction": {
            "from": "0x8454d149beb26e3e3fc5ed1c87fb0b2a1b7b6c2c",
            "to": "0x2ee92a6e9afb0e94937f9020df3bd6203f73d24a",
            "gas": "0xb3f8",
            "value": "0x0",
            "input": "0x96d3b83d000000000000000000000000000000000000000000000000de41ba4fc9d91ad90000000000000000000000000000000000000000000000000000000000000001",
            "nonce": "0x5b9",
            "chainId": "0x14a34"
          },
          "additionalContracts": [],
          "isFixedGasLimit": false
        },
        {
          "hash": "0xec792fa3f442c49237f53c2c6aa2c8d8168686f163b516a33cacd7475ba613ae",
          "transactionType": "CALL",
          "contractName": null,
          "contractAddress": "0xe04336a5e33451ad56319ff7c09e14e28c65adbe",
          "function": "setGasLimitsForFunctionSelectors(bytes4[],uint256[])",
          "arguments": [
            "[0xe7a050aa, 0xcc15a557, 0x0dd8dd02, 0xe4cc3f90, 0xeea9064b, 0xda8be864, 0x3ccc861d]",
            "[410000, 290000, 315000, 560000, 350000, 340000, 540000]"
          ],
          "transaction": {
            "from": "0x8454d149beb26e3e3fc5ed1c87fb0b2a1b7b6c2c",
            "to": "0xe04336a5e33451ad56319ff7c09e14e28c65adbe",
            "gas": "0x44e44",
            "value": "0x0",
            "input": "0x3ef2d377000000000000000000000000000000000000000000000000000000000000004000000000000000000000000000000000000000000000000000000000000001400000000000000000000000000000000000000000000000000000000000000007e7a050aa00000000000000000000000000000000000000000000000000000000cc15a557000000000000000000000000000000000000000000000000000000000dd8dd0200000000000000000000000000000000000000000000000000000000e4cc3f9000000000000000000000000000000000000000000000000000000000eea9064b00000000000000000000000000000000000000000000000000000000da8be864000000000000000000000000000000000000000000000000000000003ccc861d00000000000000000000000000000000000000000000000000000000000000000000000000000000000000000000000000000000000000000000000700000000000000000000000000000000000000000000000000000000000641900000000000000000000000000000000000000000000000000000000000046cd0000000000000000000000000000000000000000000000000000000000004ce780000000000000000000000000000000000000000000000000000000000088b80000000000000000000000000000000000000000000000000000000000005573000000000000000000000000000000000000000000000000000000000000530200000000000000000000000000000000000000000000000000000000000083d60",
            "nonce": "0x5ba",
            "chainId": "0x14a34"
          },
          "additionalContracts": [],
          "isFixedGasLimit": false
        },
        {
          "hash": "0x24d62e79c2deeaa87aed8a2e3c1b97138655ae83f8e4acda92591d6279a52f3d",
          "transactionType": "CALL",
          "contractName": null,
          "contractAddress": "0xe04336a5e33451ad56319ff7c09e14e28c65adbe",
          "function": "setSenderCCIP(address)",
          "arguments": [
            "0x2ee92A6E9aFb0E94937F9020Df3bD6203F73d24A"
          ],
          "transaction": {
            "from": "0x8454d149beb26e3e3fc5ed1c87fb0b2a1b7b6c2c",
            "to": "0xe04336a5e33451ad56319ff7c09e14e28c65adbe",
            "gas": "0xb0d4",
            "value": "0x0",
            "input": "0xd8d6c31a0000000000000000000000002ee92a6e9afb0e94937f9020df3bd6203f73d24a",
            "nonce": "0x5bb",
            "chainId": "0x14a34"
          },
          "additionalContracts": [],
          "isFixedGasLimit": false
        },
        {
          "hash": "0xdd170a4d33f8d32b6b8a0b15f614ec5b57a966fb5065905684e0628ad9ee467d",
          "transactionType": "CALL",
          "contractName": null,
          "contractAddress": "0x2ee92a6e9afb0e94937f9020df3bd6203f73d24a",
          "function": "getSenderHooks()",
          "arguments": [],
          "transaction": {
            "from": "0x8454d149beb26e3e3fc5ed1c87fb0b2a1b7b6c2c",
            "to": "0x2ee92a6e9afb0e94937f9020df3bd6203f73d24a",
            "gas": "0xa4d2",
            "value": "0x0",
            "input": "0xe09df825",
            "nonce": "0x5bc",
            "chainId": "0x14a34"
          },
          "additionalContracts": [],
          "isFixedGasLimit": false
        },
        {
          "hash": "0xe6bf5d0e8a762ecdc23a3753d342072a1fcc72eab80194b2d2b6cf713ae5450f",
          "transactionType": "CALL",
          "contractName": null,
          "contractAddress": "0x2ee92a6e9afb0e94937f9020df3bd6203f73d24a",
          "function": "allowlistedSenders(uint64,address)",
          "arguments": [
            "16015286601757825753",
            "0x7aABfF7bb12EAB2aFb76998c0d80928E670CB51A"
          ],
          "transaction": {
            "from": "0x8454d149beb26e3e3fc5ed1c87fb0b2a1b7b6c2c",
            "to": "0x2ee92a6e9afb0e94937f9020df3bd6203f73d24a",
            "gas": "0xa11b",
            "value": "0x0",
            "input": "0x039faeb0000000000000000000000000000000000000000000000000de41ba4fc9d91ad90000000000000000000000007aabff7bb12eab2afb76998c0d80928e670cb51a",
            "nonce": "0x5bd",
            "chainId": "0x14a34"
          },
          "additionalContracts": [],
          "isFixedGasLimit": false
        },
        {
          "hash": "0x22f3f4d99f6ac834a46dd54c2a44685ecc899966ff0524f4b25fc520b0968d97",
          "transactionType": "CALL",
          "contractName": null,
          "contractAddress": "0x2ee92a6e9afb0e94937f9020df3bd6203f73d24a",
          "function": "allowlistedSourceChains(uint64)",
          "arguments": [
            "16015286601757825753"
          ],
          "transaction": {
            "from": "0x8454d149beb26e3e3fc5ed1c87fb0b2a1b7b6c2c",
            "to": "0x2ee92a6e9afb0e94937f9020df3bd6203f73d24a",
            "gas": "0xa6f6",
            "value": "0x0",
            "input": "0x4030d521000000000000000000000000000000000000000000000000de41ba4fc9d91ad9",
            "nonce": "0x5be",
            "chainId": "0x14a34"
          },
          "additionalContracts": [],
          "isFixedGasLimit": false
        },
        {
          "hash": "0xb6f117e652cb450e7dd9bbdbfe4cf7dc056323041753be3041e0ea595fd5a6bc",
          "transactionType": "CALL",
          "contractName": null,
          "contractAddress": "0x2ee92a6e9afb0e94937f9020df3bd6203f73d24a",
          "function": "allowlistedDestinationChains(uint64)",
          "arguments": [
            "16015286601757825753"
          ],
          "transaction": {
            "from": "0x8454d149beb26e3e3fc5ed1c87fb0b2a1b7b6c2c",
            "to": "0x2ee92a6e9afb0e94937f9020df3bd6203f73d24a",
            "gas": "0xa6d3",
            "value": "0x0",
            "input": "0x75c67c66000000000000000000000000000000000000000000000000de41ba4fc9d91ad9",
            "nonce": "0x5bf",
            "chainId": "0x14a34"
          },
          "additionalContracts": [],
          "isFixedGasLimit": false
        }
      ],
      "receipts": [
        {
          "status": "0x1",
          "cumulativeGasUsed": "0x2c551f",
          "logs": [
            {
              "address": "0x2ee92a6e9afb0e94937f9020df3bd6203f73d24a",
              "topics": [
                "0x7341e817a8458e8902ebedbcd9e82db8299e43de630c89ade217662e6cafe906",
                "0x000000000000000000000000000000000000000000000000de41ba4fc9d91ad9",
                "0x0000000000000000000000007aabff7bb12eab2afb76998c0d80928e670cb51a"
              ],
              "data": "0x0000000000000000000000000000000000000000000000000000000000000001",
              "blockHash": "0xbd41fa46f517694df0a28220da97b8fbd94137c97a9656eee639974581aed542",
              "blockNumber": "0x15dafe6",
              "transactionHash": "0x38a8f62329e43a6b6202179b9a709b3b7b35a7f61bdde6be495bf877b3e2b979",
              "transactionIndex": "0x18",
              "logIndex": "0x42",
              "removed": false
            }
          ],
          "logsBloom": "0x00000000000000000020000000000000000000000000000000000000000000000000000000004000000000000000000000000000000000000000000000000000000000000000000000000000000000000000000000000400000000000000000000000000000000000000000000010000000000000000000000000000008000000000000000000000200000000000000000000020000000000000000000000000000000000000000000000000000000000000000000000000000000000000000000000000000000000000000000000000000000000000000000000000000000000000000000000000000020008000010000000000000001000000000000000010",
          "type": "0x2",
          "transactionHash": "0x38a8f62329e43a6b6202179b9a709b3b7b35a7f61bdde6be495bf877b3e2b979",
          "transactionIndex": "0x18",
          "blockHash": "0xbd41fa46f517694df0a28220da97b8fbd94137c97a9656eee639974581aed542",
          "blockNumber": "0x15dafe6",
          "gasUsed": "0xd443",
          "effectiveGasPrice": "0xf5ce2",
          "from": "0x8454d149beb26e3e3fc5ed1c87fb0b2a1b7b6c2c",
          "to": "0x2ee92a6e9afb0e94937f9020df3bd6203f73d24a",
          "contractAddress": null,
          "l1BaseFeeScalar": "0x44d",
          "l1BlobBaseFee": "0x1",
          "l1BlobBaseFeeScalar": "0xa118b",
          "l1Fee": "0x43b228b9a7",
          "l1GasPrice": "0x266dbce6cd",
          "l1GasUsed": "0x640"
        },
        {
          "status": "0x1",
          "cumulativeGasUsed": "0x2d2511",
          "logs": [
            {
              "address": "0x2ee92a6e9afb0e94937f9020df3bd6203f73d24a",
              "topics": [
                "0xa5f858f3914e62a82af355192513d8dbc618ff9815e7213a71930d8996a3cb82",
                "0x0000000000000000000000000000000000000000000000008f90b8876dee6538"
              ],
              "data": "0x0000000000000000000000000000000000000000000000000000000000000001",
              "blockHash": "0xbd41fa46f517694df0a28220da97b8fbd94137c97a9656eee639974581aed542",
              "blockNumber": "0x15dafe6",
              "transactionHash": "0xd647d8b8fb3efd5ee70fb7782410693743c148e8e43f016d0c4a1fdc8e645754",
              "transactionIndex": "0x19",
              "logIndex": "0x43",
              "removed": false
            }
          ],
          "logsBloom": "0x00000000000000000020020000000000000000000000000000000000000000000000000000000000000000000000000000000000000000000000000000000000000000000000000000000000000000000000000400000400000000000000200000000000000000000000100000000000000000000000000000000000008000004000000000000000000000000000000000000000000000000000000000000000000000000000000000000000000000000000000000000000000000000000000000000000000000000000000000000000000000000000000000000000000000000000000000000001000000000000000000000000000000000000000000000000",
          "type": "0x2",
          "transactionHash": "0xd647d8b8fb3efd5ee70fb7782410693743c148e8e43f016d0c4a1fdc8e645754",
          "transactionIndex": "0x19",
          "blockHash": "0xbd41fa46f517694df0a28220da97b8fbd94137c97a9656eee639974581aed542",
          "blockNumber": "0x15dafe6",
          "gasUsed": "0xcff2",
          "effectiveGasPrice": "0xf5ce2",
          "from": "0x8454d149beb26e3e3fc5ed1c87fb0b2a1b7b6c2c",
          "to": "0x2ee92a6e9afb0e94937f9020df3bd6203f73d24a",
          "contractAddress": null,
          "l1BaseFeeScalar": "0x44d",
          "l1BlobBaseFee": "0x1",
          "l1BlobBaseFeeScalar": "0xa118b",
          "l1Fee": "0x43b228b9a7",
          "l1GasPrice": "0x266dbce6cd",
          "l1GasUsed": "0x640"
        },
        {
          "status": "0x1",
          "cumulativeGasUsed": "0x2f5911",
          "logs": [
            {
              "address": "0x2ee92a6e9afb0e94937f9020df3bd6203f73d24a",
              "topics": [
                "0x79e93956b5c7b59cb1d0aaa5849af9993c5b994c44b148b1944f4e4ecf1e9b89",
                "0x000000000000000000000000000000000000000000000000de41ba4fc9d91ad9"
              ],
              "data": "0x0000000000000000000000000000000000000000000000000000000000000001",
              "blockHash": "0xbd41fa46f517694df0a28220da97b8fbd94137c97a9656eee639974581aed542",
              "blockNumber": "0x15dafe6",
              "transactionHash": "0xa2e5fe2bdc242a129502cefc538a83ecd2ab94b3170984790ebb04c6ae3525a6",
              "transactionIndex": "0x1b",
              "logIndex": "0x46",
              "removed": false
            }
          ],
          "logsBloom": "0x00000000000000000020000000000000000000040000000000000000000000000000000000004000000000000000000000000000000000000000000000000000000000000000000000200000000000000000000000000400000000000000000000000000000000000000000000010000000000000000000000000000008000000000000000000000000000000000000000000020000000000000000000000000000000000000000000000000000000000000000000000000000000100000000000000000000000000000000000000000000000000000000000000000000000000000000000000000000000000000000000000000000000000000000000000000",
          "type": "0x2",
          "transactionHash": "0xa2e5fe2bdc242a129502cefc538a83ecd2ab94b3170984790ebb04c6ae3525a6",
          "transactionIndex": "0x1b",
          "blockHash": "0xbd41fa46f517694df0a28220da97b8fbd94137c97a9656eee639974581aed542",
          "blockNumber": "0x15dafe6",
          "gasUsed": "0x824c",
          "effectiveGasPrice": "0xf5ce2",
          "from": "0x8454d149beb26e3e3fc5ed1c87fb0b2a1b7b6c2c",
          "to": "0x2ee92a6e9afb0e94937f9020df3bd6203f73d24a",
          "contractAddress": null,
          "l1BaseFeeScalar": "0x44d",
          "l1BlobBaseFee": "0x1",
          "l1BlobBaseFeeScalar": "0xa118b",
          "l1Fee": "0x43b228b9a7",
          "l1GasPrice": "0x266dbce6cd",
          "l1GasUsed": "0x640"
        },
        {
          "status": "0x1",
          "cumulativeGasUsed": "0x327717",
          "logs": [
            {
              "address": "0xe04336a5e33451ad56319ff7c09e14e28c65adbe",
              "topics": [
                "0xed4c89b805f4efb58bc4a42b9a3c6f09783f619295a1fa41ab46d6190c8c7f3b",
                "0xe7a050aa00000000000000000000000000000000000000000000000000000000",
                "0x0000000000000000000000000000000000000000000000000000000000064190"
              ],
              "data": "0x",
              "blockHash": "0xbd41fa46f517694df0a28220da97b8fbd94137c97a9656eee639974581aed542",
              "blockNumber": "0x15dafe6",
              "transactionHash": "0xec792fa3f442c49237f53c2c6aa2c8d8168686f163b516a33cacd7475ba613ae",
              "transactionIndex": "0x1c",
              "logIndex": "0x47",
              "removed": false
            },
            {
              "address": "0xe04336a5e33451ad56319ff7c09e14e28c65adbe",
              "topics": [
                "0xed4c89b805f4efb58bc4a42b9a3c6f09783f619295a1fa41ab46d6190c8c7f3b",
                "0xcc15a55700000000000000000000000000000000000000000000000000000000",
                "0x0000000000000000000000000000000000000000000000000000000000046cd0"
              ],
              "data": "0x",
              "blockHash": "0xbd41fa46f517694df0a28220da97b8fbd94137c97a9656eee639974581aed542",
              "blockNumber": "0x15dafe6",
              "transactionHash": "0xec792fa3f442c49237f53c2c6aa2c8d8168686f163b516a33cacd7475ba613ae",
              "transactionIndex": "0x1c",
              "logIndex": "0x48",
              "removed": false
            },
            {
              "address": "0xe04336a5e33451ad56319ff7c09e14e28c65adbe",
              "topics": [
                "0xed4c89b805f4efb58bc4a42b9a3c6f09783f619295a1fa41ab46d6190c8c7f3b",
                "0x0dd8dd0200000000000000000000000000000000000000000000000000000000",
                "0x000000000000000000000000000000000000000000000000000000000004ce78"
              ],
              "data": "0x",
              "blockHash": "0xbd41fa46f517694df0a28220da97b8fbd94137c97a9656eee639974581aed542",
              "blockNumber": "0x15dafe6",
              "transactionHash": "0xec792fa3f442c49237f53c2c6aa2c8d8168686f163b516a33cacd7475ba613ae",
              "transactionIndex": "0x1c",
              "logIndex": "0x49",
              "removed": false
            },
            {
              "address": "0xe04336a5e33451ad56319ff7c09e14e28c65adbe",
              "topics": [
                "0xed4c89b805f4efb58bc4a42b9a3c6f09783f619295a1fa41ab46d6190c8c7f3b",
                "0xe4cc3f9000000000000000000000000000000000000000000000000000000000",
                "0x0000000000000000000000000000000000000000000000000000000000088b80"
              ],
              "data": "0x",
              "blockHash": "0xbd41fa46f517694df0a28220da97b8fbd94137c97a9656eee639974581aed542",
              "blockNumber": "0x15dafe6",
              "transactionHash": "0xec792fa3f442c49237f53c2c6aa2c8d8168686f163b516a33cacd7475ba613ae",
              "transactionIndex": "0x1c",
              "logIndex": "0x4a",
              "removed": false
            },
            {
              "address": "0xe04336a5e33451ad56319ff7c09e14e28c65adbe",
              "topics": [
                "0xed4c89b805f4efb58bc4a42b9a3c6f09783f619295a1fa41ab46d6190c8c7f3b",
                "0xeea9064b00000000000000000000000000000000000000000000000000000000",
                "0x0000000000000000000000000000000000000000000000000000000000055730"
              ],
              "data": "0x",
              "blockHash": "0xbd41fa46f517694df0a28220da97b8fbd94137c97a9656eee639974581aed542",
              "blockNumber": "0x15dafe6",
              "transactionHash": "0xec792fa3f442c49237f53c2c6aa2c8d8168686f163b516a33cacd7475ba613ae",
              "transactionIndex": "0x1c",
              "logIndex": "0x4b",
              "removed": false
            },
            {
              "address": "0xe04336a5e33451ad56319ff7c09e14e28c65adbe",
              "topics": [
                "0xed4c89b805f4efb58bc4a42b9a3c6f09783f619295a1fa41ab46d6190c8c7f3b",
                "0xda8be86400000000000000000000000000000000000000000000000000000000",
                "0x0000000000000000000000000000000000000000000000000000000000053020"
              ],
              "data": "0x",
              "blockHash": "0xbd41fa46f517694df0a28220da97b8fbd94137c97a9656eee639974581aed542",
              "blockNumber": "0x15dafe6",
              "transactionHash": "0xec792fa3f442c49237f53c2c6aa2c8d8168686f163b516a33cacd7475ba613ae",
              "transactionIndex": "0x1c",
              "logIndex": "0x4c",
              "removed": false
            },
            {
              "address": "0xe04336a5e33451ad56319ff7c09e14e28c65adbe",
              "topics": [
                "0xed4c89b805f4efb58bc4a42b9a3c6f09783f619295a1fa41ab46d6190c8c7f3b",
                "0x3ccc861d00000000000000000000000000000000000000000000000000000000",
                "0x0000000000000000000000000000000000000000000000000000000000083d60"
              ],
              "data": "0x",
              "blockHash": "0xbd41fa46f517694df0a28220da97b8fbd94137c97a9656eee639974581aed542",
              "blockNumber": "0x15dafe6",
              "transactionHash": "0xec792fa3f442c49237f53c2c6aa2c8d8168686f163b516a33cacd7475ba613ae",
              "transactionIndex": "0x1c",
              "logIndex": "0x4d",
              "removed": false
            }
          ],
          "logsBloom": "0x00000001000000000040000000000000000000000800000000000000004000000000000000020000000800000040000000100000000000000000200000100000000000000000000000000100000000040108000000000000080000000000000000000010000000002000000000010000830000000000000000000000000100000000100000800000000000000300000000000000000400000000000000000000001000400000000000000000002000000000000080000000000000000000400400000400000000000008001000010000000200000000000000000000400001020000800000001800000000000000000000002000000000100000010100000000",
          "type": "0x2",
          "transactionHash": "0xec792fa3f442c49237f53c2c6aa2c8d8168686f163b516a33cacd7475ba613ae",
          "transactionIndex": "0x1c",
          "blockHash": "0xbd41fa46f517694df0a28220da97b8fbd94137c97a9656eee639974581aed542",
          "blockNumber": "0x15dafe6",
          "gasUsed": "0x31e06",
          "effectiveGasPrice": "0xf5ce2",
          "from": "0x8454d149beb26e3e3fc5ed1c87fb0b2a1b7b6c2c",
          "to": "0xe04336a5e33451ad56319ff7c09e14e28c65adbe",
          "contractAddress": null,
          "l1BaseFeeScalar": "0x44d",
          "l1BlobBaseFee": "0x1",
          "l1BlobBaseFeeScalar": "0xa118b",
          "l1Fee": "0x7ca1d868ea",
          "l1GasPrice": "0x266dbce6cd",
          "l1GasUsed": "0xb81"
        },
        {
          "status": "0x1",
          "cumulativeGasUsed": "0x47aa90",
          "logs": [
            {
              "address": "0xe04336a5e33451ad56319ff7c09e14e28c65adbe",
              "topics": [
                "0xc200bc994a6761c6c93718eb06df928b16dca3e77b7ce283d09852e260c9b2da",
                "0x0000000000000000000000002ee92a6e9afb0e94937f9020df3bd6203f73d24a"
              ],
              "data": "0x",
              "blockHash": "0xbd41fa46f517694df0a28220da97b8fbd94137c97a9656eee639974581aed542",
              "blockNumber": "0x15dafe6",
              "transactionHash": "0x24d62e79c2deeaa87aed8a2e3c1b97138655ae83f8e4acda92591d6279a52f3d",
              "transactionIndex": "0x28",
              "logIndex": "0x73",
              "removed": false
            }
          ],
          "logsBloom": "0x00000000000000000100000000000000100000040000000000000000000000000000000000000000000000000000000000100000000000000000000000000000000000000000000000000000000000000000000000000000000000000400000000000000000000000000000000000000000000000000000000000000000000000000000000000000000000000200000000000000000000000000000000000000100000000000000000000000000000000000000000000000000000000000000000000400000000000000000000000000000020000000000000000000000000000000000000000000000000000000000000000000000000000000000000000000",
          "type": "0x2",
          "transactionHash": "0x24d62e79c2deeaa87aed8a2e3c1b97138655ae83f8e4acda92591d6279a52f3d",
          "transactionIndex": "0x28",
          "blockHash": "0xbd41fa46f517694df0a28220da97b8fbd94137c97a9656eee639974581aed542",
          "blockNumber": "0x15dafe6",
          "gasUsed": "0x8006",
          "effectiveGasPrice": "0xf5ce2",
          "from": "0x8454d149beb26e3e3fc5ed1c87fb0b2a1b7b6c2c",
          "to": "0xe04336a5e33451ad56319ff7c09e14e28c65adbe",
          "contractAddress": null,
          "l1BaseFeeScalar": "0x44d",
          "l1BlobBaseFee": "0x1",
          "l1BlobBaseFeeScalar": "0xa118b",
          "l1Fee": "0x43b228b9a7",
          "l1GasPrice": "0x266dbce6cd",
          "l1GasUsed": "0x640"
        },
        {
          "status": "0x1",
          "cumulativeGasUsed": "0x481b43",
          "logs": [],
          "logsBloom": "0x00000000000000000000000000000000000000000000000000000000000000000000000000000000000000000000000000000000000000000000000000000000000000000000000000000000000000000000000000000000000000000000000000000000000000000000000000000000000000000000000000000000000000000000000000000000000000000000000000000000000000000000000000000000000000000000000000000000000000000000000000000000000000000000000000000000000000000000000000000000000000000000000000000000000000000000000000000000000000000000000000000000000000000000000000000000",
          "type": "0x2",
          "transactionHash": "0xdd170a4d33f8d32b6b8a0b15f614ec5b57a966fb5065905684e0628ad9ee467d",
          "transactionIndex": "0x29",
          "blockHash": "0xbd41fa46f517694df0a28220da97b8fbd94137c97a9656eee639974581aed542",
          "blockNumber": "0x15dafe6",
          "gasUsed": "0x70b3",
          "effectiveGasPrice": "0xf5ce2",
          "from": "0x8454d149beb26e3e3fc5ed1c87fb0b2a1b7b6c2c",
          "to": "0x2ee92a6e9afb0e94937f9020df3bd6203f73d24a",
          "contractAddress": null,
          "l1BaseFeeScalar": "0x44d",
          "l1BlobBaseFee": "0x1",
          "l1BlobBaseFeeScalar": "0xa118b",
          "l1Fee": "0x43b228b9a7",
          "l1GasPrice": "0x266dbce6cd",
          "l1GasUsed": "0x640"
        },
        {
          "status": "0x1",
          "cumulativeGasUsed": "0x488fe7",
          "logs": [],
          "logsBloom": "0x00000000000000000000000000000000000000000000000000000000000000000000000000000000000000000000000000000000000000000000000000000000000000000000000000000000000000000000000000000000000000000000000000000000000000000000000000000000000000000000000000000000000000000000000000000000000000000000000000000000000000000000000000000000000000000000000000000000000000000000000000000000000000000000000000000000000000000000000000000000000000000000000000000000000000000000000000000000000000000000000000000000000000000000000000000000",
          "type": "0x2",
          "transactionHash": "0xe6bf5d0e8a762ecdc23a3753d342072a1fcc72eab80194b2d2b6cf713ae5450f",
          "transactionIndex": "0x2a",
          "blockHash": "0xbd41fa46f517694df0a28220da97b8fbd94137c97a9656eee639974581aed542",
          "blockNumber": "0x15dafe6",
          "gasUsed": "0x74a4",
          "effectiveGasPrice": "0xf5ce2",
          "from": "0x8454d149beb26e3e3fc5ed1c87fb0b2a1b7b6c2c",
          "to": "0x2ee92a6e9afb0e94937f9020df3bd6203f73d24a",
          "contractAddress": null,
          "l1BaseFeeScalar": "0x44d",
          "l1BlobBaseFee": "0x1",
          "l1BlobBaseFeeScalar": "0xa118b",
          "l1Fee": "0x43b228b9a7",
          "l1GasPrice": "0x266dbce6cd",
          "l1GasUsed": "0x640"
        },
        {
          "status": "0x1",
          "cumulativeGasUsed": "0x490211",
          "logs": [],
          "logsBloom": "0x00000000000000000000000000000000000000000000000000000000000000000000000000000000000000000000000000000000000000000000000000000000000000000000000000000000000000000000000000000000000000000000000000000000000000000000000000000000000000000000000000000000000000000000000000000000000000000000000000000000000000000000000000000000000000000000000000000000000000000000000000000000000000000000000000000000000000000000000000000000000000000000000000000000000000000000000000000000000000000000000000000000000000000000000000000000",
          "type": "0x2",
          "transactionHash": "0x22f3f4d99f6ac834a46dd54c2a44685ecc899966ff0524f4b25fc520b0968d97",
          "transactionIndex": "0x2b",
          "blockHash": "0xbd41fa46f517694df0a28220da97b8fbd94137c97a9656eee639974581aed542",
          "blockNumber": "0x15dafe6",
          "gasUsed": "0x722a",
          "effectiveGasPrice": "0xf5ce2",
          "from": "0x8454d149beb26e3e3fc5ed1c87fb0b2a1b7b6c2c",
          "to": "0x2ee92a6e9afb0e94937f9020df3bd6203f73d24a",
          "contractAddress": null,
          "l1BaseFeeScalar": "0x44d",
          "l1BlobBaseFee": "0x1",
          "l1BlobBaseFeeScalar": "0xa118b",
          "l1Fee": "0x43b228b9a7",
          "l1GasPrice": "0x266dbce6cd",
          "l1GasUsed": "0x640"
        },
        {
          "status": "0x1",
          "cumulativeGasUsed": "0x497423",
          "logs": [],
          "logsBloom": "0x00000000000000000000000000000000000000000000000000000000000000000000000000000000000000000000000000000000000000000000000000000000000000000000000000000000000000000000000000000000000000000000000000000000000000000000000000000000000000000000000000000000000000000000000000000000000000000000000000000000000000000000000000000000000000000000000000000000000000000000000000000000000000000000000000000000000000000000000000000000000000000000000000000000000000000000000000000000000000000000000000000000000000000000000000000000",
          "type": "0x2",
          "transactionHash": "0xb6f117e652cb450e7dd9bbdbfe4cf7dc056323041753be3041e0ea595fd5a6bc",
          "transactionIndex": "0x2c",
          "blockHash": "0xbd41fa46f517694df0a28220da97b8fbd94137c97a9656eee639974581aed542",
          "blockNumber": "0x15dafe6",
          "gasUsed": "0x7212",
          "effectiveGasPrice": "0xf5ce2",
          "from": "0x8454d149beb26e3e3fc5ed1c87fb0b2a1b7b6c2c",
          "to": "0x2ee92a6e9afb0e94937f9020df3bd6203f73d24a",
          "contractAddress": null,
          "l1BaseFeeScalar": "0x44d",
          "l1BlobBaseFee": "0x1",
          "l1BlobBaseFeeScalar": "0xa118b",
          "l1Fee": "0x43b228b9a7",
          "l1GasPrice": "0x266dbce6cd",
          "l1GasUsed": "0x640"
        }
      ],
      "libraries": [],
      "pending": [],
      "returns": {},
      "timestamp": 1741602473,
      "chain": 84532,
      "commit": "5a5df58"
    },
    {
      "transactions": [
        {
          "hash": "0x7cf81f8a88512576359a37a32c0f8f90288d5ac8b1a242080ce99709622aa0ed",
          "transactionType": "CALL",
          "contractName": null,
          "contractAddress": "0x7aabff7bb12eab2afb76998c0d80928e670cb51a",
          "function": "allowlistSender(uint64,address,bool)",
          "arguments": [
            "10344971235874465080",
            "0x2ee92A6E9aFb0E94937F9020Df3bD6203F73d24A",
            "true"
          ],
          "transaction": {
            "from": "0x8454d149beb26e3e3fc5ed1c87fb0b2a1b7b6c2c",
            "to": "0x7aabff7bb12eab2afb76998c0d80928e670cb51a",
            "gas": "0xc0c9",
            "value": "0x0",
            "input": "0xf039a0090000000000000000000000000000000000000000000000008f90b8876dee65380000000000000000000000002ee92a6e9afb0e94937f9020df3bd6203f73d24a0000000000000000000000000000000000000000000000000000000000000001",
            "nonce": "0x7dc",
            "chainId": "0xaa36a7"
          },
          "additionalContracts": [],
          "isFixedGasLimit": false
        },
        {
          "hash": "0xd981d71c60d622aa950a83249ec3ec5559b53698aa7faf94d894ee45a3a89986",
          "transactionType": "CALL",
          "contractName": null,
          "contractAddress": "0x7aabff7bb12eab2afb76998c0d80928e670cb51a",
          "function": "allowlistSourceChain(uint64,bool)",
          "arguments": [
            "10344971235874465080",
            "true"
          ],
          "transaction": {
            "from": "0x8454d149beb26e3e3fc5ed1c87fb0b2a1b7b6c2c",
            "to": "0x7aabff7bb12eab2afb76998c0d80928e670cb51a",
            "gas": "0xb0f9",
            "value": "0x0",
            "input": "0xdb04fa490000000000000000000000000000000000000000000000008f90b8876dee65380000000000000000000000000000000000000000000000000000000000000001",
            "nonce": "0x7dd",
            "chainId": "0xaa36a7"
          },
          "additionalContracts": [],
          "isFixedGasLimit": false
        },
        {
          "hash": "0x05bc8206d205b34274f08c7b25d2764590b3c2065d55b2838050c2ed9626d64c",
          "transactionType": "CALL",
          "contractName": null,
          "contractAddress": "0x7aabff7bb12eab2afb76998c0d80928e670cb51a",
          "function": "allowlistSourceChain(uint64,bool)",
          "arguments": [
            "16015286601757825753",
            "true"
          ],
          "transaction": {
            "from": "0x8454d149beb26e3e3fc5ed1c87fb0b2a1b7b6c2c",
            "to": "0x7aabff7bb12eab2afb76998c0d80928e670cb51a",
            "gas": "0x11c56",
            "value": "0x0",
            "input": "0xdb04fa49000000000000000000000000000000000000000000000000de41ba4fc9d91ad90000000000000000000000000000000000000000000000000000000000000001",
            "nonce": "0x7de",
            "chainId": "0xaa36a7"
          },
          "additionalContracts": [],
          "isFixedGasLimit": false
        },
        {
          "hash": "0xe2c6a3d5cdad1d08b7b7debce6e029f9f0197f312e5c2108351632d8eaf100b9",
          "transactionType": "CALL",
          "contractName": null,
          "contractAddress": "0x7aabff7bb12eab2afb76998c0d80928e670cb51a",
          "function": "allowlistDestinationChain(uint64,bool)",
          "arguments": [
            "10344971235874465080",
            "true"
          ],
          "transaction": {
            "from": "0x8454d149beb26e3e3fc5ed1c87fb0b2a1b7b6c2c",
            "to": "0x7aabff7bb12eab2afb76998c0d80928e670cb51a",
            "gas": "0xbb6f",
            "value": "0x0",
            "input": "0x96d3b83d0000000000000000000000000000000000000000000000008f90b8876dee65380000000000000000000000000000000000000000000000000000000000000001",
            "nonce": "0x7df",
            "chainId": "0xaa36a7"
          },
          "additionalContracts": [],
          "isFixedGasLimit": false
        },
        {
          "hash": "0xcfc576b4d36fd5cd7dab3add8177fa36135cc7c93d2f0989d8fbb05ce2f7aed1",
          "transactionType": "CALL",
          "contractName": null,
          "contractAddress": "0x360990409b6c36e1e1878079ab38e4a394f2df45",
          "function": "setGasLimitsForFunctionSelectors(bytes4[],uint256[])",
          "arguments": [
            "[0xd8a85b48]",
            "[270000]"
          ],
          "transaction": {
            "from": "0x8454d149beb26e3e3fc5ed1c87fb0b2a1b7b6c2c",
            "to": "0x360990409b6c36e1e1878079ab38e4a394f2df45",
            "gas": "0x126e3",
            "value": "0x0",
            "input": "0x3ef2d377000000000000000000000000000000000000000000000000000000000000004000000000000000000000000000000000000000000000000000000000000000800000000000000000000000000000000000000000000000000000000000000001d8a85b480000000000000000000000000000000000000000000000000000000000000000000000000000000000000000000000000000000000000000000000010000000000000000000000000000000000000000000000000000000000041eb0",
            "nonce": "0x7e0",
            "chainId": "0xaa36a7"
          },
          "additionalContracts": [],
          "isFixedGasLimit": false
        }
      ],
      "receipts": [
        {
          "status": "0x1",
          "cumulativeGasUsed": "0xfc656d",
          "logs": [
            {
              "address": "0x7aabff7bb12eab2afb76998c0d80928e670cb51a",
              "topics": [
                "0x7341e817a8458e8902ebedbcd9e82db8299e43de630c89ade217662e6cafe906",
                "0x0000000000000000000000000000000000000000000000008f90b8876dee6538",
                "0x0000000000000000000000002ee92a6e9afb0e94937f9020df3bd6203f73d24a"
              ],
              "data": "0x0000000000000000000000000000000000000000000000000000000000000001",
              "blockHash": "0x762b775cd33fa9a96a8f93c05f403f785f8c14ebdcef48a7c73e4d86643e1371",
              "blockNumber": "0x782147",
              "transactionHash": "0x7cf81f8a88512576359a37a32c0f8f90288d5ac8b1a242080ce99709622aa0ed",
              "transactionIndex": "0x9a",
              "logIndex": "0xc7",
              "removed": false
            }
          ],
          "logsBloom": "0x00000000000000000000000000000000100000040000000000000000000000000000000000000000000000000000000000000000000000000000000000000000000000000000000000000000000000000000000400000000000000000400200000000000100000000000000000000000000000000000000000000000000000004000000040000000000000000000000000000000000000000000000000000000000000040000000000000000000000000000000000000000000000000000000000000000000000000000000000000000000000000000000000000000000000000000000000000000000020000000000000000000000001000000000000000010",
          "type": "0x2",
          "transactionHash": "0x7cf81f8a88512576359a37a32c0f8f90288d5ac8b1a242080ce99709622aa0ed",
          "transactionIndex": "0x9a",
          "blockHash": "0x762b775cd33fa9a96a8f93c05f403f785f8c14ebdcef48a7c73e4d86643e1371",
          "blockNumber": "0x782147",
          "gasUsed": "0x83d2",
          "effectiveGasPrice": "0x26b33840a2",
          "blobGasUsed": "0x0",
          "from": "0x8454d149beb26e3e3fc5ed1c87fb0b2a1b7b6c2c",
          "to": "0x7aabff7bb12eab2afb76998c0d80928e670cb51a",
          "contractAddress": null
        },
        {
          "status": "0x1",
          "cumulativeGasUsed": "0xfce58d",
          "logs": [
            {
              "address": "0x7aabff7bb12eab2afb76998c0d80928e670cb51a",
              "topics": [
                "0xa5f858f3914e62a82af355192513d8dbc618ff9815e7213a71930d8996a3cb82",
                "0x0000000000000000000000000000000000000000000000008f90b8876dee6538"
              ],
              "data": "0x0000000000000000000000000000000000000000000000000000000000000001",
              "blockHash": "0x762b775cd33fa9a96a8f93c05f403f785f8c14ebdcef48a7c73e4d86643e1371",
              "blockNumber": "0x782147",
              "transactionHash": "0xd981d71c60d622aa950a83249ec3ec5559b53698aa7faf94d894ee45a3a89986",
              "transactionIndex": "0x9b",
              "logIndex": "0xc8",
              "removed": false
            }
          ],
          "logsBloom": "0x00000000000000000000020000000000000000000000000000000000000000000000000000000000000000000000000000000000000000000000000000000000000000000000000000000000000000000000000400000000000000000000200000000000100000000000100000000000000000000000000000000000000000004000000040000000000000000000000000000000000000000000000000000000000000040000000000000000000000000000000000000000000000000000000000000000000000000000000000000000000000000000000000000000000000000000000000000001000000000000000000000000000000000000000000000000",
          "type": "0x2",
          "transactionHash": "0xd981d71c60d622aa950a83249ec3ec5559b53698aa7faf94d894ee45a3a89986",
          "transactionIndex": "0x9b",
          "blockHash": "0x762b775cd33fa9a96a8f93c05f403f785f8c14ebdcef48a7c73e4d86643e1371",
          "blockNumber": "0x782147",
          "gasUsed": "0x8020",
          "effectiveGasPrice": "0x26b33840a2",
          "blobGasUsed": "0x0",
          "from": "0x8454d149beb26e3e3fc5ed1c87fb0b2a1b7b6c2c",
          "to": "0x7aabff7bb12eab2afb76998c0d80928e670cb51a",
          "contractAddress": null
        },
        {
          "status": "0x1",
          "cumulativeGasUsed": "0xa148c0",
          "logs": [
            {
              "address": "0x7aabff7bb12eab2afb76998c0d80928e670cb51a",
              "topics": [
                "0xa5f858f3914e62a82af355192513d8dbc618ff9815e7213a71930d8996a3cb82",
                "0x000000000000000000000000000000000000000000000000de41ba4fc9d91ad9"
              ],
              "data": "0x0000000000000000000000000000000000000000000000000000000000000001",
              "blockHash": "0xb3da0155b5b96623df09ccb35e4ab570379699aa3f91f9bfbbb321d0fd3bf075",
              "blockNumber": "0x78214a",
              "transactionHash": "0x05bc8206d205b34274f08c7b25d2764590b3c2065d55b2838050c2ed9626d64c",
              "transactionIndex": "0xe3",
              "logIndex": "0xd9",
              "removed": false
            }
          ],
          "logsBloom": "0x00000000000000000000020000000000000000000000000000000000000000000000000000004000000000000000000000000000000000000000000000000000000000000000000000000000000000000000000000000000000000000000000000000000100000000000100000010000000000000000000000000000000000000000000040000000000000000000000000000020000000000000000000000000000000040000000000000000000000000000000000000000000000000000000000000000000000000000000000000000000000000000000000000000000000000000000000000001000000000000000000000000000000000000000000000000",
          "type": "0x2",
          "transactionHash": "0x05bc8206d205b34274f08c7b25d2764590b3c2065d55b2838050c2ed9626d64c",
          "transactionIndex": "0xe3",
          "blockHash": "0xb3da0155b5b96623df09ccb35e4ab570379699aa3f91f9bfbbb321d0fd3bf075",
          "blockNumber": "0x78214a",
          "gasUsed": "0xcddc",
          "effectiveGasPrice": "0x2a9691bda6",
          "blobGasUsed": "0x0",
          "from": "0x8454d149beb26e3e3fc5ed1c87fb0b2a1b7b6c2c",
          "to": "0x7aabff7bb12eab2afb76998c0d80928e670cb51a",
          "contractAddress": null
        },
        {
          "status": "0x1",
          "cumulativeGasUsed": "0xa1c8e9",
          "logs": [
            {
              "address": "0x7aabff7bb12eab2afb76998c0d80928e670cb51a",
              "topics": [
                "0x79e93956b5c7b59cb1d0aaa5849af9993c5b994c44b148b1944f4e4ecf1e9b89",
                "0x0000000000000000000000000000000000000000000000008f90b8876dee6538"
              ],
              "data": "0x0000000000000000000000000000000000000000000000000000000000000001",
              "blockHash": "0xb3da0155b5b96623df09ccb35e4ab570379699aa3f91f9bfbbb321d0fd3bf075",
              "blockNumber": "0x78214a",
              "transactionHash": "0xe2c6a3d5cdad1d08b7b7debce6e029f9f0197f312e5c2108351632d8eaf100b9",
              "transactionIndex": "0xe4",
              "logIndex": "0xda",
              "removed": false
            }
          ],
          "logsBloom": "0x00000000000000000000000000000000000000040000000000000000000000000000000000000000000000000000000000000000000000000000000000000000000000000000000000200000000000000000000400000000000000000000200000000000100000000000000000000000000000000000000000000000000000004000000040000000000000000000000000000000000000000000000000000000000000040000000000000000000000000000000000000000000000100000000000000000000000000000000000000000000000000000000000000000000000000000000000000000000000000000000000000000000000000000000000000000",
          "type": "0x2",
          "transactionHash": "0xe2c6a3d5cdad1d08b7b7debce6e029f9f0197f312e5c2108351632d8eaf100b9",
          "transactionIndex": "0xe4",
          "blockHash": "0xb3da0155b5b96623df09ccb35e4ab570379699aa3f91f9bfbbb321d0fd3bf075",
          "blockNumber": "0x78214a",
          "gasUsed": "0x8029",
          "effectiveGasPrice": "0x2a9691bda6",
          "blobGasUsed": "0x0",
          "from": "0x8454d149beb26e3e3fc5ed1c87fb0b2a1b7b6c2c",
          "to": "0x7aabff7bb12eab2afb76998c0d80928e670cb51a",
          "contractAddress": null
        },
        {
          "status": "0x1",
          "cumulativeGasUsed": "0xa08f44",
          "logs": [
            {
              "address": "0x360990409b6c36e1e1878079ab38e4a394f2df45",
              "topics": [
                "0xed4c89b805f4efb58bc4a42b9a3c6f09783f619295a1fa41ab46d6190c8c7f3b",
                "0xd8a85b4800000000000000000000000000000000000000000000000000000000",
                "0x0000000000000000000000000000000000000000000000000000000000041eb0"
              ],
              "data": "0x",
              "blockHash": "0x9eda3da2172901980dc7dff3cada191432ec8850093faf20057d6b967dbce26a",
              "blockNumber": "0x78214e",
              "transactionHash": "0xcfc576b4d36fd5cd7dab3add8177fa36135cc7c93d2f0989d8fbb05ce2f7aed1",
              "transactionIndex": "0x65",
              "logIndex": "0x91",
              "removed": false
            }
          ],
          "logsBloom": "0x00000000000000000040000000000000000000000800000000000000000080000000000000000000000000000000000000000000000000000000000000000000000000200000000008000000000000000000000000800000000000000000000000000000000000000000000000000000800000000000040000000000000000000000000000000000000000001000000000000000000000000000000000000000000000000000000000010000100000000000000000000000000000000000000000000000000000000000000800000000000000000000000000000000000000000000000000000000000000000000000000000000000000000000000000000000",
          "type": "0x2",
          "transactionHash": "0xcfc576b4d36fd5cd7dab3add8177fa36135cc7c93d2f0989d8fbb05ce2f7aed1",
          "transactionIndex": "0x65",
          "blockHash": "0x9eda3da2172901980dc7dff3cada191432ec8850093faf20057d6b967dbce26a",
          "blockNumber": "0x78214e",
          "gasUsed": "0xd57f",
          "effectiveGasPrice": "0x2abe47089c",
          "blobGasUsed": "0x0",
          "from": "0x8454d149beb26e3e3fc5ed1c87fb0b2a1b7b6c2c",
          "to": "0x360990409b6c36e1e1878079ab38e4a394f2df45",
          "contractAddress": null
        }
      ],
      "libraries": [],
      "pending": [],
      "returns": {},
      "timestamp": 1741602473,
      "chain": 11155111,
      "commit": "5a5df58"
    }
  ],
  "timestamp": 1741602565
}