{
  "deployments": [
    {
      "transactions": [
        {
          "hash": "0xd19c07d85664a23548999ac07ab16f3608ece354f273ad37a53833e60a351eab",
          "transactionType": "CALL",
          "contractName": null,
          "contractAddress": "0x2a0dd3580658cc32e2d0984051da5f2312001a13",
          "function": "allowlistSender(address,bool)",
          "arguments": [
            "0x0d7135aAf464555e780E2a63f3B1ef0A97B3A499",
            "true"
          ],
          "transaction": {
            "from": "0x8454d149beb26e3e3fc5ed1c87fb0b2a1b7b6c2c",
            "to": "0x2a0dd3580658cc32e2d0984051da5f2312001a13",
            "gas": "0x13300",
            "value": "0x0",
            "input": "0xeab5b02c0000000000000000000000000d7135aaf464555e780e2a63f3b1ef0a97b3a4990000000000000000000000000000000000000000000000000000000000000001",
            "nonce": "0x3f5",
            "chainId": "0x14a34"
          },
          "additionalContracts": [],
          "isFixedGasLimit": false
        },
        {
          "hash": "0x604bd119ab4638657e14d5a0c0fb56abd6899b68972c6e7a794e591704e71ec0",
          "transactionType": "CALL",
          "contractName": null,
          "contractAddress": "0x2a0dd3580658cc32e2d0984051da5f2312001a13",
          "function": "allowlistSourceChain(uint64,bool)",
          "arguments": [
            "10344971235874465080",
            "true"
          ],
          "transaction": {
            "from": "0x8454d149beb26e3e3fc5ed1c87fb0b2a1b7b6c2c",
            "to": "0x2a0dd3580658cc32e2d0984051da5f2312001a13",
            "gas": "0x120f7",
            "value": "0x0",
            "input": "0xdb04fa490000000000000000000000000000000000000000000000008f90b8876dee65380000000000000000000000000000000000000000000000000000000000000001",
            "nonce": "0x3f6",
            "chainId": "0x14a34"
          },
          "additionalContracts": [],
          "isFixedGasLimit": false
        },
        {
          "hash": "0xd2884cabafa9debea054bf61202b4484ff38bc055ad0b3c64fa8d2fe394db7f4",
          "transactionType": "CALL",
          "contractName": null,
          "contractAddress": "0x2a0dd3580658cc32e2d0984051da5f2312001a13",
          "function": "allowlistDestinationChain(uint64,bool)",
          "arguments": [
            "16015286601757825753",
            "true"
          ],
          "transaction": {
            "from": "0x8454d149beb26e3e3fc5ed1c87fb0b2a1b7b6c2c",
            "to": "0x2a0dd3580658cc32e2d0984051da5f2312001a13",
            "gas": "0xb5b8",
            "value": "0x0",
            "input": "0x96d3b83d000000000000000000000000000000000000000000000000de41ba4fc9d91ad90000000000000000000000000000000000000000000000000000000000000001",
            "nonce": "0x3f7",
            "chainId": "0x14a34"
          },
          "additionalContracts": [],
          "isFixedGasLimit": false
        },
        {
          "hash": "0x0427a3a22ea9112ee4f1a35fdcba39675d73cc42a2e9f59b0f38cf39017f06f1",
          "transactionType": "CALL",
          "contractName": null,
          "contractAddress": "0xa8ed9fb5feb9eebb5239472c3cff0ee3f138079d",
          "function": "setGasLimitsForFunctionSelectors(bytes4[],uint256[])",
          "arguments": [
            "[0xe7a050aa, 0xcc15a557, 0x0dd8dd02, 0x60d7faed, 0xeea9064b, 0xda8be864, 0x3ccc861d]",
            "[2100000, 1500000, 580000, 840000, 650000, 400000, 800000]"
          ],
          "transaction": {
            "from": "0x8454d149beb26e3e3fc5ed1c87fb0b2a1b7b6c2c",
            "to": "0xa8ed9fb5feb9eebb5239472c3cff0ee3f138079d",
            "gas": "0x490c6",
            "value": "0x0",
            "input": "0x3ef2d377000000000000000000000000000000000000000000000000000000000000004000000000000000000000000000000000000000000000000000000000000001400000000000000000000000000000000000000000000000000000000000000007e7a050aa00000000000000000000000000000000000000000000000000000000cc15a557000000000000000000000000000000000000000000000000000000000dd8dd020000000000000000000000000000000000000000000000000000000060d7faed00000000000000000000000000000000000000000000000000000000eea9064b00000000000000000000000000000000000000000000000000000000da8be864000000000000000000000000000000000000000000000000000000003ccc861d0000000000000000000000000000000000000000000000000000000000000000000000000000000000000000000000000000000000000000000000070000000000000000000000000000000000000000000000000000000000200b20000000000000000000000000000000000000000000000000000000000016e360000000000000000000000000000000000000000000000000000000000008d9a000000000000000000000000000000000000000000000000000000000000cd140000000000000000000000000000000000000000000000000000000000009eb100000000000000000000000000000000000000000000000000000000000061a8000000000000000000000000000000000000000000000000000000000000c3500",
            "nonce": "0x3f8",
            "chainId": "0x14a34"
          },
          "additionalContracts": [],
          "isFixedGasLimit": false
        },
        {
          "hash": "0x293473319739635c9c97defad1ae5a79d93f9772fd23db1cb18e2f917a94498e",
          "transactionType": "CALL",
          "contractName": null,
          "contractAddress": "0xa8ed9fb5feb9eebb5239472c3cff0ee3f138079d",
          "function": "setSenderCCIP(address)",
          "arguments": [
            "0x2a0dd3580658CC32e2D0984051DA5f2312001a13"
          ],
          "transaction": {
            "from": "0x8454d149beb26e3e3fc5ed1c87fb0b2a1b7b6c2c",
            "to": "0xa8ed9fb5feb9eebb5239472c3cff0ee3f138079d",
            "gas": "0xb53b",
            "value": "0x0",
            "input": "0xd8d6c31a0000000000000000000000002a0dd3580658cc32e2d0984051da5f2312001a13",
            "nonce": "0x3f9",
            "chainId": "0x14a34"
          },
          "additionalContracts": [],
          "isFixedGasLimit": false
        },
        {
          "hash": "0xe63a9beb51be8634772fb11971a52e3ab2a680e7cf244e2afb52a2fa58b87553",
          "transactionType": "CALL",
          "contractName": null,
          "contractAddress": "0x2a0dd3580658cc32e2d0984051da5f2312001a13",
          "function": "getSenderHooks()",
          "arguments": [],
          "transaction": {
            "from": "0x8454d149beb26e3e3fc5ed1c87fb0b2a1b7b6c2c",
            "to": "0x2a0dd3580658cc32e2d0984051da5f2312001a13",
            "gas": "0xa5f1",
            "value": "0x0",
            "input": "0xe09df825",
            "nonce": "0x3fa",
            "chainId": "0x14a34"
          },
          "additionalContracts": [],
          "isFixedGasLimit": false
        },
        {
          "hash": "0xc3f6285df7dc5c998c2755399c3911f5acc9d42faf9d46d737ad40755282ef33",
          "transactionType": "CALL",
          "contractName": null,
          "contractAddress": "0x2a0dd3580658cc32e2d0984051da5f2312001a13",
          "function": "allowlistedSenders(address)",
          "arguments": [
            "0x0d7135aAf464555e780E2a63f3B1ef0A97B3A499"
          ],
          "transaction": {
            "from": "0x8454d149beb26e3e3fc5ed1c87fb0b2a1b7b6c2c",
            "to": "0x2a0dd3580658cc32e2d0984051da5f2312001a13",
            "gas": "0xb2c0",
            "value": "0x0",
            "input": "0x6159ada10000000000000000000000000d7135aaf464555e780e2a63f3b1ef0a97b3a499",
            "nonce": "0x3fb",
            "chainId": "0x14a34"
          },
          "additionalContracts": [],
          "isFixedGasLimit": false
        },
        {
          "hash": "0x55f3b7de2400cba4697f307c052da45da96be06a6db07187fd20652821ca1b11",
          "transactionType": "CALL",
          "contractName": null,
          "contractAddress": "0x2a0dd3580658cc32e2d0984051da5f2312001a13",
          "function": "allowlistedSourceChains(uint64)",
          "arguments": [
            "16015286601757825753"
          ],
          "transaction": {
            "from": "0x8454d149beb26e3e3fc5ed1c87fb0b2a1b7b6c2c",
            "to": "0x2a0dd3580658cc32e2d0984051da5f2312001a13",
            "gas": "0xa850",
            "value": "0x0",
            "input": "0x4030d521000000000000000000000000000000000000000000000000de41ba4fc9d91ad9",
            "nonce": "0x3fc",
            "chainId": "0x14a34"
          },
          "additionalContracts": [],
          "isFixedGasLimit": false
        },
        {
          "hash": "0x695125314d26fe1a952213f02a72e0016dece49623626414ff658e3a7c333cb5",
          "transactionType": "CALL",
          "contractName": null,
          "contractAddress": "0x2a0dd3580658cc32e2d0984051da5f2312001a13",
          "function": "allowlistedDestinationChains(uint64)",
          "arguments": [
            "16015286601757825753"
          ],
          "transaction": {
            "from": "0x8454d149beb26e3e3fc5ed1c87fb0b2a1b7b6c2c",
            "to": "0x2a0dd3580658cc32e2d0984051da5f2312001a13",
            "gas": "0xb236",
            "value": "0x0",
            "input": "0x75c67c66000000000000000000000000000000000000000000000000de41ba4fc9d91ad9",
            "nonce": "0x3fd",
            "chainId": "0x14a34"
          },
          "additionalContracts": [],
          "isFixedGasLimit": false
        }
      ],
      "receipts": [
        {
          "status": "0x1",
          "cumulativeGasUsed": "0x9d195e",
          "logs": [],
          "logsBloom": "0x00000000000000000000000000000000000000000000000000000000000000000000000000000000000000000000000000000000000000000000000000000000000000000000000000000000000000000000000000000000000000000000000000000000000000000000000000000000000000000000000000000000000000000000000000000000000000000000000000000000000000000000000000000000000000000000000000000000000000000000000000000000000000000000000000000000000000000000000000000000000000000000000000000000000000000000000000000000000000000000000000000000000000000000000000000000",
          "type": "0x2",
          "transactionHash": "0xd19c07d85664a23548999ac07ab16f3608ece354f273ad37a53833e60a351eab",
          "transactionIndex": "0x9",
          "blockHash": "0x6d21597a7ddc37616e3121b1491cdf76b96d7dd92a920d9ebdb7faa634056b21",
          "blockNumber": "0xea171a",
          "gasUsed": "0xd1eb",
          "effectiveGasPrice": "0x7b8cca",
          "from": "0x8454d149beb26e3e3fc5ed1c87fb0b2a1b7b6c2c",
          "to": "0x2a0dd3580658cc32e2d0984051da5f2312001a13",
          "contractAddress": null,
          "l1BaseFeeScalar": "0x44d",
          "l1BlobBaseFee": "0x1626466",
          "l1BlobBaseFeeScalar": "0xa118b",
          "l1Fee": "0x5c0a1b02",
          "l1GasPrice": "0x64c305",
          "l1GasUsed": "0x640"
        },
        {
          "status": "0x1",
          "cumulativeGasUsed": "0x9dea93",
          "logs": [],
          "logsBloom": "0x00000000000000000000000000000000000000000000000000000000000000000000000000000000000000000000000000000000000000000000000000000000000000000000000000000000000000000000000000000000000000000000000000000000000000000000000000000000000000000000000000000000000000000000000000000000000000000000000000000000000000000000000000000000000000000000000000000000000000000000000000000000000000000000000000000000000000000000000000000000000000000000000000000000000000000000000000000000000000000000000000000000000000000000000000000000",
          "type": "0x2",
          "transactionHash": "0x604bd119ab4638657e14d5a0c0fb56abd6899b68972c6e7a794e591704e71ec0",
          "transactionIndex": "0xa",
          "blockHash": "0x6d21597a7ddc37616e3121b1491cdf76b96d7dd92a920d9ebdb7faa634056b21",
          "blockNumber": "0xea171a",
          "gasUsed": "0xd135",
          "effectiveGasPrice": "0x7b8cca",
          "from": "0x8454d149beb26e3e3fc5ed1c87fb0b2a1b7b6c2c",
          "to": "0x2a0dd3580658cc32e2d0984051da5f2312001a13",
          "contractAddress": null,
          "l1BaseFeeScalar": "0x44d",
          "l1BlobBaseFee": "0x1626466",
          "l1BlobBaseFeeScalar": "0xa118b",
          "l1Fee": "0x5c0a1b02",
          "l1GasPrice": "0x64c305",
          "l1GasUsed": "0x640"
        },
        {
          "status": "0x1",
          "cumulativeGasUsed": "0x9e6e23",
          "logs": [],
          "logsBloom": "0x00000000000000000000000000000000000000000000000000000000000000000000000000000000000000000000000000000000000000000000000000000000000000000000000000000000000000000000000000000000000000000000000000000000000000000000000000000000000000000000000000000000000000000000000000000000000000000000000000000000000000000000000000000000000000000000000000000000000000000000000000000000000000000000000000000000000000000000000000000000000000000000000000000000000000000000000000000000000000000000000000000000000000000000000000000000",
          "type": "0x2",
          "transactionHash": "0xd2884cabafa9debea054bf61202b4484ff38bc055ad0b3c64fa8d2fe394db7f4",
          "transactionIndex": "0xb",
          "blockHash": "0x6d21597a7ddc37616e3121b1491cdf76b96d7dd92a920d9ebdb7faa634056b21",
          "blockNumber": "0xea171a",
          "gasUsed": "0x8390",
          "effectiveGasPrice": "0x7b8cca",
          "from": "0x8454d149beb26e3e3fc5ed1c87fb0b2a1b7b6c2c",
          "to": "0x2a0dd3580658cc32e2d0984051da5f2312001a13",
          "contractAddress": null,
          "l1BaseFeeScalar": "0x44d",
          "l1BlobBaseFee": "0x1626466",
          "l1BlobBaseFeeScalar": "0xa118b",
          "l1Fee": "0x5c0a1b02",
          "l1GasPrice": "0x64c305",
          "l1GasUsed": "0x640"
        },
        {
          "status": "0x1",
          "cumulativeGasUsed": "0xa18d4d",
          "logs": [
            {
              "address": "0xa8ed9fb5feb9eebb5239472c3cff0ee3f138079d",
              "topics": [
                "0xed4c89b805f4efb58bc4a42b9a3c6f09783f619295a1fa41ab46d6190c8c7f3b",
                "0xe7a050aa00000000000000000000000000000000000000000000000000000000",
                "0x0000000000000000000000000000000000000000000000000000000000200b20"
              ],
              "data": "0x",
              "blockHash": "0x6d21597a7ddc37616e3121b1491cdf76b96d7dd92a920d9ebdb7faa634056b21",
              "blockNumber": "0xea171a",
              "transactionHash": "0x0427a3a22ea9112ee4f1a35fdcba39675d73cc42a2e9f59b0f38cf39017f06f1",
              "transactionIndex": "0xc",
              "logIndex": "0x43",
              "removed": false
            },
            {
              "address": "0xa8ed9fb5feb9eebb5239472c3cff0ee3f138079d",
              "topics": [
                "0xed4c89b805f4efb58bc4a42b9a3c6f09783f619295a1fa41ab46d6190c8c7f3b",
                "0xcc15a55700000000000000000000000000000000000000000000000000000000",
                "0x000000000000000000000000000000000000000000000000000000000016e360"
              ],
              "data": "0x",
              "blockHash": "0x6d21597a7ddc37616e3121b1491cdf76b96d7dd92a920d9ebdb7faa634056b21",
              "blockNumber": "0xea171a",
              "transactionHash": "0x0427a3a22ea9112ee4f1a35fdcba39675d73cc42a2e9f59b0f38cf39017f06f1",
              "transactionIndex": "0xc",
              "logIndex": "0x44",
              "removed": false
            },
            {
              "address": "0xa8ed9fb5feb9eebb5239472c3cff0ee3f138079d",
              "topics": [
                "0xed4c89b805f4efb58bc4a42b9a3c6f09783f619295a1fa41ab46d6190c8c7f3b",
                "0x0dd8dd0200000000000000000000000000000000000000000000000000000000",
                "0x000000000000000000000000000000000000000000000000000000000008d9a0"
              ],
              "data": "0x",
              "blockHash": "0x6d21597a7ddc37616e3121b1491cdf76b96d7dd92a920d9ebdb7faa634056b21",
              "blockNumber": "0xea171a",
              "transactionHash": "0x0427a3a22ea9112ee4f1a35fdcba39675d73cc42a2e9f59b0f38cf39017f06f1",
              "transactionIndex": "0xc",
              "logIndex": "0x45",
              "removed": false
            },
            {
              "address": "0xa8ed9fb5feb9eebb5239472c3cff0ee3f138079d",
              "topics": [
                "0xed4c89b805f4efb58bc4a42b9a3c6f09783f619295a1fa41ab46d6190c8c7f3b",
                "0x60d7faed00000000000000000000000000000000000000000000000000000000",
                "0x00000000000000000000000000000000000000000000000000000000000cd140"
              ],
              "data": "0x",
              "blockHash": "0x6d21597a7ddc37616e3121b1491cdf76b96d7dd92a920d9ebdb7faa634056b21",
              "blockNumber": "0xea171a",
              "transactionHash": "0x0427a3a22ea9112ee4f1a35fdcba39675d73cc42a2e9f59b0f38cf39017f06f1",
              "transactionIndex": "0xc",
              "logIndex": "0x46",
              "removed": false
            },
            {
              "address": "0xa8ed9fb5feb9eebb5239472c3cff0ee3f138079d",
              "topics": [
                "0xed4c89b805f4efb58bc4a42b9a3c6f09783f619295a1fa41ab46d6190c8c7f3b",
                "0xeea9064b00000000000000000000000000000000000000000000000000000000",
                "0x000000000000000000000000000000000000000000000000000000000009eb10"
              ],
              "data": "0x",
              "blockHash": "0x6d21597a7ddc37616e3121b1491cdf76b96d7dd92a920d9ebdb7faa634056b21",
              "blockNumber": "0xea171a",
              "transactionHash": "0x0427a3a22ea9112ee4f1a35fdcba39675d73cc42a2e9f59b0f38cf39017f06f1",
              "transactionIndex": "0xc",
              "logIndex": "0x47",
              "removed": false
            },
            {
              "address": "0xa8ed9fb5feb9eebb5239472c3cff0ee3f138079d",
              "topics": [
                "0xed4c89b805f4efb58bc4a42b9a3c6f09783f619295a1fa41ab46d6190c8c7f3b",
                "0xda8be86400000000000000000000000000000000000000000000000000000000",
                "0x0000000000000000000000000000000000000000000000000000000000061a80"
              ],
              "data": "0x",
              "blockHash": "0x6d21597a7ddc37616e3121b1491cdf76b96d7dd92a920d9ebdb7faa634056b21",
              "blockNumber": "0xea171a",
              "transactionHash": "0x0427a3a22ea9112ee4f1a35fdcba39675d73cc42a2e9f59b0f38cf39017f06f1",
              "transactionIndex": "0xc",
              "logIndex": "0x48",
              "removed": false
            },
            {
              "address": "0xa8ed9fb5feb9eebb5239472c3cff0ee3f138079d",
              "topics": [
                "0xed4c89b805f4efb58bc4a42b9a3c6f09783f619295a1fa41ab46d6190c8c7f3b",
                "0x3ccc861d00000000000000000000000000000000000000000000000000000000",
                "0x00000000000000000000000000000000000000000000000000000000000c3500"
              ],
              "data": "0x",
              "blockHash": "0x6d21597a7ddc37616e3121b1491cdf76b96d7dd92a920d9ebdb7faa634056b21",
              "blockNumber": "0xea171a",
              "transactionHash": "0x0427a3a22ea9112ee4f1a35fdcba39675d73cc42a2e9f59b0f38cf39017f06f1",
              "transactionIndex": "0xc",
              "logIndex": "0x49",
              "removed": false
            }
          ],
          "logsBloom": "0x00000000000000000040010000000000000000002800000000000100004000000000008000000000000800000042000008000000200000000000000008000010000000000400000040000000000000040002000000000000080000000000000000000010000000000000000000000004830000000002000000000020000101040000110000800000008000000100010000000000000000000000000000000000000000000000000008000000002000000000000008000000000000000000400400000000000000000008001000000002000000000000100000100000000000000000000000000000000000000000000000800000000000000000010000000000",
          "type": "0x2",
          "transactionHash": "0x0427a3a22ea9112ee4f1a35fdcba39675d73cc42a2e9f59b0f38cf39017f06f1",
          "transactionIndex": "0xc",
          "blockHash": "0x6d21597a7ddc37616e3121b1491cdf76b96d7dd92a920d9ebdb7faa634056b21",
          "blockNumber": "0xea171a",
          "gasUsed": "0x31f2a",
          "effectiveGasPrice": "0x7b8cca",
          "from": "0x8454d149beb26e3e3fc5ed1c87fb0b2a1b7b6c2c",
          "to": "0xa8ed9fb5feb9eebb5239472c3cff0ee3f138079d",
          "contractAddress": null,
          "l1BaseFeeScalar": "0x44d",
          "l1BlobBaseFee": "0x1626466",
          "l1BlobBaseFeeScalar": "0xa118b",
          "l1Fee": "0x9eabde44",
          "l1GasPrice": "0x64c305",
          "l1GasUsed": "0xac6"
        },
        {
          "status": "0x1",
          "cumulativeGasUsed": "0xa21083",
          "logs": [],
          "logsBloom": "0x00000000000000000000000000000000000000000000000000000000000000000000000000000000000000000000000000000000000000000000000000000000000000000000000000000000000000000000000000000000000000000000000000000000000000000000000000000000000000000000000000000000000000000000000000000000000000000000000000000000000000000000000000000000000000000000000000000000000000000000000000000000000000000000000000000000000000000000000000000000000000000000000000000000000000000000000000000000000000000000000000000000000000000000000000000000",
          "type": "0x2",
          "transactionHash": "0x293473319739635c9c97defad1ae5a79d93f9772fd23db1cb18e2f917a94498e",
          "transactionIndex": "0xd",
          "blockHash": "0x6d21597a7ddc37616e3121b1491cdf76b96d7dd92a920d9ebdb7faa634056b21",
          "blockNumber": "0xea171a",
          "gasUsed": "0x8336",
          "effectiveGasPrice": "0x7b8cca",
          "from": "0x8454d149beb26e3e3fc5ed1c87fb0b2a1b7b6c2c",
          "to": "0xa8ed9fb5feb9eebb5239472c3cff0ee3f138079d",
          "contractAddress": null,
          "l1BaseFeeScalar": "0x44d",
          "l1BlobBaseFee": "0x1626466",
          "l1BlobBaseFeeScalar": "0xa118b",
          "l1Fee": "0x5c0a1b02",
          "l1GasPrice": "0x64c305",
          "l1GasUsed": "0x640"
        },
        {
          "status": "0x1",
          "cumulativeGasUsed": "0xa288a7",
          "logs": [],
          "logsBloom": "0x00000000000000000000000000000000000000000000000000000000000000000000000000000000000000000000000000000000000000000000000000000000000000000000000000000000000000000000000000000000000000000000000000000000000000000000000000000000000000000000000000000000000000000000000000000000000000000000000000000000000000000000000000000000000000000000000000000000000000000000000000000000000000000000000000000000000000000000000000000000000000000000000000000000000000000000000000000000000000000000000000000000000000000000000000000000",
          "type": "0x2",
          "transactionHash": "0xe63a9beb51be8634772fb11971a52e3ab2a680e7cf244e2afb52a2fa58b87553",
          "transactionIndex": "0xe",
          "blockHash": "0x6d21597a7ddc37616e3121b1491cdf76b96d7dd92a920d9ebdb7faa634056b21",
          "blockNumber": "0xea171a",
          "gasUsed": "0x7824",
          "effectiveGasPrice": "0x7b8cca",
          "from": "0x8454d149beb26e3e3fc5ed1c87fb0b2a1b7b6c2c",
          "to": "0x2a0dd3580658cc32e2d0984051da5f2312001a13",
          "contractAddress": null,
          "l1BaseFeeScalar": "0x44d",
          "l1BlobBaseFee": "0x1626466",
          "l1BlobBaseFeeScalar": "0xa118b",
          "l1Fee": "0x5c0a1b02",
          "l1GasPrice": "0x64c305",
          "l1GasUsed": "0x640"
        },
        {
          "status": "0x1",
          "cumulativeGasUsed": "0xa302e0",
          "logs": [],
          "logsBloom": "0x00000000000000000000000000000000000000000000000000000000000000000000000000000000000000000000000000000000000000000000000000000000000000000000000000000000000000000000000000000000000000000000000000000000000000000000000000000000000000000000000000000000000000000000000000000000000000000000000000000000000000000000000000000000000000000000000000000000000000000000000000000000000000000000000000000000000000000000000000000000000000000000000000000000000000000000000000000000000000000000000000000000000000000000000000000000",
          "type": "0x2",
          "transactionHash": "0xc3f6285df7dc5c998c2755399c3911f5acc9d42faf9d46d737ad40755282ef33",
          "transactionIndex": "0xf",
          "blockHash": "0x6d21597a7ddc37616e3121b1491cdf76b96d7dd92a920d9ebdb7faa634056b21",
          "blockNumber": "0xea171a",
          "gasUsed": "0x7a39",
          "effectiveGasPrice": "0x7b8cca",
          "from": "0x8454d149beb26e3e3fc5ed1c87fb0b2a1b7b6c2c",
          "to": "0x2a0dd3580658cc32e2d0984051da5f2312001a13",
          "contractAddress": null,
          "l1BaseFeeScalar": "0x44d",
          "l1BlobBaseFee": "0x1626466",
          "l1BlobBaseFeeScalar": "0xa118b",
          "l1Fee": "0x5c0a1b02",
          "l1GasPrice": "0x64c305",
          "l1GasUsed": "0x640"
        },
        {
          "status": "0x1",
          "cumulativeGasUsed": "0xa37cbc",
          "logs": [],
          "logsBloom": "0x00000000000000000000000000000000000000000000000000000000000000000000000000000000000000000000000000000000000000000000000000000000000000000000000000000000000000000000000000000000000000000000000000000000000000000000000000000000000000000000000000000000000000000000000000000000000000000000000000000000000000000000000000000000000000000000000000000000000000000000000000000000000000000000000000000000000000000000000000000000000000000000000000000000000000000000000000000000000000000000000000000000000000000000000000000000",
          "type": "0x2",
          "transactionHash": "0x55f3b7de2400cba4697f307c052da45da96be06a6db07187fd20652821ca1b11",
          "transactionIndex": "0x10",
          "blockHash": "0x6d21597a7ddc37616e3121b1491cdf76b96d7dd92a920d9ebdb7faa634056b21",
          "blockNumber": "0xea171a",
          "gasUsed": "0x79dc",
          "effectiveGasPrice": "0x7b8cca",
          "from": "0x8454d149beb26e3e3fc5ed1c87fb0b2a1b7b6c2c",
          "to": "0x2a0dd3580658cc32e2d0984051da5f2312001a13",
          "contractAddress": null,
          "l1BaseFeeScalar": "0x44d",
          "l1BlobBaseFee": "0x1626466",
          "l1BlobBaseFeeScalar": "0xa118b",
          "l1Fee": "0x5c0a1b02",
          "l1GasPrice": "0x64c305",
          "l1GasUsed": "0x640"
        },
        {
          "status": "0x1",
          "cumulativeGasUsed": "0xa3f697",
          "logs": [],
          "logsBloom": "0x00000000000000000000000000000000000000000000000000000000000000000000000000000000000000000000000000000000000000000000000000000000000000000000000000000000000000000000000000000000000000000000000000000000000000000000000000000000000000000000000000000000000000000000000000000000000000000000000000000000000000000000000000000000000000000000000000000000000000000000000000000000000000000000000000000000000000000000000000000000000000000000000000000000000000000000000000000000000000000000000000000000000000000000000000000000",
          "type": "0x2",
          "transactionHash": "0x695125314d26fe1a952213f02a72e0016dece49623626414ff658e3a7c333cb5",
          "transactionIndex": "0x11",
          "blockHash": "0x6d21597a7ddc37616e3121b1491cdf76b96d7dd92a920d9ebdb7faa634056b21",
          "blockNumber": "0xea171a",
          "gasUsed": "0x79db",
          "effectiveGasPrice": "0x7b8cca",
          "from": "0x8454d149beb26e3e3fc5ed1c87fb0b2a1b7b6c2c",
          "to": "0x2a0dd3580658cc32e2d0984051da5f2312001a13",
          "contractAddress": null,
          "l1BaseFeeScalar": "0x44d",
          "l1BlobBaseFee": "0x1626466",
          "l1BlobBaseFeeScalar": "0xa118b",
          "l1Fee": "0x5c0a1b02",
          "l1GasPrice": "0x64c305",
          "l1GasUsed": "0x640"
        }
      ],
      "libraries": [],
      "pending": [],
      "returns": {},
      "timestamp": 1726450959,
      "chain": 84532,
      "commit": "0eed58c"
    },
    {
      "transactions": [
        {
          "hash": "0x0a0bff6c798c475d0ddc576edf4a4a8b9e6fcc87a0e5c0b6e83ebda6a1a220af",
          "transactionType": "CALL",
          "contractName": null,
          "contractAddress": "0x0d7135aaf464555e780e2a63f3b1ef0a97b3a499",
          "function": "allowlistSender(address,bool)",
          "arguments": [
            "0x2a0dd3580658CC32e2D0984051DA5f2312001a13",
            "true"
          ],
          "transaction": {
            "from": "0x8454d149beb26e3e3fc5ed1c87fb0b2a1b7b6c2c",
            "to": "0x0d7135aaf464555e780e2a63f3b1ef0a97b3a499",
            "gas": "0xb664",
            "value": "0x0",
            "input": "0xeab5b02c0000000000000000000000002a0dd3580658cc32e2d0984051da5f2312001a130000000000000000000000000000000000000000000000000000000000000001",
            "nonce": "0x632",
            "chainId": "0xaa36a7"
          },
          "additionalContracts": [],
          "isFixedGasLimit": false
        },
        {
          "hash": "0x572f252bdb7341a794ec67e3704d34aa924ca4b4b81942dbbd5be3fff856813f",
          "transactionType": "CALL",
          "contractName": null,
          "contractAddress": "0x0d7135aaf464555e780e2a63f3b1ef0a97b3a499",
          "function": "allowlistSourceChain(uint64,bool)",
          "arguments": [
            "10344971235874465080",
            "true"
          ],
          "transaction": {
            "from": "0x8454d149beb26e3e3fc5ed1c87fb0b2a1b7b6c2c",
            "to": "0x0d7135aaf464555e780e2a63f3b1ef0a97b3a499",
            "gas": "0xc047",
            "value": "0x0",
            "input": "0xdb04fa490000000000000000000000000000000000000000000000008f90b8876dee65380000000000000000000000000000000000000000000000000000000000000001",
            "nonce": "0x633",
            "chainId": "0xaa36a7"
          },
          "additionalContracts": [],
          "isFixedGasLimit": false
        },
        {
          "hash": "0x28645778565124498679d7a1a279839e833bd53aabf4b392f2fe564c1b2a5323",
          "transactionType": "CALL",
          "contractName": null,
          "contractAddress": "0x0d7135aaf464555e780e2a63f3b1ef0a97b3a499",
          "function": "allowlistSourceChain(uint64,bool)",
          "arguments": [
            "16015286601757825753",
            "true"
          ],
          "transaction": {
            "from": "0x8454d149beb26e3e3fc5ed1c87fb0b2a1b7b6c2c",
            "to": "0x0d7135aaf464555e780e2a63f3b1ef0a97b3a499",
            "gas": "0xc047",
            "value": "0x0",
            "input": "0xdb04fa49000000000000000000000000000000000000000000000000de41ba4fc9d91ad90000000000000000000000000000000000000000000000000000000000000001",
            "nonce": "0x634",
            "chainId": "0xaa36a7"
          },
          "additionalContracts": [],
          "isFixedGasLimit": false
        },
        {
          "hash": "0xd6642535171897c1964e072078fff6311751b4b967e202616ec902280615cedf",
          "transactionType": "CALL",
          "contractName": null,
          "contractAddress": "0x0d7135aaf464555e780e2a63f3b1ef0a97b3a499",
          "function": "allowlistDestinationChain(uint64,bool)",
          "arguments": [
            "10344971235874465080",
            "true"
          ],
          "transaction": {
            "from": "0x8454d149beb26e3e3fc5ed1c87fb0b2a1b7b6c2c",
            "to": "0x0d7135aaf464555e780e2a63f3b1ef0a97b3a499",
            "gas": "0xc0c9",
            "value": "0x0",
            "input": "0x96d3b83d0000000000000000000000000000000000000000000000008f90b8876dee65380000000000000000000000000000000000000000000000000000000000000001",
            "nonce": "0x635",
            "chainId": "0xaa36a7"
          },
          "additionalContracts": [],
          "isFixedGasLimit": false
        },
        {
          "hash": "0x9a29f38adb57dbc7fef0f77c2abe760df5252aeba624ea9bcceec168c44f2c92",
          "transactionType": "CALL",
          "contractName": null,
          "contractAddress": "0xe661b554500a04988aaa5c390b88b4589465a20a",
          "function": "setGasLimitsForFunctionSelectors(bytes4[],uint256[])",
          "arguments": [
            "[0xd8a85b48]",
            "[295000]"
          ],
          "transaction": {
            "from": "0x8454d149beb26e3e3fc5ed1c87fb0b2a1b7b6c2c",
            "to": "0xe661b554500a04988aaa5c390b88b4589465a20a",
            "gas": "0xd7ad",
            "value": "0x0",
            "input": "0x3ef2d377000000000000000000000000000000000000000000000000000000000000004000000000000000000000000000000000000000000000000000000000000000800000000000000000000000000000000000000000000000000000000000000001d8a85b480000000000000000000000000000000000000000000000000000000000000000000000000000000000000000000000000000000000000000000000010000000000000000000000000000000000000000000000000000000000048058",
            "nonce": "0x636",
            "chainId": "0xaa36a7"
          },
          "additionalContracts": [],
          "isFixedGasLimit": false
        },
        {
          "hash": "0xc788ca9d43064506391f27e0971b81bd66bdc7310e7b3ecc202a09fb34f4d9e4",
          "transactionType": "CALL",
          "contractName": null,
          "contractAddress": "0xe4af9c53a02c28543852c9ec28b617eba5250455",
          "function": "getAgentFactory()",
          "arguments": [],
          "transaction": {
            "from": "0x8454d149beb26e3e3fc5ed1c87fb0b2a1b7b6c2c",
            "to": "0xe4af9c53a02c28543852c9ec28b617eba5250455",
            "gas": "0xafd4",
            "value": "0x0",
            "input": "0xf3b372de",
            "nonce": "0x637",
            "chainId": "0xaa36a7"
          },
          "additionalContracts": [],
          "isFixedGasLimit": false
        }
      ],
      "receipts": [
        {
          "status": "0x1",
          "cumulativeGasUsed": "0xc24644",
          "logs": [],
          "logsBloom": "0x00000000000000000000000000000000000000000000000000000000000000000000000000000000000000000000000000000000000000000000000000000000000000000000000000000000000000000000000000000000000000000000000000000000000000000000000000000000000000000000000000000000000000000000000000000000000000000000000000000000000000000000000000000000000000000000000000000000000000000000000000000000000000000000000000000000000000000000000000000000000000000000000000000000000000000000000000000000000000000000000000000000000000000000000000000000",
          "type": "0x2",
          "transactionHash": "0x0a0bff6c798c475d0ddc576edf4a4a8b9e6fcc87a0e5c0b6e83ebda6a1a220af",
          "transactionIndex": "0xd5",
          "blockHash": "0x7aed4eb09bc2f95aaa09aeaf6894501b4703ca8e70a6859de8f29e49c02d3434",
          "blockNumber": "0x663b75",
          "gasUsed": "0x840d",
          "effectiveGasPrice": "0x7d15fc",
          "from": "0x8454d149beb26e3e3fc5ed1c87fb0b2a1b7b6c2c",
          "to": "0x0d7135aaf464555e780e2a63f3b1ef0a97b3a499",
          "contractAddress": null
        },
        {
          "status": "0x1",
          "cumulativeGasUsed": "0xc2c9bd",
          "logs": [],
          "logsBloom": "0x00000000000000000000000000000000000000000000000000000000000000000000000000000000000000000000000000000000000000000000000000000000000000000000000000000000000000000000000000000000000000000000000000000000000000000000000000000000000000000000000000000000000000000000000000000000000000000000000000000000000000000000000000000000000000000000000000000000000000000000000000000000000000000000000000000000000000000000000000000000000000000000000000000000000000000000000000000000000000000000000000000000000000000000000000000000",
          "type": "0x2",
          "transactionHash": "0x572f252bdb7341a794ec67e3704d34aa924ca4b4b81942dbbd5be3fff856813f",
          "transactionIndex": "0xd6",
          "blockHash": "0x7aed4eb09bc2f95aaa09aeaf6894501b4703ca8e70a6859de8f29e49c02d3434",
          "blockNumber": "0x663b75",
          "gasUsed": "0x8379",
          "effectiveGasPrice": "0x7d15fc",
          "from": "0x8454d149beb26e3e3fc5ed1c87fb0b2a1b7b6c2c",
          "to": "0x0d7135aaf464555e780e2a63f3b1ef0a97b3a499",
          "contractAddress": null
        },
        {
          "status": "0x1",
          "cumulativeGasUsed": "0xc34d36",
          "logs": [],
          "logsBloom": "0x00000000000000000000000000000000000000000000000000000000000000000000000000000000000000000000000000000000000000000000000000000000000000000000000000000000000000000000000000000000000000000000000000000000000000000000000000000000000000000000000000000000000000000000000000000000000000000000000000000000000000000000000000000000000000000000000000000000000000000000000000000000000000000000000000000000000000000000000000000000000000000000000000000000000000000000000000000000000000000000000000000000000000000000000000000000",
          "type": "0x2",
          "transactionHash": "0x28645778565124498679d7a1a279839e833bd53aabf4b392f2fe564c1b2a5323",
          "transactionIndex": "0xd7",
          "blockHash": "0x7aed4eb09bc2f95aaa09aeaf6894501b4703ca8e70a6859de8f29e49c02d3434",
          "blockNumber": "0x663b75",
          "gasUsed": "0x8379",
          "effectiveGasPrice": "0x7d15fc",
          "from": "0x8454d149beb26e3e3fc5ed1c87fb0b2a1b7b6c2c",
          "to": "0x0d7135aaf464555e780e2a63f3b1ef0a97b3a499",
          "contractAddress": null
        },
        {
          "status": "0x1",
          "cumulativeGasUsed": "0xc3d108",
          "logs": [],
          "logsBloom": "0x00000000000000000000000000000000000000000000000000000000000000000000000000000000000000000000000000000000000000000000000000000000000000000000000000000000000000000000000000000000000000000000000000000000000000000000000000000000000000000000000000000000000000000000000000000000000000000000000000000000000000000000000000000000000000000000000000000000000000000000000000000000000000000000000000000000000000000000000000000000000000000000000000000000000000000000000000000000000000000000000000000000000000000000000000000000",
          "type": "0x2",
          "transactionHash": "0xd6642535171897c1964e072078fff6311751b4b967e202616ec902280615cedf",
          "transactionIndex": "0xd8",
          "blockHash": "0x7aed4eb09bc2f95aaa09aeaf6894501b4703ca8e70a6859de8f29e49c02d3434",
          "blockNumber": "0x663b75",
          "gasUsed": "0x83d2",
          "effectiveGasPrice": "0x7d15fc",
          "from": "0x8454d149beb26e3e3fc5ed1c87fb0b2a1b7b6c2c",
          "to": "0x0d7135aaf464555e780e2a63f3b1ef0a97b3a499",
          "contractAddress": null
        },
        {
          "status": "0x1",
          "cumulativeGasUsed": "0xc46d2e",
          "logs": [
            {
              "address": "0xe661b554500a04988aaa5c390b88b4589465a20a",
              "topics": [
                "0xed4c89b805f4efb58bc4a42b9a3c6f09783f619295a1fa41ab46d6190c8c7f3b",
                "0xd8a85b4800000000000000000000000000000000000000000000000000000000",
                "0x0000000000000000000000000000000000000000000000000000000000048058"
              ],
              "data": "0x",
              "blockHash": "0x7aed4eb09bc2f95aaa09aeaf6894501b4703ca8e70a6859de8f29e49c02d3434",
              "blockNumber": "0x663b75",
              "transactionHash": "0x9a29f38adb57dbc7fef0f77c2abe760df5252aeba624ea9bcceec168c44f2c92",
              "transactionIndex": "0xd9",
              "logIndex": "0xc7",
              "removed": false
            }
          ],
          "logsBloom": "0x00000000000000000040000000000000000000000800000000000000000000000000000000000000000000000000000000000000000000000000000000000000000000000000000004000000000000000800000000000000000000000000000000000000000000000000000000000000800000800000040000000000000000000000000000000000000000001000000000000000000000000000004000000000000000000000000000010000000000000000000000000000000000000000000000000000000000000000000000040000000000000000000000000000000000000000000000000000000000000000000000000000000000002000000000000000",
          "type": "0x2",
          "transactionHash": "0x9a29f38adb57dbc7fef0f77c2abe760df5252aeba624ea9bcceec168c44f2c92",
          "transactionIndex": "0xd9",
          "blockHash": "0x7aed4eb09bc2f95aaa09aeaf6894501b4703ca8e70a6859de8f29e49c02d3434",
          "blockNumber": "0x663b75",
          "gasUsed": "0x9c26",
          "effectiveGasPrice": "0x7d15fc",
          "from": "0x8454d149beb26e3e3fc5ed1c87fb0b2a1b7b6c2c",
          "to": "0xe661b554500a04988aaa5c390b88b4589465a20a",
          "contractAddress": null
        },
        {
          "status": "0x1",
          "cumulativeGasUsed": "0xc4e568",
          "logs": [],
          "logsBloom": "0x00000000000000000000000000000000000000000000000000000000000000000000000000000000000000000000000000000000000000000000000000000000000000000000000000000000000000000000000000000000000000000000000000000000000000000000000000000000000000000000000000000000000000000000000000000000000000000000000000000000000000000000000000000000000000000000000000000000000000000000000000000000000000000000000000000000000000000000000000000000000000000000000000000000000000000000000000000000000000000000000000000000000000000000000000000000",
          "type": "0x2",
          "transactionHash": "0xc788ca9d43064506391f27e0971b81bd66bdc7310e7b3ecc202a09fb34f4d9e4",
          "transactionIndex": "0xda",
          "blockHash": "0x7aed4eb09bc2f95aaa09aeaf6894501b4703ca8e70a6859de8f29e49c02d3434",
          "blockNumber": "0x663b75",
          "gasUsed": "0x783a",
          "effectiveGasPrice": "0x7d15fc",
          "from": "0x8454d149beb26e3e3fc5ed1c87fb0b2a1b7b6c2c",
          "to": "0xe4af9c53a02c28543852c9ec28b617eba5250455",
          "contractAddress": null
        }
      ],
      "libraries": [],
      "pending": [],
      "returns": {},
      "timestamp": 1726450961,
      "chain": 11155111,
      "commit": "0eed58c"
    }
  ],
  "timestamp": 1726450987
}