{
  "deployments": [
    {
      "transactions": [
        {
          "hash": "0xfda7f2d371e1b117c8e41ed1d00b70e022b61dd1b29e5b6cd17e0e0914bf6a33",
          "transactionType": "CALL",
          "contractName": null,
          "contractAddress": "0xd5425269f8371930686f94087baebc4cb015e301",
          "function": "allowlistSender(address,bool)",
          "arguments": [
            "0xd49FCab0176df22387EBc9Cbb086af08C7dB5364",
            "true"
          ],
          "transaction": {
            "from": "0x8454d149beb26e3e3fc5ed1c87fb0b2a1b7b6c2c",
            "to": "0xd5425269f8371930686f94087baebc4cb015e301",
            "gas": "0x121e1",
            "value": "0x0",
            "input": "0xeab5b02c000000000000000000000000d49fcab0176df22387ebc9cbb086af08c7db53640000000000000000000000000000000000000000000000000000000000000001",
            "nonce": "0x4f8",
            "chainId": "0x14a34"
          },
          "additionalContracts": [],
          "isFixedGasLimit": false
        },
        {
          "hash": "0xb8982d6ea33cd37e6fc1b9bde6e21fdc7dc1398ee753f0b3c08f14735bf45add",
          "transactionType": "CALL",
          "contractName": null,
          "contractAddress": "0xd5425269f8371930686f94087baebc4cb015e301",
          "function": "allowlistSourceChain(uint64,bool)",
          "arguments": [
            "10344971235874465080",
            "true"
          ],
          "transaction": {
            "from": "0x8454d149beb26e3e3fc5ed1c87fb0b2a1b7b6c2c",
            "to": "0xd5425269f8371930686f94087baebc4cb015e301",
            "gas": "0x131e5",
            "value": "0x0",
            "input": "0xdb04fa490000000000000000000000000000000000000000000000008f90b8876dee65380000000000000000000000000000000000000000000000000000000000000001",
            "nonce": "0x4f9",
            "chainId": "0x14a34"
          },
          "additionalContracts": [],
          "isFixedGasLimit": false
        },
        {
          "hash": "0xa044c8b0e5b387da53007bee2e2aec097caf1ce32322cce52ef5d59180bacaad",
          "transactionType": "CALL",
          "contractName": null,
          "contractAddress": "0xd5425269f8371930686f94087baebc4cb015e301",
          "function": "allowlistDestinationChain(uint64,bool)",
          "arguments": [
            "16015286601757825753",
            "true"
          ],
          "transaction": {
            "from": "0x8454d149beb26e3e3fc5ed1c87fb0b2a1b7b6c2c",
            "to": "0xd5425269f8371930686f94087baebc4cb015e301",
            "gas": "0xb5a7",
            "value": "0x0",
            "input": "0x96d3b83d000000000000000000000000000000000000000000000000de41ba4fc9d91ad90000000000000000000000000000000000000000000000000000000000000001",
            "nonce": "0x4fa",
            "chainId": "0x14a34"
          },
          "additionalContracts": [],
          "isFixedGasLimit": false
        },
        {
          "hash": "0x7410cb8914bb28c799a65bd97db780b2aa2c36a149987514134fdf2738c49c68",
          "transactionType": "CALL",
          "contractName": null,
          "contractAddress": "0xf377856082ed5e1e66cd309a3b84fd2d7251241c",
          "function": "setGasLimitsForFunctionSelectors(bytes4[],uint256[])",
          "arguments": [
            "[0xe7a050aa, 0xcc15a557, 0x0dd8dd02, 0x60d7faed, 0xeea9064b, 0xda8be864, 0x3ccc861d]",
            "[410000, 290000, 315000, 560000, 350000, 340000, 540000]"
          ],
          "transaction": {
            "from": "0x8454d149beb26e3e3fc5ed1c87fb0b2a1b7b6c2c",
            "to": "0xf377856082ed5e1e66cd309a3b84fd2d7251241c",
            "gas": "0x4908d",
            "value": "0x0",
            "input": "0x3ef2d377000000000000000000000000000000000000000000000000000000000000004000000000000000000000000000000000000000000000000000000000000001400000000000000000000000000000000000000000000000000000000000000007e7a050aa00000000000000000000000000000000000000000000000000000000cc15a557000000000000000000000000000000000000000000000000000000000dd8dd020000000000000000000000000000000000000000000000000000000060d7faed00000000000000000000000000000000000000000000000000000000eea9064b00000000000000000000000000000000000000000000000000000000da8be864000000000000000000000000000000000000000000000000000000003ccc861d00000000000000000000000000000000000000000000000000000000000000000000000000000000000000000000000000000000000000000000000700000000000000000000000000000000000000000000000000000000000641900000000000000000000000000000000000000000000000000000000000046cd0000000000000000000000000000000000000000000000000000000000004ce780000000000000000000000000000000000000000000000000000000000088b80000000000000000000000000000000000000000000000000000000000005573000000000000000000000000000000000000000000000000000000000000530200000000000000000000000000000000000000000000000000000000000083d60",
            "nonce": "0x4fb",
            "chainId": "0x14a34"
          },
          "additionalContracts": [],
          "isFixedGasLimit": false
        },
        {
          "hash": "0xf91de5719b9e0e23a3388c38d00fbae401a95c87fcd186135a343c53932c12fd",
          "transactionType": "CALL",
          "contractName": null,
          "contractAddress": "0xf377856082ed5e1e66cd309a3b84fd2d7251241c",
          "function": "setSenderCCIP(address)",
          "arguments": [
            "0xD5425269f8371930686F94087bAEbc4Cb015E301"
          ],
          "transaction": {
            "from": "0x8454d149beb26e3e3fc5ed1c87fb0b2a1b7b6c2c",
            "to": "0xf377856082ed5e1e66cd309a3b84fd2d7251241c",
            "gas": "0xb53d",
            "value": "0x0",
            "input": "0xd8d6c31a000000000000000000000000d5425269f8371930686f94087baebc4cb015e301",
            "nonce": "0x4fc",
            "chainId": "0x14a34"
          },
          "additionalContracts": [],
          "isFixedGasLimit": false
        },
        {
          "hash": "0x3db8e52e61bdc3e074857c4aea4fdced40d2a5954ae2d95a7c3269f5d3a48332",
          "transactionType": "CALL",
          "contractName": null,
          "contractAddress": "0xd5425269f8371930686f94087baebc4cb015e301",
          "function": "getSenderHooks()",
          "arguments": [],
          "transaction": {
            "from": "0x8454d149beb26e3e3fc5ed1c87fb0b2a1b7b6c2c",
            "to": "0xd5425269f8371930686f94087baebc4cb015e301",
            "gas": "0xafa5",
            "value": "0x0",
            "input": "0xe09df825",
            "nonce": "0x4fd",
            "chainId": "0x14a34"
          },
          "additionalContracts": [],
          "isFixedGasLimit": false
        },
        {
          "hash": "0xb63136e10b68aa2d0f94f445248136c4ec20727f674be0706ddbd017ee54e8c8",
          "transactionType": "CALL",
          "contractName": null,
          "contractAddress": "0xd5425269f8371930686f94087baebc4cb015e301",
          "function": "allowlistedSenders(address)",
          "arguments": [
            "0xd49FCab0176df22387EBc9Cbb086af08C7dB5364"
          ],
          "transaction": {
            "from": "0x8454d149beb26e3e3fc5ed1c87fb0b2a1b7b6c2c",
            "to": "0xd5425269f8371930686f94087baebc4cb015e301",
            "gas": "0xa8c0",
            "value": "0x0",
            "input": "0x6159ada1000000000000000000000000d49fcab0176df22387ebc9cbb086af08c7db5364",
            "nonce": "0x4fe",
            "chainId": "0x14a34"
          },
          "additionalContracts": [],
          "isFixedGasLimit": false
        },
        {
          "hash": "0x6e66eac8478beabdccf8af86a23f7d2d6b2dddb021f5076e7ffea9f259e0dd12",
          "transactionType": "CALL",
          "contractName": null,
          "contractAddress": "0xd5425269f8371930686f94087baebc4cb015e301",
          "function": "allowlistedSourceChains(uint64)",
          "arguments": [
            "16015286601757825753"
          ],
          "transaction": {
            "from": "0x8454d149beb26e3e3fc5ed1c87fb0b2a1b7b6c2c",
            "to": "0xd5425269f8371930686f94087baebc4cb015e301",
            "gas": "0xa840",
            "value": "0x0",
            "input": "0x4030d521000000000000000000000000000000000000000000000000de41ba4fc9d91ad9",
            "nonce": "0x4ff",
            "chainId": "0x14a34"
          },
          "additionalContracts": [],
          "isFixedGasLimit": false
        },
        {
          "hash": "0xe5f1148644f508cfaf349234df727e8bf2a7782bc948a797aafbff77b8c0587c",
          "transactionType": "CALL",
          "contractName": null,
          "contractAddress": "0xd5425269f8371930686f94087baebc4cb015e301",
          "function": "allowlistedDestinationChains(uint64)",
          "arguments": [
            "16015286601757825753"
          ],
          "transaction": {
            "from": "0x8454d149beb26e3e3fc5ed1c87fb0b2a1b7b6c2c",
            "to": "0xd5425269f8371930686f94087baebc4cb015e301",
            "gas": "0xa83e",
            "value": "0x0",
            "input": "0x75c67c66000000000000000000000000000000000000000000000000de41ba4fc9d91ad9",
            "nonce": "0x500",
            "chainId": "0x14a34"
          },
          "additionalContracts": [],
          "isFixedGasLimit": false
        }
      ],
      "receipts": [
        {
          "status": "0x1",
          "cumulativeGasUsed": "0x17d1e",
          "logs": [],
          "logsBloom": "0x00000000000000000000000000000000000000000000000000000000000000000000000000000000000000000000000000000000000000000000000000000000000000000000000000000000000000000000000000000000000000000000000000000000000000000000000000000000000000000000000000000000000000000000000000000000000000000000000000000000000000000000000000000000000000000000000000000000000000000000000000000000000000000000000000000000000000000000000000000000000000000000000000000000000000000000000000000000000000000000000000000000000000000000000000000000",
          "type": "0x2",
          "transactionHash": "0xfda7f2d371e1b117c8e41ed1d00b70e022b61dd1b29e5b6cd17e0e0914bf6a33",
          "transactionIndex": "0x1",
          "blockHash": "0xd2f2fe83c923688f5c83c6f12442be890bf7a5e87943d6c91e2de08e7cece7b3",
          "blockNumber": "0xf236c1",
          "gasUsed": "0xd1df",
          "effectiveGasPrice": "0x148c8",
          "from": "0x8454d149beb26e3e3fc5ed1c87fb0b2a1b7b6c2c",
          "to": "0xd5425269f8371930686f94087baebc4cb015e301",
          "contractAddress": null,
          "l1BaseFeeScalar": "0x44d",
          "l1BlobBaseFee": "0x1",
          "l1BlobBaseFeeScalar": "0xa118b",
          "l1Fee": "0x33802fc73d",
          "l1GasPrice": "0x1d3c3617e7",
          "l1GasUsed": "0x640"
        },
        {
          "status": "0x1",
          "cumulativeGasUsed": "0x24e47",
          "logs": [],
          "logsBloom": "0x00000000000000000000000000000000000000000000000000000000000000000000000000000000000000000000000000000000000000000000000000000000000000000000000000000000000000000000000000000000000000000000000000000000000000000000000000000000000000000000000000000000000000000000000000000000000000000000000000000000000000000000000000000000000000000000000000000000000000000000000000000000000000000000000000000000000000000000000000000000000000000000000000000000000000000000000000000000000000000000000000000000000000000000000000000000",
          "type": "0x2",
          "transactionHash": "0xb8982d6ea33cd37e6fc1b9bde6e21fdc7dc1398ee753f0b3c08f14735bf45add",
          "transactionIndex": "0x2",
          "blockHash": "0xd2f2fe83c923688f5c83c6f12442be890bf7a5e87943d6c91e2de08e7cece7b3",
          "blockNumber": "0xf236c1",
          "gasUsed": "0xd129",
          "effectiveGasPrice": "0x148c8",
          "from": "0x8454d149beb26e3e3fc5ed1c87fb0b2a1b7b6c2c",
          "to": "0xd5425269f8371930686f94087baebc4cb015e301",
          "contractAddress": null,
          "l1BaseFeeScalar": "0x44d",
          "l1BlobBaseFee": "0x1",
          "l1BlobBaseFeeScalar": "0xa118b",
          "l1Fee": "0x33802fc73d",
          "l1GasPrice": "0x1d3c3617e7",
          "l1GasUsed": "0x640"
        },
        {
          "status": "0x1",
          "cumulativeGasUsed": "0x2d1cb",
          "logs": [],
          "logsBloom": "0x00000000000000000000000000000000000000000000000000000000000000000000000000000000000000000000000000000000000000000000000000000000000000000000000000000000000000000000000000000000000000000000000000000000000000000000000000000000000000000000000000000000000000000000000000000000000000000000000000000000000000000000000000000000000000000000000000000000000000000000000000000000000000000000000000000000000000000000000000000000000000000000000000000000000000000000000000000000000000000000000000000000000000000000000000000000",
          "type": "0x2",
          "transactionHash": "0xa044c8b0e5b387da53007bee2e2aec097caf1ce32322cce52ef5d59180bacaad",
          "transactionIndex": "0x3",
          "blockHash": "0xd2f2fe83c923688f5c83c6f12442be890bf7a5e87943d6c91e2de08e7cece7b3",
          "blockNumber": "0xf236c1",
          "gasUsed": "0x8384",
          "effectiveGasPrice": "0x148c8",
          "from": "0x8454d149beb26e3e3fc5ed1c87fb0b2a1b7b6c2c",
          "to": "0xd5425269f8371930686f94087baebc4cb015e301",
          "contractAddress": null,
          "l1BaseFeeScalar": "0x44d",
          "l1BlobBaseFee": "0x1",
          "l1BlobBaseFeeScalar": "0xa118b",
          "l1Fee": "0x33802fc73d",
          "l1GasPrice": "0x1d3c3617e7",
          "l1GasUsed": "0x640"
        },
        {
          "status": "0x1",
          "cumulativeGasUsed": "0x5f0ce",
          "logs": [
            {
              "address": "0xf377856082ed5e1e66cd309a3b84fd2d7251241c",
              "topics": [
                "0xed4c89b805f4efb58bc4a42b9a3c6f09783f619295a1fa41ab46d6190c8c7f3b",
                "0xe7a050aa00000000000000000000000000000000000000000000000000000000",
                "0x0000000000000000000000000000000000000000000000000000000000064190"
              ],
              "data": "0x",
              "blockHash": "0xd2f2fe83c923688f5c83c6f12442be890bf7a5e87943d6c91e2de08e7cece7b3",
              "blockNumber": "0xf236c1",
              "transactionHash": "0x7410cb8914bb28c799a65bd97db780b2aa2c36a149987514134fdf2738c49c68",
              "transactionIndex": "0x4",
              "logIndex": "0x0",
              "removed": false
            },
            {
              "address": "0xf377856082ed5e1e66cd309a3b84fd2d7251241c",
              "topics": [
                "0xed4c89b805f4efb58bc4a42b9a3c6f09783f619295a1fa41ab46d6190c8c7f3b",
                "0xcc15a55700000000000000000000000000000000000000000000000000000000",
                "0x0000000000000000000000000000000000000000000000000000000000046cd0"
              ],
              "data": "0x",
              "blockHash": "0xd2f2fe83c923688f5c83c6f12442be890bf7a5e87943d6c91e2de08e7cece7b3",
              "blockNumber": "0xf236c1",
              "transactionHash": "0x7410cb8914bb28c799a65bd97db780b2aa2c36a149987514134fdf2738c49c68",
              "transactionIndex": "0x4",
              "logIndex": "0x1",
              "removed": false
            },
            {
              "address": "0xf377856082ed5e1e66cd309a3b84fd2d7251241c",
              "topics": [
                "0xed4c89b805f4efb58bc4a42b9a3c6f09783f619295a1fa41ab46d6190c8c7f3b",
                "0x0dd8dd0200000000000000000000000000000000000000000000000000000000",
                "0x000000000000000000000000000000000000000000000000000000000004ce78"
              ],
              "data": "0x",
              "blockHash": "0xd2f2fe83c923688f5c83c6f12442be890bf7a5e87943d6c91e2de08e7cece7b3",
              "blockNumber": "0xf236c1",
              "transactionHash": "0x7410cb8914bb28c799a65bd97db780b2aa2c36a149987514134fdf2738c49c68",
              "transactionIndex": "0x4",
              "logIndex": "0x2",
              "removed": false
            },
            {
              "address": "0xf377856082ed5e1e66cd309a3b84fd2d7251241c",
              "topics": [
                "0xed4c89b805f4efb58bc4a42b9a3c6f09783f619295a1fa41ab46d6190c8c7f3b",
                "0x60d7faed00000000000000000000000000000000000000000000000000000000",
                "0x0000000000000000000000000000000000000000000000000000000000088b80"
              ],
              "data": "0x",
              "blockHash": "0xd2f2fe83c923688f5c83c6f12442be890bf7a5e87943d6c91e2de08e7cece7b3",
              "blockNumber": "0xf236c1",
              "transactionHash": "0x7410cb8914bb28c799a65bd97db780b2aa2c36a149987514134fdf2738c49c68",
              "transactionIndex": "0x4",
              "logIndex": "0x3",
              "removed": false
            },
            {
              "address": "0xf377856082ed5e1e66cd309a3b84fd2d7251241c",
              "topics": [
                "0xed4c89b805f4efb58bc4a42b9a3c6f09783f619295a1fa41ab46d6190c8c7f3b",
                "0xeea9064b00000000000000000000000000000000000000000000000000000000",
                "0x0000000000000000000000000000000000000000000000000000000000055730"
              ],
              "data": "0x",
              "blockHash": "0xd2f2fe83c923688f5c83c6f12442be890bf7a5e87943d6c91e2de08e7cece7b3",
              "blockNumber": "0xf236c1",
              "transactionHash": "0x7410cb8914bb28c799a65bd97db780b2aa2c36a149987514134fdf2738c49c68",
              "transactionIndex": "0x4",
              "logIndex": "0x4",
              "removed": false
            },
            {
              "address": "0xf377856082ed5e1e66cd309a3b84fd2d7251241c",
              "topics": [
                "0xed4c89b805f4efb58bc4a42b9a3c6f09783f619295a1fa41ab46d6190c8c7f3b",
                "0xda8be86400000000000000000000000000000000000000000000000000000000",
                "0x0000000000000000000000000000000000000000000000000000000000053020"
              ],
              "data": "0x",
              "blockHash": "0xd2f2fe83c923688f5c83c6f12442be890bf7a5e87943d6c91e2de08e7cece7b3",
              "blockNumber": "0xf236c1",
              "transactionHash": "0x7410cb8914bb28c799a65bd97db780b2aa2c36a149987514134fdf2738c49c68",
              "transactionIndex": "0x4",
              "logIndex": "0x5",
              "removed": false
            },
            {
              "address": "0xf377856082ed5e1e66cd309a3b84fd2d7251241c",
              "topics": [
                "0xed4c89b805f4efb58bc4a42b9a3c6f09783f619295a1fa41ab46d6190c8c7f3b",
                "0x3ccc861d00000000000000000000000000000000000000000000000000000000",
                "0x0000000000000000000000000000000000000000000000000000000000083d60"
              ],
              "data": "0x",
              "blockHash": "0xd2f2fe83c923688f5c83c6f12442be890bf7a5e87943d6c91e2de08e7cece7b3",
              "blockNumber": "0xf236c1",
              "transactionHash": "0x7410cb8914bb28c799a65bd97db780b2aa2c36a149987514134fdf2738c49c68",
              "transactionIndex": "0x4",
              "logIndex": "0x6",
              "removed": false
            }
          ],
          "logsBloom": "0x0000000100000000024000000000000000000000080000000000000000400000000000000002000000080000004000000000000000000000000020000010000000000000040000000000010010000004000a000000000000080000000000000000000010000000002000000000010000830000000000000000000000000100000000100000800000000000000100000000000000000000000000000000000000001000400000000000000000002000000000000088000000000000000000400400000000000000000008001000010000000200000000000000000000400001000000800000001800000000000000000000002000000000100008010100000000",
          "type": "0x2",
          "transactionHash": "0x7410cb8914bb28c799a65bd97db780b2aa2c36a149987514134fdf2738c49c68",
          "transactionIndex": "0x4",
          "blockHash": "0xd2f2fe83c923688f5c83c6f12442be890bf7a5e87943d6c91e2de08e7cece7b3",
          "blockNumber": "0xf236c1",
          "gasUsed": "0x31f03",
          "effectiveGasPrice": "0x148c8",
          "from": "0x8454d149beb26e3e3fc5ed1c87fb0b2a1b7b6c2c",
          "to": "0xf377856082ed5e1e66cd309a3b84fd2d7251241c",
          "contractAddress": null,
          "l1BaseFeeScalar": "0x44d",
          "l1BlobBaseFee": "0x1",
          "l1BlobBaseFeeScalar": "0xa118b",
          "l1Fee": "0x59a56fd280",
          "l1GasPrice": "0x1d3c3617e7",
          "l1GasUsed": "0xae1"
        },
        {
          "status": "0x1",
          "cumulativeGasUsed": "0x67405",
          "logs": [],
          "logsBloom": "0x00000000000000000000000000000000000000000000000000000000000000000000000000000000000000000000000000000000000000000000000000000000000000000000000000000000000000000000000000000000000000000000000000000000000000000000000000000000000000000000000000000000000000000000000000000000000000000000000000000000000000000000000000000000000000000000000000000000000000000000000000000000000000000000000000000000000000000000000000000000000000000000000000000000000000000000000000000000000000000000000000000000000000000000000000000000",
          "type": "0x2",
          "transactionHash": "0xf91de5719b9e0e23a3388c38d00fbae401a95c87fcd186135a343c53932c12fd",
          "transactionIndex": "0x5",
          "blockHash": "0xd2f2fe83c923688f5c83c6f12442be890bf7a5e87943d6c91e2de08e7cece7b3",
          "blockNumber": "0xf236c1",
          "gasUsed": "0x8337",
          "effectiveGasPrice": "0x148c8",
          "from": "0x8454d149beb26e3e3fc5ed1c87fb0b2a1b7b6c2c",
          "to": "0xf377856082ed5e1e66cd309a3b84fd2d7251241c",
          "contractAddress": null,
          "l1BaseFeeScalar": "0x44d",
          "l1BlobBaseFee": "0x1",
          "l1BlobBaseFeeScalar": "0xa118b",
          "l1Fee": "0x33802fc73d",
          "l1GasPrice": "0x1d3c3617e7",
          "l1GasUsed": "0x640"
        },
        {
          "status": "0x1",
          "cumulativeGasUsed": "0x6ec1f",
          "logs": [],
          "logsBloom": "0x00000000000000000000000000000000000000000000000000000000000000000000000000000000000000000000000000000000000000000000000000000000000000000000000000000000000000000000000000000000000000000000000000000000000000000000000000000000000000000000000000000000000000000000000000000000000000000000000000000000000000000000000000000000000000000000000000000000000000000000000000000000000000000000000000000000000000000000000000000000000000000000000000000000000000000000000000000000000000000000000000000000000000000000000000000000",
          "type": "0x2",
          "transactionHash": "0x3db8e52e61bdc3e074857c4aea4fdced40d2a5954ae2d95a7c3269f5d3a48332",
          "transactionIndex": "0x6",
          "blockHash": "0xd2f2fe83c923688f5c83c6f12442be890bf7a5e87943d6c91e2de08e7cece7b3",
          "blockNumber": "0xf236c1",
          "gasUsed": "0x781a",
          "effectiveGasPrice": "0x148c8",
          "from": "0x8454d149beb26e3e3fc5ed1c87fb0b2a1b7b6c2c",
          "to": "0xd5425269f8371930686f94087baebc4cb015e301",
          "contractAddress": null,
          "l1BaseFeeScalar": "0x44d",
          "l1BlobBaseFee": "0x1",
          "l1BlobBaseFeeScalar": "0xa118b",
          "l1Fee": "0x33802fc73d",
          "l1GasPrice": "0x1d3c3617e7",
          "l1GasUsed": "0x640"
        },
        {
          "status": "0x1",
          "cumulativeGasUsed": "0x7664c",
          "logs": [],
          "logsBloom": "0x00000000000000000000000000000000000000000000000000000000000000000000000000000000000000000000000000000000000000000000000000000000000000000000000000000000000000000000000000000000000000000000000000000000000000000000000000000000000000000000000000000000000000000000000000000000000000000000000000000000000000000000000000000000000000000000000000000000000000000000000000000000000000000000000000000000000000000000000000000000000000000000000000000000000000000000000000000000000000000000000000000000000000000000000000000000",
          "type": "0x2",
          "transactionHash": "0xb63136e10b68aa2d0f94f445248136c4ec20727f674be0706ddbd017ee54e8c8",
          "transactionIndex": "0x7",
          "blockHash": "0xd2f2fe83c923688f5c83c6f12442be890bf7a5e87943d6c91e2de08e7cece7b3",
          "blockNumber": "0xf236c1",
          "gasUsed": "0x7a2d",
          "effectiveGasPrice": "0x148c8",
          "from": "0x8454d149beb26e3e3fc5ed1c87fb0b2a1b7b6c2c",
          "to": "0xd5425269f8371930686f94087baebc4cb015e301",
          "contractAddress": null,
          "l1BaseFeeScalar": "0x44d",
          "l1BlobBaseFee": "0x1",
          "l1BlobBaseFeeScalar": "0xa118b",
          "l1Fee": "0x33802fc73d",
          "l1GasPrice": "0x1d3c3617e7",
          "l1GasUsed": "0x640"
        },
        {
          "status": "0x1",
          "cumulativeGasUsed": "0x7e01c",
          "logs": [],
          "logsBloom": "0x00000000000000000000000000000000000000000000000000000000000000000000000000000000000000000000000000000000000000000000000000000000000000000000000000000000000000000000000000000000000000000000000000000000000000000000000000000000000000000000000000000000000000000000000000000000000000000000000000000000000000000000000000000000000000000000000000000000000000000000000000000000000000000000000000000000000000000000000000000000000000000000000000000000000000000000000000000000000000000000000000000000000000000000000000000000",
          "type": "0x2",
          "transactionHash": "0x6e66eac8478beabdccf8af86a23f7d2d6b2dddb021f5076e7ffea9f259e0dd12",
          "transactionIndex": "0x8",
          "blockHash": "0xd2f2fe83c923688f5c83c6f12442be890bf7a5e87943d6c91e2de08e7cece7b3",
          "blockNumber": "0xf236c1",
          "gasUsed": "0x79d0",
          "effectiveGasPrice": "0x148c8",
          "from": "0x8454d149beb26e3e3fc5ed1c87fb0b2a1b7b6c2c",
          "to": "0xd5425269f8371930686f94087baebc4cb015e301",
          "contractAddress": null,
          "l1BaseFeeScalar": "0x44d",
          "l1BlobBaseFee": "0x1",
          "l1BlobBaseFeeScalar": "0xa118b",
          "l1Fee": "0x33802fc73d",
          "l1GasPrice": "0x1d3c3617e7",
          "l1GasUsed": "0x640"
        },
        {
          "status": "0x1",
          "cumulativeGasUsed": "0x859eb",
          "logs": [],
          "logsBloom": "0x00000000000000000000000000000000000000000000000000000000000000000000000000000000000000000000000000000000000000000000000000000000000000000000000000000000000000000000000000000000000000000000000000000000000000000000000000000000000000000000000000000000000000000000000000000000000000000000000000000000000000000000000000000000000000000000000000000000000000000000000000000000000000000000000000000000000000000000000000000000000000000000000000000000000000000000000000000000000000000000000000000000000000000000000000000000",
          "type": "0x2",
          "transactionHash": "0xe5f1148644f508cfaf349234df727e8bf2a7782bc948a797aafbff77b8c0587c",
          "transactionIndex": "0x9",
          "blockHash": "0xd2f2fe83c923688f5c83c6f12442be890bf7a5e87943d6c91e2de08e7cece7b3",
          "blockNumber": "0xf236c1",
          "gasUsed": "0x79cf",
          "effectiveGasPrice": "0x148c8",
          "from": "0x8454d149beb26e3e3fc5ed1c87fb0b2a1b7b6c2c",
          "to": "0xd5425269f8371930686f94087baebc4cb015e301",
          "contractAddress": null,
          "l1BaseFeeScalar": "0x44d",
          "l1BlobBaseFee": "0x1",
          "l1BlobBaseFeeScalar": "0xa118b",
          "l1Fee": "0x33802fc73d",
          "l1GasPrice": "0x1d3c3617e7",
          "l1GasUsed": "0x640"
        }
      ],
      "libraries": [],
      "pending": [],
      "returns": {},
      "timestamp": 1727515742,
      "chain": 84532,
      "commit": "cd1505f"
    },
    {
      "transactions": [
        {
          "hash": "0xd5c587c12323185d531bb52b290a361ab37daaf260a9966a6b683df4f3059e2f",
          "transactionType": "CALL",
          "contractName": null,
          "contractAddress": "0xd49fcab0176df22387ebc9cbb086af08c7db5364",
          "function": "allowlistSender(address,bool)",
          "arguments": [
            "0xD5425269f8371930686F94087bAEbc4Cb015E301",
            "true"
          ],
          "transaction": {
            "from": "0x8454d149beb26e3e3fc5ed1c87fb0b2a1b7b6c2c",
            "to": "0xd49fcab0176df22387ebc9cbb086af08c7db5364",
            "gas": "0xc13f",
            "value": "0x0",
            "input": "0xeab5b02c000000000000000000000000d5425269f8371930686f94087baebc4cb015e3010000000000000000000000000000000000000000000000000000000000000001",
            "nonce": "0x76c",
            "chainId": "0xaa36a7"
          },
          "additionalContracts": [],
          "isFixedGasLimit": false
        },
        {
          "hash": "0x9e6993af0c3079446243373a388b7408eb4d5cb90f3e97cccfe38075ade71a95",
          "transactionType": "CALL",
          "contractName": null,
          "contractAddress": "0xd49fcab0176df22387ebc9cbb086af08c7db5364",
          "function": "allowlistSourceChain(uint64,bool)",
          "arguments": [
            "10344971235874465080",
            "true"
          ],
          "transaction": {
            "from": "0x8454d149beb26e3e3fc5ed1c87fb0b2a1b7b6c2c",
            "to": "0xd49fcab0176df22387ebc9cbb086af08c7db5364",
            "gas": "0xc055",
            "value": "0x0",
            "input": "0xdb04fa490000000000000000000000000000000000000000000000008f90b8876dee65380000000000000000000000000000000000000000000000000000000000000001",
            "nonce": "0x76d",
            "chainId": "0xaa36a7"
          },
          "additionalContracts": [],
          "isFixedGasLimit": false
        },
        {
          "hash": "0x7affc366f0ceacc057765cea7ab4d16440bdf47bfbe6b9ab6f00b2643372a7c7",
          "transactionType": "CALL",
          "contractName": null,
          "contractAddress": "0xd49fcab0176df22387ebc9cbb086af08c7db5364",
          "function": "allowlistSourceChain(uint64,bool)",
          "arguments": [
            "16015286601757825753",
            "true"
          ],
          "transaction": {
            "from": "0x8454d149beb26e3e3fc5ed1c87fb0b2a1b7b6c2c",
            "to": "0xd49fcab0176df22387ebc9cbb086af08c7db5364",
            "gas": "0xc055",
            "value": "0x0",
            "input": "0xdb04fa49000000000000000000000000000000000000000000000000de41ba4fc9d91ad90000000000000000000000000000000000000000000000000000000000000001",
            "nonce": "0x76e",
            "chainId": "0xaa36a7"
          },
          "additionalContracts": [],
          "isFixedGasLimit": false
        },
        {
          "hash": "0x2c03cc566c3e11a6544727eefe2bcf605b05b1b5114c538d679df902745e3d3a",
          "transactionType": "CALL",
          "contractName": null,
          "contractAddress": "0xd49fcab0176df22387ebc9cbb086af08c7db5364",
          "function": "allowlistDestinationChain(uint64,bool)",
          "arguments": [
            "10344971235874465080",
            "true"
          ],
          "transaction": {
            "from": "0x8454d149beb26e3e3fc5ed1c87fb0b2a1b7b6c2c",
            "to": "0xd49fcab0176df22387ebc9cbb086af08c7db5364",
            "gas": "0xb588",
            "value": "0x0",
            "input": "0x96d3b83d0000000000000000000000000000000000000000000000008f90b8876dee65380000000000000000000000000000000000000000000000000000000000000001",
            "nonce": "0x76f",
            "chainId": "0xaa36a7"
          },
          "additionalContracts": [],
          "isFixedGasLimit": false
        },
        {
          "hash": "0x6a65409e14623e40da429b98d9284783abaa5b195fbf50a333fd4b16cbc1d171",
          "transactionType": "CALL",
          "contractName": null,
          "contractAddress": "0x3b9e513396a24dff61d541d7bac6ecabe02c0cca",
          "function": "setGasLimitsForFunctionSelectors(bytes4[],uint256[])",
          "arguments": [
            "[0xd8a85b48]",
            "[270000]"
          ],
          "transaction": {
            "from": "0x8454d149beb26e3e3fc5ed1c87fb0b2a1b7b6c2c",
            "to": "0x3b9e513396a24dff61d541d7bac6ecabe02c0cca",
            "gas": "0x1456a",
            "value": "0x0",
            "input": "0x3ef2d377000000000000000000000000000000000000000000000000000000000000004000000000000000000000000000000000000000000000000000000000000000800000000000000000000000000000000000000000000000000000000000000001d8a85b480000000000000000000000000000000000000000000000000000000000000000000000000000000000000000000000000000000000000000000000010000000000000000000000000000000000000000000000000000000000041eb0",
            "nonce": "0x770",
            "chainId": "0xaa36a7"
          },
          "additionalContracts": [],
          "isFixedGasLimit": false
        },
        {
          "hash": "0x8727517c9fa370cc0e5b18f3b55012608c5a89e00c49c181e7f7fc3a21734a0e",
          "transactionType": "CALL",
          "contractName": null,
          "contractAddress": "0x47992d5115ba460e821fd82467909eed75fda1f9",
          "function": "getAgentFactory()",
          "arguments": [],
          "transaction": {
            "from": "0x8454d149beb26e3e3fc5ed1c87fb0b2a1b7b6c2c",
            "to": "0x47992d5115ba460e821fd82467909eed75fda1f9",
            "gas": "0xa602",
            "value": "0x0",
            "input": "0xf3b372de",
            "nonce": "0x771",
            "chainId": "0xaa36a7"
          },
          "additionalContracts": [],
          "isFixedGasLimit": false
        }
      ],
      "receipts": [
        {
          "status": "0x1",
          "cumulativeGasUsed": "0x5225fd",
          "logs": [],
          "logsBloom": "0x00000000000000000000000000000000000000000000000000000000000000000000000000000000000000000000000000000000000000000000000000000000000000000000000000000000000000000000000000000000000000000000000000000000000000000000000000000000000000000000000000000000000000000000000000000000000000000000000000000000000000000000000000000000000000000000000000000000000000000000000000000000000000000000000000000000000000000000000000000000000000000000000000000000000000000000000000000000000000000000000000000000000000000000000000000000",
          "type": "0x2",
          "transactionHash": "0xd5c587c12323185d531bb52b290a361ab37daaf260a9966a6b683df4f3059e2f",
          "transactionIndex": "0x19",
          "blockHash": "0xe0bc368281799628f4e75609700e2351c0722935c7923b8534a93dd04b5bde51",
          "blockNumber": "0x675e14",
          "gasUsed": "0x8423",
          "effectiveGasPrice": "0x243245a084",
          "from": "0x8454d149beb26e3e3fc5ed1c87fb0b2a1b7b6c2c",
          "to": "0xd49fcab0176df22387ebc9cbb086af08c7db5364",
          "contractAddress": null
        },
        {
          "status": "0x1",
          "cumulativeGasUsed": "0x52a980",
          "logs": [],
          "logsBloom": "0x00000000000000000000000000000000000000000000000000000000000000000000000000000000000000000000000000000000000000000000000000000000000000000000000000000000000000000000000000000000000000000000000000000000000000000000000000000000000000000000000000000000000000000000000000000000000000000000000000000000000000000000000000000000000000000000000000000000000000000000000000000000000000000000000000000000000000000000000000000000000000000000000000000000000000000000000000000000000000000000000000000000000000000000000000000000",
          "type": "0x2",
          "transactionHash": "0x9e6993af0c3079446243373a388b7408eb4d5cb90f3e97cccfe38075ade71a95",
          "transactionIndex": "0x1a",
          "blockHash": "0xe0bc368281799628f4e75609700e2351c0722935c7923b8534a93dd04b5bde51",
          "blockNumber": "0x675e14",
          "gasUsed": "0x8383",
          "effectiveGasPrice": "0x243245a084",
          "from": "0x8454d149beb26e3e3fc5ed1c87fb0b2a1b7b6c2c",
          "to": "0xd49fcab0176df22387ebc9cbb086af08c7db5364",
          "contractAddress": null
        },
        {
          "status": "0x1",
          "cumulativeGasUsed": "0x532d03",
          "logs": [],
          "logsBloom": "0x00000000000000000000000000000000000000000000000000000000000000000000000000000000000000000000000000000000000000000000000000000000000000000000000000000000000000000000000000000000000000000000000000000000000000000000000000000000000000000000000000000000000000000000000000000000000000000000000000000000000000000000000000000000000000000000000000000000000000000000000000000000000000000000000000000000000000000000000000000000000000000000000000000000000000000000000000000000000000000000000000000000000000000000000000000000",
          "type": "0x2",
          "transactionHash": "0x7affc366f0ceacc057765cea7ab4d16440bdf47bfbe6b9ab6f00b2643372a7c7",
          "transactionIndex": "0x1b",
          "blockHash": "0xe0bc368281799628f4e75609700e2351c0722935c7923b8534a93dd04b5bde51",
          "blockNumber": "0x675e14",
          "gasUsed": "0x8383",
          "effectiveGasPrice": "0x243245a084",
          "from": "0x8454d149beb26e3e3fc5ed1c87fb0b2a1b7b6c2c",
          "to": "0xd49fcab0176df22387ebc9cbb086af08c7db5364",
          "contractAddress": null
        },
        {
          "status": "0x1",
          "cumulativeGasUsed": "0x53b071",
          "logs": [],
          "logsBloom": "0x00000000000000000000000000000000000000000000000000000000000000000000000000000000000000000000000000000000000000000000000000000000000000000000000000000000000000000000000000000000000000000000000000000000000000000000000000000000000000000000000000000000000000000000000000000000000000000000000000000000000000000000000000000000000000000000000000000000000000000000000000000000000000000000000000000000000000000000000000000000000000000000000000000000000000000000000000000000000000000000000000000000000000000000000000000000",
          "type": "0x2",
          "transactionHash": "0x2c03cc566c3e11a6544727eefe2bcf605b05b1b5114c538d679df902745e3d3a",
          "transactionIndex": "0x1c",
          "blockHash": "0xe0bc368281799628f4e75609700e2351c0722935c7923b8534a93dd04b5bde51",
          "blockNumber": "0x675e14",
          "gasUsed": "0x836e",
          "effectiveGasPrice": "0x243245a084",
          "from": "0x8454d149beb26e3e3fc5ed1c87fb0b2a1b7b6c2c",
          "to": "0xd49fcab0176df22387ebc9cbb086af08c7db5364",
          "contractAddress": null
        },
        {
          "status": "0x1",
          "cumulativeGasUsed": "0x548ef3",
          "logs": [
            {
              "address": "0x3b9e513396a24dff61d541d7bac6ecabe02c0cca",
              "topics": [
                "0xed4c89b805f4efb58bc4a42b9a3c6f09783f619295a1fa41ab46d6190c8c7f3b",
                "0xd8a85b4800000000000000000000000000000000000000000000000000000000",
                "0x0000000000000000000000000000000000000000000000000000000000041eb0"
              ],
              "data": "0x",
              "blockHash": "0xe0bc368281799628f4e75609700e2351c0722935c7923b8534a93dd04b5bde51",
              "blockNumber": "0x675e14",
              "transactionHash": "0x6a65409e14623e40da429b98d9284783abaa5b195fbf50a333fd4b16cbc1d171",
              "transactionIndex": "0x1d",
              "logIndex": "0x26",
              "removed": false
            }
          ],
          "logsBloom": "0x00000001000000000040000000000000000000000800000000000000000000000000000000000000000000000000000000000000000000000000000000000000000000000000000008000000000000000000000000800000000000000000000000000000000000000000000000000000800000000000040000000000001000000000000000000000000000001000000000000000000000000000000000000000000000000000000000010000100000000000000000000000000000000000000000000000000000000000000000000000000000000000000000004000000000000000000000000000000000000000000000000000000000000000000000000000",
          "type": "0x2",
          "transactionHash": "0x6a65409e14623e40da429b98d9284783abaa5b195fbf50a333fd4b16cbc1d171",
          "transactionIndex": "0x1d",
          "blockHash": "0xe0bc368281799628f4e75609700e2351c0722935c7923b8534a93dd04b5bde51",
          "blockNumber": "0x675e14",
          "gasUsed": "0xde82",
          "effectiveGasPrice": "0x243245a084",
          "from": "0x8454d149beb26e3e3fc5ed1c87fb0b2a1b7b6c2c",
          "to": "0x3b9e513396a24dff61d541d7bac6ecabe02c0cca",
          "contractAddress": null
        },
        {
          "status": "0x1",
          "cumulativeGasUsed": "0x550723",
          "logs": [],
          "logsBloom": "0x00000000000000000000000000000000000000000000000000000000000000000000000000000000000000000000000000000000000000000000000000000000000000000000000000000000000000000000000000000000000000000000000000000000000000000000000000000000000000000000000000000000000000000000000000000000000000000000000000000000000000000000000000000000000000000000000000000000000000000000000000000000000000000000000000000000000000000000000000000000000000000000000000000000000000000000000000000000000000000000000000000000000000000000000000000000",
          "type": "0x2",
          "transactionHash": "0x8727517c9fa370cc0e5b18f3b55012608c5a89e00c49c181e7f7fc3a21734a0e",
          "transactionIndex": "0x1e",
          "blockHash": "0xe0bc368281799628f4e75609700e2351c0722935c7923b8534a93dd04b5bde51",
          "blockNumber": "0x675e14",
          "gasUsed": "0x7830",
          "effectiveGasPrice": "0x243245a084",
          "from": "0x8454d149beb26e3e3fc5ed1c87fb0b2a1b7b6c2c",
          "to": "0x47992d5115ba460e821fd82467909eed75fda1f9",
          "contractAddress": null
        }
      ],
      "libraries": [],
      "pending": [],
      "returns": {},
      "timestamp": 1727515744,
      "chain": 11155111,
      "commit": "cd1505f"
    }
  ],
  "timestamp": 1727515771
}