{
  "deployments": [
    {
      "transactions": [
        {
          "hash": "0xb2113f3d610bb487796f5612bafea41167d28fd981296f29f41dc8d178238c8e",
          "transactionType": "CALL",
          "contractName": null,
          "contractAddress": "0x8f65e1a6b4e3a4566c52f9cd4ea160b12bbd51f0",
          "function": "allowlistSourceChain(uint64,bool)",
          "arguments": [
            "16015286601757825753",
            "true"
          ],
          "transaction": {
            "from": "0x8454d149beb26e3e3fc5ed1c87fb0b2a1b7b6c2c",
            "to": "0x8f65e1a6b4e3a4566c52f9cd4ea160b12bbd51f0",
            "gas": "0xed15",
            "value": "0x0",
            "input": "0xdb04fa49000000000000000000000000000000000000000000000000de41ba4fc9d91ad90000000000000000000000000000000000000000000000000000000000000001",
            "nonce": "0x210",
            "chainId": "0x66eee"
          },
          "additionalContracts": [],
          "isFixedGasLimit": false
        },
        {
          "hash": "0x1a17e9b5908957191286529ec2bbc7b6ce7cd0b6afba9a0feac673294d22cc41",
          "transactionType": "CALL",
          "contractName": null,
          "contractAddress": "0x8f65e1a6b4e3a4566c52f9cd4ea160b12bbd51f0",
          "function": "allowlistSender(address,bool)",
          "arguments": [
            "0xFcCC6216301184b174dD4c7071415CE12aC4ce37",
            "true"
          ],
          "transaction": {
            "from": "0x8454d149beb26e3e3fc5ed1c87fb0b2a1b7b6c2c",
            "to": "0x8f65e1a6b4e3a4566c52f9cd4ea160b12bbd51f0",
            "gas": "0xedaa",
            "value": "0x0",
            "input": "0xeab5b02c000000000000000000000000fccc6216301184b174dd4c7071415ce12ac4ce370000000000000000000000000000000000000000000000000000000000000001",
            "nonce": "0x211",
            "chainId": "0x66eee"
          },
          "additionalContracts": [],
          "isFixedGasLimit": false
        }
      ],
      "receipts": [
        {
          "status": "0x1",
          "cumulativeGasUsed": "0xb4e0",
          "logs": [],
          "logsBloom": "0x00000000000000000000000000000000000000000000000000000000000000000000000000000000000000000000000000000000000000000000000000000000000000000000000000000000000000000000000000000000000000000000000000000000000000000000000000000000000000000000000000000000000000000000000000000000000000000000000000000000000000000000000000000000000000000000000000000000000000000000000000000000000000000000000000000000000000000000000000000000000000000000000000000000000000000000000000000000000000000000000000000000000000000000000000000000",
          "type": "0x2",
          "transactionHash": "0xb2113f3d610bb487796f5612bafea41167d28fd981296f29f41dc8d178238c8e",
          "transactionIndex": "0x1",
          "blockHash": "0xa9e302b95aaae4ee3fa47312f486ce219ae0284f8fad243d572cf6c3ffbf0bc2",
          "blockNumber": "0x43d2018",
          "gasUsed": "0xb4e0",
          "effectiveGasPrice": "0x5f5e100",
          "from": "0x8454d149beb26e3e3fc5ed1c87fb0b2a1b7b6c2c",
          "to": "0x8f65e1a6b4e3a4566c52f9cd4ea160b12bbd51f0",
          "contractAddress": null,
          "gasUsedForL1": "0x0",
          "l1BlockNumber": "0x633486"
        },
        {
          "status": "0x1",
          "cumulativeGasUsed": "0xb553",
          "logs": [],
          "logsBloom": "0x00000000000000000000000000000000000000000000000000000000000000000000000000000000000000000000000000000000000000000000000000000000000000000000000000000000000000000000000000000000000000000000000000000000000000000000000000000000000000000000000000000000000000000000000000000000000000000000000000000000000000000000000000000000000000000000000000000000000000000000000000000000000000000000000000000000000000000000000000000000000000000000000000000000000000000000000000000000000000000000000000000000000000000000000000000000",
          "type": "0x2",
          "transactionHash": "0x1a17e9b5908957191286529ec2bbc7b6ce7cd0b6afba9a0feac673294d22cc41",
          "transactionIndex": "0x1",
          "blockHash": "0xdd8602bf5a039bf1812e0e62dbdbe492f4df3b44b913c5846292aef2196eacb3",
          "blockNumber": "0x43d2019",
          "gasUsed": "0xb553",
          "effectiveGasPrice": "0x5f5e100",
          "from": "0x8454d149beb26e3e3fc5ed1c87fb0b2a1b7b6c2c",
          "to": "0x8f65e1a6b4e3a4566c52f9cd4ea160b12bbd51f0",
          "contractAddress": null,
          "gasUsedForL1": "0x0",
          "l1BlockNumber": "0x633486"
        }
      ],
      "libraries": [],
      "pending": [],
      "returns": {
        "0": {
          "internal_type": "contract IReceiverCCIP",
          "value": "0x0000000000000000000000000000000000000000"
        },
        "1": {
          "internal_type": "contract IRestakingConnector",
          "value": "0x0000000000000000000000000000000000000000"
        }
      },
      "timestamp": 1723678719,
      "chain": 421614,
      "commit": "b5505cf"
    },
    {
      "transactions": [
        {
          "hash": "0x395810df32cbb05e961a1d3bf39490c7daf8825865f840a79117214d6fdd2912",
          "transactionType": "CALL",
          "contractName": null,
          "contractAddress": "0xfccc6216301184b174dd4c7071415ce12ac4ce37",
          "function": "allowlistSender(address,bool)",
          "arguments": [
            "0x8454d149Beb26E3E3FC5eD1C87Fb0B2a1b7B6c2c",
            "true"
          ],
          "transaction": {
            "from": "0x8454d149beb26e3e3fc5ed1c87fb0b2a1b7b6c2c",
            "to": "0xfccc6216301184b174dd4c7071415ce12ac4ce37",
            "gas": "0xfa54",
            "value": "0x0",
            "input": "0xeab5b02c0000000000000000000000008454d149beb26e3e3fc5ed1c87fb0b2a1b7b6c2c0000000000000000000000000000000000000000000000000000000000000001",
            "nonce": "0x140",
            "chainId": "0xaa36a7"
          },
          "additionalContracts": [],
          "isFixedGasLimit": false
        },
        {
          "hash": "0x1f3a8ced07fe4acdee5880fcbee7c33dc0e017ee9e69735a7705a929a6191b95",
          "transactionType": "CALL",
          "contractName": null,
          "contractAddress": "0xfd57b4ddbf88a4e07ff4e34c487b99af2fe82a05",
          "function": "drip(address)",
          "arguments": [
            "0xFcCC6216301184b174dD4c7071415CE12aC4ce37"
          ],
          "transaction": {
            "from": "0x8454d149beb26e3e3fc5ed1c87fb0b2a1b7b6c2c",
            "to": "0xfd57b4ddbf88a4e07ff4e34c487b99af2fe82a05",
            "gas": "0x1230a",
            "value": "0x0",
            "input": "0x67a5cd06000000000000000000000000fccc6216301184b174dd4c7071415ce12ac4ce37",
            "nonce": "0x141",
            "chainId": "0xaa36a7"
          },
          "additionalContracts": [],
          "isFixedGasLimit": false
        },
        {
          "hash": "0x95639ccc2e7f34b4ae1414d113917ab0a13bbd096d6f5d0193cf71b907844807",
          "transactionType": "CALL",
          "contractName": null,
          "contractAddress": "0xfd57b4ddbf88a4e07ff4e34c487b99af2fe82a05",
          "function": "drip(address)",
          "arguments": [
            "0xFcCC6216301184b174dD4c7071415CE12aC4ce37"
          ],
          "transaction": {
            "from": "0x8454d149beb26e3e3fc5ed1c87fb0b2a1b7b6c2c",
            "to": "0xfd57b4ddbf88a4e07ff4e34c487b99af2fe82a05",
            "gas": "0xb69c",
            "value": "0x0",
            "input": "0x67a5cd06000000000000000000000000fccc6216301184b174dd4c7071415ce12ac4ce37",
            "nonce": "0x142",
            "chainId": "0xaa36a7"
          },
          "additionalContracts": [],
          "isFixedGasLimit": false
        },
        {
          "hash": "0x6e626167c4da5de0b12cf7a8a4508c1c6e71990d34f31dc9ee01303f32bc0372",
          "transactionType": "CALL",
          "contractName": null,
          "contractAddress": "0xfd57b4ddbf88a4e07ff4e34c487b99af2fe82a05",
          "function": "drip(address)",
          "arguments": [
            "0xFcCC6216301184b174dD4c7071415CE12aC4ce37"
          ],
          "transaction": {
            "from": "0x8454d149beb26e3e3fc5ed1c87fb0b2a1b7b6c2c",
            "to": "0xfd57b4ddbf88a4e07ff4e34c487b99af2fe82a05",
            "gas": "0xb69c",
            "value": "0x0",
            "input": "0x67a5cd06000000000000000000000000fccc6216301184b174dd4c7071415ce12ac4ce37",
            "nonce": "0x143",
            "chainId": "0xaa36a7"
          },
          "additionalContracts": [],
          "isFixedGasLimit": false
        }
      ],
      "receipts": [
        {
          "status": "0x1",
          "cumulativeGasUsed": "0xd8f98d",
          "logs": [],
          "logsBloom": "0x00000000000000000000000000000000000000000000000000000000000000000000000000000000000000000000000000000000000000000000000000000000000000000000000000000000000000000000000000000000000000000000000000000000000000000000000000000000000000000000000000000000000000000000000000000000000000000000000000000000000000000000000000000000000000000000000000000000000000000000000000000000000000000000000000000000000000000000000000000000000000000000000000000000000000000000000000000000000000000000000000000000000000000000000000000000",
          "type": "0x2",
          "transactionHash": "0x395810df32cbb05e961a1d3bf39490c7daf8825865f840a79117214d6fdd2912",
          "transactionIndex": "0x66",
          "blockHash": "0x8c470e521bc3816c3fdfc7f002129f34d0f58e2ab9056bf51174b11ab9227ee3",
          "blockNumber": "0x633488",
          "gasUsed": "0xb53d",
          "effectiveGasPrice": "0x163ee168",
          "from": "0x8454d149beb26e3e3fc5ed1c87fb0b2a1b7b6c2c",
          "to": "0xfccc6216301184b174dd4c7071415ce12ac4ce37",
          "contractAddress": null
        },
        {
          "status": "0x1",
          "cumulativeGasUsed": "0xd9c08e",
          "logs": [
            {
              "address": "0xfd57b4ddbf88a4e07ff4e34c487b99af2fe82a05",
              "topics": [
                "0xddf252ad1be2c89b69c2b068fc378daa952ba7f163c4a11628f55a4df523b3ef",
                "0x0000000000000000000000000000000000000000000000000000000000000000",
                "0x000000000000000000000000fccc6216301184b174dd4c7071415ce12ac4ce37"
              ],
              "data": "0x0000000000000000000000000000000000000000000000000de0b6b3a7640000",
              "blockHash": "0x8c470e521bc3816c3fdfc7f002129f34d0f58e2ab9056bf51174b11ab9227ee3",
              "blockNumber": "0x633488",
              "transactionHash": "0x1f3a8ced07fe4acdee5880fcbee7c33dc0e017ee9e69735a7705a929a6191b95",
              "transactionIndex": "0x67",
              "logIndex": "0xaf",
              "removed": false
            }
          ],
          "logsBloom": "0x00000002000000000000000000000000000000000000000000000000000000000000000000000000000000000000000000000000000000000000000000000000000000000000000000000048000000000000000000000000000000000000000000000000020002000000000000000800000000000000000000000010000000000000000000000000000000000000000000000000000000000000000000000000000000000000000040000000000000080000000000000000000000000000000000000002000000000000000000000000000000001000000000000000000020000000000000000000000000000000000000000000000000000000000000000000",
          "type": "0x2",
          "transactionHash": "0x1f3a8ced07fe4acdee5880fcbee7c33dc0e017ee9e69735a7705a929a6191b95",
          "transactionIndex": "0x67",
          "blockHash": "0x8c470e521bc3816c3fdfc7f002129f34d0f58e2ab9056bf51174b11ab9227ee3",
          "blockNumber": "0x633488",
          "gasUsed": "0xc701",
          "effectiveGasPrice": "0x163ee168",
          "from": "0x8454d149beb26e3e3fc5ed1c87fb0b2a1b7b6c2c",
          "to": "0xfd57b4ddbf88a4e07ff4e34c487b99af2fe82a05",
          "contractAddress": null
        },
        {
          "status": "0x1",
          "cumulativeGasUsed": "0xda44c3",
          "logs": [
            {
              "address": "0xfd57b4ddbf88a4e07ff4e34c487b99af2fe82a05",
              "topics": [
                "0xddf252ad1be2c89b69c2b068fc378daa952ba7f163c4a11628f55a4df523b3ef",
                "0x0000000000000000000000000000000000000000000000000000000000000000",
                "0x000000000000000000000000fccc6216301184b174dd4c7071415ce12ac4ce37"
              ],
              "data": "0x0000000000000000000000000000000000000000000000000de0b6b3a7640000",
              "blockHash": "0x8c470e521bc3816c3fdfc7f002129f34d0f58e2ab9056bf51174b11ab9227ee3",
              "blockNumber": "0x633488",
              "transactionHash": "0x95639ccc2e7f34b4ae1414d113917ab0a13bbd096d6f5d0193cf71b907844807",
              "transactionIndex": "0x68",
              "logIndex": "0xb0",
              "removed": false
            }
          ],
          "logsBloom": "0x00000002000000000000000000000000000000000000000000000000000000000000000000000000000000000000000000000000000000000000000000000000000000000000000000000048000000000000000000000000000000000000000000000000020002000000000000000800000000000000000000000010000000000000000000000000000000000000000000000000000000000000000000000000000000000000000040000000000000080000000000000000000000000000000000000002000000000000000000000000000000001000000000000000000020000000000000000000000000000000000000000000000000000000000000000000",
          "type": "0x2",
          "transactionHash": "0x95639ccc2e7f34b4ae1414d113917ab0a13bbd096d6f5d0193cf71b907844807",
          "transactionIndex": "0x68",
          "blockHash": "0x8c470e521bc3816c3fdfc7f002129f34d0f58e2ab9056bf51174b11ab9227ee3",
          "blockNumber": "0x633488",
          "gasUsed": "0x8435",
          "effectiveGasPrice": "0x163ee168",
          "from": "0x8454d149beb26e3e3fc5ed1c87fb0b2a1b7b6c2c",
          "to": "0xfd57b4ddbf88a4e07ff4e34c487b99af2fe82a05",
          "contractAddress": null
        },
        {
          "status": "0x1",
          "cumulativeGasUsed": "0xdac8f8",
          "logs": [
            {
              "address": "0xfd57b4ddbf88a4e07ff4e34c487b99af2fe82a05",
              "topics": [
                "0xddf252ad1be2c89b69c2b068fc378daa952ba7f163c4a11628f55a4df523b3ef",
                "0x0000000000000000000000000000000000000000000000000000000000000000",
                "0x000000000000000000000000fccc6216301184b174dd4c7071415ce12ac4ce37"
              ],
              "data": "0x0000000000000000000000000000000000000000000000000de0b6b3a7640000",
              "blockHash": "0x8c470e521bc3816c3fdfc7f002129f34d0f58e2ab9056bf51174b11ab9227ee3",
              "blockNumber": "0x633488",
              "transactionHash": "0x6e626167c4da5de0b12cf7a8a4508c1c6e71990d34f31dc9ee01303f32bc0372",
              "transactionIndex": "0x69",
              "logIndex": "0xb1",
              "removed": false
            }
          ],
          "logsBloom": "0x00000002000000000000000000000000000000000000000000000000000000000000000000000000000000000000000000000000000000000000000000000000000000000000000000000048000000000000000000000000000000000000000000000000020002000000000000000800000000000000000000000010000000000000000000000000000000000000000000000000000000000000000000000000000000000000000040000000000000080000000000000000000000000000000000000002000000000000000000000000000000001000000000000000000020000000000000000000000000000000000000000000000000000000000000000000",
          "type": "0x2",
          "transactionHash": "0x6e626167c4da5de0b12cf7a8a4508c1c6e71990d34f31dc9ee01303f32bc0372",
          "transactionIndex": "0x69",
          "blockHash": "0x8c470e521bc3816c3fdfc7f002129f34d0f58e2ab9056bf51174b11ab9227ee3",
          "blockNumber": "0x633488",
          "gasUsed": "0x8435",
          "effectiveGasPrice": "0x163ee168",
          "from": "0x8454d149beb26e3e3fc5ed1c87fb0b2a1b7b6c2c",
          "to": "0xfd57b4ddbf88a4e07ff4e34c487b99af2fe82a05",
          "contractAddress": null
        }
      ],
      "libraries": [],
      "pending": [],
      "returns": {
        "0": {
          "internal_type": "contract IReceiverCCIP",
          "value": "0x0000000000000000000000000000000000000000"
        },
        "1": {
          "internal_type": "contract IRestakingConnector",
          "value": "0x0000000000000000000000000000000000000000"
        }
      },
      "timestamp": 1723678719,
      "chain": 11155111,
      "commit": "b5505cf"
    }
  ],
  "timestamp": 1723678729
}