{
  "deployments": [
    {
      "transactions": [
        {
          "hash": "0x3e9da366dfcfe380545992437f83319ac94cc70c862847bda45e60b4a98acac3",
          "transactionType": "CALL",
          "contractName": null,
          "contractAddress": "0xc6e2a5053715157cd2d87ed29b0de88f7e18cb46",
          "function": "allowlistSourceChain(uint64,bool)",
          "arguments": [
            "16015286601757825753",
            "true"
          ],
          "transaction": {
            "from": "0x8454d149beb26e3e3fc5ed1c87fb0b2a1b7b6c2c",
            "to": "0xc6e2a5053715157cd2d87ed29b0de88f7e18cb46",
            "gas": "0x38657",
            "value": "0x0",
            "input": "0xdb04fa49000000000000000000000000000000000000000000000000de41ba4fc9d91ad90000000000000000000000000000000000000000000000000000000000000001",
            "nonce": "0x209",
            "chainId": "0x66eee"
          },
          "additionalContracts": [],
          "isFixedGasLimit": false
        },
        {
          "hash": "0xfaa401e59520f8f55cc9c5116050aa39312e353f4d379426270cbcaa96ecd04c",
          "transactionType": "CALL",
          "contractName": null,
          "contractAddress": "0xc6e2a5053715157cd2d87ed29b0de88f7e18cb46",
          "function": "allowlistSender(address,bool)",
          "arguments": [
            "0x6821aAa5B1ad0e2B70a0B497A05FB75D3Fdf1E5B",
            "true"
          ],
          "transaction": {
            "from": "0x8454d149beb26e3e3fc5ed1c87fb0b2a1b7b6c2c",
            "to": "0xc6e2a5053715157cd2d87ed29b0de88f7e18cb46",
            "gas": "0x386ee",
            "value": "0x0",
            "input": "0xeab5b02c0000000000000000000000006821aaa5b1ad0e2b70a0b497a05fb75d3fdf1e5b0000000000000000000000000000000000000000000000000000000000000001",
            "nonce": "0x20a",
            "chainId": "0x66eee"
          },
          "additionalContracts": [],
          "isFixedGasLimit": false
        }
      ],
      "receipts": [
        {
          "status": "0x1",
          "cumulativeGasUsed": "0x22f43",
          "logs": [],
          "logsBloom": "0x00000000000000000000000000000000000000000000000000000000000000000000000000000000000000000000000000000000000000000000000000000000000000000000000000000000000000000000000000000000000000000000000000000000000000000000000000000000000000000000000000000000000000000000000000000000000000000000000000000000000000000000000000000000000000000000000000000000000000000000000000000000000000000000000000000000000000000000000000000000000000000000000000000000000000000000000000000000000000000000000000000000000000000000000000000000",
          "type": "0x2",
          "transactionHash": "0x3e9da366dfcfe380545992437f83319ac94cc70c862847bda45e60b4a98acac3",
          "transactionIndex": "0x1",
          "blockHash": "0x58800da6b39d2785074ea7888660e58cf7b9f6872dc01327201c5652291341bc",
          "blockNumber": "0x43c612e",
          "gasUsed": "0x22f43",
          "effectiveGasPrice": "0x5f5e100",
          "from": "0x8454d149beb26e3e3fc5ed1c87fb0b2a1b7b6c2c",
          "to": "0xc6e2a5053715157cd2d87ed29b0de88f7e18cb46",
          "contractAddress": null,
          "gasUsedForL1": "0x1c81f",
          "l1BlockNumber": "0x632d61"
        },
        {
          "status": "0x1",
          "cumulativeGasUsed": "0x573d7",
          "logs": [],
          "logsBloom": "0x00000000000000000000000000000000000000000000000000000000000000000000000000000000000000000000000000000000000000000000000000000000000000000000000000000000000000000000000000000000000000000000000000000000000000000000000000000000000000000000000000000000000000000000000000000000000000000000000000000000000000000000000000000000000000000000000000000000000000000000000000000000000000000000000000000000000000000000000000000000000000000000000000000000000000000000000000000000000000000000000000000000000000000000000000000000",
          "type": "0x2",
          "transactionHash": "0xfaa401e59520f8f55cc9c5116050aa39312e353f4d379426270cbcaa96ecd04c",
          "transactionIndex": "0x2",
          "blockHash": "0x1d902780f1f68393fa5b1f9ded68d1ca27101d7dd53a758b51c9f2dfb3ad27af",
          "blockNumber": "0x43c6130",
          "gasUsed": "0x22fb6",
          "effectiveGasPrice": "0x5f5e100",
          "from": "0x8454d149beb26e3e3fc5ed1c87fb0b2a1b7b6c2c",
          "to": "0xc6e2a5053715157cd2d87ed29b0de88f7e18cb46",
          "contractAddress": null,
          "gasUsedForL1": "0x1c81f",
          "l1BlockNumber": "0x632d61"
        }
      ],
      "libraries": [],
      "pending": [],
      "returns": {
        "0": {
          "internal_type": "contract IReceiverCCIP",
          "value": "0x0000000000000000000000000000000000000000"
        },
        "1": {
          "internal_type": "contract IRestakingConnector",
          "value": "0x0000000000000000000000000000000000000000"
        }
      },
      "timestamp": 1723653901,
      "chain": 421614,
      "commit": "a42031f"
    },
    {
      "transactions": [
        {
          "hash": "0xcd9b870f63014bc91ba37ca9804f07dcf8eba9937b82e58d2c818d3e569a4a77",
          "transactionType": "CALL",
          "contractName": null,
          "contractAddress": "0x6821aaa5b1ad0e2b70a0b497a05fb75d3fdf1e5b",
          "function": "allowlistSender(address,bool)",
          "arguments": [
            "0x8454d149Beb26E3E3FC5eD1C87Fb0B2a1b7B6c2c",
            "true"
          ],
          "transaction": {
            "from": "0x8454d149beb26e3e3fc5ed1c87fb0b2a1b7b6c2c",
            "to": "0x6821aaa5b1ad0e2b70a0b497a05fb75d3fdf1e5b",
            "gas": "0x975f",
            "value": "0x0",
            "input": "0xeab5b02c0000000000000000000000008454d149beb26e3e3fc5ed1c87fb0b2a1b7b6c2c0000000000000000000000000000000000000000000000000000000000000001",
            "nonce": "0x12d",
            "chainId": "0xaa36a7"
          },
          "additionalContracts": [],
          "isFixedGasLimit": false
        },
        {
          "hash": "0x1ac7b6f9bcc5cc6f877edb2ac2f3cd023341d83424efd87f872698384053e4e2",
          "transactionType": "CALL",
          "contractName": null,
          "contractAddress": "0xfd57b4ddbf88a4e07ff4e34c487b99af2fe82a05",
          "function": "drip(address)",
          "arguments": [
            "0x6821aAa5B1ad0e2B70a0B497A05FB75D3Fdf1E5B"
          ],
          "transaction": {
            "from": "0x8454d149beb26e3e3fc5ed1c87fb0b2a1b7b6c2c",
            "to": "0xfd57b4ddbf88a4e07ff4e34c487b99af2fe82a05",
            "gas": "0xb69c",
            "value": "0x0",
            "input": "0x67a5cd060000000000000000000000006821aaa5b1ad0e2b70a0b497a05fb75d3fdf1e5b",
            "nonce": "0x12e",
            "chainId": "0xaa36a7"
          },
          "additionalContracts": [],
          "isFixedGasLimit": false
        },
        {
          "hash": "0x05730fcb53eba6e6e1edfd92fd486a81c9c98f790931cc98db26b5a7dcbb8b29",
          "transactionType": "CALL",
          "contractName": null,
          "contractAddress": "0xfd57b4ddbf88a4e07ff4e34c487b99af2fe82a05",
          "function": "drip(address)",
          "arguments": [
            "0x6821aAa5B1ad0e2B70a0B497A05FB75D3Fdf1E5B"
          ],
          "transaction": {
            "from": "0x8454d149beb26e3e3fc5ed1c87fb0b2a1b7b6c2c",
            "to": "0xfd57b4ddbf88a4e07ff4e34c487b99af2fe82a05",
            "gas": "0xb69c",
            "value": "0x0",
            "input": "0x67a5cd060000000000000000000000006821aaa5b1ad0e2b70a0b497a05fb75d3fdf1e5b",
            "nonce": "0x12f",
            "chainId": "0xaa36a7"
          },
          "additionalContracts": [],
          "isFixedGasLimit": false
        },
        {
          "hash": "0x3d440e14927499442b8c30d31d19b3accdbc8cffabef4934943798b15e255586",
          "transactionType": "CALL",
          "contractName": null,
          "contractAddress": "0xfd57b4ddbf88a4e07ff4e34c487b99af2fe82a05",
          "function": "drip(address)",
          "arguments": [
            "0x6821aAa5B1ad0e2B70a0B497A05FB75D3Fdf1E5B"
          ],
          "transaction": {
            "from": "0x8454d149beb26e3e3fc5ed1c87fb0b2a1b7b6c2c",
            "to": "0xfd57b4ddbf88a4e07ff4e34c487b99af2fe82a05",
            "gas": "0xb69c",
            "value": "0x0",
            "input": "0x67a5cd060000000000000000000000006821aaa5b1ad0e2b70a0b497a05fb75d3fdf1e5b",
            "nonce": "0x130",
            "chainId": "0xaa36a7"
          },
          "additionalContracts": [],
          "isFixedGasLimit": false
        }
      ],
      "receipts": [
        {
          "status": "0x1",
          "cumulativeGasUsed": "0x896738",
          "logs": [],
          "logsBloom": "0x00000000000000000000000000000000000000000000000000000000000000000000000000000000000000000000000000000000000000000000000000000000000000000000000000000000000000000000000000000000000000000000000000000000000000000000000000000000000000000000000000000000000000000000000000000000000000000000000000000000000000000000000000000000000000000000000000000000000000000000000000000000000000000000000000000000000000000000000000000000000000000000000000000000000000000000000000000000000000000000000000000000000000000000000000000000",
          "type": "0x2",
          "transactionHash": "0xcd9b870f63014bc91ba37ca9804f07dcf8eba9937b82e58d2c818d3e569a4a77",
          "transactionIndex": "0x53",
          "blockHash": "0x147ec96d3d909d274b1c1cf332ebabc693f6c3e5ed774d3d22595bd0339f7f8c",
          "blockNumber": "0x632d63",
          "gasUsed": "0x6781",
          "effectiveGasPrice": "0xa358f654",
          "from": "0x8454d149beb26e3e3fc5ed1c87fb0b2a1b7b6c2c",
          "to": "0x6821aaa5b1ad0e2b70a0b497a05fb75d3fdf1e5b",
          "contractAddress": null
        },
        {
          "status": "0x1",
          "cumulativeGasUsed": "0x89eb6d",
          "logs": [
            {
              "address": "0xfd57b4ddbf88a4e07ff4e34c487b99af2fe82a05",
              "topics": [
                "0xddf252ad1be2c89b69c2b068fc378daa952ba7f163c4a11628f55a4df523b3ef",
                "0x0000000000000000000000000000000000000000000000000000000000000000",
                "0x0000000000000000000000006821aaa5b1ad0e2b70a0b497a05fb75d3fdf1e5b"
              ],
              "data": "0x0000000000000000000000000000000000000000000000000de0b6b3a7640000",
              "blockHash": "0x147ec96d3d909d274b1c1cf332ebabc693f6c3e5ed774d3d22595bd0339f7f8c",
              "blockNumber": "0x632d63",
              "transactionHash": "0x1ac7b6f9bcc5cc6f877edb2ac2f3cd023341d83424efd87f872698384053e4e2",
              "transactionIndex": "0x54",
              "logIndex": "0x62",
              "removed": false
            }
          ],
          "logsBloom": "0x00000002000000000000000000000000000100000000000000000000000000000000000000000000000000000000000000000000000000000000000000000000000000000000000000000008000000000000000000000000000000020000000000000000020000000000000000000800000000000000000000000010000000000000000000000000000000000000000000000000000000000000000000000000000000000000000040000000000000080000000000000000000000040000000000000002000000000000000000000000000000000000000000000000000020000000000000000000000000000000000000000000000000000000000000000000",
          "type": "0x2",
          "transactionHash": "0x1ac7b6f9bcc5cc6f877edb2ac2f3cd023341d83424efd87f872698384053e4e2",
          "transactionIndex": "0x54",
          "blockHash": "0x147ec96d3d909d274b1c1cf332ebabc693f6c3e5ed774d3d22595bd0339f7f8c",
          "blockNumber": "0x632d63",
          "gasUsed": "0x8435",
          "effectiveGasPrice": "0xa358f654",
          "from": "0x8454d149beb26e3e3fc5ed1c87fb0b2a1b7b6c2c",
          "to": "0xfd57b4ddbf88a4e07ff4e34c487b99af2fe82a05",
          "contractAddress": null
        },
        {
          "status": "0x1",
          "cumulativeGasUsed": "0x8a6fa2",
          "logs": [
            {
              "address": "0xfd57b4ddbf88a4e07ff4e34c487b99af2fe82a05",
              "topics": [
                "0xddf252ad1be2c89b69c2b068fc378daa952ba7f163c4a11628f55a4df523b3ef",
                "0x0000000000000000000000000000000000000000000000000000000000000000",
                "0x0000000000000000000000006821aaa5b1ad0e2b70a0b497a05fb75d3fdf1e5b"
              ],
              "data": "0x0000000000000000000000000000000000000000000000000de0b6b3a7640000",
              "blockHash": "0x147ec96d3d909d274b1c1cf332ebabc693f6c3e5ed774d3d22595bd0339f7f8c",
              "blockNumber": "0x632d63",
              "transactionHash": "0x05730fcb53eba6e6e1edfd92fd486a81c9c98f790931cc98db26b5a7dcbb8b29",
              "transactionIndex": "0x55",
              "logIndex": "0x63",
              "removed": false
            }
          ],
          "logsBloom": "0x00000002000000000000000000000000000100000000000000000000000000000000000000000000000000000000000000000000000000000000000000000000000000000000000000000008000000000000000000000000000000020000000000000000020000000000000000000800000000000000000000000010000000000000000000000000000000000000000000000000000000000000000000000000000000000000000040000000000000080000000000000000000000040000000000000002000000000000000000000000000000000000000000000000000020000000000000000000000000000000000000000000000000000000000000000000",
          "type": "0x2",
          "transactionHash": "0x05730fcb53eba6e6e1edfd92fd486a81c9c98f790931cc98db26b5a7dcbb8b29",
          "transactionIndex": "0x55",
          "blockHash": "0x147ec96d3d909d274b1c1cf332ebabc693f6c3e5ed774d3d22595bd0339f7f8c",
          "blockNumber": "0x632d63",
          "gasUsed": "0x8435",
          "effectiveGasPrice": "0xa358f654",
          "from": "0x8454d149beb26e3e3fc5ed1c87fb0b2a1b7b6c2c",
          "to": "0xfd57b4ddbf88a4e07ff4e34c487b99af2fe82a05",
          "contractAddress": null
        },
        {
          "status": "0x1",
          "cumulativeGasUsed": "0x8af3d7",
          "logs": [
            {
              "address": "0xfd57b4ddbf88a4e07ff4e34c487b99af2fe82a05",
              "topics": [
                "0xddf252ad1be2c89b69c2b068fc378daa952ba7f163c4a11628f55a4df523b3ef",
                "0x0000000000000000000000000000000000000000000000000000000000000000",
                "0x0000000000000000000000006821aaa5b1ad0e2b70a0b497a05fb75d3fdf1e5b"
              ],
              "data": "0x0000000000000000000000000000000000000000000000000de0b6b3a7640000",
              "blockHash": "0x147ec96d3d909d274b1c1cf332ebabc693f6c3e5ed774d3d22595bd0339f7f8c",
              "blockNumber": "0x632d63",
              "transactionHash": "0x3d440e14927499442b8c30d31d19b3accdbc8cffabef4934943798b15e255586",
              "transactionIndex": "0x56",
              "logIndex": "0x64",
              "removed": false
            }
          ],
          "logsBloom": "0x00000002000000000000000000000000000100000000000000000000000000000000000000000000000000000000000000000000000000000000000000000000000000000000000000000008000000000000000000000000000000020000000000000000020000000000000000000800000000000000000000000010000000000000000000000000000000000000000000000000000000000000000000000000000000000000000040000000000000080000000000000000000000040000000000000002000000000000000000000000000000000000000000000000000020000000000000000000000000000000000000000000000000000000000000000000",
          "type": "0x2",
          "transactionHash": "0x3d440e14927499442b8c30d31d19b3accdbc8cffabef4934943798b15e255586",
          "transactionIndex": "0x56",
          "blockHash": "0x147ec96d3d909d274b1c1cf332ebabc693f6c3e5ed774d3d22595bd0339f7f8c",
          "blockNumber": "0x632d63",
          "gasUsed": "0x8435",
          "effectiveGasPrice": "0xa358f654",
          "from": "0x8454d149beb26e3e3fc5ed1c87fb0b2a1b7b6c2c",
          "to": "0xfd57b4ddbf88a4e07ff4e34c487b99af2fe82a05",
          "contractAddress": null
        }
      ],
      "libraries": [],
      "pending": [],
      "returns": {
        "0": {
          "internal_type": "contract IReceiverCCIP",
          "value": "0x0000000000000000000000000000000000000000"
        },
        "1": {
          "internal_type": "contract IRestakingConnector",
          "value": "0x0000000000000000000000000000000000000000"
        }
      },
      "timestamp": 1723653901,
      "chain": 11155111,
      "commit": "a42031f"
    }
  ],
  "timestamp": 1723653918
}