{
  "deployments": [
    {
      "transactions": [
        {
          "hash": "0x1699479c731f95139644ee1d3ac13c5847e90215b4fe4d159c7bc81dba733fd8",
          "transactionType": "CALL",
          "contractName": null,
          "contractAddress": "0x1e1d5bb7981536809c01a317c063c599f6e45c8d",
          "function": "allowlistSender(address,bool)",
          "arguments": [
            "0xc4e6C67C8E9a3CA56dc37b0a4990895dF330B69d",
            "true"
          ],
          "transaction": {
            "from": "0x8454d149beb26e3e3fc5ed1c87fb0b2a1b7b6c2c",
            "to": "0x1e1d5bb7981536809c01a317c063c599f6e45c8d",
            "gas": "0x121d4",
            "value": "0x0",
            "input": "0xeab5b02c000000000000000000000000c4e6c67c8e9a3ca56dc37b0a4990895df330b69d0000000000000000000000000000000000000000000000000000000000000001",
            "nonce": "0x177",
            "chainId": "0x14a34"
          },
          "additionalContracts": [],
          "isFixedGasLimit": false
        },
        {
          "hash": "0x6039d4294f8a094de37241e0457dbf11bef714ba20c2011fb603c62f7a731516",
          "transactionType": "CALL",
          "contractName": null,
          "contractAddress": "0x1e1d5bb7981536809c01a317c063c599f6e45c8d",
          "function": "allowlistSourceChain(uint64,bool)",
          "arguments": [
            "10344971235874465080",
            "true"
          ],
          "transaction": {
            "from": "0x8454d149beb26e3e3fc5ed1c87fb0b2a1b7b6c2c",
            "to": "0x1e1d5bb7981536809c01a317c063c599f6e45c8d",
            "gas": "0x120d8",
            "value": "0x0",
            "input": "0xdb04fa490000000000000000000000000000000000000000000000008f90b8876dee65380000000000000000000000000000000000000000000000000000000000000001",
            "nonce": "0x178",
            "chainId": "0x14a34"
          },
          "additionalContracts": [],
          "isFixedGasLimit": false
        },
        {
          "hash": "0x8459058f03ae27f4d18f92295c69558f48909d375194ebe19f11d369afa1e454",
          "transactionType": "CALL",
          "contractName": null,
          "contractAddress": "0x1e1d5bb7981536809c01a317c063c599f6e45c8d",
          "function": "allowlistDestinationChain(uint64,bool)",
          "arguments": [
            "16015286601757825753",
            "true"
          ],
          "transaction": {
            "from": "0x8454d149beb26e3e3fc5ed1c87fb0b2a1b7b6c2c",
            "to": "0x1e1d5bb7981536809c01a317c063c599f6e45c8d",
            "gas": "0xb5d6",
            "value": "0x0",
            "input": "0x96d3b83d000000000000000000000000000000000000000000000000de41ba4fc9d91ad90000000000000000000000000000000000000000000000000000000000000001",
            "nonce": "0x179",
            "chainId": "0x14a34"
          },
          "additionalContracts": [],
          "isFixedGasLimit": false
        },
        {
          "hash": "0xe950fce77f9c4cbdb0feaafd46aee5fde266743f6e0a078e618fae9ca5a0e962",
          "transactionType": "CALL",
          "contractName": null,
          "contractAddress": "0x88a2d74f47a237a62e7a51cdda67270ce381555e",
          "function": "drip(address)",
          "arguments": [
            "0x8454d149Beb26E3E3FC5eD1C87Fb0B2a1b7B6c2c"
          ],
          "transaction": {
            "from": "0x8454d149beb26e3e3fc5ed1c87fb0b2a1b7b6c2c",
            "to": "0x88a2d74f47a237a62e7a51cdda67270ce381555e",
            "gas": "0xb69c",
            "value": "0x0",
            "input": "0x67a5cd060000000000000000000000008454d149beb26e3e3fc5ed1c87fb0b2a1b7b6c2c",
            "nonce": "0x17a",
            "chainId": "0x14a34"
          },
          "additionalContracts": [],
          "isFixedGasLimit": false
        }
      ],
      "receipts": [
        {
          "status": "0x1",
          "cumulativeGasUsed": "0x16436d",
          "logs": [],
          "logsBloom": "0x00000000000000000000000000000000000000000000000000000000000000000000000000000000000000000000000000000000000000000000000000000000000000000000000000000000000000000000000000000000000000000000000000000000000000000000000000000000000000000000000000000000000000000000000000000000000000000000000000000000000000000000000000000000000000000000000000000000000000000000000000000000000000000000000000000000000000000000000000000000000000000000000000000000000000000000000000000000000000000000000000000000000000000000000000000000",
          "type": "0x2",
          "transactionHash": "0x1699479c731f95139644ee1d3ac13c5847e90215b4fe4d159c7bc81dba733fd8",
          "transactionIndex": "0x6",
          "blockHash": "0xac2f111a02240f4f92ca364d0925b45e01b57017289a470de38b971b8382b4b8",
          "blockNumber": "0xdd2998",
          "gasUsed": "0xd1d5",
          "effectiveGasPrice": "0x9d77f1",
          "from": "0x8454d149beb26e3e3fc5ed1c87fb0b2a1b7b6c2c",
          "to": "0x1e1d5bb7981536809c01a317c063c599f6e45c8d",
          "contractAddress": null,
          "l1BaseFeeScalar": "0x44d",
          "l1BlobBaseFee": "0xc8bcfbb476",
          "l1BlobBaseFeeScalar": "0xa118b",
          "l1Fee": "0x33cfe7bace80",
          "l1GasPrice": "0xa51156777",
          "l1GasUsed": "0x640"
        },
        {
          "status": "0x1",
          "cumulativeGasUsed": "0x17148c",
          "logs": [],
          "logsBloom": "0x00000000000000000000000000000000000000000000000000000000000000000000000000000000000000000000000000000000000000000000000000000000000000000000000000000000000000000000000000000000000000000000000000000000000000000000000000000000000000000000000000000000000000000000000000000000000000000000000000000000000000000000000000000000000000000000000000000000000000000000000000000000000000000000000000000000000000000000000000000000000000000000000000000000000000000000000000000000000000000000000000000000000000000000000000000000",
          "type": "0x2",
          "transactionHash": "0x6039d4294f8a094de37241e0457dbf11bef714ba20c2011fb603c62f7a731516",
          "transactionIndex": "0x7",
          "blockHash": "0xac2f111a02240f4f92ca364d0925b45e01b57017289a470de38b971b8382b4b8",
          "blockNumber": "0xdd2998",
          "gasUsed": "0xd11f",
          "effectiveGasPrice": "0x9d77f1",
          "from": "0x8454d149beb26e3e3fc5ed1c87fb0b2a1b7b6c2c",
          "to": "0x1e1d5bb7981536809c01a317c063c599f6e45c8d",
          "contractAddress": null,
          "l1BaseFeeScalar": "0x44d",
          "l1BlobBaseFee": "0xc8bcfbb476",
          "l1BlobBaseFeeScalar": "0xa118b",
          "l1Fee": "0x33cfe7bace80",
          "l1GasPrice": "0xa51156777",
          "l1GasUsed": "0x640"
        },
        {
          "status": "0x1",
          "cumulativeGasUsed": "0x179832",
          "logs": [],
          "logsBloom": "0x00000000000000000000000000000000000000000000000000000000000000000000000000000000000000000000000000000000000000000000000000000000000000000000000000000000000000000000000000000000000000000000000000000000000000000000000000000000000000000000000000000000000000000000000000000000000000000000000000000000000000000000000000000000000000000000000000000000000000000000000000000000000000000000000000000000000000000000000000000000000000000000000000000000000000000000000000000000000000000000000000000000000000000000000000000000",
          "type": "0x2",
          "transactionHash": "0x8459058f03ae27f4d18f92295c69558f48909d375194ebe19f11d369afa1e454",
          "transactionIndex": "0x8",
          "blockHash": "0xac2f111a02240f4f92ca364d0925b45e01b57017289a470de38b971b8382b4b8",
          "blockNumber": "0xdd2998",
          "gasUsed": "0x83a6",
          "effectiveGasPrice": "0x9d77f1",
          "from": "0x8454d149beb26e3e3fc5ed1c87fb0b2a1b7b6c2c",
          "to": "0x1e1d5bb7981536809c01a317c063c599f6e45c8d",
          "contractAddress": null,
          "l1BaseFeeScalar": "0x44d",
          "l1BlobBaseFee": "0xc8bcfbb476",
          "l1BlobBaseFeeScalar": "0xa118b",
          "l1Fee": "0x33cfe7bace80",
          "l1GasPrice": "0xa51156777",
          "l1GasUsed": "0x640"
        },
        {
          "status": "0x1",
          "cumulativeGasUsed": "0x181c67",
          "logs": [
            {
              "address": "0x88a2d74f47a237a62e7a51cdda67270ce381555e",
              "topics": [
                "0xddf252ad1be2c89b69c2b068fc378daa952ba7f163c4a11628f55a4df523b3ef",
                "0x0000000000000000000000000000000000000000000000000000000000000000",
                "0x0000000000000000000000008454d149beb26e3e3fc5ed1c87fb0b2a1b7b6c2c"
              ],
              "data": "0x0000000000000000000000000000000000000000000000000de0b6b3a7640000",
              "blockHash": "0xac2f111a02240f4f92ca364d0925b45e01b57017289a470de38b971b8382b4b8",
              "blockNumber": "0xdd2998",
              "transactionHash": "0xe950fce77f9c4cbdb0feaafd46aee5fde266743f6e0a078e618fae9ca5a0e962",
              "transactionIndex": "0x9",
              "logIndex": "0x25",
              "removed": false
            }
          ],
          "logsBloom": "0x00000000000000000000000000000000000000000000000000000000000800000000000000000000000000000000000000000000000000000000000000000000000000000000000000000008000000000000000000000000000000000000000000000000020000080000000000000800000000000000000000000010000000000000000000000000000000000000000000000000000000000000000000000000080000000000000000000000000000000000000000000000000000000000000000000002000000000000000000000000080000000000000000000000000a20000000000000000000000000000000000000000000000000000000000000000000",
          "type": "0x2",
          "transactionHash": "0xe950fce77f9c4cbdb0feaafd46aee5fde266743f6e0a078e618fae9ca5a0e962",
          "transactionIndex": "0x9",
          "blockHash": "0xac2f111a02240f4f92ca364d0925b45e01b57017289a470de38b971b8382b4b8",
          "blockNumber": "0xdd2998",
          "gasUsed": "0x8435",
          "effectiveGasPrice": "0x9d77f1",
          "from": "0x8454d149beb26e3e3fc5ed1c87fb0b2a1b7b6c2c",
          "to": "0x88a2d74f47a237a62e7a51cdda67270ce381555e",
          "contractAddress": null,
          "l1BaseFeeScalar": "0x44d",
          "l1BlobBaseFee": "0xc8bcfbb476",
          "l1BlobBaseFeeScalar": "0xa118b",
          "l1Fee": "0x33cfe7bace80",
          "l1GasPrice": "0xa51156777",
          "l1GasUsed": "0x640"
        }
      ],
      "libraries": [],
      "pending": [],
      "returns": {},
      "timestamp": 1724756493,
      "chain": 84532,
      "commit": "d5880fc"
    },
    {
      "transactions": [
        {
          "hash": "0x4928a94e44f394227452535ff09a0213c6f14c9724ee54cc77917d2284ed782a",
          "transactionType": "CALL",
          "contractName": null,
          "contractAddress": "0xc4e6c67c8e9a3ca56dc37b0a4990895df330b69d",
          "function": "allowlistSender(address,bool)",
          "arguments": [
            "0x1E1D5bB7981536809C01a317c063C599f6e45C8D",
            "true"
          ],
          "transaction": {
            "from": "0x8454d149beb26e3e3fc5ed1c87fb0b2a1b7b6c2c",
            "to": "0xc4e6c67c8e9a3ca56dc37b0a4990895df330b69d",
            "gas": "0xb6b2",
            "value": "0x0",
            "input": "0xeab5b02c0000000000000000000000001e1d5bb7981536809c01a317c063c599f6e45c8d0000000000000000000000000000000000000000000000000000000000000001",
            "nonce": "0x356",
            "chainId": "0xaa36a7"
          },
          "additionalContracts": [],
          "isFixedGasLimit": false
        },
        {
          "hash": "0x63b43c725b6e309180e4a8924a9b9a734625fd6a8d33860d980055af6be158db",
          "transactionType": "CALL",
          "contractName": null,
          "contractAddress": "0xc4e6c67c8e9a3ca56dc37b0a4990895df330b69d",
          "function": "allowlistSourceChain(uint64,bool)",
          "arguments": [
            "10344971235874465080",
            "true"
          ],
          "transaction": {
            "from": "0x8454d149beb26e3e3fc5ed1c87fb0b2a1b7b6c2c",
            "to": "0xc4e6c67c8e9a3ca56dc37b0a4990895df330b69d",
            "gas": "0xb5b5",
            "value": "0x0",
            "input": "0xdb04fa490000000000000000000000000000000000000000000000008f90b8876dee65380000000000000000000000000000000000000000000000000000000000000001",
            "nonce": "0x357",
            "chainId": "0xaa36a7"
          },
          "additionalContracts": [],
          "isFixedGasLimit": false
        },
        {
          "hash": "0x5ee0d040e8d11e4c940912acf78b1772c532af6f1e08159e32073c5f07f34ad4",
          "transactionType": "CALL",
          "contractName": null,
          "contractAddress": "0xc4e6c67c8e9a3ca56dc37b0a4990895df330b69d",
          "function": "allowlistDestinationChain(uint64,bool)",
          "arguments": [
            "10344971235874465080",
            "true"
          ],
          "transaction": {
            "from": "0x8454d149beb26e3e3fc5ed1c87fb0b2a1b7b6c2c",
            "to": "0xc4e6c67c8e9a3ca56dc37b0a4990895df330b69d",
            "gas": "0xb5d6",
            "value": "0x0",
            "input": "0x96d3b83d0000000000000000000000000000000000000000000000008f90b8876dee65380000000000000000000000000000000000000000000000000000000000000001",
            "nonce": "0x358",
            "chainId": "0xaa36a7"
          },
          "additionalContracts": [],
          "isFixedGasLimit": false
        },
        {
          "hash": "0xe0a3d1769ab9b1102ef3258494478d92b0cfb673edbedea01a22054153972686",
          "transactionType": "CALL",
          "contractName": null,
          "contractAddress": "0xfd57b4ddbf88a4e07ff4e34c487b99af2fe82a05",
          "function": "drip(address)",
          "arguments": [
            "0xc4e6C67C8E9a3CA56dc37b0a4990895dF330B69d"
          ],
          "transaction": {
            "from": "0x8454d149beb26e3e3fc5ed1c87fb0b2a1b7b6c2c",
            "to": "0xfd57b4ddbf88a4e07ff4e34c487b99af2fe82a05",
            "gas": "0x1230a",
            "value": "0x0",
            "input": "0x67a5cd06000000000000000000000000c4e6c67c8e9a3ca56dc37b0a4990895df330b69d",
            "nonce": "0x359",
            "chainId": "0xaa36a7"
          },
          "additionalContracts": [],
          "isFixedGasLimit": false
        }
      ],
      "receipts": [
        {
          "status": "0x1",
          "cumulativeGasUsed": "0xab2238",
          "logs": [],
          "logsBloom": "0x00000000000000000000000000000000000000000000000000000000000000000000000000000000000000000000000000000000000000000000000000000000000000000000000000000000000000000000000000000000000000000000000000000000000000000000000000000000000000000000000000000000000000000000000000000000000000000000000000000000000000000000000000000000000000000000000000000000000000000000000000000000000000000000000000000000000000000000000000000000000000000000000000000000000000000000000000000000000000000000000000000000000000000000000000000000",
          "type": "0x2",
          "transactionHash": "0x4928a94e44f394227452535ff09a0213c6f14c9724ee54cc77917d2284ed782a",
          "transactionIndex": "0x4e",
          "blockHash": "0x366743c02c78aaadcbc51727fc1380609fe2935fa201d9f6a6727ec8929593c0",
          "blockNumber": "0x646a63",
          "gasUsed": "0x8445",
          "effectiveGasPrice": "0x8d674c32d",
          "from": "0x8454d149beb26e3e3fc5ed1c87fb0b2a1b7b6c2c",
          "to": "0xc4e6c67c8e9a3ca56dc37b0a4990895df330b69d",
          "contractAddress": null
        },
        {
          "status": "0x1",
          "cumulativeGasUsed": "0xabfa23",
          "logs": [],
          "logsBloom": "0x00000000000000000000000000000000000000000000000000000000000000000000000000000000000000000000000000000000000000000000000000000000000000000000000000000000000000000000000000000000000000000000000000000000000000000000000000000000000000000000000000000000000000000000000000000000000000000000000000000000000000000000000000000000000000000000000000000000000000000000000000000000000000000000000000000000000000000000000000000000000000000000000000000000000000000000000000000000000000000000000000000000000000000000000000000000",
          "type": "0x2",
          "transactionHash": "0x63b43c725b6e309180e4a8924a9b9a734625fd6a8d33860d980055af6be158db",
          "transactionIndex": "0x50",
          "blockHash": "0x366743c02c78aaadcbc51727fc1380609fe2935fa201d9f6a6727ec8929593c0",
          "blockNumber": "0x646a63",
          "gasUsed": "0x838f",
          "effectiveGasPrice": "0x8d674c32d",
          "from": "0x8454d149beb26e3e3fc5ed1c87fb0b2a1b7b6c2c",
          "to": "0xc4e6c67c8e9a3ca56dc37b0a4990895df330b69d",
          "contractAddress": null
        },
        {
          "status": "0x1",
          "cumulativeGasUsed": "0xac7dc9",
          "logs": [],
          "logsBloom": "0x00000000000000000000000000000000000000000000000000000000000000000000000000000000000000000000000000000000000000000000000000000000000000000000000000000000000000000000000000000000000000000000000000000000000000000000000000000000000000000000000000000000000000000000000000000000000000000000000000000000000000000000000000000000000000000000000000000000000000000000000000000000000000000000000000000000000000000000000000000000000000000000000000000000000000000000000000000000000000000000000000000000000000000000000000000000",
          "type": "0x2",
          "transactionHash": "0x5ee0d040e8d11e4c940912acf78b1772c532af6f1e08159e32073c5f07f34ad4",
          "transactionIndex": "0x51",
          "blockHash": "0x366743c02c78aaadcbc51727fc1380609fe2935fa201d9f6a6727ec8929593c0",
          "blockNumber": "0x646a63",
          "gasUsed": "0x83a6",
          "effectiveGasPrice": "0x8d674c32d",
          "from": "0x8454d149beb26e3e3fc5ed1c87fb0b2a1b7b6c2c",
          "to": "0xc4e6c67c8e9a3ca56dc37b0a4990895df330b69d",
          "contractAddress": null
        },
        {
          "status": "0x1",
          "cumulativeGasUsed": "0xad44ca",
          "logs": [
            {
              "address": "0xfd57b4ddbf88a4e07ff4e34c487b99af2fe82a05",
              "topics": [
                "0xddf252ad1be2c89b69c2b068fc378daa952ba7f163c4a11628f55a4df523b3ef",
                "0x0000000000000000000000000000000000000000000000000000000000000000",
                "0x000000000000000000000000c4e6c67c8e9a3ca56dc37b0a4990895df330b69d"
              ],
              "data": "0x0000000000000000000000000000000000000000000000000de0b6b3a7640000",
              "blockHash": "0x366743c02c78aaadcbc51727fc1380609fe2935fa201d9f6a6727ec8929593c0",
              "blockNumber": "0x646a63",
              "transactionHash": "0xe0a3d1769ab9b1102ef3258494478d92b0cfb673edbedea01a22054153972686",
              "transactionIndex": "0x52",
              "logIndex": "0x7b",
              "removed": false
            }
          ],
          "logsBloom": "0x00000002000000800000000000000000000000000000000000000000000000000000000000000000000000000000000000000000000000002000000000000000000000000000000000000008000000000000000000000000000000000000000000000000020000000000000000000800000000000000000000000010000000000000000000000000000000000000000000000000000000000000000000000000000000000000000040000000000400080000000000000000000000000000000000000002000000000000000000000000000000000000000000000000000020000000000000000000000000000000000000000000000000000000000000000000",
          "type": "0x2",
          "transactionHash": "0xe0a3d1769ab9b1102ef3258494478d92b0cfb673edbedea01a22054153972686",
          "transactionIndex": "0x52",
          "blockHash": "0x366743c02c78aaadcbc51727fc1380609fe2935fa201d9f6a6727ec8929593c0",
          "blockNumber": "0x646a63",
          "gasUsed": "0xc701",
          "effectiveGasPrice": "0x8d674c32d",
          "from": "0x8454d149beb26e3e3fc5ed1c87fb0b2a1b7b6c2c",
          "to": "0xfd57b4ddbf88a4e07ff4e34c487b99af2fe82a05",
          "contractAddress": null
        }
      ],
      "libraries": [],
      "pending": [],
      "returns": {},
      "timestamp": 1724756494,
      "chain": 11155111,
      "commit": "d5880fc"
    }
  ],
  "timestamp": 1724756510
}