{
  "deployments": [
    {
      "transactions": [
        {
          "hash": "0xea1dab7abe0fe18366c8e77c75aae82fd1a3634b3bb43ec8589f55ef913191d1",
          "transactionType": "CALL",
          "contractName": null,
          "contractAddress": "0x2ee92a6e9afb0e94937f9020df3bd6203f73d24a",
          "function": "allowlistSender(uint64,address,bool)",
          "arguments": [
            "16015286601757825753",
            "0x7aABfF7bb12EAB2aFb76998c0d80928E670CB51A",
            "true"
          ],
          "transaction": {
            "from": "0x8454d149beb26e3e3fc5ed1c87fb0b2a1b7b6c2c",
            "to": "0x2ee92a6e9afb0e94937f9020df3bd6203f73d24a",
            "gas": "0xb9d0",
            "value": "0x0",
            "input": "0xf039a009000000000000000000000000000000000000000000000000de41ba4fc9d91ad90000000000000000000000007aabff7bb12eab2afb76998c0d80928e670cb51a0000000000000000000000000000000000000000000000000000000000000001",
            "nonce": "0x5c8",
            "chainId": "0x14a34"
          },
          "additionalContracts": [],
          "isFixedGasLimit": false
        },
        {
          "hash": "0x986d36083ee6af9e89504680082f7fbc24617df3ad96f3c464597afa7ae74bd2",
          "transactionType": "CALL",
          "contractName": null,
          "contractAddress": "0x2ee92a6e9afb0e94937f9020df3bd6203f73d24a",
          "function": "allowlistSourceChain(uint64,bool)",
          "arguments": [
            "10344971235874465080",
            "true"
          ],
          "transaction": {
            "from": "0x8454d149beb26e3e3fc5ed1c87fb0b2a1b7b6c2c",
            "to": "0x2ee92a6e9afb0e94937f9020df3bd6203f73d24a",
            "gas": "0xb3da",
            "value": "0x0",
            "input": "0xdb04fa490000000000000000000000000000000000000000000000008f90b8876dee65380000000000000000000000000000000000000000000000000000000000000001",
            "nonce": "0x5c9",
            "chainId": "0x14a34"
          },
          "additionalContracts": [],
          "isFixedGasLimit": false
        },
        {
          "hash": "0x423be3097ea6d2c1afe8f5bb51b8e42664555bea26e10006d468b2d9cdeabea1",
          "transactionType": "CALL",
          "contractName": null,
          "contractAddress": "0x2ee92a6e9afb0e94937f9020df3bd6203f73d24a",
          "function": "allowlistDestinationChain(uint64,bool)",
          "arguments": [
            "16015286601757825753",
            "true"
          ],
          "transaction": {
            "from": "0x8454d149beb26e3e3fc5ed1c87fb0b2a1b7b6c2c",
            "to": "0x2ee92a6e9afb0e94937f9020df3bd6203f73d24a",
            "gas": "0xb3f8",
            "value": "0x0",
            "input": "0x96d3b83d000000000000000000000000000000000000000000000000de41ba4fc9d91ad90000000000000000000000000000000000000000000000000000000000000001",
            "nonce": "0x5ca",
            "chainId": "0x14a34"
          },
          "additionalContracts": [],
          "isFixedGasLimit": false
        },
        {
          "hash": "0xffefb226723d639c0c12996d3a796ff404bbc88f94e8eba127fa570c95e8d390",
          "transactionType": "CALL",
          "contractName": null,
          "contractAddress": "0xe04336a5e33451ad56319ff7c09e14e28c65adbe",
          "function": "setGasLimitsForFunctionSelectors(bytes4[],uint256[])",
          "arguments": [
            "[0xe7a050aa, 0xcc15a557, 0x0dd8dd02, 0xe4cc3f90, 0xeea9064b, 0xda8be864, 0x3ccc861d]",
            "[410000, 290000, 315000, 560000, 350000, 340000, 540000]"
          ],
          "transaction": {
            "from": "0x8454d149beb26e3e3fc5ed1c87fb0b2a1b7b6c2c",
            "to": "0xe04336a5e33451ad56319ff7c09e14e28c65adbe",
            "gas": "0x1734d",
            "value": "0x0",
            "input": "0x3ef2d377000000000000000000000000000000000000000000000000000000000000004000000000000000000000000000000000000000000000000000000000000001400000000000000000000000000000000000000000000000000000000000000007e7a050aa00000000000000000000000000000000000000000000000000000000cc15a557000000000000000000000000000000000000000000000000000000000dd8dd0200000000000000000000000000000000000000000000000000000000e4cc3f9000000000000000000000000000000000000000000000000000000000eea9064b00000000000000000000000000000000000000000000000000000000da8be864000000000000000000000000000000000000000000000000000000003ccc861d00000000000000000000000000000000000000000000000000000000000000000000000000000000000000000000000000000000000000000000000700000000000000000000000000000000000000000000000000000000000641900000000000000000000000000000000000000000000000000000000000046cd0000000000000000000000000000000000000000000000000000000000004ce780000000000000000000000000000000000000000000000000000000000088b80000000000000000000000000000000000000000000000000000000000005573000000000000000000000000000000000000000000000000000000000000530200000000000000000000000000000000000000000000000000000000000083d60",
            "nonce": "0x5cb",
            "chainId": "0x14a34"
          },
          "additionalContracts": [],
          "isFixedGasLimit": false
        },
        {
          "hash": "0xb4ba7dd725fc674b8d2257924b58a8e3c331673e5c124b8618c978658b32d45d",
          "transactionType": "CALL",
          "contractName": null,
          "contractAddress": "0xe04336a5e33451ad56319ff7c09e14e28c65adbe",
          "function": "setSenderCCIP(address)",
          "arguments": [
            "0x2ee92A6E9aFb0E94937F9020Df3bD6203F73d24A"
          ],
          "transaction": {
            "from": "0x8454d149beb26e3e3fc5ed1c87fb0b2a1b7b6c2c",
            "to": "0xe04336a5e33451ad56319ff7c09e14e28c65adbe",
            "gas": "0xb0d4",
            "value": "0x0",
            "input": "0xd8d6c31a0000000000000000000000002ee92a6e9afb0e94937f9020df3bd6203f73d24a",
            "nonce": "0x5cc",
            "chainId": "0x14a34"
          },
          "additionalContracts": [],
          "isFixedGasLimit": false
        },
        {
          "hash": "0xebe9126ba352d3e125d9246276a1bfb2afff1741ed1a99f9bf05ca732b166d5d",
          "transactionType": "CALL",
          "contractName": null,
          "contractAddress": "0x2ee92a6e9afb0e94937f9020df3bd6203f73d24a",
          "function": "getSenderHooks()",
          "arguments": [],
          "transaction": {
            "from": "0x8454d149beb26e3e3fc5ed1c87fb0b2a1b7b6c2c",
            "to": "0x2ee92a6e9afb0e94937f9020df3bd6203f73d24a",
            "gas": "0xa4d2",
            "value": "0x0",
            "input": "0xe09df825",
            "nonce": "0x5cd",
            "chainId": "0x14a34"
          },
          "additionalContracts": [],
          "isFixedGasLimit": false
        },
        {
          "hash": "0xa491481661394f266a44cd6217cc8c3816606fc41338de9d6ea2442d3f44bd85",
          "transactionType": "CALL",
          "contractName": null,
          "contractAddress": "0x2ee92a6e9afb0e94937f9020df3bd6203f73d24a",
          "function": "allowlistedSenders(uint64,address)",
          "arguments": [
            "16015286601757825753",
            "0x7aABfF7bb12EAB2aFb76998c0d80928E670CB51A"
          ],
          "transaction": {
            "from": "0x8454d149beb26e3e3fc5ed1c87fb0b2a1b7b6c2c",
            "to": "0x2ee92a6e9afb0e94937f9020df3bd6203f73d24a",
            "gas": "0xa11b",
            "value": "0x0",
            "input": "0x039faeb0000000000000000000000000000000000000000000000000de41ba4fc9d91ad90000000000000000000000007aabff7bb12eab2afb76998c0d80928e670cb51a",
            "nonce": "0x5ce",
            "chainId": "0x14a34"
          },
          "additionalContracts": [],
          "isFixedGasLimit": false
        },
        {
          "hash": "0xb0ee6b346fbd7f0f4affdb79cfc297143c3deb8815f59c7a20d505b2d397682f",
          "transactionType": "CALL",
          "contractName": null,
          "contractAddress": "0x2ee92a6e9afb0e94937f9020df3bd6203f73d24a",
          "function": "allowlistedSourceChains(uint64)",
          "arguments": [
            "16015286601757825753"
          ],
          "transaction": {
            "from": "0x8454d149beb26e3e3fc5ed1c87fb0b2a1b7b6c2c",
            "to": "0x2ee92a6e9afb0e94937f9020df3bd6203f73d24a",
            "gas": "0xa6f6",
            "value": "0x0",
            "input": "0x4030d521000000000000000000000000000000000000000000000000de41ba4fc9d91ad9",
            "nonce": "0x5cf",
            "chainId": "0x14a34"
          },
          "additionalContracts": [],
          "isFixedGasLimit": false
        },
        {
          "hash": "0x68ea6413a0e6901d38b8cb06efa3958329b7ffa1a430d1e58369be758f6e5274",
          "transactionType": "CALL",
          "contractName": null,
          "contractAddress": "0x2ee92a6e9afb0e94937f9020df3bd6203f73d24a",
          "function": "allowlistedDestinationChains(uint64)",
          "arguments": [
            "16015286601757825753"
          ],
          "transaction": {
            "from": "0x8454d149beb26e3e3fc5ed1c87fb0b2a1b7b6c2c",
            "to": "0x2ee92a6e9afb0e94937f9020df3bd6203f73d24a",
            "gas": "0xa6d3",
            "value": "0x0",
            "input": "0x75c67c66000000000000000000000000000000000000000000000000de41ba4fc9d91ad9",
            "nonce": "0x5d0",
            "chainId": "0x14a34"
          },
          "additionalContracts": [],
          "isFixedGasLimit": false
        }
      ],
      "receipts": [
        {
          "status": "0x1",
          "cumulativeGasUsed": "0x3174b9",
          "logs": [
            {
              "address": "0x2ee92a6e9afb0e94937f9020df3bd6203f73d24a",
              "topics": [
                "0x7341e817a8458e8902ebedbcd9e82db8299e43de630c89ade217662e6cafe906",
                "0x000000000000000000000000000000000000000000000000de41ba4fc9d91ad9",
                "0x0000000000000000000000007aabff7bb12eab2afb76998c0d80928e670cb51a"
              ],
              "data": "0x0000000000000000000000000000000000000000000000000000000000000001",
              "blockHash": "0x1a3ffb9fdec680253121015ea8987a4281cfdc2e07eb8f102745f464e833aaa4",
              "blockNumber": "0x15ddeac",
              "transactionHash": "0xea1dab7abe0fe18366c8e77c75aae82fd1a3634b3bb43ec8589f55ef913191d1",
              "transactionIndex": "0x19",
              "logIndex": "0x4e",
              "removed": false
            }
          ],
          "logsBloom": "0x00000000000000000020000000000000000000000000000000000000000000000000000000004000000000000000000000000000000000000000000000000000000000000000000000000000000000000000000000000400000000000000000000000000000000000000000000010000000000000000000000000000008000000000000000000000200000000000000000000020000000000000000000000000000000000000000000000000000000000000000000000000000000000000000000000000000000000000000000000000000000000000000000000000000000000000000000000000000020008000010000000000000001000000000000000010",
          "type": "0x2",
          "transactionHash": "0xea1dab7abe0fe18366c8e77c75aae82fd1a3634b3bb43ec8589f55ef913191d1",
          "transactionIndex": "0x19",
          "blockHash": "0x1a3ffb9fdec680253121015ea8987a4281cfdc2e07eb8f102745f464e833aaa4",
          "blockNumber": "0x15ddeac",
          "gasUsed": "0x8687",
          "effectiveGasPrice": "0xf43b7",
          "from": "0x8454d149beb26e3e3fc5ed1c87fb0b2a1b7b6c2c",
          "to": "0x2ee92a6e9afb0e94937f9020df3bd6203f73d24a",
          "contractAddress": null,
          "l1BaseFeeScalar": "0x44d",
          "l1BlobBaseFee": "0x1",
          "l1BlobBaseFeeScalar": "0xa118b",
          "l1Fee": "0x5579a0b53e",
          "l1GasPrice": "0x30857368d5",
          "l1GasUsed": "0x640"
        },
        {
          "status": "0x1",
          "cumulativeGasUsed": "0x415934",
          "logs": [
            {
              "address": "0x2ee92a6e9afb0e94937f9020df3bd6203f73d24a",
              "topics": [
                "0xa5f858f3914e62a82af355192513d8dbc618ff9815e7213a71930d8996a3cb82",
                "0x0000000000000000000000000000000000000000000000008f90b8876dee6538"
              ],
              "data": "0x0000000000000000000000000000000000000000000000000000000000000001",
              "blockHash": "0x1a3ffb9fdec680253121015ea8987a4281cfdc2e07eb8f102745f464e833aaa4",
              "blockNumber": "0x15ddeac",
              "transactionHash": "0x986d36083ee6af9e89504680082f7fbc24617df3ad96f3c464597afa7ae74bd2",
              "transactionIndex": "0x20",
              "logIndex": "0x66",
              "removed": false
            }
          ],
          "logsBloom": "0x00000000000000000020020000000000000000000000000000000000000000000000000000000000000000000000000000000000000000000000000000000000000000000000000000000000000000000000000400000400000000000000200000000000000000000000100000000000000000000000000000000000008000004000000000000000000000000000000000000000000000000000000000000000000000000000000000000000000000000000000000000000000000000000000000000000000000000000000000000000000000000000000000000000000000000000000000000001000000000000000000000000000000000000000000000000",
          "type": "0x2",
          "transactionHash": "0x986d36083ee6af9e89504680082f7fbc24617df3ad96f3c464597afa7ae74bd2",
          "transactionIndex": "0x20",
          "blockHash": "0x1a3ffb9fdec680253121015ea8987a4281cfdc2e07eb8f102745f464e833aaa4",
          "blockNumber": "0x15ddeac",
          "gasUsed": "0x8236",
          "effectiveGasPrice": "0xf43b7",
          "from": "0x8454d149beb26e3e3fc5ed1c87fb0b2a1b7b6c2c",
          "to": "0x2ee92a6e9afb0e94937f9020df3bd6203f73d24a",
          "contractAddress": null,
          "l1BaseFeeScalar": "0x44d",
          "l1BlobBaseFee": "0x1",
          "l1BlobBaseFeeScalar": "0xa118b",
          "l1Fee": "0x5579a0b53e",
          "l1GasPrice": "0x30857368d5",
          "l1GasUsed": "0x640"
        },
        {
          "status": "0x1",
          "cumulativeGasUsed": "0x41db80",
          "logs": [
            {
              "address": "0x2ee92a6e9afb0e94937f9020df3bd6203f73d24a",
              "topics": [
                "0x79e93956b5c7b59cb1d0aaa5849af9993c5b994c44b148b1944f4e4ecf1e9b89",
                "0x000000000000000000000000000000000000000000000000de41ba4fc9d91ad9"
              ],
              "data": "0x0000000000000000000000000000000000000000000000000000000000000001",
              "blockHash": "0x1a3ffb9fdec680253121015ea8987a4281cfdc2e07eb8f102745f464e833aaa4",
              "blockNumber": "0x15ddeac",
              "transactionHash": "0x423be3097ea6d2c1afe8f5bb51b8e42664555bea26e10006d468b2d9cdeabea1",
              "transactionIndex": "0x21",
              "logIndex": "0x67",
              "removed": false
            }
          ],
          "logsBloom": "0x00000000000000000020000000000000000000040000000000000000000000000000000000004000000000000000000000000000000000000000000000000000000000000000000000200000000000000000000000000400000000000000000000000000000000000000000000010000000000000000000000000000008000000000000000000000000000000000000000000020000000000000000000000000000000000000000000000000000000000000000000000000000000100000000000000000000000000000000000000000000000000000000000000000000000000000000000000000000000000000000000000000000000000000000000000000",
          "type": "0x2",
          "transactionHash": "0x423be3097ea6d2c1afe8f5bb51b8e42664555bea26e10006d468b2d9cdeabea1",
          "transactionIndex": "0x21",
          "blockHash": "0x1a3ffb9fdec680253121015ea8987a4281cfdc2e07eb8f102745f464e833aaa4",
          "blockNumber": "0x15ddeac",
          "gasUsed": "0x824c",
          "effectiveGasPrice": "0xf43b7",
          "from": "0x8454d149beb26e3e3fc5ed1c87fb0b2a1b7b6c2c",
          "to": "0x2ee92a6e9afb0e94937f9020df3bd6203f73d24a",
          "contractAddress": null,
          "l1BaseFeeScalar": "0x44d",
          "l1BlobBaseFee": "0x1",
          "l1BlobBaseFeeScalar": "0xa118b",
          "l1Fee": "0x5579a0b53e",
          "l1GasPrice": "0x30857368d5",
          "l1GasUsed": "0x640"
        },
        {
          "status": "0x1",
          "cumulativeGasUsed": "0x42d962",
          "logs": [
            {
              "address": "0xe04336a5e33451ad56319ff7c09e14e28c65adbe",
              "topics": [
                "0xed4c89b805f4efb58bc4a42b9a3c6f09783f619295a1fa41ab46d6190c8c7f3b",
                "0xe7a050aa00000000000000000000000000000000000000000000000000000000",
                "0x0000000000000000000000000000000000000000000000000000000000064190"
              ],
              "data": "0x",
              "blockHash": "0x1a3ffb9fdec680253121015ea8987a4281cfdc2e07eb8f102745f464e833aaa4",
              "blockNumber": "0x15ddeac",
              "transactionHash": "0xffefb226723d639c0c12996d3a796ff404bbc88f94e8eba127fa570c95e8d390",
              "transactionIndex": "0x22",
              "logIndex": "0x68",
              "removed": false
            },
            {
              "address": "0xe04336a5e33451ad56319ff7c09e14e28c65adbe",
              "topics": [
                "0xed4c89b805f4efb58bc4a42b9a3c6f09783f619295a1fa41ab46d6190c8c7f3b",
                "0xcc15a55700000000000000000000000000000000000000000000000000000000",
                "0x0000000000000000000000000000000000000000000000000000000000046cd0"
              ],
              "data": "0x",
              "blockHash": "0x1a3ffb9fdec680253121015ea8987a4281cfdc2e07eb8f102745f464e833aaa4",
              "blockNumber": "0x15ddeac",
              "transactionHash": "0xffefb226723d639c0c12996d3a796ff404bbc88f94e8eba127fa570c95e8d390",
              "transactionIndex": "0x22",
              "logIndex": "0x69",
              "removed": false
            },
            {
              "address": "0xe04336a5e33451ad56319ff7c09e14e28c65adbe",
              "topics": [
                "0xed4c89b805f4efb58bc4a42b9a3c6f09783f619295a1fa41ab46d6190c8c7f3b",
                "0x0dd8dd0200000000000000000000000000000000000000000000000000000000",
                "0x000000000000000000000000000000000000000000000000000000000004ce78"
              ],
              "data": "0x",
              "blockHash": "0x1a3ffb9fdec680253121015ea8987a4281cfdc2e07eb8f102745f464e833aaa4",
              "blockNumber": "0x15ddeac",
              "transactionHash": "0xffefb226723d639c0c12996d3a796ff404bbc88f94e8eba127fa570c95e8d390",
              "transactionIndex": "0x22",
              "logIndex": "0x6a",
              "removed": false
            },
            {
              "address": "0xe04336a5e33451ad56319ff7c09e14e28c65adbe",
              "topics": [
                "0xed4c89b805f4efb58bc4a42b9a3c6f09783f619295a1fa41ab46d6190c8c7f3b",
                "0xe4cc3f9000000000000000000000000000000000000000000000000000000000",
                "0x0000000000000000000000000000000000000000000000000000000000088b80"
              ],
              "data": "0x",
              "blockHash": "0x1a3ffb9fdec680253121015ea8987a4281cfdc2e07eb8f102745f464e833aaa4",
              "blockNumber": "0x15ddeac",
              "transactionHash": "0xffefb226723d639c0c12996d3a796ff404bbc88f94e8eba127fa570c95e8d390",
              "transactionIndex": "0x22",
              "logIndex": "0x6b",
              "removed": false
            },
            {
              "address": "0xe04336a5e33451ad56319ff7c09e14e28c65adbe",
              "topics": [
                "0xed4c89b805f4efb58bc4a42b9a3c6f09783f619295a1fa41ab46d6190c8c7f3b",
                "0xeea9064b00000000000000000000000000000000000000000000000000000000",
                "0x0000000000000000000000000000000000000000000000000000000000055730"
              ],
              "data": "0x",
              "blockHash": "0x1a3ffb9fdec680253121015ea8987a4281cfdc2e07eb8f102745f464e833aaa4",
              "blockNumber": "0x15ddeac",
              "transactionHash": "0xffefb226723d639c0c12996d3a796ff404bbc88f94e8eba127fa570c95e8d390",
              "transactionIndex": "0x22",
              "logIndex": "0x6c",
              "removed": false
            },
            {
              "address": "0xe04336a5e33451ad56319ff7c09e14e28c65adbe",
              "topics": [
                "0xed4c89b805f4efb58bc4a42b9a3c6f09783f619295a1fa41ab46d6190c8c7f3b",
                "0xda8be86400000000000000000000000000000000000000000000000000000000",
                "0x0000000000000000000000000000000000000000000000000000000000053020"
              ],
              "data": "0x",
              "blockHash": "0x1a3ffb9fdec680253121015ea8987a4281cfdc2e07eb8f102745f464e833aaa4",
              "blockNumber": "0x15ddeac",
              "transactionHash": "0xffefb226723d639c0c12996d3a796ff404bbc88f94e8eba127fa570c95e8d390",
              "transactionIndex": "0x22",
              "logIndex": "0x6d",
              "removed": false
            },
            {
              "address": "0xe04336a5e33451ad56319ff7c09e14e28c65adbe",
              "topics": [
                "0xed4c89b805f4efb58bc4a42b9a3c6f09783f619295a1fa41ab46d6190c8c7f3b",
                "0x3ccc861d00000000000000000000000000000000000000000000000000000000",
                "0x0000000000000000000000000000000000000000000000000000000000083d60"
              ],
              "data": "0x",
              "blockHash": "0x1a3ffb9fdec680253121015ea8987a4281cfdc2e07eb8f102745f464e833aaa4",
              "blockNumber": "0x15ddeac",
              "transactionHash": "0xffefb226723d639c0c12996d3a796ff404bbc88f94e8eba127fa570c95e8d390",
              "transactionIndex": "0x22",
              "logIndex": "0x6e",
              "removed": false
            }
          ],
          "logsBloom": "0x00000001000000000040000000000000000000000800000000000000004000000000000000020000000800000040000000100000000000000000200000100000000000000000000000000100000000040108000000000000080000000000000000000010000000002000000000010000830000000000000000000000000100000000100000800000000000000300000000000000000400000000000000000000001000400000000000000000002000000000000080000000000000000000400400000400000000000008001000010000000200000000000000000000400001020000800000001800000000000000000000002000000000100000010100000000",
          "type": "0x2",
          "transactionHash": "0xffefb226723d639c0c12996d3a796ff404bbc88f94e8eba127fa570c95e8d390",
          "transactionIndex": "0x22",
          "blockHash": "0x1a3ffb9fdec680253121015ea8987a4281cfdc2e07eb8f102745f464e833aaa4",
          "blockNumber": "0x15ddeac",
          "gasUsed": "0xfde2",
          "effectiveGasPrice": "0xf43b7",
          "from": "0x8454d149beb26e3e3fc5ed1c87fb0b2a1b7b6c2c",
          "to": "0xe04336a5e33451ad56319ff7c09e14e28c65adbe",
          "contractAddress": null,
          "l1BaseFeeScalar": "0x44d",
          "l1BlobBaseFee": "0x1",
          "l1BlobBaseFeeScalar": "0xa118b",
          "l1Fee": "0x9d5d5e23b6",
          "l1GasPrice": "0x30857368d5",
          "l1GasUsed": "0xb81"
        },
        {
          "status": "0x1",
          "cumulativeGasUsed": "0x435968",
          "logs": [
            {
              "address": "0xe04336a5e33451ad56319ff7c09e14e28c65adbe",
              "topics": [
                "0xc200bc994a6761c6c93718eb06df928b16dca3e77b7ce283d09852e260c9b2da",
                "0x0000000000000000000000002ee92a6e9afb0e94937f9020df3bd6203f73d24a"
              ],
              "data": "0x",
              "blockHash": "0x1a3ffb9fdec680253121015ea8987a4281cfdc2e07eb8f102745f464e833aaa4",
              "blockNumber": "0x15ddeac",
              "transactionHash": "0xb4ba7dd725fc674b8d2257924b58a8e3c331673e5c124b8618c978658b32d45d",
              "transactionIndex": "0x23",
              "logIndex": "0x6f",
              "removed": false
            }
          ],
          "logsBloom": "0x00000000000000000100000000000000100000040000000000000000000000000000000000000000000000000000000000100000000000000000000000000000000000000000000000000000000000000000000000000000000000000400000000000000000000000000000000000000000000000000000000000000000000000000000000000000000000000200000000000000000000000000000000000000100000000000000000000000000000000000000000000000000000000000000000000400000000000000000000000000000020000000000000000000000000000000000000000000000000000000000000000000000000000000000000000000",
          "type": "0x2",
          "transactionHash": "0xb4ba7dd725fc674b8d2257924b58a8e3c331673e5c124b8618c978658b32d45d",
          "transactionIndex": "0x23",
          "blockHash": "0x1a3ffb9fdec680253121015ea8987a4281cfdc2e07eb8f102745f464e833aaa4",
          "blockNumber": "0x15ddeac",
          "gasUsed": "0x8006",
          "effectiveGasPrice": "0xf43b7",
          "from": "0x8454d149beb26e3e3fc5ed1c87fb0b2a1b7b6c2c",
          "to": "0xe04336a5e33451ad56319ff7c09e14e28c65adbe",
          "contractAddress": null,
          "l1BaseFeeScalar": "0x44d",
          "l1BlobBaseFee": "0x1",
          "l1BlobBaseFeeScalar": "0xa118b",
          "l1Fee": "0x5579a0b53e",
          "l1GasPrice": "0x30857368d5",
          "l1GasUsed": "0x640"
        },
        {
          "status": "0x1",
          "cumulativeGasUsed": "0x43ca1b",
          "logs": [],
          "logsBloom": "0x00000000000000000000000000000000000000000000000000000000000000000000000000000000000000000000000000000000000000000000000000000000000000000000000000000000000000000000000000000000000000000000000000000000000000000000000000000000000000000000000000000000000000000000000000000000000000000000000000000000000000000000000000000000000000000000000000000000000000000000000000000000000000000000000000000000000000000000000000000000000000000000000000000000000000000000000000000000000000000000000000000000000000000000000000000000",
          "type": "0x2",
          "transactionHash": "0xebe9126ba352d3e125d9246276a1bfb2afff1741ed1a99f9bf05ca732b166d5d",
          "transactionIndex": "0x24",
          "blockHash": "0x1a3ffb9fdec680253121015ea8987a4281cfdc2e07eb8f102745f464e833aaa4",
          "blockNumber": "0x15ddeac",
          "gasUsed": "0x70b3",
          "effectiveGasPrice": "0xf43b7",
          "from": "0x8454d149beb26e3e3fc5ed1c87fb0b2a1b7b6c2c",
          "to": "0x2ee92a6e9afb0e94937f9020df3bd6203f73d24a",
          "contractAddress": null,
          "l1BaseFeeScalar": "0x44d",
          "l1BlobBaseFee": "0x1",
          "l1BlobBaseFeeScalar": "0xa118b",
          "l1Fee": "0x5579a0b53e",
          "l1GasPrice": "0x30857368d5",
          "l1GasUsed": "0x640"
        },
        {
          "status": "0x1",
          "cumulativeGasUsed": "0x443ebf",
          "logs": [],
          "logsBloom": "0x00000000000000000000000000000000000000000000000000000000000000000000000000000000000000000000000000000000000000000000000000000000000000000000000000000000000000000000000000000000000000000000000000000000000000000000000000000000000000000000000000000000000000000000000000000000000000000000000000000000000000000000000000000000000000000000000000000000000000000000000000000000000000000000000000000000000000000000000000000000000000000000000000000000000000000000000000000000000000000000000000000000000000000000000000000000",
          "type": "0x2",
          "transactionHash": "0xa491481661394f266a44cd6217cc8c3816606fc41338de9d6ea2442d3f44bd85",
          "transactionIndex": "0x25",
          "blockHash": "0x1a3ffb9fdec680253121015ea8987a4281cfdc2e07eb8f102745f464e833aaa4",
          "blockNumber": "0x15ddeac",
          "gasUsed": "0x74a4",
          "effectiveGasPrice": "0xf43b7",
          "from": "0x8454d149beb26e3e3fc5ed1c87fb0b2a1b7b6c2c",
          "to": "0x2ee92a6e9afb0e94937f9020df3bd6203f73d24a",
          "contractAddress": null,
          "l1BaseFeeScalar": "0x44d",
          "l1BlobBaseFee": "0x1",
          "l1BlobBaseFeeScalar": "0xa118b",
          "l1Fee": "0x5579a0b53e",
          "l1GasPrice": "0x30857368d5",
          "l1GasUsed": "0x640"
        },
        {
          "status": "0x1",
          "cumulativeGasUsed": "0x44b0e9",
          "logs": [],
          "logsBloom": "0x00000000000000000000000000000000000000000000000000000000000000000000000000000000000000000000000000000000000000000000000000000000000000000000000000000000000000000000000000000000000000000000000000000000000000000000000000000000000000000000000000000000000000000000000000000000000000000000000000000000000000000000000000000000000000000000000000000000000000000000000000000000000000000000000000000000000000000000000000000000000000000000000000000000000000000000000000000000000000000000000000000000000000000000000000000000",
          "type": "0x2",
          "transactionHash": "0xb0ee6b346fbd7f0f4affdb79cfc297143c3deb8815f59c7a20d505b2d397682f",
          "transactionIndex": "0x26",
          "blockHash": "0x1a3ffb9fdec680253121015ea8987a4281cfdc2e07eb8f102745f464e833aaa4",
          "blockNumber": "0x15ddeac",
          "gasUsed": "0x722a",
          "effectiveGasPrice": "0xf43b7",
          "from": "0x8454d149beb26e3e3fc5ed1c87fb0b2a1b7b6c2c",
          "to": "0x2ee92a6e9afb0e94937f9020df3bd6203f73d24a",
          "contractAddress": null,
          "l1BaseFeeScalar": "0x44d",
          "l1BlobBaseFee": "0x1",
          "l1BlobBaseFeeScalar": "0xa118b",
          "l1Fee": "0x5579a0b53e",
          "l1GasPrice": "0x30857368d5",
          "l1GasUsed": "0x640"
        },
        {
          "status": "0x1",
          "cumulativeGasUsed": "0x4522fb",
          "logs": [],
          "logsBloom": "0x00000000000000000000000000000000000000000000000000000000000000000000000000000000000000000000000000000000000000000000000000000000000000000000000000000000000000000000000000000000000000000000000000000000000000000000000000000000000000000000000000000000000000000000000000000000000000000000000000000000000000000000000000000000000000000000000000000000000000000000000000000000000000000000000000000000000000000000000000000000000000000000000000000000000000000000000000000000000000000000000000000000000000000000000000000000",
          "type": "0x2",
          "transactionHash": "0x68ea6413a0e6901d38b8cb06efa3958329b7ffa1a430d1e58369be758f6e5274",
          "transactionIndex": "0x27",
          "blockHash": "0x1a3ffb9fdec680253121015ea8987a4281cfdc2e07eb8f102745f464e833aaa4",
          "blockNumber": "0x15ddeac",
          "gasUsed": "0x7212",
          "effectiveGasPrice": "0xf43b7",
          "from": "0x8454d149beb26e3e3fc5ed1c87fb0b2a1b7b6c2c",
          "to": "0x2ee92a6e9afb0e94937f9020df3bd6203f73d24a",
          "contractAddress": null,
          "l1BaseFeeScalar": "0x44d",
          "l1BlobBaseFee": "0x1",
          "l1BlobBaseFeeScalar": "0xa118b",
          "l1Fee": "0x5579a0b53e",
          "l1GasPrice": "0x30857368d5",
          "l1GasUsed": "0x640"
        }
      ],
      "libraries": [],
      "pending": [],
      "returns": {},
      "timestamp": 1741626422,
      "chain": 84532,
      "commit": "e7988bc"
    },
    {
      "transactions": [
        {
          "hash": "0x44fb5b37a5ccb62797a7c7fe474596db4639b9f188540db6aa68eef64719712b",
          "transactionType": "CALL",
          "contractName": null,
          "contractAddress": "0x7aabff7bb12eab2afb76998c0d80928e670cb51a",
          "function": "allowlistSender(uint64,address,bool)",
          "arguments": [
            "10344971235874465080",
            "0x2ee92A6E9aFb0E94937F9020Df3bD6203F73d24A",
            "true"
          ],
          "transaction": {
            "from": "0x8454d149beb26e3e3fc5ed1c87fb0b2a1b7b6c2c",
            "to": "0x7aabff7bb12eab2afb76998c0d80928e670cb51a",
            "gas": "0xc0c9",
            "value": "0x0",
            "input": "0xf039a0090000000000000000000000000000000000000000000000008f90b8876dee65380000000000000000000000002ee92a6e9afb0e94937f9020df3bd6203f73d24a0000000000000000000000000000000000000000000000000000000000000001",
            "nonce": "0x81f",
            "chainId": "0xaa36a7"
          },
          "additionalContracts": [],
          "isFixedGasLimit": false
        },
        {
          "hash": "0x9b5082c6ba04ce50bc06e8154a0b82b7bb289025b102c12ed1fc74ad17a63041",
          "transactionType": "CALL",
          "contractName": null,
          "contractAddress": "0x7aabff7bb12eab2afb76998c0d80928e670cb51a",
          "function": "allowlistSourceChain(uint64,bool)",
          "arguments": [
            "10344971235874465080",
            "true"
          ],
          "transaction": {
            "from": "0x8454d149beb26e3e3fc5ed1c87fb0b2a1b7b6c2c",
            "to": "0x7aabff7bb12eab2afb76998c0d80928e670cb51a",
            "gas": "0xb0f9",
            "value": "0x0",
            "input": "0xdb04fa490000000000000000000000000000000000000000000000008f90b8876dee65380000000000000000000000000000000000000000000000000000000000000001",
            "nonce": "0x820",
            "chainId": "0xaa36a7"
          },
          "additionalContracts": [],
          "isFixedGasLimit": false
        },
        {
          "hash": "0x3bdfc58ecef18173a5a67b9c33277ac0729b23422812bb5732d0139bb383d352",
          "transactionType": "CALL",
          "contractName": null,
          "contractAddress": "0x7aabff7bb12eab2afb76998c0d80928e670cb51a",
          "function": "allowlistSourceChain(uint64,bool)",
          "arguments": [
            "16015286601757825753",
            "true"
          ],
          "transaction": {
            "from": "0x8454d149beb26e3e3fc5ed1c87fb0b2a1b7b6c2c",
            "to": "0x7aabff7bb12eab2afb76998c0d80928e670cb51a",
            "gas": "0xb0f9",
            "value": "0x0",
            "input": "0xdb04fa49000000000000000000000000000000000000000000000000de41ba4fc9d91ad90000000000000000000000000000000000000000000000000000000000000001",
            "nonce": "0x821",
            "chainId": "0xaa36a7"
          },
          "additionalContracts": [],
          "isFixedGasLimit": false
        },
        {
          "hash": "0xd18470720fd49f84a69308a0d83005a3da0d7159701bea145dba677f00095192",
          "transactionType": "CALL",
          "contractName": null,
          "contractAddress": "0x7aabff7bb12eab2afb76998c0d80928e670cb51a",
          "function": "allowlistDestinationChain(uint64,bool)",
          "arguments": [
            "10344971235874465080",
            "true"
          ],
          "transaction": {
            "from": "0x8454d149beb26e3e3fc5ed1c87fb0b2a1b7b6c2c",
            "to": "0x7aabff7bb12eab2afb76998c0d80928e670cb51a",
            "gas": "0xbb6f",
            "value": "0x0",
            "input": "0x96d3b83d0000000000000000000000000000000000000000000000008f90b8876dee65380000000000000000000000000000000000000000000000000000000000000001",
            "nonce": "0x822",
            "chainId": "0xaa36a7"
          },
          "additionalContracts": [],
          "isFixedGasLimit": false
        },
        {
          "hash": "0xdf5cad19789153191e15948f591355fbf804a60d914ecfac544a026bb17529db",
          "transactionType": "CALL",
          "contractName": null,
          "contractAddress": "0x360990409b6c36e1e1878079ab38e4a394f2df45",
          "function": "setGasLimitsForFunctionSelectors(bytes4[],uint256[])",
          "arguments": [
            "[0xd8a85b48]",
            "[270000]"
          ],
          "transaction": {
            "from": "0x8454d149beb26e3e3fc5ed1c87fb0b2a1b7b6c2c",
            "to": "0x360990409b6c36e1e1878079ab38e4a394f2df45",
            "gas": "0xc68c",
            "value": "0x0",
            "input": "0x3ef2d377000000000000000000000000000000000000000000000000000000000000004000000000000000000000000000000000000000000000000000000000000000800000000000000000000000000000000000000000000000000000000000000001d8a85b480000000000000000000000000000000000000000000000000000000000000000000000000000000000000000000000000000000000000000000000010000000000000000000000000000000000000000000000000000000000041eb0",
            "nonce": "0x823",
            "chainId": "0xaa36a7"
          },
          "additionalContracts": [],
          "isFixedGasLimit": false
        }
      ],
      "receipts": [
        {
          "status": "0x1",
          "cumulativeGasUsed": "0x6b0315",
          "logs": [
            {
              "address": "0x7aabff7bb12eab2afb76998c0d80928e670cb51a",
              "topics": [
                "0x7341e817a8458e8902ebedbcd9e82db8299e43de630c89ade217662e6cafe906",
                "0x0000000000000000000000000000000000000000000000008f90b8876dee6538",
                "0x0000000000000000000000002ee92a6e9afb0e94937f9020df3bd6203f73d24a"
              ],
              "data": "0x0000000000000000000000000000000000000000000000000000000000000001",
              "blockHash": "0xd36996b0f4492c74ae05d1e62d5add0287bdc05e9e89e1648c75b4c4dc9b0f32",
              "blockNumber": "0x7828f3",
              "transactionHash": "0x44fb5b37a5ccb62797a7c7fe474596db4639b9f188540db6aa68eef64719712b",
              "transactionIndex": "0xa6",
              "logIndex": "0x7c",
              "removed": false
            }
          ],
          "logsBloom": "0x00000000000000000000000000000000100000040000000000000000000000000000000000000000000000000000000000000000000000000000000000000000000000000000000000000000000000000000000400000000000000000400200000000000100000000000000000000000000000000000000000000000000000004000000040000000000000000000000000000000000000000000000000000000000000040000000000000000000000000000000000000000000000000000000000000000000000000000000000000000000000000000000000000000000000000000000000000000000020000000000000000000000001000000000000000010",
          "type": "0x2",
          "transactionHash": "0x44fb5b37a5ccb62797a7c7fe474596db4639b9f188540db6aa68eef64719712b",
          "transactionIndex": "0xa6",
          "blockHash": "0xd36996b0f4492c74ae05d1e62d5add0287bdc05e9e89e1648c75b4c4dc9b0f32",
          "blockNumber": "0x7828f3",
          "gasUsed": "0x83d2",
          "effectiveGasPrice": "0x365dd83d1d",
          "blobGasUsed": "0x0",
          "from": "0x8454d149beb26e3e3fc5ed1c87fb0b2a1b7b6c2c",
          "to": "0x7aabff7bb12eab2afb76998c0d80928e670cb51a",
          "contractAddress": null
        },
        {
          "status": "0x1",
          "cumulativeGasUsed": "0x6b8335",
          "logs": [
            {
              "address": "0x7aabff7bb12eab2afb76998c0d80928e670cb51a",
              "topics": [
                "0xa5f858f3914e62a82af355192513d8dbc618ff9815e7213a71930d8996a3cb82",
                "0x0000000000000000000000000000000000000000000000008f90b8876dee6538"
              ],
              "data": "0x0000000000000000000000000000000000000000000000000000000000000001",
              "blockHash": "0xd36996b0f4492c74ae05d1e62d5add0287bdc05e9e89e1648c75b4c4dc9b0f32",
              "blockNumber": "0x7828f3",
              "transactionHash": "0x9b5082c6ba04ce50bc06e8154a0b82b7bb289025b102c12ed1fc74ad17a63041",
              "transactionIndex": "0xa7",
              "logIndex": "0x7d",
              "removed": false
            }
          ],
          "logsBloom": "0x00000000000000000000020000000000000000000000000000000000000000000000000000000000000000000000000000000000000000000000000000000000000000000000000000000000000000000000000400000000000000000000200000000000100000000000100000000000000000000000000000000000000000004000000040000000000000000000000000000000000000000000000000000000000000040000000000000000000000000000000000000000000000000000000000000000000000000000000000000000000000000000000000000000000000000000000000000001000000000000000000000000000000000000000000000000",
          "type": "0x2",
          "transactionHash": "0x9b5082c6ba04ce50bc06e8154a0b82b7bb289025b102c12ed1fc74ad17a63041",
          "transactionIndex": "0xa7",
          "blockHash": "0xd36996b0f4492c74ae05d1e62d5add0287bdc05e9e89e1648c75b4c4dc9b0f32",
          "blockNumber": "0x7828f3",
          "gasUsed": "0x8020",
          "effectiveGasPrice": "0x365dd83d1d",
          "blobGasUsed": "0x0",
          "from": "0x8454d149beb26e3e3fc5ed1c87fb0b2a1b7b6c2c",
          "to": "0x7aabff7bb12eab2afb76998c0d80928e670cb51a",
          "contractAddress": null
        },
        {
          "status": "0x1",
          "cumulativeGasUsed": "0x6c0355",
          "logs": [
            {
              "address": "0x7aabff7bb12eab2afb76998c0d80928e670cb51a",
              "topics": [
                "0xa5f858f3914e62a82af355192513d8dbc618ff9815e7213a71930d8996a3cb82",
                "0x000000000000000000000000000000000000000000000000de41ba4fc9d91ad9"
              ],
              "data": "0x0000000000000000000000000000000000000000000000000000000000000001",
              "blockHash": "0xd36996b0f4492c74ae05d1e62d5add0287bdc05e9e89e1648c75b4c4dc9b0f32",
              "blockNumber": "0x7828f3",
              "transactionHash": "0x3bdfc58ecef18173a5a67b9c33277ac0729b23422812bb5732d0139bb383d352",
              "transactionIndex": "0xa8",
              "logIndex": "0x7e",
              "removed": false
            }
          ],
          "logsBloom": "0x00000000000000000000020000000000000000000000000000000000000000000000000000004000000000000000000000000000000000000000000000000000000000000000000000000000000000000000000000000000000000000000000000000000100000000000100000010000000000000000000000000000000000000000000040000000000000000000000000000020000000000000000000000000000000040000000000000000000000000000000000000000000000000000000000000000000000000000000000000000000000000000000000000000000000000000000000000001000000000000000000000000000000000000000000000000",
          "type": "0x2",
          "transactionHash": "0x3bdfc58ecef18173a5a67b9c33277ac0729b23422812bb5732d0139bb383d352",
          "transactionIndex": "0xa8",
          "blockHash": "0xd36996b0f4492c74ae05d1e62d5add0287bdc05e9e89e1648c75b4c4dc9b0f32",
          "blockNumber": "0x7828f3",
          "gasUsed": "0x8020",
          "effectiveGasPrice": "0x365dd83d1d",
          "blobGasUsed": "0x0",
          "from": "0x8454d149beb26e3e3fc5ed1c87fb0b2a1b7b6c2c",
          "to": "0x7aabff7bb12eab2afb76998c0d80928e670cb51a",
          "contractAddress": null
        },
        {
          "status": "0x1",
          "cumulativeGasUsed": "0x419b79",
          "logs": [
            {
              "address": "0x7aabff7bb12eab2afb76998c0d80928e670cb51a",
              "topics": [
                "0x79e93956b5c7b59cb1d0aaa5849af9993c5b994c44b148b1944f4e4ecf1e9b89",
                "0x0000000000000000000000000000000000000000000000008f90b8876dee6538"
              ],
              "data": "0x0000000000000000000000000000000000000000000000000000000000000001",
              "blockHash": "0x1166f7a48323ce79d233fdc5881f06fd0d25346c0b50da0bd3734b66e27d26ea",
              "blockNumber": "0x7828f8",
              "transactionHash": "0xd18470720fd49f84a69308a0d83005a3da0d7159701bea145dba677f00095192",
              "transactionIndex": "0x67",
              "logIndex": "0x57",
              "removed": false
            }
          ],
          "logsBloom": "0x00000000000000000000000000000000000000040000000000000000000000000000000000000000000000000000000000000000000000000000000000000000000000000000000000200000000000000000000400000000000000000000200000000000100000000000000000000000000000000000000000000000000000004000000040000000000000000000000000000000000000000000000000000000000000040000000000000000000000000000000000000000000000100000000000000000000000000000000000000000000000000000000000000000000000000000000000000000000000000000000000000000000000000000000000000000",
          "type": "0x2",
          "transactionHash": "0xd18470720fd49f84a69308a0d83005a3da0d7159701bea145dba677f00095192",
          "transactionIndex": "0x67",
          "blockHash": "0x1166f7a48323ce79d233fdc5881f06fd0d25346c0b50da0bd3734b66e27d26ea",
          "blockNumber": "0x7828f8",
          "gasUsed": "0x8029",
          "effectiveGasPrice": "0x32f0856864",
          "blobGasUsed": "0x0",
          "from": "0x8454d149beb26e3e3fc5ed1c87fb0b2a1b7b6c2c",
          "to": "0x7aabff7bb12eab2afb76998c0d80928e670cb51a",
          "contractAddress": null
        },
        {
          "status": "0x1",
          "cumulativeGasUsed": "0x42233c",
          "logs": [
            {
              "address": "0x360990409b6c36e1e1878079ab38e4a394f2df45",
              "topics": [
                "0xed4c89b805f4efb58bc4a42b9a3c6f09783f619295a1fa41ab46d6190c8c7f3b",
                "0xd8a85b4800000000000000000000000000000000000000000000000000000000",
                "0x0000000000000000000000000000000000000000000000000000000000041eb0"
              ],
              "data": "0x",
              "blockHash": "0x1166f7a48323ce79d233fdc5881f06fd0d25346c0b50da0bd3734b66e27d26ea",
              "blockNumber": "0x7828f8",
              "transactionHash": "0xdf5cad19789153191e15948f591355fbf804a60d914ecfac544a026bb17529db",
              "transactionIndex": "0x68",
              "logIndex": "0x58",
              "removed": false
            }
          ],
          "logsBloom": "0x00000000000000000040000000000000000000000800000000000000000080000000000000000000000000000000000000000000000000000000000000000000000000200000000008000000000000000000000000800000000000000000000000000000000000000000000000000000800000000000040000000000000000000000000000000000000000001000000000000000000000000000000000000000000000000000000000010000100000000000000000000000000000000000000000000000000000000000000800000000000000000000000000000000000000000000000000000000000000000000000000000000000000000000000000000000",
          "type": "0x2",
          "transactionHash": "0xdf5cad19789153191e15948f591355fbf804a60d914ecfac544a026bb17529db",
          "transactionIndex": "0x68",
          "blockHash": "0x1166f7a48323ce79d233fdc5881f06fd0d25346c0b50da0bd3734b66e27d26ea",
          "blockNumber": "0x7828f8",
          "gasUsed": "0x87c3",
          "effectiveGasPrice": "0x32f0856864",
          "blobGasUsed": "0x0",
          "from": "0x8454d149beb26e3e3fc5ed1c87fb0b2a1b7b6c2c",
          "to": "0x360990409b6c36e1e1878079ab38e4a394f2df45",
          "contractAddress": null
        }
      ],
      "libraries": [],
      "pending": [],
      "returns": {},
      "timestamp": 1741626422,
      "chain": 11155111,
      "commit": "e7988bc"
    }
  ],
  "timestamp": 1741626493
}