{
  "deployments": [
    {
      "transactions": [
        {
          "hash": "0x4bc3c4f2a246338982dd1818b94396a8498af75122a7e3e58e16e567c6665e93",
          "transactionType": "CALL",
          "contractName": null,
          "contractAddress": "0x5bab4f00c7f3b3ece472f1538064c69d0a7cbd25",
          "function": "allowlistSender(address,bool)",
          "arguments": [
            "0xad06bDA5366c78946106A32aB64ecb53c597048a",
            "true"
          ],
          "transaction": {
            "from": "0x8454d149beb26e3e3fc5ed1c87fb0b2a1b7b6c2c",
            "to": "0x5bab4f00c7f3b3ece472f1538064c69d0a7cbd25",
            "gas": "0x13300",
            "value": "0x0",
            "input": "0xeab5b02c000000000000000000000000ad06bda5366c78946106a32ab64ecb53c597048a0000000000000000000000000000000000000000000000000000000000000001",
            "nonce": "0x37c",
            "chainId": "0x14a34"
          },
          "additionalContracts": [],
          "isFixedGasLimit": false
        },
        {
          "hash": "0x3c9d5e98811c04fa154feda72337cd514b0674c9867fd6ac15c2964a24986b81",
          "transactionType": "CALL",
          "contractName": null,
          "contractAddress": "0x5bab4f00c7f3b3ece472f1538064c69d0a7cbd25",
          "function": "allowlistSourceChain(uint64,bool)",
          "arguments": [
            "10344971235874465080",
            "true"
          ],
          "transaction": {
            "from": "0x8454d149beb26e3e3fc5ed1c87fb0b2a1b7b6c2c",
            "to": "0x5bab4f00c7f3b3ece472f1538064c69d0a7cbd25",
            "gas": "0x120f7",
            "value": "0x0",
            "input": "0xdb04fa490000000000000000000000000000000000000000000000008f90b8876dee65380000000000000000000000000000000000000000000000000000000000000001",
            "nonce": "0x37d",
            "chainId": "0x14a34"
          },
          "additionalContracts": [],
          "isFixedGasLimit": false
        },
        {
          "hash": "0x14d35e94c576dc83f854b8c62ab8e34538f70a43bb18275e449bb5418f5d4f2a",
          "transactionType": "CALL",
          "contractName": null,
          "contractAddress": "0x5bab4f00c7f3b3ece472f1538064c69d0a7cbd25",
          "function": "allowlistDestinationChain(uint64,bool)",
          "arguments": [
            "16015286601757825753",
            "true"
          ],
          "transaction": {
            "from": "0x8454d149beb26e3e3fc5ed1c87fb0b2a1b7b6c2c",
            "to": "0x5bab4f00c7f3b3ece472f1538064c69d0a7cbd25",
            "gas": "0xb5b8",
            "value": "0x0",
            "input": "0x96d3b83d000000000000000000000000000000000000000000000000de41ba4fc9d91ad90000000000000000000000000000000000000000000000000000000000000001",
            "nonce": "0x37e",
            "chainId": "0x14a34"
          },
          "additionalContracts": [],
          "isFixedGasLimit": false
        },
        {
          "hash": "0x9fbace03d6ee04d60af3ee1f4f76eb80bde23fb907f5dd90ea1fcd57d36a12a5",
          "transactionType": "CALL",
          "contractName": null,
          "contractAddress": "0xba05418ca701a5913ff04ff9470138ab0f891230",
          "function": "setGasLimitsForFunctionSelectors(bytes4[],uint256[])",
          "arguments": [
            "[0xe7a050aa, 0xcc15a557, 0x0dd8dd02, 0x60d7faed, 0xeea9064b, 0xda8be864]",
            "[2100000, 700000, 580000, 840000, 650000, 400000]"
          ],
          "transaction": {
            "from": "0x8454d149beb26e3e3fc5ed1c87fb0b2a1b7b6c2c",
            "to": "0xba05418ca701a5913ff04ff9470138ab0f891230",
            "gas": "0x182b1",
            "value": "0x0",
            "input": "0x3ef2d377000000000000000000000000000000000000000000000000000000000000004000000000000000000000000000000000000000000000000000000000000001200000000000000000000000000000000000000000000000000000000000000006e7a050aa00000000000000000000000000000000000000000000000000000000cc15a557000000000000000000000000000000000000000000000000000000000dd8dd020000000000000000000000000000000000000000000000000000000060d7faed00000000000000000000000000000000000000000000000000000000eea9064b00000000000000000000000000000000000000000000000000000000da8be8640000000000000000000000000000000000000000000000000000000000000000000000000000000000000000000000000000000000000000000000060000000000000000000000000000000000000000000000000000000000200b2000000000000000000000000000000000000000000000000000000000000aae60000000000000000000000000000000000000000000000000000000000008d9a000000000000000000000000000000000000000000000000000000000000cd140000000000000000000000000000000000000000000000000000000000009eb100000000000000000000000000000000000000000000000000000000000061a80",
            "nonce": "0x37f",
            "chainId": "0x14a34"
          },
          "additionalContracts": [],
          "isFixedGasLimit": false
        },
        {
          "hash": "0xc0470e611e7b7b06e1474e1f719a1c01dbd1f836e1354bf8d83844654374cb93",
          "transactionType": "CALL",
          "contractName": null,
          "contractAddress": "0xba05418ca701a5913ff04ff9470138ab0f891230",
          "function": "setSenderCCIP(address)",
          "arguments": [
            "0x5bAB4f00C7F3b3EcE472f1538064c69d0A7Cbd25"
          ],
          "transaction": {
            "from": "0x8454d149beb26e3e3fc5ed1c87fb0b2a1b7b6c2c",
            "to": "0xba05418ca701a5913ff04ff9470138ab0f891230",
            "gas": "0xbfa3",
            "value": "0x0",
            "input": "0xd8d6c31a0000000000000000000000005bab4f00c7f3b3ece472f1538064c69d0a7cbd25",
            "nonce": "0x380",
            "chainId": "0x14a34"
          },
          "additionalContracts": [],
          "isFixedGasLimit": false
        },
        {
          "hash": "0x609b16cf3f93c7c7fc7b549182710d72796c58a7504bd93f1db2fca3b4ffbf4f",
          "transactionType": "CALL",
          "contractName": null,
          "contractAddress": "0x5bab4f00c7f3b3ece472f1538064c69d0a7cbd25",
          "function": "getSenderHooks()",
          "arguments": [],
          "transaction": {
            "from": "0x8454d149beb26e3e3fc5ed1c87fb0b2a1b7b6c2c",
            "to": "0x5bab4f00c7f3b3ece472f1538064c69d0a7cbd25",
            "gas": "0xa5f1",
            "value": "0x0",
            "input": "0xe09df825",
            "nonce": "0x381",
            "chainId": "0x14a34"
          },
          "additionalContracts": [],
          "isFixedGasLimit": false
        },
        {
          "hash": "0x20ac913f18b720dd6f71e41ddc8ffff77463d6175c8266f7b5e31841734675d9",
          "transactionType": "CALL",
          "contractName": null,
          "contractAddress": "0x5bab4f00c7f3b3ece472f1538064c69d0a7cbd25",
          "function": "allowlistedSenders(address)",
          "arguments": [
            "0xad06bDA5366c78946106A32aB64ecb53c597048a"
          ],
          "transaction": {
            "from": "0x8454d149beb26e3e3fc5ed1c87fb0b2a1b7b6c2c",
            "to": "0x5bab4f00c7f3b3ece472f1538064c69d0a7cbd25",
            "gas": "0xb2c0",
            "value": "0x0",
            "input": "0x6159ada1000000000000000000000000ad06bda5366c78946106a32ab64ecb53c597048a",
            "nonce": "0x382",
            "chainId": "0x14a34"
          },
          "additionalContracts": [],
          "isFixedGasLimit": false
        },
        {
          "hash": "0x3228ed2ffe8a79179b77c7f182f8c384d36a535b0ea769267eca6b257330ccce",
          "transactionType": "CALL",
          "contractName": null,
          "contractAddress": "0x5bab4f00c7f3b3ece472f1538064c69d0a7cbd25",
          "function": "allowlistedSourceChains(uint64)",
          "arguments": [
            "16015286601757825753"
          ],
          "transaction": {
            "from": "0x8454d149beb26e3e3fc5ed1c87fb0b2a1b7b6c2c",
            "to": "0x5bab4f00c7f3b3ece472f1538064c69d0a7cbd25",
            "gas": "0xa850",
            "value": "0x0",
            "input": "0x4030d521000000000000000000000000000000000000000000000000de41ba4fc9d91ad9",
            "nonce": "0x383",
            "chainId": "0x14a34"
          },
          "additionalContracts": [],
          "isFixedGasLimit": false
        },
        {
          "hash": "0xf26815e949515e152d527708839870a71decdc8f9dfa0178de31c3adb8b1979d",
          "transactionType": "CALL",
          "contractName": null,
          "contractAddress": "0x5bab4f00c7f3b3ece472f1538064c69d0a7cbd25",
          "function": "allowlistedDestinationChains(uint64)",
          "arguments": [
            "16015286601757825753"
          ],
          "transaction": {
            "from": "0x8454d149beb26e3e3fc5ed1c87fb0b2a1b7b6c2c",
            "to": "0x5bab4f00c7f3b3ece472f1538064c69d0a7cbd25",
            "gas": "0xb236",
            "value": "0x0",
            "input": "0x75c67c66000000000000000000000000000000000000000000000000de41ba4fc9d91ad9",
            "nonce": "0x384",
            "chainId": "0x14a34"
          },
          "additionalContracts": [],
          "isFixedGasLimit": false
        }
      ],
      "receipts": [
        {
          "status": "0x1",
          "cumulativeGasUsed": "0x79dda3",
          "logs": [],
          "logsBloom": "0x00000000000000000000000000000000000000000000000000000000000000000000000000000000000000000000000000000000000000000000000000000000000000000000000000000000000000000000000000000000000000000000000000000000000000000000000000000000000000000000000000000000000000000000000000000000000000000000000000000000000000000000000000000000000000000000000000000000000000000000000000000000000000000000000000000000000000000000000000000000000000000000000000000000000000000000000000000000000000000000000000000000000000000000000000000000",
          "type": "0x2",
          "transactionHash": "0x4bc3c4f2a246338982dd1818b94396a8498af75122a7e3e58e16e567c6665e93",
          "transactionIndex": "0xe",
          "blockHash": "0xbd28267decf7ac055fd100137f0ca637345ea20b0bf617c79c5692c67ec4e411",
          "blockNumber": "0xe6a7ce",
          "gasUsed": "0xd1eb",
          "effectiveGasPrice": "0x2a4874",
          "from": "0x8454d149beb26e3e3fc5ed1c87fb0b2a1b7b6c2c",
          "to": "0x5bab4f00c7f3b3ece472f1538064c69d0a7cbd25",
          "contractAddress": null,
          "l1BaseFeeScalar": "0x44d",
          "l1BlobBaseFee": "0xad2e16dd",
          "l1BlobBaseFeeScalar": "0xa118b",
          "l1Fee": "0x2cb18ee11d",
          "l1GasPrice": "0x817bb5b",
          "l1GasUsed": "0x640"
        },
        {
          "status": "0x1",
          "cumulativeGasUsed": "0x7aaed8",
          "logs": [],
          "logsBloom": "0x00000000000000000000000000000000000000000000000000000000000000000000000000000000000000000000000000000000000000000000000000000000000000000000000000000000000000000000000000000000000000000000000000000000000000000000000000000000000000000000000000000000000000000000000000000000000000000000000000000000000000000000000000000000000000000000000000000000000000000000000000000000000000000000000000000000000000000000000000000000000000000000000000000000000000000000000000000000000000000000000000000000000000000000000000000000",
          "type": "0x2",
          "transactionHash": "0x3c9d5e98811c04fa154feda72337cd514b0674c9867fd6ac15c2964a24986b81",
          "transactionIndex": "0xf",
          "blockHash": "0xbd28267decf7ac055fd100137f0ca637345ea20b0bf617c79c5692c67ec4e411",
          "blockNumber": "0xe6a7ce",
          "gasUsed": "0xd135",
          "effectiveGasPrice": "0x2a4874",
          "from": "0x8454d149beb26e3e3fc5ed1c87fb0b2a1b7b6c2c",
          "to": "0x5bab4f00c7f3b3ece472f1538064c69d0a7cbd25",
          "contractAddress": null,
          "l1BaseFeeScalar": "0x44d",
          "l1BlobBaseFee": "0xad2e16dd",
          "l1BlobBaseFeeScalar": "0xa118b",
          "l1Fee": "0x2cb18ee11d",
          "l1GasPrice": "0x817bb5b",
          "l1GasUsed": "0x640"
        },
        {
          "status": "0x1",
          "cumulativeGasUsed": "0x7b3268",
          "logs": [],
          "logsBloom": "0x00000000000000000000000000000000000000000000000000000000000000000000000000000000000000000000000000000000000000000000000000000000000000000000000000000000000000000000000000000000000000000000000000000000000000000000000000000000000000000000000000000000000000000000000000000000000000000000000000000000000000000000000000000000000000000000000000000000000000000000000000000000000000000000000000000000000000000000000000000000000000000000000000000000000000000000000000000000000000000000000000000000000000000000000000000000",
          "type": "0x2",
          "transactionHash": "0x14d35e94c576dc83f854b8c62ab8e34538f70a43bb18275e449bb5418f5d4f2a",
          "transactionIndex": "0x10",
          "blockHash": "0xbd28267decf7ac055fd100137f0ca637345ea20b0bf617c79c5692c67ec4e411",
          "blockNumber": "0xe6a7ce",
          "gasUsed": "0x8390",
          "effectiveGasPrice": "0x2a4874",
          "from": "0x8454d149beb26e3e3fc5ed1c87fb0b2a1b7b6c2c",
          "to": "0x5bab4f00c7f3b3ece472f1538064c69d0a7cbd25",
          "contractAddress": null,
          "l1BaseFeeScalar": "0x44d",
          "l1BlobBaseFee": "0xad2e16dd",
          "l1BlobBaseFeeScalar": "0xa118b",
          "l1Fee": "0x2cb18ee11d",
          "l1GasPrice": "0x817bb5b",
          "l1GasUsed": "0x640"
        },
        {
          "status": "0x1",
          "cumulativeGasUsed": "0x7c4a5e",
          "logs": [
            {
              "address": "0xba05418ca701a5913ff04ff9470138ab0f891230",
              "topics": [
                "0xed4c89b805f4efb58bc4a42b9a3c6f09783f619295a1fa41ab46d6190c8c7f3b",
                "0xe7a050aa00000000000000000000000000000000000000000000000000000000",
                "0x0000000000000000000000000000000000000000000000000000000000200b20"
              ],
              "data": "0x",
              "blockHash": "0xbd28267decf7ac055fd100137f0ca637345ea20b0bf617c79c5692c67ec4e411",
              "blockNumber": "0xe6a7ce",
              "transactionHash": "0x9fbace03d6ee04d60af3ee1f4f76eb80bde23fb907f5dd90ea1fcd57d36a12a5",
              "transactionIndex": "0x11",
              "logIndex": "0x3c",
              "removed": false
            },
            {
              "address": "0xba05418ca701a5913ff04ff9470138ab0f891230",
              "topics": [
                "0xed4c89b805f4efb58bc4a42b9a3c6f09783f619295a1fa41ab46d6190c8c7f3b",
                "0xcc15a55700000000000000000000000000000000000000000000000000000000",
                "0x00000000000000000000000000000000000000000000000000000000000aae60"
              ],
              "data": "0x",
              "blockHash": "0xbd28267decf7ac055fd100137f0ca637345ea20b0bf617c79c5692c67ec4e411",
              "blockNumber": "0xe6a7ce",
              "transactionHash": "0x9fbace03d6ee04d60af3ee1f4f76eb80bde23fb907f5dd90ea1fcd57d36a12a5",
              "transactionIndex": "0x11",
              "logIndex": "0x3d",
              "removed": false
            },
            {
              "address": "0xba05418ca701a5913ff04ff9470138ab0f891230",
              "topics": [
                "0xed4c89b805f4efb58bc4a42b9a3c6f09783f619295a1fa41ab46d6190c8c7f3b",
                "0x0dd8dd0200000000000000000000000000000000000000000000000000000000",
                "0x000000000000000000000000000000000000000000000000000000000008d9a0"
              ],
              "data": "0x",
              "blockHash": "0xbd28267decf7ac055fd100137f0ca637345ea20b0bf617c79c5692c67ec4e411",
              "blockNumber": "0xe6a7ce",
              "transactionHash": "0x9fbace03d6ee04d60af3ee1f4f76eb80bde23fb907f5dd90ea1fcd57d36a12a5",
              "transactionIndex": "0x11",
              "logIndex": "0x3e",
              "removed": false
            },
            {
              "address": "0xba05418ca701a5913ff04ff9470138ab0f891230",
              "topics": [
                "0xed4c89b805f4efb58bc4a42b9a3c6f09783f619295a1fa41ab46d6190c8c7f3b",
                "0x60d7faed00000000000000000000000000000000000000000000000000000000",
                "0x00000000000000000000000000000000000000000000000000000000000cd140"
              ],
              "data": "0x",
              "blockHash": "0xbd28267decf7ac055fd100137f0ca637345ea20b0bf617c79c5692c67ec4e411",
              "blockNumber": "0xe6a7ce",
              "transactionHash": "0x9fbace03d6ee04d60af3ee1f4f76eb80bde23fb907f5dd90ea1fcd57d36a12a5",
              "transactionIndex": "0x11",
              "logIndex": "0x3f",
              "removed": false
            },
            {
              "address": "0xba05418ca701a5913ff04ff9470138ab0f891230",
              "topics": [
                "0xed4c89b805f4efb58bc4a42b9a3c6f09783f619295a1fa41ab46d6190c8c7f3b",
                "0xeea9064b00000000000000000000000000000000000000000000000000000000",
                "0x000000000000000000000000000000000000000000000000000000000009eb10"
              ],
              "data": "0x",
              "blockHash": "0xbd28267decf7ac055fd100137f0ca637345ea20b0bf617c79c5692c67ec4e411",
              "blockNumber": "0xe6a7ce",
              "transactionHash": "0x9fbace03d6ee04d60af3ee1f4f76eb80bde23fb907f5dd90ea1fcd57d36a12a5",
              "transactionIndex": "0x11",
              "logIndex": "0x40",
              "removed": false
            },
            {
              "address": "0xba05418ca701a5913ff04ff9470138ab0f891230",
              "topics": [
                "0xed4c89b805f4efb58bc4a42b9a3c6f09783f619295a1fa41ab46d6190c8c7f3b",
                "0xda8be86400000000000000000000000000000000000000000000000000000000",
                "0x0000000000000000000000000000000000000000000000000000000000061a80"
              ],
              "data": "0x",
              "blockHash": "0xbd28267decf7ac055fd100137f0ca637345ea20b0bf617c79c5692c67ec4e411",
              "blockNumber": "0xe6a7ce",
              "transactionHash": "0x9fbace03d6ee04d60af3ee1f4f76eb80bde23fb907f5dd90ea1fcd57d36a12a5",
              "transactionIndex": "0x11",
              "logIndex": "0x41",
              "removed": false
            }
          ],
          "logsBloom": "0x00000000000000000040000000000000000000002800000000000000004000000000000000000000000800000040000008000000200000000000000008000010000000000400000040000000000000040002000000000000080000000000000000000010000000000000000000000004818000000002000000000000000001040000110000800000000000000000000000000000000000000004000000000000000000000000000008000000002000000000000008000000200000000000400500000000000000000008001000000000000000000000100040100000000000004000000000000000000000000000000000800000000000000000010000000000",
          "type": "0x2",
          "transactionHash": "0x9fbace03d6ee04d60af3ee1f4f76eb80bde23fb907f5dd90ea1fcd57d36a12a5",
          "transactionIndex": "0x11",
          "blockHash": "0xbd28267decf7ac055fd100137f0ca637345ea20b0bf617c79c5692c67ec4e411",
          "blockNumber": "0xe6a7ce",
          "gasUsed": "0x117f6",
          "effectiveGasPrice": "0x2a4874",
          "from": "0x8454d149beb26e3e3fc5ed1c87fb0b2a1b7b6c2c",
          "to": "0xba05418ca701a5913ff04ff9470138ab0f891230",
          "contractAddress": null,
          "l1BaseFeeScalar": "0x44d",
          "l1BlobBaseFee": "0xad2e16dd",
          "l1BlobBaseFeeScalar": "0xa118b",
          "l1Fee": "0x47d0bde762",
          "l1GasPrice": "0x817bb5b",
          "l1GasUsed": "0xa0a"
        },
        {
          "status": "0x1",
          "cumulativeGasUsed": "0x7ccd67",
          "logs": [],
          "logsBloom": "0x00000000000000000000000000000000000000000000000000000000000000000000000000000000000000000000000000000000000000000000000000000000000000000000000000000000000000000000000000000000000000000000000000000000000000000000000000000000000000000000000000000000000000000000000000000000000000000000000000000000000000000000000000000000000000000000000000000000000000000000000000000000000000000000000000000000000000000000000000000000000000000000000000000000000000000000000000000000000000000000000000000000000000000000000000000000",
          "type": "0x2",
          "transactionHash": "0xc0470e611e7b7b06e1474e1f719a1c01dbd1f836e1354bf8d83844654374cb93",
          "transactionIndex": "0x12",
          "blockHash": "0xbd28267decf7ac055fd100137f0ca637345ea20b0bf617c79c5692c67ec4e411",
          "blockNumber": "0xe6a7ce",
          "gasUsed": "0x8309",
          "effectiveGasPrice": "0x2a4874",
          "from": "0x8454d149beb26e3e3fc5ed1c87fb0b2a1b7b6c2c",
          "to": "0xba05418ca701a5913ff04ff9470138ab0f891230",
          "contractAddress": null,
          "l1BaseFeeScalar": "0x44d",
          "l1BlobBaseFee": "0xad2e16dd",
          "l1BlobBaseFeeScalar": "0xa118b",
          "l1Fee": "0x2cb18ee11d",
          "l1GasPrice": "0x817bb5b",
          "l1GasUsed": "0x640"
        },
        {
          "status": "0x1",
          "cumulativeGasUsed": "0x7d458b",
          "logs": [],
          "logsBloom": "0x00000000000000000000000000000000000000000000000000000000000000000000000000000000000000000000000000000000000000000000000000000000000000000000000000000000000000000000000000000000000000000000000000000000000000000000000000000000000000000000000000000000000000000000000000000000000000000000000000000000000000000000000000000000000000000000000000000000000000000000000000000000000000000000000000000000000000000000000000000000000000000000000000000000000000000000000000000000000000000000000000000000000000000000000000000000",
          "type": "0x2",
          "transactionHash": "0x609b16cf3f93c7c7fc7b549182710d72796c58a7504bd93f1db2fca3b4ffbf4f",
          "transactionIndex": "0x13",
          "blockHash": "0xbd28267decf7ac055fd100137f0ca637345ea20b0bf617c79c5692c67ec4e411",
          "blockNumber": "0xe6a7ce",
          "gasUsed": "0x7824",
          "effectiveGasPrice": "0x2a4874",
          "from": "0x8454d149beb26e3e3fc5ed1c87fb0b2a1b7b6c2c",
          "to": "0x5bab4f00c7f3b3ece472f1538064c69d0a7cbd25",
          "contractAddress": null,
          "l1BaseFeeScalar": "0x44d",
          "l1BlobBaseFee": "0xad2e16dd",
          "l1BlobBaseFeeScalar": "0xa118b",
          "l1Fee": "0x2cb18ee11d",
          "l1GasPrice": "0x817bb5b",
          "l1GasUsed": "0x640"
        },
        {
          "status": "0x1",
          "cumulativeGasUsed": "0x7dbfc4",
          "logs": [],
          "logsBloom": "0x00000000000000000000000000000000000000000000000000000000000000000000000000000000000000000000000000000000000000000000000000000000000000000000000000000000000000000000000000000000000000000000000000000000000000000000000000000000000000000000000000000000000000000000000000000000000000000000000000000000000000000000000000000000000000000000000000000000000000000000000000000000000000000000000000000000000000000000000000000000000000000000000000000000000000000000000000000000000000000000000000000000000000000000000000000000",
          "type": "0x2",
          "transactionHash": "0x20ac913f18b720dd6f71e41ddc8ffff77463d6175c8266f7b5e31841734675d9",
          "transactionIndex": "0x14",
          "blockHash": "0xbd28267decf7ac055fd100137f0ca637345ea20b0bf617c79c5692c67ec4e411",
          "blockNumber": "0xe6a7ce",
          "gasUsed": "0x7a39",
          "effectiveGasPrice": "0x2a4874",
          "from": "0x8454d149beb26e3e3fc5ed1c87fb0b2a1b7b6c2c",
          "to": "0x5bab4f00c7f3b3ece472f1538064c69d0a7cbd25",
          "contractAddress": null,
          "l1BaseFeeScalar": "0x44d",
          "l1BlobBaseFee": "0xad2e16dd",
          "l1BlobBaseFeeScalar": "0xa118b",
          "l1Fee": "0x2cb18ee11d",
          "l1GasPrice": "0x817bb5b",
          "l1GasUsed": "0x640"
        },
        {
          "status": "0x1",
          "cumulativeGasUsed": "0x7e39a0",
          "logs": [],
          "logsBloom": "0x00000000000000000000000000000000000000000000000000000000000000000000000000000000000000000000000000000000000000000000000000000000000000000000000000000000000000000000000000000000000000000000000000000000000000000000000000000000000000000000000000000000000000000000000000000000000000000000000000000000000000000000000000000000000000000000000000000000000000000000000000000000000000000000000000000000000000000000000000000000000000000000000000000000000000000000000000000000000000000000000000000000000000000000000000000000",
          "type": "0x2",
          "transactionHash": "0x3228ed2ffe8a79179b77c7f182f8c384d36a535b0ea769267eca6b257330ccce",
          "transactionIndex": "0x15",
          "blockHash": "0xbd28267decf7ac055fd100137f0ca637345ea20b0bf617c79c5692c67ec4e411",
          "blockNumber": "0xe6a7ce",
          "gasUsed": "0x79dc",
          "effectiveGasPrice": "0x2a4874",
          "from": "0x8454d149beb26e3e3fc5ed1c87fb0b2a1b7b6c2c",
          "to": "0x5bab4f00c7f3b3ece472f1538064c69d0a7cbd25",
          "contractAddress": null,
          "l1BaseFeeScalar": "0x44d",
          "l1BlobBaseFee": "0xad2e16dd",
          "l1BlobBaseFeeScalar": "0xa118b",
          "l1Fee": "0x2cb18ee11d",
          "l1GasPrice": "0x817bb5b",
          "l1GasUsed": "0x640"
        },
        {
          "status": "0x1",
          "cumulativeGasUsed": "0x7eb37b",
          "logs": [],
          "logsBloom": "0x00000000000000000000000000000000000000000000000000000000000000000000000000000000000000000000000000000000000000000000000000000000000000000000000000000000000000000000000000000000000000000000000000000000000000000000000000000000000000000000000000000000000000000000000000000000000000000000000000000000000000000000000000000000000000000000000000000000000000000000000000000000000000000000000000000000000000000000000000000000000000000000000000000000000000000000000000000000000000000000000000000000000000000000000000000000",
          "type": "0x2",
          "transactionHash": "0xf26815e949515e152d527708839870a71decdc8f9dfa0178de31c3adb8b1979d",
          "transactionIndex": "0x16",
          "blockHash": "0xbd28267decf7ac055fd100137f0ca637345ea20b0bf617c79c5692c67ec4e411",
          "blockNumber": "0xe6a7ce",
          "gasUsed": "0x79db",
          "effectiveGasPrice": "0x2a4874",
          "from": "0x8454d149beb26e3e3fc5ed1c87fb0b2a1b7b6c2c",
          "to": "0x5bab4f00c7f3b3ece472f1538064c69d0a7cbd25",
          "contractAddress": null,
          "l1BaseFeeScalar": "0x44d",
          "l1BlobBaseFee": "0xad2e16dd",
          "l1BlobBaseFeeScalar": "0xa118b",
          "l1Fee": "0x2cb18ee11d",
          "l1GasPrice": "0x817bb5b",
          "l1GasUsed": "0x640"
        }
      ],
      "libraries": [],
      "pending": [],
      "returns": {},
      "timestamp": 1726000757,
      "chain": 84532,
      "commit": "47f606f"
    },
    {
      "transactions": [
        {
          "hash": "0xd5a9f102ba98e8a8e2373e16f85f3e30935bd1c0f04547f6eb915e69f4925c65",
          "transactionType": "CALL",
          "contractName": null,
          "contractAddress": "0xad06bda5366c78946106a32ab64ecb53c597048a",
          "function": "allowlistSender(address,bool)",
          "arguments": [
            "0x5bAB4f00C7F3b3EcE472f1538064c69d0A7Cbd25",
            "true"
          ],
          "transaction": {
            "from": "0x8454d149beb26e3e3fc5ed1c87fb0b2a1b7b6c2c",
            "to": "0xad06bda5366c78946106a32ab64ecb53c597048a",
            "gas": "0xb664",
            "value": "0x0",
            "input": "0xeab5b02c0000000000000000000000005bab4f00c7f3b3ece472f1538064c69d0a7cbd250000000000000000000000000000000000000000000000000000000000000001",
            "nonce": "0x5bf",
            "chainId": "0xaa36a7"
          },
          "additionalContracts": [],
          "isFixedGasLimit": false
        },
        {
          "hash": "0xc3ffa08214d5e5e7ece26ab70d9ae5117ebe4f92e917292dd9d75e22606597ae",
          "transactionType": "CALL",
          "contractName": null,
          "contractAddress": "0xad06bda5366c78946106a32ab64ecb53c597048a",
          "function": "allowlistSourceChain(uint64,bool)",
          "arguments": [
            "10344971235874465080",
            "true"
          ],
          "transaction": {
            "from": "0x8454d149beb26e3e3fc5ed1c87fb0b2a1b7b6c2c",
            "to": "0xad06bda5366c78946106a32ab64ecb53c597048a",
            "gas": "0xc047",
            "value": "0x0",
            "input": "0xdb04fa490000000000000000000000000000000000000000000000008f90b8876dee65380000000000000000000000000000000000000000000000000000000000000001",
            "nonce": "0x5c0",
            "chainId": "0xaa36a7"
          },
          "additionalContracts": [],
          "isFixedGasLimit": false
        },
        {
          "hash": "0xb60a07287aac0cc8b4967cb0488620a38fc26989d9ec7faccc501cac96f6de93",
          "transactionType": "CALL",
          "contractName": null,
          "contractAddress": "0xad06bda5366c78946106a32ab64ecb53c597048a",
          "function": "allowlistSourceChain(uint64,bool)",
          "arguments": [
            "16015286601757825753",
            "true"
          ],
          "transaction": {
            "from": "0x8454d149beb26e3e3fc5ed1c87fb0b2a1b7b6c2c",
            "to": "0xad06bda5366c78946106a32ab64ecb53c597048a",
            "gas": "0xc047",
            "value": "0x0",
            "input": "0xdb04fa49000000000000000000000000000000000000000000000000de41ba4fc9d91ad90000000000000000000000000000000000000000000000000000000000000001",
            "nonce": "0x5c1",
            "chainId": "0xaa36a7"
          },
          "additionalContracts": [],
          "isFixedGasLimit": false
        },
        {
          "hash": "0x73cdc697b6856d8cddeeb121c3cea4d78e8a6d2791040532f2da34efebe2406f",
          "transactionType": "CALL",
          "contractName": null,
          "contractAddress": "0xad06bda5366c78946106a32ab64ecb53c597048a",
          "function": "allowlistDestinationChain(uint64,bool)",
          "arguments": [
            "10344971235874465080",
            "true"
          ],
          "transaction": {
            "from": "0x8454d149beb26e3e3fc5ed1c87fb0b2a1b7b6c2c",
            "to": "0xad06bda5366c78946106a32ab64ecb53c597048a",
            "gas": "0xc0c9",
            "value": "0x0",
            "input": "0x96d3b83d0000000000000000000000000000000000000000000000008f90b8876dee65380000000000000000000000000000000000000000000000000000000000000001",
            "nonce": "0x5c2",
            "chainId": "0xaa36a7"
          },
          "additionalContracts": [],
          "isFixedGasLimit": false
        },
        {
          "hash": "0xa23280118aa63abc3136c3e75d24fdca99fe382bf345d1a1539d480cb27f8553",
          "transactionType": "CALL",
          "contractName": null,
          "contractAddress": "0xc4a5ec1ae991a46f46cf0c3f9e8b76b06a09fbd8",
          "function": "setGasLimitsForFunctionSelectors(bytes4[],uint256[])",
          "arguments": [
            "[0xd8a85b48]",
            "[295000]"
          ],
          "transaction": {
            "from": "0x8454d149beb26e3e3fc5ed1c87fb0b2a1b7b6c2c",
            "to": "0xc4a5ec1ae991a46f46cf0c3f9e8b76b06a09fbd8",
            "gas": "0xd752",
            "value": "0x0",
            "input": "0x3ef2d377000000000000000000000000000000000000000000000000000000000000004000000000000000000000000000000000000000000000000000000000000000800000000000000000000000000000000000000000000000000000000000000001d8a85b480000000000000000000000000000000000000000000000000000000000000000000000000000000000000000000000000000000000000000000000010000000000000000000000000000000000000000000000000000000000048058",
            "nonce": "0x5c3",
            "chainId": "0xaa36a7"
          },
          "additionalContracts": [],
          "isFixedGasLimit": false
        },
        {
          "hash": "0x92fcd3df654c41df3f787e234678271c3fb3daaff590bf7fb36ea0c49b0ab6c9",
          "transactionType": "CALL",
          "contractName": null,
          "contractAddress": "0xfc2704c42a2eefff016c0244dab3bdad24c5c889",
          "function": "getAgentFactory()",
          "arguments": [],
          "transaction": {
            "from": "0x8454d149beb26e3e3fc5ed1c87fb0b2a1b7b6c2c",
            "to": "0xfc2704c42a2eefff016c0244dab3bdad24c5c889",
            "gas": "0xafd4",
            "value": "0x0",
            "input": "0xf3b372de",
            "nonce": "0x5c4",
            "chainId": "0xaa36a7"
          },
          "additionalContracts": [],
          "isFixedGasLimit": false
        }
      ],
      "receipts": [
        {
          "status": "0x1",
          "cumulativeGasUsed": "0x16de6fc",
          "logs": [],
          "logsBloom": "0x00000000000000000000000000000000000000000000000000000000000000000000000000000000000000000000000000000000000000000000000000000000000000000000000000000000000000000000000000000000000000000000000000000000000000000000000000000000000000000000000000000000000000000000000000000000000000000000000000000000000000000000000000000000000000000000000000000000000000000000000000000000000000000000000000000000000000000000000000000000000000000000000000000000000000000000000000000000000000000000000000000000000000000000000000000000",
          "type": "0x2",
          "transactionHash": "0xd5a9f102ba98e8a8e2373e16f85f3e30935bd1c0f04547f6eb915e69f4925c65",
          "transactionIndex": "0x9f",
          "blockHash": "0x5b027eb889e8e1a8f0af7f565dbb0c8a6b25c91ef0aeb6974b9ecaa8ee30a90e",
          "blockNumber": "0x65c0d8",
          "gasUsed": "0x840d",
          "effectiveGasPrice": "0xbe09da3",
          "from": "0x8454d149beb26e3e3fc5ed1c87fb0b2a1b7b6c2c",
          "to": "0xad06bda5366c78946106a32ab64ecb53c597048a",
          "contractAddress": null
        },
        {
          "status": "0x1",
          "cumulativeGasUsed": "0x16e6a75",
          "logs": [],
          "logsBloom": "0x00000000000000000000000000000000000000000000000000000000000000000000000000000000000000000000000000000000000000000000000000000000000000000000000000000000000000000000000000000000000000000000000000000000000000000000000000000000000000000000000000000000000000000000000000000000000000000000000000000000000000000000000000000000000000000000000000000000000000000000000000000000000000000000000000000000000000000000000000000000000000000000000000000000000000000000000000000000000000000000000000000000000000000000000000000000",
          "type": "0x2",
          "transactionHash": "0xc3ffa08214d5e5e7ece26ab70d9ae5117ebe4f92e917292dd9d75e22606597ae",
          "transactionIndex": "0xa0",
          "blockHash": "0x5b027eb889e8e1a8f0af7f565dbb0c8a6b25c91ef0aeb6974b9ecaa8ee30a90e",
          "blockNumber": "0x65c0d8",
          "gasUsed": "0x8379",
          "effectiveGasPrice": "0xbe09da3",
          "from": "0x8454d149beb26e3e3fc5ed1c87fb0b2a1b7b6c2c",
          "to": "0xad06bda5366c78946106a32ab64ecb53c597048a",
          "contractAddress": null
        },
        {
          "status": "0x1",
          "cumulativeGasUsed": "0x16eedee",
          "logs": [],
          "logsBloom": "0x00000000000000000000000000000000000000000000000000000000000000000000000000000000000000000000000000000000000000000000000000000000000000000000000000000000000000000000000000000000000000000000000000000000000000000000000000000000000000000000000000000000000000000000000000000000000000000000000000000000000000000000000000000000000000000000000000000000000000000000000000000000000000000000000000000000000000000000000000000000000000000000000000000000000000000000000000000000000000000000000000000000000000000000000000000000",
          "type": "0x2",
          "transactionHash": "0xb60a07287aac0cc8b4967cb0488620a38fc26989d9ec7faccc501cac96f6de93",
          "transactionIndex": "0xa1",
          "blockHash": "0x5b027eb889e8e1a8f0af7f565dbb0c8a6b25c91ef0aeb6974b9ecaa8ee30a90e",
          "blockNumber": "0x65c0d8",
          "gasUsed": "0x8379",
          "effectiveGasPrice": "0xbe09da3",
          "from": "0x8454d149beb26e3e3fc5ed1c87fb0b2a1b7b6c2c",
          "to": "0xad06bda5366c78946106a32ab64ecb53c597048a",
          "contractAddress": null
        },
        {
          "status": "0x1",
          "cumulativeGasUsed": "0x16f71c0",
          "logs": [],
          "logsBloom": "0x00000000000000000000000000000000000000000000000000000000000000000000000000000000000000000000000000000000000000000000000000000000000000000000000000000000000000000000000000000000000000000000000000000000000000000000000000000000000000000000000000000000000000000000000000000000000000000000000000000000000000000000000000000000000000000000000000000000000000000000000000000000000000000000000000000000000000000000000000000000000000000000000000000000000000000000000000000000000000000000000000000000000000000000000000000000",
          "type": "0x2",
          "transactionHash": "0x73cdc697b6856d8cddeeb121c3cea4d78e8a6d2791040532f2da34efebe2406f",
          "transactionIndex": "0xa2",
          "blockHash": "0x5b027eb889e8e1a8f0af7f565dbb0c8a6b25c91ef0aeb6974b9ecaa8ee30a90e",
          "blockNumber": "0x65c0d8",
          "gasUsed": "0x83d2",
          "effectiveGasPrice": "0xbe09da3",
          "from": "0x8454d149beb26e3e3fc5ed1c87fb0b2a1b7b6c2c",
          "to": "0xad06bda5366c78946106a32ab64ecb53c597048a",
          "contractAddress": null
        },
        {
          "status": "0x1",
          "cumulativeGasUsed": "0x1714d40",
          "logs": [
            {
              "address": "0xc4a5ec1ae991a46f46cf0c3f9e8b76b06a09fbd8",
              "topics": [
                "0xed4c89b805f4efb58bc4a42b9a3c6f09783f619295a1fa41ab46d6190c8c7f3b",
                "0xd8a85b4800000000000000000000000000000000000000000000000000000000",
                "0x0000000000000000000000000000000000000000000000000000000000048058"
              ],
              "data": "0x",
              "blockHash": "0x5b027eb889e8e1a8f0af7f565dbb0c8a6b25c91ef0aeb6974b9ecaa8ee30a90e",
              "blockNumber": "0x65c0d8",
              "transactionHash": "0xa23280118aa63abc3136c3e75d24fdca99fe382bf345d1a1539d480cb27f8553",
              "transactionIndex": "0xa4",
              "logIndex": "0xd7",
              "removed": false
            }
          ],
          "logsBloom": "0x00000000000000000040000000000000000000000800000000000000000000000000000000000000000000000000000000000000000000000000000000000000000000000000000000000000000000000800000000000000000000000000000000000000000000000000000000000000800100000000040000000000000000000000000000000000000000001000000000000000000000000000000000000000000000000000000000010000000000000000040000000000000000000000000000000000000000000000000000040000000000000000000000000000000000000000000000000000000000000000000000000000000000002000000000000040",
          "type": "0x2",
          "transactionHash": "0xa23280118aa63abc3136c3e75d24fdca99fe382bf345d1a1539d480cb27f8553",
          "transactionIndex": "0xa4",
          "blockHash": "0x5b027eb889e8e1a8f0af7f565dbb0c8a6b25c91ef0aeb6974b9ecaa8ee30a90e",
          "blockNumber": "0x65c0d8",
          "gasUsed": "0x9be4",
          "effectiveGasPrice": "0xbe09da3",
          "from": "0x8454d149beb26e3e3fc5ed1c87fb0b2a1b7b6c2c",
          "to": "0xc4a5ec1ae991a46f46cf0c3f9e8b76b06a09fbd8",
          "contractAddress": null
        },
        {
          "status": "0x1",
          "cumulativeGasUsed": "0x171c57a",
          "logs": [],
          "logsBloom": "0x00000000000000000000000000000000000000000000000000000000000000000000000000000000000000000000000000000000000000000000000000000000000000000000000000000000000000000000000000000000000000000000000000000000000000000000000000000000000000000000000000000000000000000000000000000000000000000000000000000000000000000000000000000000000000000000000000000000000000000000000000000000000000000000000000000000000000000000000000000000000000000000000000000000000000000000000000000000000000000000000000000000000000000000000000000000",
          "type": "0x2",
          "transactionHash": "0x92fcd3df654c41df3f787e234678271c3fb3daaff590bf7fb36ea0c49b0ab6c9",
          "transactionIndex": "0xa5",
          "blockHash": "0x5b027eb889e8e1a8f0af7f565dbb0c8a6b25c91ef0aeb6974b9ecaa8ee30a90e",
          "blockNumber": "0x65c0d8",
          "gasUsed": "0x783a",
          "effectiveGasPrice": "0xbe09da3",
          "from": "0x8454d149beb26e3e3fc5ed1c87fb0b2a1b7b6c2c",
          "to": "0xfc2704c42a2eefff016c0244dab3bdad24c5c889",
          "contractAddress": null
        }
      ],
      "libraries": [],
      "pending": [],
      "returns": {},
      "timestamp": 1726000760,
      "chain": 11155111,
      "commit": "47f606f"
    }
  ],
  "timestamp": 1726000807
}