{
  "deployments": [
    {
      "transactions": [
        {
          "hash": "0x142e5e6bdfc3bbc956449a1ac7a3852c730e7435dc3a099b4238d670702c8a7a",
          "transactionType": "CALL",
          "contractName": null,
          "contractAddress": "0xd93fabe975267eb94bc903d8758a5fd3e2eb90f8",
          "function": "allowlistSender(address,bool)",
          "arguments": [
            "0x766F7478be30924C086295F053c6c79EaF82a871",
            "true"
          ],
          "transaction": {
            "from": "0x8454d149beb26e3e3fc5ed1c87fb0b2a1b7b6c2c",
            "to": "0xd93fabe975267eb94bc903d8758a5fd3e2eb90f8",
            "gas": "0xc131",
            "value": "0x0",
            "input": "0xeab5b02c000000000000000000000000766f7478be30924c086295f053c6c79eaf82a8710000000000000000000000000000000000000000000000000000000000000001",
            "nonce": "0x1ec",
            "chainId": "0x14a34"
          },
          "additionalContracts": [],
          "isFixedGasLimit": false
        },
        {
          "hash": "0x524f65f59abdcbf468aee87eed260596dfd1eeafddfad9b31563f6accfa555da",
          "transactionType": "CALL",
          "contractName": null,
          "contractAddress": "0xd93fabe975267eb94bc903d8758a5fd3e2eb90f8",
          "function": "allowlistSourceChain(uint64,bool)",
          "arguments": [
            "10344971235874465080",
            "true"
          ],
          "transaction": {
            "from": "0x8454d149beb26e3e3fc5ed1c87fb0b2a1b7b6c2c",
            "to": "0xd93fabe975267eb94bc903d8758a5fd3e2eb90f8",
            "gas": "0xc026",
            "value": "0x0",
            "input": "0xdb04fa490000000000000000000000000000000000000000000000008f90b8876dee65380000000000000000000000000000000000000000000000000000000000000001",
            "nonce": "0x1ed",
            "chainId": "0x14a34"
          },
          "additionalContracts": [],
          "isFixedGasLimit": false
        },
        {
          "hash": "0x71f43edf0987f0adfd441c38f2c27c091ea9158d89a2a128453153cf0aa4f90b",
          "transactionType": "CALL",
          "contractName": null,
          "contractAddress": "0xd93fabe975267eb94bc903d8758a5fd3e2eb90f8",
          "function": "allowlistDestinationChain(uint64,bool)",
          "arguments": [
            "16015286601757825753",
            "true"
          ],
          "transaction": {
            "from": "0x8454d149beb26e3e3fc5ed1c87fb0b2a1b7b6c2c",
            "to": "0xd93fabe975267eb94bc903d8758a5fd3e2eb90f8",
            "gas": "0xb5d6",
            "value": "0x0",
            "input": "0x96d3b83d000000000000000000000000000000000000000000000000de41ba4fc9d91ad90000000000000000000000000000000000000000000000000000000000000001",
            "nonce": "0x1ee",
            "chainId": "0x14a34"
          },
          "additionalContracts": [],
          "isFixedGasLimit": false
        },
        {
          "hash": "0x068cca06d64f52646f5261f7dbd59c2bc9359b2a436b8e17e241eb0855e5ccfa",
          "transactionType": "CALL",
          "contractName": null,
          "contractAddress": "0xb6ccc2dd944f1b82d74d9d63cca4df3bd26b4a1e",
          "function": "setGasLimitsForFunctionSelectors(bytes4[],uint256[])",
          "arguments": [
            "[0xe7a050aa00000000000000000000000000000000000000000000000000000000, 0x32e89ace00000000000000000000000000000000000000000000000000000000, 0x0dd8dd0200000000000000000000000000000000000000000000000000000000, 0x60d7faed00000000000000000000000000000000000000000000000000000000, 0xeea9064b00000000000000000000000000000000000000000000000000000000, 0x7f54807100000000000000000000000000000000000000000000000000000000, 0xda8be86400000000000000000000000000000000000000000000000000000000, 0x17f23aea00000000000000000000000000000000000000000000000000000000]",
            "[2000000, 700000, 800000, 700000, 600000, 600000, 400000, 300000]"
          ],
          "transaction": {
            "from": "0x8454d149beb26e3e3fc5ed1c87fb0b2a1b7b6c2c",
            "to": "0xb6ccc2dd944f1b82d74d9d63cca4df3bd26b4a1e",
            "gas": "0x2ea3e",
            "value": "0x0",
            "input": "0x3ef2d377000000000000000000000000000000000000000000000000000000000000004000000000000000000000000000000000000000000000000000000000000001600000000000000000000000000000000000000000000000000000000000000008e7a050aa0000000000000000000000000000000000000000000000000000000032e89ace000000000000000000000000000000000000000000000000000000000dd8dd020000000000000000000000000000000000000000000000000000000060d7faed00000000000000000000000000000000000000000000000000000000eea9064b000000000000000000000000000000000000000000000000000000007f54807100000000000000000000000000000000000000000000000000000000da8be8640000000000000000000000000000000000000000000000000000000017f23aea00000000000000000000000000000000000000000000000000000000000000000000000000000000000000000000000000000000000000000000000800000000000000000000000000000000000000000000000000000000001e848000000000000000000000000000000000000000000000000000000000000aae6000000000000000000000000000000000000000000000000000000000000c350000000000000000000000000000000000000000000000000000000000000aae6000000000000000000000000000000000000000000000000000000000000927c000000000000000000000000000000000000000000000000000000000000927c00000000000000000000000000000000000000000000000000000000000061a8000000000000000000000000000000000000000000000000000000000000493e0",
            "nonce": "0x1ef",
            "chainId": "0x14a34"
          },
          "additionalContracts": [],
          "isFixedGasLimit": false
        },
        {
          "hash": "0xf3d1fe7affbef5f1395bc43cf3d6c7e90ec5cd3745aec167022b327a7447e352",
          "transactionType": "CALL",
          "contractName": null,
          "contractAddress": "0x88a2d74f47a237a62e7a51cdda67270ce381555e",
          "function": "drip(address)",
          "arguments": [
            "0x8454d149Beb26E3E3FC5eD1C87Fb0B2a1b7B6c2c"
          ],
          "transaction": {
            "from": "0x8454d149beb26e3e3fc5ed1c87fb0b2a1b7b6c2c",
            "to": "0x88a2d74f47a237a62e7a51cdda67270ce381555e",
            "gas": "0xb69c",
            "value": "0x0",
            "input": "0x67a5cd060000000000000000000000008454d149beb26e3e3fc5ed1c87fb0b2a1b7b6c2c",
            "nonce": "0x1f0",
            "chainId": "0x14a34"
          },
          "additionalContracts": [],
          "isFixedGasLimit": false
        }
      ],
      "receipts": [
        {
          "status": "0x1",
          "cumulativeGasUsed": "0x342499",
          "logs": [],
          "logsBloom": "0x00000000000000000000000000000000000000000000000000000000000000000000000000000000000000000000000000000000000000000000000000000000000000000000000000000000000000000000000000000000000000000000000000000000000000000000000000000000000000000000000000000000000000000000000000000000000000000000000000000000000000000000000000000000000000000000000000000000000000000000000000000000000000000000000000000000000000000000000000000000000000000000000000000000000000000000000000000000000000000000000000000000000000000000000000000000",
          "type": "0x2",
          "transactionHash": "0x142e5e6bdfc3bbc956449a1ac7a3852c730e7435dc3a099b4238d670702c8a7a",
          "transactionIndex": "0x9",
          "blockHash": "0x0d0b6ee84eb5167bcf993f70cfadb7e0fdf42996ae7fd1c0c6178fd9efced24d",
          "blockNumber": "0xdf4832",
          "gasUsed": "0x8419",
          "effectiveGasPrice": "0x340a7e",
          "from": "0x8454d149beb26e3e3fc5ed1c87fb0b2a1b7b6c2c",
          "to": "0xd93fabe975267eb94bc903d8758a5fd3e2eb90f8",
          "contractAddress": null,
          "l1BaseFeeScalar": "0x44d",
          "l1BlobBaseFee": "0x1",
          "l1BlobBaseFeeScalar": "0xa118b",
          "l1Fee": "0x5d58f14d1",
          "l1GasPrice": "0x34fd79db1",
          "l1GasUsed": "0x640"
        },
        {
          "status": "0x1",
          "cumulativeGasUsed": "0x34a7fc",
          "logs": [],
          "logsBloom": "0x00000000000000000000000000000000000000000000000000000000000000000000000000000000000000000000000000000000000000000000000000000000000000000000000000000000000000000000000000000000000000000000000000000000000000000000000000000000000000000000000000000000000000000000000000000000000000000000000000000000000000000000000000000000000000000000000000000000000000000000000000000000000000000000000000000000000000000000000000000000000000000000000000000000000000000000000000000000000000000000000000000000000000000000000000000000",
          "type": "0x2",
          "transactionHash": "0x524f65f59abdcbf468aee87eed260596dfd1eeafddfad9b31563f6accfa555da",
          "transactionIndex": "0xa",
          "blockHash": "0x0d0b6ee84eb5167bcf993f70cfadb7e0fdf42996ae7fd1c0c6178fd9efced24d",
          "blockNumber": "0xdf4832",
          "gasUsed": "0x8363",
          "effectiveGasPrice": "0x340a7e",
          "from": "0x8454d149beb26e3e3fc5ed1c87fb0b2a1b7b6c2c",
          "to": "0xd93fabe975267eb94bc903d8758a5fd3e2eb90f8",
          "contractAddress": null,
          "l1BaseFeeScalar": "0x44d",
          "l1BlobBaseFee": "0x1",
          "l1BlobBaseFeeScalar": "0xa118b",
          "l1Fee": "0x5d58f14d1",
          "l1GasPrice": "0x34fd79db1",
          "l1GasUsed": "0x640"
        },
        {
          "status": "0x1",
          "cumulativeGasUsed": "0x352ba2",
          "logs": [],
          "logsBloom": "0x00000000000000000000000000000000000000000000000000000000000000000000000000000000000000000000000000000000000000000000000000000000000000000000000000000000000000000000000000000000000000000000000000000000000000000000000000000000000000000000000000000000000000000000000000000000000000000000000000000000000000000000000000000000000000000000000000000000000000000000000000000000000000000000000000000000000000000000000000000000000000000000000000000000000000000000000000000000000000000000000000000000000000000000000000000000",
          "type": "0x2",
          "transactionHash": "0x71f43edf0987f0adfd441c38f2c27c091ea9158d89a2a128453153cf0aa4f90b",
          "transactionIndex": "0xb",
          "blockHash": "0x0d0b6ee84eb5167bcf993f70cfadb7e0fdf42996ae7fd1c0c6178fd9efced24d",
          "blockNumber": "0xdf4832",
          "gasUsed": "0x83a6",
          "effectiveGasPrice": "0x340a7e",
          "from": "0x8454d149beb26e3e3fc5ed1c87fb0b2a1b7b6c2c",
          "to": "0xd93fabe975267eb94bc903d8758a5fd3e2eb90f8",
          "contractAddress": null,
          "l1BaseFeeScalar": "0x44d",
          "l1BlobBaseFee": "0x1",
          "l1BlobBaseFeeScalar": "0xa118b",
          "l1Fee": "0x5d58f14d1",
          "l1GasPrice": "0x34fd79db1",
          "l1GasUsed": "0x640"
        },
        {
          "status": "0x1",
          "cumulativeGasUsed": "0x3729e3",
          "logs": [
            {
              "address": "0xb6ccc2dd944f1b82d74d9d63cca4df3bd26b4a1e",
              "topics": [
                "0xed4c89b805f4efb58bc4a42b9a3c6f09783f619295a1fa41ab46d6190c8c7f3b",
                "0xe7a050aa00000000000000000000000000000000000000000000000000000000",
                "0x00000000000000000000000000000000000000000000000000000000001e8480"
              ],
              "data": "0x",
              "blockHash": "0x0d0b6ee84eb5167bcf993f70cfadb7e0fdf42996ae7fd1c0c6178fd9efced24d",
              "blockNumber": "0xdf4832",
              "transactionHash": "0x068cca06d64f52646f5261f7dbd59c2bc9359b2a436b8e17e241eb0855e5ccfa",
              "transactionIndex": "0xc",
              "logIndex": "0x36",
              "removed": false
            },
            {
              "address": "0xb6ccc2dd944f1b82d74d9d63cca4df3bd26b4a1e",
              "topics": [
                "0xed4c89b805f4efb58bc4a42b9a3c6f09783f619295a1fa41ab46d6190c8c7f3b",
                "0x32e89ace00000000000000000000000000000000000000000000000000000000",
                "0x00000000000000000000000000000000000000000000000000000000000aae60"
              ],
              "data": "0x",
              "blockHash": "0x0d0b6ee84eb5167bcf993f70cfadb7e0fdf42996ae7fd1c0c6178fd9efced24d",
              "blockNumber": "0xdf4832",
              "transactionHash": "0x068cca06d64f52646f5261f7dbd59c2bc9359b2a436b8e17e241eb0855e5ccfa",
              "transactionIndex": "0xc",
              "logIndex": "0x37",
              "removed": false
            },
            {
              "address": "0xb6ccc2dd944f1b82d74d9d63cca4df3bd26b4a1e",
              "topics": [
                "0xed4c89b805f4efb58bc4a42b9a3c6f09783f619295a1fa41ab46d6190c8c7f3b",
                "0x0dd8dd0200000000000000000000000000000000000000000000000000000000",
                "0x00000000000000000000000000000000000000000000000000000000000c3500"
              ],
              "data": "0x",
              "blockHash": "0x0d0b6ee84eb5167bcf993f70cfadb7e0fdf42996ae7fd1c0c6178fd9efced24d",
              "blockNumber": "0xdf4832",
              "transactionHash": "0x068cca06d64f52646f5261f7dbd59c2bc9359b2a436b8e17e241eb0855e5ccfa",
              "transactionIndex": "0xc",
              "logIndex": "0x38",
              "removed": false
            },
            {
              "address": "0xb6ccc2dd944f1b82d74d9d63cca4df3bd26b4a1e",
              "topics": [
                "0xed4c89b805f4efb58bc4a42b9a3c6f09783f619295a1fa41ab46d6190c8c7f3b",
                "0x60d7faed00000000000000000000000000000000000000000000000000000000",
                "0x00000000000000000000000000000000000000000000000000000000000aae60"
              ],
              "data": "0x",
              "blockHash": "0x0d0b6ee84eb5167bcf993f70cfadb7e0fdf42996ae7fd1c0c6178fd9efced24d",
              "blockNumber": "0xdf4832",
              "transactionHash": "0x068cca06d64f52646f5261f7dbd59c2bc9359b2a436b8e17e241eb0855e5ccfa",
              "transactionIndex": "0xc",
              "logIndex": "0x39",
              "removed": false
            },
            {
              "address": "0xb6ccc2dd944f1b82d74d9d63cca4df3bd26b4a1e",
              "topics": [
                "0xed4c89b805f4efb58bc4a42b9a3c6f09783f619295a1fa41ab46d6190c8c7f3b",
                "0xeea9064b00000000000000000000000000000000000000000000000000000000",
                "0x00000000000000000000000000000000000000000000000000000000000927c0"
              ],
              "data": "0x",
              "blockHash": "0x0d0b6ee84eb5167bcf993f70cfadb7e0fdf42996ae7fd1c0c6178fd9efced24d",
              "blockNumber": "0xdf4832",
              "transactionHash": "0x068cca06d64f52646f5261f7dbd59c2bc9359b2a436b8e17e241eb0855e5ccfa",
              "transactionIndex": "0xc",
              "logIndex": "0x3a",
              "removed": false
            },
            {
              "address": "0xb6ccc2dd944f1b82d74d9d63cca4df3bd26b4a1e",
              "topics": [
                "0xed4c89b805f4efb58bc4a42b9a3c6f09783f619295a1fa41ab46d6190c8c7f3b",
                "0x7f54807100000000000000000000000000000000000000000000000000000000",
                "0x00000000000000000000000000000000000000000000000000000000000927c0"
              ],
              "data": "0x",
              "blockHash": "0x0d0b6ee84eb5167bcf993f70cfadb7e0fdf42996ae7fd1c0c6178fd9efced24d",
              "blockNumber": "0xdf4832",
              "transactionHash": "0x068cca06d64f52646f5261f7dbd59c2bc9359b2a436b8e17e241eb0855e5ccfa",
              "transactionIndex": "0xc",
              "logIndex": "0x3b",
              "removed": false
            },
            {
              "address": "0xb6ccc2dd944f1b82d74d9d63cca4df3bd26b4a1e",
              "topics": [
                "0xed4c89b805f4efb58bc4a42b9a3c6f09783f619295a1fa41ab46d6190c8c7f3b",
                "0xda8be86400000000000000000000000000000000000000000000000000000000",
                "0x0000000000000000000000000000000000000000000000000000000000061a80"
              ],
              "data": "0x",
              "blockHash": "0x0d0b6ee84eb5167bcf993f70cfadb7e0fdf42996ae7fd1c0c6178fd9efced24d",
              "blockNumber": "0xdf4832",
              "transactionHash": "0x068cca06d64f52646f5261f7dbd59c2bc9359b2a436b8e17e241eb0855e5ccfa",
              "transactionIndex": "0xc",
              "logIndex": "0x3c",
              "removed": false
            },
            {
              "address": "0xb6ccc2dd944f1b82d74d9d63cca4df3bd26b4a1e",
              "topics": [
                "0xed4c89b805f4efb58bc4a42b9a3c6f09783f619295a1fa41ab46d6190c8c7f3b",
                "0x17f23aea00000000000000000000000000000000000000000000000000000000",
                "0x00000000000000000000000000000000000000000000000000000000000493e0"
              ],
              "data": "0x",
              "blockHash": "0x0d0b6ee84eb5167bcf993f70cfadb7e0fdf42996ae7fd1c0c6178fd9efced24d",
              "blockNumber": "0xdf4832",
              "transactionHash": "0x068cca06d64f52646f5261f7dbd59c2bc9359b2a436b8e17e241eb0855e5ccfa",
              "transactionIndex": "0xc",
              "logIndex": "0x3d",
              "removed": false
            }
          ],
          "logsBloom": "0x00000000000000000040000000100000000000200800000000000000004000000000008000000000000800000040000400000000200000000000000000000000000000002400000000000040000000040002000000012000000000000000000000000000000000000000100000000000818000000002040000200000000000000200100000800000000040000001010000000000000000000004000000080002000000000000000000000000002000000000000008080040000000000000400500000000000000000000001000000002000000000000000000100000000000000000000000200000084000000000000000000000000000000000010000000000",
          "type": "0x2",
          "transactionHash": "0x068cca06d64f52646f5261f7dbd59c2bc9359b2a436b8e17e241eb0855e5ccfa",
          "transactionIndex": "0xc",
          "blockHash": "0x0d0b6ee84eb5167bcf993f70cfadb7e0fdf42996ae7fd1c0c6178fd9efced24d",
          "blockNumber": "0xdf4832",
          "gasUsed": "0x1fe41",
          "effectiveGasPrice": "0x340a7e",
          "from": "0x8454d149beb26e3e3fc5ed1c87fb0b2a1b7b6c2c",
          "to": "0xb6ccc2dd944f1b82d74d9d63cca4df3bd26b4a1e",
          "contractAddress": null,
          "l1BaseFeeScalar": "0x44d",
          "l1BlobBaseFee": "0x1",
          "l1BlobBaseFeeScalar": "0xa118b",
          "l1Fee": "0xabdbae640",
          "l1GasPrice": "0x34fd79db1",
          "l1GasUsed": "0xb81"
        },
        {
          "status": "0x1",
          "cumulativeGasUsed": "0x37ae18",
          "logs": [
            {
              "address": "0x88a2d74f47a237a62e7a51cdda67270ce381555e",
              "topics": [
                "0xddf252ad1be2c89b69c2b068fc378daa952ba7f163c4a11628f55a4df523b3ef",
                "0x0000000000000000000000000000000000000000000000000000000000000000",
                "0x0000000000000000000000008454d149beb26e3e3fc5ed1c87fb0b2a1b7b6c2c"
              ],
              "data": "0x0000000000000000000000000000000000000000000000000de0b6b3a7640000",
              "blockHash": "0x0d0b6ee84eb5167bcf993f70cfadb7e0fdf42996ae7fd1c0c6178fd9efced24d",
              "blockNumber": "0xdf4832",
              "transactionHash": "0xf3d1fe7affbef5f1395bc43cf3d6c7e90ec5cd3745aec167022b327a7447e352",
              "transactionIndex": "0xd",
              "logIndex": "0x3e",
              "removed": false
            }
          ],
          "logsBloom": "0x00000000000000000000000000000000000000000000000000000000000800000000000000000000000000000000000000000000000000000000000000000000000000000000000000000008000000000000000000000000000000000000000000000000020000080000000000000800000000000000000000000010000000000000000000000000000000000000000000000000000000000000000000000000080000000000000000000000000000000000000000000000000000000000000000000002000000000000000000000000080000000000000000000000000a20000000000000000000000000000000000000000000000000000000000000000000",
          "type": "0x2",
          "transactionHash": "0xf3d1fe7affbef5f1395bc43cf3d6c7e90ec5cd3745aec167022b327a7447e352",
          "transactionIndex": "0xd",
          "blockHash": "0x0d0b6ee84eb5167bcf993f70cfadb7e0fdf42996ae7fd1c0c6178fd9efced24d",
          "blockNumber": "0xdf4832",
          "gasUsed": "0x8435",
          "effectiveGasPrice": "0x340a7e",
          "from": "0x8454d149beb26e3e3fc5ed1c87fb0b2a1b7b6c2c",
          "to": "0x88a2d74f47a237a62e7a51cdda67270ce381555e",
          "contractAddress": null,
          "l1BaseFeeScalar": "0x44d",
          "l1BlobBaseFee": "0x1",
          "l1BlobBaseFeeScalar": "0xa118b",
          "l1Fee": "0x5d58f14d1",
          "l1GasPrice": "0x34fd79db1",
          "l1GasUsed": "0x640"
        }
      ],
      "libraries": [],
      "pending": [],
      "returns": {},
      "timestamp": 1725034305,
      "chain": 84532,
      "commit": "c9c8cd6"
    },
    {
      "transactions": [
        {
          "hash": "0x9fdc20535ac4bfd692a504a981f7d7a4256f1ae3ebc1f850143063679bf8727e",
          "transactionType": "CALL",
          "contractName": null,
          "contractAddress": "0x766f7478be30924c086295f053c6c79eaf82a871",
          "function": "allowlistSender(address,bool)",
          "arguments": [
            "0xD93FABe975267Eb94BC903d8758a5FD3E2eB90f8",
            "true"
          ],
          "transaction": {
            "from": "0x8454d149beb26e3e3fc5ed1c87fb0b2a1b7b6c2c",
            "to": "0x766f7478be30924c086295f053c6c79eaf82a871",
            "gas": "0xb6b2",
            "value": "0x0",
            "input": "0xeab5b02c000000000000000000000000d93fabe975267eb94bc903d8758a5fd3e2eb90f80000000000000000000000000000000000000000000000000000000000000001",
            "nonce": "0x3f2",
            "chainId": "0xaa36a7"
          },
          "additionalContracts": [],
          "isFixedGasLimit": false
        },
        {
          "hash": "0xf309e9541fade0534f6655421923249b13e314c6540617c137bae12297f47613",
          "transactionType": "CALL",
          "contractName": null,
          "contractAddress": "0x766f7478be30924c086295f053c6c79eaf82a871",
          "function": "allowlistSourceChain(uint64,bool)",
          "arguments": [
            "10344971235874465080",
            "true"
          ],
          "transaction": {
            "from": "0x8454d149beb26e3e3fc5ed1c87fb0b2a1b7b6c2c",
            "to": "0x766f7478be30924c086295f053c6c79eaf82a871",
            "gas": "0xb5b5",
            "value": "0x0",
            "input": "0xdb04fa490000000000000000000000000000000000000000000000008f90b8876dee65380000000000000000000000000000000000000000000000000000000000000001",
            "nonce": "0x3f3",
            "chainId": "0xaa36a7"
          },
          "additionalContracts": [],
          "isFixedGasLimit": false
        },
        {
          "hash": "0x716faeef2cb3bf10d83bba700eef383669e79339aa248807e0febc879fb43948",
          "transactionType": "CALL",
          "contractName": null,
          "contractAddress": "0x766f7478be30924c086295f053c6c79eaf82a871",
          "function": "allowlistSourceChain(uint64,bool)",
          "arguments": [
            "16015286601757825753",
            "true"
          ],
          "transaction": {
            "from": "0x8454d149beb26e3e3fc5ed1c87fb0b2a1b7b6c2c",
            "to": "0x766f7478be30924c086295f053c6c79eaf82a871",
            "gas": "0xb5b5",
            "value": "0x0",
            "input": "0xdb04fa49000000000000000000000000000000000000000000000000de41ba4fc9d91ad90000000000000000000000000000000000000000000000000000000000000001",
            "nonce": "0x3f4",
            "chainId": "0xaa36a7"
          },
          "additionalContracts": [],
          "isFixedGasLimit": false
        },
        {
          "hash": "0x5b00ad7867f1438bc47ae455c5fdb44220f6b2826c56ce9a68c786bb0da1c2be",
          "transactionType": "CALL",
          "contractName": null,
          "contractAddress": "0x766f7478be30924c086295f053c6c79eaf82a871",
          "function": "allowlistDestinationChain(uint64,bool)",
          "arguments": [
            "10344971235874465080",
            "true"
          ],
          "transaction": {
            "from": "0x8454d149beb26e3e3fc5ed1c87fb0b2a1b7b6c2c",
            "to": "0x766f7478be30924c086295f053c6c79eaf82a871",
            "gas": "0xb5d6",
            "value": "0x0",
            "input": "0x96d3b83d0000000000000000000000000000000000000000000000008f90b8876dee65380000000000000000000000000000000000000000000000000000000000000001",
            "nonce": "0x3f5",
            "chainId": "0xaa36a7"
          },
          "additionalContracts": [],
          "isFixedGasLimit": false
        },
        {
          "hash": "0xe2ffdd4958e972da5f702915347d95d65ea74ed4a1bc0509da6b4ff03869f21e",
          "transactionType": "CALL",
          "contractName": null,
          "contractAddress": "0xfd57b4ddbf88a4e07ff4e34c487b99af2fe82a05",
          "function": "drip(address)",
          "arguments": [
            "0x766F7478be30924C086295F053c6c79EaF82a871"
          ],
          "transaction": {
            "from": "0x8454d149beb26e3e3fc5ed1c87fb0b2a1b7b6c2c",
            "to": "0xfd57b4ddbf88a4e07ff4e34c487b99af2fe82a05",
            "gas": "0xb69c",
            "value": "0x0",
            "input": "0x67a5cd06000000000000000000000000766f7478be30924c086295f053c6c79eaf82a871",
            "nonce": "0x3f6",
            "chainId": "0xaa36a7"
          },
          "additionalContracts": [],
          "isFixedGasLimit": false
        }
      ],
      "receipts": [
        {
          "status": "0x1",
          "cumulativeGasUsed": "0x8b8d2c",
          "logs": [],
          "logsBloom": "0x00000000000000000000000000000000000000000000000000000000000000000000000000000000000000000000000000000000000000000000000000000000000000000000000000000000000000000000000000000000000000000000000000000000000000000000000000000000000000000000000000000000000000000000000000000000000000000000000000000000000000000000000000000000000000000000000000000000000000000000000000000000000000000000000000000000000000000000000000000000000000000000000000000000000000000000000000000000000000000000000000000000000000000000000000000000",
          "type": "0x2",
          "transactionHash": "0x9fdc20535ac4bfd692a504a981f7d7a4256f1ae3ebc1f850143063679bf8727e",
          "transactionIndex": "0x30",
          "blockHash": "0x2fb321a14474f1caed690f6404cea8fb308679bccb11c3ed484ad6309a7b285c",
          "blockNumber": "0x64b96d",
          "gasUsed": "0x8445",
          "effectiveGasPrice": "0x38a65e573",
          "from": "0x8454d149beb26e3e3fc5ed1c87fb0b2a1b7b6c2c",
          "to": "0x766f7478be30924c086295f053c6c79eaf82a871",
          "contractAddress": null
        },
        {
          "status": "0x1",
          "cumulativeGasUsed": "0x8c10bb",
          "logs": [],
          "logsBloom": "0x00000000000000000000000000000000000000000000000000000000000000000000000000000000000000000000000000000000000000000000000000000000000000000000000000000000000000000000000000000000000000000000000000000000000000000000000000000000000000000000000000000000000000000000000000000000000000000000000000000000000000000000000000000000000000000000000000000000000000000000000000000000000000000000000000000000000000000000000000000000000000000000000000000000000000000000000000000000000000000000000000000000000000000000000000000000",
          "type": "0x2",
          "transactionHash": "0xf309e9541fade0534f6655421923249b13e314c6540617c137bae12297f47613",
          "transactionIndex": "0x31",
          "blockHash": "0x2fb321a14474f1caed690f6404cea8fb308679bccb11c3ed484ad6309a7b285c",
          "blockNumber": "0x64b96d",
          "gasUsed": "0x838f",
          "effectiveGasPrice": "0x38a65e573",
          "from": "0x8454d149beb26e3e3fc5ed1c87fb0b2a1b7b6c2c",
          "to": "0x766f7478be30924c086295f053c6c79eaf82a871",
          "contractAddress": null
        },
        {
          "status": "0x1",
          "cumulativeGasUsed": "0x902ae0",
          "logs": [],
          "logsBloom": "0x00000000000000000000000000000000000000000000000000000000000000000000000000000000000000000000000000000000000000000000000000000000000000000000000000000000000000000000000000000000000000000000000000000000000000000000000000000000000000000000000000000000000000000000000000000000000000000000000000000000000000000000000000000000000000000000000000000000000000000000000000000000000000000000000000000000000000000000000000000000000000000000000000000000000000000000000000000000000000000000000000000000000000000000000000000000",
          "type": "0x2",
          "transactionHash": "0x716faeef2cb3bf10d83bba700eef383669e79339aa248807e0febc879fb43948",
          "transactionIndex": "0x32",
          "blockHash": "0xa60b03b2daa4084b8fe0607671d91621e3353b6fc27fb8859d832cfbc1cd949a",
          "blockNumber": "0x64b96e",
          "gasUsed": "0x838f",
          "effectiveGasPrice": "0x36561492b",
          "from": "0x8454d149beb26e3e3fc5ed1c87fb0b2a1b7b6c2c",
          "to": "0x766f7478be30924c086295f053c6c79eaf82a871",
          "contractAddress": null
        },
        {
          "status": "0x1",
          "cumulativeGasUsed": "0x90ae86",
          "logs": [],
          "logsBloom": "0x00000000000000000000000000000000000000000000000000000000000000000000000000000000000000000000000000000000000000000000000000000000000000000000000000000000000000000000000000000000000000000000000000000000000000000000000000000000000000000000000000000000000000000000000000000000000000000000000000000000000000000000000000000000000000000000000000000000000000000000000000000000000000000000000000000000000000000000000000000000000000000000000000000000000000000000000000000000000000000000000000000000000000000000000000000000",
          "type": "0x2",
          "transactionHash": "0x5b00ad7867f1438bc47ae455c5fdb44220f6b2826c56ce9a68c786bb0da1c2be",
          "transactionIndex": "0x33",
          "blockHash": "0xa60b03b2daa4084b8fe0607671d91621e3353b6fc27fb8859d832cfbc1cd949a",
          "blockNumber": "0x64b96e",
          "gasUsed": "0x83a6",
          "effectiveGasPrice": "0x36561492b",
          "from": "0x8454d149beb26e3e3fc5ed1c87fb0b2a1b7b6c2c",
          "to": "0x766f7478be30924c086295f053c6c79eaf82a871",
          "contractAddress": null
        },
        {
          "status": "0x1",
          "cumulativeGasUsed": "0x9132bb",
          "logs": [
            {
              "address": "0xfd57b4ddbf88a4e07ff4e34c487b99af2fe82a05",
              "topics": [
                "0xddf252ad1be2c89b69c2b068fc378daa952ba7f163c4a11628f55a4df523b3ef",
                "0x0000000000000000000000000000000000000000000000000000000000000000",
                "0x000000000000000000000000766f7478be30924c086295f053c6c79eaf82a871"
              ],
              "data": "0x0000000000000000000000000000000000000000000000000de0b6b3a7640000",
              "blockHash": "0xa60b03b2daa4084b8fe0607671d91621e3353b6fc27fb8859d832cfbc1cd949a",
              "blockNumber": "0x64b96e",
              "transactionHash": "0xe2ffdd4958e972da5f702915347d95d65ea74ed4a1bc0509da6b4ff03869f21e",
              "transactionIndex": "0x34",
              "logIndex": "0x4c",
              "removed": false
            }
          ],
          "logsBloom": "0x00000002000000000000000000000000000000000000000000000000000000000000000000000000000000000000000000000000000000100000000000000000000000000000000000000008000000000000000000000000000000000000000000000000020000000000000000000800000000000000000000000010000000000000000000000000000000000000000000000000000000000000000000000000000000000000000040000000000000080000000000000000000000000000000000000002000000000000000000000000000000000000000000000000000020000000000000000000000000002000000000000008000000000000000000000000",
          "type": "0x2",
          "transactionHash": "0xe2ffdd4958e972da5f702915347d95d65ea74ed4a1bc0509da6b4ff03869f21e",
          "transactionIndex": "0x34",
          "blockHash": "0xa60b03b2daa4084b8fe0607671d91621e3353b6fc27fb8859d832cfbc1cd949a",
          "blockNumber": "0x64b96e",
          "gasUsed": "0x8435",
          "effectiveGasPrice": "0x36561492b",
          "from": "0x8454d149beb26e3e3fc5ed1c87fb0b2a1b7b6c2c",
          "to": "0xfd57b4ddbf88a4e07ff4e34c487b99af2fe82a05",
          "contractAddress": null
        }
      ],
      "libraries": [],
      "pending": [],
      "returns": {},
      "timestamp": 1725034306,
      "chain": 11155111,
      "commit": "c9c8cd6"
    }
  ],
  "timestamp": 1725034337
}