{
  "deployments": [
    {
      "transactions": [
        {
          "hash": "0x6037ecce9544217f15b47036f1321d16794ee44717475fdb85411b5647dfa7aa",
          "transactionType": "CALL",
          "contractName": null,
          "contractAddress": "0xdaa2cfe13769634ee9df26a0783080cd2b0ed312",
          "function": "allowlistSender(address,bool)",
          "arguments": [
            "0xfDE6B8Cc33AE01f7696De3c0d3e730f373985134",
            "true"
          ],
          "transaction": {
            "from": "0x8454d149beb26e3e3fc5ed1c87fb0b2a1b7b6c2c",
            "to": "0xdaa2cfe13769634ee9df26a0783080cd2b0ed312",
            "gas": "0xc13f",
            "value": "0x0",
            "input": "0xeab5b02c000000000000000000000000fde6b8cc33ae01f7696de3c0d3e730f3739851340000000000000000000000000000000000000000000000000000000000000001",
            "nonce": "0x4e5",
            "chainId": "0x14a34"
          },
          "additionalContracts": [],
          "isFixedGasLimit": false
        },
        {
          "hash": "0x28f3158c48894921208b472aace3b7e68f97bbb8eeedfce39ef77a7b33cfdf97",
          "transactionType": "CALL",
          "contractName": null,
          "contractAddress": "0xdaa2cfe13769634ee9df26a0783080cd2b0ed312",
          "function": "allowlistSourceChain(uint64,bool)",
          "arguments": [
            "10344971235874465080",
            "true"
          ],
          "transaction": {
            "from": "0x8454d149beb26e3e3fc5ed1c87fb0b2a1b7b6c2c",
            "to": "0xdaa2cfe13769634ee9df26a0783080cd2b0ed312",
            "gas": "0xb587",
            "value": "0x0",
            "input": "0xdb04fa490000000000000000000000000000000000000000000000008f90b8876dee65380000000000000000000000000000000000000000000000000000000000000001",
            "nonce": "0x4e6",
            "chainId": "0x14a34"
          },
          "additionalContracts": [],
          "isFixedGasLimit": false
        },
        {
          "hash": "0xa0c8f1ca18e196d071eeb4af510f02504f07e0717982df8ed5d2d8b27c0784a4",
          "transactionType": "CALL",
          "contractName": null,
          "contractAddress": "0xdaa2cfe13769634ee9df26a0783080cd2b0ed312",
          "function": "allowlistDestinationChain(uint64,bool)",
          "arguments": [
            "16015286601757825753",
            "true"
          ],
          "transaction": {
            "from": "0x8454d149beb26e3e3fc5ed1c87fb0b2a1b7b6c2c",
            "to": "0xdaa2cfe13769634ee9df26a0783080cd2b0ed312",
            "gas": "0xb5a7",
            "value": "0x0",
            "input": "0x96d3b83d000000000000000000000000000000000000000000000000de41ba4fc9d91ad90000000000000000000000000000000000000000000000000000000000000001",
            "nonce": "0x4e7",
            "chainId": "0x14a34"
          },
          "additionalContracts": [],
          "isFixedGasLimit": false
        },
        {
          "hash": "0x89e2365990f0a9baa31407b08af18e4aee388e42104676d027dafaa049817241",
          "transactionType": "CALL",
          "contractName": null,
          "contractAddress": "0x7a5203463185c77ed4b7739a542405e5ceadad1f",
          "function": "setGasLimitsForFunctionSelectors(bytes4[],uint256[])",
          "arguments": [
            "[0xe7a050aa, 0xcc15a557, 0x0dd8dd02, 0x60d7faed, 0xeea9064b, 0xda8be864, 0x3ccc861d]",
            "[410000, 290000, 315000, 560000, 350000, 340000, 540000]"
          ],
          "transaction": {
            "from": "0x8454d149beb26e3e3fc5ed1c87fb0b2a1b7b6c2c",
            "to": "0x7a5203463185c77ed4b7739a542405e5ceadad1f",
            "gas": "0x16007",
            "value": "0x0",
            "input": "0x3ef2d377000000000000000000000000000000000000000000000000000000000000004000000000000000000000000000000000000000000000000000000000000001400000000000000000000000000000000000000000000000000000000000000007e7a050aa00000000000000000000000000000000000000000000000000000000cc15a557000000000000000000000000000000000000000000000000000000000dd8dd020000000000000000000000000000000000000000000000000000000060d7faed00000000000000000000000000000000000000000000000000000000eea9064b00000000000000000000000000000000000000000000000000000000da8be864000000000000000000000000000000000000000000000000000000003ccc861d00000000000000000000000000000000000000000000000000000000000000000000000000000000000000000000000000000000000000000000000700000000000000000000000000000000000000000000000000000000000641900000000000000000000000000000000000000000000000000000000000046cd0000000000000000000000000000000000000000000000000000000000004ce780000000000000000000000000000000000000000000000000000000000088b80000000000000000000000000000000000000000000000000000000000005573000000000000000000000000000000000000000000000000000000000000530200000000000000000000000000000000000000000000000000000000000083d60",
            "nonce": "0x4e8",
            "chainId": "0x14a34"
          },
          "additionalContracts": [],
          "isFixedGasLimit": false
        },
        {
          "hash": "0x2b36f23dfca656cdc6b3298fcbf9ef7ebf0eb341c6570638e55d31ef6c77b60b",
          "transactionType": "CALL",
          "contractName": null,
          "contractAddress": "0x7a5203463185c77ed4b7739a542405e5ceadad1f",
          "function": "setSenderCCIP(address)",
          "arguments": [
            "0xdAA2cfe13769634EE9dF26a0783080Cd2b0ed312"
          ],
          "transaction": {
            "from": "0x8454d149beb26e3e3fc5ed1c87fb0b2a1b7b6c2c",
            "to": "0x7a5203463185c77ed4b7739a542405e5ceadad1f",
            "gas": "0xb4e0",
            "value": "0x0",
            "input": "0xd8d6c31a000000000000000000000000daa2cfe13769634ee9df26a0783080cd2b0ed312",
            "nonce": "0x4e9",
            "chainId": "0x14a34"
          },
          "additionalContracts": [],
          "isFixedGasLimit": false
        },
        {
          "hash": "0x320bbb521aaec99378741dbe1b893b6bc4c560400c9f430198cb641f305fa36d",
          "transactionType": "CALL",
          "contractName": null,
          "contractAddress": "0xdaa2cfe13769634ee9df26a0783080cd2b0ed312",
          "function": "getSenderHooks()",
          "arguments": [],
          "transaction": {
            "from": "0x8454d149beb26e3e3fc5ed1c87fb0b2a1b7b6c2c",
            "to": "0xdaa2cfe13769634ee9df26a0783080cd2b0ed312",
            "gas": "0xafa5",
            "value": "0x0",
            "input": "0xe09df825",
            "nonce": "0x4ea",
            "chainId": "0x14a34"
          },
          "additionalContracts": [],
          "isFixedGasLimit": false
        },
        {
          "hash": "0x923a0a29418d091c1597f77de362fc5886247cf7c69490cca71b0ee0afa47e9c",
          "transactionType": "CALL",
          "contractName": null,
          "contractAddress": "0xdaa2cfe13769634ee9df26a0783080cd2b0ed312",
          "function": "allowlistedSenders(address)",
          "arguments": [
            "0xfDE6B8Cc33AE01f7696De3c0d3e730f373985134"
          ],
          "transaction": {
            "from": "0x8454d149beb26e3e3fc5ed1c87fb0b2a1b7b6c2c",
            "to": "0xdaa2cfe13769634ee9df26a0783080cd2b0ed312",
            "gas": "0xa8c0",
            "value": "0x0",
            "input": "0x6159ada1000000000000000000000000fde6b8cc33ae01f7696de3c0d3e730f373985134",
            "nonce": "0x4eb",
            "chainId": "0x14a34"
          },
          "additionalContracts": [],
          "isFixedGasLimit": false
        },
        {
          "hash": "0x257e438faf917348d98a78feea15c89f45ef88fd03da0fa9312ec913847579a9",
          "transactionType": "CALL",
          "contractName": null,
          "contractAddress": "0xdaa2cfe13769634ee9df26a0783080cd2b0ed312",
          "function": "allowlistedSourceChains(uint64)",
          "arguments": [
            "16015286601757825753"
          ],
          "transaction": {
            "from": "0x8454d149beb26e3e3fc5ed1c87fb0b2a1b7b6c2c",
            "to": "0xdaa2cfe13769634ee9df26a0783080cd2b0ed312",
            "gas": "0xa840",
            "value": "0x0",
            "input": "0x4030d521000000000000000000000000000000000000000000000000de41ba4fc9d91ad9",
            "nonce": "0x4ec",
            "chainId": "0x14a34"
          },
          "additionalContracts": [],
          "isFixedGasLimit": false
        },
        {
          "hash": "0x2ffea4047a8756c75d0ec51e2c43b8073c7f1380503c1e63586a74eb041d81e8",
          "transactionType": "CALL",
          "contractName": null,
          "contractAddress": "0xdaa2cfe13769634ee9df26a0783080cd2b0ed312",
          "function": "allowlistedDestinationChains(uint64)",
          "arguments": [
            "16015286601757825753"
          ],
          "transaction": {
            "from": "0x8454d149beb26e3e3fc5ed1c87fb0b2a1b7b6c2c",
            "to": "0xdaa2cfe13769634ee9df26a0783080cd2b0ed312",
            "gas": "0xa83e",
            "value": "0x0",
            "input": "0x75c67c66000000000000000000000000000000000000000000000000de41ba4fc9d91ad9",
            "nonce": "0x4ed",
            "chainId": "0x14a34"
          },
          "additionalContracts": [],
          "isFixedGasLimit": false
        }
      ],
      "receipts": [
        {
          "status": "0x1",
          "cumulativeGasUsed": "0x9065c",
          "logs": [],
          "logsBloom": "0x00000000000000000000000000000000000000000000000000000000000000000000000000000000000000000000000000000000000000000000000000000000000000000000000000000000000000000000000000000000000000000000000000000000000000000000000000000000000000000000000000000000000000000000000000000000000000000000000000000000000000000000000000000000000000000000000000000000000000000000000000000000000000000000000000000000000000000000000000000000000000000000000000000000000000000000000000000000000000000000000000000000000000000000000000000000",
          "type": "0x2",
          "transactionHash": "0x6037ecce9544217f15b47036f1321d16794ee44717475fdb85411b5647dfa7aa",
          "transactionIndex": "0xc",
          "blockHash": "0xe4bed5e2b7865b3d0d1739c4408eebc6f188fed0cb652080250a507832aef68e",
          "blockNumber": "0xf12e85",
          "gasUsed": "0x8423",
          "effectiveGasPrice": "0x206",
          "from": "0x8454d149beb26e3e3fc5ed1c87fb0b2a1b7b6c2c",
          "to": "0xdaa2cfe13769634ee9df26a0783080cd2b0ed312",
          "contractAddress": null,
          "l1BaseFeeScalar": "0x44d",
          "l1BlobBaseFee": "0x48",
          "l1BlobBaseFeeScalar": "0xa118b",
          "l1Fee": "0x2c3514d436",
          "l1GasPrice": "0x191851c520",
          "l1GasUsed": "0x640"
        },
        {
          "status": "0x1",
          "cumulativeGasUsed": "0x989c9",
          "logs": [],
          "logsBloom": "0x00000000000000000000000000000000000000000000000000000000000000000000000000000000000000000000000000000000000000000000000000000000000000000000000000000000000000000000000000000000000000000000000000000000000000000000000000000000000000000000000000000000000000000000000000000000000000000000000000000000000000000000000000000000000000000000000000000000000000000000000000000000000000000000000000000000000000000000000000000000000000000000000000000000000000000000000000000000000000000000000000000000000000000000000000000000",
          "type": "0x2",
          "transactionHash": "0x28f3158c48894921208b472aace3b7e68f97bbb8eeedfce39ef77a7b33cfdf97",
          "transactionIndex": "0xd",
          "blockHash": "0xe4bed5e2b7865b3d0d1739c4408eebc6f188fed0cb652080250a507832aef68e",
          "blockNumber": "0xf12e85",
          "gasUsed": "0x836d",
          "effectiveGasPrice": "0x206",
          "from": "0x8454d149beb26e3e3fc5ed1c87fb0b2a1b7b6c2c",
          "to": "0xdaa2cfe13769634ee9df26a0783080cd2b0ed312",
          "contractAddress": null,
          "l1BaseFeeScalar": "0x44d",
          "l1BlobBaseFee": "0x48",
          "l1BlobBaseFeeScalar": "0xa118b",
          "l1Fee": "0x2c3514d436",
          "l1GasPrice": "0x191851c520",
          "l1GasUsed": "0x640"
        },
        {
          "status": "0x1",
          "cumulativeGasUsed": "0xa0d4d",
          "logs": [],
          "logsBloom": "0x00000000000000000000000000000000000000000000000000000000000000000000000000000000000000000000000000000000000000000000000000000000000000000000000000000000000000000000000000000000000000000000000000000000000000000000000000000000000000000000000000000000000000000000000000000000000000000000000000000000000000000000000000000000000000000000000000000000000000000000000000000000000000000000000000000000000000000000000000000000000000000000000000000000000000000000000000000000000000000000000000000000000000000000000000000000",
          "type": "0x2",
          "transactionHash": "0xa0c8f1ca18e196d071eeb4af510f02504f07e0717982df8ed5d2d8b27c0784a4",
          "transactionIndex": "0xe",
          "blockHash": "0xe4bed5e2b7865b3d0d1739c4408eebc6f188fed0cb652080250a507832aef68e",
          "blockNumber": "0xf12e85",
          "gasUsed": "0x8384",
          "effectiveGasPrice": "0x206",
          "from": "0x8454d149beb26e3e3fc5ed1c87fb0b2a1b7b6c2c",
          "to": "0xdaa2cfe13769634ee9df26a0783080cd2b0ed312",
          "contractAddress": null,
          "l1BaseFeeScalar": "0x44d",
          "l1BlobBaseFee": "0x48",
          "l1BlobBaseFeeScalar": "0xa118b",
          "l1Fee": "0x2c3514d436",
          "l1GasPrice": "0x191851c520",
          "l1GasUsed": "0x640"
        },
        {
          "status": "0x1",
          "cumulativeGasUsed": "0xb0c2b",
          "logs": [
            {
              "address": "0x7a5203463185c77ed4b7739a542405e5ceadad1f",
              "topics": [
                "0xed4c89b805f4efb58bc4a42b9a3c6f09783f619295a1fa41ab46d6190c8c7f3b",
                "0xe7a050aa00000000000000000000000000000000000000000000000000000000",
                "0x0000000000000000000000000000000000000000000000000000000000064190"
              ],
              "data": "0x",
              "blockHash": "0xe4bed5e2b7865b3d0d1739c4408eebc6f188fed0cb652080250a507832aef68e",
              "blockNumber": "0xf12e85",
              "transactionHash": "0x89e2365990f0a9baa31407b08af18e4aee388e42104676d027dafaa049817241",
              "transactionIndex": "0xf",
              "logIndex": "0x7",
              "removed": false
            },
            {
              "address": "0x7a5203463185c77ed4b7739a542405e5ceadad1f",
              "topics": [
                "0xed4c89b805f4efb58bc4a42b9a3c6f09783f619295a1fa41ab46d6190c8c7f3b",
                "0xcc15a55700000000000000000000000000000000000000000000000000000000",
                "0x0000000000000000000000000000000000000000000000000000000000046cd0"
              ],
              "data": "0x",
              "blockHash": "0xe4bed5e2b7865b3d0d1739c4408eebc6f188fed0cb652080250a507832aef68e",
              "blockNumber": "0xf12e85",
              "transactionHash": "0x89e2365990f0a9baa31407b08af18e4aee388e42104676d027dafaa049817241",
              "transactionIndex": "0xf",
              "logIndex": "0x8",
              "removed": false
            },
            {
              "address": "0x7a5203463185c77ed4b7739a542405e5ceadad1f",
              "topics": [
                "0xed4c89b805f4efb58bc4a42b9a3c6f09783f619295a1fa41ab46d6190c8c7f3b",
                "0x0dd8dd0200000000000000000000000000000000000000000000000000000000",
                "0x000000000000000000000000000000000000000000000000000000000004ce78"
              ],
              "data": "0x",
              "blockHash": "0xe4bed5e2b7865b3d0d1739c4408eebc6f188fed0cb652080250a507832aef68e",
              "blockNumber": "0xf12e85",
              "transactionHash": "0x89e2365990f0a9baa31407b08af18e4aee388e42104676d027dafaa049817241",
              "transactionIndex": "0xf",
              "logIndex": "0x9",
              "removed": false
            },
            {
              "address": "0x7a5203463185c77ed4b7739a542405e5ceadad1f",
              "topics": [
                "0xed4c89b805f4efb58bc4a42b9a3c6f09783f619295a1fa41ab46d6190c8c7f3b",
                "0x60d7faed00000000000000000000000000000000000000000000000000000000",
                "0x0000000000000000000000000000000000000000000000000000000000088b80"
              ],
              "data": "0x",
              "blockHash": "0xe4bed5e2b7865b3d0d1739c4408eebc6f188fed0cb652080250a507832aef68e",
              "blockNumber": "0xf12e85",
              "transactionHash": "0x89e2365990f0a9baa31407b08af18e4aee388e42104676d027dafaa049817241",
              "transactionIndex": "0xf",
              "logIndex": "0xa",
              "removed": false
            },
            {
              "address": "0x7a5203463185c77ed4b7739a542405e5ceadad1f",
              "topics": [
                "0xed4c89b805f4efb58bc4a42b9a3c6f09783f619295a1fa41ab46d6190c8c7f3b",
                "0xeea9064b00000000000000000000000000000000000000000000000000000000",
                "0x0000000000000000000000000000000000000000000000000000000000055730"
              ],
              "data": "0x",
              "blockHash": "0xe4bed5e2b7865b3d0d1739c4408eebc6f188fed0cb652080250a507832aef68e",
              "blockNumber": "0xf12e85",
              "transactionHash": "0x89e2365990f0a9baa31407b08af18e4aee388e42104676d027dafaa049817241",
              "transactionIndex": "0xf",
              "logIndex": "0xb",
              "removed": false
            },
            {
              "address": "0x7a5203463185c77ed4b7739a542405e5ceadad1f",
              "topics": [
                "0xed4c89b805f4efb58bc4a42b9a3c6f09783f619295a1fa41ab46d6190c8c7f3b",
                "0xda8be86400000000000000000000000000000000000000000000000000000000",
                "0x0000000000000000000000000000000000000000000000000000000000053020"
              ],
              "data": "0x",
              "blockHash": "0xe4bed5e2b7865b3d0d1739c4408eebc6f188fed0cb652080250a507832aef68e",
              "blockNumber": "0xf12e85",
              "transactionHash": "0x89e2365990f0a9baa31407b08af18e4aee388e42104676d027dafaa049817241",
              "transactionIndex": "0xf",
              "logIndex": "0xc",
              "removed": false
            },
            {
              "address": "0x7a5203463185c77ed4b7739a542405e5ceadad1f",
              "topics": [
                "0xed4c89b805f4efb58bc4a42b9a3c6f09783f619295a1fa41ab46d6190c8c7f3b",
                "0x3ccc861d00000000000000000000000000000000000000000000000000000000",
                "0x0000000000000000000000000000000000000000000000000000000000083d60"
              ],
              "data": "0x",
              "blockHash": "0xe4bed5e2b7865b3d0d1739c4408eebc6f188fed0cb652080250a507832aef68e",
              "blockNumber": "0xf12e85",
              "transactionHash": "0x89e2365990f0a9baa31407b08af18e4aee388e42104676d027dafaa049817241",
              "transactionIndex": "0xf",
              "logIndex": "0xd",
              "removed": false
            }
          ],
          "logsBloom": "0x0000000100000000004000000000000000000000080000000000000000400000000000000002000000080000004000000000000000000000000020000010000000000000040000000000010000000004000a000000000000080000000000000000000010000200002000000000010000830000000000000000000000000100000000100000800000000000000100000000000000000000000000000000000000001100400000000000000000002000000000000088000000000000000000400600000000000000000008001000010000000200000000000000000000400001000000800000001800000000000000000000002000000000100000010100000000",
          "type": "0x2",
          "transactionHash": "0x89e2365990f0a9baa31407b08af18e4aee388e42104676d027dafaa049817241",
          "transactionIndex": "0xf",
          "blockHash": "0xe4bed5e2b7865b3d0d1739c4408eebc6f188fed0cb652080250a507832aef68e",
          "blockNumber": "0xf12e85",
          "gasUsed": "0xfede",
          "effectiveGasPrice": "0x206",
          "from": "0x8454d149beb26e3e3fc5ed1c87fb0b2a1b7b6c2c",
          "to": "0x7a5203463185c77ed4b7739a542405e5ceadad1f",
          "contractAddress": null,
          "l1BaseFeeScalar": "0x44d",
          "l1BlobBaseFee": "0x48",
          "l1BlobBaseFeeScalar": "0xa118b",
          "l1Fee": "0x4c36123389",
          "l1GasPrice": "0x191851c520",
          "l1GasUsed": "0xac6"
        },
        {
          "status": "0x1",
          "cumulativeGasUsed": "0xb8f1f",
          "logs": [],
          "logsBloom": "0x00000000000000000000000000000000000000000000000000000000000000000000000000000000000000000000000000000000000000000000000000000000000000000000000000000000000000000000000000000000000000000000000000000000000000000000000000000000000000000000000000000000000000000000000000000000000000000000000000000000000000000000000000000000000000000000000000000000000000000000000000000000000000000000000000000000000000000000000000000000000000000000000000000000000000000000000000000000000000000000000000000000000000000000000000000000",
          "type": "0x2",
          "transactionHash": "0x2b36f23dfca656cdc6b3298fcbf9ef7ebf0eb341c6570638e55d31ef6c77b60b",
          "transactionIndex": "0x10",
          "blockHash": "0xe4bed5e2b7865b3d0d1739c4408eebc6f188fed0cb652080250a507832aef68e",
          "blockNumber": "0xf12e85",
          "gasUsed": "0x82f4",
          "effectiveGasPrice": "0x206",
          "from": "0x8454d149beb26e3e3fc5ed1c87fb0b2a1b7b6c2c",
          "to": "0x7a5203463185c77ed4b7739a542405e5ceadad1f",
          "contractAddress": null,
          "l1BaseFeeScalar": "0x44d",
          "l1BlobBaseFee": "0x48",
          "l1BlobBaseFeeScalar": "0xa118b",
          "l1Fee": "0x2c3514d436",
          "l1GasPrice": "0x191851c520",
          "l1GasUsed": "0x640"
        },
        {
          "status": "0x1",
          "cumulativeGasUsed": "0xc0739",
          "logs": [],
          "logsBloom": "0x00000000000000000000000000000000000000000000000000000000000000000000000000000000000000000000000000000000000000000000000000000000000000000000000000000000000000000000000000000000000000000000000000000000000000000000000000000000000000000000000000000000000000000000000000000000000000000000000000000000000000000000000000000000000000000000000000000000000000000000000000000000000000000000000000000000000000000000000000000000000000000000000000000000000000000000000000000000000000000000000000000000000000000000000000000000",
          "type": "0x2",
          "transactionHash": "0x320bbb521aaec99378741dbe1b893b6bc4c560400c9f430198cb641f305fa36d",
          "transactionIndex": "0x11",
          "blockHash": "0xe4bed5e2b7865b3d0d1739c4408eebc6f188fed0cb652080250a507832aef68e",
          "blockNumber": "0xf12e85",
          "gasUsed": "0x781a",
          "effectiveGasPrice": "0x206",
          "from": "0x8454d149beb26e3e3fc5ed1c87fb0b2a1b7b6c2c",
          "to": "0xdaa2cfe13769634ee9df26a0783080cd2b0ed312",
          "contractAddress": null,
          "l1BaseFeeScalar": "0x44d",
          "l1BlobBaseFee": "0x48",
          "l1BlobBaseFeeScalar": "0xa118b",
          "l1Fee": "0x2c3514d436",
          "l1GasPrice": "0x191851c520",
          "l1GasUsed": "0x640"
        },
        {
          "status": "0x1",
          "cumulativeGasUsed": "0xc8166",
          "logs": [],
          "logsBloom": "0x00000000000000000000000000000000000000000000000000000000000000000000000000000000000000000000000000000000000000000000000000000000000000000000000000000000000000000000000000000000000000000000000000000000000000000000000000000000000000000000000000000000000000000000000000000000000000000000000000000000000000000000000000000000000000000000000000000000000000000000000000000000000000000000000000000000000000000000000000000000000000000000000000000000000000000000000000000000000000000000000000000000000000000000000000000000",
          "type": "0x2",
          "transactionHash": "0x923a0a29418d091c1597f77de362fc5886247cf7c69490cca71b0ee0afa47e9c",
          "transactionIndex": "0x12",
          "blockHash": "0xe4bed5e2b7865b3d0d1739c4408eebc6f188fed0cb652080250a507832aef68e",
          "blockNumber": "0xf12e85",
          "gasUsed": "0x7a2d",
          "effectiveGasPrice": "0x206",
          "from": "0x8454d149beb26e3e3fc5ed1c87fb0b2a1b7b6c2c",
          "to": "0xdaa2cfe13769634ee9df26a0783080cd2b0ed312",
          "contractAddress": null,
          "l1BaseFeeScalar": "0x44d",
          "l1BlobBaseFee": "0x48",
          "l1BlobBaseFeeScalar": "0xa118b",
          "l1Fee": "0x2c3514d436",
          "l1GasPrice": "0x191851c520",
          "l1GasUsed": "0x640"
        },
        {
          "status": "0x1",
          "cumulativeGasUsed": "0xcfb36",
          "logs": [],
          "logsBloom": "0x00000000000000000000000000000000000000000000000000000000000000000000000000000000000000000000000000000000000000000000000000000000000000000000000000000000000000000000000000000000000000000000000000000000000000000000000000000000000000000000000000000000000000000000000000000000000000000000000000000000000000000000000000000000000000000000000000000000000000000000000000000000000000000000000000000000000000000000000000000000000000000000000000000000000000000000000000000000000000000000000000000000000000000000000000000000",
          "type": "0x2",
          "transactionHash": "0x257e438faf917348d98a78feea15c89f45ef88fd03da0fa9312ec913847579a9",
          "transactionIndex": "0x13",
          "blockHash": "0xe4bed5e2b7865b3d0d1739c4408eebc6f188fed0cb652080250a507832aef68e",
          "blockNumber": "0xf12e85",
          "gasUsed": "0x79d0",
          "effectiveGasPrice": "0x206",
          "from": "0x8454d149beb26e3e3fc5ed1c87fb0b2a1b7b6c2c",
          "to": "0xdaa2cfe13769634ee9df26a0783080cd2b0ed312",
          "contractAddress": null,
          "l1BaseFeeScalar": "0x44d",
          "l1BlobBaseFee": "0x48",
          "l1BlobBaseFeeScalar": "0xa118b",
          "l1Fee": "0x2c3514d436",
          "l1GasPrice": "0x191851c520",
          "l1GasUsed": "0x640"
        },
        {
          "status": "0x1",
          "cumulativeGasUsed": "0xd7505",
          "logs": [],
          "logsBloom": "0x00000000000000000000000000000000000000000000000000000000000000000000000000000000000000000000000000000000000000000000000000000000000000000000000000000000000000000000000000000000000000000000000000000000000000000000000000000000000000000000000000000000000000000000000000000000000000000000000000000000000000000000000000000000000000000000000000000000000000000000000000000000000000000000000000000000000000000000000000000000000000000000000000000000000000000000000000000000000000000000000000000000000000000000000000000000",
          "type": "0x2",
          "transactionHash": "0x2ffea4047a8756c75d0ec51e2c43b8073c7f1380503c1e63586a74eb041d81e8",
          "transactionIndex": "0x14",
          "blockHash": "0xe4bed5e2b7865b3d0d1739c4408eebc6f188fed0cb652080250a507832aef68e",
          "blockNumber": "0xf12e85",
          "gasUsed": "0x79cf",
          "effectiveGasPrice": "0x206",
          "from": "0x8454d149beb26e3e3fc5ed1c87fb0b2a1b7b6c2c",
          "to": "0xdaa2cfe13769634ee9df26a0783080cd2b0ed312",
          "contractAddress": null,
          "l1BaseFeeScalar": "0x44d",
          "l1BlobBaseFee": "0x48",
          "l1BlobBaseFeeScalar": "0xa118b",
          "l1Fee": "0x2c3514d436",
          "l1GasPrice": "0x191851c520",
          "l1GasUsed": "0x640"
        }
      ],
      "libraries": [],
      "pending": [],
      "returns": {},
      "timestamp": 1727380454,
      "chain": 84532,
      "commit": "4fc7a70"
    },
    {
      "transactions": [
        {
          "hash": "0x5f3762e5b44a9b4584372374dcbeb76e5230d0a02e7b5590d4abf9b21038c5d5",
          "transactionType": "CALL",
          "contractName": null,
          "contractAddress": "0xfde6b8cc33ae01f7696de3c0d3e730f373985134",
          "function": "allowlistSender(address,bool)",
          "arguments": [
            "0xdAA2cfe13769634EE9dF26a0783080Cd2b0ed312",
            "true"
          ],
          "transaction": {
            "from": "0x8454d149beb26e3e3fc5ed1c87fb0b2a1b7b6c2c",
            "to": "0xfde6b8cc33ae01f7696de3c0d3e730f373985134",
            "gas": "0xb664",
            "value": "0x0",
            "input": "0xeab5b02c000000000000000000000000daa2cfe13769634ee9df26a0783080cd2b0ed3120000000000000000000000000000000000000000000000000000000000000001",
            "nonce": "0x747",
            "chainId": "0xaa36a7"
          },
          "additionalContracts": [],
          "isFixedGasLimit": false
        },
        {
          "hash": "0xaf15f164ca784a86b17a9102ae82f097efdddf0ed5475fa06da3925201e230dc",
          "transactionType": "CALL",
          "contractName": null,
          "contractAddress": "0xfde6b8cc33ae01f7696de3c0d3e730f373985134",
          "function": "allowlistSourceChain(uint64,bool)",
          "arguments": [
            "10344971235874465080",
            "true"
          ],
          "transaction": {
            "from": "0x8454d149beb26e3e3fc5ed1c87fb0b2a1b7b6c2c",
            "to": "0xfde6b8cc33ae01f7696de3c0d3e730f373985134",
            "gas": "0xb587",
            "value": "0x0",
            "input": "0xdb04fa490000000000000000000000000000000000000000000000008f90b8876dee65380000000000000000000000000000000000000000000000000000000000000001",
            "nonce": "0x748",
            "chainId": "0xaa36a7"
          },
          "additionalContracts": [],
          "isFixedGasLimit": false
        },
        {
          "hash": "0x96df4c2c552b1391a03562ab08c34d4c310221d7c717e447e68bc5801a893366",
          "transactionType": "CALL",
          "contractName": null,
          "contractAddress": "0xfde6b8cc33ae01f7696de3c0d3e730f373985134",
          "function": "allowlistSourceChain(uint64,bool)",
          "arguments": [
            "16015286601757825753",
            "true"
          ],
          "transaction": {
            "from": "0x8454d149beb26e3e3fc5ed1c87fb0b2a1b7b6c2c",
            "to": "0xfde6b8cc33ae01f7696de3c0d3e730f373985134",
            "gas": "0xb587",
            "value": "0x0",
            "input": "0xdb04fa49000000000000000000000000000000000000000000000000de41ba4fc9d91ad90000000000000000000000000000000000000000000000000000000000000001",
            "nonce": "0x749",
            "chainId": "0xaa36a7"
          },
          "additionalContracts": [],
          "isFixedGasLimit": false
        },
        {
          "hash": "0xb8ce05ee71235d46840cda9712497c221cae605967c2eba6138860286a1d581f",
          "transactionType": "CALL",
          "contractName": null,
          "contractAddress": "0xfde6b8cc33ae01f7696de3c0d3e730f373985134",
          "function": "allowlistDestinationChain(uint64,bool)",
          "arguments": [
            "10344971235874465080",
            "true"
          ],
          "transaction": {
            "from": "0x8454d149beb26e3e3fc5ed1c87fb0b2a1b7b6c2c",
            "to": "0xfde6b8cc33ae01f7696de3c0d3e730f373985134",
            "gas": "0xb602",
            "value": "0x0",
            "input": "0x96d3b83d0000000000000000000000000000000000000000000000008f90b8876dee65380000000000000000000000000000000000000000000000000000000000000001",
            "nonce": "0x74a",
            "chainId": "0xaa36a7"
          },
          "additionalContracts": [],
          "isFixedGasLimit": false
        },
        {
          "hash": "0x7f814975a3d81a469e35373c5e12ac2d6a2f8c1d03f0bf55c9bd93ee343a571a",
          "transactionType": "CALL",
          "contractName": null,
          "contractAddress": "0x5e9da3380737d0f82a463b68c983f72ba2236e13",
          "function": "setGasLimitsForFunctionSelectors(bytes4[],uint256[])",
          "arguments": [
            "[0xd8a85b48]",
            "[270000]"
          ],
          "transaction": {
            "from": "0x8454d149beb26e3e3fc5ed1c87fb0b2a1b7b6c2c",
            "to": "0x5e9da3380737d0f82a463b68c983f72ba2236e13",
            "gas": "0xc7ff",
            "value": "0x0",
            "input": "0x3ef2d377000000000000000000000000000000000000000000000000000000000000004000000000000000000000000000000000000000000000000000000000000000800000000000000000000000000000000000000000000000000000000000000001d8a85b480000000000000000000000000000000000000000000000000000000000000000000000000000000000000000000000000000000000000000000000010000000000000000000000000000000000000000000000000000000000041eb0",
            "nonce": "0x74b",
            "chainId": "0xaa36a7"
          },
          "additionalContracts": [],
          "isFixedGasLimit": false
        },
        {
          "hash": "0x54ab84b6e04b086e8abdd53b6ca8a4f05e5a623cd1d7768a97437bf373693f9d",
          "transactionType": "CALL",
          "contractName": null,
          "contractAddress": "0x9c721bc0aa8475650d21bc45c73797aefed620fb",
          "function": "getAgentFactory()",
          "arguments": [],
          "transaction": {
            "from": "0x8454d149beb26e3e3fc5ed1c87fb0b2a1b7b6c2c",
            "to": "0x9c721bc0aa8475650d21bc45c73797aefed620fb",
            "gas": "0xa602",
            "value": "0x0",
            "input": "0xf3b372de",
            "nonce": "0x74c",
            "chainId": "0xaa36a7"
          },
          "additionalContracts": [],
          "isFixedGasLimit": false
        }
      ],
      "receipts": [
        {
          "status": "0x1",
          "cumulativeGasUsed": "0x105c640",
          "logs": [],
          "logsBloom": "0x00000000000000000000000000000000000000000000000000000000000000000000000000000000000000000000000000000000000000000000000000000000000000000000000000000000000000000000000000000000000000000000000000000000000000000000000000000000000000000000000000000000000000000000000000000000000000000000000000000000000000000000000000000000000000000000000000000000000000000000000000000000000000000000000000000000000000000000000000000000000000000000000000000000000000000000000000000000000000000000000000000000000000000000000000000000",
          "type": "0x2",
          "transactionHash": "0x5f3762e5b44a9b4584372374dcbeb76e5230d0a02e7b5590d4abf9b21038c5d5",
          "transactionIndex": "0x6c",
          "blockHash": "0x3ab6f0d42aeccc12776f109db61c77a47dbf046833929377f91e35f20be077e8",
          "blockNumber": "0x67398e",
          "gasUsed": "0x840d",
          "effectiveGasPrice": "0x137fd00981",
          "from": "0x8454d149beb26e3e3fc5ed1c87fb0b2a1b7b6c2c",
          "to": "0xfde6b8cc33ae01f7696de3c0d3e730f373985134",
          "contractAddress": null
        },
        {
          "status": "0x1",
          "cumulativeGasUsed": "0x10649ad",
          "logs": [],
          "logsBloom": "0x00000000000000000000000000000000000000000000000000000000000000000000000000000000000000000000000000000000000000000000000000000000000000000000000000000000000000000000000000000000000000000000000000000000000000000000000000000000000000000000000000000000000000000000000000000000000000000000000000000000000000000000000000000000000000000000000000000000000000000000000000000000000000000000000000000000000000000000000000000000000000000000000000000000000000000000000000000000000000000000000000000000000000000000000000000000",
          "type": "0x2",
          "transactionHash": "0xaf15f164ca784a86b17a9102ae82f097efdddf0ed5475fa06da3925201e230dc",
          "transactionIndex": "0x6d",
          "blockHash": "0x3ab6f0d42aeccc12776f109db61c77a47dbf046833929377f91e35f20be077e8",
          "blockNumber": "0x67398e",
          "gasUsed": "0x836d",
          "effectiveGasPrice": "0x137fd00981",
          "from": "0x8454d149beb26e3e3fc5ed1c87fb0b2a1b7b6c2c",
          "to": "0xfde6b8cc33ae01f7696de3c0d3e730f373985134",
          "contractAddress": null
        },
        {
          "status": "0x1",
          "cumulativeGasUsed": "0x108df42",
          "logs": [],
          "logsBloom": "0x00000000000000000000000000000000000000000000000000000000000000000000000000000000000000000000000000000000000000000000000000000000000000000000000000000000000000000000000000000000000000000000000000000000000000000000000000000000000000000000000000000000000000000000000000000000000000000000000000000000000000000000000000000000000000000000000000000000000000000000000000000000000000000000000000000000000000000000000000000000000000000000000000000000000000000000000000000000000000000000000000000000000000000000000000000000",
          "type": "0x2",
          "transactionHash": "0x96df4c2c552b1391a03562ab08c34d4c310221d7c717e447e68bc5801a893366",
          "transactionIndex": "0x6f",
          "blockHash": "0x3ab6f0d42aeccc12776f109db61c77a47dbf046833929377f91e35f20be077e8",
          "blockNumber": "0x67398e",
          "gasUsed": "0x836d",
          "effectiveGasPrice": "0x137fd00981",
          "from": "0x8454d149beb26e3e3fc5ed1c87fb0b2a1b7b6c2c",
          "to": "0xfde6b8cc33ae01f7696de3c0d3e730f373985134",
          "contractAddress": null
        },
        {
          "status": "0x1",
          "cumulativeGasUsed": "0x1096308",
          "logs": [],
          "logsBloom": "0x00000000000000000000000000000000000000000000000000000000000000000000000000000000000000000000000000000000000000000000000000000000000000000000000000000000000000000000000000000000000000000000000000000000000000000000000000000000000000000000000000000000000000000000000000000000000000000000000000000000000000000000000000000000000000000000000000000000000000000000000000000000000000000000000000000000000000000000000000000000000000000000000000000000000000000000000000000000000000000000000000000000000000000000000000000000",
          "type": "0x2",
          "transactionHash": "0xb8ce05ee71235d46840cda9712497c221cae605967c2eba6138860286a1d581f",
          "transactionIndex": "0x70",
          "blockHash": "0x3ab6f0d42aeccc12776f109db61c77a47dbf046833929377f91e35f20be077e8",
          "blockNumber": "0x67398e",
          "gasUsed": "0x83c6",
          "effectiveGasPrice": "0x137fd00981",
          "from": "0x8454d149beb26e3e3fc5ed1c87fb0b2a1b7b6c2c",
          "to": "0xfde6b8cc33ae01f7696de3c0d3e730f373985134",
          "contractAddress": null
        },
        {
          "status": "0x1",
          "cumulativeGasUsed": "0x109f3d4",
          "logs": [
            {
              "address": "0x5e9da3380737d0f82a463b68c983f72ba2236e13",
              "topics": [
                "0xed4c89b805f4efb58bc4a42b9a3c6f09783f619295a1fa41ab46d6190c8c7f3b",
                "0xd8a85b4800000000000000000000000000000000000000000000000000000000",
                "0x0000000000000000000000000000000000000000000000000000000000041eb0"
              ],
              "data": "0x",
              "blockHash": "0x3ab6f0d42aeccc12776f109db61c77a47dbf046833929377f91e35f20be077e8",
              "blockNumber": "0x67398e",
              "transactionHash": "0x7f814975a3d81a469e35373c5e12ac2d6a2f8c1d03f0bf55c9bd93ee343a571a",
              "transactionIndex": "0x71",
              "logIndex": "0xea",
              "removed": false
            }
          ],
          "logsBloom": "0x00000000000000000040000000000000000000000800000000000000000000000000000000000000000000000000000000000000002000000000000000000000000000020000000008000000000000000000000000800000000000000000000000000000000000000000000000000000800000000000040000000000000000000000000000000000000000001000000000000000000000000000000000000000000000000000000000010000100000000000000000000000000000000000000000000000000000000000000000000000000000000000000000000000000000000000000000000000000000000000000000000000000000000000000000800000",
          "type": "0x2",
          "transactionHash": "0x7f814975a3d81a469e35373c5e12ac2d6a2f8c1d03f0bf55c9bd93ee343a571a",
          "transactionIndex": "0x71",
          "blockHash": "0x3ab6f0d42aeccc12776f109db61c77a47dbf046833929377f91e35f20be077e8",
          "blockNumber": "0x67398e",
          "gasUsed": "0x90cc",
          "effectiveGasPrice": "0x137fd00981",
          "from": "0x8454d149beb26e3e3fc5ed1c87fb0b2a1b7b6c2c",
          "to": "0x5e9da3380737d0f82a463b68c983f72ba2236e13",
          "contractAddress": null
        },
        {
          "status": "0x1",
          "cumulativeGasUsed": "0x10a6c04",
          "logs": [],
          "logsBloom": "0x00000000000000000000000000000000000000000000000000000000000000000000000000000000000000000000000000000000000000000000000000000000000000000000000000000000000000000000000000000000000000000000000000000000000000000000000000000000000000000000000000000000000000000000000000000000000000000000000000000000000000000000000000000000000000000000000000000000000000000000000000000000000000000000000000000000000000000000000000000000000000000000000000000000000000000000000000000000000000000000000000000000000000000000000000000000",
          "type": "0x2",
          "transactionHash": "0x54ab84b6e04b086e8abdd53b6ca8a4f05e5a623cd1d7768a97437bf373693f9d",
          "transactionIndex": "0x72",
          "blockHash": "0x3ab6f0d42aeccc12776f109db61c77a47dbf046833929377f91e35f20be077e8",
          "blockNumber": "0x67398e",
          "gasUsed": "0x7830",
          "effectiveGasPrice": "0x137fd00981",
          "from": "0x8454d149beb26e3e3fc5ed1c87fb0b2a1b7b6c2c",
          "to": "0x9c721bc0aa8475650d21bc45c73797aefed620fb",
          "contractAddress": null
        }
      ],
      "libraries": [],
      "pending": [],
      "returns": {},
      "timestamp": 1727380455,
      "chain": 11155111,
      "commit": "4fc7a70"
    }
  ],
  "timestamp": 1727380482
}