{
  "deployments": [
    {
      "transactions": [
        {
          "hash": "0x817f71055da53a117ef76dba6af5fb7060c4d1fedf264aa14c81110c0b8b0ed9",
          "transactionType": "CALL",
          "contractName": null,
          "contractAddress": "0x07e29ea01191e7b3d59262b87d92e1566f23e63f",
          "function": "allowlistSender(address,bool)",
          "arguments": [
            "0xA8c0EE1F20dB89515e010E3D2ECafa09bEfA73E7",
            "true"
          ],
          "transaction": {
            "from": "0x8454d149beb26e3e3fc5ed1c87fb0b2a1b7b6c2c",
            "to": "0x07e29ea01191e7b3d59262b87d92e1566f23e63f",
            "gas": "0xb25f",
            "value": "0x0",
            "input": "0xeab5b02c000000000000000000000000a8c0ee1f20db89515e010e3d2ecafa09befa73e70000000000000000000000000000000000000000000000000000000000000001",
            "nonce": "0x577",
            "chainId": "0x14a34"
          },
          "additionalContracts": [],
          "isFixedGasLimit": false
        },
        {
          "hash": "0xb703c169d052a5d21c296fb8ccd23e9879f3895171157320a3021f62a3298741",
          "transactionType": "CALL",
          "contractName": null,
          "contractAddress": "0x07e29ea01191e7b3d59262b87d92e1566f23e63f",
          "function": "allowlistSourceChain(uint64,bool)",
          "arguments": [
            "10344971235874465080",
            "true"
          ],
          "transaction": {
            "from": "0x8454d149beb26e3e3fc5ed1c87fb0b2a1b7b6c2c",
            "to": "0x07e29ea01191e7b3d59262b87d92e1566f23e63f",
            "gas": "0x12d83",
            "value": "0x0",
            "input": "0xdb04fa490000000000000000000000000000000000000000000000008f90b8876dee65380000000000000000000000000000000000000000000000000000000000000001",
            "nonce": "0x578",
            "chainId": "0x14a34"
          },
          "additionalContracts": [],
          "isFixedGasLimit": false
        },
        {
          "hash": "0x33a83324ee482cc87da78b05cc5829f665c970b1a72c1967e44691a8a5ec1c7b",
          "transactionType": "CALL",
          "contractName": null,
          "contractAddress": "0x07e29ea01191e7b3d59262b87d92e1566f23e63f",
          "function": "allowlistDestinationChain(uint64,bool)",
          "arguments": [
            "7717148896336251131",
            "true"
          ],
          "transaction": {
            "from": "0x8454d149beb26e3e3fc5ed1c87fb0b2a1b7b6c2c",
            "to": "0x07e29ea01191e7b3d59262b87d92e1566f23e63f",
            "gas": "0xb170",
            "value": "0x0",
            "input": "0x96d3b83d0000000000000000000000000000000000000000000000006b18d208b4eb88fb0000000000000000000000000000000000000000000000000000000000000001",
            "nonce": "0x579",
            "chainId": "0x14a34"
          },
          "additionalContracts": [],
          "isFixedGasLimit": false
        },
        {
          "hash": "0xc40d411d4149880f404e71d6802319d8d50629244605902793ef9224668dea74",
          "transactionType": "CALL",
          "contractName": null,
          "contractAddress": "0x594abd792f60459fa6cbd1e99c7c8cc9265c8aa3",
          "function": "setGasLimitsForFunctionSelectors(bytes4[],uint256[])",
          "arguments": [
            "[0xe7a050aa, 0xcc15a557, 0x0dd8dd02, 0x60d7faed, 0xeea9064b, 0xda8be864, 0x3ccc861d]",
            "[410000, 290000, 315000, 560000, 350000, 340000, 540000]"
          ],
          "transaction": {
            "from": "0x8454d149beb26e3e3fc5ed1c87fb0b2a1b7b6c2c",
            "to": "0x594abd792f60459fa6cbd1e99c7c8cc9265c8aa3",
            "gas": "0x48f5a",
            "value": "0x0",
            "input": "0x3ef2d377000000000000000000000000000000000000000000000000000000000000004000000000000000000000000000000000000000000000000000000000000001400000000000000000000000000000000000000000000000000000000000000007e7a050aa00000000000000000000000000000000000000000000000000000000cc15a557000000000000000000000000000000000000000000000000000000000dd8dd020000000000000000000000000000000000000000000000000000000060d7faed00000000000000000000000000000000000000000000000000000000eea9064b00000000000000000000000000000000000000000000000000000000da8be864000000000000000000000000000000000000000000000000000000003ccc861d00000000000000000000000000000000000000000000000000000000000000000000000000000000000000000000000000000000000000000000000700000000000000000000000000000000000000000000000000000000000641900000000000000000000000000000000000000000000000000000000000046cd0000000000000000000000000000000000000000000000000000000000004ce780000000000000000000000000000000000000000000000000000000000088b80000000000000000000000000000000000000000000000000000000000005573000000000000000000000000000000000000000000000000000000000000530200000000000000000000000000000000000000000000000000000000000083d60",
            "nonce": "0x57a",
            "chainId": "0x14a34"
          },
          "additionalContracts": [],
          "isFixedGasLimit": false
        },
        {
          "hash": "0x6b9ee9114831f5a7175531aec1886a003cb5bd1e2a06b6f76097a841ad854014",
          "transactionType": "CALL",
          "contractName": null,
          "contractAddress": "0x594abd792f60459fa6cbd1e99c7c8cc9265c8aa3",
          "function": "setSenderCCIP(address)",
          "arguments": [
            "0x07e29ea01191E7B3d59262B87d92e1566f23E63F"
          ],
          "transaction": {
            "from": "0x8454d149beb26e3e3fc5ed1c87fb0b2a1b7b6c2c",
            "to": "0x594abd792f60459fa6cbd1e99c7c8cc9265c8aa3",
            "gas": "0xbb63",
            "value": "0x0",
            "input": "0xd8d6c31a00000000000000000000000007e29ea01191e7b3d59262b87d92e1566f23e63f",
            "nonce": "0x57b",
            "chainId": "0x14a34"
          },
          "additionalContracts": [],
          "isFixedGasLimit": false
        },
        {
          "hash": "0x5d225d0559bd1a59ea9282008db089983152457f73111820f291c65b10da5a2d",
          "transactionType": "CALL",
          "contractName": null,
          "contractAddress": "0x07e29ea01191e7b3d59262b87d92e1566f23e63f",
          "function": "getSenderHooks()",
          "arguments": [],
          "transaction": {
            "from": "0x8454d149beb26e3e3fc5ed1c87fb0b2a1b7b6c2c",
            "to": "0x07e29ea01191e7b3d59262b87d92e1566f23e63f",
            "gas": "0x99bd",
            "value": "0x0",
            "input": "0xe09df825",
            "nonce": "0x57c",
            "chainId": "0x14a34"
          },
          "additionalContracts": [],
          "isFixedGasLimit": false
        },
        {
          "hash": "0x025581bf1a12d1a31c657467f81c8f1e5eb4c8cc296cd281f75c8a5ec9f61ce8",
          "transactionType": "CALL",
          "contractName": null,
          "contractAddress": "0x07e29ea01191e7b3d59262b87d92e1566f23e63f",
          "function": "allowlistedSenders(address)",
          "arguments": [
            "0xA8c0EE1F20dB89515e010E3D2ECafa09bEfA73E7"
          ],
          "transaction": {
            "from": "0x8454d149beb26e3e3fc5ed1c87fb0b2a1b7b6c2c",
            "to": "0x07e29ea01191e7b3d59262b87d92e1566f23e63f",
            "gas": "0x9cf8",
            "value": "0x0",
            "input": "0x6159ada1000000000000000000000000a8c0ee1f20db89515e010e3d2ecafa09befa73e7",
            "nonce": "0x57d",
            "chainId": "0x14a34"
          },
          "additionalContracts": [],
          "isFixedGasLimit": false
        },
        {
          "hash": "0x7fee62b2c02a443d3189fe8a6a4c5b3c0103f926338f14c45132fbb7a21c2351",
          "transactionType": "CALL",
          "contractName": null,
          "contractAddress": "0x07e29ea01191e7b3d59262b87d92e1566f23e63f",
          "function": "allowlistedSourceChains(uint64)",
          "arguments": [
            "7717148896336251131"
          ],
          "transaction": {
            "from": "0x8454d149beb26e3e3fc5ed1c87fb0b2a1b7b6c2c",
            "to": "0x07e29ea01191e7b3d59262b87d92e1566f23e63f",
            "gas": "0x9c1b",
            "value": "0x0",
            "input": "0x4030d5210000000000000000000000000000000000000000000000006b18d208b4eb88fb",
            "nonce": "0x57e",
            "chainId": "0x14a34"
          },
          "additionalContracts": [],
          "isFixedGasLimit": false
        },
        {
          "hash": "0x2efb93790a2ca32f180c256edd265f3dadfe6357fd4e5982432ac80051fb9ae8",
          "transactionType": "CALL",
          "contractName": null,
          "contractAddress": "0x07e29ea01191e7b3d59262b87d92e1566f23e63f",
          "function": "allowlistedDestinationChains(uint64)",
          "arguments": [
            "7717148896336251131"
          ],
          "transaction": {
            "from": "0x8454d149beb26e3e3fc5ed1c87fb0b2a1b7b6c2c",
            "to": "0x07e29ea01191e7b3d59262b87d92e1566f23e63f",
            "gas": "0x9c1d",
            "value": "0x0",
            "input": "0x75c67c660000000000000000000000000000000000000000000000006b18d208b4eb88fb",
            "nonce": "0x57f",
            "chainId": "0x14a34"
          },
          "additionalContracts": [],
          "isFixedGasLimit": false
        }
      ],
      "receipts": [
        {
          "status": "0x1",
          "cumulativeGasUsed": "0x2531c2",
          "logs": [
            {
              "address": "0x07e29ea01191e7b3d59262b87d92e1566f23e63f",
              "topics": [
                "0x13ec608dff3163d79dd89cf72252bb9730da1480d4b9bf86ea034aef1571e040",
                "0x000000000000000000000000a8c0ee1f20db89515e010e3d2ecafa09befa73e7"
              ],
              "data": "0x0000000000000000000000000000000000000000000000000000000000000001",
              "blockHash": "0x5f325026dd3d8789a45cd327ec44243890c53b6927a0e45b738e887db5bc0ece",
              "blockNumber": "0x159b7f3",
              "transactionHash": "0x817f71055da53a117ef76dba6af5fb7060c4d1fedf264aa14c81110c0b8b0ed9",
              "transactionIndex": "0x15",
              "logIndex": "0x32",
              "removed": false
            }
          ],
          "logsBloom": "0x00000004000000000000000000000000000000000000000000000000000000000000000000000000000000000000000000000000000000000000000000000000000000080000000000000000000000000000000000000000000000000000000000000000000400000000000800000000000000000000000000000000000000000000000000010000000000000000000000000000000000000000000004000000000000000000000000000000000000000000000000000000000000000000000000000000000000000000000000000000000020000000080000000000000000000000000000000000000000000000000000000000000000000400000000000000",
          "type": "0x2",
          "transactionHash": "0x817f71055da53a117ef76dba6af5fb7060c4d1fedf264aa14c81110c0b8b0ed9",
          "transactionIndex": "0x15",
          "blockHash": "0x5f325026dd3d8789a45cd327ec44243890c53b6927a0e45b738e887db5bc0ece",
          "blockNumber": "0x159b7f3",
          "gasUsed": "0x8124",
          "effectiveGasPrice": "0xa7bba",
          "from": "0x8454d149beb26e3e3fc5ed1c87fb0b2a1b7b6c2c",
          "to": "0x07e29ea01191e7b3d59262b87d92e1566f23e63f",
          "contractAddress": null,
          "l1BaseFeeScalar": "0x44d",
          "l1BlobBaseFee": "0x2823160edc",
          "l1BlobBaseFeeScalar": "0xa118b",
          "l1Fee": "0xa5cc09e4df9",
          "l1GasPrice": "0x27195ba95",
          "l1GasUsed": "0x640"
        },
        {
          "status": "0x1",
          "cumulativeGasUsed": "0x25ffec",
          "logs": [
            {
              "address": "0x07e29ea01191e7b3d59262b87d92e1566f23e63f",
              "topics": [
                "0xa5f858f3914e62a82af355192513d8dbc618ff9815e7213a71930d8996a3cb82",
                "0x0000000000000000000000000000000000000000000000008f90b8876dee6538"
              ],
              "data": "0x0000000000000000000000000000000000000000000000000000000000000001",
              "blockHash": "0x5f325026dd3d8789a45cd327ec44243890c53b6927a0e45b738e887db5bc0ece",
              "blockNumber": "0x159b7f3",
              "transactionHash": "0xb703c169d052a5d21c296fb8ccd23e9879f3895171157320a3021f62a3298741",
              "transactionIndex": "0x16",
              "logIndex": "0x33",
              "removed": false
            }
          ],
          "logsBloom": "0x00000000000000000000020000000000000000000000000000000000000000000000000000000000000000000000000000000000000000000000000000000000000000080000000000000000000000000000000400000000000000000000200000000000000000000000100000000000000000000000000000000000000000004000000000010000000000000000000000000000000000000000000000000000000000000000000000000000000000000000000000000000000000000000000000000000000000000000000000000000000000000000080000000000000000000000000000000001000000000000000000000000000000000000000000000000",
          "type": "0x2",
          "transactionHash": "0xb703c169d052a5d21c296fb8ccd23e9879f3895171157320a3021f62a3298741",
          "transactionIndex": "0x16",
          "blockHash": "0x5f325026dd3d8789a45cd327ec44243890c53b6927a0e45b738e887db5bc0ece",
          "blockNumber": "0x159b7f3",
          "gasUsed": "0xce2a",
          "effectiveGasPrice": "0xa7bba",
          "from": "0x8454d149beb26e3e3fc5ed1c87fb0b2a1b7b6c2c",
          "to": "0x07e29ea01191e7b3d59262b87d92e1566f23e63f",
          "contractAddress": null,
          "l1BaseFeeScalar": "0x44d",
          "l1BlobBaseFee": "0x2823160edc",
          "l1BlobBaseFeeScalar": "0xa118b",
          "l1Fee": "0xa5cc09e4df9",
          "l1GasPrice": "0x27195ba95",
          "l1GasUsed": "0x640"
        },
        {
          "status": "0x1",
          "cumulativeGasUsed": "0x268063",
          "logs": [
            {
              "address": "0x07e29ea01191e7b3d59262b87d92e1566f23e63f",
              "topics": [
                "0x79e93956b5c7b59cb1d0aaa5849af9993c5b994c44b148b1944f4e4ecf1e9b89",
                "0x0000000000000000000000000000000000000000000000006b18d208b4eb88fb"
              ],
              "data": "0x0000000000000000000000000000000000000000000000000000000000000001",
              "blockHash": "0x5f325026dd3d8789a45cd327ec44243890c53b6927a0e45b738e887db5bc0ece",
              "blockNumber": "0x159b7f3",
              "transactionHash": "0x33a83324ee482cc87da78b05cc5829f665c970b1a72c1967e44691a8a5ec1c7b",
              "transactionIndex": "0x17",
              "logIndex": "0x34",
              "removed": false
            }
          ],
          "logsBloom": "0x00000000000000000000000000000000800000040000000000000000000000000000000000000000000000000000000000000000000000000000000000000000000000080008000000200000000000000000000000000000000000000000000000000000000000000000000000000000000000000000000000000000000000000000000000010000000000000000000000000000000000000000000000000000000000000000000000000000000000000000000000000000000000100000000000000000000000000000000000000000000000000000080000000000000000000000000000000000000000000000000040000000000000000000000000000000",
          "type": "0x2",
          "transactionHash": "0x33a83324ee482cc87da78b05cc5829f665c970b1a72c1967e44691a8a5ec1c7b",
          "transactionIndex": "0x17",
          "blockHash": "0x5f325026dd3d8789a45cd327ec44243890c53b6927a0e45b738e887db5bc0ece",
          "blockNumber": "0x159b7f3",
          "gasUsed": "0x8077",
          "effectiveGasPrice": "0xa7bba",
          "from": "0x8454d149beb26e3e3fc5ed1c87fb0b2a1b7b6c2c",
          "to": "0x07e29ea01191e7b3d59262b87d92e1566f23e63f",
          "contractAddress": null,
          "l1BaseFeeScalar": "0x44d",
          "l1BlobBaseFee": "0x2823160edc",
          "l1BlobBaseFeeScalar": "0xa118b",
          "l1Fee": "0xa5cc09e4df9",
          "l1GasPrice": "0x27195ba95",
          "l1GasUsed": "0x640"
        },
        {
          "status": "0x1",
          "cumulativeGasUsed": "0x299e94",
          "logs": [
            {
              "address": "0x594abd792f60459fa6cbd1e99c7c8cc9265c8aa3",
              "topics": [
                "0xed4c89b805f4efb58bc4a42b9a3c6f09783f619295a1fa41ab46d6190c8c7f3b",
                "0xe7a050aa00000000000000000000000000000000000000000000000000000000",
                "0x0000000000000000000000000000000000000000000000000000000000064190"
              ],
              "data": "0x",
              "blockHash": "0x5f325026dd3d8789a45cd327ec44243890c53b6927a0e45b738e887db5bc0ece",
              "blockNumber": "0x159b7f3",
              "transactionHash": "0xc40d411d4149880f404e71d6802319d8d50629244605902793ef9224668dea74",
              "transactionIndex": "0x18",
              "logIndex": "0x35",
              "removed": false
            },
            {
              "address": "0x594abd792f60459fa6cbd1e99c7c8cc9265c8aa3",
              "topics": [
                "0xed4c89b805f4efb58bc4a42b9a3c6f09783f619295a1fa41ab46d6190c8c7f3b",
                "0xcc15a55700000000000000000000000000000000000000000000000000000000",
                "0x0000000000000000000000000000000000000000000000000000000000046cd0"
              ],
              "data": "0x",
              "blockHash": "0x5f325026dd3d8789a45cd327ec44243890c53b6927a0e45b738e887db5bc0ece",
              "blockNumber": "0x159b7f3",
              "transactionHash": "0xc40d411d4149880f404e71d6802319d8d50629244605902793ef9224668dea74",
              "transactionIndex": "0x18",
              "logIndex": "0x36",
              "removed": false
            },
            {
              "address": "0x594abd792f60459fa6cbd1e99c7c8cc9265c8aa3",
              "topics": [
                "0xed4c89b805f4efb58bc4a42b9a3c6f09783f619295a1fa41ab46d6190c8c7f3b",
                "0x0dd8dd0200000000000000000000000000000000000000000000000000000000",
                "0x000000000000000000000000000000000000000000000000000000000004ce78"
              ],
              "data": "0x",
              "blockHash": "0x5f325026dd3d8789a45cd327ec44243890c53b6927a0e45b738e887db5bc0ece",
              "blockNumber": "0x159b7f3",
              "transactionHash": "0xc40d411d4149880f404e71d6802319d8d50629244605902793ef9224668dea74",
              "transactionIndex": "0x18",
              "logIndex": "0x37",
              "removed": false
            },
            {
              "address": "0x594abd792f60459fa6cbd1e99c7c8cc9265c8aa3",
              "topics": [
                "0xed4c89b805f4efb58bc4a42b9a3c6f09783f619295a1fa41ab46d6190c8c7f3b",
                "0x60d7faed00000000000000000000000000000000000000000000000000000000",
                "0x0000000000000000000000000000000000000000000000000000000000088b80"
              ],
              "data": "0x",
              "blockHash": "0x5f325026dd3d8789a45cd327ec44243890c53b6927a0e45b738e887db5bc0ece",
              "blockNumber": "0x159b7f3",
              "transactionHash": "0xc40d411d4149880f404e71d6802319d8d50629244605902793ef9224668dea74",
              "transactionIndex": "0x18",
              "logIndex": "0x38",
              "removed": false
            },
            {
              "address": "0x594abd792f60459fa6cbd1e99c7c8cc9265c8aa3",
              "topics": [
                "0xed4c89b805f4efb58bc4a42b9a3c6f09783f619295a1fa41ab46d6190c8c7f3b",
                "0xeea9064b00000000000000000000000000000000000000000000000000000000",
                "0x0000000000000000000000000000000000000000000000000000000000055730"
              ],
              "data": "0x",
              "blockHash": "0x5f325026dd3d8789a45cd327ec44243890c53b6927a0e45b738e887db5bc0ece",
              "blockNumber": "0x159b7f3",
              "transactionHash": "0xc40d411d4149880f404e71d6802319d8d50629244605902793ef9224668dea74",
              "transactionIndex": "0x18",
              "logIndex": "0x39",
              "removed": false
            },
            {
              "address": "0x594abd792f60459fa6cbd1e99c7c8cc9265c8aa3",
              "topics": [
                "0xed4c89b805f4efb58bc4a42b9a3c6f09783f619295a1fa41ab46d6190c8c7f3b",
                "0xda8be86400000000000000000000000000000000000000000000000000000000",
                "0x0000000000000000000000000000000000000000000000000000000000053020"
              ],
              "data": "0x",
              "blockHash": "0x5f325026dd3d8789a45cd327ec44243890c53b6927a0e45b738e887db5bc0ece",
              "blockNumber": "0x159b7f3",
              "transactionHash": "0xc40d411d4149880f404e71d6802319d8d50629244605902793ef9224668dea74",
              "transactionIndex": "0x18",
              "logIndex": "0x3a",
              "removed": false
            },
            {
              "address": "0x594abd792f60459fa6cbd1e99c7c8cc9265c8aa3",
              "topics": [
                "0xed4c89b805f4efb58bc4a42b9a3c6f09783f619295a1fa41ab46d6190c8c7f3b",
                "0x3ccc861d00000000000000000000000000000000000000000000000000000000",
                "0x0000000000000000000000000000000000000000000000000000000000083d60"
              ],
              "data": "0x",
              "blockHash": "0x5f325026dd3d8789a45cd327ec44243890c53b6927a0e45b738e887db5bc0ece",
              "blockNumber": "0x159b7f3",
              "transactionHash": "0xc40d411d4149880f404e71d6802319d8d50629244605902793ef9224668dea74",
              "transactionIndex": "0x18",
              "logIndex": "0x3b",
              "removed": false
            }
          ],
          "logsBloom": "0x0000000100000000004000000000000000000000080000000000000000400000000000000002000000080000004000000000000000000000000020000010000000000000040000000000010000000004000a000000000000080000000000000000000010000000002000000000010000830008000000000000000000000100000000100000800000000000000100000000000000000000000000000000000000005000400000000000000000002000000000000088000000000000000000400400000000000000000008001000010000000200002000000000000000400001000000800000001800000000000000000000002000000000100000010100000000",
          "type": "0x2",
          "transactionHash": "0xc40d411d4149880f404e71d6802319d8d50629244605902793ef9224668dea74",
          "transactionIndex": "0x18",
          "blockHash": "0x5f325026dd3d8789a45cd327ec44243890c53b6927a0e45b738e887db5bc0ece",
          "blockNumber": "0x159b7f3",
          "gasUsed": "0x31e31",
          "effectiveGasPrice": "0xa7bba",
          "from": "0x8454d149beb26e3e3fc5ed1c87fb0b2a1b7b6c2c",
          "to": "0x594abd792f60459fa6cbd1e99c7c8cc9265c8aa3",
          "contractAddress": null,
          "l1BaseFeeScalar": "0x44d",
          "l1BlobBaseFee": "0x2823160edc",
          "l1BlobBaseFeeScalar": "0xa118b",
          "l1Fee": "0x12099725e423",
          "l1GasPrice": "0x27195ba95",
          "l1GasUsed": "0xae1"
        },
        {
          "status": "0x1",
          "cumulativeGasUsed": "0x2a1eb5",
          "logs": [
            {
              "address": "0x594abd792f60459fa6cbd1e99c7c8cc9265c8aa3",
              "topics": [
                "0xc200bc994a6761c6c93718eb06df928b16dca3e77b7ce283d09852e260c9b2da",
                "0x00000000000000000000000007e29ea01191e7b3d59262b87d92e1566f23e63f"
              ],
              "data": "0x",
              "blockHash": "0x5f325026dd3d8789a45cd327ec44243890c53b6927a0e45b738e887db5bc0ece",
              "blockNumber": "0x159b7f3",
              "transactionHash": "0x6b9ee9114831f5a7175531aec1886a003cb5bd1e2a06b6f76097a841ad854014",
              "transactionIndex": "0x19",
              "logIndex": "0x3c",
              "removed": false
            }
          ],
          "logsBloom": "0x00000000000000000100000000000000000000000000000000000000000000000000000000000000000000000000000000000000000000000000000000000000000000000000000000000000000000000000000000000000000000000000000000000000000000000000000000000000000008000000000000000000000000000000000000000000000000000000000000000000000000000000000000000000104000080000000000000000000000000000002000000000000000000000000000000000000000000000000000000000000020002000000000000000000000000000000000000000000000000000000000000000000000000000000000100000",
          "type": "0x2",
          "transactionHash": "0x6b9ee9114831f5a7175531aec1886a003cb5bd1e2a06b6f76097a841ad854014",
          "transactionIndex": "0x19",
          "blockHash": "0x5f325026dd3d8789a45cd327ec44243890c53b6927a0e45b738e887db5bc0ece",
          "blockNumber": "0x159b7f3",
          "gasUsed": "0x8021",
          "effectiveGasPrice": "0xa7bba",
          "from": "0x8454d149beb26e3e3fc5ed1c87fb0b2a1b7b6c2c",
          "to": "0x594abd792f60459fa6cbd1e99c7c8cc9265c8aa3",
          "contractAddress": null,
          "l1BaseFeeScalar": "0x44d",
          "l1BlobBaseFee": "0x2823160edc",
          "l1BlobBaseFeeScalar": "0xa118b",
          "l1Fee": "0xa5cc09e4df9",
          "l1GasPrice": "0x27195ba95",
          "l1GasUsed": "0x640"
        },
        {
          "status": "0x1",
          "cumulativeGasUsed": "0x2a8e04",
          "logs": [],
          "logsBloom": "0x00000000000000000000000000000000000000000000000000000000000000000000000000000000000000000000000000000000000000000000000000000000000000000000000000000000000000000000000000000000000000000000000000000000000000000000000000000000000000000000000000000000000000000000000000000000000000000000000000000000000000000000000000000000000000000000000000000000000000000000000000000000000000000000000000000000000000000000000000000000000000000000000000000000000000000000000000000000000000000000000000000000000000000000000000000000",
          "type": "0x2",
          "transactionHash": "0x5d225d0559bd1a59ea9282008db089983152457f73111820f291c65b10da5a2d",
          "transactionIndex": "0x1a",
          "blockHash": "0x5f325026dd3d8789a45cd327ec44243890c53b6927a0e45b738e887db5bc0ece",
          "blockNumber": "0x159b7f3",
          "gasUsed": "0x6f4f",
          "effectiveGasPrice": "0xa7bba",
          "from": "0x8454d149beb26e3e3fc5ed1c87fb0b2a1b7b6c2c",
          "to": "0x07e29ea01191e7b3d59262b87d92e1566f23e63f",
          "contractAddress": null,
          "l1BaseFeeScalar": "0x44d",
          "l1BlobBaseFee": "0x2823160edc",
          "l1BlobBaseFeeScalar": "0xa118b",
          "l1Fee": "0xa5cc09e4df9",
          "l1GasPrice": "0x27195ba95",
          "l1GasUsed": "0x640"
        },
        {
          "status": "0x1",
          "cumulativeGasUsed": "0x2affa9",
          "logs": [],
          "logsBloom": "0x00000000000000000000000000000000000000000000000000000000000000000000000000000000000000000000000000000000000000000000000000000000000000000000000000000000000000000000000000000000000000000000000000000000000000000000000000000000000000000000000000000000000000000000000000000000000000000000000000000000000000000000000000000000000000000000000000000000000000000000000000000000000000000000000000000000000000000000000000000000000000000000000000000000000000000000000000000000000000000000000000000000000000000000000000000000",
          "type": "0x2",
          "transactionHash": "0x025581bf1a12d1a31c657467f81c8f1e5eb4c8cc296cd281f75c8a5ec9f61ce8",
          "transactionIndex": "0x1b",
          "blockHash": "0x5f325026dd3d8789a45cd327ec44243890c53b6927a0e45b738e887db5bc0ece",
          "blockNumber": "0x159b7f3",
          "gasUsed": "0x71a5",
          "effectiveGasPrice": "0xa7bba",
          "from": "0x8454d149beb26e3e3fc5ed1c87fb0b2a1b7b6c2c",
          "to": "0x07e29ea01191e7b3d59262b87d92e1566f23e63f",
          "contractAddress": null,
          "l1BaseFeeScalar": "0x44d",
          "l1BlobBaseFee": "0x2823160edc",
          "l1BlobBaseFeeScalar": "0xa118b",
          "l1Fee": "0xa5cc09e4df9",
          "l1GasPrice": "0x27195ba95",
          "l1GasUsed": "0x640"
        },
        {
          "status": "0x1",
          "cumulativeGasUsed": "0x2e6931",
          "logs": [],
          "logsBloom": "0x00000000000000000000000000000000000000000000000000000000000000000000000000000000000000000000000000000000000000000000000000000000000000000000000000000000000000000000000000000000000000000000000000000000000000000000000000000000000000000000000000000000000000000000000000000000000000000000000000000000000000000000000000000000000000000000000000000000000000000000000000000000000000000000000000000000000000000000000000000000000000000000000000000000000000000000000000000000000000000000000000000000000000000000000000000000",
          "type": "0x2",
          "transactionHash": "0x7fee62b2c02a443d3189fe8a6a4c5b3c0103f926338f14c45132fbb7a21c2351",
          "transactionIndex": "0x1d",
          "blockHash": "0x5f325026dd3d8789a45cd327ec44243890c53b6927a0e45b738e887db5bc0ece",
          "blockNumber": "0x159b7f3",
          "gasUsed": "0x7105",
          "effectiveGasPrice": "0xa7bba",
          "from": "0x8454d149beb26e3e3fc5ed1c87fb0b2a1b7b6c2c",
          "to": "0x07e29ea01191e7b3d59262b87d92e1566f23e63f",
          "contractAddress": null,
          "l1BaseFeeScalar": "0x44d",
          "l1BlobBaseFee": "0x2823160edc",
          "l1BlobBaseFeeScalar": "0xa118b",
          "l1Fee": "0xa5cc09e4df9",
          "l1GasPrice": "0x27195ba95",
          "l1GasUsed": "0x640"
        },
        {
          "status": "0x1",
          "cumulativeGasUsed": "0x2eda38",
          "logs": [],
          "logsBloom": "0x00000000000000000000000000000000000000000000000000000000000000000000000000000000000000000000000000000000000000000000000000000000000000000000000000000000000000000000000000000000000000000000000000000000000000000000000000000000000000000000000000000000000000000000000000000000000000000000000000000000000000000000000000000000000000000000000000000000000000000000000000000000000000000000000000000000000000000000000000000000000000000000000000000000000000000000000000000000000000000000000000000000000000000000000000000000",
          "type": "0x2",
          "transactionHash": "0x2efb93790a2ca32f180c256edd265f3dadfe6357fd4e5982432ac80051fb9ae8",
          "transactionIndex": "0x1e",
          "blockHash": "0x5f325026dd3d8789a45cd327ec44243890c53b6927a0e45b738e887db5bc0ece",
          "blockNumber": "0x159b7f3",
          "gasUsed": "0x7107",
          "effectiveGasPrice": "0xa7bba",
          "from": "0x8454d149beb26e3e3fc5ed1c87fb0b2a1b7b6c2c",
          "to": "0x07e29ea01191e7b3d59262b87d92e1566f23e63f",
          "contractAddress": null,
          "l1BaseFeeScalar": "0x44d",
          "l1BlobBaseFee": "0x2823160edc",
          "l1BlobBaseFeeScalar": "0xa118b",
          "l1Fee": "0xa5cc09e4df9",
          "l1GasPrice": "0x27195ba95",
          "l1GasUsed": "0x640"
        }
      ],
      "libraries": [],
      "pending": [],
      "returns": {},
      "timestamp": 1741082306,
      "chain": 84532,
      "commit": "ed23362"
    },
    {
      "transactions": [
        {
          "hash": "0x1b25e31036e4d76a3f971a780255f745e921178660a24d0078f90f79b17f24ee",
          "transactionType": "CALL",
          "contractName": null,
          "contractAddress": "0xa8c0ee1f20db89515e010e3d2ecafa09befa73e7",
          "function": "allowlistSender(address,bool)",
          "arguments": [
            "0x07e29ea01191E7B3d59262B87d92e1566f23E63F",
            "true"
          ],
          "transaction": {
            "from": "0x8454d149beb26e3e3fc5ed1c87fb0b2a1b7b6c2c",
            "to": "0xa8c0ee1f20db89515e010e3d2ecafa09befa73e7",
            "gas": "0xb19e",
            "value": "0x0",
            "input": "0xeab5b02c00000000000000000000000007e29ea01191e7b3d59262b87d92e1566f23e63f0000000000000000000000000000000000000000000000000000000000000001",
            "nonce": "0xc2",
            "chainId": "0x4268"
          },
          "additionalContracts": [],
          "isFixedGasLimit": false
        },
        {
          "hash": "0xc0c695bc16bed91229e5e227be85f76cefb9d9fef7692d767625fa2899e58317",
          "transactionType": "CALL",
          "contractName": null,
          "contractAddress": "0xa8c0ee1f20db89515e010e3d2ecafa09befa73e7",
          "function": "allowlistSourceChain(uint64,bool)",
          "arguments": [
            "10344971235874465080",
            "true"
          ],
          "transaction": {
            "from": "0x8454d149beb26e3e3fc5ed1c87fb0b2a1b7b6c2c",
            "to": "0xa8c0ee1f20db89515e010e3d2ecafa09befa73e7",
            "gas": "0xbb89",
            "value": "0x0",
            "input": "0xdb04fa490000000000000000000000000000000000000000000000008f90b8876dee65380000000000000000000000000000000000000000000000000000000000000001",
            "nonce": "0xc3",
            "chainId": "0x4268"
          },
          "additionalContracts": [],
          "isFixedGasLimit": false
        },
        {
          "hash": "0xe7aadf8da165c76d946cc02a792f3dc08a9ab2d7da3aa8f2f1e7e04f0a0e7e8e",
          "transactionType": "CALL",
          "contractName": null,
          "contractAddress": "0xa8c0ee1f20db89515e010e3d2ecafa09befa73e7",
          "function": "allowlistSourceChain(uint64,bool)",
          "arguments": [
            "7717148896336251131",
            "true"
          ],
          "transaction": {
            "from": "0x8454d149beb26e3e3fc5ed1c87fb0b2a1b7b6c2c",
            "to": "0xa8c0ee1f20db89515e010e3d2ecafa09befa73e7",
            "gas": "0xbb89",
            "value": "0x0",
            "input": "0xdb04fa490000000000000000000000000000000000000000000000006b18d208b4eb88fb0000000000000000000000000000000000000000000000000000000000000001",
            "nonce": "0xc4",
            "chainId": "0x4268"
          },
          "additionalContracts": [],
          "isFixedGasLimit": false
        },
        {
          "hash": "0xee1aca20dc4799a154482208a3bcf1169260b69c5f4c29d7ba20b01bd3a2fe0f",
          "transactionType": "CALL",
          "contractName": null,
          "contractAddress": "0xa8c0ee1f20db89515e010e3d2ecafa09befa73e7",
          "function": "allowlistDestinationChain(uint64,bool)",
          "arguments": [
            "10344971235874465080",
            "true"
          ],
          "transaction": {
            "from": "0x8454d149beb26e3e3fc5ed1c87fb0b2a1b7b6c2c",
            "to": "0xa8c0ee1f20db89515e010e3d2ecafa09befa73e7",
            "gas": "0xb109",
            "value": "0x0",
            "input": "0x96d3b83d0000000000000000000000000000000000000000000000008f90b8876dee65380000000000000000000000000000000000000000000000000000000000000001",
            "nonce": "0xc5",
            "chainId": "0x4268"
          },
          "additionalContracts": [],
          "isFixedGasLimit": false
        },
        {
          "hash": "0x8b827b897379be120159fa531118f0a976590cc43755b81f7efd99e68ea3aa22",
          "transactionType": "CALL",
          "contractName": null,
          "contractAddress": "0xdab99e4927a48934e0ecd830bb541c2d1d6f7322",
          "function": "setGasLimitsForFunctionSelectors(bytes4[],uint256[])",
          "arguments": [
            "[0xd8a85b48]",
            "[270000]"
          ],
          "transaction": {
            "from": "0x8454d149beb26e3e3fc5ed1c87fb0b2a1b7b6c2c",
            "to": "0xdab99e4927a48934e0ecd830bb541c2d1d6f7322",
            "gas": "0x1259f",
            "value": "0x0",
            "input": "0x3ef2d377000000000000000000000000000000000000000000000000000000000000004000000000000000000000000000000000000000000000000000000000000000800000000000000000000000000000000000000000000000000000000000000001d8a85b480000000000000000000000000000000000000000000000000000000000000000000000000000000000000000000000000000000000000000000000010000000000000000000000000000000000000000000000000000000000041eb0",
            "nonce": "0xc6",
            "chainId": "0x4268"
          },
          "additionalContracts": [],
          "isFixedGasLimit": false
        }
      ],
      "receipts": [
        {
          "status": "0x1",
          "cumulativeGasUsed": "0x1d4ade0",
          "logs": [
            {
              "address": "0xa8c0ee1f20db89515e010e3d2ecafa09befa73e7",
              "topics": [
                "0x13ec608dff3163d79dd89cf72252bb9730da1480d4b9bf86ea034aef1571e040",
                "0x00000000000000000000000007e29ea01191e7b3d59262b87d92e1566f23e63f"
              ],
              "data": "0x0000000000000000000000000000000000000000000000000000000000000001",
              "blockHash": "0x3ce721ed9b20bbd93b842367ea05f876fa7b724cb65cca5ef4e81acec19e9bb2",
              "blockNumber": "0x34831b",
              "transactionHash": "0x1b25e31036e4d76a3f971a780255f745e921178660a24d0078f90f79b17f24ee",
              "transactionIndex": "0x1c",
              "logIndex": "0x2b1",
              "removed": false
            }
          ],
          "logsBloom": "0x00100000000000000000000000000000000000000000000000000000000000000000000000000000000000000000000000000000000000000000000000000000000000000000000000000800000000000000000000000000000000000000000000000000000400000000000000000000000000000000000000000000000000000000000000000000000000000000000000000000000000000000000000000000000000080000000000000000000000000000002000000000000000000000000000000000000000000000000000000000000020000000000000000000000000000100000000000000000000000000000000000000000000000400000000100000",
          "type": "0x2",
          "transactionHash": "0x1b25e31036e4d76a3f971a780255f745e921178660a24d0078f90f79b17f24ee",
          "transactionIndex": "0x1c",
          "blockHash": "0x3ce721ed9b20bbd93b842367ea05f876fa7b724cb65cca5ef4e81acec19e9bb2",
          "blockNumber": "0x34831b",
          "gasUsed": "0x8098",
          "effectiveGasPrice": "0x250111",
          "from": "0x8454d149beb26e3e3fc5ed1c87fb0b2a1b7b6c2c",
          "to": "0xa8c0ee1f20db89515e010e3d2ecafa09befa73e7",
          "contractAddress": null
        },
        {
          "status": "0x1",
          "cumulativeGasUsed": "0x1d52e1b",
          "logs": [
            {
              "address": "0xa8c0ee1f20db89515e010e3d2ecafa09befa73e7",
              "topics": [
                "0xa5f858f3914e62a82af355192513d8dbc618ff9815e7213a71930d8996a3cb82",
                "0x0000000000000000000000000000000000000000000000008f90b8876dee6538"
              ],
              "data": "0x0000000000000000000000000000000000000000000000000000000000000001",
              "blockHash": "0x3ce721ed9b20bbd93b842367ea05f876fa7b724cb65cca5ef4e81acec19e9bb2",
              "blockNumber": "0x34831b",
              "transactionHash": "0xc0c695bc16bed91229e5e227be85f76cefb9d9fef7692d767625fa2899e58317",
              "transactionIndex": "0x1d",
              "logIndex": "0x2b2",
              "removed": false
            }
          ],
          "logsBloom": "0x00100000000000000000020000000000000000000000000000000000000000000000000000000000000000000000000000000000000000000000000000000000000000000000000000000800000000000000000400000000000000000000200000000000000000000000100000000000000000000000000000000000000000004000000000000000000000000000000000000000000000000000000000000000000000000000000000000000000000000000000000000000000000000000000000000000000000000000000000000000000000000000000000000000000000000100000000000001000000000000000000000000000000000000000000000000",
          "type": "0x2",
          "transactionHash": "0xc0c695bc16bed91229e5e227be85f76cefb9d9fef7692d767625fa2899e58317",
          "transactionIndex": "0x1d",
          "blockHash": "0x3ce721ed9b20bbd93b842367ea05f876fa7b724cb65cca5ef4e81acec19e9bb2",
          "blockNumber": "0x34831b",
          "gasUsed": "0x803b",
          "effectiveGasPrice": "0x250111",
          "from": "0x8454d149beb26e3e3fc5ed1c87fb0b2a1b7b6c2c",
          "to": "0xa8c0ee1f20db89515e010e3d2ecafa09befa73e7",
          "contractAddress": null
        },
        {
          "status": "0x1",
          "cumulativeGasUsed": "0x1d5ae56",
          "logs": [
            {
              "address": "0xa8c0ee1f20db89515e010e3d2ecafa09befa73e7",
              "topics": [
                "0xa5f858f3914e62a82af355192513d8dbc618ff9815e7213a71930d8996a3cb82",
                "0x0000000000000000000000000000000000000000000000006b18d208b4eb88fb"
              ],
              "data": "0x0000000000000000000000000000000000000000000000000000000000000001",
              "blockHash": "0x3ce721ed9b20bbd93b842367ea05f876fa7b724cb65cca5ef4e81acec19e9bb2",
              "blockNumber": "0x34831b",
              "transactionHash": "0xe7aadf8da165c76d946cc02a792f3dc08a9ab2d7da3aa8f2f1e7e04f0a0e7e8e",
              "transactionIndex": "0x1e",
              "logIndex": "0x2b3",
              "removed": false
            }
          ],
          "logsBloom": "0x00100000000000000000020000000000800000000000000000000000000000000000000000000000000000000000000000000000000000000000000000000000000000000008000000000800000000000000000000000000000000000000000000000000000000000000100000000000000000000000000000000000000000000000000000000000000000000000000000000000000000000000000000000000000000000000000000000000000000000000000000000000000000000000000000000000000000000000000000000000000000000000000000000000000000000100000000000001000000000000000040000000000000000000000000000000",
          "type": "0x2",
          "transactionHash": "0xe7aadf8da165c76d946cc02a792f3dc08a9ab2d7da3aa8f2f1e7e04f0a0e7e8e",
          "transactionIndex": "0x1e",
          "blockHash": "0x3ce721ed9b20bbd93b842367ea05f876fa7b724cb65cca5ef4e81acec19e9bb2",
          "blockNumber": "0x34831b",
          "gasUsed": "0x803b",
          "effectiveGasPrice": "0x250111",
          "from": "0x8454d149beb26e3e3fc5ed1c87fb0b2a1b7b6c2c",
          "to": "0xa8c0ee1f20db89515e010e3d2ecafa09befa73e7",
          "contractAddress": null
        },
        {
          "status": "0x1",
          "cumulativeGasUsed": "0x1d62e83",
          "logs": [
            {
              "address": "0xa8c0ee1f20db89515e010e3d2ecafa09befa73e7",
              "topics": [
                "0x79e93956b5c7b59cb1d0aaa5849af9993c5b994c44b148b1944f4e4ecf1e9b89",
                "0x0000000000000000000000000000000000000000000000008f90b8876dee6538"
              ],
              "data": "0x0000000000000000000000000000000000000000000000000000000000000001",
              "blockHash": "0x3ce721ed9b20bbd93b842367ea05f876fa7b724cb65cca5ef4e81acec19e9bb2",
              "blockNumber": "0x34831b",
              "transactionHash": "0xee1aca20dc4799a154482208a3bcf1169260b69c5f4c29d7ba20b01bd3a2fe0f",
              "transactionIndex": "0x1f",
              "logIndex": "0x2b4",
              "removed": false
            }
          ],
          "logsBloom": "0x00100000000000000000000000000000000000040000000000000000000000000000000000000000000000000000000000000000000000000000000000000000000000000000000000200800000000000000000400000000000000000000200000000000000000000000000000000000000000000000000000000000000000004000000000000000000000000000000000000000000000000000000000000000000000000000000000000000000000000000000000000000000000100000000000000000000000000000000000000000000000000000000000000000000000000100000000000000000000000000000000000000000000000000000000000000",
          "type": "0x2",
          "transactionHash": "0xee1aca20dc4799a154482208a3bcf1169260b69c5f4c29d7ba20b01bd3a2fe0f",
          "transactionIndex": "0x1f",
          "blockHash": "0x3ce721ed9b20bbd93b842367ea05f876fa7b724cb65cca5ef4e81acec19e9bb2",
          "blockNumber": "0x34831b",
          "gasUsed": "0x802d",
          "effectiveGasPrice": "0x250111",
          "from": "0x8454d149beb26e3e3fc5ed1c87fb0b2a1b7b6c2c",
          "to": "0xa8c0ee1f20db89515e010e3d2ecafa09befa73e7",
          "contractAddress": null
        },
        {
          "status": "0x1",
          "cumulativeGasUsed": "0x1d70317",
          "logs": [
            {
              "address": "0xdab99e4927a48934e0ecd830bb541c2d1d6f7322",
              "topics": [
                "0xed4c89b805f4efb58bc4a42b9a3c6f09783f619295a1fa41ab46d6190c8c7f3b"
              ],
              "data": "0xd8a85b48000000000000000000000000000000000000000000000000000000000000000000000000000000000000000000000000000000000000000000041eb0",
              "blockHash": "0x3ce721ed9b20bbd93b842367ea05f876fa7b724cb65cca5ef4e81acec19e9bb2",
              "blockNumber": "0x34831b",
              "transactionHash": "0x8b827b897379be120159fa531118f0a976590cc43755b81f7efd99e68ea3aa22",
              "transactionIndex": "0x20",
              "logIndex": "0x2b5",
              "removed": false
            }
          ],
          "logsBloom": "0x00000000000000000040000000000000000000000800000000000000000000000000000000000000000000000000000000000000000000000000000000000000000000000000000000000000000000000000000000000000000000000000000000000000000000000000000000000000800000000000000000000000000000000000000000000000000000000000000000000000000000000000050000000000000000800000000000000000000000000000000000000000000000000000000000000000000000000000000000000000000000000000000000000000000000000000000000000000000000000000000000000000000000000000000000000000",
          "type": "0x2",
          "transactionHash": "0x8b827b897379be120159fa531118f0a976590cc43755b81f7efd99e68ea3aa22",
          "transactionIndex": "0x20",
          "blockHash": "0x3ce721ed9b20bbd93b842367ea05f876fa7b724cb65cca5ef4e81acec19e9bb2",
          "blockNumber": "0x34831b",
          "gasUsed": "0xd494",
          "effectiveGasPrice": "0x250111",
          "from": "0x8454d149beb26e3e3fc5ed1c87fb0b2a1b7b6c2c",
          "to": "0xdab99e4927a48934e0ecd830bb541c2d1d6f7322",
          "contractAddress": null
        }
      ],
      "libraries": [],
      "pending": [],
      "returns": {},
      "timestamp": 1741082307,
      "chain": 17000,
      "commit": "ed23362"
    }
  ],
  "timestamp": 1741082355
}