{
  "deployments": [
    {
      "transactions": [
        {
          "hash": "0xe1eb4896279cffec73379a88481e7363d3698046ef15b90373dd0c738f3b4efe",
          "transactionType": "CALL",
          "contractName": null,
          "contractAddress": "0x08832066a18b3108a613970a24e816cb10bf76c3",
          "function": "allowlistSender(uint64,address,bool)",
          "arguments": [
            "16015286601757825753",
            "0xAA1ffb25606a449c5B03ea0433b0541c36Fe8903",
            "true"
          ],
          "transaction": {
            "from": "0x8454d149beb26e3e3fc5ed1c87fb0b2a1b7b6c2c",
            "to": "0x08832066a18b3108a613970a24e816cb10bf76c3",
            "gas": "0x12153",
            "value": "0x0",
            "input": "0xf039a009000000000000000000000000000000000000000000000000de41ba4fc9d91ad9000000000000000000000000aa1ffb25606a449c5b03ea0433b0541c36fe89030000000000000000000000000000000000000000000000000000000000000001",
            "nonce": "0x6f5",
            "chainId": "0x14a34"
          },
          "additionalContracts": [],
          "isFixedGasLimit": false
        },
        {
          "hash": "0xd411dee515a337b96597a957350e781a3f0d7d2c7852084eb45db763c7017956",
          "transactionType": "CALL",
          "contractName": null,
          "contractAddress": "0x08832066a18b3108a613970a24e816cb10bf76c3",
          "function": "allowlistSourceChain(uint64,bool)",
          "arguments": [
            "10344971235874465080",
            "true"
          ],
          "transaction": {
            "from": "0x8454d149beb26e3e3fc5ed1c87fb0b2a1b7b6c2c",
            "to": "0x08832066a18b3108a613970a24e816cb10bf76c3",
            "gas": "0xb0bb",
            "value": "0x0",
            "input": "0xdb04fa490000000000000000000000000000000000000000000000008f90b8876dee65380000000000000000000000000000000000000000000000000000000000000001",
            "nonce": "0x6f6",
            "chainId": "0x14a34"
          },
          "additionalContracts": [],
          "isFixedGasLimit": false
        },
        {
          "hash": "0x7990a52e8c3334550e2b5c077928124cab40dd6aad734b74f683a62e853719af",
          "transactionType": "CALL",
          "contractName": null,
          "contractAddress": "0x08832066a18b3108a613970a24e816cb10bf76c3",
          "function": "allowlistDestinationChain(uint64,bool)",
          "arguments": [
            "16015286601757825753",
            "true"
          ],
          "transaction": {
            "from": "0x8454d149beb26e3e3fc5ed1c87fb0b2a1b7b6c2c",
            "to": "0x08832066a18b3108a613970a24e816cb10bf76c3",
            "gas": "0xb0c7",
            "value": "0x0",
            "input": "0x96d3b83d000000000000000000000000000000000000000000000000de41ba4fc9d91ad90000000000000000000000000000000000000000000000000000000000000001",
            "nonce": "0x6f7",
            "chainId": "0x14a34"
          },
          "additionalContracts": [],
          "isFixedGasLimit": false
        },
        {
          "hash": "0x0a5dbfa79fdf90621c435275ae5356eb2cd8d7955f0048fa07fd4887336bad6b",
          "transactionType": "CALL",
          "contractName": null,
          "contractAddress": "0x93c9040d6eb49c9da4ab7d322c2a3298b250c0ca",
          "function": "setGasLimitsForFunctionSelectors(bytes4[],uint256[])",
          "arguments": [
            "[0xe7a050aa, 0xcc15a557, 0x0dd8dd02, 0xe4cc3f90, 0xeea9064b, 0xda8be864, 0x3ccc861d]",
            "[560000, 300000, 580000, 630000, 400000, 650000, 590000]"
          ],
          "transaction": {
            "from": "0x8454d149beb26e3e3fc5ed1c87fb0b2a1b7b6c2c",
            "to": "0x93c9040d6eb49c9da4ab7d322c2a3298b250c0ca",
            "gas": "0x1536c",
            "value": "0x0",
            "input": "0x3ef2d377000000000000000000000000000000000000000000000000000000000000004000000000000000000000000000000000000000000000000000000000000001400000000000000000000000000000000000000000000000000000000000000007e7a050aa00000000000000000000000000000000000000000000000000000000cc15a557000000000000000000000000000000000000000000000000000000000dd8dd0200000000000000000000000000000000000000000000000000000000e4cc3f9000000000000000000000000000000000000000000000000000000000eea9064b00000000000000000000000000000000000000000000000000000000da8be864000000000000000000000000000000000000000000000000000000003ccc861d0000000000000000000000000000000000000000000000000000000000000000000000000000000000000000000000000000000000000000000000070000000000000000000000000000000000000000000000000000000000088b8000000000000000000000000000000000000000000000000000000000000493e0000000000000000000000000000000000000000000000000000000000008d9a00000000000000000000000000000000000000000000000000000000000099cf00000000000000000000000000000000000000000000000000000000000061a80000000000000000000000000000000000000000000000000000000000009eb1000000000000000000000000000000000000000000000000000000000000900b0",
            "nonce": "0x6f8",
            "chainId": "0x14a34"
          },
          "additionalContracts": [],
          "isFixedGasLimit": false
        },
        {
          "hash": "0xcc2624ec57f277f4a4fcf37143751aaadad1391eac26d977a4eb46391c6eea53",
          "transactionType": "CALL",
          "contractName": null,
          "contractAddress": "0x93c9040d6eb49c9da4ab7d322c2a3298b250c0ca",
          "function": "setSenderCCIP(address)",
          "arguments": [
            "0x08832066A18B3108A613970A24e816cB10bF76c3"
          ],
          "transaction": {
            "from": "0x8454d149beb26e3e3fc5ed1c87fb0b2a1b7b6c2c",
            "to": "0x93c9040d6eb49c9da4ab7d322c2a3298b250c0ca",
            "gas": "0xaea1",
            "value": "0x0",
            "input": "0xd8d6c31a00000000000000000000000008832066a18b3108a613970a24e816cb10bf76c3",
            "nonce": "0x6f9",
            "chainId": "0x14a34"
          },
          "additionalContracts": [],
          "isFixedGasLimit": false
        }
      ],
      "receipts": [
        {
          "status": "0x1",
          "cumulativeGasUsed": "0x4cf74d",
          "logs": [
            {
              "address": "0x08832066a18b3108a613970a24e816cb10bf76c3",
              "topics": [
                "0x7341e817a8458e8902ebedbcd9e82db8299e43de630c89ade217662e6cafe906",
                "0x000000000000000000000000000000000000000000000000de41ba4fc9d91ad9",
                "0x000000000000000000000000aa1ffb25606a449c5b03ea0433b0541c36fe8903"
              ],
              "data": "0x0000000000000000000000000000000000000000000000000000000000000001",
              "blockHash": "0x9e294b801091b142ca50832146f493335c0fee9ddefc53cd9782aa277d81565c",
              "blockNumber": "0x1618b9a",
              "transactionHash": "0xe1eb4896279cffec73379a88481e7363d3698046ef15b90373dd0c738f3b4efe",
              "transactionIndex": "0x1e",
              "logIndex": "0x76",
              "removed": false
            }
          ],
          "logsBloom": "0x00000000000000000000000000000000000000000000000000000000000000000000000000004000000000000000000000000000000000000000000000000000000000010000000000000000000040000000000000000000000000000000000000000000000000000000000000010000000000000000000000000000000000000000000000000000000000000000040000000020000000000000000000000000000000000000000000000000000000000000000000000000000000000000004000000000000000000000000000000000000000080000000000000000000000000000000000000000000020000000000000000000000001000000000000000018",
          "type": "0x2",
          "transactionHash": "0xe1eb4896279cffec73379a88481e7363d3698046ef15b90373dd0c738f3b4efe",
          "transactionIndex": "0x1e",
          "blockHash": "0x9e294b801091b142ca50832146f493335c0fee9ddefc53cd9782aa277d81565c",
          "blockNumber": "0x1618b9a",
          "gasUsed": "0xd178",
          "effectiveGasPrice": "0x11eccc",
          "from": "0x8454d149beb26e3e3fc5ed1c87fb0b2a1b7b6c2c",
          "to": "0x08832066a18b3108a613970a24e816cb10bf76c3",
          "contractAddress": null,
          "l1BaseFeeScalar": "0x44d",
          "l1BlobBaseFee": "0x1",
          "l1BlobBaseFeeScalar": "0xa118b",
          "l1Fee": "0x21732d8",
          "l1GasPrice": "0x12fd038",
          "l1GasUsed": "0x640"
        },
        {
          "status": "0x1",
          "cumulativeGasUsed": "0x896b98",
          "logs": [
            {
              "address": "0x08832066a18b3108a613970a24e816cb10bf76c3",
              "topics": [
                "0xa5f858f3914e62a82af355192513d8dbc618ff9815e7213a71930d8996a3cb82",
                "0x0000000000000000000000000000000000000000000000008f90b8876dee6538"
              ],
              "data": "0x0000000000000000000000000000000000000000000000000000000000000001",
              "blockHash": "0x9e294b801091b142ca50832146f493335c0fee9ddefc53cd9782aa277d81565c",
              "blockNumber": "0x1618b9a",
              "transactionHash": "0xd411dee515a337b96597a957350e781a3f0d7d2c7852084eb45db763c7017956",
              "transactionIndex": "0x2d",
              "logIndex": "0xd1",
              "removed": false
            }
          ],
          "logsBloom": "0x00000000000000000000020000000000000000000000000000000000000000000000000000000000000000000000000000000000000000000000000000000000000000010000000000000000000000000000000400000000000000000000200000000000000000000000100000000000000000000000000000000000000000004000000000000000000000000000040000000000000000000000000000000000000000000000000000000000000000000000000000000000000000000000000000000000000000000000000000000000000000000000000000000000000000000000000000000001000000000000000000000000000000000000000000000008",
          "type": "0x2",
          "transactionHash": "0xd411dee515a337b96597a957350e781a3f0d7d2c7852084eb45db763c7017956",
          "transactionIndex": "0x2d",
          "blockHash": "0x9e294b801091b142ca50832146f493335c0fee9ddefc53cd9782aa277d81565c",
          "blockNumber": "0x1618b9a",
          "gasUsed": "0x7ff4",
          "effectiveGasPrice": "0x11eccc",
          "from": "0x8454d149beb26e3e3fc5ed1c87fb0b2a1b7b6c2c",
          "to": "0x08832066a18b3108a613970a24e816cb10bf76c3",
          "contractAddress": null,
          "l1BaseFeeScalar": "0x44d",
          "l1BlobBaseFee": "0x1",
          "l1BlobBaseFeeScalar": "0xa118b",
          "l1Fee": "0x21732d8",
          "l1GasPrice": "0x12fd038",
          "l1GasUsed": "0x640"
        },
        {
          "status": "0x1",
          "cumulativeGasUsed": "0x89eb95",
          "logs": [
            {
              "address": "0x08832066a18b3108a613970a24e816cb10bf76c3",
              "topics": [
                "0x79e93956b5c7b59cb1d0aaa5849af9993c5b994c44b148b1944f4e4ecf1e9b89",
                "0x000000000000000000000000000000000000000000000000de41ba4fc9d91ad9"
              ],
              "data": "0x0000000000000000000000000000000000000000000000000000000000000001",
              "blockHash": "0x9e294b801091b142ca50832146f493335c0fee9ddefc53cd9782aa277d81565c",
              "blockNumber": "0x1618b9a",
              "transactionHash": "0x7990a52e8c3334550e2b5c077928124cab40dd6aad734b74f683a62e853719af",
              "transactionIndex": "0x2e",
              "logIndex": "0xd2",
              "removed": false
            }
          ],
          "logsBloom": "0x00000000000000000000000000000000000000040000000000000000000000000000000000004000000000000000000000000000000000000000000000000000000000010000000000200000000000000000000000000000000000000000000000000000000000000000000000010000000000000000000000000000000000000000000000000000000000000000040000000020000000000000000000000000000000000000000000000000000000000000000000000000000000100000000000000000000000000000000000000000000000000000000000000000000000000000000000000000000000000000000000000000000000000000000000000008",
          "type": "0x2",
          "transactionHash": "0x7990a52e8c3334550e2b5c077928124cab40dd6aad734b74f683a62e853719af",
          "transactionIndex": "0x2e",
          "blockHash": "0x9e294b801091b142ca50832146f493335c0fee9ddefc53cd9782aa277d81565c",
          "blockNumber": "0x1618b9a",
          "gasUsed": "0x7ffd",
          "effectiveGasPrice": "0x11eccc",
          "from": "0x8454d149beb26e3e3fc5ed1c87fb0b2a1b7b6c2c",
          "to": "0x08832066a18b3108a613970a24e816cb10bf76c3",
          "contractAddress": null,
          "l1BaseFeeScalar": "0x44d",
          "l1BlobBaseFee": "0x1",
          "l1BlobBaseFeeScalar": "0xa118b",
          "l1Fee": "0x21732d8",
          "l1GasPrice": "0x12fd038",
          "l1GasUsed": "0x640"
        },
        {
          "status": "0x1",
          "cumulativeGasUsed": "0x8ae152",
          "logs": [
            {
              "address": "0x93c9040d6eb49c9da4ab7d322c2a3298b250c0ca",
              "topics": [
                "0xed4c89b805f4efb58bc4a42b9a3c6f09783f619295a1fa41ab46d6190c8c7f3b",
                "0xe7a050aa00000000000000000000000000000000000000000000000000000000",
                "0x0000000000000000000000000000000000000000000000000000000000088b80"
              ],
              "data": "0x",
              "blockHash": "0x9e294b801091b142ca50832146f493335c0fee9ddefc53cd9782aa277d81565c",
              "blockNumber": "0x1618b9a",
              "transactionHash": "0x0a5dbfa79fdf90621c435275ae5356eb2cd8d7955f0048fa07fd4887336bad6b",
              "transactionIndex": "0x2f",
              "logIndex": "0xd3",
              "removed": false
            },
            {
              "address": "0x93c9040d6eb49c9da4ab7d322c2a3298b250c0ca",
              "topics": [
                "0xed4c89b805f4efb58bc4a42b9a3c6f09783f619295a1fa41ab46d6190c8c7f3b",
                "0xcc15a55700000000000000000000000000000000000000000000000000000000",
                "0x00000000000000000000000000000000000000000000000000000000000493e0"
              ],
              "data": "0x",
              "blockHash": "0x9e294b801091b142ca50832146f493335c0fee9ddefc53cd9782aa277d81565c",
              "blockNumber": "0x1618b9a",
              "transactionHash": "0x0a5dbfa79fdf90621c435275ae5356eb2cd8d7955f0048fa07fd4887336bad6b",
              "transactionIndex": "0x2f",
              "logIndex": "0xd4",
              "removed": false
            },
            {
              "address": "0x93c9040d6eb49c9da4ab7d322c2a3298b250c0ca",
              "topics": [
                "0xed4c89b805f4efb58bc4a42b9a3c6f09783f619295a1fa41ab46d6190c8c7f3b",
                "0x0dd8dd0200000000000000000000000000000000000000000000000000000000",
                "0x000000000000000000000000000000000000000000000000000000000008d9a0"
              ],
              "data": "0x",
              "blockHash": "0x9e294b801091b142ca50832146f493335c0fee9ddefc53cd9782aa277d81565c",
              "blockNumber": "0x1618b9a",
              "transactionHash": "0x0a5dbfa79fdf90621c435275ae5356eb2cd8d7955f0048fa07fd4887336bad6b",
              "transactionIndex": "0x2f",
              "logIndex": "0xd5",
              "removed": false
            },
            {
              "address": "0x93c9040d6eb49c9da4ab7d322c2a3298b250c0ca",
              "topics": [
                "0xed4c89b805f4efb58bc4a42b9a3c6f09783f619295a1fa41ab46d6190c8c7f3b",
                "0xe4cc3f9000000000000000000000000000000000000000000000000000000000",
                "0x0000000000000000000000000000000000000000000000000000000000099cf0"
              ],
              "data": "0x",
              "blockHash": "0x9e294b801091b142ca50832146f493335c0fee9ddefc53cd9782aa277d81565c",
              "blockNumber": "0x1618b9a",
              "transactionHash": "0x0a5dbfa79fdf90621c435275ae5356eb2cd8d7955f0048fa07fd4887336bad6b",
              "transactionIndex": "0x2f",
              "logIndex": "0xd6",
              "removed": false
            },
            {
              "address": "0x93c9040d6eb49c9da4ab7d322c2a3298b250c0ca",
              "topics": [
                "0xed4c89b805f4efb58bc4a42b9a3c6f09783f619295a1fa41ab46d6190c8c7f3b",
                "0xeea9064b00000000000000000000000000000000000000000000000000000000",
                "0x0000000000000000000000000000000000000000000000000000000000061a80"
              ],
              "data": "0x",
              "blockHash": "0x9e294b801091b142ca50832146f493335c0fee9ddefc53cd9782aa277d81565c",
              "blockNumber": "0x1618b9a",
              "transactionHash": "0x0a5dbfa79fdf90621c435275ae5356eb2cd8d7955f0048fa07fd4887336bad6b",
              "transactionIndex": "0x2f",
              "logIndex": "0xd7",
              "removed": false
            },
            {
              "address": "0x93c9040d6eb49c9da4ab7d322c2a3298b250c0ca",
              "topics": [
                "0xed4c89b805f4efb58bc4a42b9a3c6f09783f619295a1fa41ab46d6190c8c7f3b",
                "0xda8be86400000000000000000000000000000000000000000000000000000000",
                "0x000000000000000000000000000000000000000000000000000000000009eb10"
              ],
              "data": "0x",
              "blockHash": "0x9e294b801091b142ca50832146f493335c0fee9ddefc53cd9782aa277d81565c",
              "blockNumber": "0x1618b9a",
              "transactionHash": "0x0a5dbfa79fdf90621c435275ae5356eb2cd8d7955f0048fa07fd4887336bad6b",
              "transactionIndex": "0x2f",
              "logIndex": "0xd8",
              "removed": false
            },
            {
              "address": "0x93c9040d6eb49c9da4ab7d322c2a3298b250c0ca",
              "topics": [
                "0xed4c89b805f4efb58bc4a42b9a3c6f09783f619295a1fa41ab46d6190c8c7f3b",
                "0x3ccc861d00000000000000000000000000000000000000000000000000000000",
                "0x00000000000000000000000000000000000000000000000000000000000900b0"
              ],
              "data": "0x",
              "blockHash": "0x9e294b801091b142ca50832146f493335c0fee9ddefc53cd9782aa277d81565c",
              "blockNumber": "0x1618b9a",
              "transactionHash": "0x0a5dbfa79fdf90621c435275ae5356eb2cd8d7955f0048fa07fd4887336bad6b",
              "transactionIndex": "0x2f",
              "logIndex": "0xd9",
              "removed": false
            }
          ],
          "logsBloom": "0x0000000000000000004000000000000000000000080000000000000000400000000000000000000000080000004000000800000020000000000000000800000000800000000000000000400000000004010800000000200008000000000000000000001000000000000000000000000083000000000204000020000000010104008010000080000000000140010400000010000000040000000000000000000000000040000000000000000000a000800000000000000000000000000000400400000000000000000008001000000000000000000000100000100000000000020000000000001000000000000000000000800000000000000000010000000000",
          "type": "0x2",
          "transactionHash": "0x0a5dbfa79fdf90621c435275ae5356eb2cd8d7955f0048fa07fd4887336bad6b",
          "transactionIndex": "0x2f",
          "blockHash": "0x9e294b801091b142ca50832146f493335c0fee9ddefc53cd9782aa277d81565c",
          "blockNumber": "0x1618b9a",
          "gasUsed": "0xf5bd",
          "effectiveGasPrice": "0x11eccc",
          "from": "0x8454d149beb26e3e3fc5ed1c87fb0b2a1b7b6c2c",
          "to": "0x93c9040d6eb49c9da4ab7d322c2a3298b250c0ca",
          "contractAddress": null,
          "l1BaseFeeScalar": "0x44d",
          "l1BlobBaseFee": "0x1",
          "l1BlobBaseFeeScalar": "0xa118b",
          "l1Fee": "0x3a815fe",
          "l1GasPrice": "0x12fd038",
          "l1GasUsed": "0xaee"
        },
        {
          "status": "0x1",
          "cumulativeGasUsed": "0x8b5fc1",
          "logs": [
            {
              "address": "0x93c9040d6eb49c9da4ab7d322c2a3298b250c0ca",
              "topics": [
                "0xc200bc994a6761c6c93718eb06df928b16dca3e77b7ce283d09852e260c9b2da",
                "0x00000000000000000000000008832066a18b3108a613970a24e816cb10bf76c3"
              ],
              "data": "0x",
              "blockHash": "0x9e294b801091b142ca50832146f493335c0fee9ddefc53cd9782aa277d81565c",
              "blockNumber": "0x1618b9a",
              "transactionHash": "0xcc2624ec57f277f4a4fcf37143751aaadad1391eac26d977a4eb46391c6eea53",
              "transactionIndex": "0x30",
              "logIndex": "0xda",
              "removed": false
            }
          ],
          "logsBloom": "0x00000000000000000100000000000000000000000000000000000000000000000000000000000000000000000000000000000000000000000000000000000000008000000000000000000000000000000000002000000000000000000000000000000000000000000000000000000000000000000000000000000000000001000000000000000000000000000000000000120000000000000000000000000000100000000000000000000000000000800000000000000000000000000000000000000000000000000000000000000000000020000000000000000000000000000000000000000000000000000000000000000000000000000000000000000000",
          "type": "0x2",
          "transactionHash": "0xcc2624ec57f277f4a4fcf37143751aaadad1391eac26d977a4eb46391c6eea53",
          "transactionIndex": "0x30",
          "blockHash": "0x9e294b801091b142ca50832146f493335c0fee9ddefc53cd9782aa277d81565c",
          "blockNumber": "0x1618b9a",
          "gasUsed": "0x7e6f",
          "effectiveGasPrice": "0x11eccc",
          "from": "0x8454d149beb26e3e3fc5ed1c87fb0b2a1b7b6c2c",
          "to": "0x93c9040d6eb49c9da4ab7d322c2a3298b250c0ca",
          "contractAddress": null,
          "l1BaseFeeScalar": "0x44d",
          "l1BlobBaseFee": "0x1",
          "l1BlobBaseFeeScalar": "0xa118b",
          "l1Fee": "0x21732d8",
          "l1GasPrice": "0x12fd038",
          "l1GasUsed": "0x640"
        }
      ],
      "libraries": [],
      "pending": [],
      "returns": {},
      "timestamp": 1742108176,
      "chain": 84532,
      "commit": "3a511f6"
    },
    {
      "transactions": [
        {
          "hash": "0xa6f290a2c0cc9663f78875cb9aab128ad18b42b74d4c33bf14cc894721864433",
          "transactionType": "CALL",
          "contractName": null,
          "contractAddress": "0xaa1ffb25606a449c5b03ea0433b0541c36fe8903",
          "function": "allowlistSender(uint64,address,bool)",
          "arguments": [
            "10344971235874465080",
            "0x08832066A18B3108A613970A24e816cB10bF76c3",
            "true"
          ],
          "transaction": {
            "from": "0x8454d149beb26e3e3fc5ed1c87fb0b2a1b7b6c2c",
            "to": "0xaa1ffb25606a449c5b03ea0433b0541c36fe8903",
            "gas": "0x12171",
            "value": "0x0",
            "input": "0xf039a0090000000000000000000000000000000000000000000000008f90b8876dee653800000000000000000000000008832066a18b3108a613970a24e816cb10bf76c30000000000000000000000000000000000000000000000000000000000000001",
            "nonce": "0xab2",
            "chainId": "0xaa36a7"
          },
          "additionalContracts": [],
          "isFixedGasLimit": false
        },
        {
          "hash": "0xd326d6345a8df4b041281e28c8628fb4609ed954e621fc091f53f112b719fd91",
          "transactionType": "CALL",
          "contractName": null,
          "contractAddress": "0xaa1ffb25606a449c5b03ea0433b0541c36fe8903",
          "function": "allowlistSourceChain(uint64,bool)",
          "arguments": [
            "10344971235874465080",
            "true"
          ],
          "transaction": {
            "from": "0x8454d149beb26e3e3fc5ed1c87fb0b2a1b7b6c2c",
            "to": "0xaa1ffb25606a449c5b03ea0433b0541c36fe8903",
            "gas": "0x11c56",
            "value": "0x0",
            "input": "0xdb04fa490000000000000000000000000000000000000000000000008f90b8876dee65380000000000000000000000000000000000000000000000000000000000000001",
            "nonce": "0xab3",
            "chainId": "0xaa36a7"
          },
          "additionalContracts": [],
          "isFixedGasLimit": false
        },
        {
          "hash": "0x67fbe46e377d59895d614c509c1e5bf90e4044212f10e8e2e43d6b3f42d796ad",
          "transactionType": "CALL",
          "contractName": null,
          "contractAddress": "0xaa1ffb25606a449c5b03ea0433b0541c36fe8903",
          "function": "allowlistSourceChain(uint64,bool)",
          "arguments": [
            "16015286601757825753",
            "true"
          ],
          "transaction": {
            "from": "0x8454d149beb26e3e3fc5ed1c87fb0b2a1b7b6c2c",
            "to": "0xaa1ffb25606a449c5b03ea0433b0541c36fe8903",
            "gas": "0x11c56",
            "value": "0x0",
            "input": "0xdb04fa49000000000000000000000000000000000000000000000000de41ba4fc9d91ad90000000000000000000000000000000000000000000000000000000000000001",
            "nonce": "0xab4",
            "chainId": "0xaa36a7"
          },
          "additionalContracts": [],
          "isFixedGasLimit": false
        },
        {
          "hash": "0x62990c462b66efa0ddf134bf82f11b4e036abf005c6af75e3ae5663ad292c6a9",
          "transactionType": "CALL",
          "contractName": null,
          "contractAddress": "0xaa1ffb25606a449c5b03ea0433b0541c36fe8903",
          "function": "allowlistDestinationChain(uint64,bool)",
          "arguments": [
            "10344971235874465080",
            "true"
          ],
          "transaction": {
            "from": "0x8454d149beb26e3e3fc5ed1c87fb0b2a1b7b6c2c",
            "to": "0xaa1ffb25606a449c5b03ea0433b0541c36fe8903",
            "gas": "0x11c63",
            "value": "0x0",
            "input": "0x96d3b83d0000000000000000000000000000000000000000000000008f90b8876dee65380000000000000000000000000000000000000000000000000000000000000001",
            "nonce": "0xab5",
            "chainId": "0xaa36a7"
          },
          "additionalContracts": [],
          "isFixedGasLimit": false
        },
        {
          "hash": "0x68bd99ea3fa52ca67ec6ecef246f6bd517eaa692dfff077646e15bf0c53d0790",
          "transactionType": "CALL",
          "contractName": null,
          "contractAddress": "0x1c0a29e1768c4d10da8bc5aef17347b43f9c1f82",
          "function": "setGasLimitsForFunctionSelectors(bytes4[],uint256[])",
          "arguments": [
            "[0xd8a85b48]",
            "[300000]"
          ],
          "transaction": {
            "from": "0x8454d149beb26e3e3fc5ed1c87fb0b2a1b7b6c2c",
            "to": "0x1c0a29e1768c4d10da8bc5aef17347b43f9c1f82",
            "gas": "0x126e3",
            "value": "0x0",
            "input": "0x3ef2d377000000000000000000000000000000000000000000000000000000000000004000000000000000000000000000000000000000000000000000000000000000800000000000000000000000000000000000000000000000000000000000000001d8a85b4800000000000000000000000000000000000000000000000000000000000000000000000000000000000000000000000000000000000000000000000100000000000000000000000000000000000000000000000000000000000493e0",
            "nonce": "0xab6",
            "chainId": "0xaa36a7"
          },
          "additionalContracts": [],
          "isFixedGasLimit": false
        }
      ],
      "receipts": [
        {
          "status": "0x1",
          "cumulativeGasUsed": "0xefa897",
          "logs": [
            {
              "address": "0xaa1ffb25606a449c5b03ea0433b0541c36fe8903",
              "topics": [
                "0x7341e817a8458e8902ebedbcd9e82db8299e43de630c89ade217662e6cafe906",
                "0x0000000000000000000000000000000000000000000000008f90b8876dee6538",
                "0x00000000000000000000000008832066a18b3108a613970a24e816cb10bf76c3"
              ],
              "data": "0x0000000000000000000000000000000000000000000000000000000000000001",
              "blockHash": "0xb1f767ede3c728e3be9722b6a380e92ed2ad9f22ff0ade380650d1af7d161be8",
              "blockNumber": "0x78bc79",
              "blockTimestamp": "0x67d67624",
              "transactionHash": "0xa6f290a2c0cc9663f78875cb9aab128ad18b42b74d4c33bf14cc894721864433",
              "transactionIndex": "0x7b",
              "logIndex": "0x140",
              "removed": false
            }
          ],
          "logsBloom": "0x00000000000000000000000000000000000000000000000000000040000000000000000000000000000000000000000000000000000000000000000000000000000000040000000000000000000000000000002400000000000000000000200000000000000000000000000000000000000000000000000000000000000001004000000000000000000000000000000000020000000000000000000000000000000000000000000000000008000000000000000000000000000000000000000000000000000000000000000000000000000000000000000000000000000000000000000000000000000020000000000000000000000001000000000000000010",
          "type": "0x2",
          "transactionHash": "0xa6f290a2c0cc9663f78875cb9aab128ad18b42b74d4c33bf14cc894721864433",
          "transactionIndex": "0x7b",
          "blockHash": "0xb1f767ede3c728e3be9722b6a380e92ed2ad9f22ff0ade380650d1af7d161be8",
          "blockNumber": "0x78bc79",
          "gasUsed": "0xd18e",
          "effectiveGasPrice": "0x1959dec",
          "from": "0x8454d149beb26e3e3fc5ed1c87fb0b2a1b7b6c2c",
          "to": "0xaa1ffb25606a449c5b03ea0433b0541c36fe8903",
          "contractAddress": null
        },
        {
          "status": "0x1",
          "cumulativeGasUsed": "0xf07673",
          "logs": [
            {
              "address": "0xaa1ffb25606a449c5b03ea0433b0541c36fe8903",
              "topics": [
                "0xa5f858f3914e62a82af355192513d8dbc618ff9815e7213a71930d8996a3cb82",
                "0x0000000000000000000000000000000000000000000000008f90b8876dee6538"
              ],
              "data": "0x0000000000000000000000000000000000000000000000000000000000000001",
              "blockHash": "0xb1f767ede3c728e3be9722b6a380e92ed2ad9f22ff0ade380650d1af7d161be8",
              "blockNumber": "0x78bc79",
              "blockTimestamp": "0x67d67624",
              "transactionHash": "0xd326d6345a8df4b041281e28c8628fb4609ed954e621fc091f53f112b719fd91",
              "transactionIndex": "0x7c",
              "logIndex": "0x141",
              "removed": false
            }
          ],
          "logsBloom": "0x00000000000000000000020000000000000000000000000000000040000000000000000000000000000000000000000000000000000000000000000000000000000000040000000000000000000000000000000400000000000000000000200000000000000000000000100000000000000000000000000000000000000000004000000000000000000000000000000000000000000000000000000000000000000000000000000000000008000000000000000000000000000000000000000000000000000000000000000000000000000000000000000000000000000000000000000000000001000000000000000000000000000000000000000000000000",
          "type": "0x2",
          "transactionHash": "0xd326d6345a8df4b041281e28c8628fb4609ed954e621fc091f53f112b719fd91",
          "transactionIndex": "0x7c",
          "blockHash": "0xb1f767ede3c728e3be9722b6a380e92ed2ad9f22ff0ade380650d1af7d161be8",
          "blockNumber": "0x78bc79",
          "gasUsed": "0xcddc",
          "effectiveGasPrice": "0x1959dec",
          "from": "0x8454d149beb26e3e3fc5ed1c87fb0b2a1b7b6c2c",
          "to": "0xaa1ffb25606a449c5b03ea0433b0541c36fe8903",
          "contractAddress": null
        },
        {
          "status": "0x1",
          "cumulativeGasUsed": "0xf1444f",
          "logs": [
            {
              "address": "0xaa1ffb25606a449c5b03ea0433b0541c36fe8903",
              "topics": [
                "0xa5f858f3914e62a82af355192513d8dbc618ff9815e7213a71930d8996a3cb82",
                "0x000000000000000000000000000000000000000000000000de41ba4fc9d91ad9"
              ],
              "data": "0x0000000000000000000000000000000000000000000000000000000000000001",
              "blockHash": "0xb1f767ede3c728e3be9722b6a380e92ed2ad9f22ff0ade380650d1af7d161be8",
              "blockNumber": "0x78bc79",
              "blockTimestamp": "0x67d67624",
              "transactionHash": "0x67fbe46e377d59895d614c509c1e5bf90e4044212f10e8e2e43d6b3f42d796ad",
              "transactionIndex": "0x7d",
              "logIndex": "0x142",
              "removed": false
            }
          ],
          "logsBloom": "0x00000000000000000000020000000000000000000000000000000040000000000000000000004000000000000000000000000000000000000000000000000000000000040000000000000000000000000000000000000000000000000000000000000000000000000000100000010000000000000000000000000000000000000000000000000000000000000000000000000020000000000000000000000000000000000000000000000008000000000000000000000000000000000000000000000000000000000000000000000000000000000000000000000000000000000000000000000001000000000000000000000000000000000000000000000000",
          "type": "0x2",
          "transactionHash": "0x67fbe46e377d59895d614c509c1e5bf90e4044212f10e8e2e43d6b3f42d796ad",
          "transactionIndex": "0x7d",
          "blockHash": "0xb1f767ede3c728e3be9722b6a380e92ed2ad9f22ff0ade380650d1af7d161be8",
          "blockNumber": "0x78bc79",
          "gasUsed": "0xcddc",
          "effectiveGasPrice": "0x1959dec",
          "from": "0x8454d149beb26e3e3fc5ed1c87fb0b2a1b7b6c2c",
          "to": "0xaa1ffb25606a449c5b03ea0433b0541c36fe8903",
          "contractAddress": null
        },
        {
          "status": "0x1",
          "cumulativeGasUsed": "0xf21234",
          "logs": [
            {
              "address": "0xaa1ffb25606a449c5b03ea0433b0541c36fe8903",
              "topics": [
                "0x79e93956b5c7b59cb1d0aaa5849af9993c5b994c44b148b1944f4e4ecf1e9b89",
                "0x0000000000000000000000000000000000000000000000008f90b8876dee6538"
              ],
              "data": "0x0000000000000000000000000000000000000000000000000000000000000001",
              "blockHash": "0xb1f767ede3c728e3be9722b6a380e92ed2ad9f22ff0ade380650d1af7d161be8",
              "blockNumber": "0x78bc79",
              "blockTimestamp": "0x67d67624",
              "transactionHash": "0x62990c462b66efa0ddf134bf82f11b4e036abf005c6af75e3ae5663ad292c6a9",
              "transactionIndex": "0x7e",
              "logIndex": "0x143",
              "removed": false
            }
          ],
          "logsBloom": "0x00000000000000000000000000000000000000040000000000000040000000000000000000000000000000000000000000000000000000000000000000000000000000040000000000200000000000000000000400000000000000000000200000000000000000000000000000000000000000000000000000000000000000004000000000000000000000000000000000000000000000000000000000000000000000000000000000000008000000000000000000000000000000100000000000000000000000000000000000000000000000000000000000000000000000000000000000000000000000000000000000000000000000000000000000000000",
          "type": "0x2",
          "transactionHash": "0x62990c462b66efa0ddf134bf82f11b4e036abf005c6af75e3ae5663ad292c6a9",
          "transactionIndex": "0x7e",
          "blockHash": "0xb1f767ede3c728e3be9722b6a380e92ed2ad9f22ff0ade380650d1af7d161be8",
          "blockNumber": "0x78bc79",
          "gasUsed": "0xcde5",
          "effectiveGasPrice": "0x1959dec",
          "from": "0x8454d149beb26e3e3fc5ed1c87fb0b2a1b7b6c2c",
          "to": "0xaa1ffb25606a449c5b03ea0433b0541c36fe8903",
          "contractAddress": null
        },
        {
          "status": "0x1",
          "cumulativeGasUsed": "0xf2e7b3",
          "logs": [
            {
              "address": "0x1c0a29e1768c4d10da8bc5aef17347b43f9c1f82",
              "topics": [
                "0xed4c89b805f4efb58bc4a42b9a3c6f09783f619295a1fa41ab46d6190c8c7f3b",
                "0xd8a85b4800000000000000000000000000000000000000000000000000000000",
                "0x00000000000000000000000000000000000000000000000000000000000493e0"
              ],
              "data": "0x",
              "blockHash": "0xb1f767ede3c728e3be9722b6a380e92ed2ad9f22ff0ade380650d1af7d161be8",
              "blockNumber": "0x78bc79",
              "blockTimestamp": "0x67d67624",
              "transactionHash": "0x68bd99ea3fa52ca67ec6ecef246f6bd517eaa692dfff077646e15bf0c53d0790",
              "transactionIndex": "0x7f",
              "logIndex": "0x144",
              "removed": false
            }
          ],
          "logsBloom": "0x00000000000000000040000000000000000000020800000000000000000000000000000000000000000000000000000000000000000000000000000000000000000000000000000000000000000000000000000000002000000000000000000000000000000000000000000000000000800000000000040000200000000000000000000000000000000000001000000000001004000000000000000000000000000000000000000000010000000000000000000000000000000000000000000000000000000000000000000000000000000000000000000000000000000000000000000000000000000000000000000000000000000000000000000000000000",
          "type": "0x2",
          "transactionHash": "0x68bd99ea3fa52ca67ec6ecef246f6bd517eaa692dfff077646e15bf0c53d0790",
          "transactionIndex": "0x7f",
          "blockHash": "0xb1f767ede3c728e3be9722b6a380e92ed2ad9f22ff0ade380650d1af7d161be8",
          "blockNumber": "0x78bc79",
          "gasUsed": "0xd57f",
          "effectiveGasPrice": "0x1959dec",
          "from": "0x8454d149beb26e3e3fc5ed1c87fb0b2a1b7b6c2c",
          "to": "0x1c0a29e1768c4d10da8bc5aef17347b43f9c1f82",
          "contractAddress": null
        }
      ],
      "libraries": [],
      "pending": [],
      "returns": {},
      "timestamp": 1742108177,
      "chain": 11155111,
      "commit": "3a511f6"
    }
  ],
  "timestamp": 1742108197
}