{
  "transactions": [
    {
      "hash": "0x94b303e29a029bf2c744530263fe77b889d776b36778eee73790264e3aa3e3f6",
      "transactionType": "CALL",
      "contractName": null,
      "contractAddress": "0xaf03f2a302a2c4867d622de44b213b8f870c0f1a",
      "function": "mint(address,uint256)",
      "arguments": [
        "0x8454d149Beb26E3E3FC5eD1C87Fb0B2a1b7B6c2c",
        "100000000000000000"
      ],
      "transaction": {
        "from": "0x8454d149beb26e3e3fc5ed1c87fb0b2a1b7b6c2c",
        "to": "0xaf03f2a302a2c4867d622de44b213b8f870c0f1a",
        "gas": "0x13350",
        "value": "0x0",
        "input": "0x40c10f190000000000000000000000008454d149beb26e3e3fc5ed1c87fb0b2a1b7b6c2c000000000000000000000000000000000000000000000000016345785d8a0000",
        "nonce": "0xabc",
        "chainId": "0xaa36a7"
      },
      "additionalContracts": [],
      "isFixedGasLimit": false
    },
    {
      "hash": "0x506659bf51703596695a2448e1eed2353314dfa12cf64f4193fcc524aee777b0",
      "transactionType": "CALL",
      "contractName": null,
      "contractAddress": "0xaf03f2a302a2c4867d622de44b213b8f870c0f1a",
      "function": "approve(address,uint256)",
      "arguments": [
        "0x5549457A878d589c28743332091032e407DA1306",
        "100000000000000000"
      ],
      "transaction": {
        "from": "0x8454d149beb26e3e3fc5ed1c87fb0b2a1b7b6c2c",
        "to": "0xaf03f2a302a2c4867d622de44b213b8f870c0f1a",
        "gas": "0x8ea3",
        "value": "0x0",
        "input": "0x095ea7b30000000000000000000000005549457a878d589c28743332091032e407da1306000000000000000000000000000000000000000000000000016345785d8a0000",
        "nonce": "0xabd",
        "chainId": "0xaa36a7"
      },
      "additionalContracts": [],
      "isFixedGasLimit": false
    },
    {
      "hash": "0xa033556a1206c8e40fe3a25da8f313f2d8a3f5c554d44ad9ead151858df53de7",
      "transactionType": "CALL",
      "contractName": null,
      "contractAddress": "0x5549457a878d589c28743332091032e407da1306",
      "function": "submitRoot(bytes32,uint32)",
      "arguments": [
        "0x8dfcd70235d8ebc3f6b8c50a70c61df0d4f76f25be41ed493930c583801a5105",
        "1741824000"
      ],
      "transaction": {
        "from": "0x8454d149beb26e3e3fc5ed1c87fb0b2a1b7b6c2c",
        "to": "0x5549457a878d589c28743332091032e407da1306",
        "gas": "0x1dfc4",
        "value": "0x0",
        "input": "0x3efe1db68dfcd70235d8ebc3f6b8c50a70c61df0d4f76f25be41ed493930c583801a51050000000000000000000000000000000000000000000000000000000067d22000",
        "nonce": "0xabe",
        "chainId": "0xaa36a7"
      },
      "additionalContracts": [],
      "isFixedGasLimit": false
    },
    {
      "hash": "0x13ce6be2368d1ac99ff9549c45b377ea9bac4317c2d7a1bcb1ba1c3b48d30701",
      "transactionType": "CALL",
      "contractName": null,
      "contractAddress": "0xaf03f2a302a2c4867d622de44b213b8f870c0f1a",
      "function": "transfer(address,uint256)",
      "arguments": [
        "0x5549457A878d589c28743332091032e407DA1306",
        "100000000000000000"
      ],
      "transaction": {
        "from": "0x8454d149beb26e3e3fc5ed1c87fb0b2a1b7b6c2c",
        "to": "0xaf03f2a302a2c4867d622de44b213b8f870c0f1a",
        "gas": "0x10abb",
        "value": "0x0",
        "input": "0xa9059cbb0000000000000000000000005549457a878d589c28743332091032e407da1306000000000000000000000000000000000000000000000000016345785d8a0000",
        "nonce": "0xabf",
        "chainId": "0xaa36a7"
      },
      "additionalContracts": [],
      "isFixedGasLimit": false
    }
  ],
  "receipts": [
    {
      "status": "0x1",
      "cumulativeGasUsed": "0x6e9efb",
      "logs": [
        {
          "address": "0xaf03f2a302a2c4867d622de44b213b8f870c0f1a",
          "topics": [
            "0xddf252ad1be2c89b69c2b068fc378daa952ba7f163c4a11628f55a4df523b3ef",
            "0x0000000000000000000000000000000000000000000000000000000000000000",
            "0x0000000000000000000000008454d149beb26e3e3fc5ed1c87fb0b2a1b7b6c2c"
          ],
          "data": "0x000000000000000000000000000000000000000000000000016345785d8a0000",
          "blockHash": "0xf3d79a21bebfd89fb5e9fba04d2b79dda9431c0b4f756b54816c9850c735f8fb",
          "blockNumber": "0x790bdf",
          "blockTimestamp": "0x67da4aa0",
          "transactionHash": "0x94b303e29a029bf2c744530263fe77b889d776b36778eee73790264e3aa3e3f6",
          "transactionIndex": "0x49",
          "logIndex": "0x67",
          "removed": false
        }
      ],
      "logsBloom": "0x00000000000000000000000000000000000000000000000000000000000000000000000000000000000000000000000000000000000000000000000000000000000000000000000000000008000000000000000000000000000000000000000000000000020000000000000000000800000000000000000000000010020000000000000000000000000000000000000000000000000000000000000000000000080000000000000000000000000000000000000000000080000000000000000000000002000000002000000000000000080000000000000000000000000820000000000000000000000000000000000000000000000000000000000000000000",
      "type": "0x2",
      "transactionHash": "0x94b303e29a029bf2c744530263fe77b889d776b36778eee73790264e3aa3e3f6",
      "transactionIndex": "0x49",
      "blockHash": "0xf3d79a21bebfd89fb5e9fba04d2b79dda9431c0b4f756b54816c9850c735f8fb",
      "blockNumber": "0x790bdf",
      "gasUsed": "0xd221",
      "effectiveGasPrice": "0x430325",
      "from": "0x8454d149beb26e3e3fc5ed1c87fb0b2a1b7b6c2c",
      "to": "0xaf03f2a302a2c4867d622de44b213b8f870c0f1a",
      "contractAddress": null
    },
    {
      "status": "0x1",
      "cumulativeGasUsed": "0x6f0640",
      "logs": [
        {
          "address": "0xaf03f2a302a2c4867d622de44b213b8f870c0f1a",
          "topics": [
            "0x8c5be1e5ebec7d5bd14f71427d1e84f3dd0314c0f7b2291e5b200ac8c7c3b925",
            "0x0000000000000000000000008454d149beb26e3e3fc5ed1c87fb0b2a1b7b6c2c",
            "0x0000000000000000000000005549457a878d589c28743332091032e407da1306"
          ],
          "data": "0x000000000000000000000000000000000000000000000000016345785d8a0000",
          "blockHash": "0xf3d79a21bebfd89fb5e9fba04d2b79dda9431c0b4f756b54816c9850c735f8fb",
          "blockNumber": "0x790bdf",
          "blockTimestamp": "0x67da4aa0",
          "transactionHash": "0x506659bf51703596695a2448e1eed2353314dfa12cf64f4193fcc524aee777b0",
          "transactionIndex": "0x4a",
          "logIndex": "0x68",
          "removed": false
        }
      ],
      "logsBloom": "0x000000000000000000000000000000000000000000000000000000000000000000000000000000000000000000000000000000000000000000000000002000000000000000000000000000000400000000000000000001000000000000000000000000000000000000000000004000000000000000000000000000000200000000000000000000000000000000000000000000000000000000000000000000000a0000000000000000000000000000000000000000000080000000000000000000000000000000002000000000000000080000000000000000000000000800000010000000000000000000000000000000000000000000000000000000000000",
      "type": "0x2",
      "transactionHash": "0x506659bf51703596695a2448e1eed2353314dfa12cf64f4193fcc524aee777b0",
      "transactionIndex": "0x4a",
      "blockHash": "0xf3d79a21bebfd89fb5e9fba04d2b79dda9431c0b4f756b54816c9850c735f8fb",
      "blockNumber": "0x790bdf",
      "gasUsed": "0x6745",
      "effectiveGasPrice": "0x430325",
      "from": "0x8454d149beb26e3e3fc5ed1c87fb0b2a1b7b6c2c",
      "to": "0xaf03f2a302a2c4867d622de44b213b8f870c0f1a",
      "contractAddress": null
    },
    {
      "status": "0x1",
      "cumulativeGasUsed": "0x706198",
      "logs": [
        {
          "address": "0x5549457a878d589c28743332091032e407da1306",
          "topics": [
            "0xecd866c3c158fa00bf34d803d5f6023000b57080bcb48af004c2b4b46b3afd08",
            "0x0000000000000000000000000000000000000000000000000000000000000001",
            "0x8dfcd70235d8ebc3f6b8c50a70c61df0d4f76f25be41ed493930c583801a5105",
            "0x0000000000000000000000000000000000000000000000000000000067d22000"
          ],
          "data": "0x0000000000000000000000000000000000000000000000000000000067da4aa0",
          "blockHash": "0xf3d79a21bebfd89fb5e9fba04d2b79dda9431c0b4f756b54816c9850c735f8fb",
          "blockNumber": "0x790bdf",
          "blockTimestamp": "0x67da4aa0",
          "transactionHash": "0xa033556a1206c8e40fe3a25da8f313f2d8a3f5c554d44ad9ead151858df53de7",
          "transactionIndex": "0x4b",
          "logIndex": "0x69",
          "removed": false
        }
      ],
      "logsBloom": "0x00000000000000000000000000000000000000000000000000000000000000000000000000000000000000000000000000000000000000000000000000040000080000000000000000000000000000000000000000040008000000000000000000000000000000000000000000000000000000000000000000000000000000000000000000400000000200000000000000000000100000000000000000000000000000000000000000000000000000000000000000000080000000000000040000000000000000001000000000000000000000000000000000000000000040000010000000000000000000000010000000000004000008000000000000000000",
      "type": "0x2",
      "transactionHash": "0xa033556a1206c8e40fe3a25da8f313f2d8a3f5c554d44ad9ead151858df53de7",
      "transactionIndex": "0x4b",
      "blockHash": "0xf3d79a21bebfd89fb5e9fba04d2b79dda9431c0b4f756b54816c9850c735f8fb",
      "blockNumber": "0x790bdf",
      "gasUsed": "0x15b58",
      "effectiveGasPrice": "0x430325",
      "from": "0x8454d149beb26e3e3fc5ed1c87fb0b2a1b7b6c2c",
      "to": "0x5549457a878d589c28743332091032e407da1306",
      "contractAddress": null
    },
    {
      "status": "0x1",
      "cumulativeGasUsed": "0x7117fa",
      "logs": [
        {
          "address": "0xaf03f2a302a2c4867d622de44b213b8f870c0f1a",
          "topics": [
            "0xddf252ad1be2c89b69c2b068fc378daa952ba7f163c4a11628f55a4df523b3ef",
            "0x0000000000000000000000008454d149beb26e3e3fc5ed1c87fb0b2a1b7b6c2c",
            "0x0000000000000000000000005549457a878d589c28743332091032e407da1306"
          ],
          "data": "0x000000000000000000000000000000000000000000000000016345785d8a0000",
          "blockHash": "0xf3d79a21bebfd89fb5e9fba04d2b79dda9431c0b4f756b54816c9850c735f8fb",
          "blockNumber": "0x790bdf",
          "blockTimestamp": "0x67da4aa0",
          "transactionHash": "0x13ce6be2368d1ac99ff9549c45b377ea9bac4317c2d7a1bcb1ba1c3b48d30701",
          "transactionIndex": "0x4c",
          "logIndex": "0x6a",
          "removed": false
        }
      ],
      "logsBloom": "0x00000000000000000000000000000000000000000000000000000000000000000000000000000000000000000000000000000000000000000000000000000000000000000000000000000008040000000000000000000100000000000000000000000000000000000000000000400000000000000000000000000010020000000000000000000000000000000000000000000000000000000000000000000000080000000000000000000000000000000000000000000080000000000000000000000002000000002000000000000000080000000000000000000000000800000000000000000000000000000000000000000000000000000000000000000000",
      "type": "0x2",
      "transactionHash": "0x13ce6be2368d1ac99ff9549c45b377ea9bac4317c2d7a1bcb1ba1c3b48d30701",
      "transactionIndex": "0x4c",
      "blockHash": "0xf3d79a21bebfd89fb5e9fba04d2b79dda9431c0b4f756b54816c9850c735f8fb",
      "blockNumber": "0x790bdf",
      "gasUsed": "0xb662",
      "effectiveGasPrice": "0x430325",
      "from": "0x8454d149beb26e3e3fc5ed1c87fb0b2a1b7b6c2c",
      "to": "0xaf03f2a302a2c4867d622de44b213b8f870c0f1a",
      "contractAddress": null
    }
  ],
  "libraries": [
    "src/RestakingConnectorUtils.sol:RestakingConnectorUtils:0x8f11aE71Ac71BA601a1EF5B9D87D1DC1339EB4B3",
    "src/utils/EigenlayerMsgDecoders.sol:AgentOwnerSignature:0x2F5d827aF9E768762B8A72C478362799C99B63b7",
    "src/utils/EigenlayerMsgDecoders.sol:DelegationDecoders:0x1b7F90bfC259f18310094D45e0a7E0786cb12F03",
    "src/utils/EigenlayerMsgEncoders.sol:EigenlayerMsgEncoders:0x659fB218aa16721c14982Ae53A27269847c0133F",
    "src/utils/FunctionSelectorDecoder.sol:FunctionSelectorDecoder:0xc5132D7ba9F2B19a68d69712724f9126638FD7B3"
  ],
  "pending": [],
  "returns": {},
  "timestamp": 1742359201,
  "chain": 11155111,
  "commit": "51e241d"
}