{
  "transactions": [
    {
      "hash": "0x81600927121d9defb947e11d450acdf32ac9f55338eaa0124797c42681a8cd30",
      "transactionType": "CALL",
      "contractName": null,
      "contractAddress": "0xaf03f2a302a2c4867d622de44b213b8f870c0f1a",
      "function": "mint(address,uint256)",
      "arguments": [
        "0x8454d149Beb26E3E3FC5eD1C87Fb0B2a1b7B6c2c",
        "1000000000000000000"
      ],
      "transaction": {
        "from": "0x8454d149beb26e3e3fc5ed1c87fb0b2a1b7b6c2c",
        "to": "0xaf03f2a302a2c4867d622de44b213b8f870c0f1a",
        "gas": "0x13350",
        "value": "0x0",
        "input": "0x40c10f190000000000000000000000008454d149beb26e3e3fc5ed1c87fb0b2a1b7b6c2c0000000000000000000000000000000000000000000000000de0b6b3a7640000",
        "nonce": "0xac2",
        "chainId": "0xaa36a7"
      },
      "additionalContracts": [],
      "isFixedGasLimit": false
    },
    {
      "hash": "0xeb34c990f55fa5a4c3e85f0f95f160484c4c24cf5f7ac48f9260f548d3c0fdd4",
      "transactionType": "CALL",
      "contractName": null,
      "contractAddress": "0x5549457a878d589c28743332091032e407da1306",
      "function": "submitRoot(bytes32,uint32)",
      "arguments": [
        "0xd4917921effdd2a296674792b3252c63ed7b3b8b861e0ba37ad61aa317f5b569",
        "1742428800"
      ],
      "transaction": {
        "from": "0x8454d149beb26e3e3fc5ed1c87fb0b2a1b7b6c2c",
        "to": "0x5549457a878d589c28743332091032e407da1306",
        "gas": "0x1dfd5",
        "value": "0x0",
        "input": "0x3efe1db6d4917921effdd2a296674792b3252c63ed7b3b8b861e0ba37ad61aa317f5b5690000000000000000000000000000000000000000000000000000000067db5a80",
        "nonce": "0xac3",
        "chainId": "0xaa36a7"
      },
      "additionalContracts": [],
      "isFixedGasLimit": false
    },
    {
      "hash": "0xb4367535889bf53012a7cdf9b012ff581abc9b6ba2e6e2bd298b99893b970f72",
      "transactionType": "CALL",
      "contractName": null,
      "contractAddress": "0xaf03f2a302a2c4867d622de44b213b8f870c0f1a",
      "function": "transfer(address,uint256)",
      "arguments": [
        "0x5549457A878d589c28743332091032e407DA1306",
        "1000000000000000000"
      ],
      "transaction": {
        "from": "0x8454d149beb26e3e3fc5ed1c87fb0b2a1b7b6c2c",
        "to": "0xaf03f2a302a2c4867d622de44b213b8f870c0f1a",
        "gas": "0x10abb",
        "value": "0x0",
        "input": "0xa9059cbb0000000000000000000000005549457a878d589c28743332091032e407da13060000000000000000000000000000000000000000000000000de0b6b3a7640000",
        "nonce": "0xac4",
        "chainId": "0xaa36a7"
      },
      "additionalContracts": [],
      "isFixedGasLimit": false
    }
  ],
  "receipts": [],
  "libraries": [
    "src/RestakingConnectorUtils.sol:RestakingConnectorUtils:0x8f11aE71Ac71BA601a1EF5B9D87D1DC1339EB4B3",
    "src/utils/EigenlayerMsgDecoders.sol:AgentOwnerSignature:0x2F5d827aF9E768762B8A72C478362799C99B63b7",
    "src/utils/EigenlayerMsgDecoders.sol:DelegationDecoders:0x1b7F90bfC259f18310094D45e0a7E0786cb12F03",
    "src/utils/EigenlayerMsgEncoders.sol:EigenlayerMsgEncoders:0x659fB218aa16721c14982Ae53A27269847c0133F",
    "src/utils/FunctionSelectorDecoder.sol:FunctionSelectorDecoder:0xc5132D7ba9F2B19a68d69712724f9126638FD7B3"
  ],
  "pending": [
    "0x81600927121d9defb947e11d450acdf32ac9f55338eaa0124797c42681a8cd30",
    "0xeb34c990f55fa5a4c3e85f0f95f160484c4c24cf5f7ac48f9260f548d3c0fdd4",
    "0xb4367535889bf53012a7cdf9b012ff581abc9b6ba2e6e2bd298b99893b970f72"
  ],
  "returns": {},
  "timestamp": 1742474527,
  "chain": 11155111,
  "commit": "3632ba4"
}