{
  "transactions": [
    {
      "hash": "0x71151988e632095901a26fa5e033ea8b608795541244709f1f95c1fc14bc75d2",
      "transactionType": "CALL",
      "contractName": "TransparentUpgradeableProxy",
      "contractAddress": "0x82e23a572a0d0dcae8bf1a91aa3df924ad0a0041",
      "function": null,
      "arguments": null,
      "transaction": {
        "from": "0x8454d149beb26e3e3fc5ed1c87fb0b2a1b7b6c2c",
        "to": "0x82e23a572a0d0dcae8bf1a91aa3df924ad0a0041",
        "gas": "0x1e0ac",
        "value": "0x0",
        "input": "0x3efe1db6a155d10093941d423ce516d32cda38dc24e90315f4333670590d43e1743dd4580000000000000000000000000000000000000000000000000000000066f4a400",
        "nonce": "0x773",
        "chainId": "0xaa36a7"
      },
      "additionalContracts": [],
      "isFixedGasLimit": false
    },
    {
      "hash": "0x6e2292f4424165d12befb87a85ac835ad17331d6fb976aede3e784ef02ddfa78",
      "transactionType": "CALL",
      "contractName": null,
      "contractAddress": "0xfd57b4ddbf88a4e07ff4e34c487b99af2fe82a05",
      "function": "transfer(address,uint256)",
      "arguments": [
        "0x82E23a572a0D0dcae8bF1A91Aa3DF924AD0A0041",
        "100000000000000000"
      ],
      "transaction": {
        "from": "0x8454d149beb26e3e3fc5ed1c87fb0b2a1b7b6c2c",
        "to": "0xfd57b4ddbf88a4e07ff4e34c487b99af2fe82a05",
        "gas": "0xc45b",
        "value": "0x0",
        "input": "0xa9059cbb00000000000000000000000082e23a572a0d0dcae8bf1a91aa3df924ad0a0041000000000000000000000000000000000000000000000000016345785d8a0000",
        "nonce": "0x774",
        "chainId": "0xaa36a7"
      },
      "additionalContracts": [],
      "isFixedGasLimit": false
    }
  ],
  "receipts": [
    {
      "status": "0x1",
      "cumulativeGasUsed": "0x26ef32",
      "logs": [
        {
          "address": "0x82e23a572a0d0dcae8bf1a91aa3df924ad0a0041",
          "topics": [
            "0xecd866c3c158fa00bf34d803d5f6023000b57080bcb48af004c2b4b46b3afd08",
            "0x0000000000000000000000000000000000000000000000000000000000000002",
            "0xa155d10093941d423ce516d32cda38dc24e90315f4333670590d43e1743dd458",
            "0x0000000000000000000000000000000000000000000000000000000066f4a400"
          ],
          "data": "0x0000000000000000000000000000000000000000000000000000000066f925c8",
          "blockHash": "0xc7a6c7ad04e96433bb5cf302e4e1591395128081f8d74da4e9d9f556b1687ca4",
          "blockNumber": "0x677741",
          "transactionHash": "0x71151988e632095901a26fa5e033ea8b608795541244709f1f95c1fc14bc75d2",
          "transactionIndex": "0xf",
          "logIndex": "0x19",
          "removed": false
        }
      ],
      "logsBloom": "0x04000000000000000000000000000000000000000000000000000000000000000000000000000000000000000080000000000000000000000200000000000800000000000000000000000000000000000000000000000000000000000000000000000000000000020000000000080000000000000000000000000000000000000000000000400008000000000000000000000010000000000000000000000000000000000000000000000100000000000000000000004001000000000000000000000000000000000000000000000000000000000000000000000000000000000010000000000000000000000000000000000004008000000000000000000000",
      "type": "0x2",
      "transactionHash": "0x71151988e632095901a26fa5e033ea8b608795541244709f1f95c1fc14bc75d2",
      "transactionIndex": "0xf",
      "blockHash": "0xc7a6c7ad04e96433bb5cf302e4e1591395128081f8d74da4e9d9f556b1687ca4",
      "blockNumber": "0x677741",
      "gasUsed": "0x15c00",
      "effectiveGasPrice": "0x413df9ddf6",
      "from": "0x8454d149beb26e3e3fc5ed1c87fb0b2a1b7b6c2c",
      "to": "0x82e23a572a0d0dcae8bf1a91aa3df924ad0a0041",
      "contractAddress": null
    },
    {
      "status": "0x1",
      "cumulativeGasUsed": "0x294541",
      "logs": [
        {
          "address": "0xfd57b4ddbf88a4e07ff4e34c487b99af2fe82a05",
          "topics": [
            "0xddf252ad1be2c89b69c2b068fc378daa952ba7f163c4a11628f55a4df523b3ef",
            "0x0000000000000000000000008454d149beb26e3e3fc5ed1c87fb0b2a1b7b6c2c",
            "0x00000000000000000000000082e23a572a0d0dcae8bf1a91aa3df924ad0a0041"
          ],
          "data": "0x000000000000000000000000000000000000000000000000016345785d8a0000",
          "blockHash": "0xc7a6c7ad04e96433bb5cf302e4e1591395128081f8d74da4e9d9f556b1687ca4",
          "blockNumber": "0x677741",
          "transactionHash": "0x6e2292f4424165d12befb87a85ac835ad17331d6fb976aede3e784ef02ddfa78",
          "transactionIndex": "0x11",
          "logIndex": "0x1c",
          "removed": false
        }
      ],
      "logsBloom": "0x00000002008000000000000000000000000000000000000000000000000000000000000000000000000000000000000000000000000000000000000000000000000000000000000000000008000000000000000000000000000000000000000000000000000000000000000000000000000000000000000000000010000000000000000000000000008000000000000000000000000000000000000000000000080000000000000040000000000000080000000000000000000000000000000000000002000000000000000000000000080000000000000000000000000800000000000000000000000000000000000000000000000000000000000400000000",
      "type": "0x2",
      "transactionHash": "0x6e2292f4424165d12befb87a85ac835ad17331d6fb976aede3e784ef02ddfa78",
      "transactionIndex": "0x11",
      "blockHash": "0xc7a6c7ad04e96433bb5cf302e4e1591395128081f8d74da4e9d9f556b1687ca4",
      "blockNumber": "0x677741",
      "gasUsed": "0x8643",
      "effectiveGasPrice": "0x413df9ddf6",
      "from": "0x8454d149beb26e3e3fc5ed1c87fb0b2a1b7b6c2c",
      "to": "0xfd57b4ddbf88a4e07ff4e34c487b99af2fe82a05",
      "contractAddress": null
    }
  ],
  "libraries": [
    "src/utils/EigenlayerMsgDecoders.sol:AgentOwnerSignature:0x79e61E07732C377005f3586cf14E9C64f98E5a33",
    "src/utils/EigenlayerMsgDecoders.sol:DelegationDecoders:0x97555A1143056A80f0AC2e163881Bab8642F06cd",
    "src/utils/EigenlayerMsgEncoders.sol:EigenlayerMsgEncoders:0x0b3634Ea770570bb2E0eba91C1B20308aa4ABCbA",
    "src/utils/FunctionSelectorDecoder.sol:FunctionSelectorDecoder:0xe917c8B6d2427bBDaE5D5CaA51DEcc57CE4a71ee"
  ],
  "pending": [],
  "returns": {},
  "timestamp": 1727604172,
  "chain": 11155111,
  "commit": "cf39f25"
}