{
  "transactions": [
    {
      "hash": "0xdda234741c04e512d36ea8193f32ee809aee9d81dc612d7b5ac005fb150888dc",
      "transactionType": "CALL",
      "contractName": null,
      "contractAddress": "0xaf03f2a302a2c4867d622de44b213b8f870c0f1a",
      "function": "mint(address,uint256)",
      "arguments": [
        "0x8454d149Beb26E3E3FC5eD1C87Fb0B2a1b7B6c2c",
        "100000000000000000"
      ],
      "transaction": {
        "from": "0x8454d149beb26e3e3fc5ed1c87fb0b2a1b7b6c2c",
        "to": "0xaf03f2a302a2c4867d622de44b213b8f870c0f1a",
        "gas": "0x13350",
        "value": "0x0",
        "input": "0x40c10f190000000000000000000000008454d149beb26e3e3fc5ed1c87fb0b2a1b7b6c2c000000000000000000000000000000000000000000000000016345785d8a0000",
        "nonce": "0x8ee",
        "chainId": "0xaa36a7"
      },
      "additionalContracts": [],
      "isFixedGasLimit": false
    },
    {
      "hash": "0x3afb3a72c070462bd06c6d618c0d744fcbc0e539fb56d327024967fda4678a9d",
      "transactionType": "CALL",
      "contractName": null,
      "contractAddress": "0xaf03f2a302a2c4867d622de44b213b8f870c0f1a",
      "function": "approve(address,uint256)",
      "arguments": [
        "0x5549457A878d589c28743332091032e407DA1306",
        "100000000000000000"
      ],
      "transaction": {
        "from": "0x8454d149beb26e3e3fc5ed1c87fb0b2a1b7b6c2c",
        "to": "0xaf03f2a302a2c4867d622de44b213b8f870c0f1a",
        "gas": "0x108b7",
        "value": "0x0",
        "input": "0x095ea7b30000000000000000000000005549457a878d589c28743332091032e407da1306000000000000000000000000000000000000000000000000016345785d8a0000",
        "nonce": "0x8ef",
        "chainId": "0xaa36a7"
      },
      "additionalContracts": [],
      "isFixedGasLimit": false
    },
    {
      "hash": "0xe2c85768621e61904ac361adcfbdb3ebd299de163db04192a570981353de504e",
      "transactionType": "CALL",
      "contractName": null,
      "contractAddress": "0x5549457a878d589c28743332091032e407da1306",
      "function": "submitRoot(bytes32,uint32)",
      "arguments": [
        "0xad2a9b123d3b1c237e084d8a7d0fec47996f0a9edcf5f192caa46466f0613170",
        "1741219200"
      ],
      "transaction": {
        "from": "0x8454d149beb26e3e3fc5ed1c87fb0b2a1b7b6c2c",
        "to": "0x5549457a878d589c28743332091032e407da1306",
        "gas": "0x23c18",
        "value": "0x0",
        "input": "0x3efe1db6ad2a9b123d3b1c237e084d8a7d0fec47996f0a9edcf5f192caa46466f06131700000000000000000000000000000000000000000000000000000000067c8e580",
        "nonce": "0x8f0",
        "chainId": "0xaa36a7"
      },
      "additionalContracts": [],
      "isFixedGasLimit": false
    },
    {
      "hash": "0xab303d0b17bfe414f09734bac32e6905f84b04b680d2514d7188d9e4885c7063",
      "transactionType": "CALL",
      "contractName": null,
      "contractAddress": "0xaf03f2a302a2c4867d622de44b213b8f870c0f1a",
      "function": "transfer(address,uint256)",
      "arguments": [
        "0x5549457A878d589c28743332091032e407DA1306",
        "100000000000000000"
      ],
      "transaction": {
        "from": "0x8454d149beb26e3e3fc5ed1c87fb0b2a1b7b6c2c",
        "to": "0xaf03f2a302a2c4867d622de44b213b8f870c0f1a",
        "gas": "0x10abb",
        "value": "0x0",
        "input": "0xa9059cbb0000000000000000000000005549457a878d589c28743332091032e407da1306000000000000000000000000000000000000000000000000016345785d8a0000",
        "nonce": "0x8f1",
        "chainId": "0xaa36a7"
      },
      "additionalContracts": [],
      "isFixedGasLimit": false
    }
  ],
  "receipts": [
    {
      "status": "0x1",
      "cumulativeGasUsed": "0x192be06",
      "logs": [
        {
          "address": "0xaf03f2a302a2c4867d622de44b213b8f870c0f1a",
          "topics": [
            "0xddf252ad1be2c89b69c2b068fc378daa952ba7f163c4a11628f55a4df523b3ef",
            "0x0000000000000000000000000000000000000000000000000000000000000000",
            "0x0000000000000000000000008454d149beb26e3e3fc5ed1c87fb0b2a1b7b6c2c"
          ],
          "data": "0x000000000000000000000000000000000000000000000000016345785d8a0000",
          "blockHash": "0x12d67d9c56be46b0770f826ef1198d4a1c3f31b5bf8e00b8995d16c699ab80ea",
          "blockNumber": "0x785e10",
          "transactionHash": "0xdda234741c04e512d36ea8193f32ee809aee9d81dc612d7b5ac005fb150888dc",
          "transactionIndex": "0x9b",
          "logIndex": "0x1e7",
          "removed": false
        }
      ],
      "logsBloom": "0x00000000000000000000000000000000000000000000000000000000000000000000000000000000000000000000000000000000000000000000000000000000000000000000000000000008000000000000000000000000000000000000000000000000020000000000000000000800000000000000000000000010020000000000000000000000000000000000000000000000000000000000000000000000080000000000000000000000000000000000000000000080000000000000000000000002000000002000000000000000080000000000000000000000000820000000000000000000000000000000000000000000000000000000000000000000",
      "type": "0x2",
      "transactionHash": "0xdda234741c04e512d36ea8193f32ee809aee9d81dc612d7b5ac005fb150888dc",
      "transactionIndex": "0x9b",
      "blockHash": "0x12d67d9c56be46b0770f826ef1198d4a1c3f31b5bf8e00b8995d16c699ab80ea",
      "blockNumber": "0x785e10",
      "gasUsed": "0xd221",
      "effectiveGasPrice": "0xccc0cce3c",
      "blobGasUsed": "0x0",
      "from": "0x8454d149beb26e3e3fc5ed1c87fb0b2a1b7b6c2c",
      "to": "0xaf03f2a302a2c4867d622de44b213b8f870c0f1a",
      "contractAddress": null
    },
    {
      "status": "0x1",
      "cumulativeGasUsed": "0x1a38c12",
      "logs": [
        {
          "address": "0xaf03f2a302a2c4867d622de44b213b8f870c0f1a",
          "topics": [
            "0x8c5be1e5ebec7d5bd14f71427d1e84f3dd0314c0f7b2291e5b200ac8c7c3b925",
            "0x0000000000000000000000008454d149beb26e3e3fc5ed1c87fb0b2a1b7b6c2c",
            "0x0000000000000000000000005549457a878d589c28743332091032e407da1306"
          ],
          "data": "0x000000000000000000000000000000000000000000000000016345785d8a0000",
          "blockHash": "0x3938e4d2ce26ae7439ab165a1c4de6542ebc185cc54ce5695bbc8cc0bb75c072",
          "blockNumber": "0x785e11",
          "transactionHash": "0x3afb3a72c070462bd06c6d618c0d744fcbc0e539fb56d327024967fda4678a9d",
          "transactionIndex": "0xc8",
          "logIndex": "0x240",
          "removed": false
        }
      ],
      "logsBloom": "0x000000000000000000000000000000000000000000000000000000000000000000000000000000000000000000000000000000000000000000000000002000000000000000000000000000000400000000000000000001000000000000000000000000000000000000000000004000000000000000000000000000000200000000000000000000000000000000000000000000000000000000000000000000000a0000000000000000000000000000000000000000000080000000000000000000000000000000002000000000000000080000000000000000000000000800000010000000000000000000000000000000000000000000000000000000000000",
      "type": "0x2",
      "transactionHash": "0x3afb3a72c070462bd06c6d618c0d744fcbc0e539fb56d327024967fda4678a9d",
      "transactionIndex": "0xc8",
      "blockHash": "0x3938e4d2ce26ae7439ab165a1c4de6542ebc185cc54ce5695bbc8cc0bb75c072",
      "blockNumber": "0x785e11",
      "gasUsed": "0xb501",
      "effectiveGasPrice": "0xd978b6970",
      "blobGasUsed": "0x0",
      "from": "0x8454d149beb26e3e3fc5ed1c87fb0b2a1b7b6c2c",
      "to": "0xaf03f2a302a2c4867d622de44b213b8f870c0f1a",
      "contractAddress": null
    },
    {
      "status": "0x1",
      "cumulativeGasUsed": "0x1a52a42",
      "logs": [
        {
          "address": "0x5549457a878d589c28743332091032e407da1306",
          "topics": [
            "0xecd866c3c158fa00bf34d803d5f6023000b57080bcb48af004c2b4b46b3afd08",
            "0x0000000000000000000000000000000000000000000000000000000000000000",
            "0xad2a9b123d3b1c237e084d8a7d0fec47996f0a9edcf5f192caa46466f0613170",
            "0x0000000000000000000000000000000000000000000000000000000067c8e580"
          ],
          "data": "0x0000000000000000000000000000000000000000000000000000000067d1c54c",
          "blockHash": "0x3938e4d2ce26ae7439ab165a1c4de6542ebc185cc54ce5695bbc8cc0bb75c072",
          "blockNumber": "0x785e11",
          "transactionHash": "0xe2c85768621e61904ac361adcfbdb3ebd299de163db04192a570981353de504e",
          "transactionIndex": "0xc9",
          "logIndex": "0x241",
          "removed": false
        }
      ],
      "logsBloom": "0x00000000000000000000000000000000000000000000000000000000000000000000000000000000000000000008000000000000000000000000000000000000000000000000000000000000000000000000000000000000000000000000000000000000020000000000000200000800000040000000000000000000000000000002000000400000000000000000000000000000000000000000000000000000000000000000000000000000000000000000000000000080000000000000040000200000000000001000000000000000000000000000000000000000000020000010000000000000000000000000000000000004080000000000000000000000",
      "type": "0x2",
      "transactionHash": "0xe2c85768621e61904ac361adcfbdb3ebd299de163db04192a570981353de504e",
      "transactionIndex": "0xc9",
      "blockHash": "0x3938e4d2ce26ae7439ab165a1c4de6542ebc185cc54ce5695bbc8cc0bb75c072",
      "blockNumber": "0x785e11",
      "gasUsed": "0x19e30",
      "effectiveGasPrice": "0xd978b6970",
      "blobGasUsed": "0x0",
      "from": "0x8454d149beb26e3e3fc5ed1c87fb0b2a1b7b6c2c",
      "to": "0x5549457a878d589c28743332091032e407da1306",
      "contractAddress": null
    },
    {
      "status": "0x1",
      "cumulativeGasUsed": "0x1a5e0a4",
      "logs": [
        {
          "address": "0xaf03f2a302a2c4867d622de44b213b8f870c0f1a",
          "topics": [
            "0xddf252ad1be2c89b69c2b068fc378daa952ba7f163c4a11628f55a4df523b3ef",
            "0x0000000000000000000000008454d149beb26e3e3fc5ed1c87fb0b2a1b7b6c2c",
            "0x0000000000000000000000005549457a878d589c28743332091032e407da1306"
          ],
          "data": "0x000000000000000000000000000000000000000000000000016345785d8a0000",
          "blockHash": "0x3938e4d2ce26ae7439ab165a1c4de6542ebc185cc54ce5695bbc8cc0bb75c072",
          "blockNumber": "0x785e11",
          "transactionHash": "0xab303d0b17bfe414f09734bac32e6905f84b04b680d2514d7188d9e4885c7063",
          "transactionIndex": "0xca",
          "logIndex": "0x242",
          "removed": false
        }
      ],
      "logsBloom": "0x00000000000000000000000000000000000000000000000000000000000000000000000000000000000000000000000000000000000000000000000000000000000000000000000000000008040000000000000000000100000000000000000000000000000000000000000000400000000000000000000000000010020000000000000000000000000000000000000000000000000000000000000000000000080000000000000000000000000000000000000000000080000000000000000000000002000000002000000000000000080000000000000000000000000800000000000000000000000000000000000000000000000000000000000000000000",
      "type": "0x2",
      "transactionHash": "0xab303d0b17bfe414f09734bac32e6905f84b04b680d2514d7188d9e4885c7063",
      "transactionIndex": "0xca",
      "blockHash": "0x3938e4d2ce26ae7439ab165a1c4de6542ebc185cc54ce5695bbc8cc0bb75c072",
      "blockNumber": "0x785e11",
      "gasUsed": "0xb662",
      "effectiveGasPrice": "0xd978b6970",
      "blobGasUsed": "0x0",
      "from": "0x8454d149beb26e3e3fc5ed1c87fb0b2a1b7b6c2c",
      "to": "0xaf03f2a302a2c4867d622de44b213b8f870c0f1a",
      "contractAddress": null
    }
  ],
  "libraries": [
    "src/RestakingConnectorUtils.sol:RestakingConnectorUtils:0x8f11aE71Ac71BA601a1EF5B9D87D1DC1339EB4B3",
    "src/utils/EigenlayerMsgDecoders.sol:AgentOwnerSignature:0x2F5d827aF9E768762B8A72C478362799C99B63b7",
    "src/utils/EigenlayerMsgDecoders.sol:DelegationDecoders:0x1b7F90bfC259f18310094D45e0a7E0786cb12F03",
    "src/utils/EigenlayerMsgEncoders.sol:EigenlayerMsgEncoders:0x659fB218aa16721c14982Ae53A27269847c0133F",
    "src/utils/FunctionSelectorDecoder.sol:FunctionSelectorDecoder:0xc5132D7ba9F2B19a68d69712724f9126638FD7B3"
  ],
  "pending": [],
  "returns": {},
  "timestamp": 1741800788,
  "chain": 11155111,
  "commit": "7400b7d"
}