{
  "transactions": [
    {
      "hash": "0xe718c891848f7978eab681cc3473f2d99a0b018241d9e7ed6726294777fe1d59",
      "transactionType": "CALL",
      "contractName": null,
      "contractAddress": "0xaf03f2a302a2c4867d622de44b213b8f870c0f1a",
      "function": "mint(address,uint256)",
      "arguments": [
        "0x8454d149Beb26E3E3FC5eD1C87Fb0B2a1b7B6c2c",
        "1000000000000000000"
      ],
      "transaction": {
        "from": "0x8454d149beb26e3e3fc5ed1c87fb0b2a1b7b6c2c",
        "to": "0xaf03f2a302a2c4867d622de44b213b8f870c0f1a",
        "gas": "0xc5f9",
        "value": "0x0",
        "input": "0x40c10f190000000000000000000000008454d149beb26e3e3fc5ed1c87fb0b2a1b7b6c2c0000000000000000000000000000000000000000000000000de0b6b3a7640000",
        "nonce": "0xacb",
        "chainId": "0xaa36a7"
      },
      "additionalContracts": [],
      "isFixedGasLimit": false
    },
    {
      "hash": "0x1477e52dae0867f9dfa445688287279df77f4ae4f2ee713a98248cd31826519f",
      "transactionType": "CALL",
      "contractName": null,
      "contractAddress": "0x5549457a878d589c28743332091032e407da1306",
      "function": "submitRoot(bytes32,uint32)",
      "arguments": [
        "0xd4917921effdd2a296674792b3252c63ed7b3b8b861e0ba37ad61aa317f5b569",
        "1743033600"
      ],
      "transaction": {
        "from": "0x8454d149beb26e3e3fc5ed1c87fb0b2a1b7b6c2c",
        "to": "0x5549457a878d589c28743332091032e407da1306",
        "gas": "0x1dfc4",
        "value": "0x0",
        "input": "0x3efe1db6d4917921effdd2a296674792b3252c63ed7b3b8b861e0ba37ad61aa317f5b5690000000000000000000000000000000000000000000000000000000067e49500",
        "nonce": "0xacc",
        "chainId": "0xaa36a7"
      },
      "additionalContracts": [],
      "isFixedGasLimit": false
    },
    {
      "hash": "0x9a0f9222f1171a5d268096e9e6203b24ff8a7b3b9fd2f62040c8751422656cb8",
      "transactionType": "CALL",
      "contractName": null,
      "contractAddress": "0xaf03f2a302a2c4867d622de44b213b8f870c0f1a",
      "function": "transfer(address,uint256)",
      "arguments": [
        "0x5549457A878d589c28743332091032e407DA1306",
        "1000000000000000000"
      ],
      "transaction": {
        "from": "0x8454d149beb26e3e3fc5ed1c87fb0b2a1b7b6c2c",
        "to": "0xaf03f2a302a2c4867d622de44b213b8f870c0f1a",
        "gas": "0xb98c",
        "value": "0x0",
        "input": "0xa9059cbb0000000000000000000000005549457a878d589c28743332091032e407da13060000000000000000000000000000000000000000000000000de0b6b3a7640000",
        "nonce": "0xacd",
        "chainId": "0xaa36a7"
      },
      "additionalContracts": [],
      "isFixedGasLimit": false
    }
  ],
  "receipts": [
    {
      "status": "0x1",
      "cumulativeGasUsed": "0x58c5c3",
      "logs": [
        {
          "address": "0xaf03f2a302a2c4867d622de44b213b8f870c0f1a",
          "topics": [
            "0xddf252ad1be2c89b69c2b068fc378daa952ba7f163c4a11628f55a4df523b3ef",
            "0x0000000000000000000000000000000000000000000000000000000000000000",
            "0x0000000000000000000000008454d149beb26e3e3fc5ed1c87fb0b2a1b7b6c2c"
          ],
          "data": "0x0000000000000000000000000000000000000000000000000de0b6b3a7640000",
          "blockHash": "0xd6c2ecf2ac8e3fd99e0b47873091370eb6b66bd1e5f0b68c0d34effe60cd662a",
          "blockNumber": "0x7a6f4b",
          "transactionHash": "0xe718c891848f7978eab681cc3473f2d99a0b018241d9e7ed6726294777fe1d59",
          "transactionIndex": "0x30",
          "logIndex": "0x62",
          "removed": false
        }
      ],
      "logsBloom": "0x00000000000000000000000000000000000000000000000000000000000000000000000000000000000000000000000000000000000000000000000000000000000000000000000000000008000000000000000000000000000000000000000000000000020000000000000000000800000000000000000000000010020000000000000000000000000000000000000000000000000000000000000000000000080000000000000000000000000000000000000000000080000000000000000000000002000000002000000000000000080000000000000000000000000820000000000000000000000000000000000000000000000000000000000000000000",
      "type": "0x2",
      "transactionHash": "0xe718c891848f7978eab681cc3473f2d99a0b018241d9e7ed6726294777fe1d59",
      "transactionIndex": "0x30",
      "blockHash": "0xd6c2ecf2ac8e3fd99e0b47873091370eb6b66bd1e5f0b68c0d34effe60cd662a",
      "blockNumber": "0x7a6f4b",
      "gasUsed": "0x8f55",
      "effectiveGasPrice": "0x10059c",
      "blobGasUsed": "0x0",
      "from": "0x8454d149beb26e3e3fc5ed1c87fb0b2a1b7b6c2c",
      "to": "0xaf03f2a302a2c4867d622de44b213b8f870c0f1a",
      "contractAddress": null
    },
    {
      "status": "0x1",
      "cumulativeGasUsed": "0x5a211b",
      "logs": [
        {
          "address": "0x5549457a878d589c28743332091032e407da1306",
          "topics": [
            "0xecd866c3c158fa00bf34d803d5f6023000b57080bcb48af004c2b4b46b3afd08",
            "0x0000000000000000000000000000000000000000000000000000000000000003",
            "0xd4917921effdd2a296674792b3252c63ed7b3b8b861e0ba37ad61aa317f5b569",
            "0x0000000000000000000000000000000000000000000000000000000067e49500"
          ],
          "data": "0x0000000000000000000000000000000000000000000000000000000067eb253c",
          "blockHash": "0xd6c2ecf2ac8e3fd99e0b47873091370eb6b66bd1e5f0b68c0d34effe60cd662a",
          "blockNumber": "0x7a6f4b",
          "transactionHash": "0x1477e52dae0867f9dfa445688287279df77f4ae4f2ee713a98248cd31826519f",
          "transactionIndex": "0x31",
          "logIndex": "0x63",
          "removed": false
        }
      ],
      "logsBloom": "0x00000000000000000000000000000000001000000000000000000000000000000000000000000000000000000000000000000000020000000004000000000000000000000000000000000000000000000000000400000000000000000000000000000000000000000000000000000000000000000000000000000000000000000000000000400000000000000000000000000000000000000000000000000000000000000000000000000000000000000000000000800080000000000000440000000000000000001000000000000000000000000000000000000000040000000010000000000000000000000000000001010004000000000000000000000000",
      "type": "0x2",
      "transactionHash": "0x1477e52dae0867f9dfa445688287279df77f4ae4f2ee713a98248cd31826519f",
      "transactionIndex": "0x31",
      "blockHash": "0xd6c2ecf2ac8e3fd99e0b47873091370eb6b66bd1e5f0b68c0d34effe60cd662a",
      "blockNumber": "0x7a6f4b",
      "gasUsed": "0x15b58",
      "effectiveGasPrice": "0x10059c",
      "blobGasUsed": "0x0",
      "from": "0x8454d149beb26e3e3fc5ed1c87fb0b2a1b7b6c2c",
      "to": "0x5549457a878d589c28743332091032e407da1306",
      "contractAddress": null
    },
    {
      "status": "0x1",
      "cumulativeGasUsed": "0x5aa771",
      "logs": [
        {
          "address": "0xaf03f2a302a2c4867d622de44b213b8f870c0f1a",
          "topics": [
            "0xddf252ad1be2c89b69c2b068fc378daa952ba7f163c4a11628f55a4df523b3ef",
            "0x0000000000000000000000008454d149beb26e3e3fc5ed1c87fb0b2a1b7b6c2c",
            "0x0000000000000000000000005549457a878d589c28743332091032e407da1306"
          ],
          "data": "0x0000000000000000000000000000000000000000000000000de0b6b3a7640000",
          "blockHash": "0xd6c2ecf2ac8e3fd99e0b47873091370eb6b66bd1e5f0b68c0d34effe60cd662a",
          "blockNumber": "0x7a6f4b",
          "transactionHash": "0x9a0f9222f1171a5d268096e9e6203b24ff8a7b3b9fd2f62040c8751422656cb8",
          "transactionIndex": "0x32",
          "logIndex": "0x64",
          "removed": false
        }
      ],
      "logsBloom": "0x00000000000000000000000000000000000000000000000000000000000000000000000000000000000000000000000000000000000000000000000000000000000000000000000000000008040000000000000000000100000000000000000000000000000000000000000000400000000000000000000000000010020000000000000000000000000000000000000000000000000000000000000000000000080000000000000000000000000000000000000000000080000000000000000000000002000000002000000000000000080000000000000000000000000800000000000000000000000000000000000000000000000000000000000000000000",
      "type": "0x2",
      "transactionHash": "0x9a0f9222f1171a5d268096e9e6203b24ff8a7b3b9fd2f62040c8751422656cb8",
      "transactionIndex": "0x32",
      "blockHash": "0xd6c2ecf2ac8e3fd99e0b47873091370eb6b66bd1e5f0b68c0d34effe60cd662a",
      "blockNumber": "0x7a6f4b",
      "gasUsed": "0x8656",
      "effectiveGasPrice": "0x10059c",
      "blobGasUsed": "0x0",
      "from": "0x8454d149beb26e3e3fc5ed1c87fb0b2a1b7b6c2c",
      "to": "0xaf03f2a302a2c4867d622de44b213b8f870c0f1a",
      "contractAddress": null
    }
  ],
  "libraries": [
    "src/RestakingConnectorUtils.sol:RestakingConnectorUtils:0x8f11aE71Ac71BA601a1EF5B9D87D1DC1339EB4B3",
    "src/utils/EigenlayerMsgDecoders.sol:AgentOwnerSignature:0x2F5d827aF9E768762B8A72C478362799C99B63b7",
    "src/utils/EigenlayerMsgDecoders.sol:DelegationDecoders:0x1b7F90bfC259f18310094D45e0a7E0786cb12F03",
    "src/utils/EigenlayerMsgEncoders.sol:EigenlayerMsgEncoders:0x659fB218aa16721c14982Ae53A27269847c0133F",
    "src/utils/FunctionSelectorDecoder.sol:FunctionSelectorDecoder:0xc5132D7ba9F2B19a68d69712724f9126638FD7B3"
  ],
  "pending": [],
  "returns": {},
  "timestamp": 1743463743,
  "chain": 11155111,
  "commit": "5780990a"
}