{
  "transactions": [
    {
      "hash": "0x36c12c0f2f55a908459d88424aab84834b39946bacc61221af39f0d8f6b41fcc",
      "transactionType": "CALL",
      "contractName": null,
      "contractAddress": "0xaf03f2a302a2c4867d622de44b213b8f870c0f1a",
      "function": "mint(address,uint256)",
      "arguments": [
        "0x8454d149Beb26E3E3FC5eD1C87Fb0B2a1b7B6c2c",
        "100000000000000000"
      ],
      "transaction": {
        "from": "0x8454d149beb26e3e3fc5ed1c87fb0b2a1b7b6c2c",
        "to": "0xaf03f2a302a2c4867d622de44b213b8f870c0f1a",
        "gas": "0x13350",
        "value": "0x0",
        "input": "0x40c10f190000000000000000000000008454d149beb26e3e3fc5ed1c87fb0b2a1b7b6c2c000000000000000000000000000000000000000000000000016345785d8a0000",
        "nonce": "0x864",
        "chainId": "0xaa36a7"
      },
      "additionalContracts": [],
      "isFixedGasLimit": false
    },
    {
      "hash": "0xeec210073e9a423dd0d485abd47d15686d1890a7667ec135c27c90145c69752d",
      "transactionType": "CALL",
      "contractName": null,
      "contractAddress": "0xaf03f2a302a2c4867d622de44b213b8f870c0f1a",
      "function": "approve(address,uint256)",
      "arguments": [
        "0xfF38e9134F88D51cC09EdBc53c28251167274083",
        "100000000000000000"
      ],
      "transaction": {
        "from": "0x8454d149beb26e3e3fc5ed1c87fb0b2a1b7b6c2c",
        "to": "0xaf03f2a302a2c4867d622de44b213b8f870c0f1a",
        "gas": "0x108b7",
        "value": "0x0",
        "input": "0x095ea7b3000000000000000000000000ff38e9134f88d51cc09edbc53c28251167274083000000000000000000000000000000000000000000000000016345785d8a0000",
        "nonce": "0x865",
        "chainId": "0xaa36a7"
      },
      "additionalContracts": [],
      "isFixedGasLimit": false
    },
    {
      "hash": "0xe8373417708d4fe8aef8401c84e72ac17a5b372bfbd9a5c364c2993f4749f22f",
      "transactionType": "CALL",
      "contractName": null,
      "contractAddress": "0xff38e9134f88d51cc09edbc53c28251167274083",
      "function": "submitRoot(bytes32,uint32)",
      "arguments": [
        "0x7a25019c99dcb79b1ae58f757b95547569e5b15c6684c239b8a6fcaedee0f4c3",
        "1741219200"
      ],
      "transaction": {
        "from": "0x8454d149beb26e3e3fc5ed1c87fb0b2a1b7b6c2c",
        "to": "0xff38e9134f88d51cc09edbc53c28251167274083",
        "gas": "0x23c18",
        "value": "0x0",
        "input": "0x3efe1db67a25019c99dcb79b1ae58f757b95547569e5b15c6684c239b8a6fcaedee0f4c30000000000000000000000000000000000000000000000000000000067c8e580",
        "nonce": "0x866",
        "chainId": "0xaa36a7"
      },
      "additionalContracts": [],
      "isFixedGasLimit": false
    },
    {
      "hash": "0x5f59082b9ae9b7e4f9026dd638c3161926c68d4a5667e1c99e89820d2c547ca6",
      "transactionType": "CALL",
      "contractName": null,
      "contractAddress": "0xaf03f2a302a2c4867d622de44b213b8f870c0f1a",
      "function": "transfer(address,uint256)",
      "arguments": [
        "0xfF38e9134F88D51cC09EdBc53c28251167274083",
        "100000000000000000"
      ],
      "transaction": {
        "from": "0x8454d149beb26e3e3fc5ed1c87fb0b2a1b7b6c2c",
        "to": "0xaf03f2a302a2c4867d622de44b213b8f870c0f1a",
        "gas": "0x10abb",
        "value": "0x0",
        "input": "0xa9059cbb000000000000000000000000ff38e9134f88d51cc09edbc53c28251167274083000000000000000000000000000000000000000000000000016345785d8a0000",
        "nonce": "0x867",
        "chainId": "0xaa36a7"
      },
      "additionalContracts": [],
      "isFixedGasLimit": false
    }
  ],
  "receipts": [
    {
      "status": "0x1",
      "cumulativeGasUsed": "0x117b936",
      "logs": [
        {
          "address": "0xaf03f2a302a2c4867d622de44b213b8f870c0f1a",
          "topics": [
            "0xddf252ad1be2c89b69c2b068fc378daa952ba7f163c4a11628f55a4df523b3ef",
            "0x0000000000000000000000000000000000000000000000000000000000000000",
            "0x0000000000000000000000008454d149beb26e3e3fc5ed1c87fb0b2a1b7b6c2c"
          ],
          "data": "0x000000000000000000000000000000000000000000000000016345785d8a0000",
          "blockHash": "0x780c9b8771f5b4f7696cedb6445236278fbd15c1b8bf9e4a4447a7b0cc83c859",
          "blockNumber": "0x783f8b",
          "transactionHash": "0x36c12c0f2f55a908459d88424aab84834b39946bacc61221af39f0d8f6b41fcc",
          "transactionIndex": "0x98",
          "logIndex": "0xd7",
          "removed": false
        }
      ],
      "logsBloom": "0x00000000000000000000000000000000000000000000000000000000000000000000000000000000000000000000000000000000000000000000000000000000000000000000000000000008000000000000000000000000000000000000000000000000020000000000000000000800000000000000000000000010020000000000000000000000000000000000000000000000000000000000000000000000080000000000000000000000000000000000000000000080000000000000000000000002000000002000000000000000080000000000000000000000000820000000000000000000000000000000000000000000000000000000000000000000",
      "type": "0x2",
      "transactionHash": "0x36c12c0f2f55a908459d88424aab84834b39946bacc61221af39f0d8f6b41fcc",
      "transactionIndex": "0x98",
      "blockHash": "0x780c9b8771f5b4f7696cedb6445236278fbd15c1b8bf9e4a4447a7b0cc83c859",
      "blockNumber": "0x783f8b",
      "gasUsed": "0xd221",
      "effectiveGasPrice": "0xc4fcd58bf",
      "blobGasUsed": "0x0",
      "from": "0x8454d149beb26e3e3fc5ed1c87fb0b2a1b7b6c2c",
      "to": "0xaf03f2a302a2c4867d622de44b213b8f870c0f1a",
      "contractAddress": null
    },
    {
      "status": "0x1",
      "cumulativeGasUsed": "0x1186e37",
      "logs": [
        {
          "address": "0xaf03f2a302a2c4867d622de44b213b8f870c0f1a",
          "topics": [
            "0x8c5be1e5ebec7d5bd14f71427d1e84f3dd0314c0f7b2291e5b200ac8c7c3b925",
            "0x0000000000000000000000008454d149beb26e3e3fc5ed1c87fb0b2a1b7b6c2c",
            "0x000000000000000000000000ff38e9134f88d51cc09edbc53c28251167274083"
          ],
          "data": "0x000000000000000000000000000000000000000000000000016345785d8a0000",
          "blockHash": "0x780c9b8771f5b4f7696cedb6445236278fbd15c1b8bf9e4a4447a7b0cc83c859",
          "blockNumber": "0x783f8b",
          "transactionHash": "0xeec210073e9a423dd0d485abd47d15686d1890a7667ec135c27c90145c69752d",
          "transactionIndex": "0x99",
          "logIndex": "0xd8",
          "removed": false
        }
      ],
      "logsBloom": "0x000000000000000000000000000000000000000000000000100000000000000000000000000000000000000000000000000000000000000000000000002000000000000000000000000000000000000000000000000000000000000000000000000000000000000000000000000000000000000000000000000000000200000000000000000000000000000000000800000000000000000000800000000000000a0000000000000000000000000000000000000000000080000000000000000000000000000000002000000000000000080000000000000000000000000800000010000000000000000000000000000000000000000000000000000000000000",
      "type": "0x2",
      "transactionHash": "0xeec210073e9a423dd0d485abd47d15686d1890a7667ec135c27c90145c69752d",
      "transactionIndex": "0x99",
      "blockHash": "0x780c9b8771f5b4f7696cedb6445236278fbd15c1b8bf9e4a4447a7b0cc83c859",
      "blockNumber": "0x783f8b",
      "gasUsed": "0xb501",
      "effectiveGasPrice": "0xc4fcd58bf",
      "blobGasUsed": "0x0",
      "from": "0x8454d149beb26e3e3fc5ed1c87fb0b2a1b7b6c2c",
      "to": "0xaf03f2a302a2c4867d622de44b213b8f870c0f1a",
      "contractAddress": null
    },
    {
      "status": "0x1",
      "cumulativeGasUsed": "0x11a0c67",
      "logs": [
        {
          "address": "0xff38e9134f88d51cc09edbc53c28251167274083",
          "topics": [
            "0xecd866c3c158fa00bf34d803d5f6023000b57080bcb48af004c2b4b46b3afd08",
            "0x0000000000000000000000000000000000000000000000000000000000000000",
            "0x7a25019c99dcb79b1ae58f757b95547569e5b15c6684c239b8a6fcaedee0f4c3",
            "0x0000000000000000000000000000000000000000000000000000000067c8e580"
          ],
          "data": "0x0000000000000000000000000000000000000000000000000000000067d03be0",
          "blockHash": "0x780c9b8771f5b4f7696cedb6445236278fbd15c1b8bf9e4a4447a7b0cc83c859",
          "blockNumber": "0x783f8b",
          "transactionHash": "0xe8373417708d4fe8aef8401c84e72ac17a5b372bfbd9a5c364c2993f4749f22f",
          "transactionIndex": "0x9a",
          "logIndex": "0xd9",
          "removed": false
        }
      ],
      "logsBloom": "0x00200000000000000000000000000000000000000000000000000000000000000000008000000000000000000000000000000000000000000000000000000000000000000000100000000000000000000100000000000000000000000000000000000000020000000000000200000800000040000000000000200000000000000000000000400000000000000000000000000000000000000000000000000000000000000000000000020000000000000000000000000000000000000000000000200000000000000000000000000000000000000000000000000000000020000010000000000000000000000000000000000004000000000000000000000000",
      "type": "0x2",
      "transactionHash": "0xe8373417708d4fe8aef8401c84e72ac17a5b372bfbd9a5c364c2993f4749f22f",
      "transactionIndex": "0x9a",
      "blockHash": "0x780c9b8771f5b4f7696cedb6445236278fbd15c1b8bf9e4a4447a7b0cc83c859",
      "blockNumber": "0x783f8b",
      "gasUsed": "0x19e30",
      "effectiveGasPrice": "0xc4fcd58bf",
      "blobGasUsed": "0x0",
      "from": "0x8454d149beb26e3e3fc5ed1c87fb0b2a1b7b6c2c",
      "to": "0xff38e9134f88d51cc09edbc53c28251167274083",
      "contractAddress": null
    },
    {
      "status": "0x1",
      "cumulativeGasUsed": "0x11ac2c9",
      "logs": [
        {
          "address": "0xaf03f2a302a2c4867d622de44b213b8f870c0f1a",
          "topics": [
            "0xddf252ad1be2c89b69c2b068fc378daa952ba7f163c4a11628f55a4df523b3ef",
            "0x0000000000000000000000008454d149beb26e3e3fc5ed1c87fb0b2a1b7b6c2c",
            "0x000000000000000000000000ff38e9134f88d51cc09edbc53c28251167274083"
          ],
          "data": "0x000000000000000000000000000000000000000000000000016345785d8a0000",
          "blockHash": "0x780c9b8771f5b4f7696cedb6445236278fbd15c1b8bf9e4a4447a7b0cc83c859",
          "blockNumber": "0x783f8b",
          "transactionHash": "0x5f59082b9ae9b7e4f9026dd638c3161926c68d4a5667e1c99e89820d2c547ca6",
          "transactionIndex": "0x9b",
          "logIndex": "0xda",
          "removed": false
        }
      ],
      "logsBloom": "0x00000000000000000000000000000000000000000000000010000000000000000000000000000000000000000000000000000000000000000000000000000000000000000000000000000008000000000000000000000000000000000000000000000000000000000000000000000000000000000000000000000010020000000000000000000000000000000000080000000000000000000080000000000000080000000000000000000000000000000000000000000080000000000000000000000002000000002000000000000000080000000000000000000000000800000000000000000000000000000000000000000000000000000000000000000000",
      "type": "0x2",
      "transactionHash": "0x5f59082b9ae9b7e4f9026dd638c3161926c68d4a5667e1c99e89820d2c547ca6",
      "transactionIndex": "0x9b",
      "blockHash": "0x780c9b8771f5b4f7696cedb6445236278fbd15c1b8bf9e4a4447a7b0cc83c859",
      "blockNumber": "0x783f8b",
      "gasUsed": "0xb662",
      "effectiveGasPrice": "0xc4fcd58bf",
      "blobGasUsed": "0x0",
      "from": "0x8454d149beb26e3e3fc5ed1c87fb0b2a1b7b6c2c",
      "to": "0xaf03f2a302a2c4867d622de44b213b8f870c0f1a",
      "contractAddress": null
    }
  ],
  "libraries": [
    "src/RestakingConnectorUtils.sol:RestakingConnectorUtils:0x4C56fd54641069B099d6ABbDCd32439Ae5981CCD",
    "src/utils/EigenlayerMsgDecoders.sol:AgentOwnerSignature:0x6905b03AcEfFD5255c9cc33Fc6787eA7379D72d8",
    "src/utils/EigenlayerMsgDecoders.sol:DelegationDecoders:0x6753c44b2ed59D8Ce76C561Bc1df4B26f052E132",
    "src/utils/EigenlayerMsgEncoders.sol:EigenlayerMsgEncoders:0x659fB218aa16721c14982Ae53A27269847c0133F",
    "src/utils/FunctionSelectorDecoder.sol:FunctionSelectorDecoder:0xc5132D7ba9F2B19a68d69712724f9126638FD7B3"
  ],
  "pending": [],
  "returns": {},
  "timestamp": 1741700065,
  "chain": 11155111,
  "commit": "74e6e68"
}