{
  "deployments": [
    {
      "transactions": [
        {
          "hash": "0x6a241d931109ab0241bfe1a38a6ae4437c6acb09016d4773e8c454d05b6771db",
          "transactionType": "CALL",
          "contractName": null,
          "contractAddress": "0xdaa2cfe13769634ee9df26a0783080cd2b0ed312",
          "function": "allowlistSender(address,bool)",
          "arguments": [
            "0xfDE6B8Cc33AE01f7696De3c0d3e730f373985134",
            "true"
          ],
          "transaction": {
            "from": "0x8454d149beb26e3e3fc5ed1c87fb0b2a1b7b6c2c",
            "to": "0xdaa2cfe13769634ee9df26a0783080cd2b0ed312",
            "gas": "0x121e1",
            "value": "0x0",
            "input": "0xeab5b02c000000000000000000000000fde6b8cc33ae01f7696de3c0d3e730f3739851340000000000000000000000000000000000000000000000000000000000000001",
            "nonce": "0x4d6",
            "chainId": "0x14a34"
          },
          "additionalContracts": [],
          "isFixedGasLimit": false
        },
        {
          "hash": "0x78fc7757db26d650f6326b4b607982cd033ef64c9b46edbfd944b3fea6126389",
          "transactionType": "CALL",
          "contractName": null,
          "contractAddress": "0xdaa2cfe13769634ee9df26a0783080cd2b0ed312",
          "function": "allowlistSourceChain(uint64,bool)",
          "arguments": [
            "10344971235874465080",
            "true"
          ],
          "transaction": {
            "from": "0x8454d149beb26e3e3fc5ed1c87fb0b2a1b7b6c2c",
            "to": "0xdaa2cfe13769634ee9df26a0783080cd2b0ed312",
            "gas": "0x131e5",
            "value": "0x0",
            "input": "0xdb04fa490000000000000000000000000000000000000000000000008f90b8876dee65380000000000000000000000000000000000000000000000000000000000000001",
            "nonce": "0x4d7",
            "chainId": "0x14a34"
          },
          "additionalContracts": [],
          "isFixedGasLimit": false
        },
        {
          "hash": "0x56518a5c50af8d77ce2c8e9b8e3020232aeea604e83463c0b28f4b94c4fd3f72",
          "transactionType": "CALL",
          "contractName": null,
          "contractAddress": "0xdaa2cfe13769634ee9df26a0783080cd2b0ed312",
          "function": "allowlistDestinationChain(uint64,bool)",
          "arguments": [
            "16015286601757825753",
            "true"
          ],
          "transaction": {
            "from": "0x8454d149beb26e3e3fc5ed1c87fb0b2a1b7b6c2c",
            "to": "0xdaa2cfe13769634ee9df26a0783080cd2b0ed312",
            "gas": "0xb5a7",
            "value": "0x0",
            "input": "0x96d3b83d000000000000000000000000000000000000000000000000de41ba4fc9d91ad90000000000000000000000000000000000000000000000000000000000000001",
            "nonce": "0x4d8",
            "chainId": "0x14a34"
          },
          "additionalContracts": [],
          "isFixedGasLimit": false
        },
        {
          "hash": "0x187a7ec414df8b963e2aad333f674b1384e2e86ca0927979075602fa73a2a7fc",
          "transactionType": "CALL",
          "contractName": null,
          "contractAddress": "0x7a5203463185c77ed4b7739a542405e5ceadad1f",
          "function": "setGasLimitsForFunctionSelectors(bytes4[],uint256[])",
          "arguments": [
            "[0xe7a050aa, 0xcc15a557, 0x0dd8dd02, 0x60d7faed, 0xeea9064b, 0xda8be864, 0x3ccc861d]",
            "[410000, 290000, 315000, 560000, 350000, 340000, 540000]"
          ],
          "transaction": {
            "from": "0x8454d149beb26e3e3fc5ed1c87fb0b2a1b7b6c2c",
            "to": "0x7a5203463185c77ed4b7739a542405e5ceadad1f",
            "gas": "0x1ab91",
            "value": "0x0",
            "input": "0x3ef2d377000000000000000000000000000000000000000000000000000000000000004000000000000000000000000000000000000000000000000000000000000001400000000000000000000000000000000000000000000000000000000000000007e7a050aa00000000000000000000000000000000000000000000000000000000cc15a557000000000000000000000000000000000000000000000000000000000dd8dd020000000000000000000000000000000000000000000000000000000060d7faed00000000000000000000000000000000000000000000000000000000eea9064b00000000000000000000000000000000000000000000000000000000da8be864000000000000000000000000000000000000000000000000000000003ccc861d00000000000000000000000000000000000000000000000000000000000000000000000000000000000000000000000000000000000000000000000700000000000000000000000000000000000000000000000000000000000641900000000000000000000000000000000000000000000000000000000000046cd0000000000000000000000000000000000000000000000000000000000004ce780000000000000000000000000000000000000000000000000000000000088b80000000000000000000000000000000000000000000000000000000000005573000000000000000000000000000000000000000000000000000000000000530200000000000000000000000000000000000000000000000000000000000083d60",
            "nonce": "0x4d9",
            "chainId": "0x14a34"
          },
          "additionalContracts": [],
          "isFixedGasLimit": false
        },
        {
          "hash": "0x8bd0a51e10e3edacd8f5377d2a6c5c591e767e537e2907e5c58d8d1578b4a3d8",
          "transactionType": "CALL",
          "contractName": null,
          "contractAddress": "0x7a5203463185c77ed4b7739a542405e5ceadad1f",
          "function": "setSenderCCIP(address)",
          "arguments": [
            "0xdAA2cfe13769634EE9dF26a0783080Cd2b0ed312"
          ],
          "transaction": {
            "from": "0x8454d149beb26e3e3fc5ed1c87fb0b2a1b7b6c2c",
            "to": "0x7a5203463185c77ed4b7739a542405e5ceadad1f",
            "gas": "0xb4e0",
            "value": "0x0",
            "input": "0xd8d6c31a000000000000000000000000daa2cfe13769634ee9df26a0783080cd2b0ed312",
            "nonce": "0x4da",
            "chainId": "0x14a34"
          },
          "additionalContracts": [],
          "isFixedGasLimit": false
        },
        {
          "hash": "0x8de1efdfbd5f99ce83f10e2cfee72e6b648ae70b2838941335b8942c2f8ec3e9",
          "transactionType": "CALL",
          "contractName": null,
          "contractAddress": "0xdaa2cfe13769634ee9df26a0783080cd2b0ed312",
          "function": "getSenderHooks()",
          "arguments": [],
          "transaction": {
            "from": "0x8454d149beb26e3e3fc5ed1c87fb0b2a1b7b6c2c",
            "to": "0xdaa2cfe13769634ee9df26a0783080cd2b0ed312",
            "gas": "0xafa5",
            "value": "0x0",
            "input": "0xe09df825",
            "nonce": "0x4db",
            "chainId": "0x14a34"
          },
          "additionalContracts": [],
          "isFixedGasLimit": false
        },
        {
          "hash": "0xbd03e8c56ae89db8d4614d450940e4288e05cb2f2e60f153d954aac90b80d640",
          "transactionType": "CALL",
          "contractName": null,
          "contractAddress": "0xdaa2cfe13769634ee9df26a0783080cd2b0ed312",
          "function": "allowlistedSenders(address)",
          "arguments": [
            "0xfDE6B8Cc33AE01f7696De3c0d3e730f373985134"
          ],
          "transaction": {
            "from": "0x8454d149beb26e3e3fc5ed1c87fb0b2a1b7b6c2c",
            "to": "0xdaa2cfe13769634ee9df26a0783080cd2b0ed312",
            "gas": "0xa8c0",
            "value": "0x0",
            "input": "0x6159ada1000000000000000000000000fde6b8cc33ae01f7696de3c0d3e730f373985134",
            "nonce": "0x4dc",
            "chainId": "0x14a34"
          },
          "additionalContracts": [],
          "isFixedGasLimit": false
        },
        {
          "hash": "0x83898b9aeabf3064bb7292d526ae5ad84e00f774b34cf5f5d0e43197e086c594",
          "transactionType": "CALL",
          "contractName": null,
          "contractAddress": "0xdaa2cfe13769634ee9df26a0783080cd2b0ed312",
          "function": "allowlistedSourceChains(uint64)",
          "arguments": [
            "16015286601757825753"
          ],
          "transaction": {
            "from": "0x8454d149beb26e3e3fc5ed1c87fb0b2a1b7b6c2c",
            "to": "0xdaa2cfe13769634ee9df26a0783080cd2b0ed312",
            "gas": "0xa840",
            "value": "0x0",
            "input": "0x4030d521000000000000000000000000000000000000000000000000de41ba4fc9d91ad9",
            "nonce": "0x4dd",
            "chainId": "0x14a34"
          },
          "additionalContracts": [],
          "isFixedGasLimit": false
        },
        {
          "hash": "0x44fde9fe2b6340505bd0ee163fe215b0ac887a2ebace0d9cf137d8649452135c",
          "transactionType": "CALL",
          "contractName": null,
          "contractAddress": "0xdaa2cfe13769634ee9df26a0783080cd2b0ed312",
          "function": "allowlistedDestinationChains(uint64)",
          "arguments": [
            "16015286601757825753"
          ],
          "transaction": {
            "from": "0x8454d149beb26e3e3fc5ed1c87fb0b2a1b7b6c2c",
            "to": "0xdaa2cfe13769634ee9df26a0783080cd2b0ed312",
            "gas": "0xa83e",
            "value": "0x0",
            "input": "0x75c67c66000000000000000000000000000000000000000000000000de41ba4fc9d91ad9",
            "nonce": "0x4de",
            "chainId": "0x14a34"
          },
          "additionalContracts": [],
          "isFixedGasLimit": false
        }
      ],
      "receipts": [
        {
          "status": "0x1",
          "cumulativeGasUsed": "0xec321",
          "logs": [],
          "logsBloom": "0x00000000000000000000000000000000000000000000000000000000000000000000000000000000000000000000000000000000000000000000000000000000000000000000000000000000000000000000000000000000000000000000000000000000000000000000000000000000000000000000000000000000000000000000000000000000000000000000000000000000000000000000000000000000000000000000000000000000000000000000000000000000000000000000000000000000000000000000000000000000000000000000000000000000000000000000000000000000000000000000000000000000000000000000000000000000",
          "type": "0x2",
          "transactionHash": "0x6a241d931109ab0241bfe1a38a6ae4437c6acb09016d4773e8c454d05b6771db",
          "transactionIndex": "0xe",
          "blockHash": "0x66c16abfb6a1328dd40807825123b284e87a57f7184ffe8c9487d1249f3a1fd0",
          "blockNumber": "0xefc859",
          "gasUsed": "0xd1df",
          "effectiveGasPrice": "0x206",
          "from": "0x8454d149beb26e3e3fc5ed1c87fb0b2a1b7b6c2c",
          "to": "0xdaa2cfe13769634ee9df26a0783080cd2b0ed312",
          "contractAddress": null,
          "l1BaseFeeScalar": "0x44d",
          "l1BlobBaseFee": "0x1",
          "l1BlobBaseFeeScalar": "0xa118b",
          "l1Fee": "0x2d72d7a8cb",
          "l1GasPrice": "0x19ccb39eeb",
          "l1GasUsed": "0x640"
        },
        {
          "status": "0x1",
          "cumulativeGasUsed": "0xf944a",
          "logs": [],
          "logsBloom": "0x00000000000000000000000000000000000000000000000000000000000000000000000000000000000000000000000000000000000000000000000000000000000000000000000000000000000000000000000000000000000000000000000000000000000000000000000000000000000000000000000000000000000000000000000000000000000000000000000000000000000000000000000000000000000000000000000000000000000000000000000000000000000000000000000000000000000000000000000000000000000000000000000000000000000000000000000000000000000000000000000000000000000000000000000000000000",
          "type": "0x2",
          "transactionHash": "0x78fc7757db26d650f6326b4b607982cd033ef64c9b46edbfd944b3fea6126389",
          "transactionIndex": "0xf",
          "blockHash": "0x66c16abfb6a1328dd40807825123b284e87a57f7184ffe8c9487d1249f3a1fd0",
          "blockNumber": "0xefc859",
          "gasUsed": "0xd129",
          "effectiveGasPrice": "0x206",
          "from": "0x8454d149beb26e3e3fc5ed1c87fb0b2a1b7b6c2c",
          "to": "0xdaa2cfe13769634ee9df26a0783080cd2b0ed312",
          "contractAddress": null,
          "l1BaseFeeScalar": "0x44d",
          "l1BlobBaseFee": "0x1",
          "l1BlobBaseFeeScalar": "0xa118b",
          "l1Fee": "0x2d72d7a8cb",
          "l1GasPrice": "0x19ccb39eeb",
          "l1GasUsed": "0x640"
        },
        {
          "status": "0x1",
          "cumulativeGasUsed": "0x1017ce",
          "logs": [],
          "logsBloom": "0x00000000000000000000000000000000000000000000000000000000000000000000000000000000000000000000000000000000000000000000000000000000000000000000000000000000000000000000000000000000000000000000000000000000000000000000000000000000000000000000000000000000000000000000000000000000000000000000000000000000000000000000000000000000000000000000000000000000000000000000000000000000000000000000000000000000000000000000000000000000000000000000000000000000000000000000000000000000000000000000000000000000000000000000000000000000",
          "type": "0x2",
          "transactionHash": "0x56518a5c50af8d77ce2c8e9b8e3020232aeea604e83463c0b28f4b94c4fd3f72",
          "transactionIndex": "0x10",
          "blockHash": "0x66c16abfb6a1328dd40807825123b284e87a57f7184ffe8c9487d1249f3a1fd0",
          "blockNumber": "0xefc859",
          "gasUsed": "0x8384",
          "effectiveGasPrice": "0x206",
          "from": "0x8454d149beb26e3e3fc5ed1c87fb0b2a1b7b6c2c",
          "to": "0xdaa2cfe13769634ee9df26a0783080cd2b0ed312",
          "contractAddress": null,
          "l1BaseFeeScalar": "0x44d",
          "l1BlobBaseFee": "0x1",
          "l1BlobBaseFeeScalar": "0xa118b",
          "l1Fee": "0x2d72d7a8cb",
          "l1GasPrice": "0x19ccb39eeb",
          "l1GasUsed": "0x640"
        },
        {
          "status": "0x1",
          "cumulativeGasUsed": "0x114d5c",
          "logs": [
            {
              "address": "0x7a5203463185c77ed4b7739a542405e5ceadad1f",
              "topics": [
                "0xed4c89b805f4efb58bc4a42b9a3c6f09783f619295a1fa41ab46d6190c8c7f3b",
                "0xe7a050aa00000000000000000000000000000000000000000000000000000000",
                "0x0000000000000000000000000000000000000000000000000000000000064190"
              ],
              "data": "0x",
              "blockHash": "0x66c16abfb6a1328dd40807825123b284e87a57f7184ffe8c9487d1249f3a1fd0",
              "blockNumber": "0xefc859",
              "transactionHash": "0x187a7ec414df8b963e2aad333f674b1384e2e86ca0927979075602fa73a2a7fc",
              "transactionIndex": "0x11",
              "logIndex": "0xf",
              "removed": false
            },
            {
              "address": "0x7a5203463185c77ed4b7739a542405e5ceadad1f",
              "topics": [
                "0xed4c89b805f4efb58bc4a42b9a3c6f09783f619295a1fa41ab46d6190c8c7f3b",
                "0xcc15a55700000000000000000000000000000000000000000000000000000000",
                "0x0000000000000000000000000000000000000000000000000000000000046cd0"
              ],
              "data": "0x",
              "blockHash": "0x66c16abfb6a1328dd40807825123b284e87a57f7184ffe8c9487d1249f3a1fd0",
              "blockNumber": "0xefc859",
              "transactionHash": "0x187a7ec414df8b963e2aad333f674b1384e2e86ca0927979075602fa73a2a7fc",
              "transactionIndex": "0x11",
              "logIndex": "0x10",
              "removed": false
            },
            {
              "address": "0x7a5203463185c77ed4b7739a542405e5ceadad1f",
              "topics": [
                "0xed4c89b805f4efb58bc4a42b9a3c6f09783f619295a1fa41ab46d6190c8c7f3b",
                "0x0dd8dd0200000000000000000000000000000000000000000000000000000000",
                "0x000000000000000000000000000000000000000000000000000000000004ce78"
              ],
              "data": "0x",
              "blockHash": "0x66c16abfb6a1328dd40807825123b284e87a57f7184ffe8c9487d1249f3a1fd0",
              "blockNumber": "0xefc859",
              "transactionHash": "0x187a7ec414df8b963e2aad333f674b1384e2e86ca0927979075602fa73a2a7fc",
              "transactionIndex": "0x11",
              "logIndex": "0x11",
              "removed": false
            },
            {
              "address": "0x7a5203463185c77ed4b7739a542405e5ceadad1f",
              "topics": [
                "0xed4c89b805f4efb58bc4a42b9a3c6f09783f619295a1fa41ab46d6190c8c7f3b",
                "0x60d7faed00000000000000000000000000000000000000000000000000000000",
                "0x0000000000000000000000000000000000000000000000000000000000088b80"
              ],
              "data": "0x",
              "blockHash": "0x66c16abfb6a1328dd40807825123b284e87a57f7184ffe8c9487d1249f3a1fd0",
              "blockNumber": "0xefc859",
              "transactionHash": "0x187a7ec414df8b963e2aad333f674b1384e2e86ca0927979075602fa73a2a7fc",
              "transactionIndex": "0x11",
              "logIndex": "0x12",
              "removed": false
            },
            {
              "address": "0x7a5203463185c77ed4b7739a542405e5ceadad1f",
              "topics": [
                "0xed4c89b805f4efb58bc4a42b9a3c6f09783f619295a1fa41ab46d6190c8c7f3b",
                "0xeea9064b00000000000000000000000000000000000000000000000000000000",
                "0x0000000000000000000000000000000000000000000000000000000000055730"
              ],
              "data": "0x",
              "blockHash": "0x66c16abfb6a1328dd40807825123b284e87a57f7184ffe8c9487d1249f3a1fd0",
              "blockNumber": "0xefc859",
              "transactionHash": "0x187a7ec414df8b963e2aad333f674b1384e2e86ca0927979075602fa73a2a7fc",
              "transactionIndex": "0x11",
              "logIndex": "0x13",
              "removed": false
            },
            {
              "address": "0x7a5203463185c77ed4b7739a542405e5ceadad1f",
              "topics": [
                "0xed4c89b805f4efb58bc4a42b9a3c6f09783f619295a1fa41ab46d6190c8c7f3b",
                "0xda8be86400000000000000000000000000000000000000000000000000000000",
                "0x0000000000000000000000000000000000000000000000000000000000053020"
              ],
              "data": "0x",
              "blockHash": "0x66c16abfb6a1328dd40807825123b284e87a57f7184ffe8c9487d1249f3a1fd0",
              "blockNumber": "0xefc859",
              "transactionHash": "0x187a7ec414df8b963e2aad333f674b1384e2e86ca0927979075602fa73a2a7fc",
              "transactionIndex": "0x11",
              "logIndex": "0x14",
              "removed": false
            },
            {
              "address": "0x7a5203463185c77ed4b7739a542405e5ceadad1f",
              "topics": [
                "0xed4c89b805f4efb58bc4a42b9a3c6f09783f619295a1fa41ab46d6190c8c7f3b",
                "0x3ccc861d00000000000000000000000000000000000000000000000000000000",
                "0x0000000000000000000000000000000000000000000000000000000000083d60"
              ],
              "data": "0x",
              "blockHash": "0x66c16abfb6a1328dd40807825123b284e87a57f7184ffe8c9487d1249f3a1fd0",
              "blockNumber": "0xefc859",
              "transactionHash": "0x187a7ec414df8b963e2aad333f674b1384e2e86ca0927979075602fa73a2a7fc",
              "transactionIndex": "0x11",
              "logIndex": "0x15",
              "removed": false
            }
          ],
          "logsBloom": "0x0000000100000000004000000000000000000000080000000000000000400000000000000002000000080000004000000000000000000000000020000010000000000000040000000000010000000004000a000000000000080000000000000000000010000200002000000000010000830000000000000000000000000100000000100000800000000000000100000000000000000000000000000000000000001100400000000000000000002000000000000088000000000000000000400600000000000000000008001000010000000200000000000000000000400001000000800000001800000000000000000000002000000000100000010100000000",
          "type": "0x2",
          "transactionHash": "0x187a7ec414df8b963e2aad333f674b1384e2e86ca0927979075602fa73a2a7fc",
          "transactionIndex": "0x11",
          "blockHash": "0x66c16abfb6a1328dd40807825123b284e87a57f7184ffe8c9487d1249f3a1fd0",
          "blockNumber": "0xefc859",
          "gasUsed": "0x1358e",
          "effectiveGasPrice": "0x206",
          "from": "0x8454d149beb26e3e3fc5ed1c87fb0b2a1b7b6c2c",
          "to": "0x7a5203463185c77ed4b7739a542405e5ceadad1f",
          "contractAddress": null,
          "l1BaseFeeScalar": "0x44d",
          "l1BlobBaseFee": "0x1",
          "l1BlobBaseFeeScalar": "0xa118b",
          "l1Fee": "0x4e59dffcfd",
          "l1GasPrice": "0x19ccb39eeb",
          "l1GasUsed": "0xac6"
        },
        {
          "status": "0x1",
          "cumulativeGasUsed": "0x11d050",
          "logs": [],
          "logsBloom": "0x00000000000000000000000000000000000000000000000000000000000000000000000000000000000000000000000000000000000000000000000000000000000000000000000000000000000000000000000000000000000000000000000000000000000000000000000000000000000000000000000000000000000000000000000000000000000000000000000000000000000000000000000000000000000000000000000000000000000000000000000000000000000000000000000000000000000000000000000000000000000000000000000000000000000000000000000000000000000000000000000000000000000000000000000000000000",
          "type": "0x2",
          "transactionHash": "0x8bd0a51e10e3edacd8f5377d2a6c5c591e767e537e2907e5c58d8d1578b4a3d8",
          "transactionIndex": "0x12",
          "blockHash": "0x66c16abfb6a1328dd40807825123b284e87a57f7184ffe8c9487d1249f3a1fd0",
          "blockNumber": "0xefc859",
          "gasUsed": "0x82f4",
          "effectiveGasPrice": "0x206",
          "from": "0x8454d149beb26e3e3fc5ed1c87fb0b2a1b7b6c2c",
          "to": "0x7a5203463185c77ed4b7739a542405e5ceadad1f",
          "contractAddress": null,
          "l1BaseFeeScalar": "0x44d",
          "l1BlobBaseFee": "0x1",
          "l1BlobBaseFeeScalar": "0xa118b",
          "l1Fee": "0x2d72d7a8cb",
          "l1GasPrice": "0x19ccb39eeb",
          "l1GasUsed": "0x640"
        },
        {
          "status": "0x1",
          "cumulativeGasUsed": "0x12486a",
          "logs": [],
          "logsBloom": "0x00000000000000000000000000000000000000000000000000000000000000000000000000000000000000000000000000000000000000000000000000000000000000000000000000000000000000000000000000000000000000000000000000000000000000000000000000000000000000000000000000000000000000000000000000000000000000000000000000000000000000000000000000000000000000000000000000000000000000000000000000000000000000000000000000000000000000000000000000000000000000000000000000000000000000000000000000000000000000000000000000000000000000000000000000000000",
          "type": "0x2",
          "transactionHash": "0x8de1efdfbd5f99ce83f10e2cfee72e6b648ae70b2838941335b8942c2f8ec3e9",
          "transactionIndex": "0x13",
          "blockHash": "0x66c16abfb6a1328dd40807825123b284e87a57f7184ffe8c9487d1249f3a1fd0",
          "blockNumber": "0xefc859",
          "gasUsed": "0x781a",
          "effectiveGasPrice": "0x206",
          "from": "0x8454d149beb26e3e3fc5ed1c87fb0b2a1b7b6c2c",
          "to": "0xdaa2cfe13769634ee9df26a0783080cd2b0ed312",
          "contractAddress": null,
          "l1BaseFeeScalar": "0x44d",
          "l1BlobBaseFee": "0x1",
          "l1BlobBaseFeeScalar": "0xa118b",
          "l1Fee": "0x2d72d7a8cb",
          "l1GasPrice": "0x19ccb39eeb",
          "l1GasUsed": "0x640"
        },
        {
          "status": "0x1",
          "cumulativeGasUsed": "0x12c297",
          "logs": [],
          "logsBloom": "0x00000000000000000000000000000000000000000000000000000000000000000000000000000000000000000000000000000000000000000000000000000000000000000000000000000000000000000000000000000000000000000000000000000000000000000000000000000000000000000000000000000000000000000000000000000000000000000000000000000000000000000000000000000000000000000000000000000000000000000000000000000000000000000000000000000000000000000000000000000000000000000000000000000000000000000000000000000000000000000000000000000000000000000000000000000000",
          "type": "0x2",
          "transactionHash": "0xbd03e8c56ae89db8d4614d450940e4288e05cb2f2e60f153d954aac90b80d640",
          "transactionIndex": "0x14",
          "blockHash": "0x66c16abfb6a1328dd40807825123b284e87a57f7184ffe8c9487d1249f3a1fd0",
          "blockNumber": "0xefc859",
          "gasUsed": "0x7a2d",
          "effectiveGasPrice": "0x206",
          "from": "0x8454d149beb26e3e3fc5ed1c87fb0b2a1b7b6c2c",
          "to": "0xdaa2cfe13769634ee9df26a0783080cd2b0ed312",
          "contractAddress": null,
          "l1BaseFeeScalar": "0x44d",
          "l1BlobBaseFee": "0x1",
          "l1BlobBaseFeeScalar": "0xa118b",
          "l1Fee": "0x2d72d7a8cb",
          "l1GasPrice": "0x19ccb39eeb",
          "l1GasUsed": "0x640"
        },
        {
          "status": "0x1",
          "cumulativeGasUsed": "0x133c67",
          "logs": [],
          "logsBloom": "0x00000000000000000000000000000000000000000000000000000000000000000000000000000000000000000000000000000000000000000000000000000000000000000000000000000000000000000000000000000000000000000000000000000000000000000000000000000000000000000000000000000000000000000000000000000000000000000000000000000000000000000000000000000000000000000000000000000000000000000000000000000000000000000000000000000000000000000000000000000000000000000000000000000000000000000000000000000000000000000000000000000000000000000000000000000000",
          "type": "0x2",
          "transactionHash": "0x83898b9aeabf3064bb7292d526ae5ad84e00f774b34cf5f5d0e43197e086c594",
          "transactionIndex": "0x15",
          "blockHash": "0x66c16abfb6a1328dd40807825123b284e87a57f7184ffe8c9487d1249f3a1fd0",
          "blockNumber": "0xefc859",
          "gasUsed": "0x79d0",
          "effectiveGasPrice": "0x206",
          "from": "0x8454d149beb26e3e3fc5ed1c87fb0b2a1b7b6c2c",
          "to": "0xdaa2cfe13769634ee9df26a0783080cd2b0ed312",
          "contractAddress": null,
          "l1BaseFeeScalar": "0x44d",
          "l1BlobBaseFee": "0x1",
          "l1BlobBaseFeeScalar": "0xa118b",
          "l1Fee": "0x2d72d7a8cb",
          "l1GasPrice": "0x19ccb39eeb",
          "l1GasUsed": "0x640"
        },
        {
          "status": "0x1",
          "cumulativeGasUsed": "0x13b636",
          "logs": [],
          "logsBloom": "0x00000000000000000000000000000000000000000000000000000000000000000000000000000000000000000000000000000000000000000000000000000000000000000000000000000000000000000000000000000000000000000000000000000000000000000000000000000000000000000000000000000000000000000000000000000000000000000000000000000000000000000000000000000000000000000000000000000000000000000000000000000000000000000000000000000000000000000000000000000000000000000000000000000000000000000000000000000000000000000000000000000000000000000000000000000000",
          "type": "0x2",
          "transactionHash": "0x44fde9fe2b6340505bd0ee163fe215b0ac887a2ebace0d9cf137d8649452135c",
          "transactionIndex": "0x16",
          "blockHash": "0x66c16abfb6a1328dd40807825123b284e87a57f7184ffe8c9487d1249f3a1fd0",
          "blockNumber": "0xefc859",
          "gasUsed": "0x79cf",
          "effectiveGasPrice": "0x206",
          "from": "0x8454d149beb26e3e3fc5ed1c87fb0b2a1b7b6c2c",
          "to": "0xdaa2cfe13769634ee9df26a0783080cd2b0ed312",
          "contractAddress": null,
          "l1BaseFeeScalar": "0x44d",
          "l1BlobBaseFee": "0x1",
          "l1BlobBaseFeeScalar": "0xa118b",
          "l1Fee": "0x2d72d7a8cb",
          "l1GasPrice": "0x19ccb39eeb",
          "l1GasUsed": "0x640"
        }
      ],
      "libraries": [],
      "pending": [],
      "returns": {},
      "timestamp": 1727197070,
      "chain": 84532,
      "commit": "e5b745c"
    },
    {
      "transactions": [
        {
          "hash": "0xae19514788e13aebc454f7044adbfc3f21e7495c1965a90edca7efa0d602e6f7",
          "transactionType": "CALL",
          "contractName": null,
          "contractAddress": "0xfde6b8cc33ae01f7696de3c0d3e730f373985134",
          "function": "allowlistSender(address,bool)",
          "arguments": [
            "0xdAA2cfe13769634EE9dF26a0783080Cd2b0ed312",
            "true"
          ],
          "transaction": {
            "from": "0x8454d149beb26e3e3fc5ed1c87fb0b2a1b7b6c2c",
            "to": "0xfde6b8cc33ae01f7696de3c0d3e730f373985134",
            "gas": "0xb664",
            "value": "0x0",
            "input": "0xeab5b02c000000000000000000000000daa2cfe13769634ee9df26a0783080cd2b0ed3120000000000000000000000000000000000000000000000000000000000000001",
            "nonce": "0x741",
            "chainId": "0xaa36a7"
          },
          "additionalContracts": [],
          "isFixedGasLimit": false
        },
        {
          "hash": "0xdf9359f111d36e4288c78425aaa9299a9030c60326e9a3be5ebce68043d1480b",
          "transactionType": "CALL",
          "contractName": null,
          "contractAddress": "0xfde6b8cc33ae01f7696de3c0d3e730f373985134",
          "function": "allowlistSourceChain(uint64,bool)",
          "arguments": [
            "10344971235874465080",
            "true"
          ],
          "transaction": {
            "from": "0x8454d149beb26e3e3fc5ed1c87fb0b2a1b7b6c2c",
            "to": "0xfde6b8cc33ae01f7696de3c0d3e730f373985134",
            "gas": "0xb587",
            "value": "0x0",
            "input": "0xdb04fa490000000000000000000000000000000000000000000000008f90b8876dee65380000000000000000000000000000000000000000000000000000000000000001",
            "nonce": "0x742",
            "chainId": "0xaa36a7"
          },
          "additionalContracts": [],
          "isFixedGasLimit": false
        },
        {
          "hash": "0x9ab9208263f27e5b75c811a238c2df277b235c830f3942fee4b5e9265af55e51",
          "transactionType": "CALL",
          "contractName": null,
          "contractAddress": "0xfde6b8cc33ae01f7696de3c0d3e730f373985134",
          "function": "allowlistSourceChain(uint64,bool)",
          "arguments": [
            "16015286601757825753",
            "true"
          ],
          "transaction": {
            "from": "0x8454d149beb26e3e3fc5ed1c87fb0b2a1b7b6c2c",
            "to": "0xfde6b8cc33ae01f7696de3c0d3e730f373985134",
            "gas": "0xb587",
            "value": "0x0",
            "input": "0xdb04fa49000000000000000000000000000000000000000000000000de41ba4fc9d91ad90000000000000000000000000000000000000000000000000000000000000001",
            "nonce": "0x743",
            "chainId": "0xaa36a7"
          },
          "additionalContracts": [],
          "isFixedGasLimit": false
        },
        {
          "hash": "0x5bf1ec548af07779282c4d2bcd867c84a0f03fb4e36890b6dbc2faf3d184ef28",
          "transactionType": "CALL",
          "contractName": null,
          "contractAddress": "0xfde6b8cc33ae01f7696de3c0d3e730f373985134",
          "function": "allowlistDestinationChain(uint64,bool)",
          "arguments": [
            "10344971235874465080",
            "true"
          ],
          "transaction": {
            "from": "0x8454d149beb26e3e3fc5ed1c87fb0b2a1b7b6c2c",
            "to": "0xfde6b8cc33ae01f7696de3c0d3e730f373985134",
            "gas": "0xb602",
            "value": "0x0",
            "input": "0x96d3b83d0000000000000000000000000000000000000000000000008f90b8876dee65380000000000000000000000000000000000000000000000000000000000000001",
            "nonce": "0x744",
            "chainId": "0xaa36a7"
          },
          "additionalContracts": [],
          "isFixedGasLimit": false
        },
        {
          "hash": "0xbb62fc75b46e92ed425416ac3547af07158c44267c5e9000efa966a642efce2a",
          "transactionType": "CALL",
          "contractName": null,
          "contractAddress": "0x5e9da3380737d0f82a463b68c983f72ba2236e13",
          "function": "setGasLimitsForFunctionSelectors(bytes4[],uint256[])",
          "arguments": [
            "[0xd8a85b48]",
            "[270000]"
          ],
          "transaction": {
            "from": "0x8454d149beb26e3e3fc5ed1c87fb0b2a1b7b6c2c",
            "to": "0x5e9da3380737d0f82a463b68c983f72ba2236e13",
            "gas": "0x1335e",
            "value": "0x0",
            "input": "0x3ef2d377000000000000000000000000000000000000000000000000000000000000004000000000000000000000000000000000000000000000000000000000000000800000000000000000000000000000000000000000000000000000000000000001d8a85b480000000000000000000000000000000000000000000000000000000000000000000000000000000000000000000000000000000000000000000000010000000000000000000000000000000000000000000000000000000000041eb0",
            "nonce": "0x745",
            "chainId": "0xaa36a7"
          },
          "additionalContracts": [],
          "isFixedGasLimit": false
        },
        {
          "hash": "0xc58dc688a5fde2c87d2e3a5240d0b445d998794aa0501c25a44885455ef8da29",
          "transactionType": "CALL",
          "contractName": null,
          "contractAddress": "0x9c721bc0aa8475650d21bc45c73797aefed620fb",
          "function": "getAgentFactory()",
          "arguments": [],
          "transaction": {
            "from": "0x8454d149beb26e3e3fc5ed1c87fb0b2a1b7b6c2c",
            "to": "0x9c721bc0aa8475650d21bc45c73797aefed620fb",
            "gas": "0xa602",
            "value": "0x0",
            "input": "0xf3b372de",
            "nonce": "0x746",
            "chainId": "0xaa36a7"
          },
          "additionalContracts": [],
          "isFixedGasLimit": false
        }
      ],
      "receipts": [
        {
          "status": "0x1",
          "cumulativeGasUsed": "0x806c30",
          "logs": [],
          "logsBloom": "0x00000000000000000000000000000000000000000000000000000000000000000000000000000000000000000000000000000000000000000000000000000000000000000000000000000000000000000000000000000000000000000000000000000000000000000000000000000000000000000000000000000000000000000000000000000000000000000000000000000000000000000000000000000000000000000000000000000000000000000000000000000000000000000000000000000000000000000000000000000000000000000000000000000000000000000000000000000000000000000000000000000000000000000000000000000000",
          "type": "0x2",
          "transactionHash": "0xae19514788e13aebc454f7044adbfc3f21e7495c1965a90edca7efa0d602e6f7",
          "transactionIndex": "0x25",
          "blockHash": "0xda7ba885ea72278531c01c0c934b26fdbeade7dfb1eba04a4aea4a071964d9eb",
          "blockNumber": "0x6707c1",
          "gasUsed": "0x840d",
          "effectiveGasPrice": "0x2624487a76",
          "from": "0x8454d149beb26e3e3fc5ed1c87fb0b2a1b7b6c2c",
          "to": "0xfde6b8cc33ae01f7696de3c0d3e730f373985134",
          "contractAddress": null
        },
        {
          "status": "0x1",
          "cumulativeGasUsed": "0x80ef9d",
          "logs": [],
          "logsBloom": "0x00000000000000000000000000000000000000000000000000000000000000000000000000000000000000000000000000000000000000000000000000000000000000000000000000000000000000000000000000000000000000000000000000000000000000000000000000000000000000000000000000000000000000000000000000000000000000000000000000000000000000000000000000000000000000000000000000000000000000000000000000000000000000000000000000000000000000000000000000000000000000000000000000000000000000000000000000000000000000000000000000000000000000000000000000000000",
          "type": "0x2",
          "transactionHash": "0xdf9359f111d36e4288c78425aaa9299a9030c60326e9a3be5ebce68043d1480b",
          "transactionIndex": "0x26",
          "blockHash": "0xda7ba885ea72278531c01c0c934b26fdbeade7dfb1eba04a4aea4a071964d9eb",
          "blockNumber": "0x6707c1",
          "gasUsed": "0x836d",
          "effectiveGasPrice": "0x2624487a76",
          "from": "0x8454d149beb26e3e3fc5ed1c87fb0b2a1b7b6c2c",
          "to": "0xfde6b8cc33ae01f7696de3c0d3e730f373985134",
          "contractAddress": null
        },
        {
          "status": "0x1",
          "cumulativeGasUsed": "0x81730a",
          "logs": [],
          "logsBloom": "0x00000000000000000000000000000000000000000000000000000000000000000000000000000000000000000000000000000000000000000000000000000000000000000000000000000000000000000000000000000000000000000000000000000000000000000000000000000000000000000000000000000000000000000000000000000000000000000000000000000000000000000000000000000000000000000000000000000000000000000000000000000000000000000000000000000000000000000000000000000000000000000000000000000000000000000000000000000000000000000000000000000000000000000000000000000000",
          "type": "0x2",
          "transactionHash": "0x9ab9208263f27e5b75c811a238c2df277b235c830f3942fee4b5e9265af55e51",
          "transactionIndex": "0x27",
          "blockHash": "0xda7ba885ea72278531c01c0c934b26fdbeade7dfb1eba04a4aea4a071964d9eb",
          "blockNumber": "0x6707c1",
          "gasUsed": "0x836d",
          "effectiveGasPrice": "0x2624487a76",
          "from": "0x8454d149beb26e3e3fc5ed1c87fb0b2a1b7b6c2c",
          "to": "0xfde6b8cc33ae01f7696de3c0d3e730f373985134",
          "contractAddress": null
        },
        {
          "status": "0x1",
          "cumulativeGasUsed": "0x81f6d0",
          "logs": [],
          "logsBloom": "0x00000000000000000000000000000000000000000000000000000000000000000000000000000000000000000000000000000000000000000000000000000000000000000000000000000000000000000000000000000000000000000000000000000000000000000000000000000000000000000000000000000000000000000000000000000000000000000000000000000000000000000000000000000000000000000000000000000000000000000000000000000000000000000000000000000000000000000000000000000000000000000000000000000000000000000000000000000000000000000000000000000000000000000000000000000000",
          "type": "0x2",
          "transactionHash": "0x5bf1ec548af07779282c4d2bcd867c84a0f03fb4e36890b6dbc2faf3d184ef28",
          "transactionIndex": "0x28",
          "blockHash": "0xda7ba885ea72278531c01c0c934b26fdbeade7dfb1eba04a4aea4a071964d9eb",
          "blockNumber": "0x6707c1",
          "gasUsed": "0x83c6",
          "effectiveGasPrice": "0x2624487a76",
          "from": "0x8454d149beb26e3e3fc5ed1c87fb0b2a1b7b6c2c",
          "to": "0xfde6b8cc33ae01f7696de3c0d3e730f373985134",
          "contractAddress": null
        },
        {
          "status": "0x1",
          "cumulativeGasUsed": "0x82d558",
          "logs": [
            {
              "address": "0x5e9da3380737d0f82a463b68c983f72ba2236e13",
              "topics": [
                "0xed4c89b805f4efb58bc4a42b9a3c6f09783f619295a1fa41ab46d6190c8c7f3b",
                "0xd8a85b4800000000000000000000000000000000000000000000000000000000",
                "0x0000000000000000000000000000000000000000000000000000000000041eb0"
              ],
              "data": "0x",
              "blockHash": "0xda7ba885ea72278531c01c0c934b26fdbeade7dfb1eba04a4aea4a071964d9eb",
              "blockNumber": "0x6707c1",
              "transactionHash": "0xbb62fc75b46e92ed425416ac3547af07158c44267c5e9000efa966a642efce2a",
              "transactionIndex": "0x29",
              "logIndex": "0x37",
              "removed": false
            }
          ],
          "logsBloom": "0x00000000000000000040000000000000000000000800000000000000000000000000000000000000000000000000000000000000002000000000000000000000000000020000000008000000000000000000000000800000000000000000000000000000000000000000000000000000800000000000040000000000000000000000000000000000000000001000000000000000000000000000000000000000000000000000000000010000100000000000000000000000000000000000000000000000000000000000000000000000000000000000000000000000000000000000000000000000000000000000000000000000000000000000000000800000",
          "type": "0x2",
          "transactionHash": "0xbb62fc75b46e92ed425416ac3547af07158c44267c5e9000efa966a642efce2a",
          "transactionIndex": "0x29",
          "blockHash": "0xda7ba885ea72278531c01c0c934b26fdbeade7dfb1eba04a4aea4a071964d9eb",
          "blockNumber": "0x6707c1",
          "gasUsed": "0xde88",
          "effectiveGasPrice": "0x2624487a76",
          "from": "0x8454d149beb26e3e3fc5ed1c87fb0b2a1b7b6c2c",
          "to": "0x5e9da3380737d0f82a463b68c983f72ba2236e13",
          "contractAddress": null
        },
        {
          "status": "0x1",
          "cumulativeGasUsed": "0x834d88",
          "logs": [],
          "logsBloom": "0x00000000000000000000000000000000000000000000000000000000000000000000000000000000000000000000000000000000000000000000000000000000000000000000000000000000000000000000000000000000000000000000000000000000000000000000000000000000000000000000000000000000000000000000000000000000000000000000000000000000000000000000000000000000000000000000000000000000000000000000000000000000000000000000000000000000000000000000000000000000000000000000000000000000000000000000000000000000000000000000000000000000000000000000000000000000",
          "type": "0x2",
          "transactionHash": "0xc58dc688a5fde2c87d2e3a5240d0b445d998794aa0501c25a44885455ef8da29",
          "transactionIndex": "0x2a",
          "blockHash": "0xda7ba885ea72278531c01c0c934b26fdbeade7dfb1eba04a4aea4a071964d9eb",
          "blockNumber": "0x6707c1",
          "gasUsed": "0x7830",
          "effectiveGasPrice": "0x2624487a76",
          "from": "0x8454d149beb26e3e3fc5ed1c87fb0b2a1b7b6c2c",
          "to": "0x9c721bc0aa8475650d21bc45c73797aefed620fb",
          "contractAddress": null
        }
      ],
      "libraries": [],
      "pending": [],
      "returns": {},
      "timestamp": 1727197071,
      "chain": 11155111,
      "commit": "e5b745c"
    }
  ],
  "timestamp": 1727197098
}