{
  "deployments": [
    {
      "transactions": [
        {
          "hash": "0xe69fb01eda370bcda849f721695c0e2366ba971d05831a8537feab8e5aa937d7",
          "transactionType": "CALL",
          "contractName": null,
          "contractAddress": "0xdaa2cfe13769634ee9df26a0783080cd2b0ed312",
          "function": "allowlistSender(address,bool)",
          "arguments": [
            "0xFc7c48F3C9d53A35Dd25d9187b75DA1af6c9B9f5",
            "true"
          ],
          "transaction": {
            "from": "0x8454d149beb26e3e3fc5ed1c87fb0b2a1b7b6c2c",
            "to": "0xdaa2cfe13769634ee9df26a0783080cd2b0ed312",
            "gas": "0x121e1",
            "value": "0x0",
            "input": "0xeab5b02c000000000000000000000000fc7c48f3c9d53a35dd25d9187b75da1af6c9b9f50000000000000000000000000000000000000000000000000000000000000001",
            "nonce": "0x4a1",
            "chainId": "0x14a34"
          },
          "additionalContracts": [],
          "isFixedGasLimit": false
        },
        {
          "hash": "0xa9bcddbfed16db64ab726977fcf91e3cfba89c88eae8562ee065ce18d0c725da",
          "transactionType": "CALL",
          "contractName": null,
          "contractAddress": "0xdaa2cfe13769634ee9df26a0783080cd2b0ed312",
          "function": "allowlistSourceChain(uint64,bool)",
          "arguments": [
            "10344971235874465080",
            "true"
          ],
          "transaction": {
            "from": "0x8454d149beb26e3e3fc5ed1c87fb0b2a1b7b6c2c",
            "to": "0xdaa2cfe13769634ee9df26a0783080cd2b0ed312",
            "gas": "0xb587",
            "value": "0x0",
            "input": "0xdb04fa490000000000000000000000000000000000000000000000008f90b8876dee65380000000000000000000000000000000000000000000000000000000000000001",
            "nonce": "0x4a2",
            "chainId": "0x14a34"
          },
          "additionalContracts": [],
          "isFixedGasLimit": false
        },
        {
          "hash": "0x2a247f4934f62766e73c253ab9551c62e3830e211944af3cf2fd465877eb20f4",
          "transactionType": "CALL",
          "contractName": null,
          "contractAddress": "0xdaa2cfe13769634ee9df26a0783080cd2b0ed312",
          "function": "allowlistDestinationChain(uint64,bool)",
          "arguments": [
            "16015286601757825753",
            "true"
          ],
          "transaction": {
            "from": "0x8454d149beb26e3e3fc5ed1c87fb0b2a1b7b6c2c",
            "to": "0xdaa2cfe13769634ee9df26a0783080cd2b0ed312",
            "gas": "0xb5a7",
            "value": "0x0",
            "input": "0x96d3b83d000000000000000000000000000000000000000000000000de41ba4fc9d91ad90000000000000000000000000000000000000000000000000000000000000001",
            "nonce": "0x4a3",
            "chainId": "0x14a34"
          },
          "additionalContracts": [],
          "isFixedGasLimit": false
        },
        {
          "hash": "0x57203eafd658a96e1d266da1437a0be15194458a94025193cb12c2ec2b495fc2",
          "transactionType": "CALL",
          "contractName": null,
          "contractAddress": "0x7a5203463185c77ed4b7739a542405e5ceadad1f",
          "function": "setGasLimitsForFunctionSelectors(bytes4[],uint256[])",
          "arguments": [
            "[0xe7a050aa, 0xcc15a557, 0x0dd8dd02, 0x60d7faed, 0xeea9064b, 0xda8be864, 0x3ccc861d]",
            "[410000, 290000, 540000, 800000, 560000, 780000, 960000]"
          ],
          "transaction": {
            "from": "0x8454d149beb26e3e3fc5ed1c87fb0b2a1b7b6c2c",
            "to": "0x7a5203463185c77ed4b7739a542405e5ceadad1f",
            "gas": "0x16005",
            "value": "0x0",
            "input": "0x3ef2d377000000000000000000000000000000000000000000000000000000000000004000000000000000000000000000000000000000000000000000000000000001400000000000000000000000000000000000000000000000000000000000000007e7a050aa00000000000000000000000000000000000000000000000000000000cc15a557000000000000000000000000000000000000000000000000000000000dd8dd020000000000000000000000000000000000000000000000000000000060d7faed00000000000000000000000000000000000000000000000000000000eea9064b00000000000000000000000000000000000000000000000000000000da8be864000000000000000000000000000000000000000000000000000000003ccc861d00000000000000000000000000000000000000000000000000000000000000000000000000000000000000000000000000000000000000000000000700000000000000000000000000000000000000000000000000000000000641900000000000000000000000000000000000000000000000000000000000046cd00000000000000000000000000000000000000000000000000000000000083d6000000000000000000000000000000000000000000000000000000000000c35000000000000000000000000000000000000000000000000000000000000088b8000000000000000000000000000000000000000000000000000000000000be6e000000000000000000000000000000000000000000000000000000000000ea600",
            "nonce": "0x4a4",
            "chainId": "0x14a34"
          },
          "additionalContracts": [],
          "isFixedGasLimit": false
        },
        {
          "hash": "0x878a94966ebd1f4ff8e25082076dd5cb35e6e44ff01775e046ef6cde7ff014f2",
          "transactionType": "CALL",
          "contractName": null,
          "contractAddress": "0x7a5203463185c77ed4b7739a542405e5ceadad1f",
          "function": "setSenderCCIP(address)",
          "arguments": [
            "0xdAA2cfe13769634EE9dF26a0783080Cd2b0ed312"
          ],
          "transaction": {
            "from": "0x8454d149beb26e3e3fc5ed1c87fb0b2a1b7b6c2c",
            "to": "0x7a5203463185c77ed4b7739a542405e5ceadad1f",
            "gas": "0xb4e0",
            "value": "0x0",
            "input": "0xd8d6c31a000000000000000000000000daa2cfe13769634ee9df26a0783080cd2b0ed312",
            "nonce": "0x4a5",
            "chainId": "0x14a34"
          },
          "additionalContracts": [],
          "isFixedGasLimit": false
        },
        {
          "hash": "0x6ae039ad499132cd3794059fe5d7f69db98abbe3da8e0302d0e91fd62da9c8d9",
          "transactionType": "CALL",
          "contractName": null,
          "contractAddress": "0xdaa2cfe13769634ee9df26a0783080cd2b0ed312",
          "function": "getSenderHooks()",
          "arguments": [],
          "transaction": {
            "from": "0x8454d149beb26e3e3fc5ed1c87fb0b2a1b7b6c2c",
            "to": "0xdaa2cfe13769634ee9df26a0783080cd2b0ed312",
            "gas": "0xafa5",
            "value": "0x0",
            "input": "0xe09df825",
            "nonce": "0x4a6",
            "chainId": "0x14a34"
          },
          "additionalContracts": [],
          "isFixedGasLimit": false
        },
        {
          "hash": "0x0239dd4cc041ccc5039e77fd1738eace48fdaa54aef987f79bce7d1674d73f91",
          "transactionType": "CALL",
          "contractName": null,
          "contractAddress": "0xdaa2cfe13769634ee9df26a0783080cd2b0ed312",
          "function": "allowlistedSenders(address)",
          "arguments": [
            "0xFc7c48F3C9d53A35Dd25d9187b75DA1af6c9B9f5"
          ],
          "transaction": {
            "from": "0x8454d149beb26e3e3fc5ed1c87fb0b2a1b7b6c2c",
            "to": "0xdaa2cfe13769634ee9df26a0783080cd2b0ed312",
            "gas": "0xa8c0",
            "value": "0x0",
            "input": "0x6159ada1000000000000000000000000fc7c48f3c9d53a35dd25d9187b75da1af6c9b9f5",
            "nonce": "0x4a7",
            "chainId": "0x14a34"
          },
          "additionalContracts": [],
          "isFixedGasLimit": false
        },
        {
          "hash": "0x5524b5ee7d32ca8f75a98389811d68dcae004dd3841ed7d6861ec0acb8310100",
          "transactionType": "CALL",
          "contractName": null,
          "contractAddress": "0xdaa2cfe13769634ee9df26a0783080cd2b0ed312",
          "function": "allowlistedSourceChains(uint64)",
          "arguments": [
            "16015286601757825753"
          ],
          "transaction": {
            "from": "0x8454d149beb26e3e3fc5ed1c87fb0b2a1b7b6c2c",
            "to": "0xdaa2cfe13769634ee9df26a0783080cd2b0ed312",
            "gas": "0xa840",
            "value": "0x0",
            "input": "0x4030d521000000000000000000000000000000000000000000000000de41ba4fc9d91ad9",
            "nonce": "0x4a8",
            "chainId": "0x14a34"
          },
          "additionalContracts": [],
          "isFixedGasLimit": false
        },
        {
          "hash": "0x8043ae3bb11ced199a6876137e91f7c03afd2e39c0e2d268e65a90380bb1cef4",
          "transactionType": "CALL",
          "contractName": null,
          "contractAddress": "0xdaa2cfe13769634ee9df26a0783080cd2b0ed312",
          "function": "allowlistedDestinationChains(uint64)",
          "arguments": [
            "16015286601757825753"
          ],
          "transaction": {
            "from": "0x8454d149beb26e3e3fc5ed1c87fb0b2a1b7b6c2c",
            "to": "0xdaa2cfe13769634ee9df26a0783080cd2b0ed312",
            "gas": "0xa83e",
            "value": "0x0",
            "input": "0x75c67c66000000000000000000000000000000000000000000000000de41ba4fc9d91ad9",
            "nonce": "0x4a9",
            "chainId": "0x14a34"
          },
          "additionalContracts": [],
          "isFixedGasLimit": false
        }
      ],
      "receipts": [
        {
          "status": "0x1",
          "cumulativeGasUsed": "0x6b05b",
          "logs": [],
          "logsBloom": "0x00000000000000000000000000000000000000000000000000000000000000000000000000000000000000000000000000000000000000000000000000000000000000000000000000000000000000000000000000000000000000000000000000000000000000000000000000000000000000000000000000000000000000000000000000000000000000000000000000000000000000000000000000000000000000000000000000000000000000000000000000000000000000000000000000000000000000000000000000000000000000000000000000000000000000000000000000000000000000000000000000000000000000000000000000000000",
          "type": "0x2",
          "transactionHash": "0xe69fb01eda370bcda849f721695c0e2366ba971d05831a8537feab8e5aa937d7",
          "transactionIndex": "0x5",
          "blockHash": "0x03809c8b56c1485e5d823a520c1e53afffc9b5d7b40457a78f8ef8da1cff3449",
          "blockNumber": "0xee7400",
          "gasUsed": "0xd1df",
          "effectiveGasPrice": "0xf08b1",
          "from": "0x8454d149beb26e3e3fc5ed1c87fb0b2a1b7b6c2c",
          "to": "0xdaa2cfe13769634ee9df26a0783080cd2b0ed312",
          "contractAddress": null,
          "l1BaseFeeScalar": "0x44d",
          "l1BlobBaseFee": "0x1",
          "l1BlobBaseFeeScalar": "0xa118b",
          "l1Fee": "0x5989e4317",
          "l1GasPrice": "0x32d3f90aa",
          "l1GasUsed": "0x640"
        },
        {
          "status": "0x1",
          "cumulativeGasUsed": "0x733c8",
          "logs": [],
          "logsBloom": "0x00000000000000000000000000000000000000000000000000000000000000000000000000000000000000000000000000000000000000000000000000000000000000000000000000000000000000000000000000000000000000000000000000000000000000000000000000000000000000000000000000000000000000000000000000000000000000000000000000000000000000000000000000000000000000000000000000000000000000000000000000000000000000000000000000000000000000000000000000000000000000000000000000000000000000000000000000000000000000000000000000000000000000000000000000000000",
          "type": "0x2",
          "transactionHash": "0xa9bcddbfed16db64ab726977fcf91e3cfba89c88eae8562ee065ce18d0c725da",
          "transactionIndex": "0x6",
          "blockHash": "0x03809c8b56c1485e5d823a520c1e53afffc9b5d7b40457a78f8ef8da1cff3449",
          "blockNumber": "0xee7400",
          "gasUsed": "0x836d",
          "effectiveGasPrice": "0xf08b1",
          "from": "0x8454d149beb26e3e3fc5ed1c87fb0b2a1b7b6c2c",
          "to": "0xdaa2cfe13769634ee9df26a0783080cd2b0ed312",
          "contractAddress": null,
          "l1BaseFeeScalar": "0x44d",
          "l1BlobBaseFee": "0x1",
          "l1BlobBaseFeeScalar": "0xa118b",
          "l1Fee": "0x5989e4317",
          "l1GasPrice": "0x32d3f90aa",
          "l1GasUsed": "0x640"
        },
        {
          "status": "0x1",
          "cumulativeGasUsed": "0x7b74c",
          "logs": [],
          "logsBloom": "0x00000000000000000000000000000000000000000000000000000000000000000000000000000000000000000000000000000000000000000000000000000000000000000000000000000000000000000000000000000000000000000000000000000000000000000000000000000000000000000000000000000000000000000000000000000000000000000000000000000000000000000000000000000000000000000000000000000000000000000000000000000000000000000000000000000000000000000000000000000000000000000000000000000000000000000000000000000000000000000000000000000000000000000000000000000000",
          "type": "0x2",
          "transactionHash": "0x2a247f4934f62766e73c253ab9551c62e3830e211944af3cf2fd465877eb20f4",
          "transactionIndex": "0x7",
          "blockHash": "0x03809c8b56c1485e5d823a520c1e53afffc9b5d7b40457a78f8ef8da1cff3449",
          "blockNumber": "0xee7400",
          "gasUsed": "0x8384",
          "effectiveGasPrice": "0xf08b1",
          "from": "0x8454d149beb26e3e3fc5ed1c87fb0b2a1b7b6c2c",
          "to": "0xdaa2cfe13769634ee9df26a0783080cd2b0ed312",
          "contractAddress": null,
          "l1BaseFeeScalar": "0x44d",
          "l1BlobBaseFee": "0x1",
          "l1BlobBaseFeeScalar": "0xa118b",
          "l1Fee": "0x5989e4317",
          "l1GasPrice": "0x32d3f90aa",
          "l1GasUsed": "0x640"
        },
        {
          "status": "0x1",
          "cumulativeGasUsed": "0x8b628",
          "logs": [
            {
              "address": "0x7a5203463185c77ed4b7739a542405e5ceadad1f",
              "topics": [
                "0xed4c89b805f4efb58bc4a42b9a3c6f09783f619295a1fa41ab46d6190c8c7f3b",
                "0xe7a050aa00000000000000000000000000000000000000000000000000000000",
                "0x0000000000000000000000000000000000000000000000000000000000064190"
              ],
              "data": "0x",
              "blockHash": "0x03809c8b56c1485e5d823a520c1e53afffc9b5d7b40457a78f8ef8da1cff3449",
              "blockNumber": "0xee7400",
              "transactionHash": "0x57203eafd658a96e1d266da1437a0be15194458a94025193cb12c2ec2b495fc2",
              "transactionIndex": "0x8",
              "logIndex": "0x7",
              "removed": false
            },
            {
              "address": "0x7a5203463185c77ed4b7739a542405e5ceadad1f",
              "topics": [
                "0xed4c89b805f4efb58bc4a42b9a3c6f09783f619295a1fa41ab46d6190c8c7f3b",
                "0xcc15a55700000000000000000000000000000000000000000000000000000000",
                "0x0000000000000000000000000000000000000000000000000000000000046cd0"
              ],
              "data": "0x",
              "blockHash": "0x03809c8b56c1485e5d823a520c1e53afffc9b5d7b40457a78f8ef8da1cff3449",
              "blockNumber": "0xee7400",
              "transactionHash": "0x57203eafd658a96e1d266da1437a0be15194458a94025193cb12c2ec2b495fc2",
              "transactionIndex": "0x8",
              "logIndex": "0x8",
              "removed": false
            },
            {
              "address": "0x7a5203463185c77ed4b7739a542405e5ceadad1f",
              "topics": [
                "0xed4c89b805f4efb58bc4a42b9a3c6f09783f619295a1fa41ab46d6190c8c7f3b",
                "0x0dd8dd0200000000000000000000000000000000000000000000000000000000",
                "0x0000000000000000000000000000000000000000000000000000000000083d60"
              ],
              "data": "0x",
              "blockHash": "0x03809c8b56c1485e5d823a520c1e53afffc9b5d7b40457a78f8ef8da1cff3449",
              "blockNumber": "0xee7400",
              "transactionHash": "0x57203eafd658a96e1d266da1437a0be15194458a94025193cb12c2ec2b495fc2",
              "transactionIndex": "0x8",
              "logIndex": "0x9",
              "removed": false
            },
            {
              "address": "0x7a5203463185c77ed4b7739a542405e5ceadad1f",
              "topics": [
                "0xed4c89b805f4efb58bc4a42b9a3c6f09783f619295a1fa41ab46d6190c8c7f3b",
                "0x60d7faed00000000000000000000000000000000000000000000000000000000",
                "0x00000000000000000000000000000000000000000000000000000000000c3500"
              ],
              "data": "0x",
              "blockHash": "0x03809c8b56c1485e5d823a520c1e53afffc9b5d7b40457a78f8ef8da1cff3449",
              "blockNumber": "0xee7400",
              "transactionHash": "0x57203eafd658a96e1d266da1437a0be15194458a94025193cb12c2ec2b495fc2",
              "transactionIndex": "0x8",
              "logIndex": "0xa",
              "removed": false
            },
            {
              "address": "0x7a5203463185c77ed4b7739a542405e5ceadad1f",
              "topics": [
                "0xed4c89b805f4efb58bc4a42b9a3c6f09783f619295a1fa41ab46d6190c8c7f3b",
                "0xeea9064b00000000000000000000000000000000000000000000000000000000",
                "0x0000000000000000000000000000000000000000000000000000000000088b80"
              ],
              "data": "0x",
              "blockHash": "0x03809c8b56c1485e5d823a520c1e53afffc9b5d7b40457a78f8ef8da1cff3449",
              "blockNumber": "0xee7400",
              "transactionHash": "0x57203eafd658a96e1d266da1437a0be15194458a94025193cb12c2ec2b495fc2",
              "transactionIndex": "0x8",
              "logIndex": "0xb",
              "removed": false
            },
            {
              "address": "0x7a5203463185c77ed4b7739a542405e5ceadad1f",
              "topics": [
                "0xed4c89b805f4efb58bc4a42b9a3c6f09783f619295a1fa41ab46d6190c8c7f3b",
                "0xda8be86400000000000000000000000000000000000000000000000000000000",
                "0x00000000000000000000000000000000000000000000000000000000000be6e0"
              ],
              "data": "0x",
              "blockHash": "0x03809c8b56c1485e5d823a520c1e53afffc9b5d7b40457a78f8ef8da1cff3449",
              "blockNumber": "0xee7400",
              "transactionHash": "0x57203eafd658a96e1d266da1437a0be15194458a94025193cb12c2ec2b495fc2",
              "transactionIndex": "0x8",
              "logIndex": "0xc",
              "removed": false
            },
            {
              "address": "0x7a5203463185c77ed4b7739a542405e5ceadad1f",
              "topics": [
                "0xed4c89b805f4efb58bc4a42b9a3c6f09783f619295a1fa41ab46d6190c8c7f3b",
                "0x3ccc861d00000000000000000000000000000000000000000000000000000000",
                "0x00000000000000000000000000000000000000000000000000000000000ea600"
              ],
              "data": "0x",
              "blockHash": "0x03809c8b56c1485e5d823a520c1e53afffc9b5d7b40457a78f8ef8da1cff3449",
              "blockNumber": "0xee7400",
              "transactionHash": "0x57203eafd658a96e1d266da1437a0be15194458a94025193cb12c2ec2b495fc2",
              "transactionIndex": "0x8",
              "logIndex": "0xd",
              "removed": false
            }
          ],
          "logsBloom": "0x0000000000000000004000000000000000000000080000000000000000400000002000800000000000080000004000000000000000000000000000000000000000000000040000000000010000000004000a000000001000080000000000000000000010000200003000000000010000830000000000000000000000000100000000100000800000000000000100010000000000000000000000000000000000001100401000000000000000002000000000000088000000008000000000400600000000000000000008001000010002000200000000000000000000040001000000000000001000000000000000000000000000000000100000010000000000",
          "type": "0x2",
          "transactionHash": "0x57203eafd658a96e1d266da1437a0be15194458a94025193cb12c2ec2b495fc2",
          "transactionIndex": "0x8",
          "blockHash": "0x03809c8b56c1485e5d823a520c1e53afffc9b5d7b40457a78f8ef8da1cff3449",
          "blockNumber": "0xee7400",
          "gasUsed": "0xfedc",
          "effectiveGasPrice": "0xf08b1",
          "from": "0x8454d149beb26e3e3fc5ed1c87fb0b2a1b7b6c2c",
          "to": "0x7a5203463185c77ed4b7739a542405e5ceadad1f",
          "contractAddress": null,
          "l1BaseFeeScalar": "0x44d",
          "l1BlobBaseFee": "0x1",
          "l1BlobBaseFeeScalar": "0xa118b",
          "l1Fee": "0xa05a1acd2",
          "l1GasPrice": "0x32d3f90aa",
          "l1GasUsed": "0xb31"
        },
        {
          "status": "0x1",
          "cumulativeGasUsed": "0x9391c",
          "logs": [],
          "logsBloom": "0x00000000000000000000000000000000000000000000000000000000000000000000000000000000000000000000000000000000000000000000000000000000000000000000000000000000000000000000000000000000000000000000000000000000000000000000000000000000000000000000000000000000000000000000000000000000000000000000000000000000000000000000000000000000000000000000000000000000000000000000000000000000000000000000000000000000000000000000000000000000000000000000000000000000000000000000000000000000000000000000000000000000000000000000000000000000",
          "type": "0x2",
          "transactionHash": "0x878a94966ebd1f4ff8e25082076dd5cb35e6e44ff01775e046ef6cde7ff014f2",
          "transactionIndex": "0x9",
          "blockHash": "0x03809c8b56c1485e5d823a520c1e53afffc9b5d7b40457a78f8ef8da1cff3449",
          "blockNumber": "0xee7400",
          "gasUsed": "0x82f4",
          "effectiveGasPrice": "0xf08b1",
          "from": "0x8454d149beb26e3e3fc5ed1c87fb0b2a1b7b6c2c",
          "to": "0x7a5203463185c77ed4b7739a542405e5ceadad1f",
          "contractAddress": null,
          "l1BaseFeeScalar": "0x44d",
          "l1BlobBaseFee": "0x1",
          "l1BlobBaseFeeScalar": "0xa118b",
          "l1Fee": "0x5989e4317",
          "l1GasPrice": "0x32d3f90aa",
          "l1GasUsed": "0x640"
        },
        {
          "status": "0x1",
          "cumulativeGasUsed": "0x9b136",
          "logs": [],
          "logsBloom": "0x00000000000000000000000000000000000000000000000000000000000000000000000000000000000000000000000000000000000000000000000000000000000000000000000000000000000000000000000000000000000000000000000000000000000000000000000000000000000000000000000000000000000000000000000000000000000000000000000000000000000000000000000000000000000000000000000000000000000000000000000000000000000000000000000000000000000000000000000000000000000000000000000000000000000000000000000000000000000000000000000000000000000000000000000000000000",
          "type": "0x2",
          "transactionHash": "0x6ae039ad499132cd3794059fe5d7f69db98abbe3da8e0302d0e91fd62da9c8d9",
          "transactionIndex": "0xa",
          "blockHash": "0x03809c8b56c1485e5d823a520c1e53afffc9b5d7b40457a78f8ef8da1cff3449",
          "blockNumber": "0xee7400",
          "gasUsed": "0x781a",
          "effectiveGasPrice": "0xf08b1",
          "from": "0x8454d149beb26e3e3fc5ed1c87fb0b2a1b7b6c2c",
          "to": "0xdaa2cfe13769634ee9df26a0783080cd2b0ed312",
          "contractAddress": null,
          "l1BaseFeeScalar": "0x44d",
          "l1BlobBaseFee": "0x1",
          "l1BlobBaseFeeScalar": "0xa118b",
          "l1Fee": "0x5989e4317",
          "l1GasPrice": "0x32d3f90aa",
          "l1GasUsed": "0x640"
        },
        {
          "status": "0x1",
          "cumulativeGasUsed": "0xa2b63",
          "logs": [],
          "logsBloom": "0x00000000000000000000000000000000000000000000000000000000000000000000000000000000000000000000000000000000000000000000000000000000000000000000000000000000000000000000000000000000000000000000000000000000000000000000000000000000000000000000000000000000000000000000000000000000000000000000000000000000000000000000000000000000000000000000000000000000000000000000000000000000000000000000000000000000000000000000000000000000000000000000000000000000000000000000000000000000000000000000000000000000000000000000000000000000",
          "type": "0x2",
          "transactionHash": "0x0239dd4cc041ccc5039e77fd1738eace48fdaa54aef987f79bce7d1674d73f91",
          "transactionIndex": "0xb",
          "blockHash": "0x03809c8b56c1485e5d823a520c1e53afffc9b5d7b40457a78f8ef8da1cff3449",
          "blockNumber": "0xee7400",
          "gasUsed": "0x7a2d",
          "effectiveGasPrice": "0xf08b1",
          "from": "0x8454d149beb26e3e3fc5ed1c87fb0b2a1b7b6c2c",
          "to": "0xdaa2cfe13769634ee9df26a0783080cd2b0ed312",
          "contractAddress": null,
          "l1BaseFeeScalar": "0x44d",
          "l1BlobBaseFee": "0x1",
          "l1BlobBaseFeeScalar": "0xa118b",
          "l1Fee": "0x5989e4317",
          "l1GasPrice": "0x32d3f90aa",
          "l1GasUsed": "0x640"
        },
        {
          "status": "0x1",
          "cumulativeGasUsed": "0xaa533",
          "logs": [],
          "logsBloom": "0x00000000000000000000000000000000000000000000000000000000000000000000000000000000000000000000000000000000000000000000000000000000000000000000000000000000000000000000000000000000000000000000000000000000000000000000000000000000000000000000000000000000000000000000000000000000000000000000000000000000000000000000000000000000000000000000000000000000000000000000000000000000000000000000000000000000000000000000000000000000000000000000000000000000000000000000000000000000000000000000000000000000000000000000000000000000",
          "type": "0x2",
          "transactionHash": "0x5524b5ee7d32ca8f75a98389811d68dcae004dd3841ed7d6861ec0acb8310100",
          "transactionIndex": "0xc",
          "blockHash": "0x03809c8b56c1485e5d823a520c1e53afffc9b5d7b40457a78f8ef8da1cff3449",
          "blockNumber": "0xee7400",
          "gasUsed": "0x79d0",
          "effectiveGasPrice": "0xf08b1",
          "from": "0x8454d149beb26e3e3fc5ed1c87fb0b2a1b7b6c2c",
          "to": "0xdaa2cfe13769634ee9df26a0783080cd2b0ed312",
          "contractAddress": null,
          "l1BaseFeeScalar": "0x44d",
          "l1BlobBaseFee": "0x1",
          "l1BlobBaseFeeScalar": "0xa118b",
          "l1Fee": "0x5989e4317",
          "l1GasPrice": "0x32d3f90aa",
          "l1GasUsed": "0x640"
        },
        {
          "status": "0x1",
          "cumulativeGasUsed": "0xb1f02",
          "logs": [],
          "logsBloom": "0x00000000000000000000000000000000000000000000000000000000000000000000000000000000000000000000000000000000000000000000000000000000000000000000000000000000000000000000000000000000000000000000000000000000000000000000000000000000000000000000000000000000000000000000000000000000000000000000000000000000000000000000000000000000000000000000000000000000000000000000000000000000000000000000000000000000000000000000000000000000000000000000000000000000000000000000000000000000000000000000000000000000000000000000000000000000",
          "type": "0x2",
          "transactionHash": "0x8043ae3bb11ced199a6876137e91f7c03afd2e39c0e2d268e65a90380bb1cef4",
          "transactionIndex": "0xd",
          "blockHash": "0x03809c8b56c1485e5d823a520c1e53afffc9b5d7b40457a78f8ef8da1cff3449",
          "blockNumber": "0xee7400",
          "gasUsed": "0x79cf",
          "effectiveGasPrice": "0xf08b1",
          "from": "0x8454d149beb26e3e3fc5ed1c87fb0b2a1b7b6c2c",
          "to": "0xdaa2cfe13769634ee9df26a0783080cd2b0ed312",
          "contractAddress": null,
          "l1BaseFeeScalar": "0x44d",
          "l1BlobBaseFee": "0x1",
          "l1BlobBaseFeeScalar": "0xa118b",
          "l1Fee": "0x5989e4317",
          "l1GasPrice": "0x32d3f90aa",
          "l1GasUsed": "0x640"
        }
      ],
      "libraries": [],
      "pending": [],
      "returns": {},
      "timestamp": 1727022812,
      "chain": 84532,
      "commit": "7dc3026"
    },
    {
      "transactions": [
        {
          "hash": "0x61e69d4b567cd553ce9597a96cfc0bf1b55654a1da89b5293c150896b4cf485e",
          "transactionType": "CALL",
          "contractName": null,
          "contractAddress": "0xfc7c48f3c9d53a35dd25d9187b75da1af6c9b9f5",
          "function": "allowlistSender(address,bool)",
          "arguments": [
            "0xdAA2cfe13769634EE9dF26a0783080Cd2b0ed312",
            "true"
          ],
          "transaction": {
            "from": "0x8454d149beb26e3e3fc5ed1c87fb0b2a1b7b6c2c",
            "to": "0xfc7c48f3c9d53a35dd25d9187b75da1af6c9b9f5",
            "gas": "0xb664",
            "value": "0x0",
            "input": "0xeab5b02c000000000000000000000000daa2cfe13769634ee9df26a0783080cd2b0ed3120000000000000000000000000000000000000000000000000000000000000001",
            "nonce": "0x718",
            "chainId": "0xaa36a7"
          },
          "additionalContracts": [],
          "isFixedGasLimit": false
        },
        {
          "hash": "0x326c725213eadf1309650c8f25a713e5975b3859d78676bcbc76d1da1fc16ca9",
          "transactionType": "CALL",
          "contractName": null,
          "contractAddress": "0xfc7c48f3c9d53a35dd25d9187b75da1af6c9b9f5",
          "function": "allowlistSourceChain(uint64,bool)",
          "arguments": [
            "10344971235874465080",
            "true"
          ],
          "transaction": {
            "from": "0x8454d149beb26e3e3fc5ed1c87fb0b2a1b7b6c2c",
            "to": "0xfc7c48f3c9d53a35dd25d9187b75da1af6c9b9f5",
            "gas": "0xb587",
            "value": "0x0",
            "input": "0xdb04fa490000000000000000000000000000000000000000000000008f90b8876dee65380000000000000000000000000000000000000000000000000000000000000001",
            "nonce": "0x719",
            "chainId": "0xaa36a7"
          },
          "additionalContracts": [],
          "isFixedGasLimit": false
        },
        {
          "hash": "0xfb659e30949e5162811e842ee6d46d1bb2d0778821e38cf80642a5621d4b6340",
          "transactionType": "CALL",
          "contractName": null,
          "contractAddress": "0xfc7c48f3c9d53a35dd25d9187b75da1af6c9b9f5",
          "function": "allowlistSourceChain(uint64,bool)",
          "arguments": [
            "16015286601757825753",
            "true"
          ],
          "transaction": {
            "from": "0x8454d149beb26e3e3fc5ed1c87fb0b2a1b7b6c2c",
            "to": "0xfc7c48f3c9d53a35dd25d9187b75da1af6c9b9f5",
            "gas": "0xb587",
            "value": "0x0",
            "input": "0xdb04fa49000000000000000000000000000000000000000000000000de41ba4fc9d91ad90000000000000000000000000000000000000000000000000000000000000001",
            "nonce": "0x71a",
            "chainId": "0xaa36a7"
          },
          "additionalContracts": [],
          "isFixedGasLimit": false
        },
        {
          "hash": "0x7b374eb87077daf77b0d3d866adbb9f6661aaa9e74dda7485fa4a4e6d1e3d2c5",
          "transactionType": "CALL",
          "contractName": null,
          "contractAddress": "0xfc7c48f3c9d53a35dd25d9187b75da1af6c9b9f5",
          "function": "allowlistDestinationChain(uint64,bool)",
          "arguments": [
            "10344971235874465080",
            "true"
          ],
          "transaction": {
            "from": "0x8454d149beb26e3e3fc5ed1c87fb0b2a1b7b6c2c",
            "to": "0xfc7c48f3c9d53a35dd25d9187b75da1af6c9b9f5",
            "gas": "0xb602",
            "value": "0x0",
            "input": "0x96d3b83d0000000000000000000000000000000000000000000000008f90b8876dee65380000000000000000000000000000000000000000000000000000000000000001",
            "nonce": "0x71b",
            "chainId": "0xaa36a7"
          },
          "additionalContracts": [],
          "isFixedGasLimit": false
        },
        {
          "hash": "0x1a86dd4576b6f361c4301ed63814f4ab420bf280e18c6d08f07076a752f8066e",
          "transactionType": "CALL",
          "contractName": null,
          "contractAddress": "0xcb15e6a1effc7ec5a1ba68136bfd62d560228f03",
          "function": "setGasLimitsForFunctionSelectors(bytes4[],uint256[])",
          "arguments": [
            "[0xd8a85b48]",
            "[280000]"
          ],
          "transaction": {
            "from": "0x8454d149beb26e3e3fc5ed1c87fb0b2a1b7b6c2c",
            "to": "0xcb15e6a1effc7ec5a1ba68136bfd62d560228f03",
            "gas": "0x1335e",
            "value": "0x0",
            "input": "0x3ef2d377000000000000000000000000000000000000000000000000000000000000004000000000000000000000000000000000000000000000000000000000000000800000000000000000000000000000000000000000000000000000000000000001d8a85b4800000000000000000000000000000000000000000000000000000000000000000000000000000000000000000000000000000000000000000000000100000000000000000000000000000000000000000000000000000000000445c0",
            "nonce": "0x71c",
            "chainId": "0xaa36a7"
          },
          "additionalContracts": [],
          "isFixedGasLimit": false
        },
        {
          "hash": "0x99001bed39d50e0f1363da43fcae737f2592d67f891351f64f3c7cff8b93eb58",
          "transactionType": "CALL",
          "contractName": null,
          "contractAddress": "0x13d8661e00a94227eabf9771dc6802879eb26626",
          "function": "getAgentFactory()",
          "arguments": [],
          "transaction": {
            "from": "0x8454d149beb26e3e3fc5ed1c87fb0b2a1b7b6c2c",
            "to": "0x13d8661e00a94227eabf9771dc6802879eb26626",
            "gas": "0xa602",
            "value": "0x0",
            "input": "0xf3b372de",
            "nonce": "0x71d",
            "chainId": "0xaa36a7"
          },
          "additionalContracts": [],
          "isFixedGasLimit": false
        }
      ],
      "receipts": [
        {
          "status": "0x1",
          "cumulativeGasUsed": "0x120dd19",
          "logs": [],
          "logsBloom": "0x00000000000000000000000000000000000000000000000000000000000000000000000000000000000000000000000000000000000000000000000000000000000000000000000000000000000000000000000000000000000000000000000000000000000000000000000000000000000000000000000000000000000000000000000000000000000000000000000000000000000000000000000000000000000000000000000000000000000000000000000000000000000000000000000000000000000000000000000000000000000000000000000000000000000000000000000000000000000000000000000000000000000000000000000000000000",
          "type": "0x2",
          "transactionHash": "0x61e69d4b567cd553ce9597a96cfc0bf1b55654a1da89b5293c150896b4cf485e",
          "transactionIndex": "0x82",
          "blockHash": "0xa7f5c1e5d95def4b93e4ef208c5d8bfc653fcd9ec5d2bc5014c7a4dec0457fe5",
          "blockNumber": "0x66d8a9",
          "gasUsed": "0x840d",
          "effectiveGasPrice": "0x3feaa2cf6",
          "from": "0x8454d149beb26e3e3fc5ed1c87fb0b2a1b7b6c2c",
          "to": "0xfc7c48f3c9d53a35dd25d9187b75da1af6c9b9f5",
          "contractAddress": null
        },
        {
          "status": "0x1",
          "cumulativeGasUsed": "0x1216086",
          "logs": [],
          "logsBloom": "0x00000000000000000000000000000000000000000000000000000000000000000000000000000000000000000000000000000000000000000000000000000000000000000000000000000000000000000000000000000000000000000000000000000000000000000000000000000000000000000000000000000000000000000000000000000000000000000000000000000000000000000000000000000000000000000000000000000000000000000000000000000000000000000000000000000000000000000000000000000000000000000000000000000000000000000000000000000000000000000000000000000000000000000000000000000000",
          "type": "0x2",
          "transactionHash": "0x326c725213eadf1309650c8f25a713e5975b3859d78676bcbc76d1da1fc16ca9",
          "transactionIndex": "0x83",
          "blockHash": "0xa7f5c1e5d95def4b93e4ef208c5d8bfc653fcd9ec5d2bc5014c7a4dec0457fe5",
          "blockNumber": "0x66d8a9",
          "gasUsed": "0x836d",
          "effectiveGasPrice": "0x3feaa2cf6",
          "from": "0x8454d149beb26e3e3fc5ed1c87fb0b2a1b7b6c2c",
          "to": "0xfc7c48f3c9d53a35dd25d9187b75da1af6c9b9f5",
          "contractAddress": null
        },
        {
          "status": "0x1",
          "cumulativeGasUsed": "0x121e3f3",
          "logs": [],
          "logsBloom": "0x00000000000000000000000000000000000000000000000000000000000000000000000000000000000000000000000000000000000000000000000000000000000000000000000000000000000000000000000000000000000000000000000000000000000000000000000000000000000000000000000000000000000000000000000000000000000000000000000000000000000000000000000000000000000000000000000000000000000000000000000000000000000000000000000000000000000000000000000000000000000000000000000000000000000000000000000000000000000000000000000000000000000000000000000000000000",
          "type": "0x2",
          "transactionHash": "0xfb659e30949e5162811e842ee6d46d1bb2d0778821e38cf80642a5621d4b6340",
          "transactionIndex": "0x84",
          "blockHash": "0xa7f5c1e5d95def4b93e4ef208c5d8bfc653fcd9ec5d2bc5014c7a4dec0457fe5",
          "blockNumber": "0x66d8a9",
          "gasUsed": "0x836d",
          "effectiveGasPrice": "0x3feaa2cf6",
          "from": "0x8454d149beb26e3e3fc5ed1c87fb0b2a1b7b6c2c",
          "to": "0xfc7c48f3c9d53a35dd25d9187b75da1af6c9b9f5",
          "contractAddress": null
        },
        {
          "status": "0x1",
          "cumulativeGasUsed": "0x12267b9",
          "logs": [],
          "logsBloom": "0x00000000000000000000000000000000000000000000000000000000000000000000000000000000000000000000000000000000000000000000000000000000000000000000000000000000000000000000000000000000000000000000000000000000000000000000000000000000000000000000000000000000000000000000000000000000000000000000000000000000000000000000000000000000000000000000000000000000000000000000000000000000000000000000000000000000000000000000000000000000000000000000000000000000000000000000000000000000000000000000000000000000000000000000000000000000",
          "type": "0x2",
          "transactionHash": "0x7b374eb87077daf77b0d3d866adbb9f6661aaa9e74dda7485fa4a4e6d1e3d2c5",
          "transactionIndex": "0x85",
          "blockHash": "0xa7f5c1e5d95def4b93e4ef208c5d8bfc653fcd9ec5d2bc5014c7a4dec0457fe5",
          "blockNumber": "0x66d8a9",
          "gasUsed": "0x83c6",
          "effectiveGasPrice": "0x3feaa2cf6",
          "from": "0x8454d149beb26e3e3fc5ed1c87fb0b2a1b7b6c2c",
          "to": "0xfc7c48f3c9d53a35dd25d9187b75da1af6c9b9f5",
          "contractAddress": null
        },
        {
          "status": "0x1",
          "cumulativeGasUsed": "0x1234641",
          "logs": [
            {
              "address": "0xcb15e6a1effc7ec5a1ba68136bfd62d560228f03",
              "topics": [
                "0xed4c89b805f4efb58bc4a42b9a3c6f09783f619295a1fa41ab46d6190c8c7f3b",
                "0xd8a85b4800000000000000000000000000000000000000000000000000000000",
                "0x00000000000000000000000000000000000000000000000000000000000445c0"
              ],
              "data": "0x",
              "blockHash": "0xa7f5c1e5d95def4b93e4ef208c5d8bfc653fcd9ec5d2bc5014c7a4dec0457fe5",
              "blockNumber": "0x66d8a9",
              "transactionHash": "0x1a86dd4576b6f361c4301ed63814f4ab420bf280e18c6d08f07076a752f8066e",
              "transactionIndex": "0x86",
              "logIndex": "0x8b",
              "removed": false
            }
          ],
          "logsBloom": "0x00000000000000000040000000000000000000000800000000000000000000000001000000000000000000000000000000000000000000000000000000000000000000000000000000000000000000000000000000000000000000000000000000000000000000000000000000000000800000000000040000000000000000000100000000000000000000001000000000000000000000100000000000000000000000000000000000010000000000000000000000000000000000000000000000000000000000000000000000000000000000000000000000000040000000000000000000000000000000000000000000002000000000000000000000000000",
          "type": "0x2",
          "transactionHash": "0x1a86dd4576b6f361c4301ed63814f4ab420bf280e18c6d08f07076a752f8066e",
          "transactionIndex": "0x86",
          "blockHash": "0xa7f5c1e5d95def4b93e4ef208c5d8bfc653fcd9ec5d2bc5014c7a4dec0457fe5",
          "blockNumber": "0x66d8a9",
          "gasUsed": "0xde88",
          "effectiveGasPrice": "0x3feaa2cf6",
          "from": "0x8454d149beb26e3e3fc5ed1c87fb0b2a1b7b6c2c",
          "to": "0xcb15e6a1effc7ec5a1ba68136bfd62d560228f03",
          "contractAddress": null
        },
        {
          "status": "0x1",
          "cumulativeGasUsed": "0x123be71",
          "logs": [],
          "logsBloom": "0x00000000000000000000000000000000000000000000000000000000000000000000000000000000000000000000000000000000000000000000000000000000000000000000000000000000000000000000000000000000000000000000000000000000000000000000000000000000000000000000000000000000000000000000000000000000000000000000000000000000000000000000000000000000000000000000000000000000000000000000000000000000000000000000000000000000000000000000000000000000000000000000000000000000000000000000000000000000000000000000000000000000000000000000000000000000",
          "type": "0x2",
          "transactionHash": "0x99001bed39d50e0f1363da43fcae737f2592d67f891351f64f3c7cff8b93eb58",
          "transactionIndex": "0x87",
          "blockHash": "0xa7f5c1e5d95def4b93e4ef208c5d8bfc653fcd9ec5d2bc5014c7a4dec0457fe5",
          "blockNumber": "0x66d8a9",
          "gasUsed": "0x7830",
          "effectiveGasPrice": "0x3feaa2cf6",
          "from": "0x8454d149beb26e3e3fc5ed1c87fb0b2a1b7b6c2c",
          "to": "0x13d8661e00a94227eabf9771dc6802879eb26626",
          "contractAddress": null
        }
      ],
      "libraries": [],
      "pending": [],
      "returns": {},
      "timestamp": 1727022814,
      "chain": 11155111,
      "commit": "7dc3026"
    }
  ],
  "timestamp": 1727022841
}