{
  "deployments": [
    {
      "transactions": [
        {
          "hash": "0x7fb98bcfc3d7481f74cfbb131cdc0e1a22c1006a78fbd6914d068af8c959e248",
          "transactionType": "CALL",
          "contractName": null,
          "contractAddress": "0x4d480cfc32d7b72ccab92f2bf309995d3c260437",
          "function": "allowlistSourceChain(uint64,bool)",
          "arguments": [
            "10344971235874465080",
            "true"
          ],
          "transaction": {
            "from": "0x8454d149beb26e3e3fc5ed1c87fb0b2a1b7b6c2c",
            "to": "0x4d480cfc32d7b72ccab92f2bf309995d3c260437",
            "gas": "0xc047",
            "value": "0x0",
            "input": "0xdb04fa490000000000000000000000000000000000000000000000008f90b8876dee65380000000000000000000000000000000000000000000000000000000000000001",
            "nonce": "0xcb",
            "chainId": "0x14a34"
          },
          "additionalContracts": [],
          "isFixedGasLimit": false
        },
        {
          "hash": "0xfb80aeebe61c10efab9353ef5926008c6f2931a471d9886686d6ab8cd9ef6978",
          "transactionType": "CALL",
          "contractName": null,
          "contractAddress": "0x4d480cfc32d7b72ccab92f2bf309995d3c260437",
          "function": "allowlistSender(address,bool)",
          "arguments": [
            "0x4C854B17250582413783b96E020e5606a561eDdC",
            "true"
          ],
          "transaction": {
            "from": "0x8454d149beb26e3e3fc5ed1c87fb0b2a1b7b6c2c",
            "to": "0x4d480cfc32d7b72ccab92f2bf309995d3c260437",
            "gas": "0xb692",
            "value": "0x0",
            "input": "0xeab5b02c0000000000000000000000004c854b17250582413783b96e020e5606a561eddc0000000000000000000000000000000000000000000000000000000000000001",
            "nonce": "0xcc",
            "chainId": "0x14a34"
          },
          "additionalContracts": [],
          "isFixedGasLimit": false
        },
        {
          "hash": "0x7a085fded0f8658974d11a02b4a4ba7bed83285b9a1f802f43a9a48d91fd7075",
          "transactionType": "CALL",
          "contractName": null,
          "contractAddress": "0x88a2d74f47a237a62e7a51cdda67270ce381555e",
          "function": "drip(address)",
          "arguments": [
            "0x8454d149Beb26E3E3FC5eD1C87Fb0B2a1b7B6c2c"
          ],
          "transaction": {
            "from": "0x8454d149beb26e3e3fc5ed1c87fb0b2a1b7b6c2c",
            "to": "0x88a2d74f47a237a62e7a51cdda67270ce381555e",
            "gas": "0xb69c",
            "value": "0x0",
            "input": "0x67a5cd060000000000000000000000008454d149beb26e3e3fc5ed1c87fb0b2a1b7b6c2c",
            "nonce": "0xcd",
            "chainId": "0x14a34"
          },
          "additionalContracts": [],
          "isFixedGasLimit": false
        }
      ],
      "receipts": [
        {
          "status": "0x1",
          "cumulativeGasUsed": "0x12e7ab",
          "logs": [],
          "logsBloom": "0x00000000000000000000000000000000000000000000000000000000000000000000000000000000000000000000000000000000000000000000000000000000000000000000000000000000000000000000000000000000000000000000000000000000000000000000000000000000000000000000000000000000000000000000000000000000000000000000000000000000000000000000000000000000000000000000000000000000000000000000000000000000000000000000000000000000000000000000000000000000000000000000000000000000000000000000000000000000000000000000000000000000000000000000000000000000",
          "type": "0x2",
          "transactionHash": "0x7fb98bcfc3d7481f74cfbb131cdc0e1a22c1006a78fbd6914d068af8c959e248",
          "transactionIndex": "0x7",
          "blockHash": "0x1c84311ebf2257e52adbc652e0662a1173961b5467608e2614adbd831f966c6a",
          "blockNumber": "0xd99d2f",
          "gasUsed": "0x8379",
          "effectiveGasPrice": "0x9d74bb",
          "from": "0x8454d149beb26e3e3fc5ed1c87fb0b2a1b7b6c2c",
          "to": "0x4d480cfc32d7b72ccab92f2bf309995d3c260437",
          "contractAddress": null,
          "l1BaseFeeScalar": "0x44d",
          "l1BlobBaseFee": "0xa40af3e",
          "l1BlobBaseFeeScalar": "0xa118b",
          "l1Fee": "0x2a588bae1",
          "l1GasPrice": "0x92d4d6",
          "l1GasUsed": "0x640"
        },
        {
          "status": "0x1",
          "cumulativeGasUsed": "0x136bda",
          "logs": [],
          "logsBloom": "0x00000000000000000000000000000000000000000000000000000000000000000000000000000000000000000000000000000000000000000000000000000000000000000000000000000000000000000000000000000000000000000000000000000000000000000000000000000000000000000000000000000000000000000000000000000000000000000000000000000000000000000000000000000000000000000000000000000000000000000000000000000000000000000000000000000000000000000000000000000000000000000000000000000000000000000000000000000000000000000000000000000000000000000000000000000000",
          "type": "0x2",
          "transactionHash": "0xfb80aeebe61c10efab9353ef5926008c6f2931a471d9886686d6ab8cd9ef6978",
          "transactionIndex": "0x8",
          "blockHash": "0x1c84311ebf2257e52adbc652e0662a1173961b5467608e2614adbd831f966c6a",
          "blockNumber": "0xd99d2f",
          "gasUsed": "0x842f",
          "effectiveGasPrice": "0x9d74bb",
          "from": "0x8454d149beb26e3e3fc5ed1c87fb0b2a1b7b6c2c",
          "to": "0x4d480cfc32d7b72ccab92f2bf309995d3c260437",
          "contractAddress": null,
          "l1BaseFeeScalar": "0x44d",
          "l1BlobBaseFee": "0xa40af3e",
          "l1BlobBaseFeeScalar": "0xa118b",
          "l1Fee": "0x2a588bae1",
          "l1GasPrice": "0x92d4d6",
          "l1GasUsed": "0x640"
        },
        {
          "status": "0x1",
          "cumulativeGasUsed": "0x13f00f",
          "logs": [
            {
              "address": "0x88a2d74f47a237a62e7a51cdda67270ce381555e",
              "topics": [
                "0xddf252ad1be2c89b69c2b068fc378daa952ba7f163c4a11628f55a4df523b3ef",
                "0x0000000000000000000000000000000000000000000000000000000000000000",
                "0x0000000000000000000000008454d149beb26e3e3fc5ed1c87fb0b2a1b7b6c2c"
              ],
              "data": "0x0000000000000000000000000000000000000000000000000de0b6b3a7640000",
              "blockHash": "0x1c84311ebf2257e52adbc652e0662a1173961b5467608e2614adbd831f966c6a",
              "blockNumber": "0xd99d2f",
              "transactionHash": "0x7a085fded0f8658974d11a02b4a4ba7bed83285b9a1f802f43a9a48d91fd7075",
              "transactionIndex": "0x9",
              "logIndex": "0x1d",
              "removed": false
            }
          ],
          "logsBloom": "0x00000000000000000000000000000000000000000000000000000000000800000000000000000000000000000000000000000000000000000000000000000000000000000000000000000008000000000000000000000000000000000000000000000000020000080000000000000800000000000000000000000010000000000000000000000000000000000000000000000000000000000000000000000000080000000000000000000000000000000000000000000000000000000000000000000002000000000000000000000000080000000000000000000000000a20000000000000000000000000000000000000000000000000000000000000000000",
          "type": "0x2",
          "transactionHash": "0x7a085fded0f8658974d11a02b4a4ba7bed83285b9a1f802f43a9a48d91fd7075",
          "transactionIndex": "0x9",
          "blockHash": "0x1c84311ebf2257e52adbc652e0662a1173961b5467608e2614adbd831f966c6a",
          "blockNumber": "0xd99d2f",
          "gasUsed": "0x8435",
          "effectiveGasPrice": "0x9d74bb",
          "from": "0x8454d149beb26e3e3fc5ed1c87fb0b2a1b7b6c2c",
          "to": "0x88a2d74f47a237a62e7a51cdda67270ce381555e",
          "contractAddress": null,
          "l1BaseFeeScalar": "0x44d",
          "l1BlobBaseFee": "0xa40af3e",
          "l1BlobBaseFeeScalar": "0xa118b",
          "l1Fee": "0x2a588bae1",
          "l1GasPrice": "0x92d4d6",
          "l1GasUsed": "0x640"
        }
      ],
      "libraries": [],
      "pending": [],
      "returns": {},
      "timestamp": 1724291387,
      "chain": 84532,
      "commit": "5848fa2"
    },
    {
      "transactions": [
        {
          "hash": "0xd5adb94793782203cef8130220ec037cd708c77f08b9c0a66b27a921bc294c6a",
          "transactionType": "CALL",
          "contractName": null,
          "contractAddress": "0x4c854b17250582413783b96e020e5606a561eddc",
          "function": "allowlistSender(address,bool)",
          "arguments": [
            "0x8454d149Beb26E3E3FC5eD1C87Fb0B2a1b7B6c2c",
            "true"
          ],
          "transaction": {
            "from": "0x8454d149beb26e3e3fc5ed1c87fb0b2a1b7b6c2c",
            "to": "0x4c854b17250582413783b96e020e5606a561eddc",
            "gas": "0xb6b2",
            "value": "0x0",
            "input": "0xeab5b02c0000000000000000000000008454d149beb26e3e3fc5ed1c87fb0b2a1b7b6c2c0000000000000000000000000000000000000000000000000000000000000001",
            "nonce": "0x239",
            "chainId": "0xaa36a7"
          },
          "additionalContracts": [],
          "isFixedGasLimit": false
        },
        {
          "hash": "0x074588f231bb7f1b77afbc6ab0b014a27c1b545104bb93b9635b0fc4092d9c9f",
          "transactionType": "CALL",
          "contractName": null,
          "contractAddress": "0xfd57b4ddbf88a4e07ff4e34c487b99af2fe82a05",
          "function": "drip(address)",
          "arguments": [
            "0x4C854B17250582413783b96E020e5606a561eDdC"
          ],
          "transaction": {
            "from": "0x8454d149beb26e3e3fc5ed1c87fb0b2a1b7b6c2c",
            "to": "0xfd57b4ddbf88a4e07ff4e34c487b99af2fe82a05",
            "gas": "0xb69c",
            "value": "0x0",
            "input": "0x67a5cd060000000000000000000000004c854b17250582413783b96e020e5606a561eddc",
            "nonce": "0x23a",
            "chainId": "0xaa36a7"
          },
          "additionalContracts": [],
          "isFixedGasLimit": false
        }
      ],
      "receipts": [
        {
          "status": "0x1",
          "cumulativeGasUsed": "0x58d523",
          "logs": [],
          "logsBloom": "0x00000000000000000000000000000000000000000000000000000000000000000000000000000000000000000000000000000000000000000000000000000000000000000000000000000000000000000000000000000000000000000000000000000000000000000000000000000000000000000000000000000000000000000000000000000000000000000000000000000000000000000000000000000000000000000000000000000000000000000000000000000000000000000000000000000000000000000000000000000000000000000000000000000000000000000000000000000000000000000000000000000000000000000000000000000000",
          "type": "0x2",
          "transactionHash": "0xd5adb94793782203cef8130220ec037cd708c77f08b9c0a66b27a921bc294c6a",
          "transactionIndex": "0x31",
          "blockHash": "0x35705c37124f050caea919d3508a128fb406c81cc817120341edc34278b7cc56",
          "blockNumber": "0x63e4fb",
          "gasUsed": "0x8445",
          "effectiveGasPrice": "0x38e7968",
          "from": "0x8454d149beb26e3e3fc5ed1c87fb0b2a1b7b6c2c",
          "to": "0x4c854b17250582413783b96e020e5606a561eddc",
          "contractAddress": null
        },
        {
          "status": "0x1",
          "cumulativeGasUsed": "0x595958",
          "logs": [
            {
              "address": "0xfd57b4ddbf88a4e07ff4e34c487b99af2fe82a05",
              "topics": [
                "0xddf252ad1be2c89b69c2b068fc378daa952ba7f163c4a11628f55a4df523b3ef",
                "0x0000000000000000000000000000000000000000000000000000000000000000",
                "0x0000000000000000000000004c854b17250582413783b96e020e5606a561eddc"
              ],
              "data": "0x0000000000000000000000000000000000000000000000000de0b6b3a7640000",
              "blockHash": "0x35705c37124f050caea919d3508a128fb406c81cc817120341edc34278b7cc56",
              "blockNumber": "0x63e4fb",
              "transactionHash": "0x074588f231bb7f1b77afbc6ab0b014a27c1b545104bb93b9635b0fc4092d9c9f",
              "transactionIndex": "0x32",
              "logIndex": "0x3a",
              "removed": false
            }
          ],
          "logsBloom": "0x00000002000000000000000000000000000000000000000000000000000000008000000000000000000100000000000000000000000000000000000000000000000000000000000000000008000000000000000000000000000000000000000000000000020000000000000000000800000000000000000000000010000000000000000000000000000000000000000000000000000000000000000000000000000000000000000040000000000000080000000000000000000000000000000000000002000000000000000000000000000000000000000000000000000020000000000000400000000000000000000000000000000000000000000000000000",
          "type": "0x2",
          "transactionHash": "0x074588f231bb7f1b77afbc6ab0b014a27c1b545104bb93b9635b0fc4092d9c9f",
          "transactionIndex": "0x32",
          "blockHash": "0x35705c37124f050caea919d3508a128fb406c81cc817120341edc34278b7cc56",
          "blockNumber": "0x63e4fb",
          "gasUsed": "0x8435",
          "effectiveGasPrice": "0x38e7968",
          "from": "0x8454d149beb26e3e3fc5ed1c87fb0b2a1b7b6c2c",
          "to": "0xfd57b4ddbf88a4e07ff4e34c487b99af2fe82a05",
          "contractAddress": null
        }
      ],
      "libraries": [],
      "pending": [],
      "returns": {},
      "timestamp": 1724291388,
      "chain": 11155111,
      "commit": "5848fa2"
    }
  ],
  "timestamp": 1724291404
}