{
  "deployments": [
    {
      "transactions": [
        {
          "hash": "0xb90423353bab09a42b155a3636ba57b236c2bbb8f5bed4e2776699caf460e347",
          "transactionType": "CALL",
          "contractName": null,
          "contractAddress": "0x490442583f78b4d77a8261af6ed06f8cece0cf1b",
          "function": "allowlistSourceChain(uint64,bool)",
          "arguments": [
            "10344971235874465080",
            "true"
          ],
          "transaction": {
            "from": "0x8454d149beb26e3e3fc5ed1c87fb0b2a1b7b6c2c",
            "to": "0x490442583f78b4d77a8261af6ed06f8cece0cf1b",
            "gas": "0x120d8",
            "value": "0x0",
            "input": "0xdb04fa490000000000000000000000000000000000000000000000008f90b8876dee65380000000000000000000000000000000000000000000000000000000000000001",
            "nonce": "0xf5",
            "chainId": "0x14a34"
          },
          "additionalContracts": [],
          "isFixedGasLimit": false
        },
        {
          "hash": "0xabd5a91056cacc6db9b002486e228acccf6a1985d0591d2f3396b59e772c9625",
          "transactionType": "CALL",
          "contractName": null,
          "contractAddress": "0x490442583f78b4d77a8261af6ed06f8cece0cf1b",
          "function": "allowlistSender(address,bool)",
          "arguments": [
            "0xAd13004634204bFC2E8c7611D604de72027B4C68",
            "true"
          ],
          "transaction": {
            "from": "0x8454d149beb26e3e3fc5ed1c87fb0b2a1b7b6c2c",
            "to": "0x490442583f78b4d77a8261af6ed06f8cece0cf1b",
            "gas": "0x132cf",
            "value": "0x0",
            "input": "0xeab5b02c000000000000000000000000ad13004634204bfc2e8c7611d604de72027b4c680000000000000000000000000000000000000000000000000000000000000001",
            "nonce": "0xf6",
            "chainId": "0x14a34"
          },
          "additionalContracts": [],
          "isFixedGasLimit": false
        },
        {
          "hash": "0x93c0dcfd7920a2c3521c5896b8493d870778213d9b5df8fc699f4f63f4daf222",
          "transactionType": "CALL",
          "contractName": null,
          "contractAddress": "0x88a2d74f47a237a62e7a51cdda67270ce381555e",
          "function": "drip(address)",
          "arguments": [
            "0x8454d149Beb26E3E3FC5eD1C87Fb0B2a1b7B6c2c"
          ],
          "transaction": {
            "from": "0x8454d149beb26e3e3fc5ed1c87fb0b2a1b7b6c2c",
            "to": "0x88a2d74f47a237a62e7a51cdda67270ce381555e",
            "gas": "0xb69c",
            "value": "0x0",
            "input": "0x67a5cd060000000000000000000000008454d149beb26e3e3fc5ed1c87fb0b2a1b7b6c2c",
            "nonce": "0xf7",
            "chainId": "0x14a34"
          },
          "additionalContracts": [],
          "isFixedGasLimit": false
        }
      ],
      "receipts": [
        {
          "status": "0x1",
          "cumulativeGasUsed": "0x2e35be",
          "logs": [],
          "logsBloom": "0x00000000000000000000000000000000000000000000000000000000000000000000000000000000000000000000000000000000000000000000000000000000000000000000000000000000000000000000000000000000000000000000000000000000000000000000000000000000000000000000000000000000000000000000000000000000000000000000000000000000000000000000000000000000000000000000000000000000000000000000000000000000000000000000000000000000000000000000000000000000000000000000000000000000000000000000000000000000000000000000000000000000000000000000000000000000",
          "type": "0x2",
          "transactionHash": "0xb90423353bab09a42b155a3636ba57b236c2bbb8f5bed4e2776699caf460e347",
          "transactionIndex": "0x7",
          "blockHash": "0xf967371f7d833ab21ce3ceb1e4a8783e6fdb54be991889c50a86fe78ebee935d",
          "blockNumber": "0xdc8646",
          "gasUsed": "0xd11f",
          "effectiveGasPrice": "0xf442a",
          "from": "0x8454d149beb26e3e3fc5ed1c87fb0b2a1b7b6c2c",
          "to": "0x490442583f78b4d77a8261af6ed06f8cece0cf1b",
          "contractAddress": null,
          "l1BaseFeeScalar": "0x44d",
          "l1BlobBaseFee": "0x2d2778da6c",
          "l1BlobBaseFeeScalar": "0xa118b",
          "l1Fee": "0xba9fcfc2ef1",
          "l1GasPrice": "0x3ae5c818a",
          "l1GasUsed": "0x640"
        },
        {
          "status": "0x1",
          "cumulativeGasUsed": "0x2f0787",
          "logs": [],
          "logsBloom": "0x00000000000000000000000000000000000000000000000000000000000000000000000000000000000000000000000000000000000000000000000000000000000000000000000000000000000000000000000000000000000000000000000000000000000000000000000000000000000000000000000000000000000000000000000000000000000000000000000000000000000000000000000000000000000000000000000000000000000000000000000000000000000000000000000000000000000000000000000000000000000000000000000000000000000000000000000000000000000000000000000000000000000000000000000000000000",
          "type": "0x2",
          "transactionHash": "0xabd5a91056cacc6db9b002486e228acccf6a1985d0591d2f3396b59e772c9625",
          "transactionIndex": "0x8",
          "blockHash": "0xf967371f7d833ab21ce3ceb1e4a8783e6fdb54be991889c50a86fe78ebee935d",
          "blockNumber": "0xdc8646",
          "gasUsed": "0xd1c9",
          "effectiveGasPrice": "0xf442a",
          "from": "0x8454d149beb26e3e3fc5ed1c87fb0b2a1b7b6c2c",
          "to": "0x490442583f78b4d77a8261af6ed06f8cece0cf1b",
          "contractAddress": null,
          "l1BaseFeeScalar": "0x44d",
          "l1BlobBaseFee": "0x2d2778da6c",
          "l1BlobBaseFeeScalar": "0xa118b",
          "l1Fee": "0xba9fcfc2ef1",
          "l1GasPrice": "0x3ae5c818a",
          "l1GasUsed": "0x640"
        },
        {
          "status": "0x1",
          "cumulativeGasUsed": "0x2f8bbc",
          "logs": [
            {
              "address": "0x88a2d74f47a237a62e7a51cdda67270ce381555e",
              "topics": [
                "0xddf252ad1be2c89b69c2b068fc378daa952ba7f163c4a11628f55a4df523b3ef",
                "0x0000000000000000000000000000000000000000000000000000000000000000",
                "0x0000000000000000000000008454d149beb26e3e3fc5ed1c87fb0b2a1b7b6c2c"
              ],
              "data": "0x0000000000000000000000000000000000000000000000000de0b6b3a7640000",
              "blockHash": "0xf967371f7d833ab21ce3ceb1e4a8783e6fdb54be991889c50a86fe78ebee935d",
              "blockNumber": "0xdc8646",
              "transactionHash": "0x93c0dcfd7920a2c3521c5896b8493d870778213d9b5df8fc699f4f63f4daf222",
              "transactionIndex": "0x9",
              "logIndex": "0x39",
              "removed": false
            }
          ],
          "logsBloom": "0x00000000000000000000000000000000000000000000000000000000000800000000000000000000000000000000000000000000000000000000000000000000000000000000000000000008000000000000000000000000000000000000000000000000020000080000000000000800000000000000000000000010000000000000000000000000000000000000000000000000000000000000000000000000080000000000000000000000000000000000000000000000000000000000000000000002000000000000000000000000080000000000000000000000000a20000000000000000000000000000000000000000000000000000000000000000000",
          "type": "0x2",
          "transactionHash": "0x93c0dcfd7920a2c3521c5896b8493d870778213d9b5df8fc699f4f63f4daf222",
          "transactionIndex": "0x9",
          "blockHash": "0xf967371f7d833ab21ce3ceb1e4a8783e6fdb54be991889c50a86fe78ebee935d",
          "blockNumber": "0xdc8646",
          "gasUsed": "0x8435",
          "effectiveGasPrice": "0xf442a",
          "from": "0x8454d149beb26e3e3fc5ed1c87fb0b2a1b7b6c2c",
          "to": "0x88a2d74f47a237a62e7a51cdda67270ce381555e",
          "contractAddress": null,
          "l1BaseFeeScalar": "0x44d",
          "l1BlobBaseFee": "0x2d2778da6c",
          "l1BlobBaseFeeScalar": "0xa118b",
          "l1Fee": "0xba9fcfc2ef1",
          "l1GasPrice": "0x3ae5c818a",
          "l1GasUsed": "0x640"
        }
      ],
      "libraries": [],
      "pending": [],
      "returns": {},
      "timestamp": 1724672873,
      "chain": 84532,
      "commit": "e36e2d7"
    },
    {
      "transactions": [
        {
          "hash": "0xae6fbffbb77a00b2832f9bc41f106ad4b28ff5a7a7b46d7d01eb1ac6e25cb3c9",
          "transactionType": "CALL",
          "contractName": null,
          "contractAddress": "0xad13004634204bfc2e8c7611d604de72027b4c68",
          "function": "allowlistSender(address,bool)",
          "arguments": [
            "0x8454d149Beb26E3E3FC5eD1C87Fb0B2a1b7B6c2c",
            "true"
          ],
          "transaction": {
            "from": "0x8454d149beb26e3e3fc5ed1c87fb0b2a1b7b6c2c",
            "to": "0xad13004634204bfc2e8c7611d604de72027b4c68",
            "gas": "0x13300",
            "value": "0x0",
            "input": "0xeab5b02c0000000000000000000000008454d149beb26e3e3fc5ed1c87fb0b2a1b7b6c2c0000000000000000000000000000000000000000000000000000000000000001",
            "nonce": "0x277",
            "chainId": "0xaa36a7"
          },
          "additionalContracts": [],
          "isFixedGasLimit": false
        },
        {
          "hash": "0x37f6521a448335e12e64ffb26e4205057b08b900ec0edf54730aa240c4cb57ee",
          "transactionType": "CALL",
          "contractName": null,
          "contractAddress": "0xfd57b4ddbf88a4e07ff4e34c487b99af2fe82a05",
          "function": "drip(address)",
          "arguments": [
            "0xAd13004634204bFC2E8c7611D604de72027B4C68"
          ],
          "transaction": {
            "from": "0x8454d149beb26e3e3fc5ed1c87fb0b2a1b7b6c2c",
            "to": "0xfd57b4ddbf88a4e07ff4e34c487b99af2fe82a05",
            "gas": "0x112ce",
            "value": "0x0",
            "input": "0x67a5cd06000000000000000000000000ad13004634204bfc2e8c7611d604de72027b4c68",
            "nonce": "0x278",
            "chainId": "0xaa36a7"
          },
          "additionalContracts": [],
          "isFixedGasLimit": false
        }
      ],
      "receipts": [
        {
          "status": "0x1",
          "cumulativeGasUsed": "0x548caa",
          "logs": [],
          "logsBloom": "0x00000000000000000000000000000000000000000000000000000000000000000000000000000000000000000000000000000000000000000000000000000000000000000000000000000000000000000000000000000000000000000000000000000000000000000000000000000000000000000000000000000000000000000000000000000000000000000000000000000000000000000000000000000000000000000000000000000000000000000000000000000000000000000000000000000000000000000000000000000000000000000000000000000000000000000000000000000000000000000000000000000000000000000000000000000000",
          "type": "0x2",
          "transactionHash": "0xae6fbffbb77a00b2832f9bc41f106ad4b28ff5a7a7b46d7d01eb1ac6e25cb3c9",
          "transactionIndex": "0x33",
          "blockHash": "0x27d5e3d70c968a3f40d2c3ecda9d4d5554c1d1c9d92b08ee87751ce6c5fcf589",
          "blockNumber": "0x645259",
          "gasUsed": "0xd1eb",
          "effectiveGasPrice": "0x3069cad7e",
          "from": "0x8454d149beb26e3e3fc5ed1c87fb0b2a1b7b6c2c",
          "to": "0xad13004634204bfc2e8c7611d604de72027b4c68",
          "contractAddress": null
        },
        {
          "status": "0x1",
          "cumulativeGasUsed": "0x6c72df",
          "logs": [
            {
              "address": "0xfd57b4ddbf88a4e07ff4e34c487b99af2fe82a05",
              "topics": [
                "0xddf252ad1be2c89b69c2b068fc378daa952ba7f163c4a11628f55a4df523b3ef",
                "0x0000000000000000000000000000000000000000000000000000000000000000",
                "0x000000000000000000000000ad13004634204bfc2e8c7611d604de72027b4c68"
              ],
              "data": "0x0000000000000000000000000000000000000000000000000de0b6b3a7640000",
              "blockHash": "0x27d5e3d70c968a3f40d2c3ecda9d4d5554c1d1c9d92b08ee87751ce6c5fcf589",
              "blockNumber": "0x645259",
              "transactionHash": "0x37f6521a448335e12e64ffb26e4205057b08b900ec0edf54730aa240c4cb57ee",
              "transactionIndex": "0x38",
              "logIndex": "0x5d",
              "removed": false
            }
          ],
          "logsBloom": "0x00000002000000000000000000000000000000000000000000000000000000000000000000000000000000000000000000000000000000000004000000000000000000000000000000000008000000000000000000000000000000000000000000000000020000000000000000000800000000000000000000000010000000000000008000000000000000000000000000000000000000000000000000000000000000000000000040000000000000080000000000000000000000000000000000000002000000000000000000000000000000000000000000008000000020000000000000000000000000000000000000000000000000000000000000000000",
          "type": "0x2",
          "transactionHash": "0x37f6521a448335e12e64ffb26e4205057b08b900ec0edf54730aa240c4cb57ee",
          "transactionIndex": "0x38",
          "blockHash": "0x27d5e3d70c968a3f40d2c3ecda9d4d5554c1d1c9d92b08ee87751ce6c5fcf589",
          "blockNumber": "0x645259",
          "gasUsed": "0xc6f5",
          "effectiveGasPrice": "0x3069cad7e",
          "from": "0x8454d149beb26e3e3fc5ed1c87fb0b2a1b7b6c2c",
          "to": "0xfd57b4ddbf88a4e07ff4e34c487b99af2fe82a05",
          "contractAddress": null
        }
      ],
      "libraries": [],
      "pending": [],
      "returns": {},
      "timestamp": 1724672874,
      "chain": 11155111,
      "commit": "e36e2d7"
    }
  ],
  "timestamp": 1724672897
}