{
  "transactions": [
    {
      "hash": "0x48b641141ae3cec364e49a79b47bd7c73a8775eb74dca370cb1e6e54d3861e7f",
      "transactionType": "CALL",
      "contractName": null,
      "contractAddress": "0x88a2d74f47a237a62e7a51cdda67270ce381555e",
      "function": "drip(address)",
      "arguments": [
        "0x8454d149Beb26E3E3FC5eD1C87Fb0B2a1b7B6c2c"
      ],
      "transaction": {
        "from": "0x8454d149beb26e3e3fc5ed1c87fb0b2a1b7b6c2c",
        "to": "0x88a2d74f47a237a62e7a51cdda67270ce381555e",
        "gas": "0xb69c",
        "value": "0x0",
        "input": "0x67a5cd060000000000000000000000008454d149beb26e3e3fc5ed1c87fb0b2a1b7b6c2c",
        "nonce": "0x260",
        "chainId": "0x14a34"
      },
      "additionalContracts": [],
      "isFixedGasLimit": false
    },
    {
      "hash": "0xc4f6f7fde09306e304b1111557c48bb366a8b5647e9878c73e0a121d997001b9",
      "transactionType": "CALL",
      "contractName": null,
      "contractAddress": "0x1d52bc3415aae68806e3fd44d4cdb0b63e68068a",
      "function": null,
      "arguments": null,
      "transaction": {
        "from": "0x8454d149beb26e3e3fc5ed1c87fb0b2a1b7b6c2c",
        "to": "0x1d52bc3415aae68806e3fd44d4cdb0b63e68068a",
        "gas": "0xa140",
        "value": "0x214e8348c4f0000",
        "input": "0x",
        "nonce": "0x261",
        "chainId": "0x14a34"
      },
      "additionalContracts": [],
      "isFixedGasLimit": false
    },
    {
      "hash": "0x15c0ce9d7b9a39b02754cbcb3211d8685344c9469a595fca70f8a4809b54df51",
      "transactionType": "CALL",
      "contractName": null,
      "contractAddress": "0x88a2d74f47a237a62e7a51cdda67270ce381555e",
      "function": "approve(address,uint256)",
      "arguments": [
        "0x1D52bC3415AAe68806E3Fd44D4cdb0b63E68068A",
        "3330000000000000"
      ],
      "transaction": {
        "from": "0x8454d149beb26e3e3fc5ed1c87fb0b2a1b7b6c2c",
        "to": "0x88a2d74f47a237a62e7a51cdda67270ce381555e",
        "gas": "0x8ea3",
        "value": "0x0",
        "input": "0x095ea7b30000000000000000000000001d52bc3415aae68806e3fd44d4cdb0b63e68068a000000000000000000000000000000000000000000000000000bd49e0b1a2000",
        "nonce": "0x262",
        "chainId": "0x14a34"
      },
      "additionalContracts": [],
      "isFixedGasLimit": false
    },
    {
      "hash": "0xb210ba3bcfdb149b5f5625a07205b7cefeea72e98b627076b1d6276be344f48b",
      "transactionType": "CALL",
      "contractName": "TransparentUpgradeableProxy",
      "contractAddress": "0x1d52bc3415aae68806e3fd44d4cdb0b63e68068a",
      "function": null,
      "arguments": null,
      "transaction": {
        "from": "0x8454d149beb26e3e3fc5ed1c87fb0b2a1b7b6c2c",
        "to": "0x1d52bc3415aae68806e3fd44d4cdb0b63e68068a",
        "gas": "0x630fd",
        "value": "0x0",
        "input": "0x1dd11dac000000000000000000000000000000000000000000000000de41ba4fc9d91ad90000000000000000000000008645c75d0c75b859146aebb74076b319c9331c4e00000000000000000000000000000000000000000000000000000000000000a000000000000000000000000088a2d74f47a237a62e7a51cdda67270ce381555e000000000000000000000000000000000000000000000000000bd49e0b1a200000000000000000000000000000000000000000000000000000000000000000e5e7a050aa000000000000000000000000ee33ddcfb85e06ac1fd0a4b36f9b6958d5a7d3f0000000000000000000000000fd57b4ddbf88a4e07ff4e34c487b99af2fe82a05000000000000000000000000000000000000000000000000000bd49e0b1a20000000000000000000000000008454d149beb26e3e3fc5ed1c87fb0b2a1b7b6c2c0000000000000000000000000000000000000000000000000000000066d5f6b6c92da636230e2f7fd5e74491e4eef6887e47fdf0acc50574a371be390ee32b03712e6ec68b597d23cc149ebc6e4d6d77fd79fe28bed01300bcf2d5982f1b3c7b1c000000000000000000000000000000000000000000000000000000",
        "nonce": "0x263",
        "chainId": "0x14a34"
      },
      "additionalContracts": [],
      "isFixedGasLimit": false
    }
  ],
  "receipts": [
    {
      "status": "0x1",
      "cumulativeGasUsed": "0xffee7",
      "logs": [
        {
          "address": "0x88a2d74f47a237a62e7a51cdda67270ce381555e",
          "topics": [
            "0xddf252ad1be2c89b69c2b068fc378daa952ba7f163c4a11628f55a4df523b3ef",
            "0x0000000000000000000000000000000000000000000000000000000000000000",
            "0x0000000000000000000000008454d149beb26e3e3fc5ed1c87fb0b2a1b7b6c2c"
          ],
          "data": "0x0000000000000000000000000000000000000000000000000de0b6b3a7640000",
          "blockHash": "0x49eaa96075231068f19ed707624253517883e22d2a9ee8e3612c128d83374fbb",
          "blockNumber": "0xe136e2",
          "transactionHash": "0x48b641141ae3cec364e49a79b47bd7c73a8775eb74dca370cb1e6e54d3861e7f",
          "transactionIndex": "0x7",
          "logIndex": "0xa",
          "removed": false
        }
      ],
      "logsBloom": "0x00000000000000000000000000000000000000000000000000000000000800000000000000000000000000000000000000000000000000000000000000000000000000000000000000000008000000000000000000000000000000000000000000000000020000080000000000000800000000000000000000000010000000000000000000000000000000000000000000000000000000000000000000000000080000000000000000000000000000000000000000000000000000000000000000000002000000000000000000000000080000000000000000000000000a20000000000000000000000000000000000000000000000000000000000000000000",
      "type": "0x2",
      "transactionHash": "0x48b641141ae3cec364e49a79b47bd7c73a8775eb74dca370cb1e6e54d3861e7f",
      "transactionIndex": "0x7",
      "blockHash": "0x49eaa96075231068f19ed707624253517883e22d2a9ee8e3612c128d83374fbb",
      "blockNumber": "0xe136e2",
      "gasUsed": "0x8435",
      "effectiveGasPrice": "0xece47",
      "from": "0x8454d149beb26e3e3fc5ed1c87fb0b2a1b7b6c2c",
      "to": "0x88a2d74f47a237a62e7a51cdda67270ce381555e",
      "contractAddress": null,
      "l1BaseFeeScalar": "0x44d",
      "l1BlobBaseFee": "0x515e8ba0ee",
      "l1BlobBaseFeeScalar": "0xa118b",
      "l1Fee": "0x15093555ee33",
      "l1GasPrice": "0x91bced225",
      "l1GasUsed": "0x640"
    },
    {
      "status": "0x1",
      "cumulativeGasUsed": "0x106d29",
      "logs": [],
      "logsBloom": "0x00000000000000000000000000000000000000000000000000000000000000000000000000000000000000000000000000000000000000000000000000000000000000000000000000000000000000000000000000000000000000000000000000000000000000000000000000000000000000000000000000000000000000000000000000000000000000000000000000000000000000000000000000000000000000000000000000000000000000000000000000000000000000000000000000000000000000000000000000000000000000000000000000000000000000000000000000000000000000000000000000000000000000000000000000000000",
      "type": "0x2",
      "transactionHash": "0xc4f6f7fde09306e304b1111557c48bb366a8b5647e9878c73e0a121d997001b9",
      "transactionIndex": "0x8",
      "blockHash": "0x49eaa96075231068f19ed707624253517883e22d2a9ee8e3612c128d83374fbb",
      "blockNumber": "0xe136e2",
      "gasUsed": "0x6e42",
      "effectiveGasPrice": "0xece47",
      "from": "0x8454d149beb26e3e3fc5ed1c87fb0b2a1b7b6c2c",
      "to": "0x1d52bc3415aae68806e3fd44d4cdb0b63e68068a",
      "contractAddress": null,
      "l1BaseFeeScalar": "0x44d",
      "l1BlobBaseFee": "0x515e8ba0ee",
      "l1BlobBaseFeeScalar": "0xa118b",
      "l1Fee": "0x15093555ee33",
      "l1GasPrice": "0x91bced225",
      "l1GasUsed": "0x640"
    },
    {
      "status": "0x1",
      "cumulativeGasUsed": "0x10d46e",
      "logs": [
        {
          "address": "0x88a2d74f47a237a62e7a51cdda67270ce381555e",
          "topics": [
            "0x8c5be1e5ebec7d5bd14f71427d1e84f3dd0314c0f7b2291e5b200ac8c7c3b925",
            "0x0000000000000000000000008454d149beb26e3e3fc5ed1c87fb0b2a1b7b6c2c",
            "0x0000000000000000000000001d52bc3415aae68806e3fd44d4cdb0b63e68068a"
          ],
          "data": "0x000000000000000000000000000000000000000000000000000bd49e0b1a2000",
          "blockHash": "0x49eaa96075231068f19ed707624253517883e22d2a9ee8e3612c128d83374fbb",
          "blockNumber": "0xe136e2",
          "transactionHash": "0x15c0ce9d7b9a39b02754cbcb3211d8685344c9469a595fca70f8a4809b54df51",
          "transactionIndex": "0x9",
          "logIndex": "0xb",
          "removed": false
        }
      ],
      "logsBloom": "0x000000000000000000000000000000000000000000000000000000000008000000000000000002000000000000000000000000000000000000000000002000000000000000000000000000000000000000000000000000000000000000000000000000000000200800000000000000000000000000000000000000000000000000000000000000000000000000000000000000000000000000000000000000000a0000000000000000000000000000000000000000000000000000000000000000000000000000000000000000000000080000000000000000000000000a00000010000000000000000004000000000000000000000000000000000000000000",
      "type": "0x2",
      "transactionHash": "0x15c0ce9d7b9a39b02754cbcb3211d8685344c9469a595fca70f8a4809b54df51",
      "transactionIndex": "0x9",
      "blockHash": "0x49eaa96075231068f19ed707624253517883e22d2a9ee8e3612c128d83374fbb",
      "blockNumber": "0xe136e2",
      "gasUsed": "0x6745",
      "effectiveGasPrice": "0xece47",
      "from": "0x8454d149beb26e3e3fc5ed1c87fb0b2a1b7b6c2c",
      "to": "0x88a2d74f47a237a62e7a51cdda67270ce381555e",
      "contractAddress": null,
      "l1BaseFeeScalar": "0x44d",
      "l1BlobBaseFee": "0x515e8ba0ee",
      "l1BlobBaseFeeScalar": "0xa118b",
      "l1Fee": "0x15093555ee33",
      "l1GasPrice": "0x91bced225",
      "l1GasUsed": "0x640"
    },
    {
      "status": "0x1",
      "cumulativeGasUsed": "0x15102f",
      "logs": [
        {
          "address": "0x1d52bc3415aae68806e3fd44d4cdb0b63e68068a",
          "topics": [
            "0xc60b10202cb9961c5a9ba33f02d2ecf891a6c52e6e33495cea5fbfe456104c63",
            "0xe7a050aa00000000000000000000000000000000000000000000000000000000"
          ],
          "data": "0x",
          "blockHash": "0x49eaa96075231068f19ed707624253517883e22d2a9ee8e3612c128d83374fbb",
          "blockNumber": "0xe136e2",
          "transactionHash": "0xb210ba3bcfdb149b5f5625a07205b7cefeea72e98b627076b1d6276be344f48b",
          "transactionIndex": "0xa",
          "logIndex": "0xc",
          "removed": false
        },
        {
          "address": "0x88a2d74f47a237a62e7a51cdda67270ce381555e",
          "topics": [
            "0x8c5be1e5ebec7d5bd14f71427d1e84f3dd0314c0f7b2291e5b200ac8c7c3b925",
            "0x0000000000000000000000001d52bc3415aae68806e3fd44d4cdb0b63e68068a",
            "0x000000000000000000000000d3b06cebf099ce7da4accf578aaebfdbd6e88a93"
          ],
          "data": "0x000000000000000000000000000000000000000000000000000bd49e0b1a2000",
          "blockHash": "0x49eaa96075231068f19ed707624253517883e22d2a9ee8e3612c128d83374fbb",
          "blockNumber": "0xe136e2",
          "transactionHash": "0xb210ba3bcfdb149b5f5625a07205b7cefeea72e98b627076b1d6276be344f48b",
          "transactionIndex": "0xa",
          "logIndex": "0xd",
          "removed": false
        },
        {
          "address": "0x4200000000000000000000000000000000000006",
          "topics": [
            "0xe1fffcc4923d04b559f4d29a8bfc6cda04eb5b0d3c460751c2402c5c5cc9109c",
            "0x000000000000000000000000d3b06cebf099ce7da4accf578aaebfdbd6e88a93"
          ],
          "data": "0x00000000000000000000000000000000000000000000000000dd5c1764000efb",
          "blockHash": "0x49eaa96075231068f19ed707624253517883e22d2a9ee8e3612c128d83374fbb",
          "blockNumber": "0xe136e2",
          "transactionHash": "0xb210ba3bcfdb149b5f5625a07205b7cefeea72e98b627076b1d6276be344f48b",
          "transactionIndex": "0xa",
          "logIndex": "0xe",
          "removed": false
        },
        {
          "address": "0x4200000000000000000000000000000000000006",
          "topics": [
            "0xddf252ad1be2c89b69c2b068fc378daa952ba7f163c4a11628f55a4df523b3ef",
            "0x000000000000000000000000d3b06cebf099ce7da4accf578aaebfdbd6e88a93",
            "0x0000000000000000000000006486906bb2d85a6c0ccef2a2831c11a2059ebfea"
          ],
          "data": "0x00000000000000000000000000000000000000000000000000dd5c1764000efb",
          "blockHash": "0x49eaa96075231068f19ed707624253517883e22d2a9ee8e3612c128d83374fbb",
          "blockNumber": "0xe136e2",
          "transactionHash": "0xb210ba3bcfdb149b5f5625a07205b7cefeea72e98b627076b1d6276be344f48b",
          "transactionIndex": "0xa",
          "logIndex": "0xf",
          "removed": false
        },
        {
          "address": "0x88a2d74f47a237a62e7a51cdda67270ce381555e",
          "topics": [
            "0x8c5be1e5ebec7d5bd14f71427d1e84f3dd0314c0f7b2291e5b200ac8c7c3b925",
            "0x0000000000000000000000001d52bc3415aae68806e3fd44d4cdb0b63e68068a",
            "0x000000000000000000000000d3b06cebf099ce7da4accf578aaebfdbd6e88a93"
          ],
          "data": "0x0000000000000000000000000000000000000000000000000000000000000000",
          "blockHash": "0x49eaa96075231068f19ed707624253517883e22d2a9ee8e3612c128d83374fbb",
          "blockNumber": "0xe136e2",
          "transactionHash": "0xb210ba3bcfdb149b5f5625a07205b7cefeea72e98b627076b1d6276be344f48b",
          "transactionIndex": "0xa",
          "logIndex": "0x10",
          "removed": false
        },
        {
          "address": "0x88a2d74f47a237a62e7a51cdda67270ce381555e",
          "topics": [
            "0xddf252ad1be2c89b69c2b068fc378daa952ba7f163c4a11628f55a4df523b3ef",
            "0x0000000000000000000000001d52bc3415aae68806e3fd44d4cdb0b63e68068a",
            "0x000000000000000000000000875207858c691f192c606068f417dcf666b2ec6b"
          ],
          "data": "0x000000000000000000000000000000000000000000000000000bd49e0b1a2000",
          "blockHash": "0x49eaa96075231068f19ed707624253517883e22d2a9ee8e3612c128d83374fbb",
          "blockNumber": "0xe136e2",
          "transactionHash": "0xb210ba3bcfdb149b5f5625a07205b7cefeea72e98b627076b1d6276be344f48b",
          "transactionIndex": "0xa",
          "logIndex": "0x11",
          "removed": false
        },
        {
          "address": "0x6486906bb2d85a6c0ccef2a2831c11a2059ebfea",
          "topics": [
            "0x1871cdf8010e63f2eb8384381a68dfa7416dc571a5517e66e88b2d2d0c0a690a"
          ],
          "data": "0x00000000000000000000000000000000000000000000000000000000000514c8",
          "blockHash": "0x49eaa96075231068f19ed707624253517883e22d2a9ee8e3612c128d83374fbb",
          "blockNumber": "0xe136e2",
          "transactionHash": "0xb210ba3bcfdb149b5f5625a07205b7cefeea72e98b627076b1d6276be344f48b",
          "transactionIndex": "0xa",
          "logIndex": "0x12",
          "removed": false
        },
        {
          "address": "0x875207858c691f192c606068f417dcf666b2ec6b",
          "topics": [
            "0x1871cdf8010e63f2eb8384381a68dfa7416dc571a5517e66e88b2d2d0c0a690a"
          ],
          "data": "0x000000000000000000000000000000000000000000000000000bd49e0b1a2000",
          "blockHash": "0x49eaa96075231068f19ed707624253517883e22d2a9ee8e3612c128d83374fbb",
          "blockNumber": "0xe136e2",
          "transactionHash": "0xb210ba3bcfdb149b5f5625a07205b7cefeea72e98b627076b1d6276be344f48b",
          "transactionIndex": "0xa",
          "logIndex": "0x13",
          "removed": false
        },
        {
          "address": "0x88a2d74f47a237a62e7a51cdda67270ce381555e",
          "topics": [
            "0xddf252ad1be2c89b69c2b068fc378daa952ba7f163c4a11628f55a4df523b3ef",
            "0x000000000000000000000000875207858c691f192c606068f417dcf666b2ec6b",
            "0x0000000000000000000000000000000000000000000000000000000000000000"
          ],
          "data": "0x000000000000000000000000000000000000000000000000000bd49e0b1a2000",
          "blockHash": "0x49eaa96075231068f19ed707624253517883e22d2a9ee8e3612c128d83374fbb",
          "blockNumber": "0xe136e2",
          "transactionHash": "0xb210ba3bcfdb149b5f5625a07205b7cefeea72e98b627076b1d6276be344f48b",
          "transactionIndex": "0xa",
          "logIndex": "0x14",
          "removed": false
        },
        {
          "address": "0x875207858c691f192c606068f417dcf666b2ec6b",
          "topics": [
            "0x696de425f79f4a40bc6d2122ca50507f0efbeabbff86a84871b7196ab8ea8df7",
            "0x0000000000000000000000006486906bb2d85a6c0ccef2a2831c11a2059ebfea"
          ],
          "data": "0x000000000000000000000000000000000000000000000000000bd49e0b1a2000",
          "blockHash": "0x49eaa96075231068f19ed707624253517883e22d2a9ee8e3612c128d83374fbb",
          "blockNumber": "0xe136e2",
          "transactionHash": "0xb210ba3bcfdb149b5f5625a07205b7cefeea72e98b627076b1d6276be344f48b",
          "transactionIndex": "0xa",
          "logIndex": "0x15",
          "removed": false
        },
        {
          "address": "0x6486906bb2d85a6c0ccef2a2831c11a2059ebfea",
          "topics": [
            "0xd0c3c799bf9e2639de44391e7f524d229b2b55f5b1ea94b2bf7da42f7243dddd"
          ],
          "data": "0x00000000000000000000000000000000000000000000000000000000000000200000000000000000000000000000000000000000000000008f90b8876dee65380000000000000000000000001d52bc3415aae68806e3fd44d4cdb0b63e68068a0000000000000000000000008645c75d0c75b859146aebb74076b319c9331c4e000000000000000000000000000000000000000000000000000000000000075b0000000000000000000000000000000000000000000000000000000000200b2000000000000000000000000000000000000000000000000000000000000000000000000000000000000000000000000000000000000000000000000000000009000000000000000000000000420000000000000000000000000000000000000600000000000000000000000000000000000000000000000000dd5c1764000efb00000000000000000000000000000000000000000000000000000000000001a0000000000000000000000000000000000000000000000000000000000000030000000000000000000000000000000000000000000000000000000000000003607644e00c0f2864791127728dabf08772b042f0252932e5b49049b480de7210740000000000000000000000000000000000000000000000000000000000000140000000000000000000000000000000000000000000000000000000000000002000000000000000000000000000000000000000000000000000000000000000e5e7a050aa000000000000000000000000ee33ddcfb85e06ac1fd0a4b36f9b6958d5a7d3f0000000000000000000000000fd57b4ddbf88a4e07ff4e34c487b99af2fe82a05000000000000000000000000000000000000000000000000000bd49e0b1a20000000000000000000000000008454d149beb26e3e3fc5ed1c87fb0b2a1b7b6c2c0000000000000000000000000000000000000000000000000000000066d5f6b6c92da636230e2f7fd5e74491e4eef6887e47fdf0acc50574a371be390ee32b03712e6ec68b597d23cc149ebc6e4d6d77fd79fe28bed01300bcf2d5982f1b3c7b1c000000000000000000000000000000000000000000000000000000000000000000000000000000000000000000000000000000000000000000000100000000000000000000000088a2d74f47a237a62e7a51cdda67270ce381555e000000000000000000000000000000000000000000000000000bd49e0b1a2000000000000000000000000000000000000000000000000000000000000000000100000000000000000000000000000000000000000000000000000000000000200000000000000000000000000000000000000000000000000000000000000000",
          "blockHash": "0x49eaa96075231068f19ed707624253517883e22d2a9ee8e3612c128d83374fbb",
          "blockNumber": "0xe136e2",
          "transactionHash": "0xb210ba3bcfdb149b5f5625a07205b7cefeea72e98b627076b1d6276be344f48b",
          "transactionIndex": "0xa",
          "logIndex": "0x16",
          "removed": false
        },
        {
          "address": "0x1d52bc3415aae68806e3fd44d4cdb0b63e68068a",
          "topics": [
            "0x437cb3c5ba4364504dda6ba3c906ffb0897c7beeb1675f3aaf22a1b9a99b3994",
            "0x7644e00c0f2864791127728dabf08772b042f0252932e5b49049b480de721074",
            "0x000000000000000000000000000000000000000000000000de41ba4fc9d91ad9"
          ],
          "data": "0x0000000000000000000000008645c75d0c75b859146aebb74076b319c9331c4e00000000000000000000000000000000000000000000000000000000000000c000000000000000000000000088a2d74f47a237a62e7a51cdda67270ce381555e000000000000000000000000000000000000000000000000000bd49e0b1a2000000000000000000000000000000000000000000000000000000000000000000000000000000000000000000000000000000000000000000000dd5c1764000efb00000000000000000000000000000000000000000000000000000000000000e5e7a050aa000000000000000000000000ee33ddcfb85e06ac1fd0a4b36f9b6958d5a7d3f0000000000000000000000000fd57b4ddbf88a4e07ff4e34c487b99af2fe82a05000000000000000000000000000000000000000000000000000bd49e0b1a20000000000000000000000000008454d149beb26e3e3fc5ed1c87fb0b2a1b7b6c2c0000000000000000000000000000000000000000000000000000000066d5f6b6c92da636230e2f7fd5e74491e4eef6887e47fdf0acc50574a371be390ee32b03712e6ec68b597d23cc149ebc6e4d6d77fd79fe28bed01300bcf2d5982f1b3c7b1c000000000000000000000000000000000000000000000000000000",
          "blockHash": "0x49eaa96075231068f19ed707624253517883e22d2a9ee8e3612c128d83374fbb",
          "blockNumber": "0xe136e2",
          "transactionHash": "0xb210ba3bcfdb149b5f5625a07205b7cefeea72e98b627076b1d6276be344f48b",
          "transactionIndex": "0xa",
          "logIndex": "0x17",
          "removed": false
        }
      ],
      "logsBloom": "0x00000020000000000000802000000000000000000000000000040000000800000001000000004200002800100001000000000000000000000008400000200000000000000100021000000128000000002000000100000000000000008000000000000000060020080000004000010802040000040000000000000210000000000000000100000000000000000000000000000021002000000000000000000000020000000000000400000000402000002000000000004000000100000000100000000002400010000000000000000000000000000000080000080000004220000010000000000000000004000000000004000000000000400000010000000000",
      "type": "0x2",
      "transactionHash": "0xb210ba3bcfdb149b5f5625a07205b7cefeea72e98b627076b1d6276be344f48b",
      "transactionIndex": "0xa",
      "blockHash": "0x49eaa96075231068f19ed707624253517883e22d2a9ee8e3612c128d83374fbb",
      "blockNumber": "0xe136e2",
      "gasUsed": "0x43bc1",
      "effectiveGasPrice": "0xece47",
      "from": "0x8454d149beb26e3e3fc5ed1c87fb0b2a1b7b6c2c",
      "to": "0x1d52bc3415aae68806e3fd44d4cdb0b63e68068a",
      "contractAddress": null,
      "l1BaseFeeScalar": "0x44d",
      "l1BlobBaseFee": "0x515e8ba0ee",
      "l1BlobBaseFeeScalar": "0xa118b",
      "l1Fee": "0x3a15af8cca3a",
      "l1GasPrice": "0x91bced225",
      "l1GasUsed": "0x1141"
    }
  ],
  "libraries": [],
  "pending": [],
  "returns": {},
  "timestamp": 1725287594,
  "chain": 84532,
  "commit": "5c01d01"
}