{
  "transactions": [
    {
      "hash": "0xd72e02c1c87a96027952531ab56da4c89d8fee69254d79df29ef48776b216154",
      "transactionType": "CALL",
      "contractName": null,
      "contractAddress": "0x88a2d74f47a237a62e7a51cdda67270ce381555e",
      "function": "drip(address)",
      "arguments": [
        "0x8454d149Beb26E3E3FC5eD1C87Fb0B2a1b7B6c2c"
      ],
      "transaction": {
        "from": "0x8454d149beb26e3e3fc5ed1c87fb0b2a1b7b6c2c",
        "to": "0x88a2d74f47a237a62e7a51cdda67270ce381555e",
        "gas": "0xb69c",
        "value": "0x0",
        "input": "0x67a5cd060000000000000000000000008454d149beb26e3e3fc5ed1c87fb0b2a1b7b6c2c",
        "nonce": "0x257",
        "chainId": "0x14a34"
      },
      "additionalContracts": [],
      "isFixedGasLimit": false
    },
    {
      "hash": "0xa8b3c75464dfa4a208bdc7127dc3bccfa260901f70597685af315d310a6361bf",
      "transactionType": "CALL",
      "contractName": null,
      "contractAddress": "0x88a2d74f47a237a62e7a51cdda67270ce381555e",
      "function": "approve(address,uint256)",
      "arguments": [
        "0x8454d149Beb26E3E3FC5eD1C87Fb0B2a1b7B6c2c",
        "100000000000000000"
      ],
      "transaction": {
        "from": "0x8454d149beb26e3e3fc5ed1c87fb0b2a1b7b6c2c",
        "to": "0x88a2d74f47a237a62e7a51cdda67270ce381555e",
        "gas": "0x108b7",
        "value": "0x0",
        "input": "0x095ea7b30000000000000000000000008454d149beb26e3e3fc5ed1c87fb0b2a1b7b6c2c000000000000000000000000000000000000000000000000016345785d8a0000",
        "nonce": "0x258",
        "chainId": "0x14a34"
      },
      "additionalContracts": [],
      "isFixedGasLimit": false
    },
    {
      "hash": "0xacbe6a9cd1bcffcfd660a824eb2ffbe15ee48f78508d15b4840f5c6c4ddf8007",
      "transactionType": "CALL",
      "contractName": null,
      "contractAddress": "0x88a2d74f47a237a62e7a51cdda67270ce381555e",
      "function": "transferFrom(address,address,uint256)",
      "arguments": [
        "0x8454d149Beb26E3E3FC5eD1C87Fb0B2a1b7B6c2c",
        "0x1D52bC3415AAe68806E3Fd44D4cdb0b63E68068A",
        "100000000000000000"
      ],
      "transaction": {
        "from": "0x8454d149beb26e3e3fc5ed1c87fb0b2a1b7b6c2c",
        "to": "0x88a2d74f47a237a62e7a51cdda67270ce381555e",
        "gas": "0xc998",
        "value": "0x0",
        "input": "0x23b872dd0000000000000000000000008454d149beb26e3e3fc5ed1c87fb0b2a1b7b6c2c0000000000000000000000001d52bc3415aae68806e3fd44d4cdb0b63e68068a000000000000000000000000000000000000000000000000016345785d8a0000",
        "nonce": "0x259",
        "chainId": "0x14a34"
      },
      "additionalContracts": [],
      "isFixedGasLimit": false
    },
    {
      "hash": "0x2c79133b08206ec7a630f476beb9be67449344d8f27f6475dded94d26a52bb63",
      "transactionType": "CALL",
      "contractName": null,
      "contractAddress": "0x88a2d74f47a237a62e7a51cdda67270ce381555e",
      "function": "approve(address,uint256)",
      "arguments": [
        "0x1D52bC3415AAe68806E3Fd44D4cdb0b63E68068A",
        "3330000000000000"
      ],
      "transaction": {
        "from": "0x8454d149beb26e3e3fc5ed1c87fb0b2a1b7b6c2c",
        "to": "0x88a2d74f47a237a62e7a51cdda67270ce381555e",
        "gas": "0x8ea3",
        "value": "0x0",
        "input": "0x095ea7b30000000000000000000000001d52bc3415aae68806e3fd44d4cdb0b63e68068a000000000000000000000000000000000000000000000000000bd49e0b1a2000",
        "nonce": "0x25a",
        "chainId": "0x14a34"
      },
      "additionalContracts": [],
      "isFixedGasLimit": false
    },
    {
      "hash": "0x60efa9abf153f6e0fee07835a9560a6db83c9549f73d95810ad405f2f2e90f16",
      "transactionType": "CALL",
      "contractName": "TransparentUpgradeableProxy",
      "contractAddress": "0x1d52bc3415aae68806e3fd44d4cdb0b63e68068a",
      "function": null,
      "arguments": null,
      "transaction": {
        "from": "0x8454d149beb26e3e3fc5ed1c87fb0b2a1b7b6c2c",
        "to": "0x1d52bc3415aae68806e3fd44d4cdb0b63e68068a",
        "gas": "0x630fd",
        "value": "0x0",
        "input": "0x1dd11dac000000000000000000000000000000000000000000000000de41ba4fc9d91ad90000000000000000000000008645c75d0c75b859146aebb74076b319c9331c4e00000000000000000000000000000000000000000000000000000000000000a000000000000000000000000088a2d74f47a237a62e7a51cdda67270ce381555e000000000000000000000000000000000000000000000000000bd49e0b1a200000000000000000000000000000000000000000000000000000000000000000e5e7a050aa000000000000000000000000ee33ddcfb85e06ac1fd0a4b36f9b6958d5a7d3f0000000000000000000000000fd57b4ddbf88a4e07ff4e34c487b99af2fe82a05000000000000000000000000000000000000000000000000000bd49e0b1a20000000000000000000000000008454d149beb26e3e3fc5ed1c87fb0b2a1b7b6c2c0000000000000000000000000000000000000000000000000000000066d46c78091bb3cdd909571db37e8524f4bd30b2569a11c2290e53cb760c6fbcfd522fdf20cc5eb54835af00eb39890631097f712636b7386f1849c3edcc6f2d8c2c36041b000000000000000000000000000000000000000000000000000000",
        "nonce": "0x25b",
        "chainId": "0x14a34"
      },
      "additionalContracts": [],
      "isFixedGasLimit": false
    }
  ],
  "receipts": [
    {
      "status": "0x1",
      "cumulativeGasUsed": "0x2f5d74",
      "logs": [
        {
          "address": "0x88a2d74f47a237a62e7a51cdda67270ce381555e",
          "topics": [
            "0xddf252ad1be2c89b69c2b068fc378daa952ba7f163c4a11628f55a4df523b3ef",
            "0x0000000000000000000000000000000000000000000000000000000000000000",
            "0x0000000000000000000000008454d149beb26e3e3fc5ed1c87fb0b2a1b7b6c2c"
          ],
          "data": "0x0000000000000000000000000000000000000000000000000de0b6b3a7640000",
          "blockHash": "0xc4aab55a278ef2d5fe3098bdab50583f0033148a4aa234605af94f5bca919737",
          "blockNumber": "0xe071c2",
          "transactionHash": "0xd72e02c1c87a96027952531ab56da4c89d8fee69254d79df29ef48776b216154",
          "transactionIndex": "0x4",
          "logIndex": "0x4e",
          "removed": false
        }
      ],
      "logsBloom": "0x00000000000000000000000000000000000000000000000000000000000800000000000000000000000000000000000000000000000000000000000000000000000000000000000000000008000000000000000000000000000000000000000000000000020000080000000000000800000000000000000000000010000000000000000000000000000000000000000000000000000000000000000000000000080000000000000000000000000000000000000000000000000000000000000000000002000000000000000000000000080000000000000000000000000a20000000000000000000000000000000000000000000000000000000000000000000",
      "type": "0x2",
      "transactionHash": "0xd72e02c1c87a96027952531ab56da4c89d8fee69254d79df29ef48776b216154",
      "transactionIndex": "0x4",
      "blockHash": "0xc4aab55a278ef2d5fe3098bdab50583f0033148a4aa234605af94f5bca919737",
      "blockNumber": "0xe071c2",
      "gasUsed": "0x8435",
      "effectiveGasPrice": "0x8789f",
      "from": "0x8454d149beb26e3e3fc5ed1c87fb0b2a1b7b6c2c",
      "to": "0x88a2d74f47a237a62e7a51cdda67270ce381555e",
      "contractAddress": null,
      "l1BaseFeeScalar": "0x44d",
      "l1BlobBaseFee": "0x66fba8e549",
      "l1BlobBaseFeeScalar": "0xa118b",
      "l1Fee": "0x1a97ad70c536",
      "l1GasPrice": "0x6fff59973",
      "l1GasUsed": "0x640"
    },
    {
      "status": "0x1",
      "cumulativeGasUsed": "0x301275",
      "logs": [
        {
          "address": "0x88a2d74f47a237a62e7a51cdda67270ce381555e",
          "topics": [
            "0x8c5be1e5ebec7d5bd14f71427d1e84f3dd0314c0f7b2291e5b200ac8c7c3b925",
            "0x0000000000000000000000008454d149beb26e3e3fc5ed1c87fb0b2a1b7b6c2c",
            "0x0000000000000000000000008454d149beb26e3e3fc5ed1c87fb0b2a1b7b6c2c"
          ],
          "data": "0x000000000000000000000000000000000000000000000000016345785d8a0000",
          "blockHash": "0xc4aab55a278ef2d5fe3098bdab50583f0033148a4aa234605af94f5bca919737",
          "blockNumber": "0xe071c2",
          "transactionHash": "0xa8b3c75464dfa4a208bdc7127dc3bccfa260901f70597685af315d310a6361bf",
          "transactionIndex": "0x5",
          "logIndex": "0x4f",
          "removed": false
        }
      ],
      "logsBloom": "0x000000000000000000000000000000000000000000000000000000000008000000000000000000000000000000000000000000000000000000000000002000000000000000000000000000000000000000000000000000000000000000000000000000000000000800000000000000000000000000000000000000000000000000000000000000000000000000000000000000000000000000000000000000000a0000000000000000000000000000000000000000000000000000000000000000000000000000000000000000000000080000000000000000000000000a00000010000000000000000000000000000000000000000000000000000000000000",
      "type": "0x2",
      "transactionHash": "0xa8b3c75464dfa4a208bdc7127dc3bccfa260901f70597685af315d310a6361bf",
      "transactionIndex": "0x5",
      "blockHash": "0xc4aab55a278ef2d5fe3098bdab50583f0033148a4aa234605af94f5bca919737",
      "blockNumber": "0xe071c2",
      "gasUsed": "0xb501",
      "effectiveGasPrice": "0x8789f",
      "from": "0x8454d149beb26e3e3fc5ed1c87fb0b2a1b7b6c2c",
      "to": "0x88a2d74f47a237a62e7a51cdda67270ce381555e",
      "contractAddress": null,
      "l1BaseFeeScalar": "0x44d",
      "l1BlobBaseFee": "0x66fba8e549",
      "l1BlobBaseFeeScalar": "0xa118b",
      "l1Fee": "0x1a97ad70c536",
      "l1GasPrice": "0x6fff59973",
      "l1GasUsed": "0x640"
    },
    {
      "status": "0x1",
      "cumulativeGasUsed": "0x30a469",
      "logs": [
        {
          "address": "0x88a2d74f47a237a62e7a51cdda67270ce381555e",
          "topics": [
            "0x8c5be1e5ebec7d5bd14f71427d1e84f3dd0314c0f7b2291e5b200ac8c7c3b925",
            "0x0000000000000000000000008454d149beb26e3e3fc5ed1c87fb0b2a1b7b6c2c",
            "0x0000000000000000000000008454d149beb26e3e3fc5ed1c87fb0b2a1b7b6c2c"
          ],
          "data": "0x0000000000000000000000000000000000000000000000000000000000000000",
          "blockHash": "0xc4aab55a278ef2d5fe3098bdab50583f0033148a4aa234605af94f5bca919737",
          "blockNumber": "0xe071c2",
          "transactionHash": "0xacbe6a9cd1bcffcfd660a824eb2ffbe15ee48f78508d15b4840f5c6c4ddf8007",
          "transactionIndex": "0x6",
          "logIndex": "0x50",
          "removed": false
        },
        {
          "address": "0x88a2d74f47a237a62e7a51cdda67270ce381555e",
          "topics": [
            "0xddf252ad1be2c89b69c2b068fc378daa952ba7f163c4a11628f55a4df523b3ef",
            "0x0000000000000000000000008454d149beb26e3e3fc5ed1c87fb0b2a1b7b6c2c",
            "0x0000000000000000000000001d52bc3415aae68806e3fd44d4cdb0b63e68068a"
          ],
          "data": "0x000000000000000000000000000000000000000000000000016345785d8a0000",
          "blockHash": "0xc4aab55a278ef2d5fe3098bdab50583f0033148a4aa234605af94f5bca919737",
          "blockNumber": "0xe071c2",
          "transactionHash": "0xacbe6a9cd1bcffcfd660a824eb2ffbe15ee48f78508d15b4840f5c6c4ddf8007",
          "transactionIndex": "0x6",
          "logIndex": "0x51",
          "removed": false
        }
      ],
      "logsBloom": "0x000000000000000000000000000000000000000000000000000000000008000000000000000002000000000000000000000000000000000000000000002000000000000000000000000000080000000000000000000000000000000000000000000000000000200800000000000000000000000000000000000000100000000000000000000000000000000000000000000000000000000000000000000000000a0000000000000000000000000000000000000000000000000000000000000000000002000000000000000000000000080000000000000000000000000a00000010000000000000000004000000000000000000000000000000000000000000",
      "type": "0x2",
      "transactionHash": "0xacbe6a9cd1bcffcfd660a824eb2ffbe15ee48f78508d15b4840f5c6c4ddf8007",
      "transactionIndex": "0x6",
      "blockHash": "0xc4aab55a278ef2d5fe3098bdab50583f0033148a4aa234605af94f5bca919737",
      "blockNumber": "0xe071c2",
      "gasUsed": "0x91f4",
      "effectiveGasPrice": "0x8789f",
      "from": "0x8454d149beb26e3e3fc5ed1c87fb0b2a1b7b6c2c",
      "to": "0x88a2d74f47a237a62e7a51cdda67270ce381555e",
      "contractAddress": null,
      "l1BaseFeeScalar": "0x44d",
      "l1BlobBaseFee": "0x66fba8e549",
      "l1BlobBaseFeeScalar": "0xa118b",
      "l1Fee": "0x1dd3f5f80935",
      "l1GasPrice": "0x6fff59973",
      "l1GasUsed": "0x702"
    },
    {
      "status": "0x1",
      "cumulativeGasUsed": "0x310bae",
      "logs": [
        {
          "address": "0x88a2d74f47a237a62e7a51cdda67270ce381555e",
          "topics": [
            "0x8c5be1e5ebec7d5bd14f71427d1e84f3dd0314c0f7b2291e5b200ac8c7c3b925",
            "0x0000000000000000000000008454d149beb26e3e3fc5ed1c87fb0b2a1b7b6c2c",
            "0x0000000000000000000000001d52bc3415aae68806e3fd44d4cdb0b63e68068a"
          ],
          "data": "0x000000000000000000000000000000000000000000000000000bd49e0b1a2000",
          "blockHash": "0xc4aab55a278ef2d5fe3098bdab50583f0033148a4aa234605af94f5bca919737",
          "blockNumber": "0xe071c2",
          "transactionHash": "0x2c79133b08206ec7a630f476beb9be67449344d8f27f6475dded94d26a52bb63",
          "transactionIndex": "0x7",
          "logIndex": "0x52",
          "removed": false
        }
      ],
      "logsBloom": "0x000000000000000000000000000000000000000000000000000000000008000000000000000002000000000000000000000000000000000000000000002000000000000000000000000000000000000000000000000000000000000000000000000000000000200800000000000000000000000000000000000000000000000000000000000000000000000000000000000000000000000000000000000000000a0000000000000000000000000000000000000000000000000000000000000000000000000000000000000000000000080000000000000000000000000a00000010000000000000000004000000000000000000000000000000000000000000",
      "type": "0x2",
      "transactionHash": "0x2c79133b08206ec7a630f476beb9be67449344d8f27f6475dded94d26a52bb63",
      "transactionIndex": "0x7",
      "blockHash": "0xc4aab55a278ef2d5fe3098bdab50583f0033148a4aa234605af94f5bca919737",
      "blockNumber": "0xe071c2",
      "gasUsed": "0x6745",
      "effectiveGasPrice": "0x8789f",
      "from": "0x8454d149beb26e3e3fc5ed1c87fb0b2a1b7b6c2c",
      "to": "0x88a2d74f47a237a62e7a51cdda67270ce381555e",
      "contractAddress": null,
      "l1BaseFeeScalar": "0x44d",
      "l1BlobBaseFee": "0x66fba8e549",
      "l1BlobBaseFeeScalar": "0xa118b",
      "l1Fee": "0x1a97ad70c536",
      "l1GasPrice": "0x6fff59973",
      "l1GasUsed": "0x640"
    },
    {
      "status": "0x1",
      "cumulativeGasUsed": "0x35476f",
      "logs": [
        {
          "address": "0x1d52bc3415aae68806e3fd44d4cdb0b63e68068a",
          "topics": [
            "0xc60b10202cb9961c5a9ba33f02d2ecf891a6c52e6e33495cea5fbfe456104c63",
            "0xe7a050aa00000000000000000000000000000000000000000000000000000000"
          ],
          "data": "0x",
          "blockHash": "0xc4aab55a278ef2d5fe3098bdab50583f0033148a4aa234605af94f5bca919737",
          "blockNumber": "0xe071c2",
          "transactionHash": "0x60efa9abf153f6e0fee07835a9560a6db83c9549f73d95810ad405f2f2e90f16",
          "transactionIndex": "0x8",
          "logIndex": "0x53",
          "removed": false
        },
        {
          "address": "0x88a2d74f47a237a62e7a51cdda67270ce381555e",
          "topics": [
            "0x8c5be1e5ebec7d5bd14f71427d1e84f3dd0314c0f7b2291e5b200ac8c7c3b925",
            "0x0000000000000000000000001d52bc3415aae68806e3fd44d4cdb0b63e68068a",
            "0x000000000000000000000000d3b06cebf099ce7da4accf578aaebfdbd6e88a93"
          ],
          "data": "0x000000000000000000000000000000000000000000000000000bd49e0b1a2000",
          "blockHash": "0xc4aab55a278ef2d5fe3098bdab50583f0033148a4aa234605af94f5bca919737",
          "blockNumber": "0xe071c2",
          "transactionHash": "0x60efa9abf153f6e0fee07835a9560a6db83c9549f73d95810ad405f2f2e90f16",
          "transactionIndex": "0x8",
          "logIndex": "0x54",
          "removed": false
        },
        {
          "address": "0x4200000000000000000000000000000000000006",
          "topics": [
            "0xe1fffcc4923d04b559f4d29a8bfc6cda04eb5b0d3c460751c2402c5c5cc9109c",
            "0x000000000000000000000000d3b06cebf099ce7da4accf578aaebfdbd6e88a93"
          ],
          "data": "0x00000000000000000000000000000000000000000000000000f2db8683c9e03a",
          "blockHash": "0xc4aab55a278ef2d5fe3098bdab50583f0033148a4aa234605af94f5bca919737",
          "blockNumber": "0xe071c2",
          "transactionHash": "0x60efa9abf153f6e0fee07835a9560a6db83c9549f73d95810ad405f2f2e90f16",
          "transactionIndex": "0x8",
          "logIndex": "0x55",
          "removed": false
        },
        {
          "address": "0x4200000000000000000000000000000000000006",
          "topics": [
            "0xddf252ad1be2c89b69c2b068fc378daa952ba7f163c4a11628f55a4df523b3ef",
            "0x000000000000000000000000d3b06cebf099ce7da4accf578aaebfdbd6e88a93",
            "0x0000000000000000000000006486906bb2d85a6c0ccef2a2831c11a2059ebfea"
          ],
          "data": "0x00000000000000000000000000000000000000000000000000f2db8683c9e03a",
          "blockHash": "0xc4aab55a278ef2d5fe3098bdab50583f0033148a4aa234605af94f5bca919737",
          "blockNumber": "0xe071c2",
          "transactionHash": "0x60efa9abf153f6e0fee07835a9560a6db83c9549f73d95810ad405f2f2e90f16",
          "transactionIndex": "0x8",
          "logIndex": "0x56",
          "removed": false
        },
        {
          "address": "0x88a2d74f47a237a62e7a51cdda67270ce381555e",
          "topics": [
            "0x8c5be1e5ebec7d5bd14f71427d1e84f3dd0314c0f7b2291e5b200ac8c7c3b925",
            "0x0000000000000000000000001d52bc3415aae68806e3fd44d4cdb0b63e68068a",
            "0x000000000000000000000000d3b06cebf099ce7da4accf578aaebfdbd6e88a93"
          ],
          "data": "0x0000000000000000000000000000000000000000000000000000000000000000",
          "blockHash": "0xc4aab55a278ef2d5fe3098bdab50583f0033148a4aa234605af94f5bca919737",
          "blockNumber": "0xe071c2",
          "transactionHash": "0x60efa9abf153f6e0fee07835a9560a6db83c9549f73d95810ad405f2f2e90f16",
          "transactionIndex": "0x8",
          "logIndex": "0x57",
          "removed": false
        },
        {
          "address": "0x88a2d74f47a237a62e7a51cdda67270ce381555e",
          "topics": [
            "0xddf252ad1be2c89b69c2b068fc378daa952ba7f163c4a11628f55a4df523b3ef",
            "0x0000000000000000000000001d52bc3415aae68806e3fd44d4cdb0b63e68068a",
            "0x000000000000000000000000875207858c691f192c606068f417dcf666b2ec6b"
          ],
          "data": "0x000000000000000000000000000000000000000000000000000bd49e0b1a2000",
          "blockHash": "0xc4aab55a278ef2d5fe3098bdab50583f0033148a4aa234605af94f5bca919737",
          "blockNumber": "0xe071c2",
          "transactionHash": "0x60efa9abf153f6e0fee07835a9560a6db83c9549f73d95810ad405f2f2e90f16",
          "transactionIndex": "0x8",
          "logIndex": "0x58",
          "removed": false
        },
        {
          "address": "0x6486906bb2d85a6c0ccef2a2831c11a2059ebfea",
          "topics": [
            "0x1871cdf8010e63f2eb8384381a68dfa7416dc571a5517e66e88b2d2d0c0a690a"
          ],
          "data": "0x00000000000000000000000000000000000000000000000000000000000514c8",
          "blockHash": "0xc4aab55a278ef2d5fe3098bdab50583f0033148a4aa234605af94f5bca919737",
          "blockNumber": "0xe071c2",
          "transactionHash": "0x60efa9abf153f6e0fee07835a9560a6db83c9549f73d95810ad405f2f2e90f16",
          "transactionIndex": "0x8",
          "logIndex": "0x59",
          "removed": false
        },
        {
          "address": "0x875207858c691f192c606068f417dcf666b2ec6b",
          "topics": [
            "0x1871cdf8010e63f2eb8384381a68dfa7416dc571a5517e66e88b2d2d0c0a690a"
          ],
          "data": "0x000000000000000000000000000000000000000000000000000bd49e0b1a2000",
          "blockHash": "0xc4aab55a278ef2d5fe3098bdab50583f0033148a4aa234605af94f5bca919737",
          "blockNumber": "0xe071c2",
          "transactionHash": "0x60efa9abf153f6e0fee07835a9560a6db83c9549f73d95810ad405f2f2e90f16",
          "transactionIndex": "0x8",
          "logIndex": "0x5a",
          "removed": false
        },
        {
          "address": "0x88a2d74f47a237a62e7a51cdda67270ce381555e",
          "topics": [
            "0xddf252ad1be2c89b69c2b068fc378daa952ba7f163c4a11628f55a4df523b3ef",
            "0x000000000000000000000000875207858c691f192c606068f417dcf666b2ec6b",
            "0x0000000000000000000000000000000000000000000000000000000000000000"
          ],
          "data": "0x000000000000000000000000000000000000000000000000000bd49e0b1a2000",
          "blockHash": "0xc4aab55a278ef2d5fe3098bdab50583f0033148a4aa234605af94f5bca919737",
          "blockNumber": "0xe071c2",
          "transactionHash": "0x60efa9abf153f6e0fee07835a9560a6db83c9549f73d95810ad405f2f2e90f16",
          "transactionIndex": "0x8",
          "logIndex": "0x5b",
          "removed": false
        },
        {
          "address": "0x875207858c691f192c606068f417dcf666b2ec6b",
          "topics": [
            "0x696de425f79f4a40bc6d2122ca50507f0efbeabbff86a84871b7196ab8ea8df7",
            "0x0000000000000000000000006486906bb2d85a6c0ccef2a2831c11a2059ebfea"
          ],
          "data": "0x000000000000000000000000000000000000000000000000000bd49e0b1a2000",
          "blockHash": "0xc4aab55a278ef2d5fe3098bdab50583f0033148a4aa234605af94f5bca919737",
          "blockNumber": "0xe071c2",
          "transactionHash": "0x60efa9abf153f6e0fee07835a9560a6db83c9549f73d95810ad405f2f2e90f16",
          "transactionIndex": "0x8",
          "logIndex": "0x5c",
          "removed": false
        },
        {
          "address": "0x6486906bb2d85a6c0ccef2a2831c11a2059ebfea",
          "topics": [
            "0xd0c3c799bf9e2639de44391e7f524d229b2b55f5b1ea94b2bf7da42f7243dddd"
          ],
          "data": "0x00000000000000000000000000000000000000000000000000000000000000200000000000000000000000000000000000000000000000008f90b8876dee65380000000000000000000000001d52bc3415aae68806e3fd44d4cdb0b63e68068a0000000000000000000000008645c75d0c75b859146aebb74076b319c9331c4e00000000000000000000000000000000000000000000000000000000000007530000000000000000000000000000000000000000000000000000000000200b2000000000000000000000000000000000000000000000000000000000000000000000000000000000000000000000000000000000000000000000000000000004000000000000000000000000420000000000000000000000000000000000000600000000000000000000000000000000000000000000000000f2db8683c9e03a00000000000000000000000000000000000000000000000000000000000001a000000000000000000000000000000000000000000000000000000000000003000000000000000000000000000000000000000000000000000000000000000360a44056698a8bc0fe98de9e6aba9e5e57b966297ba9f04aaae84f3455540fd72a0000000000000000000000000000000000000000000000000000000000000140000000000000000000000000000000000000000000000000000000000000002000000000000000000000000000000000000000000000000000000000000000e5e7a050aa000000000000000000000000ee33ddcfb85e06ac1fd0a4b36f9b6958d5a7d3f0000000000000000000000000fd57b4ddbf88a4e07ff4e34c487b99af2fe82a05000000000000000000000000000000000000000000000000000bd49e0b1a20000000000000000000000000008454d149beb26e3e3fc5ed1c87fb0b2a1b7b6c2c0000000000000000000000000000000000000000000000000000000066d46c78091bb3cdd909571db37e8524f4bd30b2569a11c2290e53cb760c6fbcfd522fdf20cc5eb54835af00eb39890631097f712636b7386f1849c3edcc6f2d8c2c36041b000000000000000000000000000000000000000000000000000000000000000000000000000000000000000000000000000000000000000000000100000000000000000000000088a2d74f47a237a62e7a51cdda67270ce381555e000000000000000000000000000000000000000000000000000bd49e0b1a2000000000000000000000000000000000000000000000000000000000000000000100000000000000000000000000000000000000000000000000000000000000200000000000000000000000000000000000000000000000000000000000000000",
          "blockHash": "0xc4aab55a278ef2d5fe3098bdab50583f0033148a4aa234605af94f5bca919737",
          "blockNumber": "0xe071c2",
          "transactionHash": "0x60efa9abf153f6e0fee07835a9560a6db83c9549f73d95810ad405f2f2e90f16",
          "transactionIndex": "0x8",
          "logIndex": "0x5d",
          "removed": false
        },
        {
          "address": "0x1d52bc3415aae68806e3fd44d4cdb0b63e68068a",
          "topics": [
            "0x437cb3c5ba4364504dda6ba3c906ffb0897c7beeb1675f3aaf22a1b9a99b3994",
            "0xa44056698a8bc0fe98de9e6aba9e5e57b966297ba9f04aaae84f3455540fd72a",
            "0x000000000000000000000000000000000000000000000000de41ba4fc9d91ad9"
          ],
          "data": "0x0000000000000000000000008645c75d0c75b859146aebb74076b319c9331c4e00000000000000000000000000000000000000000000000000000000000000c000000000000000000000000088a2d74f47a237a62e7a51cdda67270ce381555e000000000000000000000000000000000000000000000000000bd49e0b1a2000000000000000000000000000000000000000000000000000000000000000000000000000000000000000000000000000000000000000000000f2db8683c9e03a00000000000000000000000000000000000000000000000000000000000000e5e7a050aa000000000000000000000000ee33ddcfb85e06ac1fd0a4b36f9b6958d5a7d3f0000000000000000000000000fd57b4ddbf88a4e07ff4e34c487b99af2fe82a05000000000000000000000000000000000000000000000000000bd49e0b1a20000000000000000000000000008454d149beb26e3e3fc5ed1c87fb0b2a1b7b6c2c0000000000000000000000000000000000000000000000000000000066d46c78091bb3cdd909571db37e8524f4bd30b2569a11c2290e53cb760c6fbcfd522fdf20cc5eb54835af00eb39890631097f712636b7386f1849c3edcc6f2d8c2c36041b000000000000000000000000000000000000000000000000000000",
          "blockHash": "0xc4aab55a278ef2d5fe3098bdab50583f0033148a4aa234605af94f5bca919737",
          "blockNumber": "0xe071c2",
          "transactionHash": "0x60efa9abf153f6e0fee07835a9560a6db83c9549f73d95810ad405f2f2e90f16",
          "transactionIndex": "0x8",
          "logIndex": "0x5e",
          "removed": false
        }
      ],
      "logsBloom": "0x00000020000000000000802000000100000000000000000000040000000800000001000000004200002800100001000000000000000000000008400000200000000000000000021000000128000000002000000100000000000000008000000000000000060020080000004000010802040000140000000000000210000000000000000100000000000000000200000000000021002000000000000000000000020000000000000400000000002000002000000000004000000100000000100000000002400010000000000000000000000000000000080000080000004220000010000000000000000004000000000004000000000000400000010000000000",
      "type": "0x2",
      "transactionHash": "0x60efa9abf153f6e0fee07835a9560a6db83c9549f73d95810ad405f2f2e90f16",
      "transactionIndex": "0x8",
      "blockHash": "0xc4aab55a278ef2d5fe3098bdab50583f0033148a4aa234605af94f5bca919737",
      "blockNumber": "0xe071c2",
      "gasUsed": "0x43bc1",
      "effectiveGasPrice": "0x8789f",
      "from": "0x8454d149beb26e3e3fc5ed1c87fb0b2a1b7b6c2c",
      "to": "0x1d52bc3415aae68806e3fd44d4cdb0b63e68068a",
      "contractAddress": null,
      "l1BaseFeeScalar": "0x44d",
      "l1BlobBaseFee": "0x66fba8e549",
      "l1BlobBaseFeeScalar": "0xa118b",
      "l1Fee": "0x496d6b9e8565",
      "l1GasPrice": "0x6fff59973",
      "l1GasUsed": "0x1141"
    }
  ],
  "libraries": [],
  "pending": [],
  "returns": {},
  "timestamp": 1725186666,
  "chain": 84532,
  "commit": "a1ee94a"
}