{
  "deployments": [
    {
      "transactions": [
        {
          "hash": "0x072384a685e649b8c57c47e9e9ed87d0830985ea17920e3340cc332fa133d028",
          "transactionType": "CALL",
          "contractName": null,
          "contractAddress": "0x06b72b50b23fecd190d6fec7b1b99c9f7b6a3e0f",
          "function": "allowlistSourceChain(uint64,bool)",
          "arguments": [
            "3478487238524512106",
            "true"
          ],
          "transaction": {
            "from": "0x8454d149beb26e3e3fc5ed1c87fb0b2a1b7b6c2c",
            "to": "0x06b72b50b23fecd190d6fec7b1b99c9f7b6a3e0f",
            "gas": "0xed15",
            "value": "0x0",
            "input": "0xdb04fa49000000000000000000000000000000000000000000000000304611b6affba76a0000000000000000000000000000000000000000000000000000000000000001",
            "nonce": "0x229",
            "chainId": "0x66eee"
          },
          "additionalContracts": [],
          "isFixedGasLimit": false
        },
        {
          "hash": "0x9c957c82ff59251d6dd07b4cfe0ca88a55ee7f5016936c05aae05409c4960832",
          "transactionType": "CALL",
          "contractName": null,
          "contractAddress": "0x06b72b50b23fecd190d6fec7b1b99c9f7b6a3e0f",
          "function": "allowlistSender(address,bool)",
          "arguments": [
            "0x3F01d2e6Da4012d8BE5741A4989B8C9c2E07108E",
            "true"
          ],
          "transaction": {
            "from": "0x8454d149beb26e3e3fc5ed1c87fb0b2a1b7b6c2c",
            "to": "0x06b72b50b23fecd190d6fec7b1b99c9f7b6a3e0f",
            "gas": "0xedaa",
            "value": "0x0",
            "input": "0xeab5b02c0000000000000000000000003f01d2e6da4012d8be5741a4989b8c9c2e07108e0000000000000000000000000000000000000000000000000000000000000001",
            "nonce": "0x22a",
            "chainId": "0x66eee"
          },
          "additionalContracts": [],
          "isFixedGasLimit": false
        }
      ],
      "receipts": [
        {
          "status": "0x1",
          "cumulativeGasUsed": "0xb4e0",
          "logs": [],
          "logsBloom": "0x00000000000000000000000000000000000000000000000000000000000000000000000000000000000000000000000000000000000000000000000000000000000000000000000000000000000000000000000000000000000000000000000000000000000000000000000000000000000000000000000000000000000000000000000000000000000000000000000000000000000000000000000000000000000000000000000000000000000000000000000000000000000000000000000000000000000000000000000000000000000000000000000000000000000000000000000000000000000000000000000000000000000000000000000000000000",
          "type": "0x2",
          "transactionHash": "0x072384a685e649b8c57c47e9e9ed87d0830985ea17920e3340cc332fa133d028",
          "transactionIndex": "0x1",
          "blockHash": "0x935c29c5bdb8b804c92eef8660c84ac9ad0a33f968ad748d8a174028047a8333",
          "blockNumber": "0x446b21e",
          "gasUsed": "0xb4e0",
          "effectiveGasPrice": "0x5f5e100",
          "from": "0x8454d149beb26e3e3fc5ed1c87fb0b2a1b7b6c2c",
          "to": "0x06b72b50b23fecd190d6fec7b1b99c9f7b6a3e0f",
          "contractAddress": null,
          "gasUsedForL1": "0x0",
          "l1BlockNumber": "0x637388"
        },
        {
          "status": "0x1",
          "cumulativeGasUsed": "0x1c9ee",
          "logs": [],
          "logsBloom": "0x00000000000000000000000000000000000000000000000000000000000000000000000000000000000000000000000000000000000000000000000000000000000000000000000000000000000000000000000000000000000000000000000000000000000000000000000000000000000000000000000000000000000000000000000000000000000000000000000000000000000000000000000000000000000000000000000000000000000000000000000000000000000000000000000000000000000000000000000000000000000000000000000000000000000000000000000000000000000000000000000000000000000000000000000000000000",
          "type": "0x2",
          "transactionHash": "0x9c957c82ff59251d6dd07b4cfe0ca88a55ee7f5016936c05aae05409c4960832",
          "transactionIndex": "0x2",
          "blockHash": "0x00757ea312c1113ffd1d08c21a5d4c9820887f582bd79ecbdabddb53485e3a98",
          "blockNumber": "0x446b221",
          "gasUsed": "0xb553",
          "effectiveGasPrice": "0x5f5e100",
          "from": "0x8454d149beb26e3e3fc5ed1c87fb0b2a1b7b6c2c",
          "to": "0x06b72b50b23fecd190d6fec7b1b99c9f7b6a3e0f",
          "contractAddress": null,
          "gasUsedForL1": "0x0",
          "l1BlockNumber": "0x637388"
        }
      ],
      "libraries": [],
      "pending": [],
      "returns": {
        "0": {
          "internal_type": "contract IReceiverCCIP",
          "value": "0x0000000000000000000000000000000000000000"
        },
        "1": {
          "internal_type": "contract IRestakingConnector",
          "value": "0x0000000000000000000000000000000000000000"
        }
      },
      "timestamp": 1723898037,
      "chain": 421614,
      "commit": "ee84cdd"
    },
    {
      "transactions": [
        {
          "hash": "0xe996acad7ebffde226628bfd2be64d1e8b405be1eaf62481657253c9d91314b6",
          "transactionType": "CALL",
          "contractName": null,
          "contractAddress": "0x3f01d2e6da4012d8be5741a4989b8c9c2e07108e",
          "function": "allowlistSender(address,bool)",
          "arguments": [
            "0x8454d149Beb26E3E3FC5eD1C87Fb0B2a1b7B6c2c",
            "true"
          ],
          "transaction": {
            "from": "0x8454d149beb26e3e3fc5ed1c87fb0b2a1b7b6c2c",
            "to": "0x3f01d2e6da4012d8be5741a4989b8c9c2e07108e",
            "gas": "0x1092f",
            "value": "0x0",
            "input": "0xeab5b02c0000000000000000000000008454d149beb26e3e3fc5ed1c87fb0b2a1b7b6c2c0000000000000000000000000000000000000000000000000000000000000001",
            "nonce": "0x171",
            "chainId": "0xaa36a7"
          },
          "additionalContracts": [],
          "isFixedGasLimit": false
        },
        {
          "hash": "0x4a637d5b14ddefc644585029f08cf83cdaa5a11dab64bbc278639eb88baec594",
          "transactionType": "CALL",
          "contractName": null,
          "contractAddress": "0xfd57b4ddbf88a4e07ff4e34c487b99af2fe82a05",
          "function": "drip(address)",
          "arguments": [
            "0x3F01d2e6Da4012d8BE5741A4989B8C9c2E07108E"
          ],
          "transaction": {
            "from": "0x8454d149beb26e3e3fc5ed1c87fb0b2a1b7b6c2c",
            "to": "0xfd57b4ddbf88a4e07ff4e34c487b99af2fe82a05",
            "gas": "0x1230a",
            "value": "0x0",
            "input": "0x67a5cd060000000000000000000000003f01d2e6da4012d8be5741a4989b8c9c2e07108e",
            "nonce": "0x172",
            "chainId": "0xaa36a7"
          },
          "additionalContracts": [],
          "isFixedGasLimit": false
        },
        {
          "hash": "0xa5fa0835d867908bc7324eaf2027ba35469a1b443e4f7d93ea8c2b8affb0db82",
          "transactionType": "CALL",
          "contractName": null,
          "contractAddress": "0xfd57b4ddbf88a4e07ff4e34c487b99af2fe82a05",
          "function": "drip(address)",
          "arguments": [
            "0x3F01d2e6Da4012d8BE5741A4989B8C9c2E07108E"
          ],
          "transaction": {
            "from": "0x8454d149beb26e3e3fc5ed1c87fb0b2a1b7b6c2c",
            "to": "0xfd57b4ddbf88a4e07ff4e34c487b99af2fe82a05",
            "gas": "0xb69c",
            "value": "0x0",
            "input": "0x67a5cd060000000000000000000000003f01d2e6da4012d8be5741a4989b8c9c2e07108e",
            "nonce": "0x173",
            "chainId": "0xaa36a7"
          },
          "additionalContracts": [],
          "isFixedGasLimit": false
        },
        {
          "hash": "0x0b25b045c375d0cba886c19c48d1e06d4729adf5accad7e15bdd6ce53d0135c5",
          "transactionType": "CALL",
          "contractName": null,
          "contractAddress": "0xfd57b4ddbf88a4e07ff4e34c487b99af2fe82a05",
          "function": "drip(address)",
          "arguments": [
            "0x3F01d2e6Da4012d8BE5741A4989B8C9c2E07108E"
          ],
          "transaction": {
            "from": "0x8454d149beb26e3e3fc5ed1c87fb0b2a1b7b6c2c",
            "to": "0xfd57b4ddbf88a4e07ff4e34c487b99af2fe82a05",
            "gas": "0xb69c",
            "value": "0x0",
            "input": "0x67a5cd060000000000000000000000003f01d2e6da4012d8be5741a4989b8c9c2e07108e",
            "nonce": "0x174",
            "chainId": "0xaa36a7"
          },
          "additionalContracts": [],
          "isFixedGasLimit": false
        }
      ],
      "receipts": [
        {
          "status": "0x1",
          "cumulativeGasUsed": "0xa11576",
          "logs": [],
          "logsBloom": "0x00000000000000000000000000000000000000000000000000000000000000000000000000000000000000000000000000000000000000000000000000000000000000000000000000000000000000000000000000000000000000000000000000000000000000000000000000000000000000000000000000000000000000000000000000000000000000000000000000000000000000000000000000000000000000000000000000000000000000000000000000000000000000000000000000000000000000000000000000000000000000000000000000000000000000000000000000000000000000000000000000000000000000000000000000000000",
          "type": "0x2",
          "transactionHash": "0xe996acad7ebffde226628bfd2be64d1e8b405be1eaf62481657253c9d91314b6",
          "transactionIndex": "0x32",
          "blockHash": "0x8132e14c91be3b3e54e57c739b001927d0a294e5be905694fdfbca2eb9ef320a",
          "blockNumber": "0x63738c",
          "gasUsed": "0xb553",
          "effectiveGasPrice": "0x1dca412",
          "from": "0x8454d149beb26e3e3fc5ed1c87fb0b2a1b7b6c2c",
          "to": "0x3f01d2e6da4012d8be5741a4989b8c9c2e07108e",
          "contractAddress": null
        },
        {
          "status": "0x1",
          "cumulativeGasUsed": "0xa1dc77",
          "logs": [
            {
              "address": "0xfd57b4ddbf88a4e07ff4e34c487b99af2fe82a05",
              "topics": [
                "0xddf252ad1be2c89b69c2b068fc378daa952ba7f163c4a11628f55a4df523b3ef",
                "0x0000000000000000000000000000000000000000000000000000000000000000",
                "0x0000000000000000000000003f01d2e6da4012d8be5741a4989b8c9c2e07108e"
              ],
              "data": "0x0000000000000000000000000000000000000000000000000de0b6b3a7640000",
              "blockHash": "0x8132e14c91be3b3e54e57c739b001927d0a294e5be905694fdfbca2eb9ef320a",
              "blockNumber": "0x63738c",
              "transactionHash": "0x4a637d5b14ddefc644585029f08cf83cdaa5a11dab64bbc278639eb88baec594",
              "transactionIndex": "0x33",
              "logIndex": "0x7e",
              "removed": false
            }
          ],
          "logsBloom": "0x00000002000000000000000000000000000000000000000000000000000000000000000000000000000000000000000000000000000000000000000000000000000000000000000000000008000000000000000000000000000020000000000000000000020000000000000000000800000000000000000000000010000000000000000000000000000000000001000000000000000000000000000000000000000000000000000040000000000000080000000000000000000040000000000000000002000000000000000000000000000000000000000000000000000020000000000000000000000000000000000000000000000000000000000000000000",
          "type": "0x2",
          "transactionHash": "0x4a637d5b14ddefc644585029f08cf83cdaa5a11dab64bbc278639eb88baec594",
          "transactionIndex": "0x33",
          "blockHash": "0x8132e14c91be3b3e54e57c739b001927d0a294e5be905694fdfbca2eb9ef320a",
          "blockNumber": "0x63738c",
          "gasUsed": "0xc701",
          "effectiveGasPrice": "0x1dca412",
          "from": "0x8454d149beb26e3e3fc5ed1c87fb0b2a1b7b6c2c",
          "to": "0xfd57b4ddbf88a4e07ff4e34c487b99af2fe82a05",
          "contractAddress": null
        },
        {
          "status": "0x1",
          "cumulativeGasUsed": "0xa260ac",
          "logs": [
            {
              "address": "0xfd57b4ddbf88a4e07ff4e34c487b99af2fe82a05",
              "topics": [
                "0xddf252ad1be2c89b69c2b068fc378daa952ba7f163c4a11628f55a4df523b3ef",
                "0x0000000000000000000000000000000000000000000000000000000000000000",
                "0x0000000000000000000000003f01d2e6da4012d8be5741a4989b8c9c2e07108e"
              ],
              "data": "0x0000000000000000000000000000000000000000000000000de0b6b3a7640000",
              "blockHash": "0x8132e14c91be3b3e54e57c739b001927d0a294e5be905694fdfbca2eb9ef320a",
              "blockNumber": "0x63738c",
              "transactionHash": "0xa5fa0835d867908bc7324eaf2027ba35469a1b443e4f7d93ea8c2b8affb0db82",
              "transactionIndex": "0x34",
              "logIndex": "0x7f",
              "removed": false
            }
          ],
          "logsBloom": "0x00000002000000000000000000000000000000000000000000000000000000000000000000000000000000000000000000000000000000000000000000000000000000000000000000000008000000000000000000000000000020000000000000000000020000000000000000000800000000000000000000000010000000000000000000000000000000000001000000000000000000000000000000000000000000000000000040000000000000080000000000000000000040000000000000000002000000000000000000000000000000000000000000000000000020000000000000000000000000000000000000000000000000000000000000000000",
          "type": "0x2",
          "transactionHash": "0xa5fa0835d867908bc7324eaf2027ba35469a1b443e4f7d93ea8c2b8affb0db82",
          "transactionIndex": "0x34",
          "blockHash": "0x8132e14c91be3b3e54e57c739b001927d0a294e5be905694fdfbca2eb9ef320a",
          "blockNumber": "0x63738c",
          "gasUsed": "0x8435",
          "effectiveGasPrice": "0x1dca412",
          "from": "0x8454d149beb26e3e3fc5ed1c87fb0b2a1b7b6c2c",
          "to": "0xfd57b4ddbf88a4e07ff4e34c487b99af2fe82a05",
          "contractAddress": null
        },
        {
          "status": "0x1",
          "cumulativeGasUsed": "0xa2e4e1",
          "logs": [
            {
              "address": "0xfd57b4ddbf88a4e07ff4e34c487b99af2fe82a05",
              "topics": [
                "0xddf252ad1be2c89b69c2b068fc378daa952ba7f163c4a11628f55a4df523b3ef",
                "0x0000000000000000000000000000000000000000000000000000000000000000",
                "0x0000000000000000000000003f01d2e6da4012d8be5741a4989b8c9c2e07108e"
              ],
              "data": "0x0000000000000000000000000000000000000000000000000de0b6b3a7640000",
              "blockHash": "0x8132e14c91be3b3e54e57c739b001927d0a294e5be905694fdfbca2eb9ef320a",
              "blockNumber": "0x63738c",
              "transactionHash": "0x0b25b045c375d0cba886c19c48d1e06d4729adf5accad7e15bdd6ce53d0135c5",
              "transactionIndex": "0x35",
              "logIndex": "0x80",
              "removed": false
            }
          ],
          "logsBloom": "0x00000002000000000000000000000000000000000000000000000000000000000000000000000000000000000000000000000000000000000000000000000000000000000000000000000008000000000000000000000000000020000000000000000000020000000000000000000800000000000000000000000010000000000000000000000000000000000001000000000000000000000000000000000000000000000000000040000000000000080000000000000000000040000000000000000002000000000000000000000000000000000000000000000000000020000000000000000000000000000000000000000000000000000000000000000000",
          "type": "0x2",
          "transactionHash": "0x0b25b045c375d0cba886c19c48d1e06d4729adf5accad7e15bdd6ce53d0135c5",
          "transactionIndex": "0x35",
          "blockHash": "0x8132e14c91be3b3e54e57c739b001927d0a294e5be905694fdfbca2eb9ef320a",
          "blockNumber": "0x63738c",
          "gasUsed": "0x8435",
          "effectiveGasPrice": "0x1dca412",
          "from": "0x8454d149beb26e3e3fc5ed1c87fb0b2a1b7b6c2c",
          "to": "0xfd57b4ddbf88a4e07ff4e34c487b99af2fe82a05",
          "contractAddress": null
        }
      ],
      "libraries": [],
      "pending": [],
      "returns": {
        "0": {
          "internal_type": "contract IReceiverCCIP",
          "value": "0x0000000000000000000000000000000000000000"
        },
        "1": {
          "internal_type": "contract IRestakingConnector",
          "value": "0x0000000000000000000000000000000000000000"
        }
      },
      "timestamp": 1723898038,
      "chain": 11155111,
      "commit": "ee84cdd"
    }
  ],
  "timestamp": 1723898065
}