{
  "transactions": [
    {
      "hash": "0x29a3f486994657ed98d0f3472b7cd9699d6e563103bfba55c300cd6f7de1a11f",
      "transactionType": "CALL",
      "contractName": null,
      "contractAddress": "0x88a2d74f47a237a62e7a51cdda67270ce381555e",
      "function": "approve(address,uint256)",
      "arguments": [
        "0x2a0dd3580658CC32e2D0984051DA5f2312001a13",
        "61900000000000000"
      ],
      "transaction": {
        "from": "0x8454d149beb26e3e3fc5ed1c87fb0b2a1b7b6c2c",
        "to": "0x88a2d74f47a237a62e7a51cdda67270ce381555e",
        "gas": "0xf9f2",
        "value": "0x0",
        "input": "0x095ea7b30000000000000000000000002a0dd3580658cc32e2d0984051da5f2312001a1300000000000000000000000000000000000000000000000000dbe9b8d798c000",
        "nonce": "0x42c",
        "chainId": "0x14a34"
      },
      "additionalContracts": [],
      "isFixedGasLimit": false
    },
    {
      "hash": "0x806fab7f0eae15b0d9e9d4761da2c1f8012a5575950e4b35b421dfa9d35419d8",
      "transactionType": "CALL",
      "contractName": "TransparentUpgradeableProxy",
      "contractAddress": "0xa8ed9fb5feb9eebb5239472c3cff0ee3f138079d",
      "function": null,
      "arguments": null,
      "transaction": {
        "from": "0x8454d149beb26e3e3fc5ed1c87fb0b2a1b7b6c2c",
        "to": "0xa8ed9fb5feb9eebb5239472c3cff0ee3f138079d",
        "gas": "0xa824",
        "value": "0x0",
        "input": "0xe83008eee7a050aa00000000000000000000000000000000000000000000000000000000",
        "nonce": "0x42d",
        "chainId": "0x14a34"
      },
      "additionalContracts": [],
      "isFixedGasLimit": false
    },
    {
      "hash": "0x49e16364ae0102e1c41ffc495f629215015e7d70cf335f005cc5f3f34c96a7eb",
      "transactionType": "CALL",
      "contractName": "TransparentUpgradeableProxy",
      "contractAddress": "0x2a0dd3580658cc32e2d0984051da5f2312001a13",
      "function": null,
      "arguments": null,
      "transaction": {
        "from": "0x8454d149beb26e3e3fc5ed1c87fb0b2a1b7b6c2c",
        "to": "0x2a0dd3580658cc32e2d0984051da5f2312001a13",
        "gas": "0x63b9f",
        "value": "0x433416b62927e8",
        "input": "0x1b3565ab000000000000000000000000000000000000000000000000de41ba4fc9d91ad90000000000000000000000000d7135aaf464555e780e2a63f3b1ef0a97b3a49900000000000000000000000000000000000000000000000000000000000000c000000000000000000000000088a2d74f47a237a62e7a51cdda67270ce381555e00000000000000000000000000000000000000000000000000dbe9b8d798c0000000000000000000000000000000000000000000000000000000000000200b2000000000000000000000000000000000000000000000000000000000000000e5e7a050aa000000000000000000000000ee33ddcfb85e06ac1fd0a4b36f9b6958d5a7d3f0000000000000000000000000fd57b4ddbf88a4e07ff4e34c487b99af2fe82a0500000000000000000000000000000000000000000000000000dbe9b8d798c0000000000000000000000000008454d149beb26e3e3fc5ed1c87fb0b2a1b7b6c2c0000000000000000000000000000000000000000000000000000000066e9d76e878b13dbcf41a30cd1426c40858b0b1e3fba5bb4160da14ca52d7f7452c9a747679588017dfa269424f283dcaa4f3128cd87dfb579ec50ba9ed99037a3bcc9971c000000000000000000000000000000000000000000000000000000",
        "nonce": "0x42e",
        "chainId": "0x14a34"
      },
      "additionalContracts": [],
      "isFixedGasLimit": false
    }
  ],
  "receipts": [
    {
      "status": "0x1",
      "cumulativeGasUsed": "0x2b7d1",
      "logs": [
        {
          "address": "0x88a2d74f47a237a62e7a51cdda67270ce381555e",
          "topics": [
            "0x8c5be1e5ebec7d5bd14f71427d1e84f3dd0314c0f7b2291e5b200ac8c7c3b925",
            "0x0000000000000000000000008454d149beb26e3e3fc5ed1c87fb0b2a1b7b6c2c",
            "0x0000000000000000000000002a0dd3580658cc32e2d0984051da5f2312001a13"
          ],
          "data": "0x00000000000000000000000000000000000000000000000000dbe9b8d798c000",
          "blockHash": "0xa4a8eaf50c4c205940b21a63bafc1804eb74129490a406609ffb3460cfa0469a",
          "blockNumber": "0xeb3557",
          "transactionHash": "0x29a3f486994657ed98d0f3472b7cd9699d6e563103bfba55c300cd6f7de1a11f",
          "transactionIndex": "0x2",
          "logIndex": "0x2",
          "removed": false
        }
      ],
      "logsBloom": "0x000000000000000000000000000000000000000000000000000000000008000000000000000000000000000000000000000000000002000000000000002000000000000000000000400000000000000000000000000000000000000000000000000000000000000800000000000000000000000000000000000000000000000000000000000000000000000000000000000000000000000000000000000000000a0000000000000000000000000000000000000000000000000000000000000000000000000000000000000000000000080000000000000000000000000a00000010000000000000000000000000000000000000000000000000000000000000",
      "type": "0x2",
      "transactionHash": "0x29a3f486994657ed98d0f3472b7cd9699d6e563103bfba55c300cd6f7de1a11f",
      "transactionIndex": "0x2",
      "blockHash": "0xa4a8eaf50c4c205940b21a63bafc1804eb74129490a406609ffb3460cfa0469a",
      "blockNumber": "0xeb3557",
      "gasUsed": "0xb4f5",
      "effectiveGasPrice": "0xc4d9",
      "from": "0x8454d149beb26e3e3fc5ed1c87fb0b2a1b7b6c2c",
      "to": "0x88a2d74f47a237a62e7a51cdda67270ce381555e",
      "contractAddress": null,
      "l1BaseFeeScalar": "0x44d",
      "l1BlobBaseFee": "0x1",
      "l1BlobBaseFeeScalar": "0xa118b",
      "l1Fee": "0x2608ac43a",
      "l1GasPrice": "0x15972cff9",
      "l1GasUsed": "0x640"
    },
    {
      "status": "0x1",
      "cumulativeGasUsed": "0x3318d",
      "logs": [],
      "logsBloom": "0x00000000000000000000000000000000000000000000000000000000000000000000000000000000000000000000000000000000000000000000000000000000000000000000000000000000000000000000000000000000000000000000000000000000000000000000000000000000000000000000000000000000000000000000000000000000000000000000000000000000000000000000000000000000000000000000000000000000000000000000000000000000000000000000000000000000000000000000000000000000000000000000000000000000000000000000000000000000000000000000000000000000000000000000000000000000",
      "type": "0x2",
      "transactionHash": "0x806fab7f0eae15b0d9e9d4761da2c1f8012a5575950e4b35b421dfa9d35419d8",
      "transactionIndex": "0x3",
      "blockHash": "0xa4a8eaf50c4c205940b21a63bafc1804eb74129490a406609ffb3460cfa0469a",
      "blockNumber": "0xeb3557",
      "gasUsed": "0x79bc",
      "effectiveGasPrice": "0xc4d9",
      "from": "0x8454d149beb26e3e3fc5ed1c87fb0b2a1b7b6c2c",
      "to": "0xa8ed9fb5feb9eebb5239472c3cff0ee3f138079d",
      "contractAddress": null,
      "l1BaseFeeScalar": "0x44d",
      "l1BlobBaseFee": "0x1",
      "l1BlobBaseFeeScalar": "0xa118b",
      "l1Fee": "0x2608ac43a",
      "l1GasPrice": "0x15972cff9",
      "l1GasUsed": "0x640"
    },
    {
      "status": "0x1",
      "cumulativeGasUsed": "0x7b4c1",
      "logs": [
        {
          "address": "0x88a2d74f47a237a62e7a51cdda67270ce381555e",
          "topics": [
            "0x8c5be1e5ebec7d5bd14f71427d1e84f3dd0314c0f7b2291e5b200ac8c7c3b925",
            "0x0000000000000000000000008454d149beb26e3e3fc5ed1c87fb0b2a1b7b6c2c",
            "0x0000000000000000000000002a0dd3580658cc32e2d0984051da5f2312001a13"
          ],
          "data": "0x0000000000000000000000000000000000000000000000000000000000000000",
          "blockHash": "0xa4a8eaf50c4c205940b21a63bafc1804eb74129490a406609ffb3460cfa0469a",
          "blockNumber": "0xeb3557",
          "transactionHash": "0x49e16364ae0102e1c41ffc495f629215015e7d70cf335f005cc5f3f34c96a7eb",
          "transactionIndex": "0x4",
          "logIndex": "0x3",
          "removed": false
        },
        {
          "address": "0x88a2d74f47a237a62e7a51cdda67270ce381555e",
          "topics": [
            "0xddf252ad1be2c89b69c2b068fc378daa952ba7f163c4a11628f55a4df523b3ef",
            "0x0000000000000000000000008454d149beb26e3e3fc5ed1c87fb0b2a1b7b6c2c",
            "0x0000000000000000000000002a0dd3580658cc32e2d0984051da5f2312001a13"
          ],
          "data": "0x00000000000000000000000000000000000000000000000000dbe9b8d798c000",
          "blockHash": "0xa4a8eaf50c4c205940b21a63bafc1804eb74129490a406609ffb3460cfa0469a",
          "blockNumber": "0xeb3557",
          "transactionHash": "0x49e16364ae0102e1c41ffc495f629215015e7d70cf335f005cc5f3f34c96a7eb",
          "transactionIndex": "0x4",
          "logIndex": "0x4",
          "removed": false
        },
        {
          "address": "0x88a2d74f47a237a62e7a51cdda67270ce381555e",
          "topics": [
            "0x8c5be1e5ebec7d5bd14f71427d1e84f3dd0314c0f7b2291e5b200ac8c7c3b925",
            "0x0000000000000000000000002a0dd3580658cc32e2d0984051da5f2312001a13",
            "0x000000000000000000000000d3b06cebf099ce7da4accf578aaebfdbd6e88a93"
          ],
          "data": "0x00000000000000000000000000000000000000000000000000dbe9b8d798c000",
          "blockHash": "0xa4a8eaf50c4c205940b21a63bafc1804eb74129490a406609ffb3460cfa0469a",
          "blockNumber": "0xeb3557",
          "transactionHash": "0x49e16364ae0102e1c41ffc495f629215015e7d70cf335f005cc5f3f34c96a7eb",
          "transactionIndex": "0x4",
          "logIndex": "0x5",
          "removed": false
        },
        {
          "address": "0x4200000000000000000000000000000000000006",
          "topics": [
            "0xe1fffcc4923d04b559f4d29a8bfc6cda04eb5b0d3c460751c2402c5c5cc9109c",
            "0x000000000000000000000000d3b06cebf099ce7da4accf578aaebfdbd6e88a93"
          ],
          "data": "0x00000000000000000000000000000000000000000000000000433416b62927e8",
          "blockHash": "0xa4a8eaf50c4c205940b21a63bafc1804eb74129490a406609ffb3460cfa0469a",
          "blockNumber": "0xeb3557",
          "transactionHash": "0x49e16364ae0102e1c41ffc495f629215015e7d70cf335f005cc5f3f34c96a7eb",
          "transactionIndex": "0x4",
          "logIndex": "0x6",
          "removed": false
        },
        {
          "address": "0x4200000000000000000000000000000000000006",
          "topics": [
            "0xddf252ad1be2c89b69c2b068fc378daa952ba7f163c4a11628f55a4df523b3ef",
            "0x000000000000000000000000d3b06cebf099ce7da4accf578aaebfdbd6e88a93",
            "0x0000000000000000000000006486906bb2d85a6c0ccef2a2831c11a2059ebfea"
          ],
          "data": "0x00000000000000000000000000000000000000000000000000433416b62927e8",
          "blockHash": "0xa4a8eaf50c4c205940b21a63bafc1804eb74129490a406609ffb3460cfa0469a",
          "blockNumber": "0xeb3557",
          "transactionHash": "0x49e16364ae0102e1c41ffc495f629215015e7d70cf335f005cc5f3f34c96a7eb",
          "transactionIndex": "0x4",
          "logIndex": "0x7",
          "removed": false
        },
        {
          "address": "0x88a2d74f47a237a62e7a51cdda67270ce381555e",
          "topics": [
            "0x8c5be1e5ebec7d5bd14f71427d1e84f3dd0314c0f7b2291e5b200ac8c7c3b925",
            "0x0000000000000000000000002a0dd3580658cc32e2d0984051da5f2312001a13",
            "0x000000000000000000000000d3b06cebf099ce7da4accf578aaebfdbd6e88a93"
          ],
          "data": "0x0000000000000000000000000000000000000000000000000000000000000000",
          "blockHash": "0xa4a8eaf50c4c205940b21a63bafc1804eb74129490a406609ffb3460cfa0469a",
          "blockNumber": "0xeb3557",
          "transactionHash": "0x49e16364ae0102e1c41ffc495f629215015e7d70cf335f005cc5f3f34c96a7eb",
          "transactionIndex": "0x4",
          "logIndex": "0x8",
          "removed": false
        },
        {
          "address": "0x88a2d74f47a237a62e7a51cdda67270ce381555e",
          "topics": [
            "0xddf252ad1be2c89b69c2b068fc378daa952ba7f163c4a11628f55a4df523b3ef",
            "0x0000000000000000000000002a0dd3580658cc32e2d0984051da5f2312001a13",
            "0x000000000000000000000000875207858c691f192c606068f417dcf666b2ec6b"
          ],
          "data": "0x00000000000000000000000000000000000000000000000000dbe9b8d798c000",
          "blockHash": "0xa4a8eaf50c4c205940b21a63bafc1804eb74129490a406609ffb3460cfa0469a",
          "blockNumber": "0xeb3557",
          "transactionHash": "0x49e16364ae0102e1c41ffc495f629215015e7d70cf335f005cc5f3f34c96a7eb",
          "transactionIndex": "0x4",
          "logIndex": "0x9",
          "removed": false
        },
        {
          "address": "0x6486906bb2d85a6c0ccef2a2831c11a2059ebfea",
          "topics": [
            "0x1871cdf8010e63f2eb8384381a68dfa7416dc571a5517e66e88b2d2d0c0a690a"
          ],
          "data": "0x00000000000000000000000000000000000000000000000000000000005e73b0",
          "blockHash": "0xa4a8eaf50c4c205940b21a63bafc1804eb74129490a406609ffb3460cfa0469a",
          "blockNumber": "0xeb3557",
          "transactionHash": "0x49e16364ae0102e1c41ffc495f629215015e7d70cf335f005cc5f3f34c96a7eb",
          "transactionIndex": "0x4",
          "logIndex": "0xa",
          "removed": false
        },
        {
          "address": "0x875207858c691f192c606068f417dcf666b2ec6b",
          "topics": [
            "0x1871cdf8010e63f2eb8384381a68dfa7416dc571a5517e66e88b2d2d0c0a690a"
          ],
          "data": "0x00000000000000000000000000000000000000000000000000dbe9b8d798c000",
          "blockHash": "0xa4a8eaf50c4c205940b21a63bafc1804eb74129490a406609ffb3460cfa0469a",
          "blockNumber": "0xeb3557",
          "transactionHash": "0x49e16364ae0102e1c41ffc495f629215015e7d70cf335f005cc5f3f34c96a7eb",
          "transactionIndex": "0x4",
          "logIndex": "0xb",
          "removed": false
        },
        {
          "address": "0x88a2d74f47a237a62e7a51cdda67270ce381555e",
          "topics": [
            "0xddf252ad1be2c89b69c2b068fc378daa952ba7f163c4a11628f55a4df523b3ef",
            "0x000000000000000000000000875207858c691f192c606068f417dcf666b2ec6b",
            "0x0000000000000000000000000000000000000000000000000000000000000000"
          ],
          "data": "0x00000000000000000000000000000000000000000000000000dbe9b8d798c000",
          "blockHash": "0xa4a8eaf50c4c205940b21a63bafc1804eb74129490a406609ffb3460cfa0469a",
          "blockNumber": "0xeb3557",
          "transactionHash": "0x49e16364ae0102e1c41ffc495f629215015e7d70cf335f005cc5f3f34c96a7eb",
          "transactionIndex": "0x4",
          "logIndex": "0xc",
          "removed": false
        },
        {
          "address": "0x875207858c691f192c606068f417dcf666b2ec6b",
          "topics": [
            "0x696de425f79f4a40bc6d2122ca50507f0efbeabbff86a84871b7196ab8ea8df7",
            "0x0000000000000000000000006486906bb2d85a6c0ccef2a2831c11a2059ebfea"
          ],
          "data": "0x00000000000000000000000000000000000000000000000000dbe9b8d798c000",
          "blockHash": "0xa4a8eaf50c4c205940b21a63bafc1804eb74129490a406609ffb3460cfa0469a",
          "blockNumber": "0xeb3557",
          "transactionHash": "0x49e16364ae0102e1c41ffc495f629215015e7d70cf335f005cc5f3f34c96a7eb",
          "transactionIndex": "0x4",
          "logIndex": "0xd",
          "removed": false
        },
        {
          "address": "0x6486906bb2d85a6c0ccef2a2831c11a2059ebfea",
          "topics": [
            "0xd0c3c799bf9e2639de44391e7f524d229b2b55f5b1ea94b2bf7da42f7243dddd"
          ],
          "data": "0x00000000000000000000000000000000000000000000000000000000000000200000000000000000000000000000000000000000000000008f90b8876dee65380000000000000000000000002a0dd3580658cc32e2d0984051da5f2312001a130000000000000000000000000d7135aaf464555e780e2a63f3b1ef0a97b3a49900000000000000000000000000000000000000000000000000000000000007d30000000000000000000000000000000000000000000000000000000000200b2000000000000000000000000000000000000000000000000000000000000000000000000000000000000000000000000000000000000000000000000000000014000000000000000000000000420000000000000000000000000000000000000600000000000000000000000000000000000000000000000000433416b62927e800000000000000000000000000000000000000000000000000000000000001a000000000000000000000000000000000000000000000000000000000000003000000000000000000000000000000000000000000000000000000000000000360ffb615c20b3dae0d6718fd7bd2a6fdffb456f3099f3522c21c409e1bf2e7606d0000000000000000000000000000000000000000000000000000000000000140000000000000000000000000000000000000000000000000000000000000002000000000000000000000000000000000000000000000000000000000000000e5e7a050aa000000000000000000000000ee33ddcfb85e06ac1fd0a4b36f9b6958d5a7d3f0000000000000000000000000fd57b4ddbf88a4e07ff4e34c487b99af2fe82a0500000000000000000000000000000000000000000000000000dbe9b8d798c0000000000000000000000000008454d149beb26e3e3fc5ed1c87fb0b2a1b7b6c2c0000000000000000000000000000000000000000000000000000000066e9d76e878b13dbcf41a30cd1426c40858b0b1e3fba5bb4160da14ca52d7f7452c9a747679588017dfa269424f283dcaa4f3128cd87dfb579ec50ba9ed99037a3bcc9971c000000000000000000000000000000000000000000000000000000000000000000000000000000000000000000000000000000000000000000000100000000000000000000000088a2d74f47a237a62e7a51cdda67270ce381555e00000000000000000000000000000000000000000000000000dbe9b8d798c000000000000000000000000000000000000000000000000000000000000000000100000000000000000000000000000000000000000000000000000000000000200000000000000000000000000000000000000000000000000000000000000000",
          "blockHash": "0xa4a8eaf50c4c205940b21a63bafc1804eb74129490a406609ffb3460cfa0469a",
          "blockNumber": "0xeb3557",
          "transactionHash": "0x49e16364ae0102e1c41ffc495f629215015e7d70cf335f005cc5f3f34c96a7eb",
          "transactionIndex": "0x4",
          "logIndex": "0xe",
          "removed": false
        },
        {
          "address": "0x2a0dd3580658cc32e2d0984051da5f2312001a13",
          "topics": [
            "0x437cb3c5ba4364504dda6ba3c906ffb0897c7beeb1675f3aaf22a1b9a99b3994",
            "0xffb615c20b3dae0d6718fd7bd2a6fdffb456f3099f3522c21c409e1bf2e7606d",
            "0x000000000000000000000000000000000000000000000000de41ba4fc9d91ad9"
          ],
          "data": "0x0000000000000000000000000d7135aaf464555e780e2a63f3b1ef0a97b3a49900000000000000000000000000000000000000000000000000000000000000c000000000000000000000000088a2d74f47a237a62e7a51cdda67270ce381555e00000000000000000000000000000000000000000000000000dbe9b8d798c000000000000000000000000000000000000000000000000000000000000000000000000000000000000000000000000000000000000000000000433416b62927e8000000000000000000000000000000000000000000000000000000000000000f646973706174636865642063616c6c0000000000000000000000000000000000",
          "blockHash": "0xa4a8eaf50c4c205940b21a63bafc1804eb74129490a406609ffb3460cfa0469a",
          "blockNumber": "0xeb3557",
          "transactionHash": "0x49e16364ae0102e1c41ffc495f629215015e7d70cf335f005cc5f3f34c96a7eb",
          "transactionIndex": "0x4",
          "logIndex": "0xf",
          "removed": false
        }
      ],
      "logsBloom": "0x000000200000000000008020000000000000000000000000000400000008000000010010010040000020001000000000000000000002000000080000002000000000000000000210400000280080000020000001000000000000000080000000000000000608000800000040000108020400000400000000000002100000000000000001000000000000000000000000000000210020000000000000000000000a2000000000000400000000000000002000000000004000000100000000100000000002000010000000000000000000080000000000000000080000004a20000810000000000000000000000000000004000000000000400000000000000000",
      "type": "0x2",
      "transactionHash": "0x49e16364ae0102e1c41ffc495f629215015e7d70cf335f005cc5f3f34c96a7eb",
      "transactionIndex": "0x4",
      "blockHash": "0xa4a8eaf50c4c205940b21a63bafc1804eb74129490a406609ffb3460cfa0469a",
      "blockNumber": "0xeb3557",
      "gasUsed": "0x48334",
      "effectiveGasPrice": "0xc4d9",
      "from": "0x8454d149beb26e3e3fc5ed1c87fb0b2a1b7b6c2c",
      "to": "0x2a0dd3580658cc32e2d0984051da5f2312001a13",
      "contractAddress": null,
      "l1BaseFeeScalar": "0x44d",
      "l1BlobBaseFee": "0x1",
      "l1BlobBaseFeeScalar": "0xa118b",
      "l1Fee": "0x6d7940290",
      "l1GasPrice": "0x15972cff9",
      "l1GasUsed": "0x11fd"
    }
  ],
  "libraries": [
    "src/utils/EigenlayerMsgDecoders.sol:AgentOwnerSignature:0xe1483Fa2bbFEADf276b7e3D90b4395041Dfc858f",
    "src/utils/EigenlayerMsgDecoders.sol:DelegationDecoders:0x24e268615e88AAce1E0603cF6c2bec3E8697533B",
    "src/utils/EigenlayerMsgEncoders.sol:EigenlayerMsgEncoders:0xb1e62718F6f0328EEDB329cd277543cc0BBC8cf6",
    "src/utils/FunctionSelectorDecoder.sol:FunctionSelectorDecoder:0x20BC9f23a97E893508bBfdC2e0dBf9cbddf436B5"
  ],
  "pending": [],
  "returns": {},
  "timestamp": 1726597519,
  "chain": 84532,
  "commit": "2d2c0cd"
}