{
  "transactions": [
    {
      "hash": "0x4fdaf7a7de9bbe595b11003a6b81393858c26080c72f691f9b2af98073d573c3",
      "transactionType": "CALL",
      "contractName": null,
      "contractAddress": "0xc2d42fc44342a081c8a6bf348e4231fedf47cad2",
      "function": null,
      "arguments": null,
      "transaction": {
        "from": "0x8454d149beb26e3e3fc5ed1c87fb0b2a1b7b6c2c",
        "to": "0xc2d42fc44342a081c8a6bf348e4231fedf47cad2",
        "gas": "0x714d",
        "value": "0x470de4df820000",
        "input": "0x",
        "nonce": "0x42f",
        "chainId": "0x14a34"
      },
      "additionalContracts": [],
      "isFixedGasLimit": false
    },
    {
      "hash": "0xb91397c0729c991485427e716724fe2118b4271d38ddf69d1d3be3b0b32b9cd4",
      "transactionType": "CALL",
      "contractName": null,
      "contractAddress": "0x88a2d74f47a237a62e7a51cdda67270ce381555e",
      "function": "drip(address)",
      "arguments": [
        "0xc2D42fc44342A081c8a6bf348e4231fEdF47CaD2"
      ],
      "transaction": {
        "from": "0x8454d149beb26e3e3fc5ed1c87fb0b2a1b7b6c2c",
        "to": "0x88a2d74f47a237a62e7a51cdda67270ce381555e",
        "gas": "0x1230a",
        "value": "0x0",
        "input": "0x67a5cd06000000000000000000000000c2d42fc44342a081c8a6bf348e4231fedf47cad2",
        "nonce": "0x430",
        "chainId": "0x14a34"
      },
      "additionalContracts": [],
      "isFixedGasLimit": false
    },
    {
      "hash": "0x5431db09f53461e4b8076fb4fc5ecfc9455435da1f8ffdb67b3ef0e311ec90b2",
      "transactionType": "CALL",
      "contractName": null,
      "contractAddress": "0x88a2d74f47a237a62e7a51cdda67270ce381555e",
      "function": "approve(address,uint256)",
      "arguments": [
        "0x2a0dd3580658CC32e2D0984051DA5f2312001a13",
        "61900000000000000"
      ],
      "transaction": {
        "from": "0xc2d42fc44342a081c8a6bf348e4231fedf47cad2",
        "to": "0x88a2d74f47a237a62e7a51cdda67270ce381555e",
        "gas": "0xf9f2",
        "value": "0x0",
        "input": "0x095ea7b30000000000000000000000002a0dd3580658cc32e2d0984051da5f2312001a1300000000000000000000000000000000000000000000000000dbe9b8d798c000",
        "nonce": "0x0",
        "chainId": "0x14a34"
      },
      "additionalContracts": [],
      "isFixedGasLimit": false
    },
    {
      "hash": "0x3194584ab93728fb9ef9d13e92875024bb7cc6521b6ef1a2732f6cb1ca82ef4e",
      "transactionType": "CALL",
      "contractName": "TransparentUpgradeableProxy",
      "contractAddress": "0xa8ed9fb5feb9eebb5239472c3cff0ee3f138079d",
      "function": null,
      "arguments": null,
      "transaction": {
        "from": "0xc2d42fc44342a081c8a6bf348e4231fedf47cad2",
        "to": "0xa8ed9fb5feb9eebb5239472c3cff0ee3f138079d",
        "gas": "0xa824",
        "value": "0x0",
        "input": "0xe83008eee7a050aa00000000000000000000000000000000000000000000000000000000",
        "nonce": "0x1",
        "chainId": "0x14a34"
      },
      "additionalContracts": [],
      "isFixedGasLimit": false
    },
    {
      "hash": "0x205a85ef0b4175e2191882e647f16453936d97f1f8f6084ad71a218766942ef3",
      "transactionType": "CALL",
      "contractName": "TransparentUpgradeableProxy",
      "contractAddress": "0x2a0dd3580658cc32e2d0984051da5f2312001a13",
      "function": null,
      "arguments": null,
      "transaction": {
        "from": "0xc2d42fc44342a081c8a6bf348e4231fedf47cad2",
        "to": "0x2a0dd3580658cc32e2d0984051da5f2312001a13",
        "gas": "0x63b9f",
        "value": "0x433416b62927e8",
        "input": "0x1b3565ab000000000000000000000000000000000000000000000000de41ba4fc9d91ad90000000000000000000000000d7135aaf464555e780e2a63f3b1ef0a97b3a49900000000000000000000000000000000000000000000000000000000000000c000000000000000000000000088a2d74f47a237a62e7a51cdda67270ce381555e00000000000000000000000000000000000000000000000000dbe9b8d798c0000000000000000000000000000000000000000000000000000000000000200b2000000000000000000000000000000000000000000000000000000000000000e5e7a050aa000000000000000000000000ee33ddcfb85e06ac1fd0a4b36f9b6958d5a7d3f0000000000000000000000000fd57b4ddbf88a4e07ff4e34c487b99af2fe82a0500000000000000000000000000000000000000000000000000dbe9b8d798c000000000000000000000000000c2d42fc44342a081c8a6bf348e4231fedf47cad20000000000000000000000000000000000000000000000000000000066e9e17aee4c1d36bac9d8b20246cf7908e580c388086a71f4f4afcebec8282151c13ec9117ffa312ea066d5711c77a0beef114e4a0b24627b6350ea5ba6598f01e278071b000000000000000000000000000000000000000000000000000000",
        "nonce": "0x2",
        "chainId": "0x14a34"
      },
      "additionalContracts": [],
      "isFixedGasLimit": false
    }
  ],
  "receipts": [
    {
      "status": "0x1",
      "cumulativeGasUsed": "0xf2b5a",
      "logs": [],
      "logsBloom": "0x00000000000000000000000000000000000000000000000000000000000000000000000000000000000000000000000000000000000000000000000000000000000000000000000000000000000000000000000000000000000000000000000000000000000000000000000000000000000000000000000000000000000000000000000000000000000000000000000000000000000000000000000000000000000000000000000000000000000000000000000000000000000000000000000000000000000000000000000000000000000000000000000000000000000000000000000000000000000000000000000000000000000000000000000000000000",
      "type": "0x2",
      "transactionHash": "0x4fdaf7a7de9bbe595b11003a6b81393858c26080c72f691f9b2af98073d573c3",
      "transactionIndex": "0x4",
      "blockHash": "0xa67b2882c50088a45cc17c6585fd6fb599f17641b20fa430a844c77c27cf6d93",
      "blockNumber": "0xeb3a5e",
      "gasUsed": "0x5208",
      "effectiveGasPrice": "0xf4356",
      "from": "0x8454d149beb26e3e3fc5ed1c87fb0b2a1b7b6c2c",
      "to": "0xc2d42fc44342a081c8a6bf348e4231fedf47cad2",
      "contractAddress": null,
      "l1BaseFeeScalar": "0x44d",
      "l1BlobBaseFee": "0x1",
      "l1BlobBaseFeeScalar": "0xa118b",
      "l1Fee": "0x21c4dc914",
      "l1GasPrice": "0x132b64520",
      "l1GasUsed": "0x640"
    },
    {
      "status": "0x1",
      "cumulativeGasUsed": "0xa15f6",
      "logs": [
        {
          "address": "0x88a2d74f47a237a62e7a51cdda67270ce381555e",
          "topics": [
            "0xddf252ad1be2c89b69c2b068fc378daa952ba7f163c4a11628f55a4df523b3ef",
            "0x0000000000000000000000000000000000000000000000000000000000000000",
            "0x000000000000000000000000c2d42fc44342a081c8a6bf348e4231fedf47cad2"
          ],
          "data": "0x0000000000000000000000000000000000000000000000000de0b6b3a7640000",
          "blockHash": "0x3def1ee19531a632f7c8c0301e611547292fbdcb89256bb31ce01e67ccb7157a",
          "blockNumber": "0xeb3a62",
          "transactionHash": "0xb91397c0729c991485427e716724fe2118b4271d38ddf69d1d3be3b0b32b9cd4",
          "transactionIndex": "0x5",
          "logIndex": "0x7",
          "removed": false
        }
      ],
      "logsBloom": "0x00000000000000000000000000000000000000000000000000000200000800000000000000000000000000000000000000000000000000000000000000000000000000000000000000000008000000000000000000000000000000000000000000000000020000080000000000000800000000000000000100000010000000000000000000000000000000000000000000000000000000000000000000000000000000000000000000000000000000000000000000000000000000000000000000000002000000000000000000000000000000000000000000000000000220000004000000000000000000000000000000000000000000000000000000000000",
      "type": "0x2",
      "transactionHash": "0xb91397c0729c991485427e716724fe2118b4271d38ddf69d1d3be3b0b32b9cd4",
      "transactionIndex": "0x5",
      "blockHash": "0x3def1ee19531a632f7c8c0301e611547292fbdcb89256bb31ce01e67ccb7157a",
      "blockNumber": "0xeb3a62",
      "gasUsed": "0xc701",
      "effectiveGasPrice": "0xf4356",
      "from": "0x8454d149beb26e3e3fc5ed1c87fb0b2a1b7b6c2c",
      "to": "0x88a2d74f47a237a62e7a51cdda67270ce381555e",
      "contractAddress": null,
      "l1BaseFeeScalar": "0x44d",
      "l1BlobBaseFee": "0x1",
      "l1BlobBaseFeeScalar": "0xa118b",
      "l1Fee": "0x205a567f9",
      "l1GasPrice": "0x125d997e2",
      "l1GasUsed": "0x640"
    },
    {
      "status": "0x1",
      "cumulativeGasUsed": "0x53690",
      "logs": [
        {
          "address": "0x88a2d74f47a237a62e7a51cdda67270ce381555e",
          "topics": [
            "0x8c5be1e5ebec7d5bd14f71427d1e84f3dd0314c0f7b2291e5b200ac8c7c3b925",
            "0x000000000000000000000000c2d42fc44342a081c8a6bf348e4231fedf47cad2",
            "0x0000000000000000000000002a0dd3580658cc32e2d0984051da5f2312001a13"
          ],
          "data": "0x00000000000000000000000000000000000000000000000000dbe9b8d798c000",
          "blockHash": "0xd7bf97265e66e8c93878e5d09693a9e7d8fcc195815ab19b3cef18d6ddea389c",
          "blockNumber": "0xeb3a67",
          "transactionHash": "0x5431db09f53461e4b8076fb4fc5ecfc9455435da1f8ffdb67b3ef0e311ec90b2",
          "transactionIndex": "0x2",
          "logIndex": "0x0",
          "removed": false
        }
      ],
      "logsBloom": "0x00000000000000000000000000000000000000000000000000000200000800000000000000000000000000000000000000000000000200000000000000200000000000000000000040000000000000000000000000000000000000000000000000000000000000080000000000000000000000000000000100000000000000000000000000000000000000000000000000000000000000000000000000000000020000000000000000000000000000000000000000000000000000000000000000000000000000000000000000000000000000000000000000000000000200000014000000000000000000000000000000000000000000000000000000000000",
      "type": "0x2",
      "transactionHash": "0x5431db09f53461e4b8076fb4fc5ecfc9455435da1f8ffdb67b3ef0e311ec90b2",
      "transactionIndex": "0x2",
      "blockHash": "0xd7bf97265e66e8c93878e5d09693a9e7d8fcc195815ab19b3cef18d6ddea389c",
      "blockNumber": "0xeb3a67",
      "gasUsed": "0xb4f5",
      "effectiveGasPrice": "0xf4356",
      "from": "0xc2d42fc44342a081c8a6bf348e4231fedf47cad2",
      "to": "0x88a2d74f47a237a62e7a51cdda67270ce381555e",
      "contractAddress": null,
      "l1BaseFeeScalar": "0x44d",
      "l1BlobBaseFee": "0x1",
      "l1BlobBaseFeeScalar": "0xa118b",
      "l1Fee": "0x205a567f9",
      "l1GasPrice": "0x125d997e2",
      "l1GasUsed": "0x640"
    },
    {
      "status": "0x1",
      "cumulativeGasUsed": "0x2db4fa",
      "logs": [],
      "logsBloom": "0x00000000000000000000000000000000000000000000000000000000000000000000000000000000000000000000000000000000000000000000000000000000000000000000000000000000000000000000000000000000000000000000000000000000000000000000000000000000000000000000000000000000000000000000000000000000000000000000000000000000000000000000000000000000000000000000000000000000000000000000000000000000000000000000000000000000000000000000000000000000000000000000000000000000000000000000000000000000000000000000000000000000000000000000000000000000",
      "type": "0x2",
      "transactionHash": "0x3194584ab93728fb9ef9d13e92875024bb7cc6521b6ef1a2732f6cb1ca82ef4e",
      "transactionIndex": "0x4",
      "blockHash": "0x7fbf2cca2b0507a08c1aabf4c84fe36b79fdf019194b5ab05ee0d401a7a3610c",
      "blockNumber": "0xeb3a6a",
      "gasUsed": "0x79bc",
      "effectiveGasPrice": "0xf4355",
      "from": "0xc2d42fc44342a081c8a6bf348e4231fedf47cad2",
      "to": "0xa8ed9fb5feb9eebb5239472c3cff0ee3f138079d",
      "contractAddress": null,
      "l1BaseFeeScalar": "0x44d",
      "l1BlobBaseFee": "0x1",
      "l1BlobBaseFeeScalar": "0xa118b",
      "l1Fee": "0x205a567f9",
      "l1GasPrice": "0x125d997e2",
      "l1GasUsed": "0x640"
    },
    {
      "status": "0x1",
      "cumulativeGasUsed": "0x11889c",
      "logs": [
        {
          "address": "0x88a2d74f47a237a62e7a51cdda67270ce381555e",
          "topics": [
            "0x8c5be1e5ebec7d5bd14f71427d1e84f3dd0314c0f7b2291e5b200ac8c7c3b925",
            "0x000000000000000000000000c2d42fc44342a081c8a6bf348e4231fedf47cad2",
            "0x0000000000000000000000002a0dd3580658cc32e2d0984051da5f2312001a13"
          ],
          "data": "0x0000000000000000000000000000000000000000000000000000000000000000",
          "blockHash": "0x50d165d4199bea4ced5fd4453ab36d992c605173df562f4b211dc1cfe2aeb4dd",
          "blockNumber": "0xeb3a6e",
          "transactionHash": "0x205a85ef0b4175e2191882e647f16453936d97f1f8f6084ad71a218766942ef3",
          "transactionIndex": "0x7",
          "logIndex": "0x7",
          "removed": false
        },
        {
          "address": "0x88a2d74f47a237a62e7a51cdda67270ce381555e",
          "topics": [
            "0xddf252ad1be2c89b69c2b068fc378daa952ba7f163c4a11628f55a4df523b3ef",
            "0x000000000000000000000000c2d42fc44342a081c8a6bf348e4231fedf47cad2",
            "0x0000000000000000000000002a0dd3580658cc32e2d0984051da5f2312001a13"
          ],
          "data": "0x00000000000000000000000000000000000000000000000000dbe9b8d798c000",
          "blockHash": "0x50d165d4199bea4ced5fd4453ab36d992c605173df562f4b211dc1cfe2aeb4dd",
          "blockNumber": "0xeb3a6e",
          "transactionHash": "0x205a85ef0b4175e2191882e647f16453936d97f1f8f6084ad71a218766942ef3",
          "transactionIndex": "0x7",
          "logIndex": "0x8",
          "removed": false
        },
        {
          "address": "0x88a2d74f47a237a62e7a51cdda67270ce381555e",
          "topics": [
            "0x8c5be1e5ebec7d5bd14f71427d1e84f3dd0314c0f7b2291e5b200ac8c7c3b925",
            "0x0000000000000000000000002a0dd3580658cc32e2d0984051da5f2312001a13",
            "0x000000000000000000000000d3b06cebf099ce7da4accf578aaebfdbd6e88a93"
          ],
          "data": "0x00000000000000000000000000000000000000000000000000dbe9b8d798c000",
          "blockHash": "0x50d165d4199bea4ced5fd4453ab36d992c605173df562f4b211dc1cfe2aeb4dd",
          "blockNumber": "0xeb3a6e",
          "transactionHash": "0x205a85ef0b4175e2191882e647f16453936d97f1f8f6084ad71a218766942ef3",
          "transactionIndex": "0x7",
          "logIndex": "0x9",
          "removed": false
        },
        {
          "address": "0x4200000000000000000000000000000000000006",
          "topics": [
            "0xe1fffcc4923d04b559f4d29a8bfc6cda04eb5b0d3c460751c2402c5c5cc9109c",
            "0x000000000000000000000000d3b06cebf099ce7da4accf578aaebfdbd6e88a93"
          ],
          "data": "0x00000000000000000000000000000000000000000000000000433416b62927e8",
          "blockHash": "0x50d165d4199bea4ced5fd4453ab36d992c605173df562f4b211dc1cfe2aeb4dd",
          "blockNumber": "0xeb3a6e",
          "transactionHash": "0x205a85ef0b4175e2191882e647f16453936d97f1f8f6084ad71a218766942ef3",
          "transactionIndex": "0x7",
          "logIndex": "0xa",
          "removed": false
        },
        {
          "address": "0x4200000000000000000000000000000000000006",
          "topics": [
            "0xddf252ad1be2c89b69c2b068fc378daa952ba7f163c4a11628f55a4df523b3ef",
            "0x000000000000000000000000d3b06cebf099ce7da4accf578aaebfdbd6e88a93",
            "0x0000000000000000000000006486906bb2d85a6c0ccef2a2831c11a2059ebfea"
          ],
          "data": "0x00000000000000000000000000000000000000000000000000433416b62927e8",
          "blockHash": "0x50d165d4199bea4ced5fd4453ab36d992c605173df562f4b211dc1cfe2aeb4dd",
          "blockNumber": "0xeb3a6e",
          "transactionHash": "0x205a85ef0b4175e2191882e647f16453936d97f1f8f6084ad71a218766942ef3",
          "transactionIndex": "0x7",
          "logIndex": "0xb",
          "removed": false
        },
        {
          "address": "0x88a2d74f47a237a62e7a51cdda67270ce381555e",
          "topics": [
            "0x8c5be1e5ebec7d5bd14f71427d1e84f3dd0314c0f7b2291e5b200ac8c7c3b925",
            "0x0000000000000000000000002a0dd3580658cc32e2d0984051da5f2312001a13",
            "0x000000000000000000000000d3b06cebf099ce7da4accf578aaebfdbd6e88a93"
          ],
          "data": "0x0000000000000000000000000000000000000000000000000000000000000000",
          "blockHash": "0x50d165d4199bea4ced5fd4453ab36d992c605173df562f4b211dc1cfe2aeb4dd",
          "blockNumber": "0xeb3a6e",
          "transactionHash": "0x205a85ef0b4175e2191882e647f16453936d97f1f8f6084ad71a218766942ef3",
          "transactionIndex": "0x7",
          "logIndex": "0xc",
          "removed": false
        },
        {
          "address": "0x88a2d74f47a237a62e7a51cdda67270ce381555e",
          "topics": [
            "0xddf252ad1be2c89b69c2b068fc378daa952ba7f163c4a11628f55a4df523b3ef",
            "0x0000000000000000000000002a0dd3580658cc32e2d0984051da5f2312001a13",
            "0x000000000000000000000000875207858c691f192c606068f417dcf666b2ec6b"
          ],
          "data": "0x00000000000000000000000000000000000000000000000000dbe9b8d798c000",
          "blockHash": "0x50d165d4199bea4ced5fd4453ab36d992c605173df562f4b211dc1cfe2aeb4dd",
          "blockNumber": "0xeb3a6e",
          "transactionHash": "0x205a85ef0b4175e2191882e647f16453936d97f1f8f6084ad71a218766942ef3",
          "transactionIndex": "0x7",
          "logIndex": "0xd",
          "removed": false
        },
        {
          "address": "0x6486906bb2d85a6c0ccef2a2831c11a2059ebfea",
          "topics": [
            "0x1871cdf8010e63f2eb8384381a68dfa7416dc571a5517e66e88b2d2d0c0a690a"
          ],
          "data": "0x00000000000000000000000000000000000000000000000000000000005e73b0",
          "blockHash": "0x50d165d4199bea4ced5fd4453ab36d992c605173df562f4b211dc1cfe2aeb4dd",
          "blockNumber": "0xeb3a6e",
          "transactionHash": "0x205a85ef0b4175e2191882e647f16453936d97f1f8f6084ad71a218766942ef3",
          "transactionIndex": "0x7",
          "logIndex": "0xe",
          "removed": false
        },
        {
          "address": "0x875207858c691f192c606068f417dcf666b2ec6b",
          "topics": [
            "0x1871cdf8010e63f2eb8384381a68dfa7416dc571a5517e66e88b2d2d0c0a690a"
          ],
          "data": "0x00000000000000000000000000000000000000000000000000dbe9b8d798c000",
          "blockHash": "0x50d165d4199bea4ced5fd4453ab36d992c605173df562f4b211dc1cfe2aeb4dd",
          "blockNumber": "0xeb3a6e",
          "transactionHash": "0x205a85ef0b4175e2191882e647f16453936d97f1f8f6084ad71a218766942ef3",
          "transactionIndex": "0x7",
          "logIndex": "0xf",
          "removed": false
        },
        {
          "address": "0x88a2d74f47a237a62e7a51cdda67270ce381555e",
          "topics": [
            "0xddf252ad1be2c89b69c2b068fc378daa952ba7f163c4a11628f55a4df523b3ef",
            "0x000000000000000000000000875207858c691f192c606068f417dcf666b2ec6b",
            "0x0000000000000000000000000000000000000000000000000000000000000000"
          ],
          "data": "0x00000000000000000000000000000000000000000000000000dbe9b8d798c000",
          "blockHash": "0x50d165d4199bea4ced5fd4453ab36d992c605173df562f4b211dc1cfe2aeb4dd",
          "blockNumber": "0xeb3a6e",
          "transactionHash": "0x205a85ef0b4175e2191882e647f16453936d97f1f8f6084ad71a218766942ef3",
          "transactionIndex": "0x7",
          "logIndex": "0x10",
          "removed": false
        },
        {
          "address": "0x875207858c691f192c606068f417dcf666b2ec6b",
          "topics": [
            "0x696de425f79f4a40bc6d2122ca50507f0efbeabbff86a84871b7196ab8ea8df7",
            "0x0000000000000000000000006486906bb2d85a6c0ccef2a2831c11a2059ebfea"
          ],
          "data": "0x00000000000000000000000000000000000000000000000000dbe9b8d798c000",
          "blockHash": "0x50d165d4199bea4ced5fd4453ab36d992c605173df562f4b211dc1cfe2aeb4dd",
          "blockNumber": "0xeb3a6e",
          "transactionHash": "0x205a85ef0b4175e2191882e647f16453936d97f1f8f6084ad71a218766942ef3",
          "transactionIndex": "0x7",
          "logIndex": "0x11",
          "removed": false
        },
        {
          "address": "0x6486906bb2d85a6c0ccef2a2831c11a2059ebfea",
          "topics": [
            "0xd0c3c799bf9e2639de44391e7f524d229b2b55f5b1ea94b2bf7da42f7243dddd"
          ],
          "data": "0x00000000000000000000000000000000000000000000000000000000000000200000000000000000000000000000000000000000000000008f90b8876dee65380000000000000000000000002a0dd3580658cc32e2d0984051da5f2312001a130000000000000000000000000d7135aaf464555e780e2a63f3b1ef0a97b3a49900000000000000000000000000000000000000000000000000000000000007d50000000000000000000000000000000000000000000000000000000000200b2000000000000000000000000000000000000000000000000000000000000000000000000000000000000000000000000000000000000000000000000000000015000000000000000000000000420000000000000000000000000000000000000600000000000000000000000000000000000000000000000000433416b62927e800000000000000000000000000000000000000000000000000000000000001a000000000000000000000000000000000000000000000000000000000000003000000000000000000000000000000000000000000000000000000000000000360c35ae3bb8966371d8ff988f84f2deadb781ffbcde865b7ad500f6e5c92bb34a00000000000000000000000000000000000000000000000000000000000000140000000000000000000000000000000000000000000000000000000000000002000000000000000000000000000000000000000000000000000000000000000e5e7a050aa000000000000000000000000ee33ddcfb85e06ac1fd0a4b36f9b6958d5a7d3f0000000000000000000000000fd57b4ddbf88a4e07ff4e34c487b99af2fe82a0500000000000000000000000000000000000000000000000000dbe9b8d798c000000000000000000000000000c2d42fc44342a081c8a6bf348e4231fedf47cad20000000000000000000000000000000000000000000000000000000066e9e17aee4c1d36bac9d8b20246cf7908e580c388086a71f4f4afcebec8282151c13ec9117ffa312ea066d5711c77a0beef114e4a0b24627b6350ea5ba6598f01e278071b000000000000000000000000000000000000000000000000000000000000000000000000000000000000000000000000000000000000000000000100000000000000000000000088a2d74f47a237a62e7a51cdda67270ce381555e00000000000000000000000000000000000000000000000000dbe9b8d798c000000000000000000000000000000000000000000000000000000000000000000100000000000000000000000000000000000000000000000000000000000000200000000000000000000000000000000000000000000000000000000000000000",
          "blockHash": "0x50d165d4199bea4ced5fd4453ab36d992c605173df562f4b211dc1cfe2aeb4dd",
          "blockNumber": "0xeb3a6e",
          "transactionHash": "0x205a85ef0b4175e2191882e647f16453936d97f1f8f6084ad71a218766942ef3",
          "transactionIndex": "0x7",
          "logIndex": "0x12",
          "removed": false
        },
        {
          "address": "0x2a0dd3580658cc32e2d0984051da5f2312001a13",
          "topics": [
            "0x437cb3c5ba4364504dda6ba3c906ffb0897c7beeb1675f3aaf22a1b9a99b3994",
            "0xc35ae3bb8966371d8ff988f84f2deadb781ffbcde865b7ad500f6e5c92bb34a0",
            "0x000000000000000000000000000000000000000000000000de41ba4fc9d91ad9"
          ],
          "data": "0x0000000000000000000000000d7135aaf464555e780e2a63f3b1ef0a97b3a49900000000000000000000000000000000000000000000000000000000000000c000000000000000000000000088a2d74f47a237a62e7a51cdda67270ce381555e00000000000000000000000000000000000000000000000000dbe9b8d798c000000000000000000000000000000000000000000000000000000000000000000000000000000000000000000000000000000000000000000000433416b62927e8000000000000000000000000000000000000000000000000000000000000000f646973706174636865642063616c6c0000000000000000000000000000000000",
          "blockHash": "0x50d165d4199bea4ced5fd4453ab36d992c605173df562f4b211dc1cfe2aeb4dd",
          "blockNumber": "0xeb3a6e",
          "transactionHash": "0x205a85ef0b4175e2191882e647f16453936d97f1f8f6084ad71a218766942ef3",
          "transactionIndex": "0x7",
          "logIndex": "0x13",
          "removed": false
        }
      ],
      "logsBloom": "0x00000020000000000000802000000000000000000000000000040200000800000001000001004000002000100000000000000000000200000008000000200000000000000000021040000028008000002020000100000000000000018000000000000000060000080000004000010802040000040000000100000210000000000000000100000000000000000000000000000021002000000000000000000000022000000000000400000000000000002000000000004000000100000000100000000002000010000000000000000000000000000000000000080000004220000014000000000004000000000000000004000000000000400000000000000000",
      "type": "0x2",
      "transactionHash": "0x205a85ef0b4175e2191882e647f16453936d97f1f8f6084ad71a218766942ef3",
      "transactionIndex": "0x7",
      "blockHash": "0x50d165d4199bea4ced5fd4453ab36d992c605173df562f4b211dc1cfe2aeb4dd",
      "blockNumber": "0xeb3a6e",
      "gasUsed": "0x48334",
      "effectiveGasPrice": "0xf4355",
      "from": "0xc2d42fc44342a081c8a6bf348e4231fedf47cad2",
      "to": "0x2a0dd3580658cc32e2d0984051da5f2312001a13",
      "contractAddress": null,
      "l1BaseFeeScalar": "0x44d",
      "l1BlobBaseFee": "0x1",
      "l1BlobBaseFeeScalar": "0xa118b",
      "l1Fee": "0x68c29c820",
      "l1GasPrice": "0x14a93369d",
      "l1GasUsed": "0x11fd"
    }
  ],
  "libraries": [
    "src/utils/EigenlayerMsgDecoders.sol:AgentOwnerSignature:0xe1483Fa2bbFEADf276b7e3D90b4395041Dfc858f",
    "src/utils/EigenlayerMsgDecoders.sol:DelegationDecoders:0x24e268615e88AAce1E0603cF6c2bec3E8697533B",
    "src/utils/EigenlayerMsgEncoders.sol:EigenlayerMsgEncoders:0xb1e62718F6f0328EEDB329cd277543cc0BBC8cf6",
    "src/utils/FunctionSelectorDecoder.sol:FunctionSelectorDecoder:0x20BC9f23a97E893508bBfdC2e0dBf9cbddf436B5"
  ],
  "pending": [],
  "returns": {},
  "timestamp": 1726600129,
  "chain": 84532,
  "commit": "2d2c0cd"
}