{
  "transactions": [
    {
      "hash": "0xe4e062064e3195838bff163d7fcfab2faec82163bc5eb8d94e23ea6fc1beb6c5",
      "transactionType": "CALL",
      "contractName": null,
      "contractAddress": "0x88a2d74f47a237a62e7a51cdda67270ce381555e",
      "function": "drip(address)",
      "arguments": [
        "0x1D52bC3415AAe68806E3Fd44D4cdb0b63E68068A"
      ],
      "transaction": {
        "from": "0x8454d149beb26e3e3fc5ed1c87fb0b2a1b7b6c2c",
        "to": "0x88a2d74f47a237a62e7a51cdda67270ce381555e",
        "gas": "0xb69c",
        "value": "0x0",
        "input": "0x67a5cd060000000000000000000000001d52bc3415aae68806e3fd44d4cdb0b63e68068a",
        "nonce": "0x2ed",
        "chainId": "0x14a34"
      },
      "additionalContracts": [],
      "isFixedGasLimit": false
    },
    {
      "hash": "0x5fbbeedf2555b30521eb367915b2169dc7e2f92528511f4a00387ec73df5e9d5",
      "transactionType": "CALL",
      "contractName": "TransparentUpgradeableProxy",
      "contractAddress": "0x1d52bc3415aae68806e3fd44d4cdb0b63e68068a",
      "function": null,
      "arguments": null,
      "transaction": {
        "from": "0x8454d149beb26e3e3fc5ed1c87fb0b2a1b7b6c2c",
        "to": "0x1d52bc3415aae68806e3fd44d4cdb0b63e68068a",
        "gas": "0x5f31c",
        "value": "0x0",
        "input": "0x1b3565ab000000000000000000000000000000000000000000000000de41ba4fc9d91ad90000000000000000000000008645c75d0c75b859146aebb74076b319c9331c4e00000000000000000000000000000000000000000000000000000000000000c000000000000000000000000088a2d74f47a237a62e7a51cdda67270ce381555e00000000000000000000000000000000000000000000000000dbe9b8d798c000000000000000000000000000000000000000000000000000000000000000000000000000000000000000000000000000000000000000000000000000000000e5e7a050aa000000000000000000000000ee33ddcfb85e06ac1fd0a4b36f9b6958d5a7d3f0000000000000000000000000fd57b4ddbf88a4e07ff4e34c487b99af2fe82a0500000000000000000000000000000000000000000000000000dbe9b8d798c0000000000000000000000000008454d149beb26e3e3fc5ed1c87fb0b2a1b7b6c2c0000000000000000000000000000000000000000000000000000000066dce44c0b9b4067e33b121afb85e94d09cb0efd437c80db1346331969fe36eed6013bac2f94c726e1526165d07f3efffdc001ba8b62935e63256231dc0e96d6ad615e8d1c000000000000000000000000000000000000000000000000000000",
        "nonce": "0x2ee",
        "chainId": "0x14a34"
      },
      "additionalContracts": [],
      "isFixedGasLimit": false
    }
  ],
  "receipts": [
    {
      "status": "0x1",
      "cumulativeGasUsed": "0x5799a",
      "logs": [
        {
          "address": "0x88a2d74f47a237a62e7a51cdda67270ce381555e",
          "topics": [
            "0xddf252ad1be2c89b69c2b068fc378daa952ba7f163c4a11628f55a4df523b3ef",
            "0x0000000000000000000000000000000000000000000000000000000000000000",
            "0x0000000000000000000000001d52bc3415aae68806e3fd44d4cdb0b63e68068a"
          ],
          "data": "0x0000000000000000000000000000000000000000000000000de0b6b3a7640000",
          "blockHash": "0xc87dbc84186bf04ee837685be01582dc849f1a13ca08b2f845433b3c20a0c1a8",
          "blockNumber": "0xe4bbb6",
          "transactionHash": "0xe4e062064e3195838bff163d7fcfab2faec82163bc5eb8d94e23ea6fc1beb6c5",
          "transactionIndex": "0x3",
          "logIndex": "0x8",
          "removed": false
        }
      ],
      "logsBloom": "0x00000000000000000000000000000000000000000000000000000000000800000000000000000200000000000000000000000000000000000000000000000000000000000000000000000008000000000000000000000000000000000000000000000000020020080000000000000800000000000000000000000010000000000000000000000000000000000000000000000000000000000000000000000000000000000000000000000000000000000000000000000000000000000000000000000002000000000000000000000000000000000000000000000000000220000000000000000000000004000000000000000000000000000000000000000000",
      "type": "0x2",
      "transactionHash": "0xe4e062064e3195838bff163d7fcfab2faec82163bc5eb8d94e23ea6fc1beb6c5",
      "transactionIndex": "0x3",
      "blockHash": "0xc87dbc84186bf04ee837685be01582dc849f1a13ca08b2f845433b3c20a0c1a8",
      "blockNumber": "0xe4bbb6",
      "gasUsed": "0x8435",
      "effectiveGasPrice": "0x9fe",
      "from": "0x8454d149beb26e3e3fc5ed1c87fb0b2a1b7b6c2c",
      "to": "0x88a2d74f47a237a62e7a51cdda67270ce381555e",
      "contractAddress": null,
      "l1BaseFeeScalar": "0x44d",
      "l1BlobBaseFee": "0x7e800aac",
      "l1BlobBaseFeeScalar": "0xa118b",
      "l1Fee": "0x20a78d6d0e",
      "l1GasPrice": "0x70ddb46",
      "l1GasUsed": "0x640"
    },
    {
      "status": "0x1",
      "cumulativeGasUsed": "0x9c84f",
      "logs": [
        {
          "address": "0x88a2d74f47a237a62e7a51cdda67270ce381555e",
          "topics": [
            "0x8c5be1e5ebec7d5bd14f71427d1e84f3dd0314c0f7b2291e5b200ac8c7c3b925",
            "0x0000000000000000000000001d52bc3415aae68806e3fd44d4cdb0b63e68068a",
            "0x000000000000000000000000d3b06cebf099ce7da4accf578aaebfdbd6e88a93"
          ],
          "data": "0x00000000000000000000000000000000000000000000000000dbe9b8d798c000",
          "blockHash": "0xc87dbc84186bf04ee837685be01582dc849f1a13ca08b2f845433b3c20a0c1a8",
          "blockNumber": "0xe4bbb6",
          "transactionHash": "0x5fbbeedf2555b30521eb367915b2169dc7e2f92528511f4a00387ec73df5e9d5",
          "transactionIndex": "0x4",
          "logIndex": "0x9",
          "removed": false
        },
        {
          "address": "0x4200000000000000000000000000000000000006",
          "topics": [
            "0xe1fffcc4923d04b559f4d29a8bfc6cda04eb5b0d3c460751c2402c5c5cc9109c",
            "0x000000000000000000000000d3b06cebf099ce7da4accf578aaebfdbd6e88a93"
          ],
          "data": "0x00000000000000000000000000000000000000000000000000099443d9268758",
          "blockHash": "0xc87dbc84186bf04ee837685be01582dc849f1a13ca08b2f845433b3c20a0c1a8",
          "blockNumber": "0xe4bbb6",
          "transactionHash": "0x5fbbeedf2555b30521eb367915b2169dc7e2f92528511f4a00387ec73df5e9d5",
          "transactionIndex": "0x4",
          "logIndex": "0xa",
          "removed": false
        },
        {
          "address": "0x4200000000000000000000000000000000000006",
          "topics": [
            "0xddf252ad1be2c89b69c2b068fc378daa952ba7f163c4a11628f55a4df523b3ef",
            "0x000000000000000000000000d3b06cebf099ce7da4accf578aaebfdbd6e88a93",
            "0x0000000000000000000000006486906bb2d85a6c0ccef2a2831c11a2059ebfea"
          ],
          "data": "0x00000000000000000000000000000000000000000000000000099443d9268758",
          "blockHash": "0xc87dbc84186bf04ee837685be01582dc849f1a13ca08b2f845433b3c20a0c1a8",
          "blockNumber": "0xe4bbb6",
          "transactionHash": "0x5fbbeedf2555b30521eb367915b2169dc7e2f92528511f4a00387ec73df5e9d5",
          "transactionIndex": "0x4",
          "logIndex": "0xb",
          "removed": false
        },
        {
          "address": "0x88a2d74f47a237a62e7a51cdda67270ce381555e",
          "topics": [
            "0x8c5be1e5ebec7d5bd14f71427d1e84f3dd0314c0f7b2291e5b200ac8c7c3b925",
            "0x0000000000000000000000001d52bc3415aae68806e3fd44d4cdb0b63e68068a",
            "0x000000000000000000000000d3b06cebf099ce7da4accf578aaebfdbd6e88a93"
          ],
          "data": "0x0000000000000000000000000000000000000000000000000000000000000000",
          "blockHash": "0xc87dbc84186bf04ee837685be01582dc849f1a13ca08b2f845433b3c20a0c1a8",
          "blockNumber": "0xe4bbb6",
          "transactionHash": "0x5fbbeedf2555b30521eb367915b2169dc7e2f92528511f4a00387ec73df5e9d5",
          "transactionIndex": "0x4",
          "logIndex": "0xc",
          "removed": false
        },
        {
          "address": "0x88a2d74f47a237a62e7a51cdda67270ce381555e",
          "topics": [
            "0xddf252ad1be2c89b69c2b068fc378daa952ba7f163c4a11628f55a4df523b3ef",
            "0x0000000000000000000000001d52bc3415aae68806e3fd44d4cdb0b63e68068a",
            "0x000000000000000000000000875207858c691f192c606068f417dcf666b2ec6b"
          ],
          "data": "0x00000000000000000000000000000000000000000000000000dbe9b8d798c000",
          "blockHash": "0xc87dbc84186bf04ee837685be01582dc849f1a13ca08b2f845433b3c20a0c1a8",
          "blockNumber": "0xe4bbb6",
          "transactionHash": "0x5fbbeedf2555b30521eb367915b2169dc7e2f92528511f4a00387ec73df5e9d5",
          "transactionIndex": "0x4",
          "logIndex": "0xd",
          "removed": false
        },
        {
          "address": "0x6486906bb2d85a6c0ccef2a2831c11a2059ebfea",
          "topics": [
            "0x1871cdf8010e63f2eb8384381a68dfa7416dc571a5517e66e88b2d2d0c0a690a"
          ],
          "data": "0x00000000000000000000000000000000000000000000000000000000005e73b0",
          "blockHash": "0xc87dbc84186bf04ee837685be01582dc849f1a13ca08b2f845433b3c20a0c1a8",
          "blockNumber": "0xe4bbb6",
          "transactionHash": "0x5fbbeedf2555b30521eb367915b2169dc7e2f92528511f4a00387ec73df5e9d5",
          "transactionIndex": "0x4",
          "logIndex": "0xe",
          "removed": false
        },
        {
          "address": "0x875207858c691f192c606068f417dcf666b2ec6b",
          "topics": [
            "0x1871cdf8010e63f2eb8384381a68dfa7416dc571a5517e66e88b2d2d0c0a690a"
          ],
          "data": "0x00000000000000000000000000000000000000000000000000dbe9b8d798c000",
          "blockHash": "0xc87dbc84186bf04ee837685be01582dc849f1a13ca08b2f845433b3c20a0c1a8",
          "blockNumber": "0xe4bbb6",
          "transactionHash": "0x5fbbeedf2555b30521eb367915b2169dc7e2f92528511f4a00387ec73df5e9d5",
          "transactionIndex": "0x4",
          "logIndex": "0xf",
          "removed": false
        },
        {
          "address": "0x88a2d74f47a237a62e7a51cdda67270ce381555e",
          "topics": [
            "0xddf252ad1be2c89b69c2b068fc378daa952ba7f163c4a11628f55a4df523b3ef",
            "0x000000000000000000000000875207858c691f192c606068f417dcf666b2ec6b",
            "0x0000000000000000000000000000000000000000000000000000000000000000"
          ],
          "data": "0x00000000000000000000000000000000000000000000000000dbe9b8d798c000",
          "blockHash": "0xc87dbc84186bf04ee837685be01582dc849f1a13ca08b2f845433b3c20a0c1a8",
          "blockNumber": "0xe4bbb6",
          "transactionHash": "0x5fbbeedf2555b30521eb367915b2169dc7e2f92528511f4a00387ec73df5e9d5",
          "transactionIndex": "0x4",
          "logIndex": "0x10",
          "removed": false
        },
        {
          "address": "0x875207858c691f192c606068f417dcf666b2ec6b",
          "topics": [
            "0x696de425f79f4a40bc6d2122ca50507f0efbeabbff86a84871b7196ab8ea8df7",
            "0x0000000000000000000000006486906bb2d85a6c0ccef2a2831c11a2059ebfea"
          ],
          "data": "0x00000000000000000000000000000000000000000000000000dbe9b8d798c000",
          "blockHash": "0xc87dbc84186bf04ee837685be01582dc849f1a13ca08b2f845433b3c20a0c1a8",
          "blockNumber": "0xe4bbb6",
          "transactionHash": "0x5fbbeedf2555b30521eb367915b2169dc7e2f92528511f4a00387ec73df5e9d5",
          "transactionIndex": "0x4",
          "logIndex": "0x11",
          "removed": false
        },
        {
          "address": "0x6486906bb2d85a6c0ccef2a2831c11a2059ebfea",
          "topics": [
            "0xd0c3c799bf9e2639de44391e7f524d229b2b55f5b1ea94b2bf7da42f7243dddd"
          ],
          "data": "0x00000000000000000000000000000000000000000000000000000000000000200000000000000000000000000000000000000000000000008f90b8876dee65380000000000000000000000001d52bc3415aae68806e3fd44d4cdb0b63e68068a0000000000000000000000008645c75d0c75b859146aebb74076b319c9331c4e00000000000000000000000000000000000000000000000000000000000007830000000000000000000000000000000000000000000000000000000000200b200000000000000000000000000000000000000000000000000000000000000000000000000000000000000000000000000000000000000000000000000000001c000000000000000000000000420000000000000000000000000000000000000600000000000000000000000000000000000000000000000000099443d926875800000000000000000000000000000000000000000000000000000000000001a000000000000000000000000000000000000000000000000000000000000003000000000000000000000000000000000000000000000000000000000000000360496585fbea9764c0ada2dcb102f96bcb6238c99ca6372cfef811b8d20c26d0460000000000000000000000000000000000000000000000000000000000000140000000000000000000000000000000000000000000000000000000000000002000000000000000000000000000000000000000000000000000000000000000e5e7a050aa000000000000000000000000ee33ddcfb85e06ac1fd0a4b36f9b6958d5a7d3f0000000000000000000000000fd57b4ddbf88a4e07ff4e34c487b99af2fe82a0500000000000000000000000000000000000000000000000000dbe9b8d798c0000000000000000000000000008454d149beb26e3e3fc5ed1c87fb0b2a1b7b6c2c0000000000000000000000000000000000000000000000000000000066dce44c0b9b4067e33b121afb85e94d09cb0efd437c80db1346331969fe36eed6013bac2f94c726e1526165d07f3efffdc001ba8b62935e63256231dc0e96d6ad615e8d1c000000000000000000000000000000000000000000000000000000000000000000000000000000000000000000000000000000000000000000000100000000000000000000000088a2d74f47a237a62e7a51cdda67270ce381555e00000000000000000000000000000000000000000000000000dbe9b8d798c000000000000000000000000000000000000000000000000000000000000000000100000000000000000000000000000000000000000000000000000000000000200000000000000000000000000000000000000000000000000000000000000000",
          "blockHash": "0xc87dbc84186bf04ee837685be01582dc849f1a13ca08b2f845433b3c20a0c1a8",
          "blockNumber": "0xe4bbb6",
          "transactionHash": "0x5fbbeedf2555b30521eb367915b2169dc7e2f92528511f4a00387ec73df5e9d5",
          "transactionIndex": "0x4",
          "logIndex": "0x12",
          "removed": false
        },
        {
          "address": "0x1d52bc3415aae68806e3fd44d4cdb0b63e68068a",
          "topics": [
            "0x437cb3c5ba4364504dda6ba3c906ffb0897c7beeb1675f3aaf22a1b9a99b3994",
            "0x496585fbea9764c0ada2dcb102f96bcb6238c99ca6372cfef811b8d20c26d046",
            "0x000000000000000000000000000000000000000000000000de41ba4fc9d91ad9"
          ],
          "data": "0x0000000000000000000000008645c75d0c75b859146aebb74076b319c9331c4e00000000000000000000000000000000000000000000000000000000000000c000000000000000000000000088a2d74f47a237a62e7a51cdda67270ce381555e00000000000000000000000000000000000000000000000000dbe9b8d798c000000000000000000000000000000000000000000000000000000000000000000000000000000000000000000000000000000000000000000000099443d9268758000000000000000000000000000000000000000000000000000000000000000f646973706174636865642063616c6c0000000000000000000000000000000000",
          "blockHash": "0xc87dbc84186bf04ee837685be01582dc849f1a13ca08b2f845433b3c20a0c1a8",
          "blockNumber": "0xe4bbb6",
          "transactionHash": "0x5fbbeedf2555b30521eb367915b2169dc7e2f92528511f4a00387ec73df5e9d5",
          "transactionIndex": "0x4",
          "logIndex": "0x13",
          "removed": false
        }
      ],
      "logsBloom": "0x00000020000000000000802000000000000000000000000000040000000800000001000000004200002000100000000000000000000000000008400000200000000000000000021000000128000000002000000104000000000000008000000000000000060020080000004000010802040800040000000000000210000000000000000100000000000000000000000000000061002000000000000000000000020000000000000400000000000000002000000000004000000100000000100000000002000010000000000000000000000000000000080000080000004220000010000000000000000004000000000004000000000000400000000000000000",
      "type": "0x2",
      "transactionHash": "0x5fbbeedf2555b30521eb367915b2169dc7e2f92528511f4a00387ec73df5e9d5",
      "transactionIndex": "0x4",
      "blockHash": "0xc87dbc84186bf04ee837685be01582dc849f1a13ca08b2f845433b3c20a0c1a8",
      "blockNumber": "0xe4bbb6",
      "gasUsed": "0x44eb5",
      "effectiveGasPrice": "0x9fe",
      "from": "0x8454d149beb26e3e3fc5ed1c87fb0b2a1b7b6c2c",
      "to": "0x1d52bc3415aae68806e3fd44d4cdb0b63e68068a",
      "contractAddress": null,
      "l1BaseFeeScalar": "0x44d",
      "l1BlobBaseFee": "0x7e800aac",
      "l1BlobBaseFeeScalar": "0xa118b",
      "l1Fee": "0x58ccd54a6d",
      "l1GasPrice": "0x70ddb46",
      "l1GasUsed": "0x10ff"
    }
  ],
  "libraries": [],
  "pending": [],
  "returns": {},
  "timestamp": 1725748818,
  "chain": 84532,
  "commit": "d0f3e83"
}