{
  "transactions": [
    {
      "hash": "0x1b73a0dfba1c4edf1e43261e6fb7b668e1db91bf61ffb6949d6e993c5dfd14f8",
      "transactionType": "CALL",
      "contractName": null,
      "contractAddress": "0xe761736a599eb3c37b741f4df2e8dbb44d48761c",
      "function": null,
      "arguments": null,
      "transaction": {
        "from": "0x8454d149beb26e3e3fc5ed1c87fb0b2a1b7b6c2c",
        "to": "0xe761736a599eb3c37b741f4df2e8dbb44d48761c",
        "gas": "0x714d",
        "value": "0x470de4df820000",
        "input": "0x",
        "nonce": "0x431",
        "chainId": "0x14a34"
      },
      "additionalContracts": [],
      "isFixedGasLimit": false
    },
    {
      "hash": "0xd41cc39740dd73cdaaf39a8071901ef405215519342fb5e392cec8acc59fff80",
      "transactionType": "CALL",
      "contractName": null,
      "contractAddress": "0x88a2d74f47a237a62e7a51cdda67270ce381555e",
      "function": "drip(address)",
      "arguments": [
        "0xe761736A599eb3C37b741F4Df2e8DBB44D48761c"
      ],
      "transaction": {
        "from": "0x8454d149beb26e3e3fc5ed1c87fb0b2a1b7b6c2c",
        "to": "0x88a2d74f47a237a62e7a51cdda67270ce381555e",
        "gas": "0x1230a",
        "value": "0x0",
        "input": "0x67a5cd06000000000000000000000000e761736a599eb3c37b741f4df2e8dbb44d48761c",
        "nonce": "0x432",
        "chainId": "0x14a34"
      },
      "additionalContracts": [],
      "isFixedGasLimit": false
    },
    {
      "hash": "0x42b962e714216c5177589f12d5df31cec103b6f3f53a22c3154cabfa39031248",
      "transactionType": "CALL",
      "contractName": null,
      "contractAddress": "0x88a2d74f47a237a62e7a51cdda67270ce381555e",
      "function": "approve(address,uint256)",
      "arguments": [
        "0x2a0dd3580658CC32e2D0984051DA5f2312001a13",
        "61900000000000000"
      ],
      "transaction": {
        "from": "0xe761736a599eb3c37b741f4df2e8dbb44d48761c",
        "to": "0x88a2d74f47a237a62e7a51cdda67270ce381555e",
        "gas": "0xf9f2",
        "value": "0x0",
        "input": "0x095ea7b30000000000000000000000002a0dd3580658cc32e2d0984051da5f2312001a1300000000000000000000000000000000000000000000000000dbe9b8d798c000",
        "nonce": "0x0",
        "chainId": "0x14a34"
      },
      "additionalContracts": [],
      "isFixedGasLimit": false
    },
    {
      "hash": "0x1744d93ced7f257c5e339caa979094314df9d50f1466a2dd655b8fd403d2788f",
      "transactionType": "CALL",
      "contractName": "TransparentUpgradeableProxy",
      "contractAddress": "0x2a0dd3580658cc32e2d0984051da5f2312001a13",
      "function": null,
      "arguments": null,
      "transaction": {
        "from": "0xe761736a599eb3c37b741f4df2e8dbb44d48761c",
        "to": "0x2a0dd3580658cc32e2d0984051da5f2312001a13",
        "gas": "0x63b9f",
        "value": "0x433416b62927e8",
        "input": "0x1b3565ab000000000000000000000000000000000000000000000000de41ba4fc9d91ad90000000000000000000000000d7135aaf464555e780e2a63f3b1ef0a97b3a49900000000000000000000000000000000000000000000000000000000000000c000000000000000000000000088a2d74f47a237a62e7a51cdda67270ce381555e00000000000000000000000000000000000000000000000000dbe9b8d798c0000000000000000000000000000000000000000000000000000000000000200b2000000000000000000000000000000000000000000000000000000000000000e5e7a050aa000000000000000000000000ee33ddcfb85e06ac1fd0a4b36f9b6958d5a7d3f0000000000000000000000000fd57b4ddbf88a4e07ff4e34c487b99af2fe82a0500000000000000000000000000000000000000000000000000dbe9b8d798c000000000000000000000000000e761736a599eb3c37b741f4df2e8dbb44d48761c0000000000000000000000000000000000000000000000000000000066e9e256a70fa7fd68896514b90dea2da76bd20a71975b46bdfc29c75d6303ebcf64d8551d1cd2de6a91f0c7a5e05360803a6e50f5f699759ad1e0e6bcd37913984d9bf21c000000000000000000000000000000000000000000000000000000",
        "nonce": "0x1",
        "chainId": "0x14a34"
      },
      "additionalContracts": [],
      "isFixedGasLimit": false
    }
  ],
  "receipts": [
    {
      "status": "0x1",
      "cumulativeGasUsed": "0x20c146",
      "logs": [],
      "logsBloom": "0x00000000000000000000000000000000000000000000000000000000000000000000000000000000000000000000000000000000000000000000000000000000000000000000000000000000000000000000000000000000000000000000000000000000000000000000000000000000000000000000000000000000000000000000000000000000000000000000000000000000000000000000000000000000000000000000000000000000000000000000000000000000000000000000000000000000000000000000000000000000000000000000000000000000000000000000000000000000000000000000000000000000000000000000000000000000",
      "type": "0x2",
      "transactionHash": "0x1b73a0dfba1c4edf1e43261e6fb7b668e1db91bf61ffb6949d6e993c5dfd14f8",
      "transactionIndex": "0x8",
      "blockHash": "0x7058648ec572fcbd25790818f8001b9665ef30102e39dcd37bff7466d6a2f95a",
      "blockNumber": "0xeb3acc",
      "gasUsed": "0x5208",
      "effectiveGasPrice": "0xf4350",
      "from": "0x8454d149beb26e3e3fc5ed1c87fb0b2a1b7b6c2c",
      "to": "0xe761736a599eb3c37b741f4df2e8dbb44d48761c",
      "contractAddress": null,
      "l1BaseFeeScalar": "0x44d",
      "l1BlobBaseFee": "0x1",
      "l1BlobBaseFeeScalar": "0xa118b",
      "l1Fee": "0x21486f25b",
      "l1GasPrice": "0x12e4c2397",
      "l1GasUsed": "0x640"
    },
    {
      "status": "0x1",
      "cumulativeGasUsed": "0x97442",
      "logs": [
        {
          "address": "0x88a2d74f47a237a62e7a51cdda67270ce381555e",
          "topics": [
            "0xddf252ad1be2c89b69c2b068fc378daa952ba7f163c4a11628f55a4df523b3ef",
            "0x0000000000000000000000000000000000000000000000000000000000000000",
            "0x000000000000000000000000e761736a599eb3c37b741f4df2e8dbb44d48761c"
          ],
          "data": "0x0000000000000000000000000000000000000000000000000de0b6b3a7640000",
          "blockHash": "0xc2a1b6bc9d0e96d420eb60c074743f428dfc15e510970468bb81f6888f963339",
          "blockNumber": "0xeb3ad1",
          "transactionHash": "0xd41cc39740dd73cdaaf39a8071901ef405215519342fb5e392cec8acc59fff80",
          "transactionIndex": "0x9",
          "logIndex": "0x4",
          "removed": false
        }
      ],
      "logsBloom": "0x00000000000000000000000000000000000000000000000000000000000800400000000000000000000000001000000000000000000000000000000000000000000000000000000000000008000000000000000000000000000000000000000000000000020000080000000000000800000000000000000000000010000000000000000000000000000000000000000000000000000000000000000000000800000000000000000000000000000000000000000000000000000000000000000000000002000000000000000000000000000000000000000000000000000220000000000000000000000000000000000000000000000000000000000000000000",
      "type": "0x2",
      "transactionHash": "0xd41cc39740dd73cdaaf39a8071901ef405215519342fb5e392cec8acc59fff80",
      "transactionIndex": "0x9",
      "blockHash": "0xc2a1b6bc9d0e96d420eb60c074743f428dfc15e510970468bb81f6888f963339",
      "blockNumber": "0xeb3ad1",
      "gasUsed": "0xc701",
      "effectiveGasPrice": "0xf4354",
      "from": "0x8454d149beb26e3e3fc5ed1c87fb0b2a1b7b6c2c",
      "to": "0x88a2d74f47a237a62e7a51cdda67270ce381555e",
      "contractAddress": null,
      "l1BaseFeeScalar": "0x44d",
      "l1BlobBaseFee": "0x1",
      "l1BlobBaseFeeScalar": "0xa118b",
      "l1Fee": "0x1f8a63306",
      "l1GasPrice": "0x11e78da16",
      "l1GasUsed": "0x640"
    },
    {
      "status": "0x1",
      "cumulativeGasUsed": "0xdf227",
      "logs": [
        {
          "address": "0x88a2d74f47a237a62e7a51cdda67270ce381555e",
          "topics": [
            "0x8c5be1e5ebec7d5bd14f71427d1e84f3dd0314c0f7b2291e5b200ac8c7c3b925",
            "0x000000000000000000000000e761736a599eb3c37b741f4df2e8dbb44d48761c",
            "0x0000000000000000000000002a0dd3580658cc32e2d0984051da5f2312001a13"
          ],
          "data": "0x00000000000000000000000000000000000000000000000000dbe9b8d798c000",
          "blockHash": "0xed1c0a97494a7b0af65acbdb0301f6b4b455f6a64b9a75666fd9dac1a1ad89e8",
          "blockNumber": "0xeb3ad5",
          "transactionHash": "0x42b962e714216c5177589f12d5df31cec103b6f3f53a22c3154cabfa39031248",
          "transactionIndex": "0x5",
          "logIndex": "0x4",
          "removed": false
        }
      ],
      "logsBloom": "0x00000000000000000000000000000000000000000000000000000000000800400000000000000000000000001000000000000000000200000000000000200000000000000000000040000000000000000000000000000000000000000000000000000000000000080000000000000000000000000000000000000000000000000000000000000000000000000000000000000000000000000000000000000800020000000000000000000000000000000000000000000000000000000000000000000000000000000000000000000000000000000000000000000000000200000010000000000000000000000000000000000000000000000000000000000000",
      "type": "0x2",
      "transactionHash": "0x42b962e714216c5177589f12d5df31cec103b6f3f53a22c3154cabfa39031248",
      "transactionIndex": "0x5",
      "blockHash": "0xed1c0a97494a7b0af65acbdb0301f6b4b455f6a64b9a75666fd9dac1a1ad89e8",
      "blockNumber": "0xeb3ad5",
      "gasUsed": "0xb4f5",
      "effectiveGasPrice": "0xf4352",
      "from": "0xe761736a599eb3c37b741f4df2e8dbb44d48761c",
      "to": "0x88a2d74f47a237a62e7a51cdda67270ce381555e",
      "contractAddress": null,
      "l1BaseFeeScalar": "0x44d",
      "l1BlobBaseFee": "0x1",
      "l1BlobBaseFeeScalar": "0xa118b",
      "l1Fee": "0x237af5fb6",
      "l1GasPrice": "0x142415f93",
      "l1GasUsed": "0x640"
    },
    {
      "status": "0x1",
      "cumulativeGasUsed": "0x68610",
      "logs": [
        {
          "address": "0x88a2d74f47a237a62e7a51cdda67270ce381555e",
          "topics": [
            "0x8c5be1e5ebec7d5bd14f71427d1e84f3dd0314c0f7b2291e5b200ac8c7c3b925",
            "0x000000000000000000000000e761736a599eb3c37b741f4df2e8dbb44d48761c",
            "0x0000000000000000000000002a0dd3580658cc32e2d0984051da5f2312001a13"
          ],
          "data": "0x0000000000000000000000000000000000000000000000000000000000000000",
          "blockHash": "0x08d9d3e0a7d371897a76eab14bff71ca344377fe8dec758f1642ecbd03e6bf0d",
          "blockNumber": "0xeb3ad9",
          "transactionHash": "0x1744d93ced7f257c5e339caa979094314df9d50f1466a2dd655b8fd403d2788f",
          "transactionIndex": "0x2",
          "logIndex": "0x2",
          "removed": false
        },
        {
          "address": "0x88a2d74f47a237a62e7a51cdda67270ce381555e",
          "topics": [
            "0xddf252ad1be2c89b69c2b068fc378daa952ba7f163c4a11628f55a4df523b3ef",
            "0x000000000000000000000000e761736a599eb3c37b741f4df2e8dbb44d48761c",
            "0x0000000000000000000000002a0dd3580658cc32e2d0984051da5f2312001a13"
          ],
          "data": "0x00000000000000000000000000000000000000000000000000dbe9b8d798c000",
          "blockHash": "0x08d9d3e0a7d371897a76eab14bff71ca344377fe8dec758f1642ecbd03e6bf0d",
          "blockNumber": "0xeb3ad9",
          "transactionHash": "0x1744d93ced7f257c5e339caa979094314df9d50f1466a2dd655b8fd403d2788f",
          "transactionIndex": "0x2",
          "logIndex": "0x3",
          "removed": false
        },
        {
          "address": "0x88a2d74f47a237a62e7a51cdda67270ce381555e",
          "topics": [
            "0x8c5be1e5ebec7d5bd14f71427d1e84f3dd0314c0f7b2291e5b200ac8c7c3b925",
            "0x0000000000000000000000002a0dd3580658cc32e2d0984051da5f2312001a13",
            "0x000000000000000000000000d3b06cebf099ce7da4accf578aaebfdbd6e88a93"
          ],
          "data": "0x00000000000000000000000000000000000000000000000000dbe9b8d798c000",
          "blockHash": "0x08d9d3e0a7d371897a76eab14bff71ca344377fe8dec758f1642ecbd03e6bf0d",
          "blockNumber": "0xeb3ad9",
          "transactionHash": "0x1744d93ced7f257c5e339caa979094314df9d50f1466a2dd655b8fd403d2788f",
          "transactionIndex": "0x2",
          "logIndex": "0x4",
          "removed": false
        },
        {
          "address": "0x4200000000000000000000000000000000000006",
          "topics": [
            "0xe1fffcc4923d04b559f4d29a8bfc6cda04eb5b0d3c460751c2402c5c5cc9109c",
            "0x000000000000000000000000d3b06cebf099ce7da4accf578aaebfdbd6e88a93"
          ],
          "data": "0x00000000000000000000000000000000000000000000000000433416b62927e8",
          "blockHash": "0x08d9d3e0a7d371897a76eab14bff71ca344377fe8dec758f1642ecbd03e6bf0d",
          "blockNumber": "0xeb3ad9",
          "transactionHash": "0x1744d93ced7f257c5e339caa979094314df9d50f1466a2dd655b8fd403d2788f",
          "transactionIndex": "0x2",
          "logIndex": "0x5",
          "removed": false
        },
        {
          "address": "0x4200000000000000000000000000000000000006",
          "topics": [
            "0xddf252ad1be2c89b69c2b068fc378daa952ba7f163c4a11628f55a4df523b3ef",
            "0x000000000000000000000000d3b06cebf099ce7da4accf578aaebfdbd6e88a93",
            "0x0000000000000000000000006486906bb2d85a6c0ccef2a2831c11a2059ebfea"
          ],
          "data": "0x00000000000000000000000000000000000000000000000000433416b62927e8",
          "blockHash": "0x08d9d3e0a7d371897a76eab14bff71ca344377fe8dec758f1642ecbd03e6bf0d",
          "blockNumber": "0xeb3ad9",
          "transactionHash": "0x1744d93ced7f257c5e339caa979094314df9d50f1466a2dd655b8fd403d2788f",
          "transactionIndex": "0x2",
          "logIndex": "0x6",
          "removed": false
        },
        {
          "address": "0x88a2d74f47a237a62e7a51cdda67270ce381555e",
          "topics": [
            "0x8c5be1e5ebec7d5bd14f71427d1e84f3dd0314c0f7b2291e5b200ac8c7c3b925",
            "0x0000000000000000000000002a0dd3580658cc32e2d0984051da5f2312001a13",
            "0x000000000000000000000000d3b06cebf099ce7da4accf578aaebfdbd6e88a93"
          ],
          "data": "0x0000000000000000000000000000000000000000000000000000000000000000",
          "blockHash": "0x08d9d3e0a7d371897a76eab14bff71ca344377fe8dec758f1642ecbd03e6bf0d",
          "blockNumber": "0xeb3ad9",
          "transactionHash": "0x1744d93ced7f257c5e339caa979094314df9d50f1466a2dd655b8fd403d2788f",
          "transactionIndex": "0x2",
          "logIndex": "0x7",
          "removed": false
        },
        {
          "address": "0x88a2d74f47a237a62e7a51cdda67270ce381555e",
          "topics": [
            "0xddf252ad1be2c89b69c2b068fc378daa952ba7f163c4a11628f55a4df523b3ef",
            "0x0000000000000000000000002a0dd3580658cc32e2d0984051da5f2312001a13",
            "0x000000000000000000000000875207858c691f192c606068f417dcf666b2ec6b"
          ],
          "data": "0x00000000000000000000000000000000000000000000000000dbe9b8d798c000",
          "blockHash": "0x08d9d3e0a7d371897a76eab14bff71ca344377fe8dec758f1642ecbd03e6bf0d",
          "blockNumber": "0xeb3ad9",
          "transactionHash": "0x1744d93ced7f257c5e339caa979094314df9d50f1466a2dd655b8fd403d2788f",
          "transactionIndex": "0x2",
          "logIndex": "0x8",
          "removed": false
        },
        {
          "address": "0x6486906bb2d85a6c0ccef2a2831c11a2059ebfea",
          "topics": [
            "0x1871cdf8010e63f2eb8384381a68dfa7416dc571a5517e66e88b2d2d0c0a690a"
          ],
          "data": "0x00000000000000000000000000000000000000000000000000000000005e73b0",
          "blockHash": "0x08d9d3e0a7d371897a76eab14bff71ca344377fe8dec758f1642ecbd03e6bf0d",
          "blockNumber": "0xeb3ad9",
          "transactionHash": "0x1744d93ced7f257c5e339caa979094314df9d50f1466a2dd655b8fd403d2788f",
          "transactionIndex": "0x2",
          "logIndex": "0x9",
          "removed": false
        },
        {
          "address": "0x875207858c691f192c606068f417dcf666b2ec6b",
          "topics": [
            "0x1871cdf8010e63f2eb8384381a68dfa7416dc571a5517e66e88b2d2d0c0a690a"
          ],
          "data": "0x00000000000000000000000000000000000000000000000000dbe9b8d798c000",
          "blockHash": "0x08d9d3e0a7d371897a76eab14bff71ca344377fe8dec758f1642ecbd03e6bf0d",
          "blockNumber": "0xeb3ad9",
          "transactionHash": "0x1744d93ced7f257c5e339caa979094314df9d50f1466a2dd655b8fd403d2788f",
          "transactionIndex": "0x2",
          "logIndex": "0xa",
          "removed": false
        },
        {
          "address": "0x88a2d74f47a237a62e7a51cdda67270ce381555e",
          "topics": [
            "0xddf252ad1be2c89b69c2b068fc378daa952ba7f163c4a11628f55a4df523b3ef",
            "0x000000000000000000000000875207858c691f192c606068f417dcf666b2ec6b",
            "0x0000000000000000000000000000000000000000000000000000000000000000"
          ],
          "data": "0x00000000000000000000000000000000000000000000000000dbe9b8d798c000",
          "blockHash": "0x08d9d3e0a7d371897a76eab14bff71ca344377fe8dec758f1642ecbd03e6bf0d",
          "blockNumber": "0xeb3ad9",
          "transactionHash": "0x1744d93ced7f257c5e339caa979094314df9d50f1466a2dd655b8fd403d2788f",
          "transactionIndex": "0x2",
          "logIndex": "0xb",
          "removed": false
        },
        {
          "address": "0x875207858c691f192c606068f417dcf666b2ec6b",
          "topics": [
            "0x696de425f79f4a40bc6d2122ca50507f0efbeabbff86a84871b7196ab8ea8df7",
            "0x0000000000000000000000006486906bb2d85a6c0ccef2a2831c11a2059ebfea"
          ],
          "data": "0x00000000000000000000000000000000000000000000000000dbe9b8d798c000",
          "blockHash": "0x08d9d3e0a7d371897a76eab14bff71ca344377fe8dec758f1642ecbd03e6bf0d",
          "blockNumber": "0xeb3ad9",
          "transactionHash": "0x1744d93ced7f257c5e339caa979094314df9d50f1466a2dd655b8fd403d2788f",
          "transactionIndex": "0x2",
          "logIndex": "0xc",
          "removed": false
        },
        {
          "address": "0x6486906bb2d85a6c0ccef2a2831c11a2059ebfea",
          "topics": [
            "0xd0c3c799bf9e2639de44391e7f524d229b2b55f5b1ea94b2bf7da42f7243dddd"
          ],
          "data": "0x00000000000000000000000000000000000000000000000000000000000000200000000000000000000000000000000000000000000000008f90b8876dee65380000000000000000000000002a0dd3580658cc32e2d0984051da5f2312001a130000000000000000000000000d7135aaf464555e780e2a63f3b1ef0a97b3a49900000000000000000000000000000000000000000000000000000000000007d60000000000000000000000000000000000000000000000000000000000200b2000000000000000000000000000000000000000000000000000000000000000000000000000000000000000000000000000000000000000000000000000000016000000000000000000000000420000000000000000000000000000000000000600000000000000000000000000000000000000000000000000433416b62927e800000000000000000000000000000000000000000000000000000000000001a00000000000000000000000000000000000000000000000000000000000000300000000000000000000000000000000000000000000000000000000000000036085b23757ca20004e42ebbcfe05d07707811330e5e417455cd950ac9c826070ed0000000000000000000000000000000000000000000000000000000000000140000000000000000000000000000000000000000000000000000000000000002000000000000000000000000000000000000000000000000000000000000000e5e7a050aa000000000000000000000000ee33ddcfb85e06ac1fd0a4b36f9b6958d5a7d3f0000000000000000000000000fd57b4ddbf88a4e07ff4e34c487b99af2fe82a0500000000000000000000000000000000000000000000000000dbe9b8d798c000000000000000000000000000e761736a599eb3c37b741f4df2e8dbb44d48761c0000000000000000000000000000000000000000000000000000000066e9e256a70fa7fd68896514b90dea2da76bd20a71975b46bdfc29c75d6303ebcf64d8551d1cd2de6a91f0c7a5e05360803a6e50f5f699759ad1e0e6bcd37913984d9bf21c000000000000000000000000000000000000000000000000000000000000000000000000000000000000000000000000000000000000000000000100000000000000000000000088a2d74f47a237a62e7a51cdda67270ce381555e00000000000000000000000000000000000000000000000000dbe9b8d798c000000000000000000000000000000000000000000000000000000000000000000100000000000000000000000000000000000000000000000000000000000000200000000000000000000000000000000000000000000000000000000000000000",
          "blockHash": "0x08d9d3e0a7d371897a76eab14bff71ca344377fe8dec758f1642ecbd03e6bf0d",
          "blockNumber": "0xeb3ad9",
          "transactionHash": "0x1744d93ced7f257c5e339caa979094314df9d50f1466a2dd655b8fd403d2788f",
          "transactionIndex": "0x2",
          "logIndex": "0xd",
          "removed": false
        },
        {
          "address": "0x2a0dd3580658cc32e2d0984051da5f2312001a13",
          "topics": [
            "0x437cb3c5ba4364504dda6ba3c906ffb0897c7beeb1675f3aaf22a1b9a99b3994",
            "0x85b23757ca20004e42ebbcfe05d07707811330e5e417455cd950ac9c826070ed",
            "0x000000000000000000000000000000000000000000000000de41ba4fc9d91ad9"
          ],
          "data": "0x0000000000000000000000000d7135aaf464555e780e2a63f3b1ef0a97b3a49900000000000000000000000000000000000000000000000000000000000000c000000000000000000000000088a2d74f47a237a62e7a51cdda67270ce381555e00000000000000000000000000000000000000000000000000dbe9b8d798c000000000000000000000000000000000000000000000000000000000000000000000000000000000000000000000000000000000000000000000433416b62927e8000000000000000000000000000000000000000000000000000000000000000f646973706174636865642063616c6c0000000000000000000000000000000000",
          "blockHash": "0x08d9d3e0a7d371897a76eab14bff71ca344377fe8dec758f1642ecbd03e6bf0d",
          "blockNumber": "0xeb3ad9",
          "transactionHash": "0x1744d93ced7f257c5e339caa979094314df9d50f1466a2dd655b8fd403d2788f",
          "transactionIndex": "0x2",
          "logIndex": "0xe",
          "removed": false
        }
      ],
      "logsBloom": "0x00000020000000000000802000000000000000000000000000040000000800400001000001004000002000101000000000000000000200000008000000200000000000000000021040000028008000002000000100000000000000008000000000000000060000080000004000010802040000040000000000000210000000000000000100000000000000400000000000000021002000000000001000000800022000000000000400000000000000002000000000004000000100000000100000000002000010000000000000000000000000000000000000080000004220000010000000000000000000000000000004000000000000400000000080000000",
      "type": "0x2",
      "transactionHash": "0x1744d93ced7f257c5e339caa979094314df9d50f1466a2dd655b8fd403d2788f",
      "transactionIndex": "0x2",
      "blockHash": "0x08d9d3e0a7d371897a76eab14bff71ca344377fe8dec758f1642ecbd03e6bf0d",
      "blockNumber": "0xeb3ad9",
      "gasUsed": "0x48334",
      "effectiveGasPrice": "0xf4351",
      "from": "0xe761736a599eb3c37b741f4df2e8dbb44d48761c",
      "to": "0x2a0dd3580658cc32e2d0984051da5f2312001a13",
      "contractAddress": null,
      "l1BaseFeeScalar": "0x44d",
      "l1BlobBaseFee": "0x1",
      "l1BlobBaseFeeScalar": "0xa118b",
      "l1Fee": "0x64efbe334",
      "l1GasPrice": "0x142415f93",
      "l1GasUsed": "0x11c7"
    }
  ],
  "libraries": [
    "src/utils/EigenlayerMsgDecoders.sol:AgentOwnerSignature:0xe1483Fa2bbFEADf276b7e3D90b4395041Dfc858f",
    "src/utils/EigenlayerMsgDecoders.sol:DelegationDecoders:0x24e268615e88AAce1E0603cF6c2bec3E8697533B",
    "src/utils/EigenlayerMsgEncoders.sol:EigenlayerMsgEncoders:0xb1e62718F6f0328EEDB329cd277543cc0BBC8cf6",
    "src/utils/FunctionSelectorDecoder.sol:FunctionSelectorDecoder:0x20BC9f23a97E893508bBfdC2e0dBf9cbddf436B5"
  ],
  "pending": [],
  "returns": {},
  "timestamp": 1726600344,
  "chain": 84532,
  "commit": "2d2c0cd"
}