{
  "transactions": [
    {
      "hash": "0xa0fac907df3dca4f8a93b0c929d3c0eb84996b27e2c18089b3f923612f732e0b",
      "transactionType": "CALL",
      "contractName": null,
      "contractAddress": "0x88a2d74f47a237a62e7a51cdda67270ce381555e",
      "function": "drip(address)",
      "arguments": [
        "0x8454d149Beb26E3E3FC5eD1C87Fb0B2a1b7B6c2c"
      ],
      "transaction": {
        "from": "0x8454d149beb26e3e3fc5ed1c87fb0b2a1b7b6c2c",
        "to": "0x88a2d74f47a237a62e7a51cdda67270ce381555e",
        "gas": "0xb69c",
        "value": "0x0",
        "input": "0x67a5cd060000000000000000000000008454d149beb26e3e3fc5ed1c87fb0b2a1b7b6c2c",
        "nonce": "0x4d1",
        "chainId": "0x14a34"
      },
      "additionalContracts": [],
      "isFixedGasLimit": false
    },
    {
      "hash": "0x3cf5fc64cd2ef017fee148d6d4b27f2091638386a0ad0fe7d96e594a921405ba",
      "transactionType": "CALL",
      "contractName": null,
      "contractAddress": "0x88a2d74f47a237a62e7a51cdda67270ce381555e",
      "function": "approve(address,uint256)",
      "arguments": [
        "0xdAA2cfe13769634EE9dF26a0783080Cd2b0ed312",
        "88700000000000000"
      ],
      "transaction": {
        "from": "0x8454d149beb26e3e3fc5ed1c87fb0b2a1b7b6c2c",
        "to": "0x88a2d74f47a237a62e7a51cdda67270ce381555e",
        "gas": "0xfa12",
        "value": "0x0",
        "input": "0x095ea7b3000000000000000000000000daa2cfe13769634ee9df26a0783080cd2b0ed312000000000000000000000000000000000000000000000000013b202e1793c000",
        "nonce": "0x4d2",
        "chainId": "0x14a34"
      },
      "additionalContracts": [],
      "isFixedGasLimit": false
    },
    {
      "hash": "0x7a40079efe548baab62d1779384a3129ab624479df9754f86e206c73126389f9",
      "transactionType": "CALL",
      "contractName": "TransparentUpgradeableProxy",
      "contractAddress": "0xdaa2cfe13769634ee9df26a0783080cd2b0ed312",
      "function": null,
      "arguments": null,
      "transaction": {
        "from": "0x8454d149beb26e3e3fc5ed1c87fb0b2a1b7b6c2c",
        "to": "0xdaa2cfe13769634ee9df26a0783080cd2b0ed312",
        "gas": "0x6906c",
        "value": "0xa73d2d0864d7c8",
        "input": "0x1b3565ab000000000000000000000000000000000000000000000000de41ba4fc9d91ad9000000000000000000000000fde6b8cc33ae01f7696de3c0d3e730f37398513400000000000000000000000000000000000000000000000000000000000000c000000000000000000000000088a2d74f47a237a62e7a51cdda67270ce381555e000000000000000000000000000000000000000000000000013b202e1793c00000000000000000000000000000000000000000000000000000000000000b239000000000000000000000000000000000000000000000000000000000000000e5e7a050aa000000000000000000000000ee33ddcfb85e06ac1fd0a4b36f9b6958d5a7d3f0000000000000000000000000fd57b4ddbf88a4e07ff4e34c487b99af2fe82a05000000000000000000000000000000000000000000000000013b202e1793c0000000000000000000000000008454d149beb26e3e3fc5ed1c87fb0b2a1b7b6c2c0000000000000000000000000000000000000000000000000000000066f2db4ec3cbb9e52384031e85acc3c39fe6b6ae574f74e31ed5b09c23702a0c6f9fae9426a97637e72572626bbcd783bfc32cba4143bf843e3ded0b1b9e507c98afd3841c000000000000000000000000000000000000000000000000000000",
        "nonce": "0x4d3",
        "chainId": "0x14a34"
      },
      "additionalContracts": [],
      "isFixedGasLimit": false
    }
  ],
  "receipts": [
    {
      "status": "0x1",
      "cumulativeGasUsed": "0xe71df",
      "logs": [
        {
          "address": "0x88a2d74f47a237a62e7a51cdda67270ce381555e",
          "topics": [
            "0xddf252ad1be2c89b69c2b068fc378daa952ba7f163c4a11628f55a4df523b3ef",
            "0x0000000000000000000000000000000000000000000000000000000000000000",
            "0x0000000000000000000000008454d149beb26e3e3fc5ed1c87fb0b2a1b7b6c2c"
          ],
          "data": "0x0000000000000000000000000000000000000000000000000de0b6b3a7640000",
          "blockHash": "0x0716cefdd96af3fe481db6c5e884c6034cd1869b9e802409dba0798c60fa1007",
          "blockNumber": "0xefb747",
          "transactionHash": "0xa0fac907df3dca4f8a93b0c929d3c0eb84996b27e2c18089b3f923612f732e0b",
          "transactionIndex": "0x8",
          "logIndex": "0x9",
          "removed": false
        }
      ],
      "logsBloom": "0x00000000000000000000000000000000000000000000000000000000000800000000000000000000000000000000000000000000000000000000000000000000000000000000000000000008000000000000000000000000000000000000000000000000020000080000000000000800000000000000000000000010000000000000000000000000000000000000000000000000000000000000000000000000080000000000000000000000000000000000000000000000000000000000000000000002000000000000000000000000080000000000000000000000000a20000000000000000000000000000000000000000000000000000000000000000000",
      "type": "0x2",
      "transactionHash": "0xa0fac907df3dca4f8a93b0c929d3c0eb84996b27e2c18089b3f923612f732e0b",
      "transactionIndex": "0x8",
      "blockHash": "0x0716cefdd96af3fe481db6c5e884c6034cd1869b9e802409dba0798c60fa1007",
      "blockNumber": "0xefb747",
      "gasUsed": "0x8435",
      "effectiveGasPrice": "0xf434e",
      "from": "0x8454d149beb26e3e3fc5ed1c87fb0b2a1b7b6c2c",
      "to": "0x88a2d74f47a237a62e7a51cdda67270ce381555e",
      "contractAddress": null,
      "l1BaseFeeScalar": "0x44d",
      "l1BlobBaseFee": "0x1",
      "l1BlobBaseFeeScalar": "0xa118b",
      "l1Fee": "0x12c732cf40",
      "l1GasPrice": "0xaa8e1c883",
      "l1GasUsed": "0x640"
    },
    {
      "status": "0x1",
      "cumulativeGasUsed": "0xf26ec",
      "logs": [
        {
          "address": "0x88a2d74f47a237a62e7a51cdda67270ce381555e",
          "topics": [
            "0x8c5be1e5ebec7d5bd14f71427d1e84f3dd0314c0f7b2291e5b200ac8c7c3b925",
            "0x0000000000000000000000008454d149beb26e3e3fc5ed1c87fb0b2a1b7b6c2c",
            "0x000000000000000000000000daa2cfe13769634ee9df26a0783080cd2b0ed312"
          ],
          "data": "0x000000000000000000000000000000000000000000000000013b202e1793c000",
          "blockHash": "0x0716cefdd96af3fe481db6c5e884c6034cd1869b9e802409dba0798c60fa1007",
          "blockNumber": "0xefb747",
          "transactionHash": "0x3cf5fc64cd2ef017fee148d6d4b27f2091638386a0ad0fe7d96e594a921405ba",
          "transactionIndex": "0x9",
          "logIndex": "0xa",
          "removed": false
        }
      ],
      "logsBloom": "0x000000000000000000000000000000000000000000000800000000000008000000000000000000000000000000000000000000000000000000000000002000000000000000000000000000000000000000000000000000000000000001000000000000000000000800000000000000000000000000000000000000000000000000000000000000000000000000000000000000000000000000000000000000000a0000000000000000000000000000000000000000000000000000000000000000000000000000000000000000000000080000000000000000000000000a00000010000000000000000000000000000000000000080000000000000000000000",
      "type": "0x2",
      "transactionHash": "0x3cf5fc64cd2ef017fee148d6d4b27f2091638386a0ad0fe7d96e594a921405ba",
      "transactionIndex": "0x9",
      "blockHash": "0x0716cefdd96af3fe481db6c5e884c6034cd1869b9e802409dba0798c60fa1007",
      "blockNumber": "0xefb747",
      "gasUsed": "0xb50d",
      "effectiveGasPrice": "0xf434e",
      "from": "0x8454d149beb26e3e3fc5ed1c87fb0b2a1b7b6c2c",
      "to": "0x88a2d74f47a237a62e7a51cdda67270ce381555e",
      "contractAddress": null,
      "l1BaseFeeScalar": "0x44d",
      "l1BlobBaseFee": "0x1",
      "l1BlobBaseFeeScalar": "0xa118b",
      "l1Fee": "0x12c732cf40",
      "l1GasPrice": "0xaa8e1c883",
      "l1GasUsed": "0x640"
    },
    {
      "status": "0x1",
      "cumulativeGasUsed": "0x13a3ee",
      "logs": [
        {
          "address": "0x88a2d74f47a237a62e7a51cdda67270ce381555e",
          "topics": [
            "0x8c5be1e5ebec7d5bd14f71427d1e84f3dd0314c0f7b2291e5b200ac8c7c3b925",
            "0x0000000000000000000000008454d149beb26e3e3fc5ed1c87fb0b2a1b7b6c2c",
            "0x000000000000000000000000daa2cfe13769634ee9df26a0783080cd2b0ed312"
          ],
          "data": "0x0000000000000000000000000000000000000000000000000000000000000000",
          "blockHash": "0x0716cefdd96af3fe481db6c5e884c6034cd1869b9e802409dba0798c60fa1007",
          "blockNumber": "0xefb747",
          "transactionHash": "0x7a40079efe548baab62d1779384a3129ab624479df9754f86e206c73126389f9",
          "transactionIndex": "0xa",
          "logIndex": "0xb",
          "removed": false
        },
        {
          "address": "0x88a2d74f47a237a62e7a51cdda67270ce381555e",
          "topics": [
            "0xddf252ad1be2c89b69c2b068fc378daa952ba7f163c4a11628f55a4df523b3ef",
            "0x0000000000000000000000008454d149beb26e3e3fc5ed1c87fb0b2a1b7b6c2c",
            "0x000000000000000000000000daa2cfe13769634ee9df26a0783080cd2b0ed312"
          ],
          "data": "0x000000000000000000000000000000000000000000000000013b202e1793c000",
          "blockHash": "0x0716cefdd96af3fe481db6c5e884c6034cd1869b9e802409dba0798c60fa1007",
          "blockNumber": "0xefb747",
          "transactionHash": "0x7a40079efe548baab62d1779384a3129ab624479df9754f86e206c73126389f9",
          "transactionIndex": "0xa",
          "logIndex": "0xc",
          "removed": false
        },
        {
          "address": "0x88a2d74f47a237a62e7a51cdda67270ce381555e",
          "topics": [
            "0x8c5be1e5ebec7d5bd14f71427d1e84f3dd0314c0f7b2291e5b200ac8c7c3b925",
            "0x000000000000000000000000daa2cfe13769634ee9df26a0783080cd2b0ed312",
            "0x000000000000000000000000d3b06cebf099ce7da4accf578aaebfdbd6e88a93"
          ],
          "data": "0x000000000000000000000000000000000000000000000000013b202e1793c000",
          "blockHash": "0x0716cefdd96af3fe481db6c5e884c6034cd1869b9e802409dba0798c60fa1007",
          "blockNumber": "0xefb747",
          "transactionHash": "0x7a40079efe548baab62d1779384a3129ab624479df9754f86e206c73126389f9",
          "transactionIndex": "0xa",
          "logIndex": "0xd",
          "removed": false
        },
        {
          "address": "0x4200000000000000000000000000000000000006",
          "topics": [
            "0xe1fffcc4923d04b559f4d29a8bfc6cda04eb5b0d3c460751c2402c5c5cc9109c",
            "0x000000000000000000000000d3b06cebf099ce7da4accf578aaebfdbd6e88a93"
          ],
          "data": "0x00000000000000000000000000000000000000000000000000a73d2d0864d7c8",
          "blockHash": "0x0716cefdd96af3fe481db6c5e884c6034cd1869b9e802409dba0798c60fa1007",
          "blockNumber": "0xefb747",
          "transactionHash": "0x7a40079efe548baab62d1779384a3129ab624479df9754f86e206c73126389f9",
          "transactionIndex": "0xa",
          "logIndex": "0xe",
          "removed": false
        },
        {
          "address": "0x4200000000000000000000000000000000000006",
          "topics": [
            "0xddf252ad1be2c89b69c2b068fc378daa952ba7f163c4a11628f55a4df523b3ef",
            "0x000000000000000000000000d3b06cebf099ce7da4accf578aaebfdbd6e88a93",
            "0x0000000000000000000000006486906bb2d85a6c0ccef2a2831c11a2059ebfea"
          ],
          "data": "0x00000000000000000000000000000000000000000000000000a73d2d0864d7c8",
          "blockHash": "0x0716cefdd96af3fe481db6c5e884c6034cd1869b9e802409dba0798c60fa1007",
          "blockNumber": "0xefb747",
          "transactionHash": "0x7a40079efe548baab62d1779384a3129ab624479df9754f86e206c73126389f9",
          "transactionIndex": "0xa",
          "logIndex": "0xf",
          "removed": false
        },
        {
          "address": "0x88a2d74f47a237a62e7a51cdda67270ce381555e",
          "topics": [
            "0x8c5be1e5ebec7d5bd14f71427d1e84f3dd0314c0f7b2291e5b200ac8c7c3b925",
            "0x000000000000000000000000daa2cfe13769634ee9df26a0783080cd2b0ed312",
            "0x000000000000000000000000d3b06cebf099ce7da4accf578aaebfdbd6e88a93"
          ],
          "data": "0x0000000000000000000000000000000000000000000000000000000000000000",
          "blockHash": "0x0716cefdd96af3fe481db6c5e884c6034cd1869b9e802409dba0798c60fa1007",
          "blockNumber": "0xefb747",
          "transactionHash": "0x7a40079efe548baab62d1779384a3129ab624479df9754f86e206c73126389f9",
          "transactionIndex": "0xa",
          "logIndex": "0x10",
          "removed": false
        },
        {
          "address": "0x88a2d74f47a237a62e7a51cdda67270ce381555e",
          "topics": [
            "0xddf252ad1be2c89b69c2b068fc378daa952ba7f163c4a11628f55a4df523b3ef",
            "0x000000000000000000000000daa2cfe13769634ee9df26a0783080cd2b0ed312",
            "0x000000000000000000000000875207858c691f192c606068f417dcf666b2ec6b"
          ],
          "data": "0x000000000000000000000000000000000000000000000000013b202e1793c000",
          "blockHash": "0x0716cefdd96af3fe481db6c5e884c6034cd1869b9e802409dba0798c60fa1007",
          "blockNumber": "0xefb747",
          "transactionHash": "0x7a40079efe548baab62d1779384a3129ab624479df9754f86e206c73126389f9",
          "transactionIndex": "0xa",
          "logIndex": "0x11",
          "removed": false
        },
        {
          "address": "0x6486906bb2d85a6c0ccef2a2831c11a2059ebfea",
          "topics": [
            "0x1871cdf8010e63f2eb8384381a68dfa7416dc571a5517e66e88b2d2d0c0a690a"
          ],
          "data": "0x0000000000000000000000000000000000000000000000000000000000875870",
          "blockHash": "0x0716cefdd96af3fe481db6c5e884c6034cd1869b9e802409dba0798c60fa1007",
          "blockNumber": "0xefb747",
          "transactionHash": "0x7a40079efe548baab62d1779384a3129ab624479df9754f86e206c73126389f9",
          "transactionIndex": "0xa",
          "logIndex": "0x12",
          "removed": false
        },
        {
          "address": "0x875207858c691f192c606068f417dcf666b2ec6b",
          "topics": [
            "0x1871cdf8010e63f2eb8384381a68dfa7416dc571a5517e66e88b2d2d0c0a690a"
          ],
          "data": "0x000000000000000000000000000000000000000000000000013b202e1793c000",
          "blockHash": "0x0716cefdd96af3fe481db6c5e884c6034cd1869b9e802409dba0798c60fa1007",
          "blockNumber": "0xefb747",
          "transactionHash": "0x7a40079efe548baab62d1779384a3129ab624479df9754f86e206c73126389f9",
          "transactionIndex": "0xa",
          "logIndex": "0x13",
          "removed": false
        },
        {
          "address": "0x88a2d74f47a237a62e7a51cdda67270ce381555e",
          "topics": [
            "0xddf252ad1be2c89b69c2b068fc378daa952ba7f163c4a11628f55a4df523b3ef",
            "0x000000000000000000000000875207858c691f192c606068f417dcf666b2ec6b",
            "0x0000000000000000000000000000000000000000000000000000000000000000"
          ],
          "data": "0x000000000000000000000000000000000000000000000000013b202e1793c000",
          "blockHash": "0x0716cefdd96af3fe481db6c5e884c6034cd1869b9e802409dba0798c60fa1007",
          "blockNumber": "0xefb747",
          "transactionHash": "0x7a40079efe548baab62d1779384a3129ab624479df9754f86e206c73126389f9",
          "transactionIndex": "0xa",
          "logIndex": "0x14",
          "removed": false
        },
        {
          "address": "0x875207858c691f192c606068f417dcf666b2ec6b",
          "topics": [
            "0x696de425f79f4a40bc6d2122ca50507f0efbeabbff86a84871b7196ab8ea8df7",
            "0x0000000000000000000000006486906bb2d85a6c0ccef2a2831c11a2059ebfea"
          ],
          "data": "0x000000000000000000000000000000000000000000000000013b202e1793c000",
          "blockHash": "0x0716cefdd96af3fe481db6c5e884c6034cd1869b9e802409dba0798c60fa1007",
          "blockNumber": "0xefb747",
          "transactionHash": "0x7a40079efe548baab62d1779384a3129ab624479df9754f86e206c73126389f9",
          "transactionIndex": "0xa",
          "logIndex": "0x15",
          "removed": false
        },
        {
          "address": "0x6486906bb2d85a6c0ccef2a2831c11a2059ebfea",
          "topics": [
            "0xd0c3c799bf9e2639de44391e7f524d229b2b55f5b1ea94b2bf7da42f7243dddd"
          ],
          "data": "0x00000000000000000000000000000000000000000000000000000000000000200000000000000000000000000000000000000000000000008f90b8876dee6538000000000000000000000000daa2cfe13769634ee9df26a0783080cd2b0ed312000000000000000000000000fde6b8cc33ae01f7696de3c0d3e730f37398513400000000000000000000000000000000000000000000000000000000000007f400000000000000000000000000000000000000000000000000000000000b239000000000000000000000000000000000000000000000000000000000000000000000000000000000000000000000000000000000000000000000000000000015000000000000000000000000420000000000000000000000000000000000000600000000000000000000000000000000000000000000000000a73d2d0864d7c800000000000000000000000000000000000000000000000000000000000001a000000000000000000000000000000000000000000000000000000000000003000000000000000000000000000000000000000000000000000000000000000360ac9448edc7cd975d00356b705f05e2a50f1c6c0703fff83531b4558e8b9c11d40000000000000000000000000000000000000000000000000000000000000140000000000000000000000000000000000000000000000000000000000000002000000000000000000000000000000000000000000000000000000000000000e5e7a050aa000000000000000000000000ee33ddcfb85e06ac1fd0a4b36f9b6958d5a7d3f0000000000000000000000000fd57b4ddbf88a4e07ff4e34c487b99af2fe82a05000000000000000000000000000000000000000000000000013b202e1793c0000000000000000000000000008454d149beb26e3e3fc5ed1c87fb0b2a1b7b6c2c0000000000000000000000000000000000000000000000000000000066f2db4ec3cbb9e52384031e85acc3c39fe6b6ae574f74e31ed5b09c23702a0c6f9fae9426a97637e72572626bbcd783bfc32cba4143bf843e3ded0b1b9e507c98afd3841c000000000000000000000000000000000000000000000000000000000000000000000000000000000000000000000000000000000000000000000100000000000000000000000088a2d74f47a237a62e7a51cdda67270ce381555e000000000000000000000000000000000000000000000000013b202e1793c000000000000000000000000000000000000000000000000000000000000000000100000000000000000000000000000000000000000000000000000000000000200000000000000000000000000000000000000000000000000000000000000000",
          "blockHash": "0x0716cefdd96af3fe481db6c5e884c6034cd1869b9e802409dba0798c60fa1007",
          "blockNumber": "0xefb747",
          "transactionHash": "0x7a40079efe548baab62d1779384a3129ab624479df9754f86e206c73126389f9",
          "transactionIndex": "0xa",
          "logIndex": "0x16",
          "removed": false
        },
        {
          "address": "0xdaa2cfe13769634ee9df26a0783080cd2b0ed312",
          "topics": [
            "0x6b6da56b1307373f9bd6679da1d5b7f08ce714f80bc3b92807d23fd9064917f8",
            "0xac9448edc7cd975d00356b705f05e2a50f1c6c0703fff83531b4558e8b9c11d4",
            "0x000000000000000000000000000000000000000000000000de41ba4fc9d91ad9"
          ],
          "data": "0x000000000000000000000000fde6b8cc33ae01f7696de3c0d3e730f37398513400000000000000000000000088a2d74f47a237a62e7a51cdda67270ce381555e000000000000000000000000000000000000000000000000013b202e1793c000000000000000000000000000000000000000000000000000000000000000000000000000000000000000000000000000000000000000000000a73d2d0864d7c8",
          "blockHash": "0x0716cefdd96af3fe481db6c5e884c6034cd1869b9e802409dba0798c60fa1007",
          "blockNumber": "0xefb747",
          "transactionHash": "0x7a40079efe548baab62d1779384a3129ab624479df9754f86e206c73126389f9",
          "transactionIndex": "0xa",
          "logIndex": "0x17",
          "removed": false
        }
      ],
      "logsBloom": "0x000000200800000000008000000000000000000000000800000400000008000000000000000040000020001000000000000000000000000000080000002000000000001000000210000000080000000020000001000000000000000081000000000400000600000800000040000108020400000400000000000002100000000000000001000000000000000000000000000000210020000000000000000000000a0100000000000400001400000000002000000000004000000100000000100000000002000010800000000000000000080000000000000000080000004a20400010000000020000000000000000000004000000080000400000000000000000",
      "type": "0x2",
      "transactionHash": "0x7a40079efe548baab62d1779384a3129ab624479df9754f86e206c73126389f9",
      "transactionIndex": "0xa",
      "blockHash": "0x0716cefdd96af3fe481db6c5e884c6034cd1869b9e802409dba0798c60fa1007",
      "blockNumber": "0xefb747",
      "gasUsed": "0x47d02",
      "effectiveGasPrice": "0xf434e",
      "from": "0x8454d149beb26e3e3fc5ed1c87fb0b2a1b7b6c2c",
      "to": "0xdaa2cfe13769634ee9df26a0783080cd2b0ed312",
      "contractAddress": null,
      "l1BaseFeeScalar": "0x44d",
      "l1BlobBaseFee": "0x1",
      "l1BlobBaseFeeScalar": "0xa118b",
      "l1Fee": "0x3685498ff4",
      "l1GasPrice": "0xaa8e1c883",
      "l1GasUsed": "0x1225"
    }
  ],
  "libraries": [
    "src/utils/EigenlayerMsgDecoders.sol:AgentOwnerSignature:0x2fE425ff05CBc0A4B1b7B539eB19207fB0DD959D",
    "src/utils/EigenlayerMsgDecoders.sol:DelegationDecoders:0xB7E353B632396a6A771C03912CdEd757e5806057",
    "src/utils/EigenlayerMsgEncoders.sol:EigenlayerMsgEncoders:0xc9ee7bC7dC8EC9eEb7f6eFaA4715d8D59092Da01",
    "src/utils/FunctionSelectorDecoder.sol:FunctionSelectorDecoder:0xe917c8B6d2427bBDaE5D5CaA51DEcc57CE4a71ee"
  ],
  "pending": [],
  "returns": {},
  "timestamp": 1727188334,
  "chain": 84532,
  "commit": "e5b745c"
}