{
  "deployments": [
    {
      "transactions": [
        {
          "hash": "0x2d1d4eb180c5794d522a42d9e64962485642aedc26ca0e13349bb1c0990f1897",
          "transactionType": "CALL",
          "contractName": null,
          "contractAddress": "0x79c6e350fb32b7939d034fcc583ba87a004b2234",
          "function": "allowlistSourceChain(uint64,bool)",
          "arguments": [
            "10344971235874465080",
            "true"
          ],
          "transaction": {
            "from": "0x8454d149beb26e3e3fc5ed1c87fb0b2a1b7b6c2c",
            "to": "0x79c6e350fb32b7939d034fcc583ba87a004b2234",
            "gas": "0x120d8",
            "value": "0x0",
            "input": "0xdb04fa490000000000000000000000000000000000000000000000008f90b8876dee65380000000000000000000000000000000000000000000000000000000000000001",
            "nonce": "0x129",
            "chainId": "0x14a34"
          },
          "additionalContracts": [],
          "isFixedGasLimit": false
        },
        {
          "hash": "0x65f8fbfc86ec523a658dad121a760bed4726595a735afd89d415bf01570b7d85",
          "transactionType": "CALL",
          "contractName": null,
          "contractAddress": "0x79c6e350fb32b7939d034fcc583ba87a004b2234",
          "function": "allowlistSender(address,bool)",
          "arguments": [
            "0x6A8ef6e10bf6D27330a0fB903f49823C96bcD97a",
            "true"
          ],
          "transaction": {
            "from": "0x8454d149beb26e3e3fc5ed1c87fb0b2a1b7b6c2c",
            "to": "0x79c6e350fb32b7939d034fcc583ba87a004b2234",
            "gas": "0x121d4",
            "value": "0x0",
            "input": "0xeab5b02c0000000000000000000000006a8ef6e10bf6d27330a0fb903f49823c96bcd97a0000000000000000000000000000000000000000000000000000000000000001",
            "nonce": "0x12a",
            "chainId": "0x14a34"
          },
          "additionalContracts": [],
          "isFixedGasLimit": false
        },
        {
          "hash": "0xafda4f7b438ae69785a2edd994a66d203f2d7c7338afb0f08d299e337c3185d3",
          "transactionType": "CALL",
          "contractName": null,
          "contractAddress": "0x88a2d74f47a237a62e7a51cdda67270ce381555e",
          "function": "drip(address)",
          "arguments": [
            "0x8454d149Beb26E3E3FC5eD1C87Fb0B2a1b7B6c2c"
          ],
          "transaction": {
            "from": "0x8454d149beb26e3e3fc5ed1c87fb0b2a1b7b6c2c",
            "to": "0x88a2d74f47a237a62e7a51cdda67270ce381555e",
            "gas": "0xb69c",
            "value": "0x0",
            "input": "0x67a5cd060000000000000000000000008454d149beb26e3e3fc5ed1c87fb0b2a1b7b6c2c",
            "nonce": "0x12b",
            "chainId": "0x14a34"
          },
          "additionalContracts": [],
          "isFixedGasLimit": false
        }
      ],
      "receipts": [
        {
          "status": "0x1",
          "cumulativeGasUsed": "0x14eee4",
          "logs": [],
          "logsBloom": "0x00000000000000000000000000000000000000000000000000000000000000000000000000000000000000000000000000000000000000000000000000000000000000000000000000000000000000000000000000000000000000000000000000000000000000000000000000000000000000000000000000000000000000000000000000000000000000000000000000000000000000000000000000000000000000000000000000000000000000000000000000000000000000000000000000000000000000000000000000000000000000000000000000000000000000000000000000000000000000000000000000000000000000000000000000000000",
          "type": "0x2",
          "transactionHash": "0x2d1d4eb180c5794d522a42d9e64962485642aedc26ca0e13349bb1c0990f1897",
          "transactionIndex": "0x4",
          "blockHash": "0x086e927560655ced5d3b775b1b7da9db09ed3ef863b47d3925509e4aa4c0ca97",
          "blockNumber": "0xdcb393",
          "gasUsed": "0xd11f",
          "effectiveGasPrice": "0xc2df0c",
          "from": "0x8454d149beb26e3e3fc5ed1c87fb0b2a1b7b6c2c",
          "to": "0x79c6e350fb32b7939d034fcc583ba87a004b2234",
          "contractAddress": null,
          "l1BaseFeeScalar": "0x44d",
          "l1BlobBaseFee": "0x2604f4d55",
          "l1BlobBaseFeeScalar": "0xa118b",
          "l1Fee": "0x9d6340944e",
          "l1GasPrice": "0x563643dc",
          "l1GasUsed": "0x640"
        },
        {
          "status": "0x1",
          "cumulativeGasUsed": "0x15c0b9",
          "logs": [],
          "logsBloom": "0x00000000000000000000000000000000000000000000000000000000000000000000000000000000000000000000000000000000000000000000000000000000000000000000000000000000000000000000000000000000000000000000000000000000000000000000000000000000000000000000000000000000000000000000000000000000000000000000000000000000000000000000000000000000000000000000000000000000000000000000000000000000000000000000000000000000000000000000000000000000000000000000000000000000000000000000000000000000000000000000000000000000000000000000000000000000",
          "type": "0x2",
          "transactionHash": "0x65f8fbfc86ec523a658dad121a760bed4726595a735afd89d415bf01570b7d85",
          "transactionIndex": "0x5",
          "blockHash": "0x086e927560655ced5d3b775b1b7da9db09ed3ef863b47d3925509e4aa4c0ca97",
          "blockNumber": "0xdcb393",
          "gasUsed": "0xd1d5",
          "effectiveGasPrice": "0xc2df0c",
          "from": "0x8454d149beb26e3e3fc5ed1c87fb0b2a1b7b6c2c",
          "to": "0x79c6e350fb32b7939d034fcc583ba87a004b2234",
          "contractAddress": null,
          "l1BaseFeeScalar": "0x44d",
          "l1BlobBaseFee": "0x2604f4d55",
          "l1BlobBaseFeeScalar": "0xa118b",
          "l1Fee": "0x9d6340944e",
          "l1GasPrice": "0x563643dc",
          "l1GasUsed": "0x640"
        },
        {
          "status": "0x1",
          "cumulativeGasUsed": "0x1644ee",
          "logs": [
            {
              "address": "0x88a2d74f47a237a62e7a51cdda67270ce381555e",
              "topics": [
                "0xddf252ad1be2c89b69c2b068fc378daa952ba7f163c4a11628f55a4df523b3ef",
                "0x0000000000000000000000000000000000000000000000000000000000000000",
                "0x0000000000000000000000008454d149beb26e3e3fc5ed1c87fb0b2a1b7b6c2c"
              ],
              "data": "0x0000000000000000000000000000000000000000000000000de0b6b3a7640000",
              "blockHash": "0x086e927560655ced5d3b775b1b7da9db09ed3ef863b47d3925509e4aa4c0ca97",
              "blockNumber": "0xdcb393",
              "transactionHash": "0xafda4f7b438ae69785a2edd994a66d203f2d7c7338afb0f08d299e337c3185d3",
              "transactionIndex": "0x6",
              "logIndex": "0x1f",
              "removed": false
            }
          ],
          "logsBloom": "0x00000000000000000000000000000000000000000000000000000000000800000000000000000000000000000000000000000000000000000000000000000000000000000000000000000008000000000000000000000000000000000000000000000000020000080000000000000800000000000000000000000010000000000000000000000000000000000000000000000000000000000000000000000000080000000000000000000000000000000000000000000000000000000000000000000002000000000000000000000000080000000000000000000000000a20000000000000000000000000000000000000000000000000000000000000000000",
          "type": "0x2",
          "transactionHash": "0xafda4f7b438ae69785a2edd994a66d203f2d7c7338afb0f08d299e337c3185d3",
          "transactionIndex": "0x6",
          "blockHash": "0x086e927560655ced5d3b775b1b7da9db09ed3ef863b47d3925509e4aa4c0ca97",
          "blockNumber": "0xdcb393",
          "gasUsed": "0x8435",
          "effectiveGasPrice": "0xc2df0c",
          "from": "0x8454d149beb26e3e3fc5ed1c87fb0b2a1b7b6c2c",
          "to": "0x88a2d74f47a237a62e7a51cdda67270ce381555e",
          "contractAddress": null,
          "l1BaseFeeScalar": "0x44d",
          "l1BlobBaseFee": "0x2604f4d55",
          "l1BlobBaseFeeScalar": "0xa118b",
          "l1Fee": "0x9d6340944e",
          "l1GasPrice": "0x563643dc",
          "l1GasUsed": "0x640"
        }
      ],
      "libraries": [],
      "pending": [],
      "returns": {},
      "timestamp": 1724696067,
      "chain": 84532,
      "commit": "5433cfc"
    },
    {
      "transactions": [
        {
          "hash": "0xfabd90ad787f4a5b773b688524162d9a176314ea17ff2ea5e8fa5c27f4f3ab98",
          "transactionType": "CALL",
          "contractName": null,
          "contractAddress": "0x6a8ef6e10bf6d27330a0fb903f49823c96bcd97a",
          "function": "allowlistSender(address,bool)",
          "arguments": [
            "0x8454d149Beb26E3E3FC5eD1C87Fb0B2a1b7B6c2c",
            "true"
          ],
          "transaction": {
            "from": "0x8454d149beb26e3e3fc5ed1c87fb0b2a1b7b6c2c",
            "to": "0x6a8ef6e10bf6d27330a0fb903f49823c96bcd97a",
            "gas": "0x13321",
            "value": "0x0",
            "input": "0xeab5b02c0000000000000000000000008454d149beb26e3e3fc5ed1c87fb0b2a1b7b6c2c0000000000000000000000000000000000000000000000000000000000000001",
            "nonce": "0x2eb",
            "chainId": "0xaa36a7"
          },
          "additionalContracts": [],
          "isFixedGasLimit": false
        },
        {
          "hash": "0x2eb49d9053897d6b03df0e2b6053b2b4c195fee3b6f90a043812b8162457d51d",
          "transactionType": "CALL",
          "contractName": null,
          "contractAddress": "0xfd57b4ddbf88a4e07ff4e34c487b99af2fe82a05",
          "function": "drip(address)",
          "arguments": [
            "0x6A8ef6e10bf6D27330a0fB903f49823C96bcD97a"
          ],
          "transaction": {
            "from": "0x8454d149beb26e3e3fc5ed1c87fb0b2a1b7b6c2c",
            "to": "0xfd57b4ddbf88a4e07ff4e34c487b99af2fe82a05",
            "gas": "0x1230a",
            "value": "0x0",
            "input": "0x67a5cd060000000000000000000000006a8ef6e10bf6d27330a0fb903f49823c96bcd97a",
            "nonce": "0x2ec",
            "chainId": "0xaa36a7"
          },
          "additionalContracts": [],
          "isFixedGasLimit": false
        }
      ],
      "receipts": [
        {
          "status": "0x1",
          "cumulativeGasUsed": "0xe49ccc",
          "logs": [],
          "logsBloom": "0x00000000000000000000000000000000000000000000000000000000000000000000000000000000000000000000000000000000000000000000000000000000000000000000000000000000000000000000000000000000000000000000000000000000000000000000000000000000000000000000000000000000000000000000000000000000000000000000000000000000000000000000000000000000000000000000000000000000000000000000000000000000000000000000000000000000000000000000000000000000000000000000000000000000000000000000000000000000000000000000000000000000000000000000000000000000",
          "type": "0x2",
          "transactionHash": "0xfabd90ad787f4a5b773b688524162d9a176314ea17ff2ea5e8fa5c27f4f3ab98",
          "transactionIndex": "0x44",
          "blockHash": "0x504e718973a1480409f8e6617308204a698bd7f405455da4a36aa5e9f0fb7a20",
          "blockNumber": "0x64590a",
          "gasUsed": "0xd201",
          "effectiveGasPrice": "0x72c295d5",
          "from": "0x8454d149beb26e3e3fc5ed1c87fb0b2a1b7b6c2c",
          "to": "0x6a8ef6e10bf6d27330a0fb903f49823c96bcd97a",
          "contractAddress": null
        },
        {
          "status": "0x1",
          "cumulativeGasUsed": "0xe563cd",
          "logs": [
            {
              "address": "0xfd57b4ddbf88a4e07ff4e34c487b99af2fe82a05",
              "topics": [
                "0xddf252ad1be2c89b69c2b068fc378daa952ba7f163c4a11628f55a4df523b3ef",
                "0x0000000000000000000000000000000000000000000000000000000000000000",
                "0x0000000000000000000000006a8ef6e10bf6d27330a0fb903f49823c96bcd97a"
              ],
              "data": "0x0000000000000000000000000000000000000000000000000de0b6b3a7640000",
              "blockHash": "0x504e718973a1480409f8e6617308204a698bd7f405455da4a36aa5e9f0fb7a20",
              "blockNumber": "0x64590a",
              "transactionHash": "0x2eb49d9053897d6b03df0e2b6053b2b4c195fee3b6f90a043812b8162457d51d",
              "transactionIndex": "0x45",
              "logIndex": "0x6a",
              "removed": false
            }
          ],
          "logsBloom": "0x00000002000000000000000000000000000000000000000000000000000000000000000000000000000000000000000000000000000000000000000000000000000000000000000000000008000000000000000000001000000000000000000000000040021000000000000000000800000000000000000000000010000000000000000000000000000000000000000000000000000000000000000000000000000000000000000040000000000000080000000000000000000000000000000000000002000000000000000000000000000000000000000000000000000020000000000000000000000000000000000000000000000000000000000000000000",
          "type": "0x2",
          "transactionHash": "0x2eb49d9053897d6b03df0e2b6053b2b4c195fee3b6f90a043812b8162457d51d",
          "transactionIndex": "0x45",
          "blockHash": "0x504e718973a1480409f8e6617308204a698bd7f405455da4a36aa5e9f0fb7a20",
          "blockNumber": "0x64590a",
          "gasUsed": "0xc701",
          "effectiveGasPrice": "0x72c295d5",
          "from": "0x8454d149beb26e3e3fc5ed1c87fb0b2a1b7b6c2c",
          "to": "0xfd57b4ddbf88a4e07ff4e34c487b99af2fe82a05",
          "contractAddress": null
        }
      ],
      "libraries": [],
      "pending": [],
      "returns": {},
      "timestamp": 1724696068,
      "chain": 11155111,
      "commit": "5433cfc"
    }
  ],
  "timestamp": 1724696119
}